{
  "_format": "hh-sol-artifact-1",
  "contractName": "SubnetClusterMarket",
  "sourceName": "contracts/SubnetClusterMarket.sol",
  "abi": [
    {
      "inputs": [
        {
          "internalType": "address",
          "name": "target",
          "type": "address"
        }
      ],
      "name": "AddressEmptyCode",
      "type": "error"
    },
    {
      "inputs": [
        {
          "internalType": "address",
          "name": "account",
          "type": "address"
        }
      ],
      "name": "AddressInsufficientBalance",
      "type": "error"
    },
    {
      "inputs": [],
      "name": "FailedInnerCall",
      "type": "error"
    },
    {
      "inputs": [],
      "name": "InvalidInitialization",
      "type": "error"
    },
    {
      "inputs": [],
      "name": "NotInitializing",
      "type": "error"
    },
    {
      "inputs": [
        {
          "internalType": "address",
          "name": "owner",
          "type": "address"
        }
      ],
      "name": "OwnableInvalidOwner",
      "type": "error"
    },
    {
      "inputs": [
        {
          "internalType": "address",
          "name": "account",
          "type": "address"
        }
      ],
      "name": "OwnableUnauthorizedAccount",
      "type": "error"
    },
    {
      "inputs": [],
      "name": "ReentrancyGuardReentrantCall",
      "type": "error"
    },
    {
      "inputs": [
        {
          "internalType": "address",
          "name": "token",
          "type": "address"
        }
      ],
      "name": "SafeERC20FailedOperation",
      "type": "error"
    },
    {
      "anonymous": false,
      "inputs": [
        {
          "indexed": true,
          "internalType": "uint256",
          "name": "clusterId",
          "type": "uint256"
        }
      ],
      "name": "ClusterInactive",
      "type": "event"
    },
    {
      "anonymous": false,
      "inputs": [
        {
          "indexed": true,
          "internalType": "uint256",
          "name": "clusterId",
          "type": "uint256"
        },
        {
          "indexed": true,
          "internalType": "uint256",
          "name": "nodeIp",
          "type": "uint256"
        }
      ],
      "name": "ClusterNodeRemoved",
      "type": "event"
    },
    {
      "anonymous": false,
      "inputs": [
        {
          "indexed": true,
          "internalType": "uint256",
          "name": "clusterId",
          "type": "uint256"
        },
        {
          "indexed": false,
          "internalType": "uint256[]",
          "name": "newNodeIps",
          "type": "uint256[]"
        }
      ],
      "name": "ClusterNodesAdded",
      "type": "event"
    },
    {
      "anonymous": false,
      "inputs": [
        {
          "indexed": false,
          "internalType": "uint256",
          "name": "minDuration",
          "type": "uint256"
        },
        {
          "indexed": false,
          "internalType": "uint256",
          "name": "percent",
          "type": "uint256"
        }
      ],
      "name": "DiscountAdded",
      "type": "event"
    },
    {
      "anonymous": false,
      "inputs": [
        {
          "indexed": false,
          "internalType": "uint64",
          "name": "version",
          "type": "uint64"
        }
      ],
      "name": "Initialized",
      "type": "event"
    },
    {
      "anonymous": false,
      "inputs": [
        {
          "indexed": true,
          "internalType": "address",
          "name": "newOperator",
          "type": "address"
        }
      ],
      "name": "OperatorUpdated",
      "type": "event"
    },
    {
      "anonymous": false,
      "inputs": [
        {
          "indexed": true,
          "internalType": "uint256",
          "name": "orderId",
          "type": "uint256"
        },
        {
          "indexed": true,
          "internalType": "address",
          "name": "user",
          "type": "address"
        }
      ],
      "name": "OrderCanceled",
      "type": "event"
    },
    {
      "anonymous": false,
      "inputs": [
        {
          "indexed": true,
          "internalType": "uint256",
          "name": "orderId",
          "type": "uint256"
        }
      ],
      "name": "OrderConfirmed",
      "type": "event"
    },
    {
      "anonymous": false,
      "inputs": [
        {
          "indexed": true,
          "internalType": "uint256",
          "name": "orderId",
          "type": "uint256"
        },
        {
          "indexed": true,
          "internalType": "address",
          "name": "user",
          "type": "address"
        },
        {
          "indexed": false,
          "internalType": "uint256",
          "name": "price",
          "type": "uint256"
        },
        {
          "indexed": false,
          "internalType": "uint256",
          "name": "discountPrice",
          "type": "uint256"
        }
      ],
      "name": "OrderCreated",
      "type": "event"
    },
    {
      "anonymous": false,
      "inputs": [
        {
          "indexed": true,
          "internalType": "uint256",
          "name": "orderId",
          "type": "uint256"
        },
        {
          "indexed": false,
          "internalType": "uint256",
          "name": "additionalDuration",
          "type": "uint256"
        },
        {
          "indexed": false,
          "internalType": "uint256",
          "name": "additionalPrice",
          "type": "uint256"
        },
        {
          "indexed": false,
          "internalType": "uint256",
          "name": "discountPrice",
          "type": "uint256"
        }
      ],
      "name": "OrderExtended",
      "type": "event"
    },
    {
      "anonymous": false,
      "inputs": [
        {
          "indexed": true,
          "internalType": "uint256",
          "name": "orderId",
          "type": "uint256"
        },
        {
          "indexed": false,
          "internalType": "uint256",
          "name": "gpu",
          "type": "uint256"
        },
        {
          "indexed": false,
          "internalType": "uint256",
          "name": "cpu",
          "type": "uint256"
        },
        {
          "indexed": false,
          "internalType": "uint256",
          "name": "memoryBytes",
          "type": "uint256"
        },
        {
          "indexed": false,
          "internalType": "uint256",
          "name": "disk",
          "type": "uint256"
        },
        {
          "indexed": false,
          "internalType": "uint256",
          "name": "network",
          "type": "uint256"
        },
        {
          "indexed": false,
          "internalType": "uint256",
          "name": "totalPrice",
          "type": "uint256"
        },
        {
          "indexed": false,
          "internalType": "uint256",
          "name": "discountPrice",
          "type": "uint256"
        }
      ],
      "name": "OrderScaled",
      "type": "event"
    },
    {
      "anonymous": false,
      "inputs": [
        {
          "indexed": true,
          "internalType": "address",
          "name": "previousOwner",
          "type": "address"
        },
        {
          "indexed": true,
          "internalType": "address",
          "name": "newOwner",
          "type": "address"
        }
      ],
      "name": "OwnershipTransferred",
      "type": "event"
    },
    {
      "anonymous": false,
      "inputs": [
        {
          "indexed": false,
          "internalType": "uint256",
          "name": "gpu",
          "type": "uint256"
        },
        {
          "indexed": false,
          "internalType": "uint256",
          "name": "cpu",
          "type": "uint256"
        },
        {
          "indexed": false,
          "internalType": "uint256",
          "name": "memoryBytes",
          "type": "uint256"
        },
        {
          "indexed": false,
          "internalType": "uint256",
          "name": "disk",
          "type": "uint256"
        },
        {
          "indexed": false,
          "internalType": "uint256",
          "name": "network",
          "type": "uint256"
        }
      ],
      "name": "ResourcePriceUpdated",
      "type": "event"
    },
    {
      "inputs": [
        {
          "internalType": "uint256",
          "name": "minDuration",
          "type": "uint256"
        },
        {
          "internalType": "uint256",
          "name": "percent",
          "type": "uint256"
        }
      ],
      "name": "addDiscount",
      "outputs": [],
      "stateMutability": "nonpayable",
      "type": "function"
    },
    {
      "inputs": [
        {
          "internalType": "uint256",
          "name": "clusterId",
          "type": "uint256"
        },
        {
          "internalType": "uint256[]",
          "name": "newNodeIps",
          "type": "uint256[]"
        }
      ],
      "name": "addNodesToCluster",
      "outputs": [],
      "stateMutability": "nonpayable",
      "type": "function"
    },
    {
      "inputs": [
        {
          "internalType": "uint256",
          "name": "nodeIp1",
          "type": "uint256"
        },
        {
          "internalType": "uint256",
          "name": "nodeIp2",
          "type": "uint256"
        }
      ],
      "name": "areNodesInAnySameCluster",
      "outputs": [
        {
          "internalType": "bool",
          "name": "sameCluster",
          "type": "bool"
        }
      ],
      "stateMutability": "view",
      "type": "function"
    },
    {
      "inputs": [
        {
          "internalType": "uint256",
          "name": "orderId",
          "type": "uint256"
        }
      ],
      "name": "cancelOrder",
      "outputs": [],
      "stateMutability": "nonpayable",
      "type": "function"
    },
    {
      "inputs": [
        {
          "internalType": "uint256",
          "name": "",
          "type": "uint256"
        }
      ],
      "name": "clusters",
      "outputs": [
        {
          "internalType": "address",
          "name": "owner",
          "type": "address"
        },
        {
          "internalType": "uint256",
          "name": "orderId",
          "type": "uint256"
        },
        {
          "internalType": "bool",
          "name": "active",
          "type": "bool"
        },
        {
          "internalType": "uint256",
          "name": "expiration",
          "type": "uint256"
        },
        {
          "internalType": "address",
          "name": "renter",
          "type": "address"
        },
        {
          "internalType": "uint256",
          "name": "renterIp",
          "type": "uint256"
        },
        {
          "internalType": "uint256",
          "name": "ip",
          "type": "uint256"
        },
        {
          "internalType": "uint256",
          "name": "gpu",
          "type": "uint256"
        },
        {
          "internalType": "uint256",
          "name": "cpu",
          "type": "uint256"
        },
        {
          "internalType": "uint256",
          "name": "memoryBytes",
          "type": "uint256"
        },
        {
          "internalType": "uint256",
          "name": "disk",
          "type": "uint256"
        },
        {
          "internalType": "uint256",
          "name": "network",
          "type": "uint256"
        }
      ],
      "stateMutability": "view",
      "type": "function"
    },
    {
      "inputs": [
        {
          "internalType": "uint256",
          "name": "orderId",
          "type": "uint256"
        },
        {
          "internalType": "uint256[]",
          "name": "nodeIps",
          "type": "uint256[]"
        }
      ],
      "name": "confirmOrder",
      "outputs": [],
      "stateMutability": "nonpayable",
      "type": "function"
    },
    {
      "inputs": [
        {
          "internalType": "uint256",
          "name": "orderId",
          "type": "uint256"
        }
      ],
      "name": "confirmScaleOrder",
      "outputs": [],
      "stateMutability": "nonpayable",
      "type": "function"
    },
    {
      "inputs": [
        {
          "internalType": "uint256",
          "name": "ip",
          "type": "uint256"
        },
        {
          "internalType": "uint256",
          "name": "gpu",
          "type": "uint256"
        },
        {
          "internalType": "uint256",
          "name": "cpu",
          "type": "uint256"
        },
        {
          "internalType": "uint256",
          "name": "memoryBytes",
          "type": "uint256"
        },
        {
          "internalType": "uint256",
          "name": "disk",
          "type": "uint256"
        },
        {
          "internalType": "uint256",
          "name": "network",
          "type": "uint256"
        },
        {
          "internalType": "uint256",
          "name": "rentalDuration",
          "type": "uint256"
        },
        {
          "internalType": "uint256",
          "name": "maxPrice",
          "type": "uint256"
        }
      ],
      "name": "createOrder",
      "outputs": [],
      "stateMutability": "nonpayable",
      "type": "function"
    },
    {
      "inputs": [
        {
          "internalType": "uint256",
          "name": "",
          "type": "uint256"
        }
      ],
      "name": "discounts",
      "outputs": [
        {
          "internalType": "uint256",
          "name": "minDuration",
          "type": "uint256"
        },
        {
          "internalType": "uint256",
          "name": "percent",
          "type": "uint256"
        }
      ],
      "stateMutability": "view",
      "type": "function"
    },
    {
      "inputs": [
        {
          "internalType": "uint256",
          "name": "clusterId",
          "type": "uint256"
        },
        {
          "internalType": "uint256",
          "name": "additionalDuration",
          "type": "uint256"
        },
        {
          "internalType": "uint256",
          "name": "maxPrice",
          "type": "uint256"
        }
      ],
      "name": "extend",
      "outputs": [],
      "stateMutability": "nonpayable",
      "type": "function"
    },
    {
      "inputs": [
        {
          "internalType": "uint256",
          "name": "clusterId",
          "type": "uint256"
        }
      ],
      "name": "getCluster",
      "outputs": [
        {
          "components": [
            {
              "internalType": "address",
              "name": "owner",
              "type": "address"
            },
            {
              "internalType": "uint256",
              "name": "orderId",
              "type": "uint256"
            },
            {
              "internalType": "uint256[]",
              "name": "nodeIps",
              "type": "uint256[]"
            },
            {
              "internalType": "bool",
              "name": "active",
              "type": "bool"
            },
            {
              "internalType": "uint256",
              "name": "expiration",
              "type": "uint256"
            },
            {
              "internalType": "address",
              "name": "renter",
              "type": "address"
            },
            {
              "internalType": "uint256",
              "name": "renterIp",
              "type": "uint256"
            },
            {
              "internalType": "uint256",
              "name": "ip",
              "type": "uint256"
            },
            {
              "internalType": "uint256",
              "name": "gpu",
              "type": "uint256"
            },
            {
              "internalType": "uint256",
              "name": "cpu",
              "type": "uint256"
            },
            {
              "internalType": "uint256",
              "name": "memoryBytes",
              "type": "uint256"
            },
            {
              "internalType": "uint256",
              "name": "disk",
              "type": "uint256"
            },
            {
              "internalType": "uint256",
              "name": "network",
              "type": "uint256"
            }
          ],
          "internalType": "struct SubnetClusterMarket.Cluster",
          "name": "",
          "type": "tuple"
        }
      ],
      "stateMutability": "view",
      "type": "function"
    },
    {
      "inputs": [
        {
          "internalType": "uint256",
          "name": "nodeIp",
          "type": "uint256"
        }
      ],
      "name": "getClustersOfNode",
      "outputs": [
        {
          "internalType": "uint256[]",
          "name": "clusterIds",
          "type": "uint256[]"
        }
      ],
      "stateMutability": "view",
      "type": "function"
    },
    {
      "inputs": [
        {
          "internalType": "uint256",
          "name": "rentalDuration",
          "type": "uint256"
        }
      ],
      "name": "getDiscountPercent",
      "outputs": [
        {
          "internalType": "uint256",
          "name": "",
          "type": "uint256"
        }
      ],
      "stateMutability": "view",
      "type": "function"
    },
    {
      "inputs": [
        {
          "internalType": "uint256[]",
          "name": "clusterIds",
          "type": "uint256[]"
        }
      ],
      "name": "inactiveExpiredClusters",
      "outputs": [],
      "stateMutability": "nonpayable",
      "type": "function"
    },
    {
      "inputs": [
        {
          "internalType": "address",
          "name": "_initialOwner",
          "type": "address"
        },
        {
          "internalType": "address",
          "name": "_operator",
          "type": "address"
        },
        {
          "internalType": "uint256",
          "name": "_gpuPrice",
          "type": "uint256"
        },
        {
          "internalType": "uint256",
          "name": "_cpuPrice",
          "type": "uint256"
        },
        {
          "internalType": "uint256",
          "name": "_memoryBytesPrice",
          "type": "uint256"
        },
        {
          "internalType": "uint256",
          "name": "_diskPrice",
          "type": "uint256"
        },
        {
          "internalType": "uint256",
          "name": "_networkPrice",
          "type": "uint256"
        }
      ],
      "name": "initialize",
      "outputs": [],
      "stateMutability": "nonpayable",
      "type": "function"
    },
    {
      "inputs": [],
      "name": "nextClusterId",
      "outputs": [
        {
          "internalType": "uint256",
          "name": "",
          "type": "uint256"
        }
      ],
      "stateMutability": "view",
      "type": "function"
    },
    {
      "inputs": [],
      "name": "nextOrderId",
      "outputs": [
        {
          "internalType": "uint256",
          "name": "",
          "type": "uint256"
        }
      ],
      "stateMutability": "view",
      "type": "function"
    },
    {
      "inputs": [
        {
          "internalType": "uint256",
          "name": "",
          "type": "uint256"
        },
        {
          "internalType": "uint256",
          "name": "",
          "type": "uint256"
        }
      ],
      "name": "nodeIpToClusterIds",
      "outputs": [
        {
          "internalType": "uint256",
          "name": "",
          "type": "uint256"
        }
      ],
      "stateMutability": "view",
      "type": "function"
    },
    {
      "inputs": [],
      "name": "operator",
      "outputs": [
        {
          "internalType": "address",
          "name": "",
          "type": "address"
        }
      ],
      "stateMutability": "view",
      "type": "function"
    },
    {
      "inputs": [
        {
          "internalType": "uint256",
          "name": "",
          "type": "uint256"
        }
      ],
      "name": "orders",
      "outputs": [
        {
          "internalType": "address",
          "name": "user",
          "type": "address"
        },
        {
          "internalType": "enum SubnetClusterMarket.OrderStatus",
          "name": "status",
          "type": "uint8"
        },
        {
          "internalType": "uint256",
          "name": "ip",
          "type": "uint256"
        },
        {
          "internalType": "uint256",
          "name": "gpu",
          "type": "uint256"
        },
        {
          "internalType": "uint256",
          "name": "cpu",
          "type": "uint256"
        },
        {
          "internalType": "uint256",
          "name": "memoryBytes",
          "type": "uint256"
        },
        {
          "internalType": "uint256",
          "name": "disk",
          "type": "uint256"
        },
        {
          "internalType": "uint256",
          "name": "network",
          "type": "uint256"
        },
        {
          "internalType": "uint256",
          "name": "rentalDuration",
          "type": "uint256"
        },
        {
          "internalType": "address",
          "name": "paymentToken",
          "type": "address"
        },
        {
          "internalType": "uint256",
          "name": "clusterId",
          "type": "uint256"
        },
        {
          "internalType": "uint256",
          "name": "paidAmount",
          "type": "uint256"
        },
        {
          "internalType": "uint256",
          "name": "discountAmount",
          "type": "uint256"
        },
        {
          "internalType": "enum SubnetClusterMarket.OrderType",
          "name": "orderType",
          "type": "uint8"
        }
      ],
      "stateMutability": "view",
      "type": "function"
    },
    {
      "inputs": [],
      "name": "owner",
      "outputs": [
        {
          "internalType": "address",
          "name": "",
          "type": "address"
        }
      ],
      "stateMutability": "view",
      "type": "function"
    },
    {
      "inputs": [],
      "name": "paymentToken",
      "outputs": [
        {
          "internalType": "address",
          "name": "",
          "type": "address"
        }
      ],
      "stateMutability": "view",
      "type": "function"
    },
    {
      "inputs": [
        {
          "internalType": "uint256",
          "name": "clusterId",
          "type": "uint256"
        },
        {
          "internalType": "uint256[]",
          "name": "nodeIps",
          "type": "uint256[]"
        }
      ],
      "name": "recreateCluster",
      "outputs": [],
      "stateMutability": "nonpayable",
      "type": "function"
    },
    {
      "inputs": [
        {
          "internalType": "uint256",
          "name": "clusterId",
          "type": "uint256"
        },
        {
          "internalType": "uint256",
          "name": "nodeIp",
          "type": "uint256"
        }
      ],
      "name": "removeNodeFromCluster",
      "outputs": [],
      "stateMutability": "nonpayable",
      "type": "function"
    },
    {
      "inputs": [
        {
          "internalType": "uint256",
          "name": "clusterId",
          "type": "uint256"
        },
        {
          "internalType": "uint256[]",
          "name": "nodeIps",
          "type": "uint256[]"
        }
      ],
      "name": "removeNodesFromCluster",
      "outputs": [],
      "stateMutability": "nonpayable",
      "type": "function"
    },
    {
      "inputs": [],
      "name": "renounceOwnership",
      "outputs": [],
      "stateMutability": "nonpayable",
      "type": "function"
    },
    {
      "inputs": [],
      "name": "resourcePrice",
      "outputs": [
        {
          "internalType": "uint256",
          "name": "gpu",
          "type": "uint256"
        },
        {
          "internalType": "uint256",
          "name": "cpu",
          "type": "uint256"
        },
        {
          "internalType": "uint256",
          "name": "memoryBytes",
          "type": "uint256"
        },
        {
          "internalType": "uint256",
          "name": "disk",
          "type": "uint256"
        },
        {
          "internalType": "uint256",
          "name": "network",
          "type": "uint256"
        }
      ],
      "stateMutability": "view",
      "type": "function"
    },
    {
      "inputs": [
        {
          "internalType": "uint256",
          "name": "clusterId",
          "type": "uint256"
        },
        {
          "internalType": "uint256",
          "name": "gpu",
          "type": "uint256"
        },
        {
          "internalType": "uint256",
          "name": "cpu",
          "type": "uint256"
        },
        {
          "internalType": "uint256",
          "name": "memoryBytes",
          "type": "uint256"
        },
        {
          "internalType": "uint256",
          "name": "disk",
          "type": "uint256"
        },
        {
          "internalType": "uint256",
          "name": "network",
          "type": "uint256"
        },
        {
          "internalType": "uint256",
          "name": "maxPrice",
          "type": "uint256"
        }
      ],
      "name": "scale",
      "outputs": [],
      "stateMutability": "nonpayable",
      "type": "function"
    },
    {
      "inputs": [
        {
          "internalType": "address",
          "name": "_operator",
          "type": "address"
        }
      ],
      "name": "setOperator",
      "outputs": [],
      "stateMutability": "nonpayable",
      "type": "function"
    },
    {
      "inputs": [
        {
          "internalType": "address",
          "name": "token",
          "type": "address"
        }
      ],
      "name": "setPaymentToken",
      "outputs": [],
      "stateMutability": "nonpayable",
      "type": "function"
    },
    {
      "inputs": [
        {
          "internalType": "uint256",
          "name": "gpu",
          "type": "uint256"
        },
        {
          "internalType": "uint256",
          "name": "cpu",
          "type": "uint256"
        },
        {
          "internalType": "uint256",
          "name": "memoryBytes",
          "type": "uint256"
        },
        {
          "internalType": "uint256",
          "name": "disk",
          "type": "uint256"
        },
        {
          "internalType": "uint256",
          "name": "network",
          "type": "uint256"
        }
      ],
      "name": "setResourcePrice",
      "outputs": [],
      "stateMutability": "nonpayable",
      "type": "function"
    },
    {
      "inputs": [
        {
          "internalType": "address",
          "name": "newOwner",
          "type": "address"
        }
      ],
      "name": "transferOwnership",
      "outputs": [],
      "stateMutability": "nonpayable",
      "type": "function"
    },
    {
      "inputs": [
        {
          "internalType": "uint256",
          "name": "clusterId",
          "type": "uint256"
        },
        {
          "internalType": "uint256",
          "name": "newIp",
          "type": "uint256"
        }
      ],
      "name": "updateClusterIp",
      "outputs": [],
      "stateMutability": "nonpayable",
      "type": "function"
    },
    {
      "inputs": [
        {
          "internalType": "uint256",
          "name": "index",
          "type": "uint256"
        },
        {
          "internalType": "uint256",
          "name": "minDuration",
          "type": "uint256"
        },
        {
          "internalType": "uint256",
          "name": "percent",
          "type": "uint256"
        }
      ],
      "name": "updateDiscount",
      "outputs": [],
      "stateMutability": "nonpayable",
      "type": "function"
    },
    {
      "inputs": [
        {
          "internalType": "address",
          "name": "token",
          "type": "address"
        },
        {
          "internalType": "address",
          "name": "to",
          "type": "address"
        },
        {
          "internalType": "uint256",
          "name": "amount",
          "type": "uint256"
        }
      ],
      "name": "withdrawFund",
      "outputs": [],
      "stateMutability": "nonpayable",
      "type": "function"
    }
  ],
  "bytecode": "0x6080806040523461001b576001600055612ba290816100218239f35b600080fdfe608080604052600436101561001357600080fd5b60003560e01c9081630179240c14611f49575080630ab6877614611e8b578063166cfddd14611dd35780631cf93b4914611dad5780631e67288814611d8a5780632707283514611c615780632a58b33014611c435780633013ce2914611c1a5780633b17f0a714611a755780633ff681e414611a375780634983dc4414611a195780634ffadbce14611910578063514fcac7146117bc5780635414323f146116a9578063570ca735146116805780636a326ab11461163d578063715018a6146115d35780637332c5481461151d5780638da5cb5b146114e75780638f4e4b1e146114af578063919500c0146113f7578063949a549d146113b8578063a85c38ef146112cd578063b3ab15fb14611266578063b58a917b146110df578063b609caeb14610f0f578063b906aa9614610c65578063bae6a69014610c28578063bf0f08bb14610bcc578063c0c10db214610856578063d39e77b01461081a578063ddddca11146103b7578063e4ccfc151461036e578063edbf4ac2146101d05763f2fde38b146101a057600080fd5b346101cb5760203660031901126101cb576101c96101bc6121af565b6101c4612379565b6123b2565b005b600080fd5b346101cb5760e03660031901126101cb576101e96121af565b6101f16121c5565b6044359060643560843560a4359060c435927ff0c57e16840df040f15088dc2f81fe391c3923bec73e23a9662efc9c229c6a009586549560ff8760401c1615966001600160401b038116998a1580610367575b6001809c14908161035d575b159081610354575b506103425767ffffffffffffffff1982168b178a556102889189610323575b50610280612426565b6101c4612426565b60018060a01b03166001600160601b0360a01b600b541617600b55878055876008558460806040516102b9816121f7565b83815284602082015285604082015286606082015201526003556004556005556006556007556102e557005b805468ff0000000000000000191690556040519081527fc7f505b2f371ae2175ee4913f4499e1f2633a7b5936321eed1cdaeb6115181d290602090a1005b68ffffffffffffffffff191668010000000000000001178a558b610277565b60405163f92ee8a960e01b8152600490fd5b9050158c610258565b303b159150610250565b5088610244565b346101cb5760003660031901126101cb57600354600454600554600654600754604080519586526020860194909452928401919091526060830152608082015260a090f35b0390f35b346101cb576103c536612165565b8260009392935260096020526040600020926103ee60018060a01b0360058601541633146126b1565b6103fd600485015442106126f1565b6009840154926008850154600a8601549285876104728361046d610461610455610449610437600c600b8901549801549860035490612523565b6104436004548c612523565b90612536565b6104436005548d612523565b61044360065487612523565b61044360075487612523565b612523565b9561047c846124b6565b97600098806107f8575b5087156107a857600c546001600160a01b031690811561076b578811610726576040516323b872dd60e01b602082015233602482015230604482015260648082018a905281526104de916104d9826121f7565b612574565b60018060a01b03600c541694604051996104f78b612212565b338b52600060208c0152600060408c015260608b015260808a015260a089015260c088015260e0870152610100860152610120850152610140840152806101608401528161018084015260016101a08401526001546000526002602052604060002060018060a01b038451166001600160601b0360a01b825416178155602084015160048110156107105781610592600c926101a094612550565b60408601516001820155606086015160028201556080860151600382015560a0860151600482015560c0860151600582015560e0860151600682015561010086015160078201556008810160018060a01b03610120880151166001600160601b0360a01b8254161790556101408601516009820155610160860151600a820155610180860151600b82015501930151926003841015610710576106809360ff801983541691161790556106486001549282612536565b906040519182526020820152817ff7c110a6973307f2bc91245c2c06344ada13add2c1741e83ac5c0bb332bc85d560403393a36124a7565b9081600155600019918281019081116106fa57600052600260205260046106c360076040600020600160a01b60ff60a01b19825416178155015482840154612536565b9101556001549081019081116106fa577faf50e0923cf2eedda3dc56c3d4d73b4d920cee133cd920ffb873db233abecb0c600080a2005b634e487b7160e01b600052601160045260246000fd5b634e487b7160e01b600052602160045260246000fd5b60405162461bcd60e51b815260206004820152601b60248201527f5072696365206368616e6765642c20706c6561736520726574727900000000006044820152606490fd5b60405162461bcd60e51b815260206004820152601560248201527414185e5b595b9d081d1bdad95b881b9bdd081cd95d605a1b6044820152606490fd5b60405162461bcd60e51b815260206004820152602260248201527f546f74616c207072696365206d7573742062652067726561746572207468616e604482015261020360f41b6064820152608490fd5b88995061080b606491610813939a612523565b048099612543565b968b610486565b346101cb576101c961082b3661214f565b90610834612379565b80600052600960205261085160ff60036040600020015416612828565b6128ac565b346101cb576108643661224f565b9060018060a01b03600080516020612b4d833981519152541633148015610bb8575b61088f9061272f565b806000526002602052604060002090815460ff8160a01c166004811015610710576108ba901561276c565b60ff600c84015416600381101561071057610b7a576108db845115156127af565b60ff60a01b1916600160a01b17825560078201546108f99042612536565b9260085493610907856124a7565b60085560018060a01b038454166001850154600286015460038701549060048801549260058901549460068a015496604051996109438b6121db565b338b5260208b01528860408b0152600160608b015260808a015260a08901528060c089015260e0880152610100870152610120860152610140850152610160840152610180830152836000526009602052604060002060018060a01b038351166001600160601b0360a01b8254161781556020830151600182015560408301518051906001600160401b038211610b6457600160401b8211610b64576002830154826002850155808310610b37575b5060200160028301600052602060002060005b838110610b235750505050600381016060840151151560ff80198354169116179055608083015160048201556005810160018060a01b0360a0850151166001600160601b0360a01b82541617905560c0830151600682015560e0830151600782015561010083015160088201556101208301516009820155600c61018061014085015194600a9586850155610160810151600b8501550151910155600183015460005281602052610aba8460406000206127ef565b60005b848251821015610af6575080610ad6610af19284612814565b5160005283602052610aec8660406000206127ef565b6124a7565b610abd565b8060098601557faf50e0923cf2eedda3dc56c3d4d73b4d920cee133cd920ffb873db233abecb0c600080a2005b600190602084519401938184015501610a05565b600284016000526020600020908382015b8183018110610b585750506109f2565b60008155600101610b48565b634e487b7160e01b600052604160045260246000fd5b60405162461bcd60e51b81526020600482015260166024820152754f726465722074797065206d757374206265204e657760501b6044820152606490fd5b50600b546001600160a01b03163314610886565b346101cb57610bda3661224f565b610be2612379565b816000526009602052610bff60ff60036040600020015416612828565b60005b81518110156101c95780610aec610c1c610c239385612814565b51856128ac565b610c02565b346101cb5760203660031901126101cb57600435600d548110156101cb57610c5160409161233f565b506001815491015482519182526020820152f35b346101cb5760e03660031901126101cb576004356000526009602052610cb660046040600020610ca260018060a01b0360058301541633146126b1565b0154610caf4282116126f1565b4290612543565b610d0c8161046d610cfe610cf0610ce2610cd4600354602435612523565b610443600454604435612523565b610443600554606435612523565b610443600654608435612523565b61044360075460a435612523565b610d15826124b6565b9060009180610eef575b5080156107a857600c546001600160a01b0316801561076b5760c4358211610726576040516323b872dd60e01b602082015233602482015230604482015260648082018490528152610d74916104d9826121f7565b60018060a01b03600c541660405193610d8c85612212565b33855260006020860152600060408601526024356060860152604435608086015260643560a086015260843560c086015260a43560e0860152610100850152610120840152600435610140840152806101608401528161018084015260026101a08401526001546000526002602052604060002060018060a01b03845116906001600160601b0360a01b91828254161781556020850151906004821015610710576101a092610e3d600c9383612550565b60408701516001830155606087015160028301556080870151600383015560a0870151600483015560c0870151600583015560e087015160068301556101008701516007830155600882019060018060a01b0361012089015116908254161790556101408601516009820155610160860151600a820155610180860151600b8201550193015192600384101561071057610eea9360ff801983541691161790556106486001549282612536565b600155005b819250610f01606491610f0993612523565b048092612543565b83610d1f565b346101cb5760203660031901126101cb57600080516020612b4d8339815191525460043590610f5390336001600160a01b03918216149081156110d1575b5061272f565b8060005260026020526040600020805460ff8160a01c16600481101561071057610f7d901561276c565b60ff600c8301541660038110156107105760020361108c57600982015490811561105357600160a01b9060ff60a01b1916178255600052600960205261102a600c60066040600020936002810154610fda60088701918254612536565b90556003810154610ff060098701918254612536565b90556004810154611006600a8701918254612536565b9055600581015461101c600b8701918254612536565b905501549201918254612536565b90557faf50e0923cf2eedda3dc56c3d4d73b4d920cee133cd920ffb873db233abecb0c600080a2005b60405162461bcd60e51b8152602060048201526011602482015270125b9d985b1a590818db1d5cdd195c9259607a1b6044820152606490fd5b60405162461bcd60e51b815260206004820152601860248201527f4f726465722074797065206d757374206265205363616c6500000000000000006044820152606490fd5b9050600b5416331483610f4d565b346101cb576101003660031901126101cb5761111761110e610cfe610cf0610ce2610cd4600354602435612523565b60c43590612523565b61112260c4356124b6565b6000908061124e575b5081156107a857600c546001600160a01b0316801561076b5760e4358311610726576040516323b872dd60e01b602082015233602482015230604482015260648082018590528152611180916104d9826121f7565b600c5460405192906001600160a01b031661119a84612212565b3384526000602085015260043560408501526024356060850152604435608085015260643560a085015260843560c085015260a43560e085015260c4356101008501526101208401526000610140840152806101608401528161018084015260006101a08401526001546000526002602052604060002060018060a01b03845116906001600160601b0360a01b91828254161781556020850151906004821015610710576101a092610e3d600c9383612550565b61125f9150610f0160649184612523565b908261112b565b346101cb5760203660031901126101cb5761127f6121af565b611287612379565b600b80546001600160a01b0319166001600160a01b039290921691821790557fb3b3f5f64ab192e4b5fefde1f51ce9733bbdcf831951543b325aebd49cc27ec4600080a2005b346101cb5760203660031901126101cb576004356000526002602052604060002080546001820154916002810154600382015460048301546005840154600685015460078601549160018060a01b0360088801541693600988015495600a8901549760ff600c600b8c01549b0154169b6040519b60018060a01b0381168d52600460ff8260a01c1610156107105760ff9060a01c1660208d015260408c015260608b015260808a015260a089015260c088015260e08701526101008601526101208501526101408401526101608301526101808201526003821015610710576101c0916101a0820152f35b346101cb576113c63661214f565b90600052600a602052604060002080548210156101cb576020916113e991612311565b90546040519160031b1c8152f35b346101cb5760203660031901126101cb576004356000526009602052610180604060002060018060a01b03808254169160018101549160ff600383015416906004830154906005840154166006840154600785015490600886015492600987015494600a88015496600c600b8a0154990154996040519b8c5260208c0152151560408b015260608a0152608089015260a088015260c087015260e0860152610100850152610120840152610140830152610160820152f35b346101cb5760203660031901126101cb57600435600052600a6020526103b36114db6040600020612a37565b604051918291826122d6565b346101cb5760003660031901126101cb57600080516020612b4d833981519152546040516001600160a01b039091168152602090f35b346101cb5760a03660031901126101cb577fc05d384d96751ccdcd49a1246e85cf2131ef23bbbe94dffe94b22a352ded96856024356004356115ce608435606435604435611569612379565b826080604051611578816121f7565b87815288602082015283604082015284606082015201528460035585600455806005558160065582600755604051958695869192608093969594919660a084019784526020840152604083015260608201520152565b0390a1005b346101cb5760003660031901126101cb576115ec612379565b600080516020612b4d83398151915280546001600160a01b031981169091556000906001600160a01b03167f8be0079c531659141344cd1fd0a4f28419497f9722a3daafe3b4186f6b6457e08280a3005b346101cb5760203660031901126101cb576116566121af565b61165e612379565b600c80546001600160a01b0319166001600160a01b0392909216919091179055005b346101cb5760003660031901126101cb57600b546040516001600160a01b039091168152602090f35b346101cb576116b73661214f565b9080600052600960205281600760406000206116dd60018060a01b0382541633146126b1565b6116ec600482015442106126f1565b01805480611714575b5055816116fe57005b6101c991600052600a60205260406000206127ef565b6000908152600a602052604081209392505b835485818310156117b257508361173d8387612311565b919054600392831b1c1461175b575050611756906124a7565b611726565b939491936000198201929183116106fa57869461178e6117a7926117826117ac9686612311565b9054911b1c9184612311565b90919082549060031b91821b91600019901b1916179055565b61286c565b846116f5565b93945050506117ac565b346101cb5760203660031901126101cb576004356002600054146118fe576002600055806000526002602052604060002090815460ff8160a01c1660048110156107105761180a901561276c565b6001600160a01b03818116913383036118c75760ff60a01b1916600160a11b1784556040519233907f9384174c8517f5537b08e79211fc039e8a098571a3a2b4cb21dfa6f3237e8de1600080a3600a84015492831561187957506008611872940154166129e8565b6001600055005b62461bcd60e51b8152602060048201526024808201527f526566756e6420616d6f756e74206d75737420626520677265617465722074686044820152630616e20360e41b6064820152608490fd5b60405162461bcd60e51b815260206004820152600f60248201526e2737ba1037b93232b91037bbb732b960891b6044820152606490fd5b604051633ee5aeb560e01b8152600490fd5b346101cb5761191e3661224f565b611926612379565b8160005260099060209082825261194760ff60036040600020015416612828565b8051156119dd5760005b81518110156119a6576119a19085600052848452611981600260406000200161197a8386612814565b51906127ef565b61198b8184612814565b51600052600a8452610aec8660406000206127ef565b611951565b847fa80b5484eb9aac37d936efc3d8e24049008b11e89daa6495d318baf3105ff5636119d884604051918291826122d6565b0390a2005b60405162461bcd60e51b8152600481018390526014602482015273139bc81b9bd9194812541cc81c1c9bdd9a59195960621b6044820152606490fd5b346101cb5760003660031901126101cb576020600854604051908152f35b346101cb5760603660031901126101cb576101c9611a536121af565b611a5b6121c5565b611a63612379565b604435916001600160a01b03166129e8565b346101cb5760403660031901126101cb576004356024356001600160401b0381116101cb57611aa890369060040161217f565b90611ad460018060a01b0380600080516020612b4d83398151915254163314908115611c0c575061272f565b826000526020916009835260406000209260048401544210611bd257611afe8294939415156127af565b600260009301925b8354811015611b325780610aec611b20611b2d9387612311565b90549060031b1c886128ac565b611b06565b5083859360005b848110611b935750506040518281529182018390526001600160fb1b0383116101cb57816040917fa80b5484eb9aac37d936efc3d8e24049008b11e89daa6495d318baf3105ff5639460051b8091848401378101030190a2005b80611bac611ba5611bcd938887612b3c565b35846127ef565b611bb7818786612b3c565b35600052600a8552610aec8760406000206127ef565b611b39565b6064906040519062461bcd60e51b82526004820152601360248201527210db1d5cdd195c881b9bdd08195e1c1a5c9959606a1b6044820152fd5b9050600b5416331485610f4d565b346101cb5760003660031901126101cb57600c546040516001600160a01b039091168152602090f35b346101cb5760003660031901126101cb576020600154604051908152f35b346101cb576020806003193601126101cb576004356001600160401b0381116101cb57611c9290369060040161217f565b9060005b828110611c9f57005b611caa818484612b3c565b3580600052600985526040600020906003808301805460ff811680611d7c575b611ce2575b5050505050611cdd906124a7565b611c96565b60ff19169055919592949093919260028701929160005b8454811015611d245780610aec611d13611d1f9388612311565b905490891b1c896128ac565b611cf9565b5095925095611cdd9350600790949194015480611d6c575b507f8c459d0832b883bf56848f326554cd247915959623cb54c5b5bfc6cecdb39a65600080a29085808080611ccf565b611d7690826128ac565b86611d3c565b506004850154421015611cca565b346101cb576020611da3611d9d3661214f565b90612a86565b6040519015158152f35b346101cb5760203660031901126101cb576020611dcb6004356124b6565b604051908152f35b346101cb57611de136612165565b9190611deb612379565b600d54821015611e4d5782806001611e3d604095611e2c60647fbb2de15b1fdae29c27610cb7a0e84f181f8df2e1c704e762073d7292f65e74ef9910612467565b85611e368261233f565b505561233f565b50015582519182526020820152a1005b60405162461bcd60e51b8152602060048201526016602482015275092dcecc2d8d2c840c8d2e6c6deeadce840d2dcc8caf60531b6044820152606490fd5b346101cb57611e993661214f565b611ea1612379565b611ead60648210612467565b60405191604083018381106001600160401b03821117610b64576040528083526020830191808352600d54600160401b811015610b6457806001611ef49201600d5561233f565b611f335760016040947fbb2de15b1fdae29c27610cb7a0e84f181f8df2e1c704e762073d7292f65e74ef965183555191015582519182526020820152a1005b634e487b7160e01b600052600060045260246000fd5b346101cb5760203660031901126101cb5761018081611f696000936121db565b828152826020820152606060408201528260608201528260808201528260a08201528260c08201528260e082015282610100820152826101208201528261014082015282610160820152015260043560005260096020526040600020600c60405191611fd4836121db565b80546001600160a01b0316835260018101546020840152611ff760028201612a37565b604084015260ff600382015416151560608401526004810154608084015260018060a01b0360058201541660a0840152600681015460c0840152600781015460e084015260088101546101008401526009810154610120840152600a810154610140840152600b81015461016084015201546101808201526040516020815260018060a01b0382511660208201526020820151604082015260408201516101a060608301526101c08201815180915260206101e0840192019060005b818110612139575050506101808360608495015115156080850152608081015160a085015260018060a01b0360a08201511660c085015260c081015160e085015260e08101516101008501526101008101516101208501526101208101516101408501526101408101516101608501526101608101518285015201516101a08301520390f35b82518452602093840193909201916001016120b3565b60409060031901126101cb576004359060243590565b60609060031901126101cb57600435906024359060443590565b9181601f840112156101cb578235916001600160401b0383116101cb576020808501948460051b0101116101cb57565b600435906001600160a01b03821682036101cb57565b602435906001600160a01b03821682036101cb57565b6101a081019081106001600160401b03821117610b6457604052565b60a081019081106001600160401b03821117610b6457604052565b6101c081019081106001600160401b03821117610b6457604052565b90601f801991011681019081106001600160401b03821117610b6457604052565b9060406003198301126101cb5760043591602435906001600160401b03908183116101cb57806023840112156101cb578260040135918211610b64578160051b604051936020936122a28584018761222e565b85526024848601928201019283116101cb57602401905b8282106122c7575050505090565b813581529083019083016122b9565b6020908160408183019282815285518094520193019160005b8281106122fd575050505090565b8351855293810193928101926001016122ef565b80548210156123295760005260206000200190600090565b634e487b7160e01b600052603260045260246000fd5b600d5481101561232957600d60005260011b7fd7b6990105719101dabeb77144f2a3385c8033acd3af97e9423a695e81ad1eb50190600090565b600080516020612b4d833981519152546001600160a01b0316330361239a57565b60405163118cdaa760e01b8152336004820152602490fd5b6001600160a01b0390811690811561240d57600080516020612b4d83398151915280546001600160a01b031981168417909155167f8be0079c531659141344cd1fd0a4f28419497f9722a3daafe3b4186f6b6457e0600080a3565b604051631e4fbdf760e01b815260006004820152602490fd5b60ff7ff0c57e16840df040f15088dc2f81fe391c3923bec73e23a9662efc9c229c6a005460401c161561245557565b604051631afcd79f60e31b8152600490fd5b1561246e57565b60405162461bcd60e51b8152602060048201526011602482015270088d2e6c6deeadce840e8dede40d0d2ced607b1b6044820152606490fd5b60001981146106fa5760010190565b600d54600091825b8281106124cb5750505090565b6124d48161233f565b50548210158061250d575b6124f2575b6124ed906124a7565b6124be565b92506124ed60016125028561233f565b5001549390506124e4565b5083600161251a8361233f565b500154116124df565b818102929181159184041417156106fa57565b919082018092116106fa57565b919082039182116106fa57565b90600481101561071057815460ff60a01b191660a09190911b60ff60a01b16179055565b60018060a01b031690600080826020829451910182865af13d15612642573d906001600160401b03821161262e57906125cf91604051916125bf6020601f19601f840116018461222e565b82523d84602084013e5b8461264e565b9081519182151592836125ff575b5050506125e75750565b60249060405190635274afe760e01b82526004820152fd5b81929350906020918101031261262a57602001519081159182150361262757503880806125dd565b80fd5b5080fd5b634e487b7160e01b83526041600452602483fd5b6125cf906060906125c9565b90612675575080511561266357805190602001fd5b604051630a12f52160e11b8152600490fd5b815115806126a8575b612686575090565b604051639996b31560e01b81526001600160a01b039091166004820152602490fd5b50803b1561267e565b156126b857565b60405162461bcd60e51b81526020600482015260116024820152702737ba1031b63ab9ba32b91037bbb732b960791b6044820152606490fd5b156126f857565b60405162461bcd60e51b815260206004820152600f60248201526e10db1d5cdd195c88195e1c1a5c9959608a1b6044820152606490fd5b1561273657565b60405162461bcd60e51b815260206004820152600e60248201526d139bdd08185d5d1a1bdc9a5e995960921b6044820152606490fd5b1561277357565b60405162461bcd60e51b81526020600482015260146024820152734f72646572206973206e6f742070656e64696e6760601b6044820152606490fd5b156127b657565b60405162461bcd60e51b8152602060048201526011602482015270139bd9194812541cc81c995c5d5a5c9959607a1b6044820152606490fd5b90815491600160401b831015610b64578261178e91600161281295018155612311565b565b80518210156123295760209160051b010190565b1561282f57565b60405162461bcd60e51b8152602060048201526015602482015274436c7573746572206973206e6f742061637469766560581b6044820152606490fd5b805490811561289657600019918201916128868383612311565b909182549160031b1b1916905555565b634e487b7160e01b600052603160045260246000fd5b60009080825260096020526002604083200192825b8454808210156129dd5782906128d78388612311565b929054600393841b1c146128f55750506128f0906124a7565b6128c1565b600096939495961981019081116129c9579161178e6117a792611782869561291c97612311565b80827f321612790897bd90d2d7b5818c7a2b9a734f3a4b5f70799c4991ba510dfd60748580a35b8252600a6020526040822090825b8254808210156129c25782906129678386612311565b929054600393841b1c14612985575050612980906124a7565b612951565b91939490925060001982019182116129ae57509161178e6117a792611782869561281297612311565b634e487b7160e01b81526011600452602490fd5b5050505050565b634e487b7160e01b87526011600452602487fd5b505090919250612943565b60405163a9059cbb60e01b60208201526001600160a01b03909216602483015260448083019390935291815260808101916001600160401b03831182841017610b645761281292604052612574565b9060405191828154918282526020928383019160005283600020936000905b828210612a6c575050506128129250038361222e565b855484526001958601958895509381019390910190612a56565b916000928352602092600a8452604090612aa1828220612a37565b938152600a8552612ab3828220612a37565b9381905b8051821015612b3257825b8651811015612b2157612ad58383612814565b51612ae08289612814565b5114612af5575b612af0906124a7565b612ac2565b612aff8383612814565b5184526009885260048585200154421015612ae7575050505050915050600190565b5090612b2c906124a7565b90612ab7565b5050925050915090565b91908110156123295760051b019056fe9016d09d72d40fdae2fd8ceac6b6234c7706214fd39c1cd1e609a0528c199300a2646970667358221220fe7bc9e9e7d7aadf4c7fd72dfa8ab5d19f65e599ed5dd8a01f0f6fa82a26aa4464736f6c63430008140033",
  "linkReferences": {},
  "deployedLinkReferences": {}
}