{
  "_format": "hh-sol-artifact-1",
  "contractName": "SubnetIPRegistry",
  "sourceName": "contracts/SubnetIPRegistry.sol",
  "abi": [
    {
      "inputs": [
        {
          "internalType": "address",
          "name": "target",
          "type": "address"
        }
      ],
      "name": "AddressEmptyCode",
      "type": "error"
    },
    {
      "inputs": [
        {
          "internalType": "address",
          "name": "account",
          "type": "address"
        }
      ],
      "name": "AddressInsufficientBalance",
      "type": "error"
    },
    {
      "inputs": [
        {
          "internalType": "address",
          "name": "sender",
          "type": "address"
        },
        {
          "internalType": "uint256",
          "name": "tokenId",
          "type": "uint256"
        },
        {
          "internalType": "address",
          "name": "owner",
          "type": "address"
        }
      ],
      "name": "ERC721IncorrectOwner",
      "type": "error"
    },
    {
      "inputs": [
        {
          "internalType": "address",
          "name": "operator",
          "type": "address"
        },
        {
          "internalType": "uint256",
          "name": "tokenId",
          "type": "uint256"
        }
      ],
      "name": "ERC721InsufficientApproval",
      "type": "error"
    },
    {
      "inputs": [
        {
          "internalType": "address",
          "name": "approver",
          "type": "address"
        }
      ],
      "name": "ERC721InvalidApprover",
      "type": "error"
    },
    {
      "inputs": [
        {
          "internalType": "address",
          "name": "operator",
          "type": "address"
        }
      ],
      "name": "ERC721InvalidOperator",
      "type": "error"
    },
    {
      "inputs": [
        {
          "internalType": "address",
          "name": "owner",
          "type": "address"
        }
      ],
      "name": "ERC721InvalidOwner",
      "type": "error"
    },
    {
      "inputs": [
        {
          "internalType": "address",
          "name": "receiver",
          "type": "address"
        }
      ],
      "name": "ERC721InvalidReceiver",
      "type": "error"
    },
    {
      "inputs": [
        {
          "internalType": "address",
          "name": "sender",
          "type": "address"
        }
      ],
      "name": "ERC721InvalidSender",
      "type": "error"
    },
    {
      "inputs": [
        {
          "internalType": "uint256",
          "name": "tokenId",
          "type": "uint256"
        }
      ],
      "name": "ERC721NonexistentToken",
      "type": "error"
    },
    {
      "inputs": [],
      "name": "FailedInnerCall",
      "type": "error"
    },
    {
      "inputs": [],
      "name": "InvalidInitialization",
      "type": "error"
    },
    {
      "inputs": [],
      "name": "NotInitializing",
      "type": "error"
    },
    {
      "inputs": [
        {
          "internalType": "address",
          "name": "owner",
          "type": "address"
        }
      ],
      "name": "OwnableInvalidOwner",
      "type": "error"
    },
    {
      "inputs": [
        {
          "internalType": "address",
          "name": "account",
          "type": "address"
        }
      ],
      "name": "OwnableUnauthorizedAccount",
      "type": "error"
    },
    {
      "inputs": [
        {
          "internalType": "address",
          "name": "token",
          "type": "address"
        }
      ],
      "name": "SafeERC20FailedOperation",
      "type": "error"
    },
    {
      "anonymous": false,
      "inputs": [
        {
          "indexed": true,
          "internalType": "address",
          "name": "owner",
          "type": "address"
        },
        {
          "indexed": true,
          "internalType": "address",
          "name": "approved",
          "type": "address"
        },
        {
          "indexed": true,
          "internalType": "uint256",
          "name": "tokenId",
          "type": "uint256"
        }
      ],
      "name": "Approval",
      "type": "event"
    },
    {
      "anonymous": false,
      "inputs": [
        {
          "indexed": true,
          "internalType": "address",
          "name": "owner",
          "type": "address"
        },
        {
          "indexed": true,
          "internalType": "address",
          "name": "operator",
          "type": "address"
        },
        {
          "indexed": false,
          "internalType": "bool",
          "name": "approved",
          "type": "bool"
        }
      ],
      "name": "ApprovalForAll",
      "type": "event"
    },
    {
      "anonymous": false,
      "inputs": [
        {
          "indexed": false,
          "internalType": "uint64",
          "name": "version",
          "type": "uint64"
        }
      ],
      "name": "Initialized",
      "type": "event"
    },
    {
      "anonymous": false,
      "inputs": [
        {
          "indexed": true,
          "internalType": "address",
          "name": "previousOwner",
          "type": "address"
        },
        {
          "indexed": true,
          "internalType": "address",
          "name": "newOwner",
          "type": "address"
        }
      ],
      "name": "OwnershipTransferred",
      "type": "event"
    },
    {
      "anonymous": false,
      "inputs": [
        {
          "indexed": true,
          "internalType": "uint256",
          "name": "tokenId",
          "type": "uint256"
        },
        {
          "indexed": false,
          "internalType": "string",
          "name": "peerId",
          "type": "string"
        }
      ],
      "name": "PeerBound",
      "type": "event"
    },
    {
      "anonymous": false,
      "inputs": [
        {
          "indexed": true,
          "internalType": "address",
          "name": "from",
          "type": "address"
        },
        {
          "indexed": true,
          "internalType": "address",
          "name": "to",
          "type": "address"
        },
        {
          "indexed": true,
          "internalType": "uint256",
          "name": "tokenId",
          "type": "uint256"
        }
      ],
      "name": "Transfer",
      "type": "event"
    },
    {
      "inputs": [
        {
          "internalType": "address",
          "name": "to",
          "type": "address"
        },
        {
          "internalType": "uint256",
          "name": "tokenId",
          "type": "uint256"
        }
      ],
      "name": "approve",
      "outputs": [],
      "stateMutability": "nonpayable",
      "type": "function"
    },
    {
      "inputs": [
        {
          "internalType": "address",
          "name": "owner",
          "type": "address"
        }
      ],
      "name": "balanceOf",
      "outputs": [
        {
          "internalType": "uint256",
          "name": "",
          "type": "uint256"
        }
      ],
      "stateMutability": "view",
      "type": "function"
    },
    {
      "inputs": [
        {
          "internalType": "uint256",
          "name": "tokenId",
          "type": "uint256"
        },
        {
          "internalType": "string",
          "name": "peerId",
          "type": "string"
        }
      ],
      "name": "bindPeer",
      "outputs": [],
      "stateMutability": "nonpayable",
      "type": "function"
    },
    {
      "inputs": [
        {
          "internalType": "uint256",
          "name": "tokenId",
          "type": "uint256"
        }
      ],
      "name": "getApproved",
      "outputs": [
        {
          "internalType": "address",
          "name": "",
          "type": "address"
        }
      ],
      "stateMutability": "view",
      "type": "function"
    },
    {
      "inputs": [
        {
          "internalType": "uint256",
          "name": "tokenId",
          "type": "uint256"
        }
      ],
      "name": "getPeer",
      "outputs": [
        {
          "internalType": "string",
          "name": "",
          "type": "string"
        }
      ],
      "stateMutability": "view",
      "type": "function"
    },
    {
      "inputs": [
        {
          "internalType": "address",
          "name": "initialOwner",
          "type": "address"
        },
        {
          "internalType": "contract IERC20",
          "name": "_paymentToken",
          "type": "address"
        },
        {
          "internalType": "address",
          "name": "_treasury",
          "type": "address"
        },
        {
          "internalType": "uint256",
          "name": "_purchaseFee",
          "type": "uint256"
        }
      ],
      "name": "initialize",
      "outputs": [],
      "stateMutability": "nonpayable",
      "type": "function"
    },
    {
      "inputs": [
        {
          "internalType": "uint256",
          "name": "",
          "type": "uint256"
        }
      ],
      "name": "ipPeer",
      "outputs": [
        {
          "internalType": "string",
          "name": "",
          "type": "string"
        }
      ],
      "stateMutability": "view",
      "type": "function"
    },
    {
      "inputs": [
        {
          "internalType": "address",
          "name": "owner",
          "type": "address"
        },
        {
          "internalType": "address",
          "name": "operator",
          "type": "address"
        }
      ],
      "name": "isApprovedForAll",
      "outputs": [
        {
          "internalType": "bool",
          "name": "",
          "type": "bool"
        }
      ],
      "stateMutability": "view",
      "type": "function"
    },
    {
      "inputs": [],
      "name": "name",
      "outputs": [
        {
          "internalType": "string",
          "name": "",
          "type": "string"
        }
      ],
      "stateMutability": "view",
      "type": "function"
    },
    {
      "inputs": [],
      "name": "owner",
      "outputs": [
        {
          "internalType": "address",
          "name": "",
          "type": "address"
        }
      ],
      "stateMutability": "view",
      "type": "function"
    },
    {
      "inputs": [
        {
          "internalType": "uint256",
          "name": "tokenId",
          "type": "uint256"
        }
      ],
      "name": "ownerOf",
      "outputs": [
        {
          "internalType": "address",
          "name": "",
          "type": "address"
        }
      ],
      "stateMutability": "view",
      "type": "function"
    },
    {
      "inputs": [],
      "name": "paymentToken",
      "outputs": [
        {
          "internalType": "contract IERC20",
          "name": "",
          "type": "address"
        }
      ],
      "stateMutability": "view",
      "type": "function"
    },
    {
      "inputs": [
        {
          "internalType": "address",
          "name": "to",
          "type": "address"
        }
      ],
      "name": "purchase",
      "outputs": [],
      "stateMutability": "nonpayable",
      "type": "function"
    },
    {
      "inputs": [],
      "name": "purchaseFee",
      "outputs": [
        {
          "internalType": "uint256",
          "name": "",
          "type": "uint256"
        }
      ],
      "stateMutability": "view",
      "type": "function"
    },
    {
      "inputs": [],
      "name": "renounceOwnership",
      "outputs": [],
      "stateMutability": "nonpayable",
      "type": "function"
    },
    {
      "inputs": [
        {
          "internalType": "address",
          "name": "from",
          "type": "address"
        },
        {
          "internalType": "address",
          "name": "to",
          "type": "address"
        },
        {
          "internalType": "uint256",
          "name": "tokenId",
          "type": "uint256"
        }
      ],
      "name": "safeTransferFrom",
      "outputs": [],
      "stateMutability": "nonpayable",
      "type": "function"
    },
    {
      "inputs": [
        {
          "internalType": "address",
          "name": "from",
          "type": "address"
        },
        {
          "internalType": "address",
          "name": "to",
          "type": "address"
        },
        {
          "internalType": "uint256",
          "name": "tokenId",
          "type": "uint256"
        },
        {
          "internalType": "bytes",
          "name": "data",
          "type": "bytes"
        }
      ],
      "name": "safeTransferFrom",
      "outputs": [],
      "stateMutability": "nonpayable",
      "type": "function"
    },
    {
      "inputs": [
        {
          "internalType": "address",
          "name": "operator",
          "type": "address"
        },
        {
          "internalType": "bool",
          "name": "approved",
          "type": "bool"
        }
      ],
      "name": "setApprovalForAll",
      "outputs": [],
      "stateMutability": "nonpayable",
      "type": "function"
    },
    {
      "inputs": [
        {
          "internalType": "bytes4",
          "name": "interfaceId",
          "type": "bytes4"
        }
      ],
      "name": "supportsInterface",
      "outputs": [
        {
          "internalType": "bool",
          "name": "",
          "type": "bool"
        }
      ],
      "stateMutability": "view",
      "type": "function"
    },
    {
      "inputs": [],
      "name": "symbol",
      "outputs": [
        {
          "internalType": "string",
          "name": "",
          "type": "string"
        }
      ],
      "stateMutability": "view",
      "type": "function"
    },
    {
      "inputs": [
        {
          "internalType": "uint256",
          "name": "tokenId",
          "type": "uint256"
        }
      ],
      "name": "tokenURI",
      "outputs": [
        {
          "internalType": "string",
          "name": "",
          "type": "string"
        }
      ],
      "stateMutability": "view",
      "type": "function"
    },
    {
      "inputs": [
        {
          "internalType": "address",
          "name": "from",
          "type": "address"
        },
        {
          "internalType": "address",
          "name": "to",
          "type": "address"
        },
        {
          "internalType": "uint256",
          "name": "tokenId",
          "type": "uint256"
        }
      ],
      "name": "transferFrom",
      "outputs": [],
      "stateMutability": "nonpayable",
      "type": "function"
    },
    {
      "inputs": [
        {
          "internalType": "address",
          "name": "newOwner",
          "type": "address"
        }
      ],
      "name": "transferOwnership",
      "outputs": [],
      "stateMutability": "nonpayable",
      "type": "function"
    },
    {
      "inputs": [],
      "name": "treasury",
      "outputs": [
        {
          "internalType": "address",
          "name": "",
          "type": "address"
        }
      ],
      "stateMutability": "view",
      "type": "function"
    },
    {
      "inputs": [
        {
          "internalType": "uint256",
          "name": "newPurchaseFee",
          "type": "uint256"
        }
      ],
      "name": "updatePurchaseFee",
      "outputs": [],
      "stateMutability": "nonpayable",
      "type": "function"
    },
    {
      "inputs": [
        {
          "internalType": "address",
          "name": "newTreasury",
          "type": "address"
        }
      ],
      "name": "updateTreasury",
      "outputs": [],
      "stateMutability": "nonpayable",
      "type": "function"
    }
  ],
  "bytecode": "0x6080806040523461001657611afc908161001c8239f35b600080fdfe608080604052600436101561001357600080fd5b60003560e01c90816301ffc9a7146112555750806306fdde03146111b2578063081812fc14611167578063095ea7b3146110805780630e03720e14610e5d57806314b5e98114610e3f57806323b872dd14610e2857806325b31a9714610bb85780633013ce2914610b8f57806342842e0e14610b6757806361d027b314610b3e5780636352211e14610b0e57806367ebb6b21461073457806370a0823114610ab9578063715018a614610a4f5780637f51bb1f146109c25780638da5cb5b1461098c57806395d89b41146108be5780639ca1f3631461089d578063a22cb465146107fd578063b88d4fde14610774578063c5835b0814610734578063c87b56dd146106dd578063cf756fdf146101bb578063e985e9c51461016d5763f2fde38b1461013d57600080fd5b3461016857602036600319011261016857610166610159611300565b6101616114b7565b6114f0565b005b600080fd5b3461016857604036600319011261016857610186611300565b610197610191611316565b9161159d565b9060018060a01b0316600052602052602060ff604060002054166040519015158152f35b34610168576080366003190112610168576101d4611300565b6001600160a01b0360243581811681036101685760443591808316830361016857600080516020611a67833981519152549267ffffffffffffffff8416801590816106cd575b60011490816106c3575b1590816106ba575b506106a857600167ffffffffffffffff19851617600080516020611a678339815191525560ff8460401c161561067b575b6040519461026a8661137d565b600886526705375626e657449560c41b60208701526040519561028c8761137d565b600387526205349560ec1b60208801526102a4611954565b6102ac611954565b80519067ffffffffffffffff82116105475781906102d86000805160206119e7833981519152546113d7565b601f81116105fa575b50602090601f83116001146105685760009261055d575b50508160011b916000199060031b1c1916176000805160206119e7833981519152555b855167ffffffffffffffff811161054757610344600080516020611a87833981519152546113d7565b601f81116104d1575b506020601f821160011461043e5790806103a0939260ff99600092610433575b50508160011b916000199060031b1c191617600080516020611a87833981519152555b610398611954565b610161611954565b816001600160601b0360a01b931683600154161760015516906002541617600255606435600355630a00000160045560401c16156103da57005b68ff000000000000000019600080516020611a678339815191525416600080516020611a67833981519152557fc7f505b2f371ae2175ee4913f4499e1f2633a7b5936321eed1cdaeb6115181d2602060405160018152a1005b01519050898061036d565b601f19821697600080516020611a87833981519152600052600080516020611a078339815191529860005b8181106104b957509860019284926103a0969560ff9c106104a0575b505050811b01600080516020611a8783398151915255610390565b015160001960f88460031b161c19169055898080610485565b838301518b556001909a019960209384019301610469565b600080516020611a87833981519152600052601f820160051c600080516020611a078339815191520160208310610532575b601f820160051c600080516020611a07833981519152018110610526575061034d565b60008155600101610503565b50600080516020611a07833981519152610503565b634e487b7160e01b600052604160045260246000fd5b0151905088806102f8565b92506000805160206119e7833981519152600052600080516020611aa7833981519152906000935b601f19841685106105df576001945083601f198116106105c6575b505050811b016000805160206119e78339815191525561031b565b015160001960f88460031b161c191690558880806105ab565b81810151835560209485019460019093019290910190610590565b9091506000805160206119e7833981519152600052601f830160051c600080516020611aa78339815191520160208410610666575b908392915b601f820160051c600080516020611aa783398151915201811061065757506102e1565b60008155849350600101610634565b50600080516020611aa783398151915261062f565b68ffffffffffffffffff1984166801000000000000000117600080516020611a678339815191525561025d565b60405163f92ee8a960e01b8152600490fd5b9050158661022c565b303b159150610224565b604086901c60ff1615915061021a565b34610168576020366003190112610168576106f96004356118ca565b50600060405161070881611361565b5261073060405161071881611361565b600081526040519182916020835260208301906112c0565b0390f35b346101685760203660031901126101685760043560005260006020526107306107606040600020611411565b6040519182916020835260208301906112c0565b346101685760803660031901126101685761078d611300565b610795611316565b6064359167ffffffffffffffff83116101685736602384011215610168578260040135916107c2836113bb565b926107d06040519485611399565b808452366024828701011161016857602081600092602461016698018388013785010152604435916117a0565b3461016857604036600319011261016857610816611300565b60243590811515809203610168576001600160a01b03169081156108845761083d3361159d565b82600052602052604060002060ff1981541660ff83161790556040519081527f17307eab39ab6107e8899845ad3d59bd9653f200f220920489ca2b5937696c3160203392a3005b604051630b61174360e31b815260048101839052602490fd5b34610168576020366003190112610168576108b66114b7565b600435600355005b34610168576000366003190112610168576040516000600080516020611a8783398151915280546108ee816113d7565b808552916001918083169081156109625750600114610918575b6107308561076081870382611399565b60009081529250600080516020611a078339815191525b82841061094a57505050810160200161076082610730610908565b8054602085870181019190915290930192810161092f565b8695506107309693506020925061076094915060ff191682840152151560051b8201019293610908565b3461016857600036600319011261016857600080516020611a27833981519152546040516001600160a01b039091168152602090f35b34610168576020366003190112610168576109db611300565b6109e36114b7565b6001600160a01b03168015610a0a576001600160601b0360a01b6002541617600255600080f35b60405162461bcd60e51b815260206004820152601860248201527f496e76616c6964207472656173757279206164647265737300000000000000006044820152606490fd5b3461016857600036600319011261016857610a686114b7565b600080516020611a2783398151915280546001600160a01b031981169091556000906001600160a01b03167f8be0079c531659141344cd1fd0a4f28419497f9722a3daafe3b4186f6b6457e08280a3005b3461016857602036600319011261016857610ad2611300565b6001600160a01b03811615610af557610aec602091611564565b54604051908152f35b6040516322718ad960e21b815260006004820152602490fd5b34610168576020366003190112610168576020610b2c6004356118ca565b6040516001600160a01b039091168152f35b34610168576000366003190112610168576002546040516001600160a01b039091168152602090f35b3461016857610166610b783661132c565b9060405192610b8684611361565b600084526117a0565b34610168576000366003190112610168576001546040516001600160a01b039091168152602090f35b346101685760208060031936011261016857610bd2611300565b630a00000063ff0000006004541603610def5760018060a01b0391826001541692806002541693600354604051848101916323b872dd60e01b83526024973389840152604483015260648201526064815260a0810181811067ffffffffffffffff821117610dda5760405251610c5a91600091829182865af1610c53611924565b9083611983565b8051848115159182610db9575b50509050610da2575060045491818416918215610d8a57836000527f80bb2b638cc20bc4d0a60d66940f3ab4a00c1d7b313497ca82fb0b4ab0079302908183526040600020541691610cc08315159687610d4b57611564565b6001815401905584600052526040600020826001600160601b0360a01b8254161790557fddf252ad1be2c89b69c2b068fc378daa952ba7f163c4a11628f55a4df523b3ef600080a4610d35576004546000198114610d2057600101600455005b50634e487b7160e01b60009081526011600452fd5b6040516339e3563760e11b815260006004820152fd5b6000878152600080516020611a478339815191526020526040902080546001600160a01b0319169055610d7d85611564565b8054600019019055611564565b604051633250574960e11b8152600060048201528690fd5b849060405190635274afe760e01b82526004820152fd5b83809293500103126101685783015180159081150361016857808488610c67565b87634e487b7160e01b60005260416004526000fd5b60405162461bcd60e51b81526004810183905260116024820152701254081c985b99d948195e18d959591959607a1b6044820152606490fd5b3461016857610166610e393661132c565b916115d6565b34610168576000366003190112610168576020600354604051908152f35b346101685760403660031901126101685760043560249081359167ffffffffffffffff908184116101685736602385011215610168578360040135918211610168573681838601011161016857610eb3836118ca565b336001600160a01b039091160361104b5782600052602093600085526040600020610ede81546113d7565b601f8111611005575b506000601f8511600114610f7357837f7826251d6dd3b3f6b469df5d8b38e0055e2985d85c5080879821acd5fa2265369697938693846040978195600092610f66575b50508460011b906000198660031b1c19161790555b855196858896875286015201848401376000828201840152601f01601f19168101030190a2005b840101359050838c610f2a565b601f1985169082600052876000209160005b818110610fec5750938693849360409793857f7826251d6dd3b3f6b469df5d8b38e0055e2985d85c5080879821acd5fa2265369b9c9810610fd0575b5050600184811b019055610f3f565b8301840135600019600387901b60f8161c191690558a80610fc1565b9192896001819289878a01013581550194019201610f85565b8160005286600020601f860160051c810191888710611041575b601f0160051c01905b8181106110355750610ee7565b60008155600101611028565b909150819061101f565b606490600e6040519162461bcd60e51b8352602060048401528201526d139bdd08185d5d1a1bdc9a5e995960921b6044820152fd5b3461016857604036600319011261016857611099611300565b6024356110a5816118ca565b33151580611154575b80611134575b61111c576001600160a01b039283169282918491167f8c5be1e5ebec7d5bd14f71427d1e84f3dd0314c0f7b2291e5b200ac8c7c3b925600080a46000908152600080516020611a478339815191526020526040902080546001600160a01b0319169091179055005b60405163a9fbf51f60e01b8152336004820152602490fd5b5061113e8161159d565b3360005260205260ff60406000205416156110b4565b506001600160a01b0381163314156110ae565b3461016857602036600319011261016857600435611184816118ca565b50600052600080516020611a47833981519152602052602060018060a01b0360406000205416604051908152f35b346101685760003660031901126101685760405160006000805160206119e783398151915280546111e2816113d7565b80855291600191808316908115610962575060011461120b576107308561076081870382611399565b60009081529250600080516020611aa78339815191525b82841061123d57505050810160200161076082610730610908565b80546020858701810191909152909301928101611222565b34610168576020366003190112610168576004359063ffffffff60e01b8216809203610168576020916380ac58cd60e01b81149081156112af575b811561129e575b5015158152f35b6301ffc9a760e01b14905083611297565b635b5e139f60e01b81149150611290565b919082519283825260005b8481106112ec575050826000602080949584010152601f8019910116010190565b6020818301810151848301820152016112cb565b600435906001600160a01b038216820361016857565b602435906001600160a01b038216820361016857565b6060906003190112610168576001600160a01b0390600435828116810361016857916024359081168103610168579060443590565b6020810190811067ffffffffffffffff82111761054757604052565b6040810190811067ffffffffffffffff82111761054757604052565b90601f8019910116810190811067ffffffffffffffff82111761054757604052565b67ffffffffffffffff811161054757601f01601f191660200190565b90600182811c92168015611407575b60208310146113f157565b634e487b7160e01b600052602260045260246000fd5b91607f16916113e6565b9060405191826000825492611425846113d7565b9081845260019485811690816000146114945750600114611451575b505061144f92500383611399565b565b9093915060005260209081600020936000915b81831061147c57505061144f93508201013880611441565b85548884018501529485019487945091830191611464565b91505061144f94506020925060ff191682840152151560051b8201013880611441565b600080516020611a27833981519152546001600160a01b031633036114d857565b60405163118cdaa760e01b8152336004820152602490fd5b6001600160a01b0390811690811561154b57600080516020611a2783398151915280546001600160a01b031981168417909155167f8be0079c531659141344cd1fd0a4f28419497f9722a3daafe3b4186f6b6457e0600080a3565b604051631e4fbdf760e01b815260006004820152602490fd5b6001600160a01b031660009081527f80bb2b638cc20bc4d0a60d66940f3ab4a00c1d7b313497ca82fb0b4ab00793036020526040902090565b6001600160a01b031660009081527f80bb2b638cc20bc4d0a60d66940f3ab4a00c1d7b313497ca82fb0b4ab00793056020526040902090565b6001600160a01b038281169391841561178757826000958187527f80bb2b638cc20bc4d0a60d66940f3ab4a00c1d7b313497ca82fb0b4ab00793029586602052604097858982205416978892331515806116e1575b509061165d7fddf252ad1be2c89b69c2b068fc378daa952ba7f163c4a11628f55a4df523b3ef9392856116af57611564565b8054600101905585825260205289812080546001600160a01b0319168517905580a4169283830361168e5750505050565b6064945051926364283d7b60e01b8452600484015260248301526044820152fd5b6000888152600080516020611a478339815191526020526040902080546001600160a01b0319169055610d7d86611564565b9193509193945080611738575b156116ff579187918794933861162b565b88878961171c576024915190637e27328960e01b82526004820152fd5b604491519063177e802f60e01b82523360048301526024820152fd5b50338814801561176b575b806116ee5750868352600080516020611a4783398151915260205233868a85205416146116ee565b506117758861159d565b33845260205260ff8984205416611743565b604051633250574960e11b815260006004820152602490fd5b91906117ad8282856115d6565b803b6117ba575b50505050565b6117fc60018060a01b0380921694604051938493630a85bd0160e11b9687865233600487015216602485015260448401526080606484015260848301906112c0565b03906020816000938185885af19082908261187b575b505061184a5782611821611924565b805191908261184357604051633250574960e11b815260048101839052602490fd5b9050602001fd5b6001600160e01b031916036118635750388080806117b4565b60249060405190633250574960e11b82526004820152fd5b909192506020813d82116118c2575b8161189760209383611399565b810103126118be5751906001600160e01b0319821682036118bb5750903880611812565b80fd5b5080fd5b3d915061188a565b60008181527f80bb2b638cc20bc4d0a60d66940f3ab4a00c1d7b313497ca82fb0b4ab007930260205260409020546001600160a01b031690811561190c575090565b60249060405190637e27328960e01b82526004820152fd5b3d1561194f573d90611935826113bb565b916119436040519384611399565b82523d6000602084013e565b606090565b60ff600080516020611a678339815191525460401c161561197157565b604051631afcd79f60e31b8152600490fd5b906119aa575080511561199857805190602001fd5b604051630a12f52160e11b8152600490fd5b815115806119dd575b6119bb575090565b604051639996b31560e01b81526001600160a01b039091166004820152602490fd5b50803b156119b356fe80bb2b638cc20bc4d0a60d66940f3ab4a00c1d7b313497ca82fb0b4ab0079300f4bad0a69248f59680a4f2b3000328cec71a413447c96781cfe5996daa8c456e9016d09d72d40fdae2fd8ceac6b6234c7706214fd39c1cd1e609a0528c19930080bb2b638cc20bc4d0a60d66940f3ab4a00c1d7b313497ca82fb0b4ab0079304f0c57e16840df040f15088dc2f81fe391c3923bec73e23a9662efc9c229c6a0080bb2b638cc20bc4d0a60d66940f3ab4a00c1d7b313497ca82fb0b4ab007930137c58c799b6609234b945e882912ee9ad34948a1dfaa20a97485e1a7752bbf81a26469706673582212201611c70813423785a0a75c7c345a49270acbd2aa6f24c6f971976a36d3acf8e664736f6c63430008140033",
  "linkReferences": {},
  "deployedLinkReferences": {}
}