{
  "_format": "hh-sol-artifact-1",
  "contractName": "SubnetVerifier",
  "sourceName": "contracts/SubnetVerifier.sol",
  "abi": [
    {
      "inputs": [],
      "name": "InvalidInitialization",
      "type": "error"
    },
    {
      "inputs": [],
      "name": "NotInitializing",
      "type": "error"
    },
    {
      "inputs": [
        {
          "internalType": "address",
          "name": "owner",
          "type": "address"
        }
      ],
      "name": "OwnableInvalidOwner",
      "type": "error"
    },
    {
      "inputs": [
        {
          "internalType": "address",
          "name": "account",
          "type": "address"
        }
      ],
      "name": "OwnableUnauthorizedAccount",
      "type": "error"
    },
    {
      "anonymous": false,
      "inputs": [
        {
          "indexed": false,
          "internalType": "uint64",
          "name": "version",
          "type": "uint64"
        }
      ],
      "name": "Initialized",
      "type": "event"
    },
    {
      "anonymous": false,
      "inputs": [
        {
          "indexed": true,
          "internalType": "address",
          "name": "previousOwner",
          "type": "address"
        },
        {
          "indexed": true,
          "internalType": "address",
          "name": "newOwner",
          "type": "address"
        }
      ],
      "name": "OwnershipTransferred",
      "type": "event"
    },
    {
      "anonymous": false,
      "inputs": [
        {
          "indexed": true,
          "internalType": "address",
          "name": "verifier",
          "type": "address"
        }
      ],
      "name": "VerifierDeleted",
      "type": "event"
    },
    {
      "anonymous": false,
      "inputs": [
        {
          "indexed": true,
          "internalType": "address",
          "name": "verifier",
          "type": "address"
        },
        {
          "indexed": false,
          "internalType": "string[]",
          "name": "peerIds",
          "type": "string[]"
        }
      ],
      "name": "VerifierPeersUpdated",
      "type": "event"
    },
    {
      "anonymous": false,
      "inputs": [
        {
          "indexed": true,
          "internalType": "address",
          "name": "verifier",
          "type": "address"
        }
      ],
      "name": "VerifierRegistered",
      "type": "event"
    },
    {
      "inputs": [
        {
          "internalType": "address",
          "name": "verifier",
          "type": "address"
        }
      ],
      "name": "deleteVerifier",
      "outputs": [],
      "stateMutability": "nonpayable",
      "type": "function"
    },
    {
      "inputs": [
        {
          "internalType": "address",
          "name": "verifier",
          "type": "address"
        }
      ],
      "name": "getVerifierInfo",
      "outputs": [
        {
          "components": [
            {
              "internalType": "bool",
              "name": "isRegistered",
              "type": "bool"
            },
            {
              "internalType": "string[]",
              "name": "peerIds",
              "type": "string[]"
            }
          ],
          "internalType": "struct SubnetVerifier.VerifierInfo",
          "name": "",
          "type": "tuple"
        }
      ],
      "stateMutability": "view",
      "type": "function"
    },
    {
      "inputs": [
        {
          "internalType": "address",
          "name": "_initialOwner",
          "type": "address"
        }
      ],
      "name": "initialize",
      "outputs": [],
      "stateMutability": "nonpayable",
      "type": "function"
    },
    {
      "inputs": [],
      "name": "owner",
      "outputs": [
        {
          "internalType": "address",
          "name": "",
          "type": "address"
        }
      ],
      "stateMutability": "view",
      "type": "function"
    },
    {
      "inputs": [
        {
          "internalType": "address",
          "name": "verifier",
          "type": "address"
        },
        {
          "internalType": "string[]",
          "name": "peerIds",
          "type": "string[]"
        }
      ],
      "name": "registerVerifier",
      "outputs": [],
      "stateMutability": "nonpayable",
      "type": "function"
    },
    {
      "inputs": [],
      "name": "renounceOwnership",
      "outputs": [],
      "stateMutability": "nonpayable",
      "type": "function"
    },
    {
      "inputs": [
        {
          "internalType": "address",
          "name": "newOwner",
          "type": "address"
        }
      ],
      "name": "transferOwnership",
      "outputs": [],
      "stateMutability": "nonpayable",
      "type": "function"
    },
    {
      "inputs": [
        {
          "internalType": "address",
          "name": "verifier",
          "type": "address"
        },
        {
          "internalType": "string[]",
          "name": "peerIds",
          "type": "string[]"
        }
      ],
      "name": "updateVerifierPeers",
      "outputs": [],
      "stateMutability": "nonpayable",
      "type": "function"
    },
    {
      "inputs": [
        {
          "internalType": "address",
          "name": "",
          "type": "address"
        }
      ],
      "name": "verifiers",
      "outputs": [
        {
          "internalType": "bool",
          "name": "isRegistered",
          "type": "bool"
        }
      ],
      "stateMutability": "view",
      "type": "function"
    },
    {
      "inputs": [],
      "name": "version",
      "outputs": [
        {
          "internalType": "string",
          "name": "",
          "type": "string"
        }
      ],
      "stateMutability": "pure",
      "type": "function"
    }
  ],
  "bytecode": "0x6080806040523461001657610e57908161001c8239f35b600080fdfe60406080815260048036101561001457600080fd5b600091823560e01c9182630e1fb4ca1461079d5782631c4dada31461056257826354fd4d501461051d57826355f32817146104295782636c824487146103ec578263715018a6146103825782638da5cb5b1461034c578263a3e0851d146101f7578263c4d66de8146100c057505063f2fde38b1461009157600080fd5b346100bd5760203660031901126100bd576100ba6100ad6109af565b6100b5610be1565b610c1a565b80f35b80fd5b909150346101f35760203660031901126101f3576100dc6109af565b907ff0c57e16840df040f15088dc2f81fe391c3923bec73e23a9662efc9c229c6a0091825460ff81861c16159267ffffffffffffffff8216801590816101eb575b60011490816101e1575b1590816101d8575b506101ca575067ffffffffffffffff19811660011784556101629190836101ab575b5061015a610c8e565b6100b5610c8e565b61016a578280f35b805468ff00000000000000001916905551600181527fc7f505b2f371ae2175ee4913f4499e1f2633a7b5936321eed1cdaeb6115181d290602090a138808280f35b68ffffffffffffffffff19166801000000000000000117845538610151565b855163f92ee8a960e01b8152fd5b9050153861012f565b303b159150610127565b85915061011d565b8280fd5b5082346100bd5760209182600319360112610348576102146109af565b6060848351610222816109ca565b85815201526001600160a01b03168252818352808220815192610244846109ca565b60ff82541615158452600180920191825461025e81610a1e565b9361026b865195866109fc565b818552835286832083908886015b8383106102af57888a0187815288518b81528a511515818d01529051818a018a905281906102ab906060830190610b85565b0390f35b848a895192889385546102c181610ccf565b8083529085811690811561032c57506001146102f4575b506102e681859603826109fc565b815201920192019190610279565b868b52838b208b96505b8187106103155750509384018201936102e66102d8565b8054838801860152939095019489948f94016102fe565b60ff19168584015250151560051b8101830194506102e66102d8565b5080fd5b838234610348578160031936011261034857600080516020610e028339815191525490516001600160a01b039091168152602090f35b83346100bd57806003193601126100bd5761039b610be1565b600080516020610e0283398151915280546001600160a01b0319811690915581906001600160a01b03167f8be0079c531659141344cd1fd0a4f28419497f9722a3daafe3b4186f6b6457e08280a380f35b8382346103485760203660031901126103485760209160ff9082906001600160a01b036104176109af565b16815280855220541690519015158152f35b838234610348576020806003193601126101f3576104456109af565b61044d610be1565b6001600160a01b03168084528382528284205490929061046f9060ff16610db5565b828452838252832090838255600180920190815491858155826104b6575b85857f179d784bd033412e105437d6852ec26971ad53d1d4d2c3a05c1a1809ee55bc168280a280f35b8552808520918201915b8281101561048d5780866104d5869354610ccf565b806104e3575b5050016104c0565b601f8082116001146104fb57505081555b86886104db565b61051490848452868420920160051c8201858301610d09565b818355556104f4565b83823461034857816003193601126103485780516102ab9161053e826109ca565b60058252640312e302e360dc1b602083015251918291602083526020830190610b45565b909150346101f35761057336610a36565b9060018060a01b038091169283865260209186835261059760ff8789205416610db5565b843314908115610782575b501561072d5783865285825260019081868820018451916105c38383610d20565b90885283882088918686015b848410610614578a897f0f671e18862549ec4d8019cc59f3ab1cfef01ea6b7f5f1b73bef2ed1bebc58768a8a61060e8f51928284938452830190610b85565b0390a280f35b805190815167ffffffffffffffff811161071a57879189918e6106378854610ccf565b90601f918281116106e4575b50849183116001146106835790859683610678575b5050600019600383901b1c191690841b1786555b019301930192916105cf565b015190503880610658565b90601f198316898352858320925b8181106106cd57509086978488959493106106b4575b505050811b01865561066c565b015160001960f88460031b161c191690553880806106a7565b8289015184558d978f979401939283019201610691565b61070b908a8352868320600585808801821c8301938a8910610711575b01901c0190610d09565b38610643565b93508293610701565b634e487b7160e01b8d526041845260248dfd5b60849185519162461bcd60e51b8352820152602b60248201527f4f6e6c7920746865207665726966696572206f72206f776e65722063616e207560448201526a706461746520706565727360a81b6064820152fd5b9050600080516020610e0283398151915254163314386105a2565b9150346101f3576107ad36610a36565b906107b6610be1565b6001600160a01b031680855260208581528386205491949160ff1661096d578392919251936107e4856109ca565b600194859182825283820194855287895288845288209051151560ff80198354169116178155019151928184519461081c8686610d20565b019287528187209087935b8585106108575788887f85cf819da48b7e3c138cca9531adae41f25faeff5801e9e096eb2c1fb3cbbab78280a280f35b805190815167ffffffffffffffff811161095a57889186916108798754610ccf565b948d601f968588821161092e575b5050508d849683116001146108cc579582918697926108c1575b5050600019600383901b1c191690841b1786555b01930194019391610827565b0151905038806108a1565b9095601f198316898352858320925b81811061091757509086978488959493106108fe575b505050811b0186556108b5565b015160001960f88460031b161c191690553880806108f1565b8289015184558e978c9794019392830192016108db565b828b610952945220600589808701821c8301938988106107115701901c0190610d09565b8d3885610887565b634e487b7160e01b8b526041845260248bfd5b835162461bcd60e51b815291820152601b60248201527f566572696669657220616c726561647920726567697374657265640000000000604482015260649150fd5b600435906001600160a01b03821682036109c557565b600080fd5b6040810190811067ffffffffffffffff8211176109e657604052565b634e487b7160e01b600052604160045260246000fd5b90601f8019910116810190811067ffffffffffffffff8211176109e657604052565b67ffffffffffffffff81116109e65760051b60200190565b906040806003198401126109c55760049283356001600160a01b03811681036109c5579360249182359167ffffffffffffffff918284116109c557806023850112156109c5578382013591610a8a83610a1e565b96610a97815198896109fc565b83885260209680888a019560051b880101968488116109c557818101955b888710610ac9575050505050505050505090565b86358881116109c557820190866043830112156109c5578382013590898211610b30578551610b01601f8401601f19168e01826109fc565b828152604493898585830101116109c5578d848196958296600094018386013783010152815201960195610ab5565b634e487b7160e01b6000908152604188528590fd5b919082519283825260005b848110610b71575050826000602080949584010152601f8019910116010190565b602081830181015184830182015201610b50565b908082519081815260208091019281808460051b8301019501936000915b848310610bb35750505050505090565b9091929394958480610bd1600193601f198682030187528a51610b45565b9801930193019194939290610ba3565b600080516020610e02833981519152546001600160a01b03163303610c0257565b60405163118cdaa760e01b8152336004820152602490fd5b6001600160a01b03908116908115610c7557600080516020610e0283398151915280546001600160a01b031981168417909155167f8be0079c531659141344cd1fd0a4f28419497f9722a3daafe3b4186f6b6457e0600080a3565b604051631e4fbdf760e01b815260006004820152602490fd5b60ff7ff0c57e16840df040f15088dc2f81fe391c3923bec73e23a9662efc9c229c6a005460401c1615610cbd57565b604051631afcd79f60e31b8152600490fd5b90600182811c92168015610cff575b6020831014610ce957565b634e487b7160e01b600052602260045260246000fd5b91607f1691610cde565b818110610d14575050565b60008155600101610d09565b6801000000000000000082116109e657805491808255828110610d4257505050565b600091825260209081832093840193015b838110610d605750505050565b8083610d6e60019354610ccf565b80610d7c575b505001610d53565b601f8082118514610d9357505081555b8338610d74565b610dac90848452868420920160051c8201858301610d09565b81835555610d8c565b15610dbc57565b60405162461bcd60e51b815260206004820152601760248201527f5665726966696572206e6f7420726567697374657265640000000000000000006044820152606490fdfe9016d09d72d40fdae2fd8ceac6b6234c7706214fd39c1cd1e609a0528c199300a264697066735822122061b4ac0c403661bf7c384cfadd2cfcc4c26630c1c1b3b4c1b232db005282ef3164736f6c63430008140033",
  "linkReferences": {},
  "deployedLinkReferences": {}
}