{
  "_format": "hh-sol-artifact-1",
  "contractName": "SubnetProvider",
  "sourceName": "contracts/SubnetProvider.sol",
  "abi": [
    {
      "inputs": [
        {
          "internalType": "address",
          "name": "target",
          "type": "address"
        }
      ],
      "name": "AddressEmptyCode",
      "type": "error"
    },
    {
      "inputs": [
        {
          "internalType": "address",
          "name": "account",
          "type": "address"
        }
      ],
      "name": "AddressInsufficientBalance",
      "type": "error"
    },
    {
      "inputs": [
        {
          "internalType": "address",
          "name": "sender",
          "type": "address"
        },
        {
          "internalType": "uint256",
          "name": "tokenId",
          "type": "uint256"
        },
        {
          "internalType": "address",
          "name": "owner",
          "type": "address"
        }
      ],
      "name": "ERC721IncorrectOwner",
      "type": "error"
    },
    {
      "inputs": [
        {
          "internalType": "address",
          "name": "operator",
          "type": "address"
        },
        {
          "internalType": "uint256",
          "name": "tokenId",
          "type": "uint256"
        }
      ],
      "name": "ERC721InsufficientApproval",
      "type": "error"
    },
    {
      "inputs": [
        {
          "internalType": "address",
          "name": "approver",
          "type": "address"
        }
      ],
      "name": "ERC721InvalidApprover",
      "type": "error"
    },
    {
      "inputs": [
        {
          "internalType": "address",
          "name": "operator",
          "type": "address"
        }
      ],
      "name": "ERC721InvalidOperator",
      "type": "error"
    },
    {
      "inputs": [
        {
          "internalType": "address",
          "name": "owner",
          "type": "address"
        }
      ],
      "name": "ERC721InvalidOwner",
      "type": "error"
    },
    {
      "inputs": [
        {
          "internalType": "address",
          "name": "receiver",
          "type": "address"
        }
      ],
      "name": "ERC721InvalidReceiver",
      "type": "error"
    },
    {
      "inputs": [
        {
          "internalType": "address",
          "name": "sender",
          "type": "address"
        }
      ],
      "name": "ERC721InvalidSender",
      "type": "error"
    },
    {
      "inputs": [
        {
          "internalType": "uint256",
          "name": "tokenId",
          "type": "uint256"
        }
      ],
      "name": "ERC721NonexistentToken",
      "type": "error"
    },
    {
      "inputs": [],
      "name": "FailedInnerCall",
      "type": "error"
    },
    {
      "inputs": [],
      "name": "InvalidInitialization",
      "type": "error"
    },
    {
      "inputs": [],
      "name": "NotInitializing",
      "type": "error"
    },
    {
      "inputs": [
        {
          "internalType": "address",
          "name": "owner",
          "type": "address"
        }
      ],
      "name": "OwnableInvalidOwner",
      "type": "error"
    },
    {
      "inputs": [
        {
          "internalType": "address",
          "name": "account",
          "type": "address"
        }
      ],
      "name": "OwnableUnauthorizedAccount",
      "type": "error"
    },
    {
      "inputs": [
        {
          "internalType": "address",
          "name": "token",
          "type": "address"
        }
      ],
      "name": "SafeERC20FailedOperation",
      "type": "error"
    },
    {
      "anonymous": false,
      "inputs": [
        {
          "indexed": true,
          "internalType": "address",
          "name": "owner",
          "type": "address"
        },
        {
          "indexed": true,
          "internalType": "address",
          "name": "approved",
          "type": "address"
        },
        {
          "indexed": true,
          "internalType": "uint256",
          "name": "tokenId",
          "type": "uint256"
        }
      ],
      "name": "Approval",
      "type": "event"
    },
    {
      "anonymous": false,
      "inputs": [
        {
          "indexed": true,
          "internalType": "address",
          "name": "owner",
          "type": "address"
        },
        {
          "indexed": true,
          "internalType": "address",
          "name": "operator",
          "type": "address"
        },
        {
          "indexed": false,
          "internalType": "bool",
          "name": "approved",
          "type": "bool"
        }
      ],
      "name": "ApprovalForAll",
      "type": "event"
    },
    {
      "anonymous": false,
      "inputs": [
        {
          "indexed": false,
          "internalType": "uint256",
          "name": "_fromTokenId",
          "type": "uint256"
        },
        {
          "indexed": false,
          "internalType": "uint256",
          "name": "_toTokenId",
          "type": "uint256"
        }
      ],
      "name": "BatchMetadataUpdate",
      "type": "event"
    },
    {
      "anonymous": false,
      "inputs": [
        {
          "indexed": false,
          "internalType": "uint64",
          "name": "version",
          "type": "uint64"
        }
      ],
      "name": "Initialized",
      "type": "event"
    },
    {
      "anonymous": false,
      "inputs": [
        {
          "indexed": false,
          "internalType": "uint256",
          "name": "oldPeriod",
          "type": "uint256"
        },
        {
          "indexed": false,
          "internalType": "uint256",
          "name": "newPeriod",
          "type": "uint256"
        }
      ],
      "name": "LockPeriodUpdated",
      "type": "event"
    },
    {
      "anonymous": false,
      "inputs": [
        {
          "indexed": true,
          "internalType": "uint256",
          "name": "providerId",
          "type": "uint256"
        },
        {
          "indexed": false,
          "internalType": "uint256",
          "name": "machineId",
          "type": "uint256"
        },
        {
          "indexed": false,
          "internalType": "uint256",
          "name": "stakedAmount",
          "type": "uint256"
        }
      ],
      "name": "MachineAdded",
      "type": "event"
    },
    {
      "anonymous": false,
      "inputs": [
        {
          "indexed": true,
          "internalType": "uint256",
          "name": "providerId",
          "type": "uint256"
        },
        {
          "indexed": false,
          "internalType": "uint256",
          "name": "machineId",
          "type": "uint256"
        },
        {
          "indexed": false,
          "internalType": "uint256",
          "name": "unlocktime",
          "type": "uint256"
        }
      ],
      "name": "MachineRemoved",
      "type": "event"
    },
    {
      "anonymous": false,
      "inputs": [
        {
          "indexed": true,
          "internalType": "uint256",
          "name": "providerId",
          "type": "uint256"
        },
        {
          "indexed": false,
          "internalType": "uint256",
          "name": "machineId",
          "type": "uint256"
        },
        {
          "indexed": false,
          "internalType": "uint256",
          "name": "additionalStake",
          "type": "uint256"
        }
      ],
      "name": "MachineUpdated",
      "type": "event"
    },
    {
      "anonymous": false,
      "inputs": [
        {
          "indexed": false,
          "internalType": "uint256",
          "name": "_tokenId",
          "type": "uint256"
        }
      ],
      "name": "MetadataUpdate",
      "type": "event"
    },
    {
      "anonymous": false,
      "inputs": [
        {
          "indexed": true,
          "internalType": "address",
          "name": "previousOwner",
          "type": "address"
        },
        {
          "indexed": true,
          "internalType": "address",
          "name": "newOwner",
          "type": "address"
        }
      ],
      "name": "OwnershipTransferred",
      "type": "event"
    },
    {
      "anonymous": false,
      "inputs": [
        {
          "indexed": true,
          "internalType": "uint256",
          "name": "providerId",
          "type": "uint256"
        }
      ],
      "name": "ProviderUpdated",
      "type": "event"
    },
    {
      "anonymous": false,
      "inputs": [
        {
          "indexed": false,
          "internalType": "uint256",
          "name": "baseAmount",
          "type": "uint256"
        },
        {
          "indexed": false,
          "internalType": "uint256",
          "name": "cpuRate",
          "type": "uint256"
        },
        {
          "indexed": false,
          "internalType": "uint256",
          "name": "gpuRate",
          "type": "uint256"
        },
        {
          "indexed": false,
          "internalType": "uint256",
          "name": "memoryRate",
          "type": "uint256"
        },
        {
          "indexed": false,
          "internalType": "uint256",
          "name": "diskRate",
          "type": "uint256"
        },
        {
          "indexed": false,
          "internalType": "uint256",
          "name": "uploadSpeedRate",
          "type": "uint256"
        },
        {
          "indexed": false,
          "internalType": "uint256",
          "name": "downloadSpeedRate",
          "type": "uint256"
        }
      ],
      "name": "StakeParametersUpdated",
      "type": "event"
    },
    {
      "anonymous": false,
      "inputs": [
        {
          "indexed": true,
          "internalType": "uint256",
          "name": "providerId",
          "type": "uint256"
        },
        {
          "indexed": false,
          "internalType": "uint256",
          "name": "machineId",
          "type": "uint256"
        },
        {
          "indexed": false,
          "internalType": "uint256",
          "name": "amount",
          "type": "uint256"
        },
        {
          "indexed": false,
          "internalType": "string",
          "name": "reason",
          "type": "string"
        }
      ],
      "name": "StakeSlashed",
      "type": "event"
    },
    {
      "anonymous": false,
      "inputs": [
        {
          "indexed": true,
          "internalType": "uint256",
          "name": "providerId",
          "type": "uint256"
        },
        {
          "indexed": false,
          "internalType": "uint256",
          "name": "machineId",
          "type": "uint256"
        },
        {
          "indexed": false,
          "internalType": "uint256",
          "name": "amount",
          "type": "uint256"
        }
      ],
      "name": "StakeWithdrawn",
      "type": "event"
    },
    {
      "anonymous": false,
      "inputs": [
        {
          "indexed": true,
          "internalType": "address",
          "name": "from",
          "type": "address"
        },
        {
          "indexed": true,
          "internalType": "address",
          "name": "to",
          "type": "address"
        },
        {
          "indexed": true,
          "internalType": "uint256",
          "name": "tokenId",
          "type": "uint256"
        }
      ],
      "name": "Transfer",
      "type": "event"
    },
    {
      "inputs": [
        {
          "internalType": "uint256",
          "name": "providerId",
          "type": "uint256"
        },
        {
          "internalType": "uint256",
          "name": "machineType",
          "type": "uint256"
        },
        {
          "internalType": "uint256",
          "name": "region",
          "type": "uint256"
        },
        {
          "internalType": "uint256",
          "name": "cpuCores",
          "type": "uint256"
        },
        {
          "internalType": "uint256",
          "name": "cpuSpeed",
          "type": "uint256"
        },
        {
          "internalType": "uint256",
          "name": "gpuCores",
          "type": "uint256"
        },
        {
          "internalType": "uint256",
          "name": "gpuMemory",
          "type": "uint256"
        },
        {
          "internalType": "uint256",
          "name": "memoryMB",
          "type": "uint256"
        },
        {
          "internalType": "uint256",
          "name": "diskGB",
          "type": "uint256"
        },
        {
          "internalType": "uint256",
          "name": "publicIp",
          "type": "uint256"
        },
        {
          "internalType": "uint256",
          "name": "overlayIp",
          "type": "uint256"
        },
        {
          "internalType": "uint256",
          "name": "uploadSpeed",
          "type": "uint256"
        },
        {
          "internalType": "uint256",
          "name": "downloadSpeed",
          "type": "uint256"
        },
        {
          "internalType": "string",
          "name": "metadata",
          "type": "string"
        }
      ],
      "name": "addMachine",
      "outputs": [
        {
          "internalType": "uint256",
          "name": "",
          "type": "uint256"
        }
      ],
      "stateMutability": "nonpayable",
      "type": "function"
    },
    {
      "inputs": [
        {
          "internalType": "address",
          "name": "to",
          "type": "address"
        },
        {
          "internalType": "uint256",
          "name": "tokenId",
          "type": "uint256"
        }
      ],
      "name": "approve",
      "outputs": [],
      "stateMutability": "nonpayable",
      "type": "function"
    },
    {
      "inputs": [
        {
          "internalType": "address",
          "name": "owner",
          "type": "address"
        }
      ],
      "name": "balanceOf",
      "outputs": [
        {
          "internalType": "uint256",
          "name": "",
          "type": "uint256"
        }
      ],
      "stateMutability": "view",
      "type": "function"
    },
    {
      "inputs": [],
      "name": "baseStakeAmount",
      "outputs": [
        {
          "internalType": "uint256",
          "name": "",
          "type": "uint256"
        }
      ],
      "stateMutability": "view",
      "type": "function"
    },
    {
      "inputs": [
        {
          "internalType": "uint256",
          "name": "cpuCores",
          "type": "uint256"
        },
        {
          "internalType": "uint256",
          "name": "gpuCores",
          "type": "uint256"
        },
        {
          "internalType": "uint256",
          "name": "memoryMB",
          "type": "uint256"
        },
        {
          "internalType": "uint256",
          "name": "diskGB",
          "type": "uint256"
        },
        {
          "internalType": "uint256",
          "name": "uploadSpeed",
          "type": "uint256"
        },
        {
          "internalType": "uint256",
          "name": "downloadSpeed",
          "type": "uint256"
        }
      ],
      "name": "calculateRequiredStake",
      "outputs": [
        {
          "internalType": "uint256",
          "name": "",
          "type": "uint256"
        }
      ],
      "stateMutability": "view",
      "type": "function"
    },
    {
      "inputs": [
        {
          "internalType": "uint256",
          "name": "providerId",
          "type": "uint256"
        },
        {
          "internalType": "uint256",
          "name": "machineId",
          "type": "uint256"
        }
      ],
      "name": "claimWithdrawal",
      "outputs": [],
      "stateMutability": "nonpayable",
      "type": "function"
    },
    {
      "inputs": [],
      "name": "cpuStakeRate",
      "outputs": [
        {
          "internalType": "uint256",
          "name": "",
          "type": "uint256"
        }
      ],
      "stateMutability": "view",
      "type": "function"
    },
    {
      "inputs": [],
      "name": "diskStakeRate",
      "outputs": [
        {
          "internalType": "uint256",
          "name": "",
          "type": "uint256"
        }
      ],
      "stateMutability": "view",
      "type": "function"
    },
    {
      "inputs": [],
      "name": "downloadSpeedStakeRate",
      "outputs": [
        {
          "internalType": "uint256",
          "name": "",
          "type": "uint256"
        }
      ],
      "stateMutability": "view",
      "type": "function"
    },
    {
      "inputs": [
        {
          "internalType": "uint256",
          "name": "providerId",
          "type": "uint256"
        },
        {
          "internalType": "uint256",
          "name": "start",
          "type": "uint256"
        },
        {
          "internalType": "uint256",
          "name": "limit",
          "type": "uint256"
        }
      ],
      "name": "getActiveMachinesPaginated",
      "outputs": [
        {
          "components": [
            {
              "internalType": "bool",
              "name": "active",
              "type": "bool"
            },
            {
              "internalType": "uint256",
              "name": "machineType",
              "type": "uint256"
            },
            {
              "internalType": "uint256",
              "name": "region",
              "type": "uint256"
            },
            {
              "internalType": "uint256",
              "name": "cpuCores",
              "type": "uint256"
            },
            {
              "internalType": "uint256",
              "name": "cpuSpeed",
              "type": "uint256"
            },
            {
              "internalType": "uint256",
              "name": "gpuCores",
              "type": "uint256"
            },
            {
              "internalType": "uint256",
              "name": "gpuMemory",
              "type": "uint256"
            },
            {
              "internalType": "uint256",
              "name": "memoryMB",
              "type": "uint256"
            },
            {
              "internalType": "uint256",
              "name": "diskGB",
              "type": "uint256"
            },
            {
              "internalType": "uint256",
              "name": "uploadSpeed",
              "type": "uint256"
            },
            {
              "internalType": "uint256",
              "name": "downloadSpeed",
              "type": "uint256"
            },
            {
              "internalType": "uint256",
              "name": "publicIp",
              "type": "uint256"
            },
            {
              "internalType": "uint256",
              "name": "overlayIp",
              "type": "uint256"
            },
            {
              "internalType": "uint256",
              "name": "createdAt",
              "type": "uint256"
            },
            {
              "internalType": "uint256",
              "name": "updatedAt",
              "type": "uint256"
            },
            {
              "internalType": "uint256",
              "name": "stakeAmount",
              "type": "uint256"
            },
            {
              "internalType": "uint256",
              "name": "removedAt",
              "type": "uint256"
            },
            {
              "internalType": "uint256",
              "name": "unlockTime",
              "type": "uint256"
            },
            {
              "internalType": "bool",
              "name": "withdrawalProcessed",
              "type": "bool"
            },
            {
              "internalType": "string",
              "name": "metadata",
              "type": "string"
            }
          ],
          "internalType": "struct SubnetProvider.Machine[]",
          "name": "",
          "type": "tuple[]"
        }
      ],
      "stateMutability": "view",
      "type": "function"
    },
    {
      "inputs": [
        {
          "internalType": "uint256",
          "name": "tokenId",
          "type": "uint256"
        }
      ],
      "name": "getApproved",
      "outputs": [
        {
          "internalType": "address",
          "name": "",
          "type": "address"
        }
      ],
      "stateMutability": "view",
      "type": "function"
    },
    {
      "inputs": [
        {
          "internalType": "uint256",
          "name": "providerId",
          "type": "uint256"
        }
      ],
      "name": "getMachines",
      "outputs": [
        {
          "components": [
            {
              "internalType": "bool",
              "name": "active",
              "type": "bool"
            },
            {
              "internalType": "uint256",
              "name": "machineType",
              "type": "uint256"
            },
            {
              "internalType": "uint256",
              "name": "region",
              "type": "uint256"
            },
            {
              "internalType": "uint256",
              "name": "cpuCores",
              "type": "uint256"
            },
            {
              "internalType": "uint256",
              "name": "cpuSpeed",
              "type": "uint256"
            },
            {
              "internalType": "uint256",
              "name": "gpuCores",
              "type": "uint256"
            },
            {
              "internalType": "uint256",
              "name": "gpuMemory",
              "type": "uint256"
            },
            {
              "internalType": "uint256",
              "name": "memoryMB",
              "type": "uint256"
            },
            {
              "internalType": "uint256",
              "name": "diskGB",
              "type": "uint256"
            },
            {
              "internalType": "uint256",
              "name": "uploadSpeed",
              "type": "uint256"
            },
            {
              "internalType": "uint256",
              "name": "downloadSpeed",
              "type": "uint256"
            },
            {
              "internalType": "uint256",
              "name": "publicIp",
              "type": "uint256"
            },
            {
              "internalType": "uint256",
              "name": "overlayIp",
              "type": "uint256"
            },
            {
              "internalType": "uint256",
              "name": "createdAt",
              "type": "uint256"
            },
            {
              "internalType": "uint256",
              "name": "updatedAt",
              "type": "uint256"
            },
            {
              "internalType": "uint256",
              "name": "stakeAmount",
              "type": "uint256"
            },
            {
              "internalType": "uint256",
              "name": "removedAt",
              "type": "uint256"
            },
            {
              "internalType": "uint256",
              "name": "unlockTime",
              "type": "uint256"
            },
            {
              "internalType": "bool",
              "name": "withdrawalProcessed",
              "type": "bool"
            },
            {
              "internalType": "string",
              "name": "metadata",
              "type": "string"
            }
          ],
          "internalType": "struct SubnetProvider.Machine[]",
          "name": "",
          "type": "tuple[]"
        }
      ],
      "stateMutability": "view",
      "type": "function"
    },
    {
      "inputs": [
        {
          "internalType": "uint256",
          "name": "providerId",
          "type": "uint256"
        },
        {
          "internalType": "uint256",
          "name": "start",
          "type": "uint256"
        },
        {
          "internalType": "uint256",
          "name": "end",
          "type": "uint256"
        }
      ],
      "name": "getMachinesPaginated",
      "outputs": [
        {
          "components": [
            {
              "internalType": "bool",
              "name": "active",
              "type": "bool"
            },
            {
              "internalType": "uint256",
              "name": "machineType",
              "type": "uint256"
            },
            {
              "internalType": "uint256",
              "name": "region",
              "type": "uint256"
            },
            {
              "internalType": "uint256",
              "name": "cpuCores",
              "type": "uint256"
            },
            {
              "internalType": "uint256",
              "name": "cpuSpeed",
              "type": "uint256"
            },
            {
              "internalType": "uint256",
              "name": "gpuCores",
              "type": "uint256"
            },
            {
              "internalType": "uint256",
              "name": "gpuMemory",
              "type": "uint256"
            },
            {
              "internalType": "uint256",
              "name": "memoryMB",
              "type": "uint256"
            },
            {
              "internalType": "uint256",
              "name": "diskGB",
              "type": "uint256"
            },
            {
              "internalType": "uint256",
              "name": "uploadSpeed",
              "type": "uint256"
            },
            {
              "internalType": "uint256",
              "name": "downloadSpeed",
              "type": "uint256"
            },
            {
              "internalType": "uint256",
              "name": "publicIp",
              "type": "uint256"
            },
            {
              "internalType": "uint256",
              "name": "overlayIp",
              "type": "uint256"
            },
            {
              "internalType": "uint256",
              "name": "createdAt",
              "type": "uint256"
            },
            {
              "internalType": "uint256",
              "name": "updatedAt",
              "type": "uint256"
            },
            {
              "internalType": "uint256",
              "name": "stakeAmount",
              "type": "uint256"
            },
            {
              "internalType": "uint256",
              "name": "removedAt",
              "type": "uint256"
            },
            {
              "internalType": "uint256",
              "name": "unlockTime",
              "type": "uint256"
            },
            {
              "internalType": "bool",
              "name": "withdrawalProcessed",
              "type": "bool"
            },
            {
              "internalType": "string",
              "name": "metadata",
              "type": "string"
            }
          ],
          "internalType": "struct SubnetProvider.Machine[]",
          "name": "",
          "type": "tuple[]"
        }
      ],
      "stateMutability": "view",
      "type": "function"
    },
    {
      "inputs": [
        {
          "internalType": "uint256",
          "name": "providerId",
          "type": "uint256"
        }
      ],
      "name": "getProvider",
      "outputs": [
        {
          "components": [
            {
              "internalType": "address",
              "name": "operator",
              "type": "address"
            },
            {
              "internalType": "bool",
              "name": "registered",
              "type": "bool"
            },
            {
              "internalType": "uint256",
              "name": "reputation",
              "type": "uint256"
            },
            {
              "internalType": "uint256",
              "name": "machineCount",
              "type": "uint256"
            },
            {
              "internalType": "uint256",
              "name": "createdAt",
              "type": "uint256"
            },
            {
              "internalType": "uint256",
              "name": "updatedAt",
              "type": "uint256"
            },
            {
              "internalType": "uint256",
              "name": "totalStaked",
              "type": "uint256"
            },
            {
              "internalType": "uint256",
              "name": "pendingWithdrawals",
              "type": "uint256"
            },
            {
              "internalType": "uint256",
              "name": "slashedAmount",
              "type": "uint256"
            },
            {
              "internalType": "uint256",
              "name": "tokenId",
              "type": "uint256"
            },
            {
              "internalType": "string",
              "name": "metadata",
              "type": "string"
            },
            {
              "internalType": "bool",
              "name": "isSlashed",
              "type": "bool"
            },
            {
              "internalType": "bool",
              "name": "isActive",
              "type": "bool"
            }
          ],
          "internalType": "struct SubnetProvider.Provider",
          "name": "provider",
          "type": "tuple"
        }
      ],
      "stateMutability": "view",
      "type": "function"
    },
    {
      "inputs": [
        {
          "internalType": "uint256",
          "name": "providerId",
          "type": "uint256"
        }
      ],
      "name": "getProviderOwner",
      "outputs": [
        {
          "internalType": "address",
          "name": "",
          "type": "address"
        }
      ],
      "stateMutability": "view",
      "type": "function"
    },
    {
      "inputs": [
        {
          "internalType": "uint256",
          "name": "providerId",
          "type": "uint256"
        }
      ],
      "name": "getProviderSlashedAmount",
      "outputs": [
        {
          "internalType": "uint256",
          "name": "",
          "type": "uint256"
        }
      ],
      "stateMutability": "view",
      "type": "function"
    },
    {
      "inputs": [],
      "name": "gpuStakeRate",
      "outputs": [
        {
          "internalType": "uint256",
          "name": "",
          "type": "uint256"
        }
      ],
      "stateMutability": "view",
      "type": "function"
    },
    {
      "inputs": [
        {
          "internalType": "address",
          "name": "owner",
          "type": "address"
        },
        {
          "internalType": "address",
          "name": "_stakingToken",
          "type": "address"
        },
        {
          "internalType": "string",
          "name": "nftName",
          "type": "string"
        },
        {
          "internalType": "string",
          "name": "nftSymbol",
          "type": "string"
        }
      ],
      "name": "initialize",
      "outputs": [],
      "stateMutability": "nonpayable",
      "type": "function"
    },
    {
      "inputs": [
        {
          "internalType": "address",
          "name": "owner",
          "type": "address"
        },
        {
          "internalType": "address",
          "name": "operator",
          "type": "address"
        }
      ],
      "name": "isApprovedForAll",
      "outputs": [
        {
          "internalType": "bool",
          "name": "",
          "type": "bool"
        }
      ],
      "stateMutability": "view",
      "type": "function"
    },
    {
      "inputs": [
        {
          "internalType": "uint256",
          "name": "providerId",
          "type": "uint256"
        },
        {
          "internalType": "uint256",
          "name": "machineId",
          "type": "uint256"
        }
      ],
      "name": "isMachineActive",
      "outputs": [
        {
          "internalType": "bool",
          "name": "",
          "type": "bool"
        }
      ],
      "stateMutability": "view",
      "type": "function"
    },
    {
      "inputs": [
        {
          "internalType": "uint256",
          "name": "providerId",
          "type": "uint256"
        },
        {
          "internalType": "address",
          "name": "account",
          "type": "address"
        }
      ],
      "name": "isProviderOperatorOrOwner",
      "outputs": [
        {
          "internalType": "bool",
          "name": "",
          "type": "bool"
        }
      ],
      "stateMutability": "view",
      "type": "function"
    },
    {
      "inputs": [],
      "name": "lockPeriod",
      "outputs": [
        {
          "internalType": "uint256",
          "name": "",
          "type": "uint256"
        }
      ],
      "stateMutability": "view",
      "type": "function"
    },
    {
      "inputs": [],
      "name": "memoryStakeRate",
      "outputs": [
        {
          "internalType": "uint256",
          "name": "",
          "type": "uint256"
        }
      ],
      "stateMutability": "view",
      "type": "function"
    },
    {
      "inputs": [],
      "name": "name",
      "outputs": [
        {
          "internalType": "string",
          "name": "",
          "type": "string"
        }
      ],
      "stateMutability": "view",
      "type": "function"
    },
    {
      "inputs": [],
      "name": "owner",
      "outputs": [
        {
          "internalType": "address",
          "name": "",
          "type": "address"
        }
      ],
      "stateMutability": "view",
      "type": "function"
    },
    {
      "inputs": [
        {
          "internalType": "uint256",
          "name": "tokenId",
          "type": "uint256"
        }
      ],
      "name": "ownerOf",
      "outputs": [
        {
          "internalType": "address",
          "name": "",
          "type": "address"
        }
      ],
      "stateMutability": "view",
      "type": "function"
    },
    {
      "inputs": [
        {
          "internalType": "uint256",
          "name": "",
          "type": "uint256"
        },
        {
          "internalType": "uint256",
          "name": "",
          "type": "uint256"
        }
      ],
      "name": "providerMachines",
      "outputs": [
        {
          "internalType": "bool",
          "name": "active",
          "type": "bool"
        },
        {
          "internalType": "uint256",
          "name": "machineType",
          "type": "uint256"
        },
        {
          "internalType": "uint256",
          "name": "region",
          "type": "uint256"
        },
        {
          "internalType": "uint256",
          "name": "cpuCores",
          "type": "uint256"
        },
        {
          "internalType": "uint256",
          "name": "cpuSpeed",
          "type": "uint256"
        },
        {
          "internalType": "uint256",
          "name": "gpuCores",
          "type": "uint256"
        },
        {
          "internalType": "uint256",
          "name": "gpuMemory",
          "type": "uint256"
        },
        {
          "internalType": "uint256",
          "name": "memoryMB",
          "type": "uint256"
        },
        {
          "internalType": "uint256",
          "name": "diskGB",
          "type": "uint256"
        },
        {
          "internalType": "uint256",
          "name": "uploadSpeed",
          "type": "uint256"
        },
        {
          "internalType": "uint256",
          "name": "downloadSpeed",
          "type": "uint256"
        },
        {
          "internalType": "uint256",
          "name": "publicIp",
          "type": "uint256"
        },
        {
          "internalType": "uint256",
          "name": "overlayIp",
          "type": "uint256"
        },
        {
          "internalType": "uint256",
          "name": "createdAt",
          "type": "uint256"
        },
        {
          "internalType": "uint256",
          "name": "updatedAt",
          "type": "uint256"
        },
        {
          "internalType": "uint256",
          "name": "stakeAmount",
          "type": "uint256"
        },
        {
          "internalType": "uint256",
          "name": "removedAt",
          "type": "uint256"
        },
        {
          "internalType": "uint256",
          "name": "unlockTime",
          "type": "uint256"
        },
        {
          "internalType": "bool",
          "name": "withdrawalProcessed",
          "type": "bool"
        },
        {
          "internalType": "string",
          "name": "metadata",
          "type": "string"
        }
      ],
      "stateMutability": "view",
      "type": "function"
    },
    {
      "inputs": [
        {
          "internalType": "uint256",
          "name": "",
          "type": "uint256"
        }
      ],
      "name": "providers",
      "outputs": [
        {
          "internalType": "address",
          "name": "operator",
          "type": "address"
        },
        {
          "internalType": "bool",
          "name": "registered",
          "type": "bool"
        },
        {
          "internalType": "uint256",
          "name": "reputation",
          "type": "uint256"
        },
        {
          "internalType": "uint256",
          "name": "machineCount",
          "type": "uint256"
        },
        {
          "internalType": "uint256",
          "name": "createdAt",
          "type": "uint256"
        },
        {
          "internalType": "uint256",
          "name": "updatedAt",
          "type": "uint256"
        },
        {
          "internalType": "uint256",
          "name": "totalStaked",
          "type": "uint256"
        },
        {
          "internalType": "uint256",
          "name": "pendingWithdrawals",
          "type": "uint256"
        },
        {
          "internalType": "uint256",
          "name": "slashedAmount",
          "type": "uint256"
        },
        {
          "internalType": "uint256",
          "name": "tokenId",
          "type": "uint256"
        },
        {
          "internalType": "string",
          "name": "metadata",
          "type": "string"
        },
        {
          "internalType": "bool",
          "name": "isSlashed",
          "type": "bool"
        },
        {
          "internalType": "bool",
          "name": "isActive",
          "type": "bool"
        }
      ],
      "stateMutability": "view",
      "type": "function"
    },
    {
      "inputs": [
        {
          "internalType": "address",
          "name": "operator",
          "type": "address"
        },
        {
          "internalType": "string",
          "name": "metadata",
          "type": "string"
        }
      ],
      "name": "registerProvider",
      "outputs": [
        {
          "internalType": "uint256",
          "name": "",
          "type": "uint256"
        }
      ],
      "stateMutability": "nonpayable",
      "type": "function"
    },
    {
      "inputs": [
        {
          "internalType": "uint256",
          "name": "providerId",
          "type": "uint256"
        },
        {
          "internalType": "uint256",
          "name": "machineId",
          "type": "uint256"
        }
      ],
      "name": "removeMachine",
      "outputs": [],
      "stateMutability": "nonpayable",
      "type": "function"
    },
    {
      "inputs": [],
      "name": "renounceOwnership",
      "outputs": [],
      "stateMutability": "nonpayable",
      "type": "function"
    },
    {
      "inputs": [
        {
          "internalType": "address",
          "name": "from",
          "type": "address"
        },
        {
          "internalType": "address",
          "name": "to",
          "type": "address"
        },
        {
          "internalType": "uint256",
          "name": "tokenId",
          "type": "uint256"
        }
      ],
      "name": "safeTransferFrom",
      "outputs": [],
      "stateMutability": "nonpayable",
      "type": "function"
    },
    {
      "inputs": [
        {
          "internalType": "address",
          "name": "from",
          "type": "address"
        },
        {
          "internalType": "address",
          "name": "to",
          "type": "address"
        },
        {
          "internalType": "uint256",
          "name": "tokenId",
          "type": "uint256"
        },
        {
          "internalType": "bytes",
          "name": "data",
          "type": "bytes"
        }
      ],
      "name": "safeTransferFrom",
      "outputs": [],
      "stateMutability": "nonpayable",
      "type": "function"
    },
    {
      "inputs": [
        {
          "internalType": "address",
          "name": "operator",
          "type": "address"
        },
        {
          "internalType": "bool",
          "name": "approved",
          "type": "bool"
        }
      ],
      "name": "setApprovalForAll",
      "outputs": [],
      "stateMutability": "nonpayable",
      "type": "function"
    },
    {
      "inputs": [
        {
          "internalType": "uint256",
          "name": "newLockPeriod",
          "type": "uint256"
        }
      ],
      "name": "setLockPeriod",
      "outputs": [],
      "stateMutability": "nonpayable",
      "type": "function"
    },
    {
      "inputs": [
        {
          "internalType": "uint256",
          "name": "providerId",
          "type": "uint256"
        },
        {
          "internalType": "address",
          "name": "newOperator",
          "type": "address"
        }
      ],
      "name": "setProviderOperator",
      "outputs": [],
      "stateMutability": "nonpayable",
      "type": "function"
    },
    {
      "inputs": [
        {
          "internalType": "uint256",
          "name": "newBaseStakeAmount",
          "type": "uint256"
        },
        {
          "internalType": "uint256",
          "name": "newCpuStakeRate",
          "type": "uint256"
        },
        {
          "internalType": "uint256",
          "name": "newGpuStakeRate",
          "type": "uint256"
        },
        {
          "internalType": "uint256",
          "name": "newMemoryStakeRate",
          "type": "uint256"
        },
        {
          "internalType": "uint256",
          "name": "newDiskStakeRate",
          "type": "uint256"
        },
        {
          "internalType": "uint256",
          "name": "newUploadSpeedStakeRate",
          "type": "uint256"
        },
        {
          "internalType": "uint256",
          "name": "newDownloadSpeedStakeRate",
          "type": "uint256"
        }
      ],
      "name": "setStakeParameters",
      "outputs": [],
      "stateMutability": "nonpayable",
      "type": "function"
    },
    {
      "inputs": [
        {
          "internalType": "uint256",
          "name": "providerId",
          "type": "uint256"
        },
        {
          "internalType": "uint256",
          "name": "machineId",
          "type": "uint256"
        },
        {
          "internalType": "uint256",
          "name": "amount",
          "type": "uint256"
        },
        {
          "internalType": "string",
          "name": "reason",
          "type": "string"
        }
      ],
      "name": "slashStake",
      "outputs": [],
      "stateMutability": "nonpayable",
      "type": "function"
    },
    {
      "inputs": [],
      "name": "stakingToken",
      "outputs": [
        {
          "internalType": "address",
          "name": "",
          "type": "address"
        }
      ],
      "stateMutability": "view",
      "type": "function"
    },
    {
      "inputs": [
        {
          "internalType": "bytes4",
          "name": "interfaceId",
          "type": "bytes4"
        }
      ],
      "name": "supportsInterface",
      "outputs": [
        {
          "internalType": "bool",
          "name": "",
          "type": "bool"
        }
      ],
      "stateMutability": "view",
      "type": "function"
    },
    {
      "inputs": [],
      "name": "symbol",
      "outputs": [
        {
          "internalType": "string",
          "name": "",
          "type": "string"
        }
      ],
      "stateMutability": "view",
      "type": "function"
    },
    {
      "inputs": [
        {
          "internalType": "uint256",
          "name": "tokenId",
          "type": "uint256"
        }
      ],
      "name": "tokenURI",
      "outputs": [
        {
          "internalType": "string",
          "name": "",
          "type": "string"
        }
      ],
      "stateMutability": "view",
      "type": "function"
    },
    {
      "inputs": [],
      "name": "totalSlashed",
      "outputs": [
        {
          "internalType": "uint256",
          "name": "",
          "type": "uint256"
        }
      ],
      "stateMutability": "view",
      "type": "function"
    },
    {
      "inputs": [
        {
          "internalType": "address",
          "name": "from",
          "type": "address"
        },
        {
          "internalType": "address",
          "name": "to",
          "type": "address"
        },
        {
          "internalType": "uint256",
          "name": "tokenId",
          "type": "uint256"
        }
      ],
      "name": "transferFrom",
      "outputs": [],
      "stateMutability": "nonpayable",
      "type": "function"
    },
    {
      "inputs": [
        {
          "internalType": "address",
          "name": "newOwner",
          "type": "address"
        }
      ],
      "name": "transferOwnership",
      "outputs": [],
      "stateMutability": "nonpayable",
      "type": "function"
    },
    {
      "inputs": [
        {
          "internalType": "uint256",
          "name": "providerId",
          "type": "uint256"
        },
        {
          "internalType": "uint256",
          "name": "machineId",
          "type": "uint256"
        },
        {
          "internalType": "uint256",
          "name": "cpuCores",
          "type": "uint256"
        },
        {
          "internalType": "uint256",
          "name": "cpuSpeed",
          "type": "uint256"
        },
        {
          "internalType": "uint256",
          "name": "gpuCores",
          "type": "uint256"
        },
        {
          "internalType": "uint256",
          "name": "gpuMemory",
          "type": "uint256"
        },
        {
          "internalType": "uint256",
          "name": "memoryMB",
          "type": "uint256"
        },
        {
          "internalType": "uint256",
          "name": "diskGB",
          "type": "uint256"
        },
        {
          "internalType": "uint256",
          "name": "publicIp",
          "type": "uint256"
        },
        {
          "internalType": "uint256",
          "name": "overlayIp",
          "type": "uint256"
        },
        {
          "internalType": "uint256",
          "name": "uploadSpeed",
          "type": "uint256"
        },
        {
          "internalType": "uint256",
          "name": "downloadSpeed",
          "type": "uint256"
        },
        {
          "internalType": "string",
          "name": "metadata",
          "type": "string"
        }
      ],
      "name": "updateMachine",
      "outputs": [],
      "stateMutability": "nonpayable",
      "type": "function"
    },
    {
      "inputs": [
        {
          "internalType": "uint256",
          "name": "providerId",
          "type": "uint256"
        },
        {
          "internalType": "string",
          "name": "metadata",
          "type": "string"
        }
      ],
      "name": "updateProviderInfo",
      "outputs": [],
      "stateMutability": "nonpayable",
      "type": "function"
    },
    {
      "inputs": [],
      "name": "uploadSpeedStakeRate",
      "outputs": [
        {
          "internalType": "uint256",
          "name": "",
          "type": "uint256"
        }
      ],
      "stateMutability": "view",
      "type": "function"
    },
    {
      "inputs": [
        {
          "internalType": "uint256",
          "name": "machineType",
          "type": "uint256"
        },
        {
          "internalType": "uint256",
          "name": "providerId",
          "type": "uint256"
        },
        {
          "internalType": "uint256",
          "name": "machineId",
          "type": "uint256"
        },
        {
          "internalType": "uint256",
          "name": "minCpuCores",
          "type": "uint256"
        },
        {
          "internalType": "uint256",
          "name": "minMemoryMB",
          "type": "uint256"
        },
        {
          "internalType": "uint256",
          "name": "minDiskGB",
          "type": "uint256"
        },
        {
          "internalType": "uint256",
          "name": "minGpuCores",
          "type": "uint256"
        },
        {
          "internalType": "uint256",
          "name": "minUploadSpeed",
          "type": "uint256"
        },
        {
          "internalType": "uint256",
          "name": "minDownloadSpeed",
          "type": "uint256"
        }
      ],
      "name": "validateMachineRequirements",
      "outputs": [
        {
          "internalType": "bool",
          "name": "",
          "type": "bool"
        }
      ],
      "stateMutability": "view",
      "type": "function"
    },
    {
      "inputs": [
        {
          "internalType": "address",
          "name": "recipient",
          "type": "address"
        },
        {
          "internalType": "uint256",
          "name": "amount",
          "type": "uint256"
        }
      ],
      "name": "withdrawSlashedFunds",
      "outputs": [],
      "stateMutability": "nonpayable",
      "type": "function"
    }
  ],
  "bytecode": "0x6080806040523461001657613e84908161001c8239f35b600080fdfe610180604052600436101561001357600080fd5b60003560e01c8062812be714612e9a57806301ffc9a714612e1357806303f612c414612d7f5780630694f9a014612bf757806306fdde0314612b54578063081812fc14612b09578063095ea7b314612a225780630e55e90c14612870578063125eb844146127db5780631df1ec821461131e5780632016a0d2146122b457806323b872dd1461229d578063304edf5a1461227f57806332f892d51461209557806338b794cc1461200f5780633ad9b58a14611fcd5780633f3e8f2414611dc55780633fd8b02f14611da757806342842e0e14611d7f57806350f3fc8114611ca157806357356f0614611c835780635b20cc5b146118c55780635c42d079146116ea5780635ec3c24c1461134e5780636352211e1461131e57806370a08231146112c957806371129559146112ab578063715018a61461124157806372f702f3146112185780637496be6814611147578063779972da146110a757806388eb26ee14610f445780638d49e78d14610ec85780638da5cb5b14610e9257806395d89b4114610d8c578063972282fb14610d5d578063a1d9596714610be6578063a201bbdd14610bc8578063a22cb46514610b1f578063b88d4fde14610ac0578063bd1516ae14610aa2578063c87b56dd14610a26578063d041d0ba146109a6578063d9486e3514610988578063e985e9c51461093a578063f21340e41461074d578063f2fde38b14610722578063f52d98fc14610283578063fce9d999146102655763ff3d55281461024257600080fd5b34610260576000366003190112610260576020600654604051908152f35b600080fd5b34610260576000366003190112610260576020600b54604051908152f35b34610260576101c0366003190112610260576101a4356001600160401b038111610260576102b5903690600401612f95565b60043560005260016020526102d460ff60406000205460a01c1661383d565b60043560005260016020526102f460ff600a604060002001541615613889565b6102ff6004356136da565b336001600160a01b03909116036106de5761032d61018435610164356101043560e43560a4356064356137b3565b600354610348908290309033906001600160a01b03166138cb565b60043560005260016020526040600020906002820154916040519361036c85612eeb565b60018552602435602086015260443560408601526064356060860152608435608086015260a43560a086015260c43560c086015260e43560e08601526101043561010086015261016435610120860152610184356101408601526101243561016086015261014435610180860152426101a0860152426101c0860152826101e0860152600061020086015260006102208601526000610240860152610260850152600435600052600260205260406000208054680100000000000000008110156106b25761043f91600182018155613035565b6106c85760136102609161046287511515829060ff801983541691151516179055565b6020870151600182015560408701516002820155606087015160038201556080870151600482015560a0870151600582015560c0870151600682015560e0870151600782015561010087015160088201556101208701516009820155610140870151600a820155610160870151600b820155610180870151600c8201556101a0870151600d8201556101c0870151600e8201556101e0870151600f820155610200870151601082015561022087015160118201556105366102408801511515601283019060ff801983541691151516179055565b019401519384516001600160401b0381116106b2576105558254613067565b95601f871161066a575b602096508690601f831160011461060057600594939291600091836105f5575b50508160011b916000199060031b1c19161790555b6105a1600282015461382e565b6002820155426004820155016105b88282546137a6565b905560405190828252838201527f0394bc4be749714e8af65a6117ae27affa1aedd69805edd2a533c74eb14963a8604060043592a2604051908152f35b01519050888061057f565b90601f1983169184600052886000209260005b81811061065357509160019391856005989796941061063a575b505050811b019055610594565b015160001960f88460031b161c1916905588808061062d565b92938a600181928786015181550195019301610613565b826000526020600020601f830160051c810197602084106106a8575b601f0160051c01965b87811061069c575061055f565b6000815560010161068f565b9097508790610686565b634e487b7160e01b600052604160045260246000fd5b634e487b7160e01b600052600060045260246000fd5b606460405162461bcd60e51b815260206004820152602060248201527f4f6e6c7920746f6b656e206f776e65722063616e20616464206d616368696e656044820152fd5b346102605760203660031901126102605761074b61073e612ff3565b6107466132d0565b613309565b005b346102605761075b3661301f565b8160005260206001815261077960ff60406000205460a01c1661383d565b826000526001815261079660ff600a604060002001541615613889565b82600052600281526107ae6040600020548310613a04565b82600052600281526107c4826040600020613035565b509160ff8354166108fe576012830180549360ff85166108c5576011810154421061089157600f60019101549460ff191617905583600052600182526006604060002001610813848254613a45565b90558360005260018252600260406000200192835492831561087b577fcda86d0ec3f513f43f5512de1982307d90747e4da0550585ca8744cbc7d8619f946040946000190190556108708260018060a01b03600354163390613a52565b8351928352820152a2005b634e487b7160e01b600052601160045260246000fd5b60405162461bcd60e51b815260048101859052600c60248201526b14dd1a5b1b081b1bd8dad95960a21b6044820152606490fd5b60405162461bcd60e51b8152600481018590526011602482015270105b1c9958591e481c1c9bd8d95cdcd959607a1b6044820152606490fd5b60405162461bcd60e51b81526004810183905260146024820152734d616368696e65207374696c6c2061637469766560601b6044820152606490fd5b3461026057604036600319011261026057610953612ff3565b61096461095e613009565b916133b6565b9060018060a01b0316600052602052602060ff604060002054166040519015158152f35b34610260576000366003190112610260576020600954604051908152f35b346102605760403660031901126102605760206004356109c4613009565b81600052600183526109e060ff60406000205460a01c1661383d565b6109e9826136da565b6000928352600184526040909220546001600160a01b039283169183169182149216148115610a1e575b506040519015158152f35b905082610a13565b3461026057602036600319011261026057600435610a43816136da565b506000527f0542a41881ee128a365a727b282c86fa859579490b9bb45aab8503648c8e7900602052610a9e610a7b60406000206130a1565b6000604051610a8981612f07565b52604051918291602083526020830190612fb3565b0390f35b34610260576000366003190112610260576020600754604051908152f35b3461026057608036600319011261026057610ad9612ff3565b610ae1613009565b606435916001600160401b038311610260573660238401121561026057610b1561074b933690602481600401359101612f5e565b91604435916135b0565b3461026057604036600319011261026057610b38612ff3565b6024359081151590818303610260576001600160a01b0316918215610baf57610b8190610b64336133b6565b8460005260205260406000209060ff801983541691151516179055565b6040519081527f17307eab39ab6107e8899845ad3d59bd9653f200f220920489ca2b5937696c3160203392a3005b604051630b61174360e31b815260048101849052602490fd5b34610260576000366003190112610260576020600554604051908152f35b3461026057610bf43661317c565b908260005260209160018352610c1460ff60406000205460a01c1661383d565b8360005260018352610c3160ff600a604060002001541615613889565b808211610d0c57836000526002908184526040600020548111610cc75782610c5891613a45565b92610c6284613b99565b9460005b858110610c7b5760405180610a9e8982613196565b610cc29082600052848452610ca7610ca16040600020610c9b848a6137a6565b90613035565b50613aaa565b610cb1828a613c81565b52610cbc8189613c81565b5061382e565b610c66565b60405162461bcd60e51b815260048101859052601760248201527f456e6420696e646578206f7574206f6620626f756e64730000000000000000006044820152606490fd5b60405162461bcd60e51b815260048101849052602360248201527f496e76616c69642072616e67653a207374617274206d757374206265203c3d20604482015262195b9960ea1b6064820152608490fd5b346102605760203660031901126102605760043560005260016020526020600760406000200154604051908152f35b346102605760003660031901126102605760405160007f80bb2b638cc20bc4d0a60d66940f3ab4a00c1d7b313497ca82fb0b4ab00793018054610dce81613067565b80855291600191808316908115610e685750600114610e0c575b610a9e85610df881870382612f22565b604051918291602083526020830190612fb3565b600090815292507ff4bad0a69248f59680a4f2b3000328cec71a413447c96781cfe5996daa8c456e5b828410610e50575050508101602001610df882610a9e610de8565b80546020858701810191909152909301928101610e35565b869550610a9e96935060209250610df894915060ff191682840152151560051b8201019293610de8565b3461026057600036600319011261026057600080516020613dcf833981519152546040516001600160a01b039091168152602090f35b3461026057602080600319360112610260576004356000526002815260406000208054610ef481613a93565b91610f026040519384612f22565b8183526000908152838120938084015b838310610f275760405180610a9e8782613196565b601482600192610f3689613aaa565b815201960192019194610f12565b3461026057610f523661301f565b81600052602060018152610f7060ff60406000205460a01c1661383d565b610f79836136da565b336001600160a01b0390911603611057577ff90af2eb19bb153aba9ed20eb295d13b68337404e2561b6076c1c76c55af1098916040918460005260018152610fc960028460002001548310613a04565b8460005260028152610fde8284600020613035565b5090856000526001815283600020600f83015492610ffe600054426137a6565b936006830161100e8282546137a6565b905561101f60058401918254613a45565b905560ff1980825416825542601083015584601183015560128201908154169055600e429101556004429101558351928352820152a2005b6084906040519062461bcd60e51b82526004820152602360248201527f4f6e6c7920746f6b656e206f776e65722063616e2072656d6f7665206d616368604482015262696e6560e81b6064820152fd5b34610260576020366003190112610260576004356110c36132d0565b80156111025760407f5dd7b309b7bc5010d9c96159ee535a428121d6803cb847792402fffccaf1569a91600054908060005582519182526020820152a1005b60405162461bcd60e51b815260206004820152601c60248201527f4c6f636b20706572696f64206d75737420626520706f736974697665000000006044820152606490fd5b3461026057604036600319011261026057600435611163613009565b9061116d816136da565b6001600160a01b03919033908316036111c95780600052600160205261119e60ff600a604060002001541615613889565b6000526001602052604060002091166001600160601b0360a01b825416178155600442910155600080f35b60405162461bcd60e51b815260206004820152602160248201527f4f6e6c7920746f6b656e206f776e65722063616e20736574206f70657261746f6044820152603960f91b6064820152608490fd5b34610260576000366003190112610260576003546040516001600160a01b039091168152602090f35b346102605760003660031901126102605761125a6132d0565b600080516020613dcf83398151915280546001600160a01b031981169091556000906001600160a01b03167f8be0079c531659141344cd1fd0a4f28419497f9722a3daafe3b4186f6b6457e08280a3005b34610260576000366003190112610260576020600454604051908152f35b34610260576020366003190112610260576112e2612ff3565b6001600160a01b03811615611305576112fc60209161337d565b54604051908152f35b6040516322718ad960e21b815260006004820152602490fd5b3461026057602036600319011261026057602061133c6004356136da565b6040516001600160a01b039091168152f35b34610260576101a036600319011261026057610184356001600160401b03811161026057611380903690600401612f95565b600435600052600160205261139f60ff60406000205460a01c1661383d565b60043560005260016020526113bf60ff600a604060002001541615613889565b6113ca6004356136da565b336001600160a01b03909116036116995760043560005260016020526113fb60026040600020015460243510613a04565b60043560005260026020526114166024356040600020613035565b506004356000526001602052604060002090611444610164356101443560e43560c4356084356044356137b3565b600f8201548082106116495761145a9082613a45565b936114738560018060a01b0360035416309033906138cb565b600584016114828682546137a6565b905560443560038401556064356004840155608435600584015560a435600684015560c435600784015560e435600884015561010435600b84015561012435600c8401558051906001600160401b0382116106b25781906114e66013860154613067565b601f81116115f6575b50602090601f831160011461158457600092611579575b50508160011b916000199060031b1c19161760138301555b42600e830155600f820155610144356009820155600a6101643591015560044291015560405190602435825260208201527fae3cd44fcb506ab91f575f2f4406dfe7e64a89d903efe251237bdd2b09dd0778604060043592a2005b015190508680611506565b9250601385016000526020600020906000935b601f19841685106115db576001945083601f198116106115c2575b505050811b01601383015561151e565b015160001960f88460031b161c191690558680806115b2565b81810151835560209485019460019093019290910190611597565b909150601385016000526020600020601f840160051c810160208510611642575b90849392915b601f830160051c820181106116335750506114ef565b6000815585945060010161161d565b5080611617565b60405162461bcd60e51b815260206004820152602260248201527f43616e6e6f7420646f776e6772616465206d616368696e65207265736f757263604482015261657360f01b6064820152608490fd5b60405162461bcd60e51b815260206004820152602360248201527f4f6e6c7920746f6b656e206f776e65722063616e20757064617465206d616368604482015262696e6560e81b6064820152608490fd5b3461026057602036600319011261026057600061018060405161170c81612ecf565b8281528260208201528260408201528260608201528260808201528260a08201528260c08201528260e0820152826101008201528261012082015260606101408201528261016082015201526004356000526001602052604060002060ff600a6040519261177984612ecf565b80546001600160a01b038116855260a090811c841615156020860152600182015460408601526002820154606086015260038201546080860152600482015490850152600581015460c0850152600681015460e0850152600781015461010085015260088101546101208501526117f2600982016130a1565b6101408501520154818116151561016084015260081c16151561018082015260405180916020825260018060a01b0381511660208301526020810151151560408301526040810151606083015260608101516080830152608081015160a083015260a081015160c083015260c081015160e083015260e08101516101008301526101008101516101208301526101208101516101408301526101408101516101806118ac6101a092836101608701526101c0860190612fb3565b9261016081015115158286015201511515908301520390f35b34610260576040366003190112610260576118de612ff3565b6024356001600160401b038111610260576118fd903690600401612f95565b600c549061190a8261382e565b600c553315611c6a57816000527f80bb2b638cc20bc4d0a60d66940f3ab4a00c1d7b313497ca82fb0b4ab0079302806020528260018060a01b03604060002054168015159283611c2b575b61195e3361337d565b60018154019055826000526020526040600020336001600160601b0360a01b82541617905533907fddf252ad1be2c89b69c2b068fc378daa952ba7f163c4a11628f55a4df523b3ef600080a4611c1257604051926119bb84612ecf565b60018060a01b031683526001602084015260006040840152600060608401524260808401524260a0840152600060c0840152600060e08401526000610100840152816101208401526101408301526000610160830152600161018083015280600052600160205260406000209160018060a01b0381511683549060ff60a01b6020840151151560a01b16916affffffffffffffffffffff60a81b161717835560408101516001840155606081015160028401556080810151600384015560a0810151600484015560c0810151600584015560e081015160068401556101008101516007840155610120810151600884015560098301926101408201519384516001600160401b0381116106b257611ad28254613067565b95601f8711611bca575b602096508690601f8311600114611b5d579180600a94926101809694600092611b52575b50508160011b916000199060031b1c19161790555b0191611b346101608201511515849060ff801983541691151516179055565b0151815461ff00191690151560081b61ff0016179055604051908152f35b015190508980611b00565b90601f1983169184600052886000209260005b818110611bb357509260019285926101809896600a989610611b9a575b505050811b019055611b15565b015160001960f88460031b161c19169055898080611b8d565b92938a600181928786015181550195019301611b70565b826000526020600020601f830160051c81019760208410611c08575b601f0160051c01965b878110611bfc5750611adc565b60008155600101611bef565b9097508790611be6565b6040516339e3563760e11b815260006004820152602490fd5b6000838152600080516020613def8339815191526020526040902080546001600160a01b0319169055611c5d8261337d565b8054600019019055611955565b604051633250574960e11b815260006004820152602490fd5b34610260576000366003190112610260576020600854604051908152f35b34610260576020366003190112610260576004356000526001602052602060ff604060002081611d638254926001810154600282015460038301546004840154600585015490600686015492600787015494600888015496600a611d0760098b016130a1565b9901549b6040519e8f9e8f9260018060a01b038116845260a01c16151591015260408d015260608c015260808b015260a08a015260c089015260e08801526101008701526101208601526101a080610140870152850190612fb3565b91818116151561016085015260081c1615156101808301520390f35b346102605761074b611d9036613147565b9060405192611d9e84612f07565b600084526135b0565b34610260576000366003190112610260576020600054604051908152f35b34610260576040366003190112610260576004356001600160401b0360243581811161026057611df9903690600401612f95565b826000526001602092818452611e1960ff60406000205460a01c1661383d565b611e22856136da565b336001600160a01b0390911603611f765784600052818452604060002093600985019380519283116106b257611e588554613067565b601f8111611f2d575b5081601f8411600114611ec75750928293918392600094611ebc575b50501b916000199060031b1c19161790555b6004429101557fd78fa84b17fc71eb590722ba7d04627e81f434575b079bd714d83f03911ca7e8600080a2005b015192508780611e7d565b919083601f1981168760005284600020946000905b88838310611f135750505010611efa575b505050811b019055611e8f565b015160001960f88460031b161c19169055858080611eed565b858701518855909601959485019487935090810190611edc565b8560005282600020601f850160051c810191848610611f6c575b601f0160051c019085905b828110611f60575050611e61565b60008155018590611f52565b9091508190611f47565b60405162461bcd60e51b815260048101859052602960248201527f4f6e6c7920746f6b656e206f776e65722063616e207570646174652070726f766044820152686964657220696e666f60b81b6064820152608490fd5b34610260576101203660031901126102605760206120056101043560e43560c43560a435608435606435604435602435600435613c95565b6040519015158152f35b3461026057602061201f3661301f565b906000526001825260406000209060ff825460a01c169182612085575b5081612072575b8161205357506040519015158152f35b60ff915061206990600284526040600020613035565b50541682610a13565b6002835260406000205481109150612043565b600a015460ff161591508361203c565b34610260576120a33661317c565b908260005260019060209282845260ff936120c78560406000205460a01c1661383d565b856000528381526120e285600a604060002001541615613889565b8560005260029182825260406000205484101561223a576000908582815b6121e7575b5050808210156121df5750955b61211b87613b99565b95600094859182885b612137575b60405180610a9e8c82613196565b84600052868652604060002080548210806121d6575b156121d05761215d828492613035565b505416612174575b61216e9061382e565b88612124565b96898385106121bb57816121b2916121a761216e946121a1610ca18e8e8e8e600052526040600020613035565b92613c81565b52610cbc818d613c81565b975b9050612165565b5096926121ca61216e9161382e565b936121b4565b50612129565b508b891061214d565b905095612112565b896000528585528860406000208054831015612233578261220791613035565b50541661221e575b6122189061382e565b81612100565b9261222b6122189161382e565b93905061220f565b5050612105565b60405162461bcd60e51b815260048101839052601960248201527f537461727420696e646578206f7574206f6620626f756e6473000000000000006044820152606490fd5b34610260576000366003190112610260576020600a54604051908152f35b346102605761074b6122ae36613147565b916133ef565b34610260576080366003190112610260576122cd612ff3565b6122d5613009565b906044356001600160401b038111610260576122f5903690600401612f95565b916064356001600160401b03811161026057612315903690600401612f95565b92600080516020613e0f83398151915254926001600160401b038416801590816127cb575b60011490816127c1575b1590816127b8575b506127a6576123909060016001600160401b0319861617600080516020613e0f8339815191525560ff8560401c1615612779575b612388613764565b610746613764565b612398613764565b6123a0613764565b80516001600160401b0381116106b257806123c9600080516020613daf83398151915254613067565b92601f938481116126f6575b506020908483116001146126685760009261265d575b50508160011b916000199060031b1c191617600080516020613daf833981519152555b83516001600160401b0381116106b2577f80bb2b638cc20bc4d0a60d66940f3ab4a00c1d7b313497ca82fb0b4ab00793019161244a8354613067565b8181116125fc575b50602090821160011461257757819060ff9660009261256c575b50508160011b916000199060031b1c19161790555b612489613764565b60018060a01b03166001600160601b0360a01b60035416176003556001600c55681b1ae4d6e2ef50000060045568056bc75e2d63100000600655683635c9adc5dea000006007556801158e460913d00000600855671bc16d674ec80000600955678ac7230489e80000600a55674563918244f40000600b55621baf8060005560401c161561251357005b68ff000000000000000019600080516020613e0f8339815191525416600080516020613e0f833981519152557fc7f505b2f371ae2175ee4913f4499e1f2633a7b5936321eed1cdaeb6115181d2602060405160018152a1005b01519050868061246c565b601f19821695836000527ff4bad0a69248f59680a4f2b3000328cec71a413447c96781cfe5996daa8c456e9660005b8181106125e457509160ff97918460019594106125cb575b505050811b019055612481565b015160001960f88460031b161c191690558680806125be565b838301518955600190980197602093840193016125a6565b836000527ff4bad0a69248f59680a4f2b3000328cec71a413447c96781cfe5996daa8c456e8280850160051c82019260208610612654575b0160051c01905b8181106126485750612452565b6000815560010161263b565b92508192612634565b0151905086806123eb565b600080516020613daf8339815191526000908152600080516020613e2f8339815191529350601f198516905b8181106126de57509084600195949392106126c5575b505050811b01600080516020613daf8339815191525561240e565b015160001960f88460031b161c191690558680806126aa565b92936020600181928786015181550195019301612694565b909150600080516020613daf8339815191526000528380840160051c600080516020613e2f833981519152019160208510612763575b90849392910160051c600080516020613e2f83398151915201905b81811061275457506123d5565b60008155849350600101612747565b600080516020613e2f833981519152925061272c565b68ffffffffffffffffff1985166801000000000000000117600080516020613e0f83398151915255612380565b60405163f92ee8a960e01b8152600490fd5b9050158661234c565b303b159150612344565b604086901c60ff1615915061233a565b34610260576040366003190112610260576127f4612ff3565b6024356127ff6132d0565b6005549182821161282b576128178261074b94613a45565b6005556003546001600160a01b0316613a52565b60405162461bcd60e51b815260206004820152601c60248201527f416d6f756e74206578636565647320736c61736865642066756e6473000000006044820152606490fd5b346102605761287e3661301f565b9060005260026020526040600020805482101561026057600d600c600b600a60096008600760066005600460ff61293c60136128be600f9f600e9f613035565b509e8f9e8f9e8f9e8f9e8f9e8f9e8f9e8f9e8f9e8f9e8f9e8f9e8f54169e600181015460805260028101546101205260038101546101605201549e01549e01549e01549e01549e01549e01549e01549e01549e01549e01549e01549e601081015460e052601181015460a05260ff60128201541661014052016130a1565b60c052604051908161010052151590526080516020610100510152610120516040610100510152610160516060610100510152608061010051015260a061010051015260c061010051015260e0610100510152610100805101526101206101005101526101406101005101526101606101005101526101806101005101526101a06101005101526101c06101005101526101e061010051015260e05161020061010051015260a05161022061010051015261014051151561024061010051015261028080610260610100510152612a1b6101005191820160c051612fb3565b0361010051f35b3461026057604036600319011261026057612a3b612ff3565b602435612a47816136da565b33151580612af6575b80612ad6575b612abe576001600160a01b039283169282918491167f8c5be1e5ebec7d5bd14f71427d1e84f3dd0314c0f7b2291e5b200ac8c7c3b925600080a46000908152600080516020613def8339815191526020526040902080546001600160a01b0319169091179055005b60405163a9fbf51f60e01b8152336004820152602490fd5b50612ae0816133b6565b3360005260205260ff6040600020541615612a56565b506001600160a01b038116331415612a50565b3461026057602036600319011261026057600435612b26816136da565b50600052600080516020613def833981519152602052602060018060a01b0360406000205416604051908152f35b34610260576000366003190112610260576040516000600080516020613daf8339815191528054612b8481613067565b80855291600191808316908115610e685750600114612bad57610a9e85610df881870382612f22565b60009081529250600080516020613e2f8339815191525b828410612bdf575050508101602001610df882610a9e610de8565b80546020858701810191909152909301928101612bc4565b34610260576080366003190112610260576004356044356024356064356001600160401b03811161026057612c30903690600401612f95565b612c386132d0565b8360005260209260018452612c5760ff60406000205460a01c1661383d565b8460005260018452612c726002604060002001548410613a04565b8460005260028452600f612c8a846040600020613035565b5001805490828210612d3a5791600a7fc6fde9f3f4d68e725ce8eb50a65dbedf1a312d0578e7bd93ab6ac14066f8fbd596959492612d35948960005260018852612cd984604060002093613a45565b905560058101612cea848254613a45565b905560078101612cfb8482546137a6565b905501600161ffff19825416179055612d16816005546137a6565b6005556040519485948552840152606060408401526060830190612fb3565b0390a2005b60405162461bcd60e51b815260048101879052601d60248201527f43616e6e6f7420736c617368206d6f7265207468616e207374616b65640000006044820152606490fd5b346102605760e0366003190112610260577f3a9006f72d836e00b5cb8cb5e53557a819f629eb3d93bd037f16590b15be9aad60e060043560c43560a435608435606435604435602435612dd06132d0565b866004558060065581600755826008558360095584600a5585600b55604051968752602087015260408601526060850152608084015260a083015260c0820152a1005b346102605760203660031901126102605760043563ffffffff60e01b811680910361026057602090632483248360e11b8114908115612e5757506040519015158152f35b6380ac58cd60e01b811491508115612e89575b8115612e78575b5082610a13565b6301ffc9a760e01b14905082612e71565b635b5e139f60e01b81149150612e6a565b346102605760c0366003190112610260576020612ec760a4356084356064356044356024356004356137b3565b604051908152f35b6101a081019081106001600160401b038211176106b257604052565b61028081019081106001600160401b038211176106b257604052565b602081019081106001600160401b038211176106b257604052565b90601f801991011681019081106001600160401b038211176106b257604052565b6001600160401b0381116106b257601f01601f191660200190565b929192612f6a82612f43565b91612f786040519384612f22565b829481845281830111610260578281602093846000960137010152565b9080601f8301121561026057816020612fb093359101612f5e565b90565b919082519283825260005b848110612fdf575050826000602080949584010152601f8019910116010190565b602081830181015184830182015201612fbe565b600435906001600160a01b038216820361026057565b602435906001600160a01b038216820361026057565b6040906003190112610260576004359060243590565b8054821015613051576000526014602060002091020190600090565b634e487b7160e01b600052603260045260246000fd5b90600182811c92168015613097575b602083101461308157565b634e487b7160e01b600052602260045260246000fd5b91607f1691613076565b90604051918260008254926130b584613067565b90818452600194858116908160001461312457506001146130e1575b50506130df92500383612f22565b565b9093915060005260209081600020936000915b81831061310c5750506130df935082010138806130d1565b855488840185015294850194879450918301916130f4565b9150506130df94506020925060ff191682840152151560051b82010138806130d1565b6060906003190112610260576001600160a01b0390600435828116810361026057916024359081168103610260579060443590565b606090600319011261026057600435906024359060443590565b602080820190808352835180925260409283810182858560051b8401019601946000925b8584106131cb575050505050505090565b9091929394959685806132bf600193603f198682030188528b5180511515825283810151848301528781015188830152606080820151908301526080808201519083015260a0808201519083015260c0808201519083015260e08082015190830152610100808201519083015261012080820151908301526101408082015190830152610160808201519083015261018080820151908301526101a080820151908301526101c080820151908301526101e080820151908301526102008082015190830152610220808201519083015261024080820151151590830152610260809101519161028080928201520190612fb3565b9901940194019295949391906131ba565b600080516020613dcf833981519152546001600160a01b031633036132f157565b60405163118cdaa760e01b8152336004820152602490fd5b6001600160a01b0390811690811561336457600080516020613dcf83398151915280546001600160a01b031981168417909155167f8be0079c531659141344cd1fd0a4f28419497f9722a3daafe3b4186f6b6457e0600080a3565b604051631e4fbdf760e01b815260006004820152602490fd5b6001600160a01b031660009081527f80bb2b638cc20bc4d0a60d66940f3ab4a00c1d7b313497ca82fb0b4ab00793036020526040902090565b6001600160a01b031660009081527f80bb2b638cc20bc4d0a60d66940f3ab4a00c1d7b313497ca82fb0b4ab00793056020526040902090565b6001600160a01b0382811693918415611c6a57826000958187527f80bb2b638cc20bc4d0a60d66940f3ab4a00c1d7b313497ca82fb0b4ab0079302958660205260409785898220541697889233151580613507575b50906134767fddf252ad1be2c89b69c2b068fc378daa952ba7f163c4a11628f55a4df523b3ef9392856134c85761337d565b8054600101905585825260205289812080546001600160a01b0319168517905580a416928383036134a75750505050565b6064945051926364283d7b60e01b8452600484015260248301526044820152fd5b6000888152600080516020613def8339815191526020526040902080546001600160a01b03191690556134fa8661337d565b805460001901905561337d565b9193509193945080613561575b156135255791879187949338613444565b888789613542576024915190637e27328960e01b82526004820152fd5b905163177e802f60e01b81523360048201526024810191909152604490fd5b503388148015613594575b806135145750868352600080516020613def83398151915260205233868a8520541614613514565b5061359e886133b6565b33845260205260ff898420541661356c565b91906135bd8282856133ef565b803b6135ca575b50505050565b61360c60018060a01b0380921694604051938493630a85bd0160e11b968786523360048701521660248501526044840152608060648401526084830190612fb3565b03906020816000938185885af19082908261368b575b505061365a5782613631613734565b805191908261365357604051633250574960e11b815260048101839052602490fd5b9050602001fd5b6001600160e01b031916036136735750388080806135c4565b60249060405190633250574960e11b82526004820152fd5b909192506020813d82116136d2575b816136a760209383612f22565b810103126136ce5751906001600160e01b0319821682036136cb5750903880613622565b80fd5b5080fd5b3d915061369a565b60008181527f80bb2b638cc20bc4d0a60d66940f3ab4a00c1d7b313497ca82fb0b4ab007930260205260409020546001600160a01b031690811561371c575090565b60249060405190637e27328960e01b82526004820152fd5b3d1561375f573d9061374582612f43565b916137536040519384612f22565b82523d6000602084013e565b606090565b60ff600080516020613e0f8339815191525460401c161561378157565b604051631afcd79f60e31b8152600490fd5b8181029291811591840414171561087b57565b9190820180921161087b57565b61382694613821612fb097936138216138219661381761380d6138036137f96137ef6137e56138219b60065490613793565b9760075490613793565b9460085490613793565b9b60095490613793565b96600a5490613793565b97600b5490613793565b98600a1c926137a6565b6137a6565b6004546137a6565b600019811461087b5760010190565b1561384457565b60405162461bcd60e51b815260206004820152601760248201527f50726f7669646572206e6f7420726567697374657265640000000000000000006044820152606490fd5b1561389057565b60405162461bcd60e51b8152602060048201526013602482015272141c9bdd9a59195c881a5cc81cdb185cda1959606a1b6044820152606490fd5b6040516323b872dd60e01b60208201526001600160a01b03928316602482015292909116604483015260648083019390935291815260a08101918183106001600160401b038411176106b2576130df926040525b60018060a01b031690613949600080836020829551910182875af1613942613734565b90846139a1565b908151918215159283613979575b5050506139615750565b60249060405190635274afe760e01b82526004820152fd5b8192935090602091810103126136ce5760200151908115918215036136cb5750388080613957565b906139c857508051156139b657805190602001fd5b604051630a12f52160e11b8152600490fd5b815115806139fb575b6139d9575090565b604051639996b31560e01b81526001600160a01b039091166004820152602490fd5b50803b156139d1565b15613a0b57565b60405162461bcd60e51b8152602060048201526012602482015271125b9d985b1a59081b5858da1a5b9948125160721b6044820152606490fd5b9190820391821161087b57565b60405163a9059cbb60e01b60208201526001600160a01b039290921660248301526044808301939093529181526130df91613a8e606483612f22565b61391f565b6001600160401b0381116106b25760051b60200190565b90604051613ab781612eeb565b610260613b946013839560ff8154161515855260018101546020860152600281015460408601526003810154606086015260048101546080860152600581015460a0860152600681015460c0860152600781015460e086015260088101546101008601526009810154610120860152600a810154610140860152600b810154610160860152600c810154610180860152600d8101546101a0860152600e8101546101c0860152600f8101546101e08601526010810154610200860152601181015461022086015260ff6012820154161515610240860152016130a1565b910152565b90613ba382613a93565b604090613bb282519182612f22565b8381528093613bc3601f1991613a93565b019160005b838110613bd55750505050565b6020908251613be381612eeb565b6000815282600081830152600085830152606060008184015260006080840152600060a0840152600060c0840152600060e08401526000610100840152600061012084015260006101408401526000610160840152600061018084015260006101a084015260006101c084015260006101e0840152600061020084015260006102208401526000610240840152610260830152828601015201613bc8565b80518210156130515760209160051b010190565b96939592979491906000526001602052604060002060ff815460a01c1615908115613d9f575b508015613d8b575b613d7e57610ca1613cdd9160026020526040600020613035565b94855115159788613d6f575b5087613d60575b5086613d50575b5085613d41575b5084613d31575b5083613d21575b5082613d1757505090565b6020015114919050565b6101408201511015925038613d0c565b6101208301511015935038613d05565b60a08401511015945038613cfe565b6101008501511015955038613cf7565b60e08601511015965038613cf0565b60608701511015975038613ce9565b5050505050505050600090565b506002602052604060002054811015613cc3565b60ff9150600a01541638613cbb56fe80bb2b638cc20bc4d0a60d66940f3ab4a00c1d7b313497ca82fb0b4ab00793009016d09d72d40fdae2fd8ceac6b6234c7706214fd39c1cd1e609a0528c19930080bb2b638cc20bc4d0a60d66940f3ab4a00c1d7b313497ca82fb0b4ab0079304f0c57e16840df040f15088dc2f81fe391c3923bec73e23a9662efc9c229c6a0037c58c799b6609234b945e882912ee9ad34948a1dfaa20a97485e1a7752bbf81a2646970667358221220ec60ca81dc2559577f1239575a7d4ccfb1d022b44efbcb27a443eeee177f1a1f64736f6c63430008140033",
  "linkReferences": {},
  "deployedLinkReferences": {}
}