{
  "_format": "hh-sol-artifact-1",
  "contractName": "SubnetStakingPoolFactory",
  "sourceName": "contracts/SubnetStakingPoolFactory.sol",
  "abi": [
    {
      "inputs": [
        {
          "internalType": "address",
          "name": "initialOwner",
          "type": "address"
        }
      ],
      "stateMutability": "nonpayable",
      "type": "constructor"
    },
    {
      "inputs": [
        {
          "internalType": "address",
          "name": "owner",
          "type": "address"
        }
      ],
      "name": "OwnableInvalidOwner",
      "type": "error"
    },
    {
      "inputs": [
        {
          "internalType": "address",
          "name": "account",
          "type": "address"
        }
      ],
      "name": "OwnableUnauthorizedAccount",
      "type": "error"
    },
    {
      "anonymous": false,
      "inputs": [
        {
          "indexed": true,
          "internalType": "address",
          "name": "previousOwner",
          "type": "address"
        },
        {
          "indexed": true,
          "internalType": "address",
          "name": "newOwner",
          "type": "address"
        }
      ],
      "name": "OwnershipTransferred",
      "type": "event"
    },
    {
      "anonymous": false,
      "inputs": [
        {
          "indexed": true,
          "internalType": "address",
          "name": "stakingToken",
          "type": "address"
        },
        {
          "indexed": true,
          "internalType": "address",
          "name": "rewardToken",
          "type": "address"
        },
        {
          "indexed": false,
          "internalType": "address",
          "name": "poolAddress",
          "type": "address"
        }
      ],
      "name": "PoolCreated",
      "type": "event"
    },
    {
      "inputs": [
        {
          "internalType": "uint256",
          "name": "",
          "type": "uint256"
        }
      ],
      "name": "allPools",
      "outputs": [
        {
          "internalType": "address",
          "name": "",
          "type": "address"
        }
      ],
      "stateMutability": "view",
      "type": "function"
    },
    {
      "inputs": [
        {
          "internalType": "contract IERC20",
          "name": "stakingToken",
          "type": "address"
        },
        {
          "internalType": "contract IERC20",
          "name": "rewardToken",
          "type": "address"
        },
        {
          "internalType": "uint256",
          "name": "rewardRatePerSecond",
          "type": "uint256"
        },
        {
          "internalType": "uint256",
          "name": "startTime",
          "type": "uint256"
        },
        {
          "internalType": "uint256",
          "name": "endTime",
          "type": "uint256"
        }
      ],
      "name": "createPool",
      "outputs": [
        {
          "internalType": "address",
          "name": "",
          "type": "address"
        }
      ],
      "stateMutability": "nonpayable",
      "type": "function"
    },
    {
      "inputs": [
        {
          "internalType": "uint256",
          "name": "index",
          "type": "uint256"
        }
      ],
      "name": "getPool",
      "outputs": [
        {
          "internalType": "address",
          "name": "",
          "type": "address"
        }
      ],
      "stateMutability": "view",
      "type": "function"
    },
    {
      "inputs": [],
      "name": "getPoolCount",
      "outputs": [
        {
          "internalType": "uint256",
          "name": "",
          "type": "uint256"
        }
      ],
      "stateMutability": "view",
      "type": "function"
    },
    {
      "inputs": [],
      "name": "owner",
      "outputs": [
        {
          "internalType": "address",
          "name": "",
          "type": "address"
        }
      ],
      "stateMutability": "view",
      "type": "function"
    },
    {
      "inputs": [],
      "name": "renounceOwnership",
      "outputs": [],
      "stateMutability": "nonpayable",
      "type": "function"
    },
    {
      "inputs": [
        {
          "internalType": "address",
          "name": "newOwner",
          "type": "address"
        }
      ],
      "name": "transferOwnership",
      "outputs": [],
      "stateMutability": "nonpayable",
      "type": "function"
    }
  ],
  "bytecode": "0x6080346100bb57601f611abc38819003918201601f19168301916001600160401b038311848410176100c0578084926020946040528339810103126100bb57516001600160a01b0390818116908190036100bb5780156100a257600080546001600160a01b03198116831782556040519316907f8be0079c531659141344cd1fd0a4f28419497f9722a3daafe3b4186f6b6457e09080a36119e590816100d78239f35b604051631e4fbdf760e01b815260006004820152602490fd5b600080fd5b634e487b7160e01b600052604160045260246000fdfe6080604052600436101561001257600080fd5b6000803560e01c908163068bcd8d1461008a5750806341d1de9714610085578063715018a61461008057806385ac165a1461007b5780638da5cb5b146100765780638eec5d70146100715763f2fde38b1461006c57600080fd5b6103fa565b6103dc565b6103b3565b6101e3565b610177565b610117565b3461011457602036600319011261011457600435906001548210156100e657600190527fb10e2d527612073b26eecdfd717e6a320cf44b4afac2b0732d9fcbe2b7fa0cf601546001600160a01b0316608052607f1960a0016080f35b62461bcd60e51b6080526020608452600d60a4526c092dcecc2d8d2c840d2dcc8caf609b1b60c45260646080fd5b80fd5b34610172576020366003190112610172576004356001548110156101725760016000527fb10e2d527612073b26eecdfd717e6a320cf44b4afac2b0732d9fcbe2b7fa0cf601546040516001600160a01b039091168152602090f35b600080fd5b346101725760008060031936011261011457610191610486565b80546001600160a01b03198116825581906001600160a01b03167f8be0079c531659141344cd1fd0a4f28419497f9722a3daafe3b4186f6b6457e08280a380f35b6001600160a01b0381160361017257565b346101725760a036600319011261017257600435610200816101d2565b60243561020c816101d2565b6044356064359061033b6103478260843595610226610486565b6001600160a01b038881169861032191610315906102458c15156104b2565b6102508a8c116104fe565b8416998b8b6102a0838d6040519a8b9460208601968793919060889593916bffffffffffffffffffffffff19809260601b16865260601b1660148501526028840152604883015260688201520190565b03966102b4601f199889810183528261056a565b51902099611364996102c860208c01610591565b9a808c5261064c60208d01396040519687953360208801929160a094919796959260c0850198600180881b0392838092168752166020860152166040840152606083015260808201520152565b0383810183528261056a565b6040519384916103356020840180986105a1565b906105a1565b0390810183528261056a565b51906000f5908115610172576103af92610360836105cc565b6040516001600160a01b03841681527f9c5d829b9b23efc461f9aeef91979ec04bb903feb3bee4f26d22114abfc7335b90602090a36040516001600160a01b0390911681529081906020820190565b0390f35b34610172576000366003190112610172576000546040516001600160a01b039091168152602090f35b34610172576000366003190112610172576020600154604051908152f35b3461017257602036600319011261017257600435610417816101d2565b61041f610486565b6001600160a01b03908116801561046d57600080546001600160a01b03198116831782559092167f8be0079c531659141344cd1fd0a4f28419497f9722a3daafe3b4186f6b6457e08380a380f35b604051631e4fbdf760e01b815260006004820152602490fd5b6000546001600160a01b0316330361049a57565b60405163118cdaa760e01b8152336004820152602490fd5b156104b957565b60405162461bcd60e51b815260206004820152601d60248201527f496e76616c6964207374616b696e6720746f6b656e20616464726573730000006044820152606490fd5b1561050557565b60405162461bcd60e51b815260206004820152602160248201527f456e642074696d65206d7573742062652061667465722073746172742074696d6044820152606560f81b6064820152608490fd5b634e487b7160e01b600052604160045260246000fd5b90601f8019910116810190811067ffffffffffffffff82111761058c57604052565b610554565b9061059f604051928361056a565b565b9081519160005b8381106105b9575050016000815290565b80602080928401015181850152016105a8565b6001546801000000000000000081101561058c5760018101806001558110156106355760016000527fb10e2d527612073b26eecdfd717e6a320cf44b4afac2b0732d9fcbe2b7fa0cf60180546001600160a01b0319166001600160a01b03909216919091179055565b634e487b7160e01b600052603260045260246000fdfe60c060409080825234620002905760c08162001364803803809162000025828562000295565b833981010312620002905780516001600160a01b038082169291839003620002905760209162000057838201620002cf565b9062000065868201620002cf565b91606082015160a060808401519301519187156200027857600080546001600160a01b031981168a1782558a5191999088167f8be0079c531659141344cd1fd0a4f28419497f9722a3daafe3b4186f6b6457e08b80a3838510156200022b57506080528360a0526001558160065560075560035516818115600014620001ad5750506012905b601e8210156200016a5750601e0390601e82116200015657604d8211620001565750600a0a6005555161107f9081620002e58239608051818181610587015281816107df01528181610ab60152610d12015260a051818181610138015281816102a201526105af0152f35b634e487b7160e01b81526011600452602490fd5b60649084519062461bcd60e51b82526004820152601660248201527f4d75737420626520696e666572696f7220746f203330000000000000000000006044820152fd5b845163313ce56760e01b815291829060049082905afa801562000221578390620001de575b60ff91501690620000eb565b508181813d831162000219575b620001f7818362000295565b8101031262000215575160ff81168103620002155760ff90620001d2565b8280fd5b503d620001eb565b84513d85823e3d90fd5b62461bcd60e51b815260048101889052602260248201527f53746172742074696d65206d757374206265206265666f726520656e642074696044820152616d6560f01b6064820152608490fd5b8851631e4fbdf760e01b815260006004820152602490fd5b600080fd5b601f909101601f19168101906001600160401b03821190821017620002b957604052565b634e487b7160e01b600052604160045260246000fd5b51906001600160a01b0382168203620002905756fe60406080815260049081361015610020575b5050361561001e57600080fd5b005b600091823560e01c9081628cc26214610e465781630660f1e814610e0e5781632e1a7d4d14610c715781633197cbb614610c525781635d773b2c14610c335781636ab3846b14610b42578163715018a614610ae557816372f702f314610aa157816378e9792514610a82578163817b1cd214610a635781638b87634714610a2b5781638da5cb5b14610a035781639231cf74146109e45781639ef3a26114610932578163a694fc3a1461074c578163acc3a93914610714578163b51609b414610545578163b88a802f14610257578163ccd34cd514610238578163cd3daf9d14610214578163df136d65146101f6578163f2fde38b1461016b575063f7c618c1036100115734610167578160031936011261016757517f00000000000000000000000000000000000000000000000000000000000000006001600160a01b03168152602090f35b5080fd5b9050346101f25760203660031901126101f257610186610e6c565b9061018f610e87565b6001600160a01b039182169283156101dc57505082546001600160a01b0319811683178455167f8be0079c531659141344cd1fd0a4f28419497f9722a3daafe3b4186f6b6457e08380a380f35b51631e4fbdf760e01b8152908101849052602490fd5b8280fd5b9050346101f257826003193601126101f25760209250549051908152f35b505034610167578160031936011261016757602090610231610f16565b9051908152f35b5050346101675781600319360112610167576020906005549051908152f35b919050346101f257826003193601126101f257610272610f16565b82554260035533610520575b338352602090600a8252808420549283156104e957338552600a83528185208590557f00000000000000000000000000000000000000000000000000000000000000006001600160a01b03168061039057508480808087335af13d1561038b573d67ffffffffffffffff811161037857835190610304601f8201601f1916870183610ff9565b815286853d92013e5b156103415750907f106f923f993c2149d49b4255ff723acafa1f2d94393f561d3eda32ae348f7241915b519283523392a280f35b82606492519162461bcd60e51b83528201526013602482015272115512081d1c985b9cd9995c8819985a5b1959606a1b6044820152fd5b634e487b7160e01b875260418352602487fd5b61030d565b9082516370a0823160e01b815230828201528481602481865afa9081156104df5790869188916104aa575b501061045d57825163a9059cbb60e01b8152339181019182526020820186905294939291839186919082908990829060400103925af1938415610453577f106f923f993c2149d49b4255ff723acafa1f2d94393f561d3eda32ae348f72419394610426575b50610337565b61044590833d851161044c575b61043d8183610ff9565b810190611031565b5038610420565b503d610433565b81513d87823e3d90fd5b825162461bcd60e51b8152908101849052602160248201527f496e73756666696369656e742072657761726420746f6b656e2062616c616e636044820152606560f81b6064820152608490fd5b809250868092503d83116104d8575b6104c38183610ff9565b810103126104d457859051386103bb565b8680fd5b503d6104b9565b84513d89823e3d90fd5b82606492519162461bcd60e51b835282015260136024820152724e6f207265776172647320746f20636c61696d60681b6044820152fd5b61052933610f9b565b338452600a60205281842055815460096020528184205561027e565b9050346101f25760603660031901126101f257610560610e6c565b6001600160a01b039060443590828216908183036104d4578390610582610e87565b1692807f00000000000000000000000000000000000000000000000000000000000000001684146106d1577f000000000000000000000000000000000000000000000000000000000000000016831461068e571561064b57835163a9059cbb60e01b81526001600160a01b039091169281019283526024356020848101919091529093929091849182908790829060400103925af19081156106425750610627575080f35b61063e9060203d811161044c5761043d8183610ff9565b5080f35b513d84823e3d90fd5b835162461bcd60e51b8152602081850152601960248201527f496e76616c696420726563697069656e742061646472657373000000000000006044820152606490fd5b845162461bcd60e51b8152602081860152601c60248201527f43616e6e6f742077697468647261772072657761726420746f6b656e000000006044820152606490fd5b855162461bcd60e51b8152602081870152601d60248201527f43616e6e6f74207769746864726177207374616b696e6720746f6b656e0000006044820152606490fd5b5050346101675760203660031901126101675760209181906001600160a01b0361073c610e6c565b1681526008845220549051908152f35b919050346101f25760208060031936011261092e5782359160065442106108ed5760075442116108b55761077e610f16565b84554260035533610892575b82156108605761079c83600254610f09565b600255338552600882528085206107b4848254610f09565b905580516323b872dd60e01b81523394810194909452306024850152604484018390528184606481887f00000000000000000000000000000000000000000000000000000000000000006001600160a01b03165af1938415610453577f9e71bc8eea02a63969f509818f2dafb9254532904319f9dbda79b67bd34a5f3d9394610843575b50519283523392a280f35b61085990833d851161044c5761043d8183610ff9565b5038610838565b5162461bcd60e51b81529283015250600e60248201526d043616e6e6f74207374616b6520360941b6044820152606490fd5b61089b33610f9b565b338652600a8352818620558354600983528186205561078a565b5162461bcd60e51b81529283015250601460248201527314dd185ada5b99c81c195c9a5bd908195b99195960621b6044820152606490fd5b5162461bcd60e51b81529283015250601760248201527f5374616b696e67206e6f742073746172746564207965740000000000000000006044820152606490fd5b8380fd5b919050346101f25760203660031901126101f257813591610951610e87565b610959610f16565b81554260035582156109975750816020917f41d466ebd06fb97e7786086ac8b69b7eb7da798592036251291d34e9791cde019360015551908152a180f35b6020608492519162461bcd60e51b8352820152602260248201527f5265776172642072617465206d7573742062652067726561746572207468616e604482015261020360f41b6064820152fd5b5050346101675781600319360112610167576020906003549051908152f35b505034610167578160031936011261016757905490516001600160a01b039091168152602090f35b5050346101675760203660031901126101675760209181906001600160a01b03610a53610e6c565b1681526009845220549051908152f35b5050346101675781600319360112610167576020906002549051908152f35b5050346101675781600319360112610167576020906006549051908152f35b505034610167578160031936011261016757517f00000000000000000000000000000000000000000000000000000000000000006001600160a01b03168152602090f35b8334610b3f5780600319360112610b3f57610afe610e87565b80546001600160a01b03198116825581906001600160a01b03167f8be0079c531659141344cd1fd0a4f28419497f9722a3daafe3b4186f6b6457e08280a380f35b80fd5b919050346101f25760203660031901126101f257813591610b61610e87565b42831115610bf157600654831115610ba55750816020917f37d37b8940cc1ec723111799f54132501e05042cd219649e575e84e5c36f3b5e9360075551908152a180f35b6020608492519162461bcd60e51b8352820152602160248201527f456e642074696d65206d7573742062652061667465722073746172742074696d6044820152606560f81b6064820152fd5b6020606492519162461bcd60e51b8352820152601e60248201527f456e642074696d65206d75737420626520696e207468652066757475726500006044820152fd5b5050346101675781600319360112610167576020906001549051908152f35b5050346101675781600319360112610167576020906007549051908152f35b919050346101f2576020908160031936011261092e57823592610c92610f16565b81554260035533610deb575b8315610db65733855260088352838286205410610d7557908284809493610cca610d0d97600254610eb3565b60025533885260088352838820610ce2838254610eb3565b9055835163a9059cbb60e01b8152339181019182526020820192909252909586918291604090910190565b0381887f00000000000000000000000000000000000000000000000000000000000000006001600160a01b03165af1938415610453577f7084f5476618d8e60b11ef0d7d3f06914655adb8793e28ff7f018d4c76d505d593946108435750519283523392a280f35b82606492519162461bcd60e51b8352820152601e60248201527f576974686472617720616d6f756e742065786365656473207374616b656400006044820152fd5b82606492519162461bcd60e51b83528201526011602482015270043616e6e6f74207769746864726177203607c1b6044820152fd5b610df433610f9b565b338652600a84528286205580546009845282862055610c9e565b5050346101675760203660031901126101675760209181906001600160a01b03610e36610e6c565b168152600a845220549051908152f35b50503461016757602036600319011261016757602090610231610e67610e6c565b610f9b565b600435906001600160a01b0382168203610e8257565b600080fd5b6000546001600160a01b03163303610e9b57565b60405163118cdaa760e01b8152336004820152602490fd5b91908203918211610ec057565b634e487b7160e01b600052601160045260246000fd5b81810292918115918404141715610ec057565b8115610ef3570490565b634e487b7160e01b600052601260045260246000fd5b91908201809211610ec057565b60025480158015610f90575b610f8957600754804211600014610f82575b60035480821115610f7957610f7692610f6b610f62610f59610f709460045496610eb3565b60015490610ed6565b60055490610ed6565b610ee9565b90610f09565b90565b50505060045490565b5042610f34565b5060045490565b506006544210610f22565b610f769060018060a01b0316604060008281526008602052610fe9610fe083832054610fda610fc8610f16565b87865260096020528686205490610eb3565b90610ed6565b60055490610ee9565b928152600a602052205490610f09565b90601f8019910116810190811067ffffffffffffffff82111761101b57604052565b634e487b7160e01b600052604160045260246000fd5b90816020910312610e8257518015158103610e82579056fea26469706673582212209d6001e61e88a36cddb4175f27d23a7ed4fdf3ce6613d014aa622d1213a5400164736f6c63430008140033a2646970667358221220bdacfa30a05aef9a670a07144128d467a9e06c00ce7ee4fba2830a55d6b7f82064736f6c63430008140033",
  "linkReferences": {},
  "deployedLinkReferences": {}
}