{
  "_format": "hh-sol-artifact-1",
  "contractName": "SubnetDeployment",
  "sourceName": "contracts/SubnetDeployment.sol",
  "abi": [
    {
      "inputs": [],
      "name": "InvalidInitialization",
      "type": "error"
    },
    {
      "inputs": [],
      "name": "NotInitializing",
      "type": "error"
    },
    {
      "anonymous": false,
      "inputs": [
        {
          "indexed": false,
          "internalType": "uint64",
          "name": "version",
          "type": "uint64"
        }
      ],
      "name": "Initialized",
      "type": "event"
    },
    {
      "anonymous": false,
      "inputs": [
        {
          "indexed": true,
          "internalType": "uint256",
          "name": "appId",
          "type": "uint256"
        },
        {
          "indexed": true,
          "internalType": "uint256",
          "name": "nodeIp",
          "type": "uint256"
        },
        {
          "indexed": true,
          "internalType": "address",
          "name": "owner",
          "type": "address"
        }
      ],
      "name": "SubnetDeployed",
      "type": "event"
    },
    {
      "anonymous": false,
      "inputs": [
        {
          "indexed": true,
          "internalType": "uint256",
          "name": "appId",
          "type": "uint256"
        },
        {
          "indexed": true,
          "internalType": "uint256",
          "name": "nodeIp",
          "type": "uint256"
        },
        {
          "indexed": true,
          "internalType": "address",
          "name": "owner",
          "type": "address"
        }
      ],
      "name": "SubnetDeploymentDeleted",
      "type": "event"
    },
    {
      "anonymous": false,
      "inputs": [
        {
          "indexed": true,
          "internalType": "uint256",
          "name": "appId",
          "type": "uint256"
        },
        {
          "indexed": true,
          "internalType": "uint256",
          "name": "nodeIp",
          "type": "uint256"
        },
        {
          "indexed": false,
          "internalType": "string",
          "name": "dockerConfig",
          "type": "string"
        }
      ],
      "name": "SubnetDeploymentUpdated",
      "type": "event"
    },
    {
      "inputs": [],
      "name": "appStore",
      "outputs": [
        {
          "internalType": "contract SubnetAppStore",
          "name": "",
          "type": "address"
        }
      ],
      "stateMutability": "view",
      "type": "function"
    },
    {
      "inputs": [
        {
          "internalType": "uint256",
          "name": "appId",
          "type": "uint256"
        },
        {
          "internalType": "uint256[]",
          "name": "nodeIps",
          "type": "uint256[]"
        }
      ],
      "name": "batchDeleteDeployments",
      "outputs": [],
      "stateMutability": "nonpayable",
      "type": "function"
    },
    {
      "inputs": [
        {
          "internalType": "uint256",
          "name": "appId",
          "type": "uint256"
        },
        {
          "internalType": "uint256",
          "name": "nodeIp",
          "type": "uint256"
        }
      ],
      "name": "deleteDeployment",
      "outputs": [],
      "stateMutability": "nonpayable",
      "type": "function"
    },
    {
      "inputs": [
        {
          "internalType": "uint256",
          "name": "appId",
          "type": "uint256"
        },
        {
          "internalType": "uint256",
          "name": "nodeIp",
          "type": "uint256"
        },
        {
          "internalType": "string",
          "name": "dockerConfig",
          "type": "string"
        }
      ],
      "name": "deploySubnet",
      "outputs": [
        {
          "components": [
            {
              "internalType": "string",
              "name": "dockerConfig",
              "type": "string"
            },
            {
              "internalType": "address",
              "name": "owner",
              "type": "address"
            },
            {
              "internalType": "uint256",
              "name": "createdAt",
              "type": "uint256"
            },
            {
              "internalType": "uint256",
              "name": "updatedAt",
              "type": "uint256"
            }
          ],
          "internalType": "struct SubnetDeployment.Deployment",
          "name": "",
          "type": "tuple"
        }
      ],
      "stateMutability": "nonpayable",
      "type": "function"
    },
    {
      "inputs": [
        {
          "internalType": "uint256",
          "name": "appId",
          "type": "uint256"
        },
        {
          "internalType": "uint256",
          "name": "nodeIp",
          "type": "uint256"
        }
      ],
      "name": "deploymentExists",
      "outputs": [
        {
          "internalType": "bool",
          "name": "",
          "type": "bool"
        }
      ],
      "stateMutability": "view",
      "type": "function"
    },
    {
      "inputs": [
        {
          "internalType": "uint256",
          "name": "appId",
          "type": "uint256"
        },
        {
          "internalType": "uint256",
          "name": "nodeIp",
          "type": "uint256"
        }
      ],
      "name": "getDeployment",
      "outputs": [
        {
          "components": [
            {
              "internalType": "string",
              "name": "dockerConfig",
              "type": "string"
            },
            {
              "internalType": "address",
              "name": "owner",
              "type": "address"
            },
            {
              "internalType": "uint256",
              "name": "createdAt",
              "type": "uint256"
            },
            {
              "internalType": "uint256",
              "name": "updatedAt",
              "type": "uint256"
            }
          ],
          "internalType": "struct SubnetDeployment.Deployment",
          "name": "",
          "type": "tuple"
        }
      ],
      "stateMutability": "view",
      "type": "function"
    },
    {
      "inputs": [
        {
          "internalType": "uint256",
          "name": "appId",
          "type": "uint256"
        },
        {
          "internalType": "uint256",
          "name": "nodeIp",
          "type": "uint256"
        }
      ],
      "name": "getDeploymentDuration",
      "outputs": [
        {
          "internalType": "uint256",
          "name": "duration",
          "type": "uint256"
        }
      ],
      "stateMutability": "view",
      "type": "function"
    },
    {
      "inputs": [
        {
          "internalType": "uint256",
          "name": "appId",
          "type": "uint256"
        },
        {
          "internalType": "uint256[]",
          "name": "nodeIps",
          "type": "uint256[]"
        }
      ],
      "name": "getDeployments",
      "outputs": [
        {
          "components": [
            {
              "internalType": "string",
              "name": "dockerConfig",
              "type": "string"
            },
            {
              "internalType": "address",
              "name": "owner",
              "type": "address"
            },
            {
              "internalType": "uint256",
              "name": "createdAt",
              "type": "uint256"
            },
            {
              "internalType": "uint256",
              "name": "updatedAt",
              "type": "uint256"
            }
          ],
          "internalType": "struct SubnetDeployment.Deployment[]",
          "name": "deployments",
          "type": "tuple[]"
        }
      ],
      "stateMutability": "view",
      "type": "function"
    },
    {
      "inputs": [
        {
          "internalType": "uint256",
          "name": "appId",
          "type": "uint256"
        },
        {
          "internalType": "uint256",
          "name": "nodeIp",
          "type": "uint256"
        }
      ],
      "name": "getTimeSinceUpdate",
      "outputs": [
        {
          "internalType": "uint256",
          "name": "timeSinceUpdate",
          "type": "uint256"
        }
      ],
      "stateMutability": "view",
      "type": "function"
    },
    {
      "inputs": [
        {
          "internalType": "address",
          "name": "_appStore",
          "type": "address"
        }
      ],
      "name": "initialize",
      "outputs": [],
      "stateMutability": "nonpayable",
      "type": "function"
    },
    {
      "inputs": [
        {
          "internalType": "uint256",
          "name": "appId",
          "type": "uint256"
        },
        {
          "internalType": "uint256",
          "name": "nodeIp",
          "type": "uint256"
        },
        {
          "internalType": "string",
          "name": "dockerConfig",
          "type": "string"
        }
      ],
      "name": "updateDeployment",
      "outputs": [],
      "stateMutability": "nonpayable",
      "type": "function"
    }
  ],
  "bytecode": "0x6080806040523461001657611339908161001c8239f35b600080fdfe608060408181526004918236101561001657600080fd5b600092833560e01c918263016180a914610e4b575081632416fc5514610d8d5781634374538e14610ba95781635a1801e114610ab257816364129b48146108f757816372f86f05146108cf5781638b10fed6146107c85781639411654e14610369578163c4d66de8146101de57508063dabe3544146100d95763e5f188a11461009e57600080fd5b346100d5576020916100af36610f0a565b908252600184528282209082528352600182818060a01b03922001541615159051908152f35b5080fd5b5090346101db576100e936610f0a565b929082526001602093818552828420908452845281832082519161010c83610f25565b83518254878761011b836111a7565b808552928581169081156101bd5750600114610189575b505050600361017b93928261014f606094610182999a0382610f57565b86528301546001600160a01b0316888601819052600284015488870152920154930192835215156112aa565b51426112f6565b9051908152f35b909197508481528181205b8882106101aa5750820101955060038782610132565b8054848301840152908201908401610194565b60ff191683860152505090151560051b820101955060038782610132565b80fd5b9050346103655760203660031901126103655780356001600160a01b0381169190829003610361577ff0c57e16840df040f15088dc2f81fe391c3923bec73e23a9662efc9c229c6a009182549160ff83861c16159267ffffffffffffffff811680159081610359575b600114908161034f575b159081610346575b506103375767ffffffffffffffff198116600117855583610318575b5081156102d5575084546001600160a01b031916178455610294578280f35b805468ff00000000000000001916905551600181527fc7f505b2f371ae2175ee4913f4499e1f2633a7b5936321eed1cdaeb6115181d290602090a138808280f35b606490602086519162461bcd60e51b8352820152601e60248201527f496e76616c6964205375626e657441707053746f7265206164647265737300006044820152fd5b68ffffffffffffffffff19166801000000000000000117845538610275565b50845163f92ee8a960e01b8152fd5b90501538610259565b303b159150610251565b859150610247565b8380fd5b8280fd5b8284346101db57602461037b36611033565b9391949095610388611129565b50825482516324f3a51b60e01b8152828101889052946001600160a01b039185918791829085165afa9485156107bb5784956105d8575b508060208096015116330361058c578251956103da87610f25565b865284860133815283870190428252606088019242845289875260018089528688208c89528952868820958a5180519167ffffffffffffffff8311610579575061042488546111a7565b8b601f8211610540575b50508a90601f83116001146104d15791808b9a999896949260039896946104c29f9e9d926104c6575b505060001982891b1c191690821b1787555b86019151166bffffffffffffffffffffffff60a01b82541617905551600284015551910155519586957f2205f96223e007c4bf7b7e81320ac9ff0bbd8393ae72ac518c59b4814c06747d339380a48084528301906110ec565b0390f35b015190503880610457565b888b528b8b209190601f1984168c5b81811061052b5750928593926104c29f9e9d9c9b9a989693928660039b99979410610513575b505050811b018755610469565b0151600019838b1b60f8161c19169055388080610506565b82840151855593860193928e01928e016104e0565b898c52808c2061056892601f860160051c820192861061056f575b601f0160051c01906111e1565b8e8b61042e565b909150819061055b565b634e487b7160e01b8b526041905260248afd5b5083608492519162461bcd60e51b8352820152602160248201527f4f6e6c7920617070206f776e65722063616e206465706c6f79207375626e65746044820152607360f81b6064820152fd5b9094503d8085833e6105ea8183610f57565b810160209182818303126107b757805167ffffffffffffffff9182821161076f5701916101e093848483031261076f578651948501858110848211176107a457875283518381116107a057840182601f820112156107a05780519061064e82610f79565b9161065b8a519384610f57565b808352838084019160051b8301019185831161079c57848101915b8383106107735750505050855261068e818501611193565b9085015261069d868401611193565b868501526106ad60608401611193565b6060850152608083015182811161076f57816106ca91850161114e565b608085015260a083015182811161076f57816106e791850161114e565b60a085015260c083015160c085015260e083015160e0850152610100808401519085015261012080840151908501526101408084015190850152610160808401519085015261018080840151908501526101a0918284015190811161076f579061075291840161114e565b908301526107646101c0809201611193565b9082015293886103bf565b8780fd5b825188811161079857869161078d8984809487010161114e565b815201920191610676565b8d80fd5b8b80fd5b8880fd5b634e487b7160e01b895260418752602489fd5b8580fd5b50505051903d90823e3d90fd5b5050346100d5576107d836610f0a565b91906107e2611129565b508352600160209281845282852090855283528184209082519461080586610f25565b83519080845490610815826111a7565b918285528886821691826000146108ad575050600114610878575b505091816108476104c29695936003950382610f57565b87528101546001600160a01b03168587015260028101548387015201546060850152518281529283928301906110ec565b908792508582528282205b81831061089857505082010181610847610830565b80548386018501528893909201918501610883565b60ff19168187015292151560051b850190920192508391506108479050610830565b5050346100d557816003193601126100d557905490516001600160a01b039091168152602090f35b8284346101db5761090736610f91565b92909183519161091683610f79565b9261092382519485610f57565b808452610932601f1991610f79565b01825b818110610a9b575050815b8551811015610a3e5784835260016020818152838520610960848a611280565b51865281528385209084519261097584610f25565b8551878454610983816111a7565b80845290848116908115610a2457506001146109f4575b5091816109b2600395936109ef999897950382610f57565b85528201546001600160a01b031690840152600281015486840152015460608201526109de8287611280565b526109e98186611280565b5061125b565b610940565b858a52848a208a92505b818310610a11575050810183018161099a565b80548484018701529185019184016109fe565b60ff19168685015250151560051b8201840190508161099a565b5091825191602080840190808552835180925280868601968360051b870101940192955b828710610a6f5785850386f35b909192938280610a8b600193603f198a820301865288516110ec565b9601920196019592919092610a62565b602090610aa6611129565b82828801015201610935565b8284346101db57610ac236610f0a565b929082526001602093818552828420908452845281832090825190610ae682610f25565b835183548787610af5836111a7565b80855292858116908115610b8a5750600114610b55575b5050509081610b2561017b949361018297980382610f57565b825260018060a01b03908401541690818782015260606003600286015495888401968752015491015215156112aa565b909197508581528181205b888210610b7757508201019550808761017b610b0c565b8054848301840152908201908401610b60565b60ff191683860152505090151560051b8201019550808761017b610b0c565b90503461036557610bb936611033565b91929093838652600160209281845282882087895284528288209160018060a01b0381840154163303610d4c5785519167ffffffffffffffff8311610d395750610c0383546111a7565b601f8111610d0b575b5084601f8311600114610c8457918080610c7395937f8aa1bd7f5e2e3629e9c13e53e617710fe9deef21afda521c76b4e18c5d0e30cc999897958d93610c79575b501b916000199060031b1c19161781555b600342910155519282849384528301906110c7565b0390a380f35b890151925038610c4d565b838a52858a2091929190601f1983168b5b818110610cf65750918391610c7396947f8aa1bd7f5e2e3629e9c13e53e617710fe9deef21afda521c76b4e18c5d0e30cc9a9998969410610cdd575b5050811b018155610c5e565b88015160001960f88460031b161c191690553880610cd1565b89830151845592850192918801918801610c95565b610d3390848b52868b20601f850160051c81019188861061056f57601f0160051c01906111e1565b38610c0c565b634e487b7160e01b8a5260419052602489fd5b606482868087519262461bcd60e51b845283015260248201527f4f6e6c79206465706c6f796d656e74206f776e65722063616e207570646174656044820152fd5b8284346101db57610d9d36610f91565b9091805b8251811015610e4757610de8908483526001602090808252878520610dc68488611280565b51865282528785208101546001600160a01b03163314610ded575b505061125b565b610da1565b868552815286842090610e008387611280565b51855252610e0f8684206111f8565b33610e1a8286611280565b51867f598adead5d1f1bd56e51ffd0b4c50c881b4fe9c77b8032e33a869e1ab75b4c4a8680a48680610de1565b5080f35b909291503461036157610e5d36610f0a565b92909182865260209060018252828720858852825260018060a01b03600184892001541695338703610ecc5750508286526001815281862084875290528420610ea5906111f8565b7f598adead5d1f1bd56e51ffd0b4c50c881b4fe9c77b8032e33a869e1ab75b4c4a8480a480f35b918060649362461bcd60e51b845283015260248201527f4f6e6c79206465706c6f796d656e74206f776e65722063616e2064656c6574656044820152fd5b6040906003190112610f20576004359060243590565b600080fd5b6080810190811067ffffffffffffffff821117610f4157604052565b634e487b7160e01b600052604160045260246000fd5b90601f8019910116810190811067ffffffffffffffff821117610f4157604052565b67ffffffffffffffff8111610f415760051b60200190565b906040600319830112610f20576004359160243567ffffffffffffffff8111610f205781602382011215610f2057806004013591610fce83610f79565b92610fdc6040519485610f57565b80845260209260248486019260051b820101928311610f2057602401905b828210611008575050505090565b81358152908301908301610ffa565b67ffffffffffffffff8111610f4157601f01601f191660200190565b6060600319820112610f2057600435916024359160443567ffffffffffffffff8111610f205781602382011215610f205780600401359061107382611017565b926110816040519485610f57565b82845260248383010111610f205781600092602460209301838601378301015290565b60005b8381106110b75750506000910152565b81810151838201526020016110a7565b906020916110e0815180928185528580860191016110a4565b601f01601f1916010190565b9060608061110384516080855260808501906110c7565b6020808601516001600160a01b0316908501526040808601519085015293015191015290565b6040519061113682610f25565b60006060838181528260208201528260408201520152565b81601f82011215610f2057805161116481611017565b926111726040519485610f57565b81845260208284010111610f205761119091602080850191016110a4565b90565b51906001600160a01b0382168203610f2057565b90600182811c921680156111d7575b60208310146111c157565b634e487b7160e01b600052602260045260246000fd5b91607f16916111b6565b8181106111ec575050565b600081556001016111e1565b600360009161120781546111a7565b8061121e575b508260018201558260028201550155565b601f811160011461123457508281555b3861120d565b8390828252611252601f60208420920160051c8201600183016111e1565b8183555561122e565b600019811461126a5760010190565b634e487b7160e01b600052601160045260246000fd5b80518210156112945760209160051b010190565b634e487b7160e01b600052603260045260246000fd5b156112b157565b60405162461bcd60e51b815260206004820152601960248201527f4465706c6f796d656e7420646f6573206e6f74206578697374000000000000006044820152606490fd5b9190820391821161126a5756fea26469706673582212208f68850d9d2c84b4ba707eff7edce9a7fc42d29ce2b1b20a4837cb3eb374980264736f6c63430008140033",
  "linkReferences": {},
  "deployedLinkReferences": {}
}