{
  "_format": "hh-sol-artifact-1",
  "contractName": "SubnetProvider",
  "sourceName": "contracts/SubnetProvider.sol",
  "abi": [
    {
      "inputs": [
        {
          "internalType": "address",
          "name": "sender",
          "type": "address"
        },
        {
          "internalType": "uint256",
          "name": "tokenId",
          "type": "uint256"
        },
        {
          "internalType": "address",
          "name": "owner",
          "type": "address"
        }
      ],
      "name": "ERC721IncorrectOwner",
      "type": "error"
    },
    {
      "inputs": [
        {
          "internalType": "address",
          "name": "operator",
          "type": "address"
        },
        {
          "internalType": "uint256",
          "name": "tokenId",
          "type": "uint256"
        }
      ],
      "name": "ERC721InsufficientApproval",
      "type": "error"
    },
    {
      "inputs": [
        {
          "internalType": "address",
          "name": "approver",
          "type": "address"
        }
      ],
      "name": "ERC721InvalidApprover",
      "type": "error"
    },
    {
      "inputs": [
        {
          "internalType": "address",
          "name": "operator",
          "type": "address"
        }
      ],
      "name": "ERC721InvalidOperator",
      "type": "error"
    },
    {
      "inputs": [
        {
          "internalType": "address",
          "name": "owner",
          "type": "address"
        }
      ],
      "name": "ERC721InvalidOwner",
      "type": "error"
    },
    {
      "inputs": [
        {
          "internalType": "address",
          "name": "receiver",
          "type": "address"
        }
      ],
      "name": "ERC721InvalidReceiver",
      "type": "error"
    },
    {
      "inputs": [
        {
          "internalType": "address",
          "name": "sender",
          "type": "address"
        }
      ],
      "name": "ERC721InvalidSender",
      "type": "error"
    },
    {
      "inputs": [
        {
          "internalType": "uint256",
          "name": "tokenId",
          "type": "uint256"
        }
      ],
      "name": "ERC721NonexistentToken",
      "type": "error"
    },
    {
      "inputs": [],
      "name": "InvalidInitialization",
      "type": "error"
    },
    {
      "inputs": [],
      "name": "NotInitializing",
      "type": "error"
    },
    {
      "inputs": [
        {
          "internalType": "address",
          "name": "owner",
          "type": "address"
        }
      ],
      "name": "OwnableInvalidOwner",
      "type": "error"
    },
    {
      "inputs": [
        {
          "internalType": "address",
          "name": "account",
          "type": "address"
        }
      ],
      "name": "OwnableUnauthorizedAccount",
      "type": "error"
    },
    {
      "anonymous": false,
      "inputs": [
        {
          "indexed": true,
          "internalType": "address",
          "name": "owner",
          "type": "address"
        },
        {
          "indexed": true,
          "internalType": "address",
          "name": "approved",
          "type": "address"
        },
        {
          "indexed": true,
          "internalType": "uint256",
          "name": "tokenId",
          "type": "uint256"
        }
      ],
      "name": "Approval",
      "type": "event"
    },
    {
      "anonymous": false,
      "inputs": [
        {
          "indexed": true,
          "internalType": "address",
          "name": "owner",
          "type": "address"
        },
        {
          "indexed": true,
          "internalType": "address",
          "name": "operator",
          "type": "address"
        },
        {
          "indexed": false,
          "internalType": "bool",
          "name": "approved",
          "type": "bool"
        }
      ],
      "name": "ApprovalForAll",
      "type": "event"
    },
    {
      "anonymous": false,
      "inputs": [
        {
          "indexed": false,
          "internalType": "uint64",
          "name": "version",
          "type": "uint64"
        }
      ],
      "name": "Initialized",
      "type": "event"
    },
    {
      "anonymous": false,
      "inputs": [
        {
          "indexed": false,
          "internalType": "address",
          "name": "providerAddress",
          "type": "address"
        },
        {
          "indexed": false,
          "internalType": "uint256",
          "name": "tokenId",
          "type": "uint256"
        }
      ],
      "name": "NFTMinted",
      "type": "event"
    },
    {
      "anonymous": false,
      "inputs": [
        {
          "indexed": false,
          "internalType": "uint256",
          "name": "tokenId",
          "type": "uint256"
        },
        {
          "indexed": false,
          "internalType": "address",
          "name": "operator",
          "type": "address"
        }
      ],
      "name": "OperatorUpdated",
      "type": "event"
    },
    {
      "anonymous": false,
      "inputs": [
        {
          "indexed": true,
          "internalType": "address",
          "name": "previousOwner",
          "type": "address"
        },
        {
          "indexed": true,
          "internalType": "address",
          "name": "newOwner",
          "type": "address"
        }
      ],
      "name": "OwnershipTransferred",
      "type": "event"
    },
    {
      "anonymous": false,
      "inputs": [
        {
          "indexed": true,
          "internalType": "uint256",
          "name": "tokenId",
          "type": "uint256"
        },
        {
          "indexed": false,
          "internalType": "string",
          "name": "peerId",
          "type": "string"
        }
      ],
      "name": "PeerNodeDeleted",
      "type": "event"
    },
    {
      "anonymous": false,
      "inputs": [
        {
          "indexed": true,
          "internalType": "uint256",
          "name": "tokenId",
          "type": "uint256"
        },
        {
          "indexed": false,
          "internalType": "string",
          "name": "peerId",
          "type": "string"
        },
        {
          "indexed": false,
          "internalType": "string",
          "name": "metadata",
          "type": "string"
        }
      ],
      "name": "PeerNodeRegistered",
      "type": "event"
    },
    {
      "anonymous": false,
      "inputs": [
        {
          "indexed": true,
          "internalType": "uint256",
          "name": "tokenId",
          "type": "uint256"
        },
        {
          "indexed": false,
          "internalType": "string",
          "name": "peerId",
          "type": "string"
        },
        {
          "indexed": false,
          "internalType": "string",
          "name": "metadata",
          "type": "string"
        }
      ],
      "name": "PeerNodeUpdated",
      "type": "event"
    },
    {
      "anonymous": false,
      "inputs": [
        {
          "indexed": false,
          "internalType": "uint256",
          "name": "tokenId",
          "type": "uint256"
        }
      ],
      "name": "ProviderDeleted",
      "type": "event"
    },
    {
      "anonymous": false,
      "inputs": [
        {
          "indexed": false,
          "internalType": "uint256",
          "name": "tokenId",
          "type": "uint256"
        }
      ],
      "name": "ProviderJailed",
      "type": "event"
    },
    {
      "anonymous": false,
      "inputs": [
        {
          "indexed": false,
          "internalType": "address",
          "name": "providerAddress",
          "type": "address"
        },
        {
          "indexed": false,
          "internalType": "uint256",
          "name": "tokenId",
          "type": "uint256"
        },
        {
          "indexed": false,
          "internalType": "string",
          "name": "providerName",
          "type": "string"
        },
        {
          "indexed": false,
          "internalType": "string",
          "name": "metadata",
          "type": "string"
        },
        {
          "indexed": false,
          "internalType": "address",
          "name": "operator",
          "type": "address"
        },
        {
          "indexed": false,
          "internalType": "string",
          "name": "website",
          "type": "string"
        }
      ],
      "name": "ProviderRegistered",
      "type": "event"
    },
    {
      "anonymous": false,
      "inputs": [
        {
          "indexed": false,
          "internalType": "uint256",
          "name": "tokenId",
          "type": "uint256"
        }
      ],
      "name": "ProviderUnjailed",
      "type": "event"
    },
    {
      "anonymous": false,
      "inputs": [
        {
          "indexed": false,
          "internalType": "uint256",
          "name": "tokenId",
          "type": "uint256"
        },
        {
          "indexed": false,
          "internalType": "string",
          "name": "providerName",
          "type": "string"
        },
        {
          "indexed": false,
          "internalType": "string",
          "name": "metadata",
          "type": "string"
        },
        {
          "indexed": false,
          "internalType": "address",
          "name": "operator",
          "type": "address"
        },
        {
          "indexed": false,
          "internalType": "string",
          "name": "website",
          "type": "string"
        }
      ],
      "name": "ProviderUpdated",
      "type": "event"
    },
    {
      "anonymous": false,
      "inputs": [
        {
          "indexed": true,
          "internalType": "address",
          "name": "from",
          "type": "address"
        },
        {
          "indexed": true,
          "internalType": "address",
          "name": "to",
          "type": "address"
        },
        {
          "indexed": true,
          "internalType": "uint256",
          "name": "tokenId",
          "type": "uint256"
        }
      ],
      "name": "Transfer",
      "type": "event"
    },
    {
      "anonymous": false,
      "inputs": [
        {
          "indexed": false,
          "internalType": "uint256",
          "name": "tokenId",
          "type": "uint256"
        },
        {
          "indexed": false,
          "internalType": "string",
          "name": "website",
          "type": "string"
        }
      ],
      "name": "WebsiteUpdated",
      "type": "event"
    },
    {
      "inputs": [
        {
          "internalType": "address",
          "name": "to",
          "type": "address"
        },
        {
          "internalType": "uint256",
          "name": "tokenId",
          "type": "uint256"
        }
      ],
      "name": "approve",
      "outputs": [],
      "stateMutability": "nonpayable",
      "type": "function"
    },
    {
      "inputs": [
        {
          "internalType": "address",
          "name": "owner",
          "type": "address"
        }
      ],
      "name": "balanceOf",
      "outputs": [
        {
          "internalType": "uint256",
          "name": "",
          "type": "uint256"
        }
      ],
      "stateMutability": "view",
      "type": "function"
    },
    {
      "inputs": [
        {
          "internalType": "uint256",
          "name": "tokenId",
          "type": "uint256"
        },
        {
          "internalType": "string",
          "name": "peerId",
          "type": "string"
        }
      ],
      "name": "deletePeerNode",
      "outputs": [],
      "stateMutability": "nonpayable",
      "type": "function"
    },
    {
      "inputs": [
        {
          "internalType": "uint256",
          "name": "tokenId",
          "type": "uint256"
        }
      ],
      "name": "deleteProvider",
      "outputs": [],
      "stateMutability": "nonpayable",
      "type": "function"
    },
    {
      "inputs": [
        {
          "internalType": "uint256",
          "name": "tokenId",
          "type": "uint256"
        }
      ],
      "name": "getApproved",
      "outputs": [
        {
          "internalType": "address",
          "name": "",
          "type": "address"
        }
      ],
      "stateMutability": "view",
      "type": "function"
    },
    {
      "inputs": [
        {
          "internalType": "uint256",
          "name": "tokenId",
          "type": "uint256"
        },
        {
          "internalType": "string",
          "name": "peerId",
          "type": "string"
        }
      ],
      "name": "getPeerNode",
      "outputs": [
        {
          "components": [
            {
              "internalType": "bool",
              "name": "isRegistered",
              "type": "bool"
            },
            {
              "internalType": "string",
              "name": "metadata",
              "type": "string"
            }
          ],
          "internalType": "struct SubnetProvider.PeerNode",
          "name": "",
          "type": "tuple"
        }
      ],
      "stateMutability": "view",
      "type": "function"
    },
    {
      "inputs": [
        {
          "internalType": "uint256",
          "name": "_tokenId",
          "type": "uint256"
        }
      ],
      "name": "getProvider",
      "outputs": [
        {
          "components": [
            {
              "internalType": "uint256",
              "name": "tokenId",
              "type": "uint256"
            },
            {
              "internalType": "string",
              "name": "providerName",
              "type": "string"
            },
            {
              "internalType": "address",
              "name": "operator",
              "type": "address"
            },
            {
              "internalType": "string",
              "name": "website",
              "type": "string"
            },
            {
              "internalType": "string",
              "name": "metadata",
              "type": "string"
            },
            {
              "internalType": "bool",
              "name": "isJailed",
              "type": "bool"
            }
          ],
          "internalType": "struct SubnetProvider.Provider",
          "name": "",
          "type": "tuple"
        }
      ],
      "stateMutability": "view",
      "type": "function"
    },
    {
      "inputs": [
        {
          "internalType": "address",
          "name": "initialOwner",
          "type": "address"
        }
      ],
      "name": "initialize",
      "outputs": [],
      "stateMutability": "nonpayable",
      "type": "function"
    },
    {
      "inputs": [
        {
          "internalType": "address",
          "name": "owner",
          "type": "address"
        },
        {
          "internalType": "address",
          "name": "operator",
          "type": "address"
        }
      ],
      "name": "isApprovedForAll",
      "outputs": [
        {
          "internalType": "bool",
          "name": "",
          "type": "bool"
        }
      ],
      "stateMutability": "view",
      "type": "function"
    },
    {
      "inputs": [
        {
          "internalType": "uint256",
          "name": "tokenId",
          "type": "uint256"
        }
      ],
      "name": "jailProvider",
      "outputs": [],
      "stateMutability": "nonpayable",
      "type": "function"
    },
    {
      "inputs": [],
      "name": "name",
      "outputs": [
        {
          "internalType": "string",
          "name": "",
          "type": "string"
        }
      ],
      "stateMutability": "view",
      "type": "function"
    },
    {
      "inputs": [],
      "name": "owner",
      "outputs": [
        {
          "internalType": "address",
          "name": "",
          "type": "address"
        }
      ],
      "stateMutability": "view",
      "type": "function"
    },
    {
      "inputs": [
        {
          "internalType": "uint256",
          "name": "tokenId",
          "type": "uint256"
        }
      ],
      "name": "ownerOf",
      "outputs": [
        {
          "internalType": "address",
          "name": "",
          "type": "address"
        }
      ],
      "stateMutability": "view",
      "type": "function"
    },
    {
      "inputs": [
        {
          "internalType": "uint256",
          "name": "",
          "type": "uint256"
        },
        {
          "internalType": "string",
          "name": "",
          "type": "string"
        }
      ],
      "name": "peerNodeRegistered",
      "outputs": [
        {
          "internalType": "bool",
          "name": "isRegistered",
          "type": "bool"
        },
        {
          "internalType": "string",
          "name": "metadata",
          "type": "string"
        }
      ],
      "stateMutability": "view",
      "type": "function"
    },
    {
      "inputs": [
        {
          "internalType": "uint256",
          "name": "",
          "type": "uint256"
        }
      ],
      "name": "providers",
      "outputs": [
        {
          "internalType": "uint256",
          "name": "tokenId",
          "type": "uint256"
        },
        {
          "internalType": "string",
          "name": "providerName",
          "type": "string"
        },
        {
          "internalType": "address",
          "name": "operator",
          "type": "address"
        },
        {
          "internalType": "string",
          "name": "website",
          "type": "string"
        },
        {
          "internalType": "string",
          "name": "metadata",
          "type": "string"
        },
        {
          "internalType": "bool",
          "name": "isJailed",
          "type": "bool"
        }
      ],
      "stateMutability": "view",
      "type": "function"
    },
    {
      "inputs": [
        {
          "internalType": "uint256",
          "name": "tokenId",
          "type": "uint256"
        },
        {
          "internalType": "string",
          "name": "peerId",
          "type": "string"
        },
        {
          "internalType": "string",
          "name": "metadata",
          "type": "string"
        }
      ],
      "name": "registerPeerNode",
      "outputs": [],
      "stateMutability": "nonpayable",
      "type": "function"
    },
    {
      "inputs": [
        {
          "internalType": "string",
          "name": "_providerName",
          "type": "string"
        },
        {
          "internalType": "string",
          "name": "_metadata",
          "type": "string"
        },
        {
          "internalType": "address",
          "name": "_operator",
          "type": "address"
        },
        {
          "internalType": "string",
          "name": "_website",
          "type": "string"
        }
      ],
      "name": "registerProvider",
      "outputs": [
        {
          "internalType": "uint256",
          "name": "",
          "type": "uint256"
        }
      ],
      "stateMutability": "nonpayable",
      "type": "function"
    },
    {
      "inputs": [],
      "name": "renounceOwnership",
      "outputs": [],
      "stateMutability": "nonpayable",
      "type": "function"
    },
    {
      "inputs": [
        {
          "internalType": "address",
          "name": "from",
          "type": "address"
        },
        {
          "internalType": "address",
          "name": "to",
          "type": "address"
        },
        {
          "internalType": "uint256",
          "name": "tokenId",
          "type": "uint256"
        }
      ],
      "name": "safeTransferFrom",
      "outputs": [],
      "stateMutability": "nonpayable",
      "type": "function"
    },
    {
      "inputs": [
        {
          "internalType": "address",
          "name": "from",
          "type": "address"
        },
        {
          "internalType": "address",
          "name": "to",
          "type": "address"
        },
        {
          "internalType": "uint256",
          "name": "tokenId",
          "type": "uint256"
        },
        {
          "internalType": "bytes",
          "name": "data",
          "type": "bytes"
        }
      ],
      "name": "safeTransferFrom",
      "outputs": [],
      "stateMutability": "nonpayable",
      "type": "function"
    },
    {
      "inputs": [
        {
          "internalType": "address",
          "name": "operator",
          "type": "address"
        },
        {
          "internalType": "bool",
          "name": "approved",
          "type": "bool"
        }
      ],
      "name": "setApprovalForAll",
      "outputs": [],
      "stateMutability": "nonpayable",
      "type": "function"
    },
    {
      "inputs": [
        {
          "internalType": "bytes4",
          "name": "interfaceId",
          "type": "bytes4"
        }
      ],
      "name": "supportsInterface",
      "outputs": [
        {
          "internalType": "bool",
          "name": "",
          "type": "bool"
        }
      ],
      "stateMutability": "view",
      "type": "function"
    },
    {
      "inputs": [],
      "name": "symbol",
      "outputs": [
        {
          "internalType": "string",
          "name": "",
          "type": "string"
        }
      ],
      "stateMutability": "view",
      "type": "function"
    },
    {
      "inputs": [
        {
          "internalType": "uint256",
          "name": "tokenId",
          "type": "uint256"
        }
      ],
      "name": "tokenURI",
      "outputs": [
        {
          "internalType": "string",
          "name": "",
          "type": "string"
        }
      ],
      "stateMutability": "view",
      "type": "function"
    },
    {
      "inputs": [
        {
          "internalType": "address",
          "name": "from",
          "type": "address"
        },
        {
          "internalType": "address",
          "name": "to",
          "type": "address"
        },
        {
          "internalType": "uint256",
          "name": "tokenId",
          "type": "uint256"
        }
      ],
      "name": "transferFrom",
      "outputs": [],
      "stateMutability": "nonpayable",
      "type": "function"
    },
    {
      "inputs": [
        {
          "internalType": "address",
          "name": "newOwner",
          "type": "address"
        }
      ],
      "name": "transferOwnership",
      "outputs": [],
      "stateMutability": "nonpayable",
      "type": "function"
    },
    {
      "inputs": [
        {
          "internalType": "uint256",
          "name": "tokenId",
          "type": "uint256"
        }
      ],
      "name": "unjailProvider",
      "outputs": [],
      "stateMutability": "nonpayable",
      "type": "function"
    },
    {
      "inputs": [
        {
          "internalType": "uint256",
          "name": "tokenId",
          "type": "uint256"
        },
        {
          "internalType": "address",
          "name": "_operator",
          "type": "address"
        }
      ],
      "name": "updateOperator",
      "outputs": [],
      "stateMutability": "nonpayable",
      "type": "function"
    },
    {
      "inputs": [
        {
          "internalType": "uint256",
          "name": "tokenId",
          "type": "uint256"
        },
        {
          "internalType": "string",
          "name": "peerId",
          "type": "string"
        },
        {
          "internalType": "string",
          "name": "metadata",
          "type": "string"
        }
      ],
      "name": "updatePeerNode",
      "outputs": [],
      "stateMutability": "nonpayable",
      "type": "function"
    },
    {
      "inputs": [
        {
          "internalType": "uint256",
          "name": "tokenId",
          "type": "uint256"
        },
        {
          "internalType": "string",
          "name": "_providerName",
          "type": "string"
        },
        {
          "internalType": "string",
          "name": "_metadata",
          "type": "string"
        },
        {
          "internalType": "address",
          "name": "_operator",
          "type": "address"
        },
        {
          "internalType": "string",
          "name": "_website",
          "type": "string"
        }
      ],
      "name": "updateProvider",
      "outputs": [],
      "stateMutability": "nonpayable",
      "type": "function"
    },
    {
      "inputs": [
        {
          "internalType": "uint256",
          "name": "tokenId",
          "type": "uint256"
        },
        {
          "internalType": "string",
          "name": "_website",
          "type": "string"
        }
      ],
      "name": "updateWebsite",
      "outputs": [],
      "stateMutability": "nonpayable",
      "type": "function"
    },
    {
      "inputs": [],
      "name": "verifier",
      "outputs": [
        {
          "internalType": "address",
          "name": "",
          "type": "address"
        }
      ],
      "stateMutability": "view",
      "type": "function"
    },
    {
      "inputs": [],
      "name": "version",
      "outputs": [
        {
          "internalType": "string",
          "name": "",
          "type": "string"
        }
      ],
      "stateMutability": "pure",
      "type": "function"
    }
  ],
  "bytecode": "0x6080806040523461001657612e33908161001c8239f35b600080fdfe608080604052600436101561001357600080fd5b60003560e01c90816301ffc9a71461246f5750806306fdde03146123a8578063081812fc1461235d578063095ea7b31461227657806323b872dd1461225f5780632b7ac3f31461223657806342842e0e1461220e57806350f3fc811461215f57806353fad0fd14611fa65780635488432014611d2f57806354fd4d5014611ce9578063574e5d6b14611c345780635c42d07914611b0a57806360e6df6514611a5e5780636352211e14611a2e57806365ffb2ec1461198f578063680bf85c1461188c57806370a0823114611837578063715018a6146117cd5780638da5cb5b146117975780639488a32f146115da57806395d89b41146114d4578063a22cb4651461142b578063ac953e8d146112ab578063b88923bc1461123f578063b88d4fde146111e0578063c4d66de814610dca578063c65a391d14610d18578063c87b56dd14610cc1578063e985e9c514610c73578063ea677b7714610644578063ef17ed7e146101ba5763f2fde38b1461018a57600080fd5b346101b55760203660031901126101b5576101b36101a6612522565b6101ae6127ba565b6127f3565b005b600080fd5b346101b55760a03660031901126101b5576001600160401b036024358181116101b5576101eb903690600401612727565b906044358181116101b557610204903690600401612727565b60643591906001600160a01b039081841684036101b5576084358381116101b557610233903690600401612727565b9261023f600435612be7565b831633148015610625575b61025390612c87565b6004356000526001602052604060002086518281116104b2576102796001830154612583565b601f81116105f0575b50806020601f821160011461058257600091610577575b508160011b916000199060031b1c19161760018201555b82518281116104b2576102c66004830154612583565b601f8111610542575b506020601f82116001146104d3579080600393926000916104c8575b508160011b9160001990851b1c19161760048201555b6002810180546001600160a01b031916888716179055855191019181116104b25761032c8254612583565b601f8111610475575b506020601f82116001146103e0576103ae96937fec62d12ef065e64d6ca9503068ed3bdffb1ed5294a1429d7482c6c6e776fea5e989693836103d097946103bc946000916103d5575b508160011b916000199060031b1c19161790555b604051978897600435895260a060208a015260a08901906124fd565b9087820360408901526124fd565b9216606085015283820360808501526124fd565b0390a1005b90508601518c61037e565b601f198216908360005260206000209160005b81811061045d5750936001846103bc946103ae9b98946103d09a977fec62d12ef065e64d6ca9503068ed3bdffb1ed5294a1429d7482c6c6e776fea5e9e9c9910610444575b5050811b019055610392565b88015160001960f88460031b161c191690558c80610438565b9192602060018192868c0151815501940192016103f3565b6104a290836000526020600020601f840160051c810191602085106104a8575b601f0160051c0190612c70565b87610335565b9091508190610495565b634e487b7160e01b600052604160045260246000fd5b90508501518a6102eb565b6004830160005260206000209060005b601f198416811061052a5750916001916003949382601f19811610610512575b5050811b016004820155610301565b87015160001983871b60f8161c191690558a80610503565b9091602060018192858a0151815501930191016104e3565b61057190600484016000526020600020601f840160051c810191602085106104a857601f0160051c0190612c70565b886102cf565b905088015189610299565b91506001830160005260206000206000925b8a601f19841685106105d957506001935082601f198116106105c0575b5050811b0160018201556102b0565b8a015160001960f88460031b161c1916905589806105b1565b810151825560209384019360019092019101610594565b61061f90600184016000526020600020601f840160051c810191602085106104a857601f0160051c0190612c70565b88610282565b506004356000908152600160205260409020600201548316331461024a565b346101b55760803660031901126101b5576004356001600160401b0381116101b557610674903690600401612727565b6024356001600160401b0381116101b557610693903690600401612727565b90604435906001600160a01b03821682036101b5576064356001600160401b0381116101b5576106c7903690600401612727565b60005492906000198414610c5d57600184016000553315610c445760018401600052600080516020612dbe8339815191528060205260018060a01b03604060002054168015159182610c22575b61071d33612867565b60018154019055600187016000526020526040600020336001600160601b0360a01b825416179055600186019033907fddf252ad1be2c89b69c2b068fc378daa952ba7f163c4a11628f55a4df523b3ef600080a4610c095760405194610782866125d8565b60018501865283602087015260018060a01b0383166040870152816060870152806080870152600060a087015260018501600052600160205260406000208651815560208701518051906001600160401b0382116104b25781906107e96001850154612583565b601f8111610bd4575b50602090601f8311600114610b6257600092610b57575b50508160011b916000199060031b1c19161760018201555b6002810160018060a01b036040890151166001600160601b0360a01b825416179055606087015180516001600160401b0381116104b2578060038401926108688454612583565b601f8111610b25575b50602090601f8311600114610abf57600092610ab4575b50508160011b916000199060031b1c19161790555b600481019660808101519788516001600160401b0381116104b2576020996108c58354612583565b601f8111610a84575b508a90601f83116001146109e65794600560a07f0c9a46e79f429968ccc567ee367b6795187112eb50e9788d15a8cd955a4bfe949b999661097c96866109999b9761094c9761096e9f9c6000926109db575b50508160011b916000199060031b1c19161790555b0151151591019060ff801983541691151516179055565b60405196879633885260018b018c89015260c0604089015260c08801906124fd565b9086820360608801526124fd565b6001600160a01b03909216608085015283820360a08501526124fd565b0390a1604080513381526001830160208201527f4cc0a9c4a99ddc700de1af2c9f916a7cbfdb71f14801ccff94061ad1ef8a80409190a1600160405191018152f35b015190503880610920565b90601f19831691846000528c6000209260005b818110610a6d57507f0c9a46e79f429968ccc567ee367b6795187112eb50e9788d15a8cd955a4bfe949b999661097c9660018761094c9761096e9f9c976005976109999f9b60a09810610a54575b505050811b019055610935565b015160001960f88460031b161c19169055388080610a47565b92938e6001819287860151815501950193016109f9565b610aae90846000528c600020601f850160051c8101918e86106104a857601f0160051c0190612c70565b8b6108ce565b015190508a80610888565b6000858152602081209350601f198516905b818110610b0d5750908460019594939210610af4575b505050811b01905561089d565b015160001960f88460031b161c191690558a8080610ae7565b92936020600181928786015181550195019301610ad1565b610b5190856000526020600020601f850160051c810191602086106104a857601f0160051c0190612c70565b8b610871565b015190508980610809565b9250600184016000526020600020906000935b601f1984168510610bb9576001945083601f19811610610ba0575b505050811b016001820155610821565b015160001960f88460031b161c19169055898080610b90565b81810151835560209485019460019093019290910190610b75565b610c0390600186016000526020600020601f850160051c810191602086106104a857601f0160051c0190612c70565b8a6107f2565b6040516339e3563760e11b815260006004820152602490fd5b610c2e60018801612bbb565b610c3782612867565b8054600019019055610714565b604051633250574960e11b815260006004820152602490fd5b634e487b7160e01b600052601160045260246000fd5b346101b55760403660031901126101b557610c8c612522565b610c9d610c97612538565b916128a0565b9060018060a01b0316600052602052602060ff604060002054166040519015158152f35b346101b55760203660031901126101b557610cdd600435612be7565b506000604051610cec816125f3565b52610d14604051610cfc816125f3565b600081526040519182916020835260208301906124fd565b0390f35b346101b55760403660031901126101b5577fbc3f928a2240d921e006f13446712fe7588e04553a6ddc13da2143e0ed93395b6040600435610d57612538565b610d6082612be7565b6001600160a01b0390811633148015610daf575b610d7d90612c87565b82600052600160205260028460002001911690816001600160601b0360a01b82541617905582519182526020820152a1005b50600083815260016020528490206002015481163314610d74565b346101b5576020806003193601126101b557610de4612522565b907ff0c57e16840df040f15088dc2f81fe391c3923bec73e23a9662efc9c229c6a0090815460ff8160401c16156001600160401b0394858316928315806111d9575b600180951490816111cf575b1590816111c6575b506111b45767ffffffffffffffff1981168417865582611195575b50604051610e62816125bd565b600e81526d29bab13732ba283937bb34b232b960911b8582015260405196610e89886125bd565b600688526514d55093915560d21b86890152610ea3612c2f565b610eab612c2f565b81518181116104b2577f80bb2b638cc20bc4d0a60d66940f3ab4a00c1d7b313497ca82fb0b4ab00793009080610ee18354612583565b94601f958a878211611149575b505089908683116001146110c9576000926110be575b5050600019600383901b1c191690871b1790555b87519081116104b2577f80bb2b638cc20bc4d0a60d66940f3ab4a00c1d7b313497ca82fb0b4ab007930191610f4d8354612583565b818111611069575b5086908211600114610fe3578190610f979596979899600092610fd8575b5050600019600383901b1c191690861b1790555b610f8f612c2f565b6101ae612c2f565b610f9d57005b7fc7f505b2f371ae2175ee4913f4499e1f2633a7b5936321eed1cdaeb6115181d29268ff0000000000000000198154169055604051908152a1005b015190508980610f73565b601f19821698836000527ff4bad0a69248f59680a4f2b3000328cec71a413447c96781cfe5996daa8c456e9960005b8181106110545750918798999a9184610f97989995941061103b575b505050811b019055610f87565b015160001960f88460031b161c1916905589808061102e565b838301518c559a88019a928901928901611012565b6110af90846000527ff4bad0a69248f59680a4f2b3000328cec71a413447c96781cfe5996daa8c456e8380860160051c8201928b87106110b5575b0160051c0190612c70565b89610f55565b925081926110a4565b015190508b80610f04565b90899350601f19831691856000527f37c58c799b6609234b945e882912ee9ad34948a1dfaa20a97485e1a7752bbf819260005b8d828210611133575050841161111a575b505050811b019055610f18565b015160001960f88460031b161c191690558b808061110d565b8385015186558d979095019493840193016110fc565b61118e9186600052887f37c58c799b6609234b945e882912ee9ad34948a1dfaa20a97485e1a7752bbf819181870160051c83019387106110b5570160051c0190612c70565b8c8a610eee565b68ffffffffffffffffff19166801000000000000000117855586610e55565b60405163f92ee8a960e01b8152600490fd5b90501588610e3a565b303b159150610e32565b5082610e26565b346101b55760803660031901126101b5576111f9612522565b611201612538565b606435916001600160401b0383116101b557366023840112156101b5576112356101b39336906024816004013591016126f0565b9160443591612a68565b346101b55761127260206112523661278b565b9060005260028252604060002082604051948386809551938492016124da565b82019081520301902061128c600160ff835416920161262f565b90610d14604051928392151583526040602084015260408301906124fd565b346101b5576020806003193601126101b557600435906112ca82612be7565b6001600160a01b039033908216036113e65782600052826000600080516020612dbe8339815191529283855260408220541680159384156113c8575b83835285526040822080546001600160a01b03191690557fddf252ad1be2c89b69c2b068fc378daa952ba7f163c4a11628f55a4df523b3ef8280a46113af57817f99921e5d7939d41d3bfabe71f0087e38fccb316796abb58a905cd3dbf68219439260005260018252600060056040822082815561138660018201612ce3565b82600282015561139860038201612ce3565b6113a460048201612ce3565b0155604051908152a1005b604051637e27328960e01b815260048101839052602490fd5b6113d184612bbb565b6113da82612867565b83198154019055611306565b60405162461bcd60e51b815260048101839052601b60248201527f4e6f7420746865206f776e6572206f66207468697320746f6b656e00000000006044820152606490fd5b346101b55760403660031901126101b557611444612522565b60243590811515908183036101b5576001600160a01b03169182156114bb5761148d90611470336128a0565b8460005260205260406000209060ff801983541691151516179055565b6040519081527f17307eab39ab6107e8899845ad3d59bd9653f200f220920489ca2b5937696c3160203392a3005b604051630b61174360e31b815260048101849052602490fd5b346101b55760003660031901126101b55760405160007f80bb2b638cc20bc4d0a60d66940f3ab4a00c1d7b313497ca82fb0b4ab0079301805461151681612583565b808552916001918083169081156115b05750600114611554575b610d14856115408187038261260e565b6040519182916020835260208301906124fd565b600090815292507ff4bad0a69248f59680a4f2b3000328cec71a413447c96781cfe5996daa8c456e5b82841061159857505050810160200161154082610d14611530565b8054602085870181019190915290930192810161157d565b869550610d149693506020925061154094915060ff191682840152151560051b8201019293611530565b346101b5576115e83661278b565b906116106115f582612be7565b6001600160a01b039081163314908115611779575b50612c87565b806000526001916020928084526003604060002001908251906001600160401b0382116104b2576116418354612583565b601f8111611749575b5085601f83116001146116be579180806103d095937fdc8326ca64efd094910ca07722944733f570f363270e574c6febb5c3ab5a58d0999897956000936116b3575b501b916000199060031b1c19161790555b60408051948594855284015260408301906124fd565b86015192508a61168c565b601f9291921982169084600052876000209160005b81811061173457509183916103d096947fdc8326ca64efd094910ca07722944733f570f363270e574c6febb5c3ab5a58d09a999896941061171b575b5050811b01905561169d565b85015160001960f88460031b161c19169055888061170f565b878301518455928501929189019189016116d3565b611773908460005287600020601f850160051c8101918986106104a857601f0160051c0190612c70565b8661164a565b9050826000526001602052339060026040600020015416148461160a565b346101b55760003660031901126101b557600080516020612d9e833981519152546040516001600160a01b039091168152602090f35b346101b55760003660031901126101b5576117e66127ba565b600080516020612d9e83398151915280546001600160a01b031981169091556000906001600160a01b03167f8be0079c531659141344cd1fd0a4f28419497f9722a3daafe3b4186f6b6457e08280a3005b346101b55760203660031901126101b557611850612522565b6001600160a01b038116156118735761186a602091612867565b54604051908152f35b6040516322718ad960e21b815260006004820152602490fd5b346101b5577f3146c234fc656b2d6bd448c8a0a8deef61fc0efd2c579531e2f4843624249ec76118bb3661278b565b6118e36118c9839493612be7565b6001600160a01b0390811633149081156119715750612c87565b82600052602060028152611958600161194583604060002061192760ff60405184818b5195828d019661191781848a6124da565b8201908152030190205416612d51565b88600052600282526040600020604051809481938a519283916124da565b8201908152030190206000815501612ce3565b61196c6040519282849384528301906124fd565b0390a2005b9050846000526001602052339060026040600020015416148561160a565b346101b55760606119da6119a23661278b565b604051916119af836125bd565b60008352602094858094015260005260028252604060002082604051948386809551938492016124da565b820190815203019020610d14611a076001604051936119f8856125bd565b60ff815416151585520161262f565b838301908152604051938493818552511515908401525160408084015260608301906124fd565b346101b55760203660031901126101b5576020611a4c600435612be7565b6040516001600160a01b039091168152f35b346101b55760203660031901126101b557600435611a7a6127ba565b80600052600160205260056040600020019081549060ff821615611acc577fbfe4239d342acd9a5f1aa3191e74a1fb9072e0843e6caa633dec9557ef37f7689260209260ff19169055604051908152a1005b60405162461bcd60e51b8152602060048201526016602482015275141c9bdd9a59195c881a5cc81b9bdd081a985a5b195960521b6044820152606490fd5b346101b5576020806003193601126101b557604051611b28816125d8565b60008152600060a060609283858201528260408201528380820152836080820152015260043560005260018252604060002090611c2760405192611b6b846125d8565b80548452611b7b6001820161262f565b84860190815260028201546001600160a01b03908116604087019081529194611c169190611bab6003860161262f565b91818901928352611bfa60ff6005611bc560048a0161262f565b9860808d01998a520154169860a08b019915158a526040519b8c9b818d5251908c01525160c060408c015260e08b01906124fd565b945116908801525191601f1992838883030160808901526124fd565b9151908583030160a08601526124fd565b9051151560c08301520390f35b346101b55760203660031901126101b557600435611c506127ba565b80600052600160205260056040600020019081549060ff8216611ca4577f590eb05a981525a1494d36860dcfac158c9073c44a026a5dbd5e62b19b57e86f92600160209360ff1916179055604051908152a1005b60405162461bcd60e51b815260206004820152601a60248201527f50726f766964657220697320616c7265616479206a61696c65640000000000006044820152606490fd5b346101b55760003660031901126101b557610d14604051611d09816125bd565b60058152640312e302e360dc1b60208201526040519182916020835260208301906124fd565b346101b557611d3d36612745565b611d65611d4b849394612be7565b6001600160a01b039081163314908115611f885750612c87565b8160005260209260028452604060002060ff604051868185519482870195611d8e8184896124da565b8201908152030190205416611f4357604051611da9816125bd565b60018181809352611dfb611ddc89808401968988528a600052600282526040600020604051809481938c519283916124da565b82019081520301902091511515829060ff801983541691151516179055565b019151958651966001600160401b0388116104b257611e1a8454612583565b601f8111611f13575b5081601f8911600114611e8d575096809281927f0871c769e3d0dd7570972a54898f3d91c96d0f36f068b0074dc418d2a06212749899600094611e82575b50501b916000199060031b1c19161790555b61196c60405192839283612d2c565b015192508980611e61565b909791601f198316988560005282600020926000905b8b8210611efc575050837f0871c769e3d0dd7570972a54898f3d91c96d0f36f068b0074dc418d2a0621274999a10611ee3575b505050811b019055611e73565b015160001960f88460031b161c19169055878080611ed6565b808785968294968601518155019501930190611ea3565b611f3d908560005283600020601f8b0160051c810191858c106104a857601f0160051c0190612c70565b88611e23565b60405162461bcd60e51b815260048101869052601c60248201527f50656572206e6f646520616c72656164792072656769737465726564000000006044820152606490fd5b9050836000526001602052339060026040600020015416148561160a565b346101b557611fb436612745565b611fc2611d4b849394612be7565b816000526020926002845261200f6040600020611ff160ff60405188818751958289019661191781848a6124da565b846000526002865260406000209060405192839185519283916124da565b82019081528190038501902082516001918201916001600160401b0382116104b25761203b8354612583565b601f811161212f575b5086601f83116001146120aa57508180917faac9f0167af86d3540388db7322c095eb7bf138b2ee88ffee321073dac6e90eb979860009361209f575b501b916000199060031b1c191617905561196c60405192839283612d2c565b870151925089612080565b601f929192198216978460005281600020916000905b8a8210612118575050827faac9f0167af86d3540388db7322c095eb7bf138b2ee88ffee321073dac6e90eb9899106120ff575b5050811b019055611e73565b86015160001960f88460031b161c1916905587806120f3565b808684958294958c015181550194019201906120c0565b612159908460005288600020601f850160051c8101918a86106104a857601f0160051c0190612c70565b87612044565b346101b55760203660031901126101b55760043560005260016020526040600020805461218e6001830161262f565b9161220260018060a01b03600283015416916121f46121af6003830161262f565b9360ff60056121c06004860161262f565b94015416946121e1604051988998895260c060208a015260c08901906124fd565b91604088015286820360608801526124fd565b9084820360808601526124fd565b90151560a08301520390f35b346101b5576101b361221f3661254e565b906040519261222d846125f3565b60008452612a68565b346101b55760003660031901126101b5576003546040516001600160a01b039091168152602090f35b346101b5576101b36122703661254e565b916128d9565b346101b55760403660031901126101b55761228f612522565b60243561229b81612be7565b3315158061234a575b8061232a575b612312576001600160a01b039283169282918491167f8c5be1e5ebec7d5bd14f71427d1e84f3dd0314c0f7b2291e5b200ac8c7c3b925600080a46000908152600080516020612dde8339815191526020526040902080546001600160a01b0319169091179055005b60405163a9fbf51f60e01b8152336004820152602490fd5b50612334816128a0565b3360005260205260ff60406000205416156122aa565b506001600160a01b0381163314156122a4565b346101b55760203660031901126101b55760043561237a81612be7565b50600052600080516020612dde833981519152602052602060018060a01b0360406000205416604051908152f35b346101b55760003660031901126101b55760405160007f80bb2b638cc20bc4d0a60d66940f3ab4a00c1d7b313497ca82fb0b4ab007930080546123ea81612583565b808552916001918083169081156115b0575060011461241357610d14856115408187038261260e565b600090815292507f37c58c799b6609234b945e882912ee9ad34948a1dfaa20a97485e1a7752bbf815b82841061245757505050810160200161154082610d14611530565b8054602085870181019190915290930192810161243c565b346101b55760203660031901126101b5576004359063ffffffff60e01b82168092036101b5576020916380ac58cd60e01b81149081156124c9575b81156124b8575b5015158152f35b6301ffc9a760e01b149050836124b1565b635b5e139f60e01b811491506124aa565b60005b8381106124ed5750506000910152565b81810151838201526020016124dd565b90602091612516815180928185528580860191016124da565b601f01601f1916010190565b600435906001600160a01b03821682036101b557565b602435906001600160a01b03821682036101b557565b60609060031901126101b5576001600160a01b039060043582811681036101b5579160243590811681036101b5579060443590565b90600182811c921680156125b3575b602083101461259d57565b634e487b7160e01b600052602260045260246000fd5b91607f1691612592565b604081019081106001600160401b038211176104b257604052565b60c081019081106001600160401b038211176104b257604052565b602081019081106001600160401b038211176104b257604052565b90601f801991011681019081106001600160401b038211176104b257604052565b906040519182600082549261264384612583565b9081845260019485811690816000146126b2575060011461266f575b505061266d9250038361260e565b565b9093915060005260209081600020936000915b81831061269a57505061266d9350820101388061265f565b85548884018501529485019487945091830191612682565b91505061266d94506020925060ff191682840152151560051b820101388061265f565b6001600160401b0381116104b257601f01601f191660200190565b9291926126fc826126d5565b9161270a604051938461260e565b8294818452818301116101b5578281602093846000960137010152565b9080601f830112156101b557816020612742933591016126f0565b90565b60606003198201126101b557600435916001600160401b036024358181116101b5578361277491600401612727565b926044359182116101b55761274291600401612727565b9060406003198301126101b55760043591602435906001600160401b0382116101b55761274291600401612727565b600080516020612d9e833981519152546001600160a01b031633036127db57565b60405163118cdaa760e01b8152336004820152602490fd5b6001600160a01b0390811690811561284e57600080516020612d9e83398151915280546001600160a01b031981168417909155167f8be0079c531659141344cd1fd0a4f28419497f9722a3daafe3b4186f6b6457e0600080a3565b604051631e4fbdf760e01b815260006004820152602490fd5b6001600160a01b031660009081527f80bb2b638cc20bc4d0a60d66940f3ab4a00c1d7b313497ca82fb0b4ab00793036020526040902090565b6001600160a01b031660009081527f80bb2b638cc20bc4d0a60d66940f3ab4a00c1d7b313497ca82fb0b4ab00793056020526040902090565b6001600160a01b0382811693918415610c445782600095818752600080516020612dbe8339815191529586602052604097858982205416978892331515806129bf575b509061294e7fddf252ad1be2c89b69c2b068fc378daa952ba7f163c4a11628f55a4df523b3ef9392856129a057612867565b8054600101905585825260205289812080546001600160a01b0319168517905580a4169283830361297f5750505050565b6064945051926364283d7b60e01b8452600484015260248301526044820152fd5b6129a988612bbb565b6129b286612867565b8054600019019055612867565b9193509193945080612a19575b156129dd579187918794933861291c565b8887896129fa576024915190637e27328960e01b82526004820152fd5b905163177e802f60e01b81523360048201526024810191909152604490fd5b503388148015612a4c575b806129cc5750868352600080516020612dde83398151915260205233868a85205416146129cc565b50612a56886128a0565b33845260205260ff8984205416612a24565b612a738383836128d9565b813b612a80575b50505050565b604051630a85bd0160e11b8082523360048301526001600160a01b03928316602483015260448201949094526080606482015260209592909116939092908390612ace9060848301906124fd565b039285816000958187895af1849181612b77575b50612b42575050503d600014612b3a573d612afc816126d5565b90612b0a604051928361260e565b81528091843d92013e5b80519283612b3557604051633250574960e11b815260048101849052602490fd5b019050fd5b506060612b14565b919450915063ffffffff60e01b1603612b5f575038808080612a7a565b60249060405190633250574960e11b82526004820152fd5b9091508681813d8311612bb4575b612b8f818361260e565b81010312612bb057516001600160e01b031981168103612bb0579038612ae2565b8480fd5b503d612b85565b600052600080516020612dde83398151915260205260406000206001600160601b0360a01b8154169055565b6000818152600080516020612dbe83398151915260205260409020546001600160a01b0316908115612c17575090565b60249060405190637e27328960e01b82526004820152fd5b60ff7ff0c57e16840df040f15088dc2f81fe391c3923bec73e23a9662efc9c229c6a005460401c1615612c5e57565b604051631afcd79f60e31b8152600490fd5b818110612c7b575050565b60008155600101612c70565b15612c8e57565b60405162461bcd60e51b815260206004820152602760248201527f4e6f7420746865206f776e6572206f72206f70657261746f72206f662074686960448201526639903a37b5b2b760c91b6064820152608490fd5b612ced8154612583565b9081612cf7575050565b81601f60009311600114612d09575055565b908083918252612d28601f60208420940160051c840160018501612c70565b5555565b9091612d43612742936040845260408401906124fd565b9160208184039101526124fd565b15612d5857565b60405162461bcd60e51b815260206004820152601860248201527f50656572206e6f6465206e6f74207265676973746572656400000000000000006044820152606490fdfe9016d09d72d40fdae2fd8ceac6b6234c7706214fd39c1cd1e609a0528c19930080bb2b638cc20bc4d0a60d66940f3ab4a00c1d7b313497ca82fb0b4ab007930280bb2b638cc20bc4d0a60d66940f3ab4a00c1d7b313497ca82fb0b4ab0079304a26469706673582212206a02477e442f514171e3d49e95195be9c2ae460dc3818cf5b2f32d720de2c99864736f6c63430008140033",
  "linkReferences": {},
  "deployedLinkReferences": {}
}