{
  "_format": "hh-sol-artifact-1",
  "contractName": "SubnetAppStoreV2",
  "sourceName": "contracts/SubnetAppStoreV2.sol",
  "abi": [
    {
      "inputs": [
        {
          "internalType": "address",
          "name": "target",
          "type": "address"
        }
      ],
      "name": "AddressEmptyCode",
      "type": "error"
    },
    {
      "inputs": [
        {
          "internalType": "address",
          "name": "account",
          "type": "address"
        }
      ],
      "name": "AddressInsufficientBalance",
      "type": "error"
    },
    {
      "inputs": [],
      "name": "ECDSAInvalidSignature",
      "type": "error"
    },
    {
      "inputs": [
        {
          "internalType": "uint256",
          "name": "length",
          "type": "uint256"
        }
      ],
      "name": "ECDSAInvalidSignatureLength",
      "type": "error"
    },
    {
      "inputs": [
        {
          "internalType": "bytes32",
          "name": "s",
          "type": "bytes32"
        }
      ],
      "name": "ECDSAInvalidSignatureS",
      "type": "error"
    },
    {
      "inputs": [],
      "name": "FailedInnerCall",
      "type": "error"
    },
    {
      "inputs": [],
      "name": "InvalidInitialization",
      "type": "error"
    },
    {
      "inputs": [],
      "name": "NotInitializing",
      "type": "error"
    },
    {
      "inputs": [
        {
          "internalType": "address",
          "name": "owner",
          "type": "address"
        }
      ],
      "name": "OwnableInvalidOwner",
      "type": "error"
    },
    {
      "inputs": [
        {
          "internalType": "address",
          "name": "account",
          "type": "address"
        }
      ],
      "name": "OwnableUnauthorizedAccount",
      "type": "error"
    },
    {
      "inputs": [
        {
          "internalType": "address",
          "name": "token",
          "type": "address"
        }
      ],
      "name": "SafeERC20FailedOperation",
      "type": "error"
    },
    {
      "anonymous": false,
      "inputs": [
        {
          "indexed": true,
          "internalType": "uint256",
          "name": "appId",
          "type": "uint256"
        },
        {
          "indexed": false,
          "internalType": "string",
          "name": "name",
          "type": "string"
        },
        {
          "indexed": false,
          "internalType": "string",
          "name": "symbol",
          "type": "string"
        },
        {
          "indexed": true,
          "internalType": "address",
          "name": "owner",
          "type": "address"
        },
        {
          "indexed": false,
          "internalType": "uint256",
          "name": "budget",
          "type": "uint256"
        }
      ],
      "name": "AppCreated",
      "type": "event"
    },
    {
      "anonymous": false,
      "inputs": [
        {
          "indexed": false,
          "internalType": "uint256",
          "name": "appId",
          "type": "uint256"
        }
      ],
      "name": "AppUpdated",
      "type": "event"
    },
    {
      "anonymous": false,
      "inputs": [
        {
          "indexed": true,
          "internalType": "uint256",
          "name": "appId",
          "type": "uint256"
        },
        {
          "indexed": false,
          "internalType": "uint256",
          "name": "amount",
          "type": "uint256"
        }
      ],
      "name": "BudgetDeposited",
      "type": "event"
    },
    {
      "anonymous": false,
      "inputs": [
        {
          "indexed": true,
          "internalType": "uint256",
          "name": "appId",
          "type": "uint256"
        },
        {
          "indexed": false,
          "internalType": "uint256",
          "name": "amount",
          "type": "uint256"
        }
      ],
      "name": "BudgetRefunded",
      "type": "event"
    },
    {
      "anonymous": false,
      "inputs": [
        {
          "indexed": true,
          "internalType": "uint256",
          "name": "providerId",
          "type": "uint256"
        },
        {
          "indexed": true,
          "internalType": "uint256",
          "name": "appId",
          "type": "uint256"
        }
      ],
      "name": "DeploymentClosed",
      "type": "event"
    },
    {
      "anonymous": false,
      "inputs": [
        {
          "indexed": true,
          "internalType": "uint256",
          "name": "providerId",
          "type": "uint256"
        },
        {
          "indexed": true,
          "internalType": "uint256",
          "name": "appId",
          "type": "uint256"
        }
      ],
      "name": "DeploymentCreated",
      "type": "event"
    },
    {
      "anonymous": false,
      "inputs": [],
      "name": "EIP712DomainChanged",
      "type": "event"
    },
    {
      "anonymous": false,
      "inputs": [
        {
          "indexed": false,
          "internalType": "uint64",
          "name": "version",
          "type": "uint64"
        }
      ],
      "name": "Initialized",
      "type": "event"
    },
    {
      "anonymous": false,
      "inputs": [
        {
          "indexed": true,
          "internalType": "uint256",
          "name": "appId",
          "type": "uint256"
        },
        {
          "indexed": false,
          "internalType": "uint256",
          "name": "reward",
          "type": "uint256"
        },
        {
          "indexed": false,
          "internalType": "uint256",
          "name": "protocolFees",
          "type": "uint256"
        },
        {
          "indexed": false,
          "internalType": "uint256",
          "name": "verifierFees",
          "type": "uint256"
        },
        {
          "indexed": true,
          "internalType": "address",
          "name": "provider",
          "type": "address"
        },
        {
          "indexed": true,
          "internalType": "address",
          "name": "verifier",
          "type": "address"
        }
      ],
      "name": "LockedRewardPaid",
      "type": "event"
    },
    {
      "anonymous": false,
      "inputs": [
        {
          "indexed": true,
          "internalType": "address",
          "name": "previousOwner",
          "type": "address"
        },
        {
          "indexed": true,
          "internalType": "address",
          "name": "newOwner",
          "type": "address"
        }
      ],
      "name": "OwnershipTransferred",
      "type": "event"
    },
    {
      "anonymous": false,
      "inputs": [
        {
          "indexed": true,
          "internalType": "uint256",
          "name": "appId",
          "type": "uint256"
        },
        {
          "indexed": true,
          "internalType": "uint256",
          "name": "providerId",
          "type": "uint256"
        },
        {
          "indexed": false,
          "internalType": "uint256",
          "name": "amount",
          "type": "uint256"
        }
      ],
      "name": "ProviderRefunded",
      "type": "event"
    },
    {
      "anonymous": false,
      "inputs": [
        {
          "indexed": true,
          "internalType": "uint256",
          "name": "appId",
          "type": "uint256"
        },
        {
          "indexed": true,
          "internalType": "uint256",
          "name": "providerId",
          "type": "uint256"
        },
        {
          "indexed": false,
          "internalType": "uint256",
          "name": "reward",
          "type": "uint256"
        },
        {
          "indexed": false,
          "internalType": "uint256",
          "name": "unlockTime",
          "type": "uint256"
        }
      ],
      "name": "RewardClaimed",
      "type": "event"
    },
    {
      "anonymous": false,
      "inputs": [
        {
          "indexed": true,
          "internalType": "uint256",
          "name": "appId",
          "type": "uint256"
        },
        {
          "indexed": true,
          "internalType": "uint256",
          "name": "providerId",
          "type": "uint256"
        },
        {
          "indexed": false,
          "internalType": "string",
          "name": "peerId",
          "type": "string"
        },
        {
          "indexed": false,
          "internalType": "uint256",
          "name": "usedCpu",
          "type": "uint256"
        },
        {
          "indexed": false,
          "internalType": "uint256",
          "name": "usedGpu",
          "type": "uint256"
        },
        {
          "indexed": false,
          "internalType": "uint256",
          "name": "usedMemory",
          "type": "uint256"
        },
        {
          "indexed": false,
          "internalType": "uint256",
          "name": "usedStorage",
          "type": "uint256"
        },
        {
          "indexed": false,
          "internalType": "uint256",
          "name": "usedUploadBytes",
          "type": "uint256"
        },
        {
          "indexed": false,
          "internalType": "uint256",
          "name": "usedDownloadBytes",
          "type": "uint256"
        },
        {
          "indexed": false,
          "internalType": "uint256",
          "name": "duration",
          "type": "uint256"
        },
        {
          "indexed": false,
          "internalType": "uint256",
          "name": "timestamp",
          "type": "uint256"
        },
        {
          "indexed": false,
          "internalType": "uint256",
          "name": "reward",
          "type": "uint256"
        }
      ],
      "name": "UsageReported",
      "type": "event"
    },
    {
      "anonymous": false,
      "inputs": [
        {
          "indexed": true,
          "internalType": "address",
          "name": "verifier",
          "type": "address"
        },
        {
          "indexed": false,
          "internalType": "uint256",
          "name": "reward",
          "type": "uint256"
        }
      ],
      "name": "VerifierRewardClaimed",
      "type": "event"
    },
    {
      "inputs": [],
      "name": "appCount",
      "outputs": [
        {
          "internalType": "uint256",
          "name": "",
          "type": "uint256"
        }
      ],
      "stateMutability": "view",
      "type": "function"
    },
    {
      "inputs": [
        {
          "internalType": "uint256",
          "name": "",
          "type": "uint256"
        }
      ],
      "name": "apps",
      "outputs": [
        {
          "internalType": "address",
          "name": "owner",
          "type": "address"
        },
        {
          "internalType": "address",
          "name": "operator",
          "type": "address"
        },
        {
          "internalType": "address",
          "name": "verifier",
          "type": "address"
        },
        {
          "internalType": "string",
          "name": "name",
          "type": "string"
        },
        {
          "internalType": "string",
          "name": "symbol",
          "type": "string"
        },
        {
          "internalType": "uint256",
          "name": "budget",
          "type": "uint256"
        },
        {
          "internalType": "uint256",
          "name": "spentBudget",
          "type": "uint256"
        },
        {
          "internalType": "uint256",
          "name": "pricePerCpu",
          "type": "uint256"
        },
        {
          "internalType": "uint256",
          "name": "pricePerGpu",
          "type": "uint256"
        },
        {
          "internalType": "uint256",
          "name": "pricePerMemoryGB",
          "type": "uint256"
        },
        {
          "internalType": "uint256",
          "name": "pricePerStorageGB",
          "type": "uint256"
        },
        {
          "internalType": "uint256",
          "name": "pricePerBandwidthGB",
          "type": "uint256"
        },
        {
          "internalType": "string",
          "name": "metadata",
          "type": "string"
        },
        {
          "internalType": "address",
          "name": "paymentToken",
          "type": "address"
        }
      ],
      "stateMutability": "view",
      "type": "function"
    },
    {
      "inputs": [
        {
          "internalType": "uint256",
          "name": "appId",
          "type": "uint256"
        },
        {
          "internalType": "uint256",
          "name": "usedCpu",
          "type": "uint256"
        },
        {
          "internalType": "uint256",
          "name": "usedGpu",
          "type": "uint256"
        },
        {
          "internalType": "uint256",
          "name": "usedMemory",
          "type": "uint256"
        },
        {
          "internalType": "uint256",
          "name": "usedStorage",
          "type": "uint256"
        },
        {
          "internalType": "uint256",
          "name": "usedUploadBytes",
          "type": "uint256"
        },
        {
          "internalType": "uint256",
          "name": "usedDownloadBytes",
          "type": "uint256"
        },
        {
          "internalType": "uint256",
          "name": "duration",
          "type": "uint256"
        }
      ],
      "name": "calculateReward",
      "outputs": [
        {
          "internalType": "uint256",
          "name": "reward",
          "type": "uint256"
        }
      ],
      "stateMutability": "view",
      "type": "function"
    },
    {
      "inputs": [
        {
          "internalType": "uint256",
          "name": "providerId",
          "type": "uint256"
        },
        {
          "internalType": "uint256",
          "name": "appId",
          "type": "uint256"
        }
      ],
      "name": "claimReward",
      "outputs": [],
      "stateMutability": "nonpayable",
      "type": "function"
    },
    {
      "inputs": [
        {
          "internalType": "string",
          "name": "name",
          "type": "string"
        },
        {
          "internalType": "string",
          "name": "symbol",
          "type": "string"
        },
        {
          "internalType": "string[]",
          "name": "peerIds",
          "type": "string[]"
        },
        {
          "internalType": "uint256",
          "name": "budget",
          "type": "uint256"
        },
        {
          "internalType": "uint256",
          "name": "pricePerCpu",
          "type": "uint256"
        },
        {
          "internalType": "uint256",
          "name": "pricePerGpu",
          "type": "uint256"
        },
        {
          "internalType": "uint256",
          "name": "pricePerMemoryGB",
          "type": "uint256"
        },
        {
          "internalType": "uint256",
          "name": "pricePerStorageGB",
          "type": "uint256"
        },
        {
          "internalType": "uint256",
          "name": "pricePerBandwidthGB",
          "type": "uint256"
        },
        {
          "internalType": "string",
          "name": "metadata",
          "type": "string"
        },
        {
          "internalType": "address",
          "name": "operator",
          "type": "address"
        },
        {
          "internalType": "address",
          "name": "verifier",
          "type": "address"
        },
        {
          "internalType": "address",
          "name": "paymentToken",
          "type": "address"
        }
      ],
      "name": "createApp",
      "outputs": [
        {
          "internalType": "uint256",
          "name": "",
          "type": "uint256"
        }
      ],
      "stateMutability": "nonpayable",
      "type": "function"
    },
    {
      "inputs": [
        {
          "internalType": "uint256",
          "name": "appId",
          "type": "uint256"
        },
        {
          "internalType": "uint256",
          "name": "amount",
          "type": "uint256"
        }
      ],
      "name": "deposit",
      "outputs": [],
      "stateMutability": "nonpayable",
      "type": "function"
    },
    {
      "inputs": [],
      "name": "eip712Domain",
      "outputs": [
        {
          "internalType": "bytes1",
          "name": "fields",
          "type": "bytes1"
        },
        {
          "internalType": "string",
          "name": "name",
          "type": "string"
        },
        {
          "internalType": "string",
          "name": "version",
          "type": "string"
        },
        {
          "internalType": "uint256",
          "name": "chainId",
          "type": "uint256"
        },
        {
          "internalType": "address",
          "name": "verifyingContract",
          "type": "address"
        },
        {
          "internalType": "bytes32",
          "name": "salt",
          "type": "bytes32"
        },
        {
          "internalType": "uint256[]",
          "name": "extensions",
          "type": "uint256[]"
        }
      ],
      "stateMutability": "view",
      "type": "function"
    },
    {
      "inputs": [],
      "name": "feeRate",
      "outputs": [
        {
          "internalType": "uint256",
          "name": "",
          "type": "uint256"
        }
      ],
      "stateMutability": "view",
      "type": "function"
    },
    {
      "inputs": [
        {
          "internalType": "uint256",
          "name": "appId",
          "type": "uint256"
        }
      ],
      "name": "getApp",
      "outputs": [
        {
          "components": [
            {
              "internalType": "string[]",
              "name": "peerIds",
              "type": "string[]"
            },
            {
              "internalType": "address",
              "name": "owner",
              "type": "address"
            },
            {
              "internalType": "address",
              "name": "operator",
              "type": "address"
            },
            {
              "internalType": "address",
              "name": "verifier",
              "type": "address"
            },
            {
              "internalType": "string",
              "name": "name",
              "type": "string"
            },
            {
              "internalType": "string",
              "name": "symbol",
              "type": "string"
            },
            {
              "internalType": "uint256",
              "name": "budget",
              "type": "uint256"
            },
            {
              "internalType": "uint256",
              "name": "spentBudget",
              "type": "uint256"
            },
            {
              "internalType": "uint256",
              "name": "pricePerCpu",
              "type": "uint256"
            },
            {
              "internalType": "uint256",
              "name": "pricePerGpu",
              "type": "uint256"
            },
            {
              "internalType": "uint256",
              "name": "pricePerMemoryGB",
              "type": "uint256"
            },
            {
              "internalType": "uint256",
              "name": "pricePerStorageGB",
              "type": "uint256"
            },
            {
              "internalType": "uint256",
              "name": "pricePerBandwidthGB",
              "type": "uint256"
            },
            {
              "internalType": "string",
              "name": "metadata",
              "type": "string"
            },
            {
              "internalType": "address",
              "name": "paymentToken",
              "type": "address"
            }
          ],
          "internalType": "struct SubnetAppStore.App",
          "name": "app",
          "type": "tuple"
        }
      ],
      "stateMutability": "view",
      "type": "function"
    },
    {
      "inputs": [
        {
          "internalType": "uint256",
          "name": "appId",
          "type": "uint256"
        },
        {
          "internalType": "uint256",
          "name": "providerId",
          "type": "uint256"
        }
      ],
      "name": "getLockedReward",
      "outputs": [
        {
          "components": [
            {
              "internalType": "uint256",
              "name": "reward",
              "type": "uint256"
            },
            {
              "internalType": "uint256",
              "name": "unlockTime",
              "type": "uint256"
            },
            {
              "internalType": "address",
              "name": "verifier",
              "type": "address"
            }
          ],
          "internalType": "struct SubnetAppStore.LockedReward",
          "name": "",
          "type": "tuple"
        }
      ],
      "stateMutability": "view",
      "type": "function"
    },
    {
      "inputs": [
        {
          "internalType": "uint256",
          "name": "appId",
          "type": "uint256"
        },
        {
          "internalType": "uint256",
          "name": "providerId",
          "type": "uint256"
        }
      ],
      "name": "getPendingReward",
      "outputs": [
        {
          "internalType": "uint256",
          "name": "",
          "type": "uint256"
        }
      ],
      "stateMutability": "view",
      "type": "function"
    },
    {
      "inputs": [
        {
          "internalType": "address",
          "name": "_subnetProvider",
          "type": "address"
        },
        {
          "internalType": "address",
          "name": "initialOwner",
          "type": "address"
        },
        {
          "internalType": "address",
          "name": "_treasury",
          "type": "address"
        },
        {
          "internalType": "uint256",
          "name": "_feeRate",
          "type": "uint256"
        },
        {
          "internalType": "uint256",
          "name": "_rewardLockDuration",
          "type": "uint256"
        }
      ],
      "name": "initialize",
      "outputs": [],
      "stateMutability": "nonpayable",
      "type": "function"
    },
    {
      "inputs": [
        {
          "internalType": "uint256",
          "name": "start",
          "type": "uint256"
        },
        {
          "internalType": "uint256",
          "name": "end",
          "type": "uint256"
        }
      ],
      "name": "listApps",
      "outputs": [
        {
          "components": [
            {
              "internalType": "string[]",
              "name": "peerIds",
              "type": "string[]"
            },
            {
              "internalType": "address",
              "name": "owner",
              "type": "address"
            },
            {
              "internalType": "address",
              "name": "operator",
              "type": "address"
            },
            {
              "internalType": "address",
              "name": "verifier",
              "type": "address"
            },
            {
              "internalType": "string",
              "name": "name",
              "type": "string"
            },
            {
              "internalType": "string",
              "name": "symbol",
              "type": "string"
            },
            {
              "internalType": "uint256",
              "name": "budget",
              "type": "uint256"
            },
            {
              "internalType": "uint256",
              "name": "spentBudget",
              "type": "uint256"
            },
            {
              "internalType": "uint256",
              "name": "pricePerCpu",
              "type": "uint256"
            },
            {
              "internalType": "uint256",
              "name": "pricePerGpu",
              "type": "uint256"
            },
            {
              "internalType": "uint256",
              "name": "pricePerMemoryGB",
              "type": "uint256"
            },
            {
              "internalType": "uint256",
              "name": "pricePerStorageGB",
              "type": "uint256"
            },
            {
              "internalType": "uint256",
              "name": "pricePerBandwidthGB",
              "type": "uint256"
            },
            {
              "internalType": "string",
              "name": "metadata",
              "type": "string"
            },
            {
              "internalType": "address",
              "name": "paymentToken",
              "type": "address"
            }
          ],
          "internalType": "struct SubnetAppStore.App[]",
          "name": "",
          "type": "tuple[]"
        }
      ],
      "stateMutability": "view",
      "type": "function"
    },
    {
      "inputs": [
        {
          "internalType": "uint256",
          "name": "",
          "type": "uint256"
        },
        {
          "internalType": "uint256",
          "name": "",
          "type": "uint256"
        }
      ],
      "name": "lockedRewards",
      "outputs": [
        {
          "internalType": "uint256",
          "name": "reward",
          "type": "uint256"
        },
        {
          "internalType": "uint256",
          "name": "unlockTime",
          "type": "uint256"
        },
        {
          "internalType": "address",
          "name": "verifier",
          "type": "address"
        }
      ],
      "stateMutability": "view",
      "type": "function"
    },
    {
      "inputs": [],
      "name": "owner",
      "outputs": [
        {
          "internalType": "address",
          "name": "",
          "type": "address"
        }
      ],
      "stateMutability": "view",
      "type": "function"
    },
    {
      "inputs": [
        {
          "internalType": "uint256",
          "name": "",
          "type": "uint256"
        },
        {
          "internalType": "uint256",
          "name": "",
          "type": "uint256"
        }
      ],
      "name": "pendingRewards",
      "outputs": [
        {
          "internalType": "uint256",
          "name": "",
          "type": "uint256"
        }
      ],
      "stateMutability": "view",
      "type": "function"
    },
    {
      "inputs": [
        {
          "internalType": "uint256",
          "name": "appId",
          "type": "uint256"
        }
      ],
      "name": "refund",
      "outputs": [],
      "stateMutability": "nonpayable",
      "type": "function"
    },
    {
      "inputs": [
        {
          "internalType": "uint256",
          "name": "appId",
          "type": "uint256"
        },
        {
          "internalType": "uint256",
          "name": "providerId",
          "type": "uint256"
        }
      ],
      "name": "refundProvider",
      "outputs": [],
      "stateMutability": "nonpayable",
      "type": "function"
    },
    {
      "inputs": [],
      "name": "renounceOwnership",
      "outputs": [],
      "stateMutability": "nonpayable",
      "type": "function"
    },
    {
      "inputs": [
        {
          "internalType": "uint256",
          "name": "appId",
          "type": "uint256"
        },
        {
          "internalType": "uint256",
          "name": "providerId",
          "type": "uint256"
        },
        {
          "internalType": "string",
          "name": "peerId",
          "type": "string"
        },
        {
          "internalType": "uint256",
          "name": "usedCpu",
          "type": "uint256"
        },
        {
          "internalType": "uint256",
          "name": "usedGpu",
          "type": "uint256"
        },
        {
          "internalType": "uint256",
          "name": "usedMemory",
          "type": "uint256"
        },
        {
          "internalType": "uint256",
          "name": "usedStorage",
          "type": "uint256"
        },
        {
          "internalType": "uint256",
          "name": "usedUploadBytes",
          "type": "uint256"
        },
        {
          "internalType": "uint256",
          "name": "usedDownloadBytes",
          "type": "uint256"
        },
        {
          "internalType": "uint256",
          "name": "duration",
          "type": "uint256"
        },
        {
          "internalType": "uint256",
          "name": "timestamp",
          "type": "uint256"
        },
        {
          "internalType": "bytes",
          "name": "signature",
          "type": "bytes"
        }
      ],
      "name": "reportUsage",
      "outputs": [],
      "stateMutability": "nonpayable",
      "type": "function"
    },
    {
      "inputs": [],
      "name": "rewardLockDuration",
      "outputs": [
        {
          "internalType": "uint256",
          "name": "",
          "type": "uint256"
        }
      ],
      "stateMutability": "view",
      "type": "function"
    },
    {
      "inputs": [
        {
          "internalType": "uint256",
          "name": "_feeRate",
          "type": "uint256"
        }
      ],
      "name": "setFeeRate",
      "outputs": [],
      "stateMutability": "nonpayable",
      "type": "function"
    },
    {
      "inputs": [
        {
          "internalType": "uint256",
          "name": "_rewardLockDuration",
          "type": "uint256"
        }
      ],
      "name": "setRewardLockDuration",
      "outputs": [],
      "stateMutability": "nonpayable",
      "type": "function"
    },
    {
      "inputs": [
        {
          "internalType": "address",
          "name": "_treasury",
          "type": "address"
        }
      ],
      "name": "setTreasury",
      "outputs": [],
      "stateMutability": "nonpayable",
      "type": "function"
    },
    {
      "inputs": [
        {
          "internalType": "uint256",
          "name": "_verifierRewardRate",
          "type": "uint256"
        }
      ],
      "name": "setVerifierRewardRate",
      "outputs": [],
      "stateMutability": "nonpayable",
      "type": "function"
    },
    {
      "inputs": [],
      "name": "subnetProvider",
      "outputs": [
        {
          "internalType": "contract SubnetProvider",
          "name": "",
          "type": "address"
        }
      ],
      "stateMutability": "view",
      "type": "function"
    },
    {
      "inputs": [
        {
          "internalType": "string",
          "name": "",
          "type": "string"
        }
      ],
      "name": "symbolToAppId",
      "outputs": [
        {
          "internalType": "uint256",
          "name": "",
          "type": "uint256"
        }
      ],
      "stateMutability": "view",
      "type": "function"
    },
    {
      "inputs": [
        {
          "internalType": "address",
          "name": "newOwner",
          "type": "address"
        }
      ],
      "name": "transferOwnership",
      "outputs": [],
      "stateMutability": "nonpayable",
      "type": "function"
    },
    {
      "inputs": [],
      "name": "treasury",
      "outputs": [
        {
          "internalType": "address",
          "name": "",
          "type": "address"
        }
      ],
      "stateMutability": "view",
      "type": "function"
    },
    {
      "inputs": [
        {
          "internalType": "uint256",
          "name": "appId",
          "type": "uint256"
        },
        {
          "internalType": "uint256",
          "name": "pricePerCpu",
          "type": "uint256"
        },
        {
          "internalType": "uint256",
          "name": "pricePerGpu",
          "type": "uint256"
        },
        {
          "internalType": "uint256",
          "name": "pricePerMemoryGB",
          "type": "uint256"
        },
        {
          "internalType": "uint256",
          "name": "pricePerStorageGB",
          "type": "uint256"
        },
        {
          "internalType": "uint256",
          "name": "pricePerBandwidthGB",
          "type": "uint256"
        }
      ],
      "name": "updateApp",
      "outputs": [],
      "stateMutability": "nonpayable",
      "type": "function"
    },
    {
      "inputs": [
        {
          "internalType": "uint256",
          "name": "appId",
          "type": "uint256"
        },
        {
          "internalType": "string",
          "name": "metadata",
          "type": "string"
        }
      ],
      "name": "updateMetadata",
      "outputs": [],
      "stateMutability": "nonpayable",
      "type": "function"
    },
    {
      "inputs": [
        {
          "internalType": "uint256",
          "name": "appId",
          "type": "uint256"
        },
        {
          "internalType": "string",
          "name": "name",
          "type": "string"
        }
      ],
      "name": "updateName",
      "outputs": [],
      "stateMutability": "nonpayable",
      "type": "function"
    },
    {
      "inputs": [
        {
          "internalType": "uint256",
          "name": "appId",
          "type": "uint256"
        },
        {
          "internalType": "address",
          "name": "operator",
          "type": "address"
        }
      ],
      "name": "updateOperator",
      "outputs": [],
      "stateMutability": "nonpayable",
      "type": "function"
    },
    {
      "inputs": [
        {
          "internalType": "uint256",
          "name": "appId",
          "type": "uint256"
        },
        {
          "internalType": "string[]",
          "name": "peerIds",
          "type": "string[]"
        }
      ],
      "name": "updatePeerId",
      "outputs": [],
      "stateMutability": "nonpayable",
      "type": "function"
    },
    {
      "inputs": [
        {
          "internalType": "uint256",
          "name": "appId",
          "type": "uint256"
        },
        {
          "internalType": "address",
          "name": "verifier",
          "type": "address"
        }
      ],
      "name": "updateVerifier",
      "outputs": [],
      "stateMutability": "nonpayable",
      "type": "function"
    },
    {
      "inputs": [
        {
          "internalType": "bytes32",
          "name": "",
          "type": "bytes32"
        }
      ],
      "name": "usedMessageHashes",
      "outputs": [
        {
          "internalType": "bool",
          "name": "",
          "type": "bool"
        }
      ],
      "stateMutability": "view",
      "type": "function"
    },
    {
      "inputs": [],
      "name": "verifierRewardRate",
      "outputs": [
        {
          "internalType": "uint256",
          "name": "",
          "type": "uint256"
        }
      ],
      "stateMutability": "view",
      "type": "function"
    }
  ],
  "bytecode": "0x6080806040523461001657613e54908161001c8239f35b600080fdfe6080604052600436101561001257600080fd5b60003560e01c80630e269c6b14612f6d57806324f3a51b14612ec9578063259e6d1614612c02578063278ecde114612b00578063293de35414612a435780633b81eefc146129f05780633d2055591461285957806345596e2e146127ea5780634deab039146120a457806353c8388e14611f0e57806353e76f2c14611d4a5780635ef819ce146106e057806361acc37e14611c3457806361d027b314611c0b5780636252bda214611ad35780636a46dc8c14611aaa578063715018a614611a4057806384b0196e146118e557806386bb8f371461138557806386f660181461134957806387d69207146113185780638da5cb5b146112e25780638f4e980d14610c4c578063978bbdb914610c2e578063a6b63eb814610731578063b55ca2c314610713578063b64fe5c3146106e0578063c65a391d146105f9578063c7f626c8146105db578063c8f2e3bb1461054d578063c93381f01461052f578063cb4b2360146104d3578063d2f5580214610450578063e2bbb1581461035f578063f0f44260146102d2578063f28ef0e8146101e35763f2fde38b146101b357600080fd5b346101de5760203660031901126101de576101dc6101cf61328e565b6101d761355f565b613598565b005b600080fd5b346101de5760c03660031901126101de57600435600081815260026020526040902060018101546001600160a01b0316330361027b5781602091600080516020613dff8339815191529315158061026f575b61023e906137f8565b60243560088201556044356009820155606435600a820155608435600b820155600c60a435910155604051908152a1005b50600154821115610235565b60405162461bcd60e51b815260206004820152602960248201527f4f6e6c7920746865206f776e65722063616e2075706461746520746865206170604482015268383634b1b0ba34b7b760b91b6064820152608490fd5b346101de5760203660031901126101de576102eb61328e565b6102f361355f565b6001600160a01b0316801561031a576001600160601b0360a01b6006541617600655600080f35b60405162461bcd60e51b815260206004820152601860248201527f496e76616c6964207472656173757279206164647265737300000000000000006044820152606490fd5b346101de5761036d366132a4565b600082815260026020526040902060018101546001600160a01b039290831633036104015760066020926103de837f7fa8170314b2ec131ba6754af9b3e7428a0bd93e1f6f31356422785f25cebedd96881515806103f5575b6103cf906137f8565b600e8401541630903390613686565b016103ea828254613844565b9055604051908152a2005b506001548911156103c6565b60405162461bcd60e51b815260206004820152602160248201527f4f6e6c7920746865206f776e65722063616e206465706f7369742062756467656044820152601d60fa1b6064820152608490fd5b346101de5760203660031901126101de5760043561046c61355f565b6103e8811161047a57600855005b60405162461bcd60e51b815260206004820152602b60248201527f5665726966696572207265776172642072617465206d757374206265203c3d2060448201526a313030302028313030252960a81b6064820152608490fd5b346101de5760203660031901126101de576004356001600160401b0381116101de5761051c6020610509819336906004016131da565b8160405193828580945193849201612f8e565b8101600381520301902054604051908152f35b346101de5760003660031901126101de576020600854604051908152f35b346101de5761055b366132a4565b9060006040805161056b816130fe565b8281528260208201520152600052600a60205260406000209060005260205260606040600020600260405161059f816130fe565b82549283825260406001820154916020840192835260018060a01b03948591015416920191825260405193845251602084015251166040820152f35b346101de5760003660031901126101de576020600054604051908152f35b346101de5760403660031901126101de57600435610615613278565b600082815260026020526040902060018101546001600160a01b03939192908416330361068c57600080516020613dff83398151915293600260209484151580610680575b610663906137f8565b0191166001600160601b0360a01b825416179055604051908152a1005b5060015485111561065a565b60405162461bcd60e51b815260206004820152602660248201527f4f6e6c7920746865206f776e65722063616e2075706461746520746865206f7060448201526532b930ba37b960d11b6064820152608490fd5b346101de576106ee366132a4565b9060005260096020526040600020906000526020526020604060002054604051908152f35b346101de5760003660031901126101de576020600154604051908152f35b346101de5760a03660031901126101de5761074a61328e565b610752613278565b6044356001600160a01b038181169392918490036101de577ff0c57e16840df040f15088dc2f81fe391c3923bec73e23a9662efc9c229c6a009384549260ff8460401c1615926001600160401b039586861695861580610c27575b60018098149081610c1d575b159081610c14575b50610c025767ffffffffffffffff1981168717895585610be3575b5016918215610b9e57610822926001600160601b0360a01b90816004541617600455600654161760065560643560075560843560005561081a61360c565b6101d761360c565b60405161082e81613135565b600e81526020936d5375626e657441707053746f726560901b858301526040519161085883613135565b848352603160f81b8684015261086c61360c565b61087461360c565b8051828111610ab1577fa16a46d94261c7517cc8ff89f61c0ce93598e3c849801011dee649a6a557d10290806108aa83546132e9565b93601f948a868211610b52575b50508990858311600114610ad257600092610ac7575b5050600019600383901b1c191690871b1790555b8251918211610ab15781907fa16a46d94261c7517cc8ff89f61c0ce93598e3c849801011dee649a6a557d1039361091885546132e9565b828111610a5c575b50879183116001146109dc576000926109d1575b5050600019600383901b1c191690841b1790555b60007fa16a46d94261c7517cc8ff89f61c0ce93598e3c849801011dee649a6a557d1005560007fa16a46d94261c7517cc8ff89f61c0ce93598e3c849801011dee649a6a557d1015561099657005b7fc7f505b2f371ae2175ee4913f4499e1f2633a7b5936321eed1cdaeb6115181d29268ff0000000000000000198154169055604051908152a1005b015190508780610934565b90869350601f19831691856000527f5f9ce34815f8e11431c7bb75a8e6886a91478f7ffc1dbb0a98dc240fddd76b759260005b8a828210610a465750508411610a2d575b505050811b019055610948565b015160001960f88460031b161c19169055878080610a20565b8385015186558a97909501949384019301610a0f565b610aa290866000527f5f9ce34815f8e11431c7bb75a8e6886a91478f7ffc1dbb0a98dc240fddd76b758480870160051c8201928c8810610aa8575b0160051c019061364d565b89610920565b92508192610a97565b634e487b7160e01b600052604160045260246000fd5b015190508a806108cd565b90899350601f19831691856000527f42ad5d3e1f2e6e70edcf6d991b8a3023d3fca8047a131592f9edb9fd9b89d57d9260005b8d828210610b3c5750508411610b23575b505050811b0190556108e1565b015160001960f88460031b161c191690558a8080610b16565b8385015186558d97909501949384019301610b05565b610b979186600052877f42ad5d3e1f2e6e70edcf6d991b8a3023d3fca8047a131592f9edb9fd9b89d57d9181870160051c8301938710610aa8570160051c019061364d565b8b8a6108b7565b60405162461bcd60e51b815260206004820152601e60248201527f496e76616c6964205375626e657450726f7669646572206164647265737300006044820152606490fd5b68ffffffffffffffffff191668010000000000000001178855886107dc565b60405163f92ee8a960e01b8152600490fd5b9050158a6107c1565b303b1591506107b9565b50856107ad565b346101de5760003660031901126101de576020600754604051908152f35b346101de576101803660031901126101de576044356001600160401b0381116101de57610c7d9036906004016131da565b610164356001600160401b0381116101de57366023820112156101de57610cae9036906024816004013591016131a3565b6004351515806112d4575b1561129e57600435600052600260205260406000206006810154600782015410156112625760018060a01b03600454166000604051809263197fecbb60e21b82526024356004830152604060248301528180610d18604482018a612fb1565b03915afa908115611256576000916111ba575b50511561117557610d54610124356101043560e43560c43560a435608435606435600435613d18565b91604051806101608101106001600160401b0361016083011117610ab1576101608101604052602435815260043560208201528460408201526064356060820152608435608082015260a43560a082015260c43560c082015260e43560e082015261010435610100820152610124356101208201526101406101443591015283516020850120604051907f4500d14c6b7928518a97a16f19fae33ad454e71678066b559228b2a92e1de823602083015260043560408301526024356060830152608082015260643560a082015260843560c082015260a43560e082015260c43561010082015260e4356101208201526101043561014082015261012435610160820152610144356101808201526101808152806101a08101106001600160401b036101a083011117610ab1576101a0810160405260208151910120610e97613893565b90610ea06138fd565b604051927f8b73c3c69bb8fe3d512ecc4cf759cc79239f7b179b0ffacaa9a75d522b39400f6020850152604084015260608301524660808301523060a083015260a082528160c08101106001600160401b0360c084011117610ab1578160c09182604294016040528151602083012061190160f01b8484015260c283015260e2820152012080600052600560205260ff6040600020541661113757610f6a9181610f619260005260056020526040600020600160ff19825416179055613942565b90929192613a0e565b60018201546001600160a01b0391821691168114908115611120575b8115611109575b50156110b4576006810154610fa6836007840154613844565b1161107957600435600052600960205260406000206024356000526020526040600020610fd4838254613844565b90556007610fe58382840154613844565b910155610fff604051926101408452610140840190612fb1565b906064356020840152608435604084015260a435606084015260c435608084015260e43560a08401526101043560c08401526101243560e0840152610144356101008401526101208301527ffe8684dcefddcc03bc46e198108fa6b7b15a09efe6e1935975111e9bfdf5deec6024359280600435930390a3005b60405162461bcd60e51b8152602060048201526013602482015272125b9cdd59999a58da595b9d08189d5919d95d606a1b6044820152606490fd5b60405162461bcd60e51b815260206004820152602760248201527f496e76616c696420617070206f776e6572206f72206f70657261746f72207369604482015266676e617475726560c81b6064820152608490fd5b60038301546001600160a01b031614905084610f8d565b60028301546001600160a01b031681149150610f86565b60405162461bcd60e51b815260206004820152601660248201527514995c1b185e48185d1d1858dac819195d1958dd195960521b6044820152606490fd5b60405162461bcd60e51b815260206004820152601860248201527f50656572206e6f6465206e6f74207265676973746572656400000000000000006044820152606490fd5b90503d806000833e6111cc8183613150565b60208282810103126101de578151916001600160401b0383116101de57604083820183830103126101de57604051928360408101106001600160401b03604086011117610ab157604084016040526112258183016136de565b845260208183010151906001600160401b0382116101de5761124b938301920101613851565b602082015284610d2b565b6040513d6000823e3d90fd5b60405162461bcd60e51b8152602060048201526014602482015273105c1c08189d5919d95d08195e1a185d5cdd195960621b6044820152606490fd5b60405162461bcd60e51b815260206004820152600e60248201526d125b9d985b1a5908105c1c08125160921b6044820152606490fd5b506001546004351115610cb9565b346101de5760003660031901126101de57600080516020613ddf833981519152546040516001600160a01b039091168152602090f35b346101de5760203660031901126101de576004356000526005602052602060ff604060002054166040519015158152f35b346101de576101003660031901126101de57602061137d60e43560c43560a435608435606435604435602435600435613d18565b604051908152f35b346101de57611393366132a4565b60048054604051635c42d07960e01b81529182018490526024916001600160a01b0391821691906000818581865afa908115611256576000916117fb575b508051156117b75760a081015161177e57516040519283916331a9108f60e11b83526004830152818560209586935afa90811561125657600091611749575b5081339116036116fb5783600052600a8252604060002085600052825260406000209260405190611440826130fe565b845482526001850154908185840152836002809701541691604084019283524211156116c5575081518061155f575b5050508360005260098252604060002085600052825260406000205461149157005b7f9a6343db5a6c68f88297e55b18a3f7a7bcd59a51ff0afacab4843b54936c817a926040926114c260005442613844565b9186600052600982528460002088600052825284600020549387600052818352806003876000200154169186516114f8816130fe565b8681528481018681528882019485528a600052600a8652886000208c60005286528860002091518255516001820155019151166001600160601b0360a01b8254161790558560005260098152836000208760005281526000848120558351928352820152a3005b838193600094600093600754801515806116b8575b611673575b505060085480151580611667575b611623575b506115a9908a6000528989523384600e6040600020015416613ab4565b5192511692604051928352858301526040820152857fe40666cfdde2893cc0954ef6f89e80ff06b7f462050503098b3329a1d3daaa0b60603393a483600052600a825260406000208560005282526000604081205583600052600a825260406000208560005282526000600160408220015585808061146f565b8194506103e8611639611641926115a994613673565b048095613aa7565b8a6000528989526116618585600e60406000200154168689511690613ab4565b9061158c565b50838651161515611587565b8197506116909250611688906103e892613673565b048096613aa7565b896000528888526116b18684600e6040600020015416856006541690613ab4565b8b80611579565b5084600654161515611574565b8460106064926040519262461bcd60e51b845260048401528201526f14995dd85c99081a5cc81b1bd8dad95960821b6044820152fd5b5060226084926040519262461bcd60e51b845260048401528201527f43616c6c6572206973206e6f7420746865206f776e6572206f6620746865204e604482015261119560f21b6064820152fd5b90508281813d8311611777575b6117608183613150565b810103126101de5761177190613a93565b86611410565b503d611756565b60405162461bcd60e51b81526020600482015260128186015271141c9bdd9a59195c881a5cc81a985a5b195960721b6044820152606490fd5b60405162461bcd60e51b8152602060048201526017818601527f50726f7669646572206e6f7420726567697374657265640000000000000000006044820152606490fd5b90503d806000833e61180d8183613150565b8101906020818303126101de5780516001600160401b03918282116101de57019160c0838203126101de576040519260c08401848110848211176118d0576040528051845260208101518381116101de578261186a918301613851565b602085015261187b60408201613a93565b604085015260608101518381116101de5782611898918301613851565b606085015260808101519283116101de576118ba60a0926118c5948301613851565b6080850152016136de565b60a0820152866113d1565b87634e487b7160e01b60005260416004526000fd5b346101de5760003660031901126101de577fa16a46d94261c7517cc8ff89f61c0ce93598e3c849801011dee649a6a557d100541580611a17575b156119da5761192c613323565b611934613403565b6040516020808201928284106001600160401b03851117610ab157918161198d859461197f979660405260008452604051978897600f60f81b895260e0858a015260e0890190612fb1565b908782036040890152612fb1565b91466060870152306080870152600060a087015285830360c0870152519182815201929160005b8281106119c357505050500390f35b8351855286955093810193928101926001016119b4565b60405162461bcd60e51b81526020600482015260156024820152741152540dcc4c8e88155b9a5b9a5d1a585b1a5e9959605a1b6044820152606490fd5b507fa16a46d94261c7517cc8ff89f61c0ce93598e3c849801011dee649a6a557d101541561191f565b346101de5760003660031901126101de57611a5961355f565b600080516020613ddf83398151915280546001600160a01b031981169091556000906001600160a01b03167f8be0079c531659141344cd1fd0a4f28419497f9722a3daafe3b4186f6b6457e08280a3005b346101de5760003660031901126101de576004546040516001600160a01b039091168152602090f35b346101de57611ae1366132a4565b9080600052602060028152604060002082151580611bff575b611b03906137f8565b611b1a60018060a01b036001830154163314613b03565b82600052600982526040600020846000528252611b5560406000205484600052600a8452604060002086600052845260406000205490613844565b908115611bcd579060077f968c359f1f36580744aa6aa2e36c2168a431decc06bb64cf7c4ad01b0a2477f6939201611b8e828254613aa7565b905583600052600a82526040600020856000528252600060408120558360005260098252604060002085600052825260006040812055604051908152a3005b60405162461bcd60e51b815260048101849052600a6024820152694e6f207265776172647360b01b6044820152606490fd5b50600154831115611afa565b346101de5760003660031901126101de576006546040516001600160a01b039091168152602090f35b346101de5760203660031901126101de5760043560005260026020526040600020600160a01b6001900380600183015416908060028401541692816003820154169160048201611c83906134bc565b90611c90600584016134bc565b9160068401549260078501546008860154600987015491600a88015493600b89015495600c8a015497600d8b01611cc6906134bc565b9a600e0154169a6040519d8e809e81526020015260408d01528b6101c06060819201528c01611cf491612fb1565b8b810360808d0152611d0591612fb1565b9660a08b015260c08a015260e0890152610100880152610120870152610140860152610160850152838103610180850152611d3f91612fb1565b906101a08301520390f35b346101de57611d58366132ba565b908060005260209060028252604060002060019060018060a01b0382820154163303611ebe5760049083151580611eb3575b611d93906137f8565b01908451906001600160401b038211610ab157611db083546132e9565b601f8111611e78575b508495601f8311600114611e09578291600080516020613dff833981519152978392600094611dfe575b50501b916000199060031b1c19161790555b604051908152a1005b015192508880611de3565b601f9291921982169684600052866000209160005b898110611e63575083600080516020613dff8339815191529910611e4a575b505050811b019055611df5565b015160001960f88460031b161c19169055868080611e3d565b81830151845592850192918801918801611e1e565b611ea3908460005286600020601f850160051c810191888610611ea9575b601f0160051c019061364d565b86611db9565b9091508190611e96565b508254841115611d8a565b60405162461bcd60e51b815260048101859052602260248201527f4f6e6c7920746865206f776e65722063616e2075706461746520746865206e616044820152616d6560f01b6064820152608490fd5b346101de57611f1c366132ba565b908060005260209060028252604060002060019060018060a01b038282015416330361205057600d9083151580612045575b611f57906137f8565b01908451906001600160401b038211610ab157611f7483546132e9565b601f8111612015575b508495601f8311600114611fc0578291600080516020613dff833981519152978392600094611dfe5750501b916000199060031b1c1916179055604051908152a1005b601f9291921982169684600052866000209160005b898110612000575083600080516020613dff8339815191529910611e4a57505050811b019055611df5565b81830151845592850192918801918801611fd5565b61203f908460005286600020601f850160051c810191888610611ea957601f0160051c019061364d565b86611f7d565b508254841115611f4e565b60405162461bcd60e51b815260048101859052602660248201527f4f6e6c7920746865206f776e65722063616e2075706461746520746865206d6560448201526574616461746160d01b6064820152608490fd5b346101de576101a03660031901126101de576004356001600160401b0381116101de576120d59036906004016131da565b6024356001600160401b0381116101de576120f49036906004016131da565b906044356001600160401b0381116101de576121149036906004016131f8565b90610124356001600160401b0381116101de576121359036906004016131da565b9261014435926001600160a01b039081851685036101de576101643582811681036101de57610184359583871687036101de57604051602081875161217d8183858c01612f8e565b81016003815203019020546127ad57612197600154613664565b806001556000526002602052604060002092805190600160401b8211610ab1578454828655808310612737575b50600085815260208082209392015b828210612619575050505060018301336001600160601b0360a01b825416179055836002840191166001600160601b0360a01b825416179055826003830191166001600160601b0360a01b82541617905583516001600160401b038111610ab15761224160048301546132e9565b601f81116125e4575b50806020601f82116001146125775760009161256c575b508160011b916000199060031b1c19161760048201555b82516001600160401b038111610ab15761229560058301546132e9565b601f8111612537575b50806020601f82116001146124ca576000916124bf575b508160011b916000199060031b1c19161760058201555b6064356006820155608435600882015560a435600982015560c435600a82015560e435600b82015561010435600c82015585516001600160401b038111610ab15760209661231d600d8401546132e9565b601f811161248c575b508790601f83116001146124135792826123a89593600e936123f19a96600092612408575b50508160011b916000199060031b1c191617600d8201555b018183166001600160601b0360a01b8254161790556001546040518881875161238f8183858c01612f8e565b8101600381520301902055606435913091339116613686565b7f9b96599010d3232696eb9dcbd3fa0a37ce73e2ffccd85f705a63a90afc65e4206001549384926123e460405195606087526060870190612fb1565b9085820388870152612fb1565b9260643560408201528033940390a3604051908152f35b015190508b8061234b565b90600d8401600052886000209160005b601f1985168110612475575083600e936123f19a96936001936123a89997601f1981161061245c575b505050811b01600d820155612363565b015160001960f88460031b161c191690558b808061244c565b91928a600181928685015181550194019201612423565b6124b990600d850160005289600020601f850160051c8101918b8610611ea957601f0160051c019061364d565b88612326565b9050840151886122b5565b91506005830160005260206000206000925b601f198316841061251f576001935082601f19811610612506575b5050811b0160058201556122cc565b86015160001960f88460031b161c1916905588806124f7565b868101518255602093840193600190920191016124dc565b61256690600584016000526020600020601f840160051c81019160208510611ea957601f0160051c019061364d565b8761229e565b905085015188612261565b91506004830160005260206000206000925b601f19831684106125cc576001935082601f198116106125b3575b5050811b016004820155612278565b87015160001960f88460031b161c1916905588806125a4565b87810151825560209384019360019092019101612589565b61261390600484016000526020600020601f840160051c81019160208510611ea957601f0160051c019061364d565b8761224a565b80518051906001600160401b038211610ab15761263686546132e9565b90601f918281116126fd575b50602091831160011461268d579282600194936020938695600092612682575b5050600019600383901b1c191690841b1787555b019401910190926121d3565b015190503880612662565b908660005260206000209160005b601f19851681106126e5575083602093600196938796938794601f198116106126cc575b505050811b018755612676565b015160001960f88460031b161c191690553880806126bf565b9192602060018192868501518155019401920161269b565b61272890886000526020600020600585808801821c8301936020891061272e575b01901c019061364d565b8f612642565b9350829361271e565b856000526020600020908382015b81830181106127555750506121c4565b80612762600192546132e9565b8061276f575b5001612745565b601f908181118414612788575050600081555b8e612768565b6127a460009284845260208420920160051c820185830161364d565b81835555612782565b60405162461bcd60e51b815260206004820152601560248201527453796d626f6c20616c72656164792065786973747360581b6044820152606490fd5b346101de5760203660031901126101de5760043561280661355f565b6103e8811161281457600755005b60405162461bcd60e51b815260206004820152601f60248201527f4665652072617465206d757374206265203c3d203130303020283130302529006044820152606490fd5b346101de57612867366132a4565b9060019182821015806129e5575b806129db575b156129a65761288a8282613aa7565b918383018093116129905761289e83613171565b926128ac6040519485613150565b8084526128bb601f1991613171565b0160005b818110612979575050805b82811115612935578385604051906020808301818452845180915260408401918060408360051b8701019601926000905b8382106129085786880387f35b90919293948380612924839a603f198b82030186528951612fd6565b9997019594939190910191016128fb565b8061297491600052600260205261296e604060002061295d6129578685613aa7565b91613bf8565b6129678289613bce565b5286613bce565b50613664565b6128ca565b602090612984613b5b565b828288010152016128bf565b634e487b7160e01b600052601160045260246000fd5b60405162461bcd60e51b815260206004820152600d60248201526c496e76616c69642072616e676560981b6044820152606490fd5b508082111561287b565b508254811115612875565b346101de576129fe366132a4565b90600052600a60205260406000209060005260205260606040600020805490600181015490600260018060a01b03910154169060405192835260208301526040820152f35b346101de5760403660031901126101de57600435612a5f613278565b600082815260026020526040902060018101546001600160a01b039391929084163303612aac57600080516020613dff8339815191529360036020948415158061068057610663906137f8565b60405162461bcd60e51b815260206004820152602660248201527f4f6e6c7920746865206f776e65722063616e20757064617465207468652076656044820152653934b334b2b960d11b6064820152608490fd5b346101de5760203660031901126101de57600435600081815260026020526040902060018101546001600160a01b03908116612b3d338214613b03565b83151580612bf6575b612b4f906137f8565b60068301928354612b666007830191825490613aa7565b928315612bb1577f95da8a4f660594f653bc780752dadf78f4f089254077e243f1318f946465fd0995612ba68560009593602098600e8896015416613ab4565b5555604051908152a2005b60405162461bcd60e51b815260206004820152601d60248201527f4e6f2072656d61696e696e672062756467657420746f20726566756e640000006044820152606490fd5b50600154841115612b46565b346101de5760403660031901126101de576024356001600160401b0381116101de57612c329036906004016131f8565b600435600052600260205260406000209060018060a01b03916001928084830154163314908115612eb9575b5015612e5b57600435151580612e4e575b612c78906137f8565b815191600160401b8311610ab1578154838355808410612dd7575b50602001906000526020600020906000905b838210612cc857600080516020613dff83398151915260206040516004358152a1005b80518051916001600160401b038311610ab15786928392612ce987546132e9565b90601f91828111612da7575b506020918311600114612d3b57602093929160009183612d30575b5050600019600383901b1c191690841b1786555b01930191019091612ca5565b015190508a80612d10565b908760005260206000209160005b601f1985168110612d8f5750918391869360209695601f19811610612d76575b505050811b018655612d24565b015160001960f88460031b161c191690558a8080612d69565b81830151845587969093019260209283019201612d49565b612dd190896000526020600020600585808801821c8301936020891061272e5701901c019061364d565b8a612cf5565b826000528484602060002092830192015b828110612df6575050612c93565b612e0081546132e9565b80612e0f575b50018590612de8565b601f90818111600114612e29575050600081555b87612e06565b612e4560009284845260208420920160051c820185830161364d565b81835555612e23565b5082546004351115612c6f565b60405162461bcd60e51b815260206004820152603060248201527f4f6e6c7920746865206f776e6572206f72206f70657261746f722063616e207560448201526f1c19185d19481d1a19481c19595c925960821b6064820152608490fd5b6002830154163314905084612c5e565b346101de576020806003193601126101de57600435612ee6613b5b565b5060008181526002835260409020600101546001600160a01b031615612f335760005260028152612f1a6040600020613bf8565b90612f2f604051928284938452830190612fd6565b0390f35b60405162461bcd60e51b8152600481018390526012602482015271105c1c08191bd95cc81b9bdd08195e1a5cdd60721b6044820152606490fd5b346101de5760203660031901126101de57612f8661355f565b600435600055005b60005b838110612fa15750506000910152565b8181015183820152602001612f91565b90602091612fca81518092818552858086019101612f8e565b601f01601f1916010190565b906101e09182820181519383528351809152610200808401908260051b850101916020809601916000905b878383106130d45750505050506130666130546130c59260018060a01b03968781870151169087015286604086015116604087015286606086015116606087015260808501518682036080880152612fb1565b60a084015185820360a0870152612fb1565b60c083015160c085015260e083015160e0850152610100808401519085015261012080840151908501526101408084015190850152610160808401519085015261018080840151908501526101a0808401519085830390860152612fb1565b926101c0809201511691015290565b806130f0600193949596976101ff198b82030186528851612fb1565b960192019201909291613001565b606081019081106001600160401b03821117610ab157604052565b6101e081019081106001600160401b03821117610ab157604052565b604081019081106001600160401b03821117610ab157604052565b90601f801991011681019081106001600160401b03821117610ab157604052565b6001600160401b038111610ab15760051b60200190565b6001600160401b038111610ab157601f01601f191660200190565b9291926131af82613188565b916131bd6040519384613150565b8294818452818301116101de578281602093846000960137010152565b9080601f830112156101de578160206131f5933591016131a3565b90565b9080601f830112156101de5781359061321082613171565b9261321e6040519485613150565b828452602092838086019160051b830101928084116101de57848301915b84831061324c5750505050505090565b82356001600160401b0381116101de57869161326d848480948901016131da565b81520192019161323c565b602435906001600160a01b03821682036101de57565b600435906001600160a01b03821682036101de57565b60409060031901126101de576004359060243590565b9060406003198301126101de5760043591602435906001600160401b0382116101de576131f5916004016131da565b90600182811c92168015613319575b602083101461330357565b634e487b7160e01b600052602260045260246000fd5b91607f16916132f8565b604051906000827fa16a46d94261c7517cc8ff89f61c0ce93598e3c849801011dee649a6a557d102918254613357816132e9565b808452936001918083169081156133df5750600114613381575b505061337f92500383613150565b565b600090815291507f42ad5d3e1f2e6e70edcf6d991b8a3023d3fca8047a131592f9edb9fd9b89d57d5b8483106133c4575061337f93505081016020013880613371565b81935090816020925483858a010152019101909185926133aa565b9150506020925061337f94915060ff191682840152151560051b8201013880613371565b604051906000827fa16a46d94261c7517cc8ff89f61c0ce93598e3c849801011dee649a6a557d103918254613437816132e9565b808452936001918083169081156133df575060011461345e57505061337f92500383613150565b600090815291507f5f9ce34815f8e11431c7bb75a8e6886a91478f7ffc1dbb0a98dc240fddd76b755b8483106134a1575061337f93505081016020013880613371565b81935090816020925483858a01015201910190918592613487565b90604051918260008254926134d0846132e9565b90818452600194858116908160001461353c57506001146134f957505061337f92500383613150565b9093915060005260209081600020936000915b81831061352457505061337f93508201013880613371565b8554888401850152948501948794509183019161350c565b91505061337f94506020925060ff191682840152151560051b8201013880613371565b600080516020613ddf833981519152546001600160a01b0316330361358057565b60405163118cdaa760e01b8152336004820152602490fd5b6001600160a01b039081169081156135f357600080516020613ddf83398151915280546001600160a01b031981168417909155167f8be0079c531659141344cd1fd0a4f28419497f9722a3daafe3b4186f6b6457e0600080a3565b604051631e4fbdf760e01b815260006004820152602490fd5b60ff7ff0c57e16840df040f15088dc2f81fe391c3923bec73e23a9662efc9c229c6a005460401c161561363b57565b604051631afcd79f60e31b8152600490fd5b818110613658575050565b6000815560010161364d565b60001981146129905760010190565b8181029291811591840414171561299057565b6040516323b872dd60e01b60208201526001600160a01b03928316602482015292909116604483015260648083019390935291815260a08101918183106001600160401b03841117610ab15761337f926040526136eb565b519081151582036101de57565b60018060a01b031690613735600080836020829551910182875af13d1561378d573d9061371782613188565b916137256040519384613150565b82523d84602084013e5b84613795565b8051918215159283613764575b50505061374c5750565b60249060405190635274afe760e01b82526004820152fd5b82935091602091928101031261378a5750602061378191016136de565b15388080613742565b80fd5b60609061372f565b906137bc57508051156137aa57805190602001fd5b604051630a12f52160e11b8152600490fd5b815115806137ef575b6137cd575090565b604051639996b31560e01b81526001600160a01b039091166004820152602490fd5b50803b156137c5565b156137ff57565b60405162461bcd60e51b815260206004820152601960248201527f4170706c69636174696f6e20494420697320696e76616c6964000000000000006044820152606490fd5b9190820180921161299057565b81601f820112156101de57805161386781613188565b926138756040519485613150565b818452602082840101116101de576131f59160208085019101612f8e565b61389b613323565b80519081156138ab576020012090565b50507fa16a46d94261c7517cc8ff89f61c0ce93598e3c849801011dee649a6a557d1005480156138d85790565b507fc5d2460186f7233c927e7db2dcc703c0e500b653ca82273b7bfad8045d85a47090565b613905613403565b8051908115613915576020012090565b50507fa16a46d94261c7517cc8ff89f61c0ce93598e3c849801011dee649a6a557d1015480156138d85790565b81519190604183036139735761396c92506020820151906060604084015193015160001a9061397e565b9192909190565b505060009160029190565b91907f7fffffffffffffffffffffffffffffff5d576e7357a4501ddfe92f46681b20a08411613a0257926020929160ff608095604051948552168484015260408301526060820152600092839182805260015afa156139f65780516001600160a01b038116156139ed57918190565b50809160019190565b604051903d90823e3d90fd5b50505060009160039190565b6004811015613a7d5780613a20575050565b60018103613a3a5760405163f645eedf60e01b8152600490fd5b60028103613a5b5760405163fce698f760e01b815260048101839052602490fd5b600314613a655750565b602490604051906335e2f38360e21b82526004820152fd5b634e487b7160e01b600052602160045260246000fd5b51906001600160a01b03821682036101de57565b9190820391821161299057565b60405163a9059cbb60e01b60208201526001600160a01b03909216602483015260448083019390935291815260808101916001600160401b03831182841017610ab15761337f926040526136eb565b15613b0a57565b60405162461bcd60e51b815260206004820152602360248201527f4f6e6c7920746865206f776e65722063616e20726571756573742061207265666044820152621d5b9960ea1b6064820152608490fd5b60405190613b6882613119565b81606081526101c060009182602082015282604082015282606082015260606080820152606060a08201528260c08201528260e0820152826101008201528261012082015282610140820152826101608201528261018082015260606101a08201520152565b8051821015613be25760209160051b010190565b634e487b7160e01b600052603260045260246000fd5b90604051613c0581613119565b8092805490613c1382613171565b613c206040519182613150565b82815260209283820183600052846000206000915b838310613cfc57505050506101c09291600e91855260018060a01b03928360018301541690860152826002820154166040860152826003820154166060860152613c81600482016134bc565b6080860152613c92600582016134bc565b60a0860152600681015460c0860152600781015460e086015260088101546101008601526009810154610120860152600a810154610140860152600b810154610160860152600c810154610180860152613cee600d82016134bc565b6101a0860152015416910152565b6001878192613d0a856134bc565b815201920192019190613c35565b8793958491979395929760005260026020526040600020613d3890613bf8565b96633b9aca009889613d4c81978295613844565b046101808a0151613d5c91613673565b906101008a0151613d6c91613673565b613d7591613844565b92613d7f91613673565b610140880151613d8e91613673565b04613d9891613844565b92613da291613673565b610160850151613db191613673565b04613dbb91613844565b93613dc591613673565b906101200151613dd491613673565b046131f59161384456fe9016d09d72d40fdae2fd8ceac6b6234c7706214fd39c1cd1e609a0528c1993005f9e31e4fc57fabac502d848e3a5d8ee121194d5ed670c12476c4fe260924157a264697066735822122030e75930aa5958f809fd0664cb0934e5efeb903ccecff7c11eb63e52242b376564736f6c63430008140033",
  "linkReferences": {},
  "deployedLinkReferences": {}
}