{
  "_format": "hh-sol-artifact-1",
  "contractName": "SubnetBidMarketplace",
  "sourceName": "contracts/SubnetBidMarketplace.sol",
  "abi": [
    {
      "inputs": [
        {
          "internalType": "address",
          "name": "target",
          "type": "address"
        }
      ],
      "name": "AddressEmptyCode",
      "type": "error"
    },
    {
      "inputs": [
        {
          "internalType": "address",
          "name": "account",
          "type": "address"
        }
      ],
      "name": "AddressInsufficientBalance",
      "type": "error"
    },
    {
      "inputs": [],
      "name": "FailedInnerCall",
      "type": "error"
    },
    {
      "inputs": [],
      "name": "InvalidInitialization",
      "type": "error"
    },
    {
      "inputs": [],
      "name": "NotInitializing",
      "type": "error"
    },
    {
      "inputs": [
        {
          "internalType": "address",
          "name": "owner",
          "type": "address"
        }
      ],
      "name": "OwnableInvalidOwner",
      "type": "error"
    },
    {
      "inputs": [
        {
          "internalType": "address",
          "name": "account",
          "type": "address"
        }
      ],
      "name": "OwnableUnauthorizedAccount",
      "type": "error"
    },
    {
      "inputs": [
        {
          "internalType": "address",
          "name": "token",
          "type": "address"
        }
      ],
      "name": "SafeERC20FailedOperation",
      "type": "error"
    },
    {
      "anonymous": false,
      "inputs": [
        {
          "indexed": true,
          "internalType": "uint256",
          "name": "orderId",
          "type": "uint256"
        },
        {
          "indexed": true,
          "internalType": "address",
          "name": "provider",
          "type": "address"
        },
        {
          "indexed": false,
          "internalType": "uint256",
          "name": "price",
          "type": "uint256"
        }
      ],
      "name": "BidAccepted",
      "type": "event"
    },
    {
      "anonymous": false,
      "inputs": [
        {
          "indexed": true,
          "internalType": "uint256",
          "name": "orderId",
          "type": "uint256"
        },
        {
          "indexed": true,
          "internalType": "address",
          "name": "provider",
          "type": "address"
        },
        {
          "indexed": false,
          "internalType": "uint256",
          "name": "bidIndex",
          "type": "uint256"
        }
      ],
      "name": "BidCancelled",
      "type": "event"
    },
    {
      "anonymous": false,
      "inputs": [
        {
          "indexed": true,
          "internalType": "uint256",
          "name": "orderId",
          "type": "uint256"
        },
        {
          "indexed": true,
          "internalType": "address",
          "name": "provider",
          "type": "address"
        },
        {
          "indexed": false,
          "internalType": "uint256",
          "name": "price",
          "type": "uint256"
        },
        {
          "indexed": false,
          "internalType": "uint256",
          "name": "providerId",
          "type": "uint256"
        },
        {
          "indexed": false,
          "internalType": "uint256",
          "name": "machineId",
          "type": "uint256"
        }
      ],
      "name": "BidSubmitted",
      "type": "event"
    },
    {
      "anonymous": false,
      "inputs": [
        {
          "indexed": true,
          "internalType": "uint256",
          "name": "orderId",
          "type": "uint256"
        }
      ],
      "name": "BidTimeExpired",
      "type": "event"
    },
    {
      "anonymous": false,
      "inputs": [
        {
          "indexed": false,
          "internalType": "uint256",
          "name": "oldLimit",
          "type": "uint256"
        },
        {
          "indexed": false,
          "internalType": "uint256",
          "name": "newLimit",
          "type": "uint256"
        }
      ],
      "name": "BidTimeLimitUpdated",
      "type": "event"
    },
    {
      "anonymous": false,
      "inputs": [
        {
          "indexed": false,
          "internalType": "address",
          "name": "wallet",
          "type": "address"
        },
        {
          "indexed": false,
          "internalType": "uint256",
          "name": "amount",
          "type": "uint256"
        }
      ],
      "name": "FeesWithdrawn",
      "type": "event"
    },
    {
      "anonymous": false,
      "inputs": [
        {
          "indexed": false,
          "internalType": "uint64",
          "name": "version",
          "type": "uint64"
        }
      ],
      "name": "Initialized",
      "type": "event"
    },
    {
      "anonymous": false,
      "inputs": [
        {
          "indexed": true,
          "internalType": "uint256",
          "name": "orderId",
          "type": "uint256"
        },
        {
          "indexed": false,
          "internalType": "address",
          "name": "owner",
          "type": "address"
        }
      ],
      "name": "OrderCancelled",
      "type": "event"
    },
    {
      "anonymous": false,
      "inputs": [
        {
          "indexed": true,
          "internalType": "uint256",
          "name": "orderId",
          "type": "uint256"
        },
        {
          "indexed": false,
          "internalType": "uint256",
          "name": "refundAmount",
          "type": "uint256"
        },
        {
          "indexed": false,
          "internalType": "string",
          "name": "reason",
          "type": "string"
        }
      ],
      "name": "OrderClosed",
      "type": "event"
    },
    {
      "anonymous": false,
      "inputs": [
        {
          "indexed": true,
          "internalType": "uint256",
          "name": "orderId",
          "type": "uint256"
        },
        {
          "indexed": false,
          "internalType": "address",
          "name": "owner",
          "type": "address"
        },
        {
          "indexed": false,
          "internalType": "uint256",
          "name": "duration",
          "type": "uint256"
        }
      ],
      "name": "OrderCreated",
      "type": "event"
    },
    {
      "anonymous": false,
      "inputs": [
        {
          "indexed": true,
          "internalType": "uint256",
          "name": "orderId",
          "type": "uint256"
        },
        {
          "indexed": false,
          "internalType": "uint256",
          "name": "additionalDuration",
          "type": "uint256"
        },
        {
          "indexed": false,
          "internalType": "uint256",
          "name": "newExpiry",
          "type": "uint256"
        }
      ],
      "name": "OrderExtended",
      "type": "event"
    },
    {
      "anonymous": false,
      "inputs": [
        {
          "indexed": true,
          "internalType": "address",
          "name": "previousOwner",
          "type": "address"
        },
        {
          "indexed": true,
          "internalType": "address",
          "name": "newOwner",
          "type": "address"
        }
      ],
      "name": "OwnershipTransferred",
      "type": "event"
    },
    {
      "anonymous": false,
      "inputs": [
        {
          "indexed": false,
          "internalType": "uint256",
          "name": "oldFee",
          "type": "uint256"
        },
        {
          "indexed": false,
          "internalType": "uint256",
          "name": "newFee",
          "type": "uint256"
        }
      ],
      "name": "PlatformFeeUpdated",
      "type": "event"
    },
    {
      "anonymous": false,
      "inputs": [
        {
          "indexed": false,
          "internalType": "address",
          "name": "oldWallet",
          "type": "address"
        },
        {
          "indexed": false,
          "internalType": "address",
          "name": "newWallet",
          "type": "address"
        }
      ],
      "name": "PlatformWalletUpdated",
      "type": "event"
    },
    {
      "anonymous": false,
      "inputs": [
        {
          "indexed": true,
          "internalType": "uint256",
          "name": "orderId",
          "type": "uint256"
        },
        {
          "indexed": false,
          "internalType": "string",
          "name": "newSpecs",
          "type": "string"
        }
      ],
      "name": "SpecsUpdated",
      "type": "event"
    },
    {
      "inputs": [
        {
          "internalType": "uint256",
          "name": "orderId",
          "type": "uint256"
        },
        {
          "internalType": "uint256",
          "name": "bidIndex",
          "type": "uint256"
        }
      ],
      "name": "acceptBid",
      "outputs": [],
      "stateMutability": "nonpayable",
      "type": "function"
    },
    {
      "inputs": [],
      "name": "bidTimeLimit",
      "outputs": [
        {
          "internalType": "uint256",
          "name": "",
          "type": "uint256"
        }
      ],
      "stateMutability": "view",
      "type": "function"
    },
    {
      "inputs": [
        {
          "internalType": "uint256",
          "name": "orderId",
          "type": "uint256"
        },
        {
          "internalType": "uint256",
          "name": "bidIndex",
          "type": "uint256"
        }
      ],
      "name": "cancelBid",
      "outputs": [],
      "stateMutability": "nonpayable",
      "type": "function"
    },
    {
      "inputs": [
        {
          "internalType": "uint256",
          "name": "orderId",
          "type": "uint256"
        }
      ],
      "name": "cancelOrder",
      "outputs": [],
      "stateMutability": "nonpayable",
      "type": "function"
    },
    {
      "inputs": [
        {
          "internalType": "uint256",
          "name": "orderId",
          "type": "uint256"
        }
      ],
      "name": "claimPayment",
      "outputs": [],
      "stateMutability": "nonpayable",
      "type": "function"
    },
    {
      "inputs": [
        {
          "internalType": "uint256",
          "name": "orderId",
          "type": "uint256"
        },
        {
          "internalType": "string",
          "name": "reason",
          "type": "string"
        }
      ],
      "name": "closeOrder",
      "outputs": [],
      "stateMutability": "nonpayable",
      "type": "function"
    },
    {
      "inputs": [
        {
          "internalType": "uint256",
          "name": "machineType",
          "type": "uint256"
        },
        {
          "internalType": "uint256",
          "name": "duration",
          "type": "uint256"
        },
        {
          "internalType": "uint256",
          "name": "minBidPrice",
          "type": "uint256"
        },
        {
          "internalType": "uint256",
          "name": "maxBidPrice",
          "type": "uint256"
        },
        {
          "internalType": "uint256",
          "name": "region",
          "type": "uint256"
        },
        {
          "internalType": "uint256",
          "name": "cpuCores",
          "type": "uint256"
        },
        {
          "internalType": "uint256",
          "name": "gpuCores",
          "type": "uint256"
        },
        {
          "internalType": "uint256",
          "name": "gpuMemory",
          "type": "uint256"
        },
        {
          "internalType": "uint256",
          "name": "memoryMB",
          "type": "uint256"
        },
        {
          "internalType": "uint256",
          "name": "diskGB",
          "type": "uint256"
        },
        {
          "internalType": "uint256",
          "name": "uploadMbps",
          "type": "uint256"
        },
        {
          "internalType": "uint256",
          "name": "downloadMbps",
          "type": "uint256"
        },
        {
          "internalType": "string",
          "name": "specs",
          "type": "string"
        }
      ],
      "name": "createOrder",
      "outputs": [
        {
          "internalType": "uint256",
          "name": "",
          "type": "uint256"
        }
      ],
      "stateMutability": "nonpayable",
      "type": "function"
    },
    {
      "inputs": [
        {
          "internalType": "uint256",
          "name": "orderId",
          "type": "uint256"
        }
      ],
      "name": "extend",
      "outputs": [],
      "stateMutability": "nonpayable",
      "type": "function"
    },
    {
      "inputs": [
        {
          "internalType": "uint256",
          "name": "orderId",
          "type": "uint256"
        }
      ],
      "name": "getBids",
      "outputs": [
        {
          "components": [
            {
              "internalType": "address",
              "name": "provider",
              "type": "address"
            },
            {
              "internalType": "uint256",
              "name": "pricePerSecond",
              "type": "uint256"
            },
            {
              "internalType": "enum SubnetBidMarketplace.BidStatus",
              "name": "status",
              "type": "uint8"
            },
            {
              "internalType": "uint256",
              "name": "createdAt",
              "type": "uint256"
            },
            {
              "internalType": "uint256",
              "name": "providerId",
              "type": "uint256"
            },
            {
              "internalType": "uint256",
              "name": "machineId",
              "type": "uint256"
            }
          ],
          "internalType": "struct SubnetBidMarketplace.Bid[]",
          "name": "",
          "type": "tuple[]"
        }
      ],
      "stateMutability": "view",
      "type": "function"
    },
    {
      "inputs": [
        {
          "internalType": "uint256",
          "name": "orderId",
          "type": "uint256"
        }
      ],
      "name": "getRemainingBidTime",
      "outputs": [
        {
          "internalType": "uint256",
          "name": "",
          "type": "uint256"
        }
      ],
      "stateMutability": "view",
      "type": "function"
    },
    {
      "inputs": [
        {
          "internalType": "address",
          "name": "owner",
          "type": "address"
        },
        {
          "internalType": "address",
          "name": "_paymentToken",
          "type": "address"
        },
        {
          "internalType": "address",
          "name": "_subnetProviderContract",
          "type": "address"
        }
      ],
      "name": "initialize",
      "outputs": [],
      "stateMutability": "nonpayable",
      "type": "function"
    },
    {
      "inputs": [
        {
          "internalType": "uint256",
          "name": "orderId",
          "type": "uint256"
        }
      ],
      "name": "isBiddingOpen",
      "outputs": [
        {
          "internalType": "bool",
          "name": "",
          "type": "bool"
        }
      ],
      "stateMutability": "view",
      "type": "function"
    },
    {
      "inputs": [
        {
          "internalType": "uint256",
          "name": "",
          "type": "uint256"
        },
        {
          "internalType": "uint256",
          "name": "",
          "type": "uint256"
        }
      ],
      "name": "orderBids",
      "outputs": [
        {
          "internalType": "address",
          "name": "provider",
          "type": "address"
        },
        {
          "internalType": "uint256",
          "name": "pricePerSecond",
          "type": "uint256"
        },
        {
          "internalType": "enum SubnetBidMarketplace.BidStatus",
          "name": "status",
          "type": "uint8"
        },
        {
          "internalType": "uint256",
          "name": "createdAt",
          "type": "uint256"
        },
        {
          "internalType": "uint256",
          "name": "providerId",
          "type": "uint256"
        },
        {
          "internalType": "uint256",
          "name": "machineId",
          "type": "uint256"
        }
      ],
      "stateMutability": "view",
      "type": "function"
    },
    {
      "inputs": [],
      "name": "orderCount",
      "outputs": [
        {
          "internalType": "uint256",
          "name": "",
          "type": "uint256"
        }
      ],
      "stateMutability": "view",
      "type": "function"
    },
    {
      "inputs": [
        {
          "internalType": "uint256",
          "name": "",
          "type": "uint256"
        }
      ],
      "name": "orders",
      "outputs": [
        {
          "internalType": "uint256",
          "name": "machineType",
          "type": "uint256"
        },
        {
          "internalType": "address",
          "name": "owner",
          "type": "address"
        },
        {
          "internalType": "enum SubnetBidMarketplace.OrderStatus",
          "name": "status",
          "type": "uint8"
        },
        {
          "internalType": "uint256",
          "name": "createdAt",
          "type": "uint256"
        },
        {
          "internalType": "uint256",
          "name": "duration",
          "type": "uint256"
        },
        {
          "internalType": "uint256",
          "name": "minBidPrice",
          "type": "uint256"
        },
        {
          "internalType": "uint256",
          "name": "maxBidPrice",
          "type": "uint256"
        },
        {
          "internalType": "uint256",
          "name": "acceptedBidPricePerSecond",
          "type": "uint256"
        },
        {
          "internalType": "uint256",
          "name": "parentOrderId",
          "type": "uint256"
        },
        {
          "internalType": "address",
          "name": "paymentToken",
          "type": "address"
        },
        {
          "internalType": "uint256",
          "name": "cpuCores",
          "type": "uint256"
        },
        {
          "internalType": "uint256",
          "name": "gpuCores",
          "type": "uint256"
        },
        {
          "internalType": "uint256",
          "name": "gpuMemory",
          "type": "uint256"
        },
        {
          "internalType": "uint256",
          "name": "memoryMB",
          "type": "uint256"
        },
        {
          "internalType": "uint256",
          "name": "diskGB",
          "type": "uint256"
        },
        {
          "internalType": "uint256",
          "name": "uploadMbps",
          "type": "uint256"
        },
        {
          "internalType": "uint256",
          "name": "downloadMbps",
          "type": "uint256"
        },
        {
          "internalType": "uint256",
          "name": "region",
          "type": "uint256"
        },
        {
          "internalType": "string",
          "name": "specs",
          "type": "string"
        },
        {
          "internalType": "uint256",
          "name": "acceptedProviderId",
          "type": "uint256"
        },
        {
          "internalType": "uint256",
          "name": "acceptedMachineId",
          "type": "uint256"
        },
        {
          "internalType": "uint256",
          "name": "startAt",
          "type": "uint256"
        },
        {
          "internalType": "uint256",
          "name": "expiredAt",
          "type": "uint256"
        },
        {
          "internalType": "uint256",
          "name": "lastPaidAt",
          "type": "uint256"
        }
      ],
      "stateMutability": "view",
      "type": "function"
    },
    {
      "inputs": [],
      "name": "owner",
      "outputs": [
        {
          "internalType": "address",
          "name": "",
          "type": "address"
        }
      ],
      "stateMutability": "view",
      "type": "function"
    },
    {
      "inputs": [],
      "name": "paymentToken",
      "outputs": [
        {
          "internalType": "address",
          "name": "",
          "type": "address"
        }
      ],
      "stateMutability": "view",
      "type": "function"
    },
    {
      "inputs": [],
      "name": "platformFeePercentage",
      "outputs": [
        {
          "internalType": "uint256",
          "name": "",
          "type": "uint256"
        }
      ],
      "stateMutability": "view",
      "type": "function"
    },
    {
      "inputs": [],
      "name": "platformWallet",
      "outputs": [
        {
          "internalType": "address",
          "name": "",
          "type": "address"
        }
      ],
      "stateMutability": "view",
      "type": "function"
    },
    {
      "inputs": [],
      "name": "renounceOwnership",
      "outputs": [],
      "stateMutability": "nonpayable",
      "type": "function"
    },
    {
      "inputs": [
        {
          "internalType": "uint256",
          "name": "newBidTimeLimit",
          "type": "uint256"
        }
      ],
      "name": "setBidTimeLimit",
      "outputs": [],
      "stateMutability": "nonpayable",
      "type": "function"
    },
    {
      "inputs": [
        {
          "internalType": "address",
          "name": "_paymentToken",
          "type": "address"
        }
      ],
      "name": "setPaymentConfig",
      "outputs": [],
      "stateMutability": "nonpayable",
      "type": "function"
    },
    {
      "inputs": [
        {
          "internalType": "uint256",
          "name": "newFeePercentage",
          "type": "uint256"
        }
      ],
      "name": "setPlatformFee",
      "outputs": [],
      "stateMutability": "nonpayable",
      "type": "function"
    },
    {
      "inputs": [
        {
          "internalType": "address",
          "name": "newWallet",
          "type": "address"
        }
      ],
      "name": "setPlatformWallet",
      "outputs": [],
      "stateMutability": "nonpayable",
      "type": "function"
    },
    {
      "inputs": [
        {
          "internalType": "address",
          "name": "_subnetProviderContract",
          "type": "address"
        }
      ],
      "name": "setSubnetProviderContract",
      "outputs": [],
      "stateMutability": "nonpayable",
      "type": "function"
    },
    {
      "inputs": [
        {
          "internalType": "uint256",
          "name": "orderId",
          "type": "uint256"
        },
        {
          "internalType": "uint256",
          "name": "pricePerSecond",
          "type": "uint256"
        },
        {
          "internalType": "uint256",
          "name": "providerId",
          "type": "uint256"
        },
        {
          "internalType": "uint256",
          "name": "machineId",
          "type": "uint256"
        }
      ],
      "name": "submitBid",
      "outputs": [],
      "stateMutability": "nonpayable",
      "type": "function"
    },
    {
      "inputs": [],
      "name": "subnetProviderContract",
      "outputs": [
        {
          "internalType": "address",
          "name": "",
          "type": "address"
        }
      ],
      "stateMutability": "view",
      "type": "function"
    },
    {
      "inputs": [],
      "name": "totalAccumulatedFees",
      "outputs": [
        {
          "internalType": "uint256",
          "name": "",
          "type": "uint256"
        }
      ],
      "stateMutability": "view",
      "type": "function"
    },
    {
      "inputs": [
        {
          "internalType": "address",
          "name": "newOwner",
          "type": "address"
        }
      ],
      "name": "transferOwnership",
      "outputs": [],
      "stateMutability": "nonpayable",
      "type": "function"
    },
    {
      "inputs": [
        {
          "internalType": "uint256",
          "name": "amount",
          "type": "uint256"
        }
      ],
      "name": "withdrawFees",
      "outputs": [],
      "stateMutability": "nonpayable",
      "type": "function"
    }
  ],
  "bytecode": "0x608080604052346100165761280d908161001c8239f35b600080fdfe61026080604052600436101561001457600080fd5b60003560e01c90816302e9d5e414611f8b5750806305993f0614611f6d57806312e8e2c314611ed2578063131d9a2714611d855780632453ffa814611d675780633013ce2914611d3e578063334d023614611cb15780633567e47e14611c8b57806340a8546c14611c6d5780634b39360514611b22578063514fcac714611a5657806353cb7dbc146115825780635e318e07146114ac57806362e656031461142f578063715018a6146113c5578063722af14f146113255780638831e9cf146112655780638da5cb5b1461122f5780639714378c146110a9578063a85c38ef14610ded578063bca5a3a814610ae5578063c0c53b8b1461095c578063c63fdcc714610703578063cb43dedd146106da578063cdd78cfc146106bc578063d793139e146102ae578063e5abcee614610249578063ef5a59c8146101c3578063f2fde38b146101985763fa2af9da1461016a57600080fd5b34610193576000366003190112610193576007546040516001600160a01b039091168152602090f35b600080fd5b34610193576020366003190112610193576101c16101b46121e9565b6101bc61234c565b612385565b005b34610193576101d1366121b3565b906000526003602052604060002080548210156101935760c0916101f49161231a565b5060018060a01b038154169060018101549060ff60028201541660038201549060056004840154930154936040519586526020860152610233816121c9565b60408501526060840152608083015260a0820152f35b346101935760203660031901126101935760043560005260026020526020604060002060ff600182015460a01c16610280816121c9565b159081610293575b506040519015158152f35b6102a5915060020154600054906124bb565b42111582610288565b346101935760803660031901126101935760043560249081359060448035606480359284600052602091600283526040600020916102ff60ff600185015460a01c166102f9816121c9565b1561247e565b6103106002840154600054906124bb565b42116106855760048301548810610645576005830154881161060557600554604051636820e85d60e11b815260048101879052338b8201526001600160a01b03949185169086818581855afa90811561058a576000916105e8575b5015610596578a6101248388938b8b9654926009810154600c820154600d83015490600a84015492600f600e860154950154956040519c8d9b8c9a631d6cdac560e11b8c5260048c01528a01528d8901528d880152608487015260a486015260c485015260e48401526101048301525afa90811561058a5760009161055d575b5015610511575050846000526003825260406000206040519161040d836121ff565b33835283830188815260408401600081526060850191428352608086019388855260a08701958a87528054680100000000000000008110156104fc576104589160018201815561231a565b9790976104e7575187546001600160a01b031916911617865551600186015551600593929190600286019061048c816121c9565b610495816121c9565b60ff801983541691161790555160038501555160048401555191015560405194855284015260408301527f1b3d307c757cc471e124508de8fb270e98d9c23f6220af3df3e152cbefc0504560603393a3005b8d634e487b7160e01b60005260006004526000fd5b8e634e487b7160e01b60005260416004526000fd5b61747360f01b6084927f4d616368696e6520646f6573206e6f74206d65657420726571756972656d656e869360228d6040519662461bcd60e51b88526004880152860152840152820152fd5b61057d9150853d8711610583575b610575818361221b565b8101906124c8565b8a6103eb565b503d61056b565b6040513d6000823e3d90fd5b60405162461bcd60e51b8152600481018790526027818d01527f4e6f7420617574686f72697a656420746f2062696420666f722074686973207081850152663937bb34b232b960c91b81860152608490fd5b6105ff9150873d891161058357610575818361221b565b8c61036b565b7f4269642070726963652061626f7665206d6178696d756d000000000000000000849160178b6040519462461bcd60e51b86526004860152840152820152fd5b7f4269642070726963652062656c6f77206d696e696d756d000000000000000000849160178b6040519462461bcd60e51b86526004860152840152820152fd5b73109a59191a5b99c81d1a5b5948195e1c1a5c995960621b849160148b6040519462461bcd60e51b86526004860152840152820152fd5b34610193576000366003190112610193576020600654604051908152f35b34610193576000366003190112610193576005546040516001600160a01b039091168152602090f35b34610193576020806003193601126101935760043560005260028152604060002090610743600160ff8185015460a01c1661073d816121c9565b14612717565b6005546012830180546013850154604051630e2de53360e21b81526004810192909252602482015290916001600160a01b03919084908290604490829086165afa801561058a5761079c9160009161093f575b50612520565b6015840154804210600014610939575042925b60168501938454808211156108fb576107cb6107d691836126d1565b600688015490612565565b9485156108c3576108036107fa6127106107f26006548a612565565b0480986126d1565b966008546124bb565b6008555580826005541693546024604051809681936331a9108f60e11b835260048301525afa92831561058a57600093610894575b5081831615610850575060086101c194015416612776565b6064906040519062461bcd60e51b82526004820152601760248201527f50726f766964657220646f6573206e6f742065786973740000000000000000006044820152fd5b816108b59294503d85116108bc575b6108ad818361221b565b810190612757565b9185610838565b503d6108a3565b60405162461bcd60e51b815260048101849052601060248201526f4e6f7468696e6720746f20636c61696d60801b6044820152606490fd5b60405162461bcd60e51b81526004810184905260166024820152752737903732bb903a34b6b2903a37903830bc903337b960511b6044820152606490fd5b926107af565b6109569150853d871161058357610575818361221b565b86610796565b34610193576060366003190112610193576109756121e9565b6001600160a01b03602435818116908190036101935760443591808316809303610193577ff0c57e16840df040f15088dc2f81fe391c3923bec73e23a9662efc9c229c6a009384549360ff8560401c16159467ffffffffffffffff811680159081610add575b6001149081610ad3575b159081610aca575b50610ab85767ffffffffffffffff198116600117875585610a99575b50610a126123f9565b610a1a6123f9565b610a2382612385565b6001600160601b0360a01b9384600454161760045583600554161760055561012c600055606460065516906007541617600755610a5c57005b68ff00000000000000001981541690557fc7f505b2f371ae2175ee4913f4499e1f2633a7b5936321eed1cdaeb6115181d2602060405160018152a1005b68ffffffffffffffffff19166801000000000000000117865586610a09565b60405163f92ee8a960e01b8152600490fd5b905015886109ed565b303b1591506109e5565b8791506109db565b346101935760403660031901126101935760043560243567ffffffffffffffff811161019357610b19903690600401612259565b816000526020600281526040600020916001830192835491600160ff8460a01c16610b43816121c9565b03610db5576001600160a01b03913384841603610d7f5760168101928354804211600014610d7657610b7590426126d1565b935b601583015442811115610d6a57610b92610ba99142906126d1565b955b610ba360068601548092612565565b96612565565b60ff60a01b19909616600160a11b1788554290556005546012830180546013850154604051630e2de53360e21b815260048101929092526024820152918316989188816044818d5afa90811561058a57600091610d4d575b5086151580918192610d45575b5015610d0a57908891610cdc575b546024604051809b81936331a9108f60e11b835260048301525afa91821561058a57610c7e610c9e9688947fc2ebf8195090973176020e1d05b4a31dd5e03116437282453e16ce78d9318e7e9b600091610cbf575b5083600888015416612776565b82610ca3575b5050505060408051948594855284015260408301906122da565b0390a2005b806008610cb69501541691541690612776565b86838180610c84565b610cd691508b3d8d116108bc576108ad818361221b565b8d610c71565b610d02610cf9612710610cf16006548b612565565b0480996126d1565b976008546124bb565b600855610c1c565b5050947fc2ebf8195090973176020e1d05b4a31dd5e03116437282453e16ce78d9318e7e9750610c9e94610d3d916124bb565b948591610c7e565b90508c610c0e565b610d649150893d8b1161058357610575818361221b565b8b610c01565b50610ba9600095610b94565b50600093610b77565b60405162461bcd60e51b815260048101869052600e60248201526d139bdd08185d5d1a1bdc9a5e995960921b6044820152606490fd5b60405162461bcd60e51b815260048101859052601060248201526f4f72646572206e6f742061637469766560801b6044820152606490fd5b34610193576020366003190112610193576004356000526002602052604060002080610240528054600182015460e052600282015461010052600382015461012052600482015460058301546006840154600785015460018060a01b0360088701541690600987015492600a88015494600b89015496600c8a015498600d8b01549a600e810154608052600f81015460c05260108101546102205260405161014052610ea2601160009201548060a0526122a0565b9081610140515260a051600181169081600014611084575060011461103d575b610ed49150610140518091039061221b565b60166102405160128101546101a05260138101546101c05260148101546101e05260158101546101805201546101605260405180610200525260018060a01b0360e051166020610200510152610f3160ff60e05160a01c166121c9565b60ff60e05160a01c16604061020051015261010051606061020051015261012051608061020051015260a061020051015260c061020051015260e06102005101526101006102005101526101206102005101526101406102005101526101606102005101526101806102005101526101a06102005101526101c06102005101526080516101e061020051015260c0516102008051015261022051610220610200510152610ff2610300806102406102005101526102005101610140516122da565b6101a0516102606102005101526101c0516102806102005101526101e0516102a0610200510152610180516102c0610200510152610160516102e06102005101526102005180910390f35b506011610240510160005260206000206000905b82821061106b575061014051610ed4925001602001610ec2565b6001816020925483856101405101015201910190611051565b60209250610ed493915060ff191682610140510152151560051b610140510101610ec2565b3461019357602080600319360112610193576004356000818152600283526040902060018101549192916001600160a01b039033828216036111ea57600160ff6110fa9260a01c1661073d816121c9565b601582019182544210156111ad576006810154918215611178579161115d827fec5915f6de124dc9e88220ea0c9da53a73b64a575107c9999a716735dda7c3aa9694600861115060036040999701958654612565565b9201541630903390612578565b549161116a8383546124bb565b8092558351928352820152a2005b60405162461bcd60e51b815260048101869052600d60248201526c141c9a58d9481b9bdd081cd95d609a1b6044820152606490fd5b60405162461bcd60e51b815260048101859052601560248201527413dc99195c88185b1c9958591e48195e1c1a5c9959605a1b6044820152606490fd5b60405162461bcd60e51b815260048101859052601b60248201527f4f6e6c79206f72646572206f776e65722063616e20657874656e6400000000006044820152606490fd5b34610193576000366003190112610193576000805160206127b8833981519152546040516001600160a01b039091168152602090f35b346101935760203660031901126101935761127e6121e9565b61128661234c565b6001600160a01b0390811680156112e0577ff84f6b525c89a18c80bbbc0c62a7eb5390956d6b8432ab067b49963a98f8c38f9160409160075491816001600160601b0360a01b8416176007558351921682526020820152a1005b60405162461bcd60e51b815260206004820152601760248201527f43616e6e6f7420736574207a65726f20616464726573730000000000000000006044820152606490fd5b346101935760203660031901126101935760043561134161234c565b80156113805760407f9639a82e292ab5f28f7cb06ef7bd2259222c9468822650cf1798e015df671b3e91600054908060005582519182526020820152a1005b60405162461bcd60e51b815260206004820152601b60248201527f54696d65206c696d6974206d75737420626520706f73697469766500000000006044820152606490fd5b34610193576000366003190112610193576113de61234c565b6000805160206127b883398151915280546001600160a01b031981169091556000906001600160a01b03167f8be0079c531659141344cd1fd0a4f28419497f9722a3daafe3b4186f6b6457e08280a3005b34610193576020366003190112610193576114486121e9565b61145061234c565b6001600160a01b03168015611477576001600160601b0360a01b6004541617600455600080f35b60405162461bcd60e51b815260206004820152600d60248201526c24b73b30b634b2103a37b5b2b760991b6044820152606490fd5b34610193576020366003190112610193576004356114c861234c565b6008549081811161153d576114fe817fc0819c13be868895eb93e40eaceb96de976442fa1d404e5c55f14bb65a8c489a936126d1565b60085560018060a01b0361151c828260045416836007541690612776565b60075460408051929091166001600160a01b031682526020820192909252a1005b60405162461bcd60e51b815260206004820152601860248201527f496e73756666696369656e74206665652062616c616e636500000000000000006044820152606490fd5b34610193576101a0366003190112610193576101843567ffffffffffffffff8111610193576115b5903690600401612259565b6004546001600160a01b0316906115cd82151561243a565b60243515611a11576064359081604435116119c1576001549060001982146119ab5760018201600155604051938461030081011067ffffffffffffffff61030087011117611995576001936103008601604052600435865233602087015260006040870152426060870152602435608087015260443560a087015260c0860152600060e0860152600061010086015261012085015260a43561014085015260c43561016085015260e435610180850152610104356101a0850152610124356101c0850152610144356101e0850152610164356102008501526084356102208501526102408401526000610260840152600061028084015260006102a084015260006102c084015260006102e0840152016000526002602052604060002090805182556001820160018060a01b036020830151168154906040840151611711816121c9565b61171a816121c9565b6001600160a81b03199092161760a091821b60ff60a01b16179091556060820151600284015560808201516003840155810151600483015560c0810151600583015560e0810151600683015561010081015160078301556101208101516008830180546001600160a01b0319166001600160a01b03929092169190911790556101408101516009830155610160810151600a830155610180810151600b8301556101a0810151600c8301556101c0810151600d8301556101e0810151600e830155610200810151600f830155610220810151601083015561024081015180519067ffffffffffffffff82116119955761181660118501546122a0565b601f811161194e575b50602090601f83116001146118da579180601694926102e0946000926118cf575b50508160011b916000199060031b1c19161760118501555b610260810151601285015561028081015160138501556102a081015160148501556102c08101516015850155015191015560015460408051338152602435602080830191909152929182917f28eb86fd03c9bd96a8a83e4a46ab2ad257b70cea893d98ad6d482e96aa25fad09190a2604051908152f35b015190508680611840565b90601f198316916011860160005260206000209260005b81811061193657509260019285926102e096601698961061191d575b505050811b016011850155611858565b015160001960f88460031b161c1916905586808061190d565b929360206001819287860151815501950193016118f1565b601185016000526020600020601f840160051c81016020851061198e575b601f830160051c8201811061198257505061181f565b6000815560010161196c565b508061196c565b634e487b7160e01b600052604160045260246000fd5b634e487b7160e01b600052601160045260246000fd5b60405162461bcd60e51b815260206004820152602260248201527f6d696e4269645072696365206d757374206265203c3d206d6178426964507269604482015261636560f01b6064820152608490fd5b60405162461bcd60e51b815260206004820152601960248201527f4475726174696f6e206d75737420626520706f736974697665000000000000006044820152606490fd5b346101935760203660031901126101935760043560008181526002602052604090206001018054336001600160a01b03821603611add57611aa060ff8260a01c166102f9816121c9565b60ff60a01b1916600160a11b1790556040513381527fc0362da6f2ff36b382b34aec0814f6b3cdf89f5ef282a1d1f114d0c0b036d59690602090a2005b60405162461bcd60e51b815260206004820152601b60248201527f4f6e6c79206f72646572206f776e65722063616e2063616e63656c00000000006044820152606490fd5b3461019357611b30366121b3565b9080600052602060028152611b5660ff60016040600020015460a01c166102f9816121c9565b8160005260038152611b6e60406000205484106124e0565b8160005260038152611b8483604060002061231a565b5080546001600160a01b03163303611c2857600201805460ff8116611ba8816121c9565b611be35760ff1916600217905560405192835233927faf2f02012ea1953fe9293dd4a8bb5194c96792324f9385297c991c2cfeade3d99190a3005b60405162461bcd60e51b815260048101849052601d60248201527f43616e6e6f742063616e63656c206e6f6e2d70656e64696e67206269640000006044820152606490fd5b60405162461bcd60e51b815260048101839052601c60248201527f4f6e6c79206269642070726f76696465722063616e2063616e63656c000000006044820152606490fd5b34610193576000366003190112610193576020600854604051908152f35b34610193576020366003190112610193576020611ca96004356126de565b604051908152f35b3461019357602036600319011261019357611cca6121e9565b611cd261234c565b6001600160a01b03168015611cf9576001600160601b0360a01b6005541617600555600080f35b60405162461bcd60e51b815260206004820152601960248201527f496e76616c69642070726f766964657220636f6e7472616374000000000000006044820152606490fd5b34610193576000366003190112610193576004546040516001600160a01b039091168152602090f35b34610193576000366003190112610193576020600154604051908152f35b346101935760208060031936011261019357600435600052600390818152604060002091825467ffffffffffffffff811161199557604051916005611dce8584831b018561221b565b82845284840191829660005285600020916000935b858510611e6d57604080518981528851818b018190528b928201908b60005b828110611e0f5784840385f35b9091928260c06001928851848060a01b03815116825283810151848301526040810151611e3b816121c9565b6040830152606080820151908301526080808201519083015260a0809101519082015201960191019492919094611e02565b600688600192604051611e7f816121ff565b848060a01b038854168152848801548382015260ff600289015416611ea3816121c9565b6040820152868801546060820152600488015460808201528588015460a0820152815201940194019392611de3565b3461019357602036600319011261019357600435611eee61234c565b6107d08111611f305760407fd347e206f25a89b917fc9482f1a2d294d749baa4dc9bde7fb495ee11fe49164391600654908060065582519182526020820152a1005b60405162461bcd60e51b81526020600482015260156024820152744665652063616e6e6f74206578636565642032302560581b6044820152606490fd5b34610193576000366003190112610193576020600054604051908152f35b3461019357611f99366121b3565b816000526020600281526040600020936001850192835460018060a01b03923384831603612171575090611fd960ff6120039360a01c166102f9816121c9565b8560005260038452611ff160406000205482106124e0565b8560005260038452604060002061231a565b50600281019560ff875416612017816121c9565b61213a578260055416946004830190815486600586019160448354916040519b8c938492630e2de53360e21b8452600484015260248301525afa92831561058a5761208e612105947f91a721693afff25f233ac308edbd2fa15ad7d4dfacdd164dd4e8c57ab72f4ae99a60009161211d5750612520565b86600886015416926120a184151561243a565b600187019b6120c68d54956120bc60038a0197885490612565565b9030903390612578565b805460ff19166001179055805460ff60a01b1916600160a01b1790558a54600686015554601285015554601384015542601484018190559054906124bb565b601582015560164291015554169354604051908152a3005b61213491508a3d8c1161058357610575818361221b565b8d610796565b60405162461bcd60e51b815260048101859052600f60248201526e426964206e6f742070656e64696e6760881b6044820152606490fd5b62461bcd60e51b815260048101859052601b60248201527f4f6e6c79206f72646572206f776e65722063616e2061636365707400000000006044820152606490fd5b6040906003190112610193576004359060243590565b600311156121d357565b634e487b7160e01b600052602160045260246000fd5b600435906001600160a01b038216820361019357565b60c0810190811067ffffffffffffffff82111761199557604052565b90601f8019910116810190811067ffffffffffffffff82111761199557604052565b67ffffffffffffffff811161199557601f01601f191660200190565b81601f82011215610193578035906122708261223d565b9261227e604051948561221b565b8284526020838301011161019357816000926020809301838601378301015290565b90600182811c921680156122d0575b60208310146122ba57565b634e487b7160e01b600052602260045260246000fd5b91607f16916122af565b919082519283825260005b848110612306575050826000602080949584010152601f8019910116010190565b6020818301810151848301820152016122e5565b8054821015612336576000526006602060002091020190600090565b634e487b7160e01b600052603260045260246000fd5b6000805160206127b8833981519152546001600160a01b0316330361236d57565b60405163118cdaa760e01b8152336004820152602490fd5b6001600160a01b039081169081156123e0576000805160206127b883398151915280546001600160a01b031981168417909155167f8be0079c531659141344cd1fd0a4f28419497f9722a3daafe3b4186f6b6457e0600080a3565b604051631e4fbdf760e01b815260006004820152602490fd5b60ff7ff0c57e16840df040f15088dc2f81fe391c3923bec73e23a9662efc9c229c6a005460401c161561242857565b604051631afcd79f60e31b8152600490fd5b1561244157565b60405162461bcd60e51b815260206004820152601560248201527414185e5b595b9d081d1bdad95b881b9bdd081cd95d605a1b6044820152606490fd5b1561248557565b60405162461bcd60e51b815260206004820152600e60248201526d27b93232b9103737ba1037b832b760911b6044820152606490fd5b919082018092116119ab57565b90816020910312610193575180151581036101935790565b156124e757565b60405162461bcd60e51b8152602060048201526011602482015270092dcecc2d8d2c840c4d2c840d2dcc8caf607b1b6044820152606490fd5b1561252757565b60405162461bcd60e51b8152602060048201526016602482015275135858da1a5b9948191bd95cc81b9bdd08195e1a5cdd60521b6044820152606490fd5b818102929181159184041417156119ab57565b6040516323b872dd60e01b60208201526001600160a01b03928316602482015292909116604483015260648083019390935291815260a081019181831067ffffffffffffffff841117611995576125d1926040526125d3565b565b60008061261d9260018060a01b03169360208151910182865af13d15612666573d906125fe8261223d565b9161260c604051938461221b565b82523d6000602084013e5b8361266e565b805190811515918261264b575b50506126335750565b60249060405190635274afe760e01b82526004820152fd5b61265e92506020809183010191016124c8565b15388061262a565b606090612617565b90612695575080511561268357805190602001fd5b604051630a12f52160e11b8152600490fd5b815115806126c8575b6126a6575090565b604051639996b31560e01b81526001600160a01b039091166004820152602490fd5b50803b1561269e565b919082039182116119ab57565b60005260026020526126fb600260406000200154600054906124bb565b804210156127115761270e9042906126d1565b90565b50600090565b1561271e57565b60405162461bcd60e51b815260206004820152601160248201527013dc99195c881b9bdd081b585d18da1959607a1b6044820152606490fd5b9081602091031261019357516001600160a01b03811681036101935790565b60405163a9059cbb60e01b60208201526001600160a01b039290921660248301526044808301939093529181526125d1916127b260648361221b565b6125d356fe9016d09d72d40fdae2fd8ceac6b6234c7706214fd39c1cd1e609a0528c199300a2646970667358221220cdf7878dfca9be08a89d223089b430e99215288473430ab2b4d41f51ef6f96a864736f6c63430008140033",
  "linkReferences": {},
  "deployedLinkReferences": {}
}