{
  "contracts/SubnetStakingPoolFactory.sol": {
    "SubnetStakingPoolFactory": {
      "abi": [
        {
          "inputs": [
            {
              "internalType": "address",
              "name": "initialOwner",
              "type": "address"
            }
          ],
          "stateMutability": "nonpayable",
          "type": "constructor"
        },
        {
          "inputs": [
            {
              "internalType": "address",
              "name": "owner",
              "type": "address"
            }
          ],
          "name": "OwnableInvalidOwner",
          "type": "error"
        },
        {
          "inputs": [
            {
              "internalType": "address",
              "name": "account",
              "type": "address"
            }
          ],
          "name": "OwnableUnauthorizedAccount",
          "type": "error"
        },
        {
          "anonymous": false,
          "inputs": [
            {
              "indexed": true,
              "internalType": "address",
              "name": "previousOwner",
              "type": "address"
            },
            {
              "indexed": true,
              "internalType": "address",
              "name": "newOwner",
              "type": "address"
            }
          ],
          "name": "OwnershipTransferred",
          "type": "event"
        },
        {
          "anonymous": false,
          "inputs": [
            {
              "indexed": true,
              "internalType": "address",
              "name": "stakingToken",
              "type": "address"
            },
            {
              "indexed": true,
              "internalType": "address",
              "name": "rewardToken",
              "type": "address"
            },
            {
              "indexed": false,
              "internalType": "address",
              "name": "poolAddress",
              "type": "address"
            }
          ],
          "name": "PoolCreated",
          "type": "event"
        },
        {
          "inputs": [
            {
              "internalType": "uint256",
              "name": "",
              "type": "uint256"
            }
          ],
          "name": "allPools",
          "outputs": [
            {
              "internalType": "address",
              "name": "",
              "type": "address"
            }
          ],
          "stateMutability": "view",
          "type": "function"
        },
        {
          "inputs": [
            {
              "internalType": "contract IERC20",
              "name": "stakingToken",
              "type": "address"
            },
            {
              "internalType": "contract IERC20",
              "name": "rewardToken",
              "type": "address"
            },
            {
              "internalType": "uint256",
              "name": "rewardRatePerSecond",
              "type": "uint256"
            },
            {
              "internalType": "uint256",
              "name": "startTime",
              "type": "uint256"
            },
            {
              "internalType": "uint256",
              "name": "endTime",
              "type": "uint256"
            }
          ],
          "name": "createPool",
          "outputs": [
            {
              "internalType": "address",
              "name": "",
              "type": "address"
            }
          ],
          "stateMutability": "nonpayable",
          "type": "function"
        },
        {
          "inputs": [
            {
              "internalType": "uint256",
              "name": "index",
              "type": "uint256"
            }
          ],
          "name": "getPool",
          "outputs": [
            {
              "internalType": "address",
              "name": "",
              "type": "address"
            }
          ],
          "stateMutability": "view",
          "type": "function"
        },
        {
          "inputs": [],
          "name": "getPoolCount",
          "outputs": [
            {
              "internalType": "uint256",
              "name": "",
              "type": "uint256"
            }
          ],
          "stateMutability": "view",
          "type": "function"
        },
        {
          "inputs": [],
          "name": "owner",
          "outputs": [
            {
              "internalType": "address",
              "name": "",
              "type": "address"
            }
          ],
          "stateMutability": "view",
          "type": "function"
        },
        {
          "inputs": [],
          "name": "renounceOwnership",
          "outputs": [],
          "stateMutability": "nonpayable",
          "type": "function"
        },
        {
          "inputs": [
            {
              "internalType": "address",
              "name": "newOwner",
              "type": "address"
            }
          ],
          "name": "transferOwnership",
          "outputs": [],
          "stateMutability": "nonpayable",
          "type": "function"
        }
      ],
      "evm": {
        "bytecode": {
          "linkReferences": {},
          "object": "6080346100bb57601f6114ec38819003918201601f19168301916001600160401b038311848410176100c0578084926020946040528339810103126100bb57516001600160a01b0390818116908190036100bb5780156100a257600080546001600160a01b03198116831782556040519316907f8be0079c531659141344cd1fd0a4f28419497f9722a3daafe3b4186f6b6457e09080a361141590816100d78239f35b604051631e4fbdf760e01b815260006004820152602490fd5b600080fd5b634e487b7160e01b600052604160045260246000fdfe6080604052600436101561001257600080fd5b6000803560e01c908163068bcd8d1461008a5750806341d1de9714610085578063715018a61461008057806385ac165a1461007b5780638da5cb5b146100765780638eec5d70146100715763f2fde38b1461006c57600080fd5b6103f7565b6103d9565b6103b0565b6101e3565b610177565b610117565b3461011457602036600319011261011457600435906001548210156100e657600190527fb10e2d527612073b26eecdfd717e6a320cf44b4afac2b0732d9fcbe2b7fa0cf601546001600160a01b0316608052607f1960a0016080f35b62461bcd60e51b6080526020608452600d60a4526c092dcecc2d8d2c840d2dcc8caf609b1b60c45260646080fd5b80fd5b34610172576020366003190112610172576004356001548110156101725760016000527fb10e2d527612073b26eecdfd717e6a320cf44b4afac2b0732d9fcbe2b7fa0cf601546040516001600160a01b039091168152602090f35b600080fd5b346101725760008060031936011261011457610191610483565b80546001600160a01b03198116825581906001600160a01b03167f8be0079c531659141344cd1fd0a4f28419497f9722a3daafe3b4186f6b6457e08280a380f35b6001600160a01b0381160361017257565b346101725760a036600319011261017257600435610200816101d2565b60243561020c816101d2565b604435606435906103386103448260843595610226610483565b6001600160a01b038881169861031e91610312906102458c15156104af565b8416996102538b15156104fb565b61025e8a8211610547565b60405160608d811b6bffffffffffffffffffffffff1990811660208401908152918e901b1660348301526048820197909752606881018b905260888082018390528152601f1996906102b160a8826105b3565b51902099610d4b996102c560208c016105da565b9a808c5261069560208d01396040519687953360208801929160a094919796959260c0850198600180881b0392838092168752166020860152166040840152606083015260808201520152565b038381018352826105b3565b6040519384916103326020840180986105ea565b906105ea565b039081018352826105b3565b51906000f5908115610172576103ac9261035d83610615565b6040516001600160a01b03841681527f9c5d829b9b23efc461f9aeef91979ec04bb903feb3bee4f26d22114abfc7335b90602090a36040516001600160a01b0390911681529081906020820190565b0390f35b34610172576000366003190112610172576000546040516001600160a01b039091168152602090f35b34610172576000366003190112610172576020600154604051908152f35b3461017257602036600319011261017257600435610414816101d2565b61041c610483565b6001600160a01b03908116801561046a57600080546001600160a01b03198116831782559092167f8be0079c531659141344cd1fd0a4f28419497f9722a3daafe3b4186f6b6457e08380a380f35b604051631e4fbdf760e01b815260006004820152602490fd5b6000546001600160a01b0316330361049757565b60405163118cdaa760e01b8152336004820152602490fd5b156104b657565b60405162461bcd60e51b815260206004820152601d60248201527f496e76616c6964207374616b696e6720746f6b656e20616464726573730000006044820152606490fd5b1561050257565b60405162461bcd60e51b815260206004820152601c60248201527f496e76616c69642072657761726420746f6b656e2061646472657373000000006044820152606490fd5b1561054e57565b60405162461bcd60e51b815260206004820152602160248201527f456e642074696d65206d7573742062652061667465722073746172742074696d6044820152606560f81b6064820152608490fd5b634e487b7160e01b600052604160045260246000fd5b90601f8019910116810190811067ffffffffffffffff8211176105d557604052565b61059d565b906105e860405192836105b3565b565b9081519160005b838110610602575050016000815290565b80602080928401015181850152016105f1565b600154680100000000000000008110156105d557600181018060015581101561067e5760016000527fb10e2d527612073b26eecdfd717e6a320cf44b4afac2b0732d9fcbe2b7fa0cf60180546001600160a01b0319166001600160a01b03909216919091179055565b634e487b7160e01b600052603260045260246000fdfe60c060409080825234620002015760808162000d4b803803809162000025828562000206565b833981010312620002015780516001600160a01b03908181169081900362000201576020916200005783850162000240565b60606200006687870162000240565b950151948315620001e957829185936004926000988954938860018060a01b03198616178b558b519889978896167f8be0079c531659141344cd1fd0a4f28419497f9722a3daafe3b4186f6b6457e08d80a360805260a08290526001554260035563313ce56760e01b8352165afa8015620001df5783906200019c575b60ff91501690601e821015620001595750601e0390601e82116200014557604d8211620001455750600a0a60055551610af5908162000256823960805181818161050c0152818161067d01526107c9015260a05181818160fb01526102710152f35b634e487b7160e01b81526011600452602490fd5b60649084519062461bcd60e51b82526004820152601660248201527f4d75737420626520696e666572696f7220746f203330000000000000000000006044820152fd5b508181813d8311620001d7575b620001b5818362000206565b81010312620001d3575160ff81168103620001d35760ff90620000e3565b8280fd5b503d620001a9565b84513d85823e3d90fd5b8651631e4fbdf760e01b815260006004820152602490fd5b600080fd5b601f909101601f19168101906001600160401b038211908210176200022a57604052565b634e487b7160e01b600052604160045260246000fd5b51906001600160a01b0382168203620002015756fe6040608081526004908136101561001557600080fd5b600091823560e01c9081628cc262146108ff5781630660f1e8146108c55781632e1a7d4d146107285781635d773b2c14610709578163715018a6146106ac57816372f702f314610668578163817b1cd2146106495781638b8763471461060f5781638da5cb5b146105e75781639231cf74146105c8578163a694fc3a1461048b578163acc3a93914610451578163b88a802f14610222578163ccd34cd514610203578163cd3daf9d146101df578163df136d65146101c1578163f2fde38b1461012e575063f7c618c1146100e857600080fd5b3461012a578160031936011261012a57517f00000000000000000000000000000000000000000000000000000000000000006001600160a01b03168152602090f35b5080fd5b919050346101bd5760203660031901126101bd576001600160a01b038235818116939192908490036101b957610162610930565b83156101a357505082546001600160a01b0319811683178455167f8be0079c531659141344cd1fd0a4f28419497f9722a3daafe3b4186f6b6457e08380a380f35b51631e4fbdf760e01b8152908101849052602490fd5b8480fd5b8280fd5b9050346101bd57826003193601126101bd5760209250549051908152f35b50503461012a578160031936011261012a576020906101fc6109bf565b9051908152f35b50503461012a578160031936011261012a576020906005549051908152f35b919050346101bd57826003193601126101bd5761023d6109bf565b8255426003553361042c575b33835260209060088252808420549283156103f55781516370a0823160e01b815230818301527f00000000000000000000000000000000000000000000000000000000000000006001600160a01b031691908481602481865afa9081156103eb5790869188916103b6575b5010610369573380875260088552838720879055835163a9059cbb60e01b8152918201908152602081018690529094939291839186919082908990829060400103925af193841561035f577f106f923f993c2149d49b4255ff723acafa1f2d94393f561d3eda32ae348f72419394610332575b50519283523392a280f35b61035190833d8511610358575b6103498183610a6a565b810190610aa2565b5038610327565b503d61033f565b81513d87823e3d90fd5b825162461bcd60e51b8152908101849052602160248201527f496e73756666696369656e742072657761726420746f6b656e2062616c616e636044820152606560f81b6064820152608490fd5b809250868092503d83116103e4575b6103cf8183610a6a565b810103126103e057859051386102b4565b8680fd5b503d6103c5565b84513d89823e3d90fd5b82606492519162461bcd60e51b835282015260136024820152724e6f207265776172647320746f20636c61696d60681b6044820152fd5b61043533610a0c565b3384526008602052818420558154600760205281842055610249565b9050346101bd5760203660031901126101bd57356001600160a01b038116908190036101bd57828291602094526006845220549051908152f35b919050346101bd576020806003193601126105c4578235916104ab6109bf565b845542600355336105a1575b821561056f576104c9836002546109b2565b600255338552600682528085206104e18482546109b2565b905580516323b872dd60e01b81523394810194909452306024850152604484018390528184606481887f00000000000000000000000000000000000000000000000000000000000000006001600160a01b03165af193841561035f577f9e71bc8eea02a63969f509818f2dafb9254532904319f9dbda79b67bd34a5f3d93946103325750519283523392a280f35b5162461bcd60e51b81529283015250600e60248201526d043616e6e6f74207374616b6520360941b6044820152606490fd5b6105aa33610a0c565b3386526008835281862055835460078352818620556104b7565b8380fd5b50503461012a578160031936011261012a576020906003549051908152f35b50503461012a578160031936011261012a57905490516001600160a01b039091168152602090f35b9050346101bd5760203660031901126101bd57356001600160a01b038116908190036101bd57828291602094526007845220549051908152f35b50503461012a578160031936011261012a576020906002549051908152f35b50503461012a578160031936011261012a57517f00000000000000000000000000000000000000000000000000000000000000006001600160a01b03168152602090f35b83346107065780600319360112610706576106c5610930565b80546001600160a01b03198116825581906001600160a01b03167f8be0079c531659141344cd1fd0a4f28419497f9722a3daafe3b4186f6b6457e08280a380f35b80fd5b50503461012a578160031936011261012a576020906001549051908152f35b919050346101bd57602090816003193601126105c4578235926107496109bf565b815542600355336108a2575b831561086d573385526006835283828620541061082c579082848094936107816107c49760025461095c565b6002553388526006835283882061079983825461095c565b9055835163a9059cbb60e01b8152339181019182526020820192909252909586918291604090910190565b0381887f00000000000000000000000000000000000000000000000000000000000000006001600160a01b03165af193841561035f577f7084f5476618d8e60b11ef0d7d3f06914655adb8793e28ff7f018d4c76d505d593946103325750519283523392a280f35b82606492519162461bcd60e51b8352820152601e60248201527f576974686472617720616d6f756e742065786365656473207374616b656400006044820152fd5b82606492519162461bcd60e51b83528201526011602482015270043616e6e6f74207769746864726177203607c1b6044820152fd5b6108ab33610a0c565b338652600884528286205580546007845282862055610755565b9050346101bd5760203660031901126101bd57356001600160a01b038116908190036101bd57828291602094526008845220549051908152f35b9050346101bd5760203660031901126101bd5735916001600160a01b038316830361070657506101fc602092610a0c565b6000546001600160a01b0316330361094457565b60405163118cdaa760e01b8152336004820152602490fd5b9190820391821161096957565b634e487b7160e01b600052601160045260246000fd5b8181029291811591840414171561096957565b811561099c570490565b634e487b7160e01b600052601260045260246000fd5b9190820180921161096957565b6002548015610a0557610a02906109fc600454916109f76109ee6109e56003544261095c565b6001549061097f565b6005549061097f565b610992565b906109b2565b90565b5060045490565b610a029060018060a01b0316604060008281526006602052610a5a610a5183832054610a4b610a396109bf565b8786526007602052868620549061095c565b9061097f565b60055490610992565b92815260086020522054906109b2565b90601f8019910116810190811067ffffffffffffffff821117610a8c57604052565b634e487b7160e01b600052604160045260246000fd5b90816020910312610aba57518015158103610aba5790565b600080fdfea26469706673582212201fd734ae5952287d78b87d55c53d89eaa5db79a2fa64d99708f07d403e87703464736f6c63430008140033a264697066735822122041afcc526dfbe677758d25fdd69dbfce6b53bdc5dc6424f7339eb5cc6a276b5364736f6c63430008140033",
          "opcodes": "PUSH1 0x80 CALLVALUE PUSH2 0xBB JUMPI PUSH1 0x1F PUSH2 0x14EC CODESIZE DUP2 SWAP1 SUB SWAP2 DUP3 ADD PUSH1 0x1F NOT AND DUP4 ADD SWAP2 PUSH1 0x1 PUSH1 0x1 PUSH1 0x40 SHL SUB DUP4 GT DUP5 DUP5 LT OR PUSH2 0xC0 JUMPI DUP1 DUP5 SWAP3 PUSH1 0x20 SWAP5 PUSH1 0x40 MSTORE DUP4 CODECOPY DUP2 ADD SUB SLT PUSH2 0xBB JUMPI MLOAD PUSH1 0x1 PUSH1 0x1 PUSH1 0xA0 SHL SUB SWAP1 DUP2 DUP2 AND SWAP1 DUP2 SWAP1 SUB PUSH2 0xBB JUMPI DUP1 ISZERO PUSH2 0xA2 JUMPI PUSH1 0x0 DUP1 SLOAD PUSH1 0x1 PUSH1 0x1 PUSH1 0xA0 SHL SUB NOT DUP2 AND DUP4 OR DUP3 SSTORE PUSH1 0x40 MLOAD SWAP4 AND SWAP1 PUSH32 0x8BE0079C531659141344CD1FD0A4F28419497F9722A3DAAFE3B4186F6B6457E0 SWAP1 DUP1 LOG3 PUSH2 0x1415 SWAP1 DUP2 PUSH2 0xD7 DUP3 CODECOPY RETURN JUMPDEST PUSH1 0x40 MLOAD PUSH4 0x1E4FBDF7 PUSH1 0xE0 SHL DUP2 MSTORE PUSH1 0x0 PUSH1 0x4 DUP3 ADD MSTORE PUSH1 0x24 SWAP1 REVERT JUMPDEST PUSH1 0x0 DUP1 REVERT JUMPDEST PUSH4 0x4E487B71 PUSH1 0xE0 SHL PUSH1 0x0 MSTORE PUSH1 0x41 PUSH1 0x4 MSTORE PUSH1 0x24 PUSH1 0x0 REVERT INVALID PUSH1 0x80 PUSH1 0x40 MSTORE PUSH1 0x4 CALLDATASIZE LT ISZERO PUSH2 0x12 JUMPI PUSH1 0x0 DUP1 REVERT JUMPDEST PUSH1 0x0 DUP1 CALLDATALOAD PUSH1 0xE0 SHR SWAP1 DUP2 PUSH4 0x68BCD8D EQ PUSH2 0x8A JUMPI POP DUP1 PUSH4 0x41D1DE97 EQ PUSH2 0x85 JUMPI DUP1 PUSH4 0x715018A6 EQ PUSH2 0x80 JUMPI DUP1 PUSH4 0x85AC165A EQ PUSH2 0x7B JUMPI DUP1 PUSH4 0x8DA5CB5B EQ PUSH2 0x76 JUMPI DUP1 PUSH4 0x8EEC5D70 EQ PUSH2 0x71 JUMPI PUSH4 0xF2FDE38B EQ PUSH2 0x6C JUMPI PUSH1 0x0 DUP1 REVERT JUMPDEST PUSH2 0x3F7 JUMP JUMPDEST PUSH2 0x3D9 JUMP JUMPDEST PUSH2 0x3B0 JUMP JUMPDEST PUSH2 0x1E3 JUMP JUMPDEST PUSH2 0x177 JUMP JUMPDEST PUSH2 0x117 JUMP JUMPDEST CALLVALUE PUSH2 0x114 JUMPI PUSH1 0x20 CALLDATASIZE PUSH1 0x3 NOT ADD SLT PUSH2 0x114 JUMPI PUSH1 0x4 CALLDATALOAD SWAP1 PUSH1 0x1 SLOAD DUP3 LT ISZERO PUSH2 0xE6 JUMPI PUSH1 0x1 SWAP1 MSTORE PUSH32 0xB10E2D527612073B26EECDFD717E6A320CF44B4AFAC2B0732D9FCBE2B7FA0CF6 ADD SLOAD PUSH1 0x1 PUSH1 0x1 PUSH1 0xA0 SHL SUB AND PUSH1 0x80 MSTORE PUSH1 0x7F NOT PUSH1 0xA0 ADD PUSH1 0x80 RETURN JUMPDEST PUSH3 0x461BCD PUSH1 0xE5 SHL PUSH1 0x80 MSTORE PUSH1 0x20 PUSH1 0x84 MSTORE PUSH1 0xD PUSH1 0xA4 MSTORE PUSH13 0x92DCECC2D8D2C840D2DCC8CAF PUSH1 0x9B SHL PUSH1 0xC4 MSTORE PUSH1 0x64 PUSH1 0x80 REVERT JUMPDEST DUP1 REVERT JUMPDEST CALLVALUE PUSH2 0x172 JUMPI PUSH1 0x20 CALLDATASIZE PUSH1 0x3 NOT ADD SLT PUSH2 0x172 JUMPI PUSH1 0x4 CALLDATALOAD PUSH1 0x1 SLOAD DUP2 LT ISZERO PUSH2 0x172 JUMPI PUSH1 0x1 PUSH1 0x0 MSTORE PUSH32 0xB10E2D527612073B26EECDFD717E6A320CF44B4AFAC2B0732D9FCBE2B7FA0CF6 ADD SLOAD PUSH1 0x40 MLOAD PUSH1 0x1 PUSH1 0x1 PUSH1 0xA0 SHL SUB SWAP1 SWAP2 AND DUP2 MSTORE PUSH1 0x20 SWAP1 RETURN JUMPDEST PUSH1 0x0 DUP1 REVERT JUMPDEST CALLVALUE PUSH2 0x172 JUMPI PUSH1 0x0 DUP1 PUSH1 0x3 NOT CALLDATASIZE ADD SLT PUSH2 0x114 JUMPI PUSH2 0x191 PUSH2 0x483 JUMP JUMPDEST DUP1 SLOAD PUSH1 0x1 PUSH1 0x1 PUSH1 0xA0 SHL SUB NOT DUP2 AND DUP3 SSTORE DUP2 SWAP1 PUSH1 0x1 PUSH1 0x1 PUSH1 0xA0 SHL SUB AND PUSH32 0x8BE0079C531659141344CD1FD0A4F28419497F9722A3DAAFE3B4186F6B6457E0 DUP3 DUP1 LOG3 DUP1 RETURN JUMPDEST PUSH1 0x1 PUSH1 0x1 PUSH1 0xA0 SHL SUB DUP2 AND SUB PUSH2 0x172 JUMPI JUMP JUMPDEST CALLVALUE PUSH2 0x172 JUMPI PUSH1 0xA0 CALLDATASIZE PUSH1 0x3 NOT ADD SLT PUSH2 0x172 JUMPI PUSH1 0x4 CALLDATALOAD PUSH2 0x200 DUP2 PUSH2 0x1D2 JUMP JUMPDEST PUSH1 0x24 CALLDATALOAD PUSH2 0x20C DUP2 PUSH2 0x1D2 JUMP JUMPDEST PUSH1 0x44 CALLDATALOAD PUSH1 0x64 CALLDATALOAD SWAP1 PUSH2 0x338 PUSH2 0x344 DUP3 PUSH1 0x84 CALLDATALOAD SWAP6 PUSH2 0x226 PUSH2 0x483 JUMP JUMPDEST PUSH1 0x1 PUSH1 0x1 PUSH1 0xA0 SHL SUB DUP9 DUP2 AND SWAP9 PUSH2 0x31E SWAP2 PUSH2 0x312 SWAP1 PUSH2 0x245 DUP13 ISZERO ISZERO PUSH2 0x4AF JUMP JUMPDEST DUP5 AND SWAP10 PUSH2 0x253 DUP12 ISZERO ISZERO PUSH2 0x4FB JUMP JUMPDEST PUSH2 0x25E DUP11 DUP3 GT PUSH2 0x547 JUMP JUMPDEST PUSH1 0x40 MLOAD PUSH1 0x60 DUP14 DUP2 SHL PUSH12 0xFFFFFFFFFFFFFFFFFFFFFFFF NOT SWAP1 DUP2 AND PUSH1 0x20 DUP5 ADD SWAP1 DUP2 MSTORE SWAP2 DUP15 SWAP1 SHL AND PUSH1 0x34 DUP4 ADD MSTORE PUSH1 0x48 DUP3 ADD SWAP8 SWAP1 SWAP8 MSTORE PUSH1 0x68 DUP2 ADD DUP12 SWAP1 MSTORE PUSH1 0x88 DUP1 DUP3 ADD DUP4 SWAP1 MSTORE DUP2 MSTORE PUSH1 0x1F NOT SWAP7 SWAP1 PUSH2 0x2B1 PUSH1 0xA8 DUP3 PUSH2 0x5B3 JUMP JUMPDEST MLOAD SWAP1 KECCAK256 SWAP10 PUSH2 0xD4B SWAP10 PUSH2 0x2C5 PUSH1 0x20 DUP13 ADD PUSH2 0x5DA JUMP JUMPDEST SWAP11 DUP1 DUP13 MSTORE PUSH2 0x695 PUSH1 0x20 DUP14 ADD CODECOPY PUSH1 0x40 MLOAD SWAP7 DUP8 SWAP6 CALLER PUSH1 0x20 DUP9 ADD SWAP3 SWAP2 PUSH1 0xA0 SWAP5 SWAP2 SWAP8 SWAP7 SWAP6 SWAP3 PUSH1 0xC0 DUP6 ADD SWAP9 PUSH1 0x1 DUP1 DUP9 SHL SUB SWAP3 DUP4 DUP1 SWAP3 AND DUP8 MSTORE AND PUSH1 0x20 DUP7 ADD MSTORE AND PUSH1 0x40 DUP5 ADD MSTORE PUSH1 0x60 DUP4 ADD MSTORE PUSH1 0x80 DUP3 ADD MSTORE ADD MSTORE JUMP JUMPDEST SUB DUP4 DUP2 ADD DUP4 MSTORE DUP3 PUSH2 0x5B3 JUMP JUMPDEST PUSH1 0x40 MLOAD SWAP4 DUP5 SWAP2 PUSH2 0x332 PUSH1 0x20 DUP5 ADD DUP1 SWAP9 PUSH2 0x5EA JUMP JUMPDEST SWAP1 PUSH2 0x5EA JUMP JUMPDEST SUB SWAP1 DUP2 ADD DUP4 MSTORE DUP3 PUSH2 0x5B3 JUMP JUMPDEST MLOAD SWAP1 PUSH1 0x0 CREATE2 SWAP1 DUP2 ISZERO PUSH2 0x172 JUMPI PUSH2 0x3AC SWAP3 PUSH2 0x35D DUP4 PUSH2 0x615 JUMP JUMPDEST PUSH1 0x40 MLOAD PUSH1 0x1 PUSH1 0x1 PUSH1 0xA0 SHL SUB DUP5 AND DUP2 MSTORE PUSH32 0x9C5D829B9B23EFC461F9AEEF91979EC04BB903FEB3BEE4F26D22114ABFC7335B SWAP1 PUSH1 0x20 SWAP1 LOG3 PUSH1 0x40 MLOAD PUSH1 0x1 PUSH1 0x1 PUSH1 0xA0 SHL SUB SWAP1 SWAP2 AND DUP2 MSTORE SWAP1 DUP2 SWAP1 PUSH1 0x20 DUP3 ADD SWAP1 JUMP JUMPDEST SUB SWAP1 RETURN JUMPDEST CALLVALUE PUSH2 0x172 JUMPI PUSH1 0x0 CALLDATASIZE PUSH1 0x3 NOT ADD SLT PUSH2 0x172 JUMPI PUSH1 0x0 SLOAD PUSH1 0x40 MLOAD PUSH1 0x1 PUSH1 0x1 PUSH1 0xA0 SHL SUB SWAP1 SWAP2 AND DUP2 MSTORE PUSH1 0x20 SWAP1 RETURN JUMPDEST CALLVALUE PUSH2 0x172 JUMPI PUSH1 0x0 CALLDATASIZE PUSH1 0x3 NOT ADD SLT PUSH2 0x172 JUMPI PUSH1 0x20 PUSH1 0x1 SLOAD PUSH1 0x40 MLOAD SWAP1 DUP2 MSTORE RETURN JUMPDEST CALLVALUE PUSH2 0x172 JUMPI PUSH1 0x20 CALLDATASIZE PUSH1 0x3 NOT ADD SLT PUSH2 0x172 JUMPI PUSH1 0x4 CALLDATALOAD PUSH2 0x414 DUP2 PUSH2 0x1D2 JUMP JUMPDEST PUSH2 0x41C PUSH2 0x483 JUMP JUMPDEST PUSH1 0x1 PUSH1 0x1 PUSH1 0xA0 SHL SUB SWAP1 DUP2 AND DUP1 ISZERO PUSH2 0x46A JUMPI PUSH1 0x0 DUP1 SLOAD PUSH1 0x1 PUSH1 0x1 PUSH1 0xA0 SHL SUB NOT DUP2 AND DUP4 OR DUP3 SSTORE SWAP1 SWAP3 AND PUSH32 0x8BE0079C531659141344CD1FD0A4F28419497F9722A3DAAFE3B4186F6B6457E0 DUP4 DUP1 LOG3 DUP1 RETURN JUMPDEST PUSH1 0x40 MLOAD PUSH4 0x1E4FBDF7 PUSH1 0xE0 SHL DUP2 MSTORE PUSH1 0x0 PUSH1 0x4 DUP3 ADD MSTORE PUSH1 0x24 SWAP1 REVERT JUMPDEST PUSH1 0x0 SLOAD PUSH1 0x1 PUSH1 0x1 PUSH1 0xA0 SHL SUB AND CALLER SUB PUSH2 0x497 JUMPI JUMP JUMPDEST PUSH1 0x40 MLOAD PUSH4 0x118CDAA7 PUSH1 0xE0 SHL DUP2 MSTORE CALLER PUSH1 0x4 DUP3 ADD MSTORE PUSH1 0x24 SWAP1 REVERT JUMPDEST ISZERO PUSH2 0x4B6 JUMPI JUMP JUMPDEST PUSH1 0x40 MLOAD PUSH3 0x461BCD PUSH1 0xE5 SHL DUP2 MSTORE PUSH1 0x20 PUSH1 0x4 DUP3 ADD MSTORE PUSH1 0x1D PUSH1 0x24 DUP3 ADD MSTORE PUSH32 0x496E76616C6964207374616B696E6720746F6B656E2061646472657373000000 PUSH1 0x44 DUP3 ADD MSTORE PUSH1 0x64 SWAP1 REVERT JUMPDEST ISZERO PUSH2 0x502 JUMPI JUMP JUMPDEST PUSH1 0x40 MLOAD PUSH3 0x461BCD PUSH1 0xE5 SHL DUP2 MSTORE PUSH1 0x20 PUSH1 0x4 DUP3 ADD MSTORE PUSH1 0x1C PUSH1 0x24 DUP3 ADD MSTORE PUSH32 0x496E76616C69642072657761726420746F6B656E206164647265737300000000 PUSH1 0x44 DUP3 ADD MSTORE PUSH1 0x64 SWAP1 REVERT JUMPDEST ISZERO PUSH2 0x54E JUMPI JUMP JUMPDEST PUSH1 0x40 MLOAD PUSH3 0x461BCD PUSH1 0xE5 SHL DUP2 MSTORE PUSH1 0x20 PUSH1 0x4 DUP3 ADD MSTORE PUSH1 0x21 PUSH1 0x24 DUP3 ADD MSTORE PUSH32 0x456E642074696D65206D7573742062652061667465722073746172742074696D PUSH1 0x44 DUP3 ADD MSTORE PUSH1 0x65 PUSH1 0xF8 SHL PUSH1 0x64 DUP3 ADD MSTORE PUSH1 0x84 SWAP1 REVERT JUMPDEST PUSH4 0x4E487B71 PUSH1 0xE0 SHL PUSH1 0x0 MSTORE PUSH1 0x41 PUSH1 0x4 MSTORE PUSH1 0x24 PUSH1 0x0 REVERT JUMPDEST SWAP1 PUSH1 0x1F DUP1 NOT SWAP2 ADD AND DUP2 ADD SWAP1 DUP2 LT PUSH8 0xFFFFFFFFFFFFFFFF DUP3 GT OR PUSH2 0x5D5 JUMPI PUSH1 0x40 MSTORE JUMP JUMPDEST PUSH2 0x59D JUMP JUMPDEST SWAP1 PUSH2 0x5E8 PUSH1 0x40 MLOAD SWAP3 DUP4 PUSH2 0x5B3 JUMP JUMPDEST JUMP JUMPDEST SWAP1 DUP2 MLOAD SWAP2 PUSH1 0x0 JUMPDEST DUP4 DUP2 LT PUSH2 0x602 JUMPI POP POP ADD PUSH1 0x0 DUP2 MSTORE SWAP1 JUMP JUMPDEST DUP1 PUSH1 0x20 DUP1 SWAP3 DUP5 ADD ADD MLOAD DUP2 DUP6 ADD MSTORE ADD PUSH2 0x5F1 JUMP JUMPDEST PUSH1 0x1 SLOAD PUSH9 0x10000000000000000 DUP2 LT ISZERO PUSH2 0x5D5 JUMPI PUSH1 0x1 DUP2 ADD DUP1 PUSH1 0x1 SSTORE DUP2 LT ISZERO PUSH2 0x67E JUMPI PUSH1 0x1 PUSH1 0x0 MSTORE PUSH32 0xB10E2D527612073B26EECDFD717E6A320CF44B4AFAC2B0732D9FCBE2B7FA0CF6 ADD DUP1 SLOAD PUSH1 0x1 PUSH1 0x1 PUSH1 0xA0 SHL SUB NOT AND PUSH1 0x1 PUSH1 0x1 PUSH1 0xA0 SHL SUB SWAP1 SWAP3 AND SWAP2 SWAP1 SWAP2 OR SWAP1 SSTORE JUMP JUMPDEST PUSH4 0x4E487B71 PUSH1 0xE0 SHL PUSH1 0x0 MSTORE PUSH1 0x32 PUSH1 0x4 MSTORE PUSH1 0x24 PUSH1 0x0 REVERT INVALID PUSH1 0xC0 PUSH1 0x40 SWAP1 DUP1 DUP3 MSTORE CALLVALUE PUSH3 0x201 JUMPI PUSH1 0x80 DUP2 PUSH3 0xD4B DUP1 CODESIZE SUB DUP1 SWAP2 PUSH3 0x25 DUP3 DUP6 PUSH3 0x206 JUMP JUMPDEST DUP4 CODECOPY DUP2 ADD SUB SLT PUSH3 0x201 JUMPI DUP1 MLOAD PUSH1 0x1 PUSH1 0x1 PUSH1 0xA0 SHL SUB SWAP1 DUP2 DUP2 AND SWAP1 DUP2 SWAP1 SUB PUSH3 0x201 JUMPI PUSH1 0x20 SWAP2 PUSH3 0x57 DUP4 DUP6 ADD PUSH3 0x240 JUMP JUMPDEST PUSH1 0x60 PUSH3 0x66 DUP8 DUP8 ADD PUSH3 0x240 JUMP JUMPDEST SWAP6 ADD MLOAD SWAP5 DUP4 ISZERO PUSH3 0x1E9 JUMPI DUP3 SWAP2 DUP6 SWAP4 PUSH1 0x4 SWAP3 PUSH1 0x0 SWAP9 DUP10 SLOAD SWAP4 DUP9 PUSH1 0x1 DUP1 PUSH1 0xA0 SHL SUB NOT DUP7 AND OR DUP12 SSTORE DUP12 MLOAD SWAP9 DUP10 SWAP8 DUP9 SWAP7 AND PUSH32 0x8BE0079C531659141344CD1FD0A4F28419497F9722A3DAAFE3B4186F6B6457E0 DUP14 DUP1 LOG3 PUSH1 0x80 MSTORE PUSH1 0xA0 DUP3 SWAP1 MSTORE PUSH1 0x1 SSTORE TIMESTAMP PUSH1 0x3 SSTORE PUSH4 0x313CE567 PUSH1 0xE0 SHL DUP4 MSTORE AND GAS STATICCALL DUP1 ISZERO PUSH3 0x1DF JUMPI DUP4 SWAP1 PUSH3 0x19C JUMPI JUMPDEST PUSH1 0xFF SWAP2 POP AND SWAP1 PUSH1 0x1E DUP3 LT ISZERO PUSH3 0x159 JUMPI POP PUSH1 0x1E SUB SWAP1 PUSH1 0x1E DUP3 GT PUSH3 0x145 JUMPI PUSH1 0x4D DUP3 GT PUSH3 0x145 JUMPI POP PUSH1 0xA EXP PUSH1 0x5 SSTORE MLOAD PUSH2 0xAF5 SWAP1 DUP2 PUSH3 0x256 DUP3 CODECOPY PUSH1 0x80 MLOAD DUP2 DUP2 DUP2 PUSH2 0x50C ADD MSTORE DUP2 DUP2 PUSH2 0x67D ADD MSTORE PUSH2 0x7C9 ADD MSTORE PUSH1 0xA0 MLOAD DUP2 DUP2 DUP2 PUSH1 0xFB ADD MSTORE PUSH2 0x271 ADD MSTORE RETURN JUMPDEST PUSH4 0x4E487B71 PUSH1 0xE0 SHL DUP2 MSTORE PUSH1 0x11 PUSH1 0x4 MSTORE PUSH1 0x24 SWAP1 REVERT JUMPDEST PUSH1 0x64 SWAP1 DUP5 MLOAD SWAP1 PUSH3 0x461BCD PUSH1 0xE5 SHL DUP3 MSTORE PUSH1 0x4 DUP3 ADD MSTORE PUSH1 0x16 PUSH1 0x24 DUP3 ADD MSTORE PUSH32 0x4D75737420626520696E666572696F7220746F20333000000000000000000000 PUSH1 0x44 DUP3 ADD MSTORE REVERT JUMPDEST POP DUP2 DUP2 DUP2 RETURNDATASIZE DUP4 GT PUSH3 0x1D7 JUMPI JUMPDEST PUSH3 0x1B5 DUP2 DUP4 PUSH3 0x206 JUMP JUMPDEST DUP2 ADD SUB SLT PUSH3 0x1D3 JUMPI MLOAD PUSH1 0xFF DUP2 AND DUP2 SUB PUSH3 0x1D3 JUMPI PUSH1 0xFF SWAP1 PUSH3 0xE3 JUMP JUMPDEST DUP3 DUP1 REVERT JUMPDEST POP RETURNDATASIZE PUSH3 0x1A9 JUMP JUMPDEST DUP5 MLOAD RETURNDATASIZE DUP6 DUP3 RETURNDATACOPY RETURNDATASIZE SWAP1 REVERT JUMPDEST DUP7 MLOAD PUSH4 0x1E4FBDF7 PUSH1 0xE0 SHL DUP2 MSTORE PUSH1 0x0 PUSH1 0x4 DUP3 ADD MSTORE PUSH1 0x24 SWAP1 REVERT JUMPDEST PUSH1 0x0 DUP1 REVERT JUMPDEST PUSH1 0x1F SWAP1 SWAP2 ADD PUSH1 0x1F NOT AND DUP2 ADD SWAP1 PUSH1 0x1 PUSH1 0x1 PUSH1 0x40 SHL SUB DUP3 GT SWAP1 DUP3 LT OR PUSH3 0x22A JUMPI PUSH1 0x40 MSTORE JUMP JUMPDEST PUSH4 0x4E487B71 PUSH1 0xE0 SHL PUSH1 0x0 MSTORE PUSH1 0x41 PUSH1 0x4 MSTORE PUSH1 0x24 PUSH1 0x0 REVERT JUMPDEST MLOAD SWAP1 PUSH1 0x1 PUSH1 0x1 PUSH1 0xA0 SHL SUB DUP3 AND DUP3 SUB PUSH3 0x201 JUMPI JUMP INVALID PUSH1 0x40 PUSH1 0x80 DUP2 MSTORE PUSH1 0x4 SWAP1 DUP2 CALLDATASIZE LT ISZERO PUSH2 0x15 JUMPI PUSH1 0x0 DUP1 REVERT JUMPDEST PUSH1 0x0 SWAP2 DUP3 CALLDATALOAD PUSH1 0xE0 SHR SWAP1 DUP2 PUSH3 0x8CC262 EQ PUSH2 0x8FF JUMPI DUP2 PUSH4 0x660F1E8 EQ PUSH2 0x8C5 JUMPI DUP2 PUSH4 0x2E1A7D4D EQ PUSH2 0x728 JUMPI DUP2 PUSH4 0x5D773B2C EQ PUSH2 0x709 JUMPI DUP2 PUSH4 0x715018A6 EQ PUSH2 0x6AC JUMPI DUP2 PUSH4 0x72F702F3 EQ PUSH2 0x668 JUMPI DUP2 PUSH4 0x817B1CD2 EQ PUSH2 0x649 JUMPI DUP2 PUSH4 0x8B876347 EQ PUSH2 0x60F JUMPI DUP2 PUSH4 0x8DA5CB5B EQ PUSH2 0x5E7 JUMPI DUP2 PUSH4 0x9231CF74 EQ PUSH2 0x5C8 JUMPI DUP2 PUSH4 0xA694FC3A EQ PUSH2 0x48B JUMPI DUP2 PUSH4 0xACC3A939 EQ PUSH2 0x451 JUMPI DUP2 PUSH4 0xB88A802F EQ PUSH2 0x222 JUMPI DUP2 PUSH4 0xCCD34CD5 EQ PUSH2 0x203 JUMPI DUP2 PUSH4 0xCD3DAF9D EQ PUSH2 0x1DF JUMPI DUP2 PUSH4 0xDF136D65 EQ PUSH2 0x1C1 JUMPI DUP2 PUSH4 0xF2FDE38B EQ PUSH2 0x12E JUMPI POP PUSH4 0xF7C618C1 EQ PUSH2 0xE8 JUMPI PUSH1 0x0 DUP1 REVERT JUMPDEST CALLVALUE PUSH2 0x12A JUMPI DUP2 PUSH1 0x3 NOT CALLDATASIZE ADD SLT PUSH2 0x12A JUMPI MLOAD PUSH32 0x0 PUSH1 0x1 PUSH1 0x1 PUSH1 0xA0 SHL SUB AND DUP2 MSTORE PUSH1 0x20 SWAP1 RETURN JUMPDEST POP DUP1 REVERT JUMPDEST SWAP2 SWAP1 POP CALLVALUE PUSH2 0x1BD JUMPI PUSH1 0x20 CALLDATASIZE PUSH1 0x3 NOT ADD SLT PUSH2 0x1BD JUMPI PUSH1 0x1 PUSH1 0x1 PUSH1 0xA0 SHL SUB DUP3 CALLDATALOAD DUP2 DUP2 AND SWAP4 SWAP2 SWAP3 SWAP1 DUP5 SWAP1 SUB PUSH2 0x1B9 JUMPI PUSH2 0x162 PUSH2 0x930 JUMP JUMPDEST DUP4 ISZERO PUSH2 0x1A3 JUMPI POP POP DUP3 SLOAD PUSH1 0x1 PUSH1 0x1 PUSH1 0xA0 SHL SUB NOT DUP2 AND DUP4 OR DUP5 SSTORE AND PUSH32 0x8BE0079C531659141344CD1FD0A4F28419497F9722A3DAAFE3B4186F6B6457E0 DUP4 DUP1 LOG3 DUP1 RETURN JUMPDEST MLOAD PUSH4 0x1E4FBDF7 PUSH1 0xE0 SHL DUP2 MSTORE SWAP1 DUP2 ADD DUP5 SWAP1 MSTORE PUSH1 0x24 SWAP1 REVERT JUMPDEST DUP5 DUP1 REVERT JUMPDEST DUP3 DUP1 REVERT JUMPDEST SWAP1 POP CALLVALUE PUSH2 0x1BD JUMPI DUP3 PUSH1 0x3 NOT CALLDATASIZE ADD SLT PUSH2 0x1BD JUMPI PUSH1 0x20 SWAP3 POP SLOAD SWAP1 MLOAD SWAP1 DUP2 MSTORE RETURN JUMPDEST POP POP CALLVALUE PUSH2 0x12A JUMPI DUP2 PUSH1 0x3 NOT CALLDATASIZE ADD SLT PUSH2 0x12A JUMPI PUSH1 0x20 SWAP1 PUSH2 0x1FC PUSH2 0x9BF JUMP JUMPDEST SWAP1 MLOAD SWAP1 DUP2 MSTORE RETURN JUMPDEST POP POP CALLVALUE PUSH2 0x12A JUMPI DUP2 PUSH1 0x3 NOT CALLDATASIZE ADD SLT PUSH2 0x12A JUMPI PUSH1 0x20 SWAP1 PUSH1 0x5 SLOAD SWAP1 MLOAD SWAP1 DUP2 MSTORE RETURN JUMPDEST SWAP2 SWAP1 POP CALLVALUE PUSH2 0x1BD JUMPI DUP3 PUSH1 0x3 NOT CALLDATASIZE ADD SLT PUSH2 0x1BD JUMPI PUSH2 0x23D PUSH2 0x9BF JUMP JUMPDEST DUP3 SSTORE TIMESTAMP PUSH1 0x3 SSTORE CALLER PUSH2 0x42C JUMPI JUMPDEST CALLER DUP4 MSTORE PUSH1 0x20 SWAP1 PUSH1 0x8 DUP3 MSTORE DUP1 DUP5 KECCAK256 SLOAD SWAP3 DUP4 ISZERO PUSH2 0x3F5 JUMPI DUP2 MLOAD PUSH4 0x70A08231 PUSH1 0xE0 SHL DUP2 MSTORE ADDRESS DUP2 DUP4 ADD MSTORE PUSH32 0x0 PUSH1 0x1 PUSH1 0x1 PUSH1 0xA0 SHL SUB AND SWAP2 SWAP1 DUP5 DUP2 PUSH1 0x24 DUP2 DUP7 GAS STATICCALL SWAP1 DUP2 ISZERO PUSH2 0x3EB JUMPI SWAP1 DUP7 SWAP2 DUP9 SWAP2 PUSH2 0x3B6 JUMPI JUMPDEST POP LT PUSH2 0x369 JUMPI CALLER DUP1 DUP8 MSTORE PUSH1 0x8 DUP6 MSTORE DUP4 DUP8 KECCAK256 DUP8 SWAP1 SSTORE DUP4 MLOAD PUSH4 0xA9059CBB PUSH1 0xE0 SHL DUP2 MSTORE SWAP2 DUP3 ADD SWAP1 DUP2 MSTORE PUSH1 0x20 DUP2 ADD DUP7 SWAP1 MSTORE SWAP1 SWAP5 SWAP4 SWAP3 SWAP2 DUP4 SWAP2 DUP7 SWAP2 SWAP1 DUP3 SWAP1 DUP10 SWAP1 DUP3 SWAP1 PUSH1 0x40 ADD SUB SWAP3 GAS CALL SWAP4 DUP5 ISZERO PUSH2 0x35F JUMPI PUSH32 0x106F923F993C2149D49B4255FF723ACAFA1F2D94393F561D3EDA32AE348F7241 SWAP4 SWAP5 PUSH2 0x332 JUMPI JUMPDEST POP MLOAD SWAP3 DUP4 MSTORE CALLER SWAP3 LOG2 DUP1 RETURN JUMPDEST PUSH2 0x351 SWAP1 DUP4 RETURNDATASIZE DUP6 GT PUSH2 0x358 JUMPI JUMPDEST PUSH2 0x349 DUP2 DUP4 PUSH2 0xA6A JUMP JUMPDEST DUP2 ADD SWAP1 PUSH2 0xAA2 JUMP JUMPDEST POP CODESIZE PUSH2 0x327 JUMP JUMPDEST POP RETURNDATASIZE PUSH2 0x33F JUMP JUMPDEST DUP2 MLOAD RETURNDATASIZE DUP8 DUP3 RETURNDATACOPY RETURNDATASIZE SWAP1 REVERT JUMPDEST DUP3 MLOAD PUSH3 0x461BCD PUSH1 0xE5 SHL DUP2 MSTORE SWAP1 DUP2 ADD DUP5 SWAP1 MSTORE PUSH1 0x21 PUSH1 0x24 DUP3 ADD MSTORE PUSH32 0x496E73756666696369656E742072657761726420746F6B656E2062616C616E63 PUSH1 0x44 DUP3 ADD MSTORE PUSH1 0x65 PUSH1 0xF8 SHL PUSH1 0x64 DUP3 ADD MSTORE PUSH1 0x84 SWAP1 REVERT JUMPDEST DUP1 SWAP3 POP DUP7 DUP1 SWAP3 POP RETURNDATASIZE DUP4 GT PUSH2 0x3E4 JUMPI JUMPDEST PUSH2 0x3CF DUP2 DUP4 PUSH2 0xA6A JUMP JUMPDEST DUP2 ADD SUB SLT PUSH2 0x3E0 JUMPI DUP6 SWAP1 MLOAD CODESIZE PUSH2 0x2B4 JUMP JUMPDEST DUP7 DUP1 REVERT JUMPDEST POP RETURNDATASIZE PUSH2 0x3C5 JUMP JUMPDEST DUP5 MLOAD RETURNDATASIZE DUP10 DUP3 RETURNDATACOPY RETURNDATASIZE SWAP1 REVERT JUMPDEST DUP3 PUSH1 0x64 SWAP3 MLOAD SWAP2 PUSH3 0x461BCD PUSH1 0xE5 SHL DUP4 MSTORE DUP3 ADD MSTORE PUSH1 0x13 PUSH1 0x24 DUP3 ADD MSTORE PUSH19 0x4E6F207265776172647320746F20636C61696D PUSH1 0x68 SHL PUSH1 0x44 DUP3 ADD MSTORE REVERT JUMPDEST PUSH2 0x435 CALLER PUSH2 0xA0C JUMP JUMPDEST CALLER DUP5 MSTORE PUSH1 0x8 PUSH1 0x20 MSTORE DUP2 DUP5 KECCAK256 SSTORE DUP2 SLOAD PUSH1 0x7 PUSH1 0x20 MSTORE DUP2 DUP5 KECCAK256 SSTORE PUSH2 0x249 JUMP JUMPDEST SWAP1 POP CALLVALUE PUSH2 0x1BD JUMPI PUSH1 0x20 CALLDATASIZE PUSH1 0x3 NOT ADD SLT PUSH2 0x1BD JUMPI CALLDATALOAD PUSH1 0x1 PUSH1 0x1 PUSH1 0xA0 SHL SUB DUP2 AND SWAP1 DUP2 SWAP1 SUB PUSH2 0x1BD JUMPI DUP3 DUP3 SWAP2 PUSH1 0x20 SWAP5 MSTORE PUSH1 0x6 DUP5 MSTORE KECCAK256 SLOAD SWAP1 MLOAD SWAP1 DUP2 MSTORE RETURN JUMPDEST SWAP2 SWAP1 POP CALLVALUE PUSH2 0x1BD JUMPI PUSH1 0x20 DUP1 PUSH1 0x3 NOT CALLDATASIZE ADD SLT PUSH2 0x5C4 JUMPI DUP3 CALLDATALOAD SWAP2 PUSH2 0x4AB PUSH2 0x9BF JUMP JUMPDEST DUP5 SSTORE TIMESTAMP PUSH1 0x3 SSTORE CALLER PUSH2 0x5A1 JUMPI JUMPDEST DUP3 ISZERO PUSH2 0x56F JUMPI PUSH2 0x4C9 DUP4 PUSH1 0x2 SLOAD PUSH2 0x9B2 JUMP JUMPDEST PUSH1 0x2 SSTORE CALLER DUP6 MSTORE PUSH1 0x6 DUP3 MSTORE DUP1 DUP6 KECCAK256 PUSH2 0x4E1 DUP5 DUP3 SLOAD PUSH2 0x9B2 JUMP JUMPDEST SWAP1 SSTORE DUP1 MLOAD PUSH4 0x23B872DD PUSH1 0xE0 SHL DUP2 MSTORE CALLER SWAP5 DUP2 ADD SWAP5 SWAP1 SWAP5 MSTORE ADDRESS PUSH1 0x24 DUP6 ADD MSTORE PUSH1 0x44 DUP5 ADD DUP4 SWAP1 MSTORE DUP2 DUP5 PUSH1 0x64 DUP2 DUP9 PUSH32 0x0 PUSH1 0x1 PUSH1 0x1 PUSH1 0xA0 SHL SUB AND GAS CALL SWAP4 DUP5 ISZERO PUSH2 0x35F JUMPI PUSH32 0x9E71BC8EEA02A63969F509818F2DAFB9254532904319F9DBDA79B67BD34A5F3D SWAP4 SWAP5 PUSH2 0x332 JUMPI POP MLOAD SWAP3 DUP4 MSTORE CALLER SWAP3 LOG2 DUP1 RETURN JUMPDEST MLOAD PUSH3 0x461BCD PUSH1 0xE5 SHL DUP2 MSTORE SWAP3 DUP4 ADD MSTORE POP PUSH1 0xE PUSH1 0x24 DUP3 ADD MSTORE PUSH14 0x43616E6E6F74207374616B65203 PUSH1 0x94 SHL PUSH1 0x44 DUP3 ADD MSTORE PUSH1 0x64 SWAP1 REVERT JUMPDEST PUSH2 0x5AA CALLER PUSH2 0xA0C JUMP JUMPDEST CALLER DUP7 MSTORE PUSH1 0x8 DUP4 MSTORE DUP2 DUP7 KECCAK256 SSTORE DUP4 SLOAD PUSH1 0x7 DUP4 MSTORE DUP2 DUP7 KECCAK256 SSTORE PUSH2 0x4B7 JUMP JUMPDEST DUP4 DUP1 REVERT JUMPDEST POP POP CALLVALUE PUSH2 0x12A JUMPI DUP2 PUSH1 0x3 NOT CALLDATASIZE ADD SLT PUSH2 0x12A JUMPI PUSH1 0x20 SWAP1 PUSH1 0x3 SLOAD SWAP1 MLOAD SWAP1 DUP2 MSTORE RETURN JUMPDEST POP POP CALLVALUE PUSH2 0x12A JUMPI DUP2 PUSH1 0x3 NOT CALLDATASIZE ADD SLT PUSH2 0x12A JUMPI SWAP1 SLOAD SWAP1 MLOAD PUSH1 0x1 PUSH1 0x1 PUSH1 0xA0 SHL SUB SWAP1 SWAP2 AND DUP2 MSTORE PUSH1 0x20 SWAP1 RETURN JUMPDEST SWAP1 POP CALLVALUE PUSH2 0x1BD JUMPI PUSH1 0x20 CALLDATASIZE PUSH1 0x3 NOT ADD SLT PUSH2 0x1BD JUMPI CALLDATALOAD PUSH1 0x1 PUSH1 0x1 PUSH1 0xA0 SHL SUB DUP2 AND SWAP1 DUP2 SWAP1 SUB PUSH2 0x1BD JUMPI DUP3 DUP3 SWAP2 PUSH1 0x20 SWAP5 MSTORE PUSH1 0x7 DUP5 MSTORE KECCAK256 SLOAD SWAP1 MLOAD SWAP1 DUP2 MSTORE RETURN JUMPDEST POP POP CALLVALUE PUSH2 0x12A JUMPI DUP2 PUSH1 0x3 NOT CALLDATASIZE ADD SLT PUSH2 0x12A JUMPI PUSH1 0x20 SWAP1 PUSH1 0x2 SLOAD SWAP1 MLOAD SWAP1 DUP2 MSTORE RETURN JUMPDEST POP POP CALLVALUE PUSH2 0x12A JUMPI DUP2 PUSH1 0x3 NOT CALLDATASIZE ADD SLT PUSH2 0x12A JUMPI MLOAD PUSH32 0x0 PUSH1 0x1 PUSH1 0x1 PUSH1 0xA0 SHL SUB AND DUP2 MSTORE PUSH1 0x20 SWAP1 RETURN JUMPDEST DUP4 CALLVALUE PUSH2 0x706 JUMPI DUP1 PUSH1 0x3 NOT CALLDATASIZE ADD SLT PUSH2 0x706 JUMPI PUSH2 0x6C5 PUSH2 0x930 JUMP JUMPDEST DUP1 SLOAD PUSH1 0x1 PUSH1 0x1 PUSH1 0xA0 SHL SUB NOT DUP2 AND DUP3 SSTORE DUP2 SWAP1 PUSH1 0x1 PUSH1 0x1 PUSH1 0xA0 SHL SUB AND PUSH32 0x8BE0079C531659141344CD1FD0A4F28419497F9722A3DAAFE3B4186F6B6457E0 DUP3 DUP1 LOG3 DUP1 RETURN JUMPDEST DUP1 REVERT JUMPDEST POP POP CALLVALUE PUSH2 0x12A JUMPI DUP2 PUSH1 0x3 NOT CALLDATASIZE ADD SLT PUSH2 0x12A JUMPI PUSH1 0x20 SWAP1 PUSH1 0x1 SLOAD SWAP1 MLOAD SWAP1 DUP2 MSTORE RETURN JUMPDEST SWAP2 SWAP1 POP CALLVALUE PUSH2 0x1BD JUMPI PUSH1 0x20 SWAP1 DUP2 PUSH1 0x3 NOT CALLDATASIZE ADD SLT PUSH2 0x5C4 JUMPI DUP3 CALLDATALOAD SWAP3 PUSH2 0x749 PUSH2 0x9BF JUMP JUMPDEST DUP2 SSTORE TIMESTAMP PUSH1 0x3 SSTORE CALLER PUSH2 0x8A2 JUMPI JUMPDEST DUP4 ISZERO PUSH2 0x86D JUMPI CALLER DUP6 MSTORE PUSH1 0x6 DUP4 MSTORE DUP4 DUP3 DUP7 KECCAK256 SLOAD LT PUSH2 0x82C JUMPI SWAP1 DUP3 DUP5 DUP1 SWAP5 SWAP4 PUSH2 0x781 PUSH2 0x7C4 SWAP8 PUSH1 0x2 SLOAD PUSH2 0x95C JUMP JUMPDEST PUSH1 0x2 SSTORE CALLER DUP9 MSTORE PUSH1 0x6 DUP4 MSTORE DUP4 DUP9 KECCAK256 PUSH2 0x799 DUP4 DUP3 SLOAD PUSH2 0x95C JUMP JUMPDEST SWAP1 SSTORE DUP4 MLOAD PUSH4 0xA9059CBB PUSH1 0xE0 SHL DUP2 MSTORE CALLER SWAP2 DUP2 ADD SWAP2 DUP3 MSTORE PUSH1 0x20 DUP3 ADD SWAP3 SWAP1 SWAP3 MSTORE SWAP1 SWAP6 DUP7 SWAP2 DUP3 SWAP2 PUSH1 0x40 SWAP1 SWAP2 ADD SWAP1 JUMP JUMPDEST SUB DUP2 DUP9 PUSH32 0x0 PUSH1 0x1 PUSH1 0x1 PUSH1 0xA0 SHL SUB AND GAS CALL SWAP4 DUP5 ISZERO PUSH2 0x35F JUMPI PUSH32 0x7084F5476618D8E60B11EF0D7D3F06914655ADB8793E28FF7F018D4C76D505D5 SWAP4 SWAP5 PUSH2 0x332 JUMPI POP MLOAD SWAP3 DUP4 MSTORE CALLER SWAP3 LOG2 DUP1 RETURN JUMPDEST DUP3 PUSH1 0x64 SWAP3 MLOAD SWAP2 PUSH3 0x461BCD PUSH1 0xE5 SHL DUP4 MSTORE DUP3 ADD MSTORE PUSH1 0x1E PUSH1 0x24 DUP3 ADD MSTORE PUSH32 0x576974686472617720616D6F756E742065786365656473207374616B65640000 PUSH1 0x44 DUP3 ADD MSTORE REVERT JUMPDEST DUP3 PUSH1 0x64 SWAP3 MLOAD SWAP2 PUSH3 0x461BCD PUSH1 0xE5 SHL DUP4 MSTORE DUP3 ADD MSTORE PUSH1 0x11 PUSH1 0x24 DUP3 ADD MSTORE PUSH17 0x43616E6E6F74207769746864726177203 PUSH1 0x7C SHL PUSH1 0x44 DUP3 ADD MSTORE REVERT JUMPDEST PUSH2 0x8AB CALLER PUSH2 0xA0C JUMP JUMPDEST CALLER DUP7 MSTORE PUSH1 0x8 DUP5 MSTORE DUP3 DUP7 KECCAK256 SSTORE DUP1 SLOAD PUSH1 0x7 DUP5 MSTORE DUP3 DUP7 KECCAK256 SSTORE PUSH2 0x755 JUMP JUMPDEST SWAP1 POP CALLVALUE PUSH2 0x1BD JUMPI PUSH1 0x20 CALLDATASIZE PUSH1 0x3 NOT ADD SLT PUSH2 0x1BD JUMPI CALLDATALOAD PUSH1 0x1 PUSH1 0x1 PUSH1 0xA0 SHL SUB DUP2 AND SWAP1 DUP2 SWAP1 SUB PUSH2 0x1BD JUMPI DUP3 DUP3 SWAP2 PUSH1 0x20 SWAP5 MSTORE PUSH1 0x8 DUP5 MSTORE KECCAK256 SLOAD SWAP1 MLOAD SWAP1 DUP2 MSTORE RETURN JUMPDEST SWAP1 POP CALLVALUE PUSH2 0x1BD JUMPI PUSH1 0x20 CALLDATASIZE PUSH1 0x3 NOT ADD SLT PUSH2 0x1BD JUMPI CALLDATALOAD SWAP2 PUSH1 0x1 PUSH1 0x1 PUSH1 0xA0 SHL SUB DUP4 AND DUP4 SUB PUSH2 0x706 JUMPI POP PUSH2 0x1FC PUSH1 0x20 SWAP3 PUSH2 0xA0C JUMP JUMPDEST PUSH1 0x0 SLOAD PUSH1 0x1 PUSH1 0x1 PUSH1 0xA0 SHL SUB AND CALLER SUB PUSH2 0x944 JUMPI JUMP JUMPDEST PUSH1 0x40 MLOAD PUSH4 0x118CDAA7 PUSH1 0xE0 SHL DUP2 MSTORE CALLER PUSH1 0x4 DUP3 ADD MSTORE PUSH1 0x24 SWAP1 REVERT JUMPDEST SWAP2 SWAP1 DUP3 SUB SWAP2 DUP3 GT PUSH2 0x969 JUMPI JUMP JUMPDEST PUSH4 0x4E487B71 PUSH1 0xE0 SHL PUSH1 0x0 MSTORE PUSH1 0x11 PUSH1 0x4 MSTORE PUSH1 0x24 PUSH1 0x0 REVERT JUMPDEST DUP2 DUP2 MUL SWAP3 SWAP2 DUP2 ISZERO SWAP2 DUP5 DIV EQ OR ISZERO PUSH2 0x969 JUMPI JUMP JUMPDEST DUP2 ISZERO PUSH2 0x99C JUMPI DIV SWAP1 JUMP JUMPDEST PUSH4 0x4E487B71 PUSH1 0xE0 SHL PUSH1 0x0 MSTORE PUSH1 0x12 PUSH1 0x4 MSTORE PUSH1 0x24 PUSH1 0x0 REVERT JUMPDEST SWAP2 SWAP1 DUP3 ADD DUP1 SWAP3 GT PUSH2 0x969 JUMPI JUMP JUMPDEST PUSH1 0x2 SLOAD DUP1 ISZERO PUSH2 0xA05 JUMPI PUSH2 0xA02 SWAP1 PUSH2 0x9FC PUSH1 0x4 SLOAD SWAP2 PUSH2 0x9F7 PUSH2 0x9EE PUSH2 0x9E5 PUSH1 0x3 SLOAD TIMESTAMP PUSH2 0x95C JUMP JUMPDEST PUSH1 0x1 SLOAD SWAP1 PUSH2 0x97F JUMP JUMPDEST PUSH1 0x5 SLOAD SWAP1 PUSH2 0x97F JUMP JUMPDEST PUSH2 0x992 JUMP JUMPDEST SWAP1 PUSH2 0x9B2 JUMP JUMPDEST SWAP1 JUMP JUMPDEST POP PUSH1 0x4 SLOAD SWAP1 JUMP JUMPDEST PUSH2 0xA02 SWAP1 PUSH1 0x1 DUP1 PUSH1 0xA0 SHL SUB AND PUSH1 0x40 PUSH1 0x0 DUP3 DUP2 MSTORE PUSH1 0x6 PUSH1 0x20 MSTORE PUSH2 0xA5A PUSH2 0xA51 DUP4 DUP4 KECCAK256 SLOAD PUSH2 0xA4B PUSH2 0xA39 PUSH2 0x9BF JUMP JUMPDEST DUP8 DUP7 MSTORE PUSH1 0x7 PUSH1 0x20 MSTORE DUP7 DUP7 KECCAK256 SLOAD SWAP1 PUSH2 0x95C JUMP JUMPDEST SWAP1 PUSH2 0x97F JUMP JUMPDEST PUSH1 0x5 SLOAD SWAP1 PUSH2 0x992 JUMP JUMPDEST SWAP3 DUP2 MSTORE PUSH1 0x8 PUSH1 0x20 MSTORE KECCAK256 SLOAD SWAP1 PUSH2 0x9B2 JUMP JUMPDEST SWAP1 PUSH1 0x1F DUP1 NOT SWAP2 ADD AND DUP2 ADD SWAP1 DUP2 LT PUSH8 0xFFFFFFFFFFFFFFFF DUP3 GT OR PUSH2 0xA8C JUMPI PUSH1 0x40 MSTORE JUMP JUMPDEST PUSH4 0x4E487B71 PUSH1 0xE0 SHL PUSH1 0x0 MSTORE PUSH1 0x41 PUSH1 0x4 MSTORE PUSH1 0x24 PUSH1 0x0 REVERT JUMPDEST SWAP1 DUP2 PUSH1 0x20 SWAP2 SUB SLT PUSH2 0xABA JUMPI MLOAD DUP1 ISZERO ISZERO DUP2 SUB PUSH2 0xABA JUMPI SWAP1 JUMP JUMPDEST PUSH1 0x0 DUP1 REVERT INVALID LOG2 PUSH5 0x6970667358 0x22 SLT KECCAK256 0x1F 0xD7 CALLVALUE 0xAE MSIZE MSTORE 0x28 PUSH30 0x78B87D55C53D89EAA5DB79A2FA64D99708F07D403E87703464736F6C6343 STOP ADDMOD EQ STOP CALLER LOG2 PUSH5 0x6970667358 0x22 SLT KECCAK256 COINBASE 0xAF 0xCC MSTORE PUSH14 0xFBE677758D25FDD69DBFCE6B53BD 0xC5 0xDC PUSH5 0x24F7339EB5 0xCC PUSH11 0x276B5364736F6C63430008 EQ STOP CALLER "
        },
        "methodIdentifiers": {
          "allPools(uint256)": "41d1de97",
          "createPool(address,address,uint256,uint256,uint256)": "85ac165a",
          "getPool(uint256)": "068bcd8d",
          "getPoolCount()": "8eec5d70",
          "owner()": "8da5cb5b",
          "renounceOwnership()": "715018a6",
          "transferOwnership(address)": "f2fde38b"
        }
      },
      "storageLayout": {
        "storage": [
          {
            "astId": 8,
            "contract": "contracts/SubnetStakingPoolFactory.sol:SubnetStakingPoolFactory",
            "label": "_owner",
            "offset": 0,
            "slot": "0",
            "type": "t_address"
          },
          {
            "astId": 676,
            "contract": "contracts/SubnetStakingPoolFactory.sol:SubnetStakingPoolFactory",
            "label": "allPools",
            "offset": 0,
            "slot": "1",
            "type": "t_array(t_address)dyn_storage"
          }
        ],
        "types": {
          "t_address": {
            "encoding": "inplace",
            "label": "address",
            "numberOfBytes": "20"
          },
          "t_array(t_address)dyn_storage": {
            "base": "t_address",
            "encoding": "dynamic_array",
            "label": "address[]",
            "numberOfBytes": "32"
          }
        }
      }
    }
  }
}