{
  "contracts/SubnetStakingPool.sol": {
    "SubnetStakingPool": {
      "abi": [
        {
          "inputs": [
            {
              "internalType": "address",
              "name": "initialOwner",
              "type": "address"
            },
            {
              "internalType": "contract IERC20Metadata",
              "name": "_stakingToken",
              "type": "address"
            },
            {
              "internalType": "contract IERC20Metadata",
              "name": "_rewardToken",
              "type": "address"
            },
            {
              "internalType": "uint256",
              "name": "_rewardRatePerSecond",
              "type": "uint256"
            },
            {
              "internalType": "uint256",
              "name": "_startTime",
              "type": "uint256"
            },
            {
              "internalType": "uint256",
              "name": "_endTime",
              "type": "uint256"
            }
          ],
          "stateMutability": "nonpayable",
          "type": "constructor"
        },
        {
          "inputs": [
            {
              "internalType": "address",
              "name": "owner",
              "type": "address"
            }
          ],
          "name": "OwnableInvalidOwner",
          "type": "error"
        },
        {
          "inputs": [
            {
              "internalType": "address",
              "name": "account",
              "type": "address"
            }
          ],
          "name": "OwnableUnauthorizedAccount",
          "type": "error"
        },
        {
          "anonymous": false,
          "inputs": [
            {
              "indexed": true,
              "internalType": "address",
              "name": "previousOwner",
              "type": "address"
            },
            {
              "indexed": true,
              "internalType": "address",
              "name": "newOwner",
              "type": "address"
            }
          ],
          "name": "OwnershipTransferred",
          "type": "event"
        },
        {
          "anonymous": false,
          "inputs": [
            {
              "indexed": true,
              "internalType": "address",
              "name": "user",
              "type": "address"
            },
            {
              "indexed": false,
              "internalType": "uint256",
              "name": "reward",
              "type": "uint256"
            }
          ],
          "name": "RewardClaimed",
          "type": "event"
        },
        {
          "anonymous": false,
          "inputs": [
            {
              "indexed": false,
              "internalType": "uint256",
              "name": "newRate",
              "type": "uint256"
            }
          ],
          "name": "RewardRateUpdated",
          "type": "event"
        },
        {
          "anonymous": false,
          "inputs": [
            {
              "indexed": true,
              "internalType": "address",
              "name": "user",
              "type": "address"
            },
            {
              "indexed": false,
              "internalType": "uint256",
              "name": "amount",
              "type": "uint256"
            }
          ],
          "name": "Staked",
          "type": "event"
        },
        {
          "anonymous": false,
          "inputs": [
            {
              "indexed": true,
              "internalType": "address",
              "name": "user",
              "type": "address"
            },
            {
              "indexed": false,
              "internalType": "uint256",
              "name": "amount",
              "type": "uint256"
            }
          ],
          "name": "Withdrawn",
          "type": "event"
        },
        {
          "inputs": [],
          "name": "PRECISION_FACTOR",
          "outputs": [
            {
              "internalType": "uint256",
              "name": "",
              "type": "uint256"
            }
          ],
          "stateMutability": "view",
          "type": "function"
        },
        {
          "inputs": [],
          "name": "claimReward",
          "outputs": [],
          "stateMutability": "nonpayable",
          "type": "function"
        },
        {
          "inputs": [
            {
              "internalType": "address",
              "name": "account",
              "type": "address"
            }
          ],
          "name": "earned",
          "outputs": [
            {
              "internalType": "uint256",
              "name": "",
              "type": "uint256"
            }
          ],
          "stateMutability": "view",
          "type": "function"
        },
        {
          "inputs": [],
          "name": "endTime",
          "outputs": [
            {
              "internalType": "uint256",
              "name": "",
              "type": "uint256"
            }
          ],
          "stateMutability": "view",
          "type": "function"
        },
        {
          "inputs": [],
          "name": "lastRewardTime",
          "outputs": [
            {
              "internalType": "uint256",
              "name": "",
              "type": "uint256"
            }
          ],
          "stateMutability": "view",
          "type": "function"
        },
        {
          "inputs": [],
          "name": "owner",
          "outputs": [
            {
              "internalType": "address",
              "name": "",
              "type": "address"
            }
          ],
          "stateMutability": "view",
          "type": "function"
        },
        {
          "inputs": [],
          "name": "renounceOwnership",
          "outputs": [],
          "stateMutability": "nonpayable",
          "type": "function"
        },
        {
          "inputs": [],
          "name": "rewardPerToken",
          "outputs": [
            {
              "internalType": "uint256",
              "name": "",
              "type": "uint256"
            }
          ],
          "stateMutability": "view",
          "type": "function"
        },
        {
          "inputs": [],
          "name": "rewardPerTokenStored",
          "outputs": [
            {
              "internalType": "uint256",
              "name": "",
              "type": "uint256"
            }
          ],
          "stateMutability": "view",
          "type": "function"
        },
        {
          "inputs": [],
          "name": "rewardRatePerSecond",
          "outputs": [
            {
              "internalType": "uint256",
              "name": "",
              "type": "uint256"
            }
          ],
          "stateMutability": "view",
          "type": "function"
        },
        {
          "inputs": [],
          "name": "rewardToken",
          "outputs": [
            {
              "internalType": "contract IERC20Metadata",
              "name": "",
              "type": "address"
            }
          ],
          "stateMutability": "view",
          "type": "function"
        },
        {
          "inputs": [
            {
              "internalType": "uint256",
              "name": "amount",
              "type": "uint256"
            }
          ],
          "name": "stake",
          "outputs": [],
          "stateMutability": "nonpayable",
          "type": "function"
        },
        {
          "inputs": [],
          "name": "stakingToken",
          "outputs": [
            {
              "internalType": "contract IERC20Metadata",
              "name": "",
              "type": "address"
            }
          ],
          "stateMutability": "view",
          "type": "function"
        },
        {
          "inputs": [],
          "name": "startTime",
          "outputs": [
            {
              "internalType": "uint256",
              "name": "",
              "type": "uint256"
            }
          ],
          "stateMutability": "view",
          "type": "function"
        },
        {
          "inputs": [],
          "name": "totalStaked",
          "outputs": [
            {
              "internalType": "uint256",
              "name": "",
              "type": "uint256"
            }
          ],
          "stateMutability": "view",
          "type": "function"
        },
        {
          "inputs": [
            {
              "internalType": "address",
              "name": "newOwner",
              "type": "address"
            }
          ],
          "name": "transferOwnership",
          "outputs": [],
          "stateMutability": "nonpayable",
          "type": "function"
        },
        {
          "inputs": [
            {
              "internalType": "address",
              "name": "",
              "type": "address"
            }
          ],
          "name": "userRewardPerTokenPaid",
          "outputs": [
            {
              "internalType": "uint256",
              "name": "",
              "type": "uint256"
            }
          ],
          "stateMutability": "view",
          "type": "function"
        },
        {
          "inputs": [
            {
              "internalType": "address",
              "name": "",
              "type": "address"
            }
          ],
          "name": "userRewards",
          "outputs": [
            {
              "internalType": "uint256",
              "name": "",
              "type": "uint256"
            }
          ],
          "stateMutability": "view",
          "type": "function"
        },
        {
          "inputs": [
            {
              "internalType": "address",
              "name": "",
              "type": "address"
            }
          ],
          "name": "userStaked",
          "outputs": [
            {
              "internalType": "uint256",
              "name": "",
              "type": "uint256"
            }
          ],
          "stateMutability": "view",
          "type": "function"
        },
        {
          "inputs": [
            {
              "internalType": "uint256",
              "name": "amount",
              "type": "uint256"
            }
          ],
          "name": "withdraw",
          "outputs": [],
          "stateMutability": "nonpayable",
          "type": "function"
        }
      ],
      "evm": {
        "bytecode": {
          "linkReferences": {},
          "object": "60c0604090808252346200026f5760c08162000ed0803803809162000025828562000274565b8339810103126200026f5780516001600160a01b0380821692918390036200026f5760209162000057838201620002ae565b9062000065868201620002ae565b91606082015160a060808401519301519187156200025757600080546001600160a01b031981168a1782558a5191999088167f8be0079c531659141344cd1fd0a4f28419497f9722a3daafe3b4186f6b6457e08b80a3838510156200020a575060805260a08490526001556006829055600755600355845163313ce56760e01b815291839183916004918391165afa801562000200578390620001bd575b60ff91501690601e8210156200017a5750601e0390601e82116200016657604d8211620001665750600a0a60055551610c0c9081620002c482396080518181816105340152818161073d01526108a8015260a05181818161011101526102870152f35b634e487b7160e01b81526011600452602490fd5b60649084519062461bcd60e51b82526004820152601660248201527f4d75737420626520696e666572696f7220746f203330000000000000000000006044820152fd5b508181813d8311620001f8575b620001d6818362000274565b81010312620001f4575160ff81168103620001f45760ff9062000103565b8280fd5b503d620001ca565b84513d85823e3d90fd5b62461bcd60e51b815260048101889052602260248201527f53746172742074696d65206d757374206265206265666f726520656e642074696044820152616d6560f01b6064820152608490fd5b8851631e4fbdf760e01b815260006004820152602490fd5b600080fd5b601f909101601f19168101906001600160401b038211908210176200029857604052565b634e487b7160e01b600052604160045260246000fd5b51906001600160a01b03821682036200026f5756fe6040608081526004908136101561001557600080fd5b600091823560e01c9081628cc262146109de5781630660f1e8146109a45781632e1a7d4d146108075781633197cbb6146107e85781635d773b2c146107c9578163715018a61461076c57816372f702f31461072857816378e9792514610709578163817b1cd2146106ea5781638b876347146106b05781638da5cb5b146106885781639231cf7414610669578163a694fc3a146104a1578163acc3a93914610467578163b88a802f14610238578163ccd34cd514610219578163cd3daf9d146101f5578163df136d65146101d7578163f2fde38b14610144575063f7c618c1146100fe57600080fd5b34610140578160031936011261014057517f00000000000000000000000000000000000000000000000000000000000000006001600160a01b03168152602090f35b5080fd5b919050346101d35760203660031901126101d3576001600160a01b038235818116939192908490036101cf57610178610a0f565b83156101b957505082546001600160a01b0319811683178455167f8be0079c531659141344cd1fd0a4f28419497f9722a3daafe3b4186f6b6457e08380a380f35b51631e4fbdf760e01b8152908101849052602490fd5b8480fd5b8280fd5b9050346101d357826003193601126101d35760209250549051908152f35b505034610140578160031936011261014057602090610212610a9e565b9051908152f35b5050346101405781600319360112610140576020906005549051908152f35b919050346101d357826003193601126101d357610253610a9e565b82554260035533610442575b338352602090600a82528084205492831561040b5781516370a0823160e01b815230818301527f00000000000000000000000000000000000000000000000000000000000000006001600160a01b031691908481602481865afa9081156104015790869188916103cc575b501061037f5733808752600a8552838720879055835163a9059cbb60e01b8152918201908152602081018690529094939291839186919082908990829060400103925af1938415610375577f106f923f993c2149d49b4255ff723acafa1f2d94393f561d3eda32ae348f72419394610348575b50519283523392a280f35b61036790833d851161036e575b61035f8183610b81565b810190610bb9565b503861033d565b503d610355565b81513d87823e3d90fd5b825162461bcd60e51b8152908101849052602160248201527f496e73756666696369656e742072657761726420746f6b656e2062616c616e636044820152606560f81b6064820152608490fd5b809250868092503d83116103fa575b6103e58183610b81565b810103126103f657859051386102ca565b8680fd5b503d6103db565b84513d89823e3d90fd5b82606492519162461bcd60e51b835282015260136024820152724e6f207265776172647320746f20636c61696d60681b6044820152fd5b61044b33610b23565b338452600a60205281842055815460096020528184205561025f565b9050346101d35760203660031901126101d357356001600160a01b038116908190036101d357828291602094526008845220549051908152f35b919050346101d3576020806003193601126106655782359160065442106106245760075442116105ec576104d3610a9e565b845542600355336105c9575b8215610597576104f183600254610a91565b60025533855260088252808520610509848254610a91565b905580516323b872dd60e01b81523394810194909452306024850152604484018390528184606481887f00000000000000000000000000000000000000000000000000000000000000006001600160a01b03165af1938415610375577f9e71bc8eea02a63969f509818f2dafb9254532904319f9dbda79b67bd34a5f3d93946103485750519283523392a280f35b5162461bcd60e51b81529283015250600e60248201526d043616e6e6f74207374616b6520360941b6044820152606490fd5b6105d233610b23565b338652600a835281862055835460098352818620556104df565b5162461bcd60e51b81529283015250601460248201527314dd185ada5b99c81c195c9a5bd908195b99195960621b6044820152606490fd5b5162461bcd60e51b81529283015250601760248201527f5374616b696e67206e6f742073746172746564207965740000000000000000006044820152606490fd5b8380fd5b5050346101405781600319360112610140576020906003549051908152f35b505034610140578160031936011261014057905490516001600160a01b039091168152602090f35b9050346101d35760203660031901126101d357356001600160a01b038116908190036101d357828291602094526009845220549051908152f35b5050346101405781600319360112610140576020906002549051908152f35b5050346101405781600319360112610140576020906006549051908152f35b505034610140578160031936011261014057517f00000000000000000000000000000000000000000000000000000000000000006001600160a01b03168152602090f35b83346107c657806003193601126107c657610785610a0f565b80546001600160a01b03198116825581906001600160a01b03167f8be0079c531659141344cd1fd0a4f28419497f9722a3daafe3b4186f6b6457e08280a380f35b80fd5b5050346101405781600319360112610140576020906001549051908152f35b5050346101405781600319360112610140576020906007549051908152f35b919050346101d3576020908160031936011261066557823592610828610a9e565b81554260035533610981575b831561094c573385526008835283828620541061090b579082848094936108606108a397600254610a3b565b60025533885260088352838820610878838254610a3b565b9055835163a9059cbb60e01b8152339181019182526020820192909252909586918291604090910190565b0381887f00000000000000000000000000000000000000000000000000000000000000006001600160a01b03165af1938415610375577f7084f5476618d8e60b11ef0d7d3f06914655adb8793e28ff7f018d4c76d505d593946103485750519283523392a280f35b82606492519162461bcd60e51b8352820152601e60248201527f576974686472617720616d6f756e742065786365656473207374616b656400006044820152fd5b82606492519162461bcd60e51b83528201526011602482015270043616e6e6f74207769746864726177203607c1b6044820152fd5b61098a33610b23565b338652600a84528286205580546009845282862055610834565b9050346101d35760203660031901126101d357356001600160a01b038116908190036101d35782829160209452600a845220549051908152f35b9050346101d35760203660031901126101d35735916001600160a01b03831683036107c65750610212602092610b23565b6000546001600160a01b03163303610a2357565b60405163118cdaa760e01b8152336004820152602490fd5b91908203918211610a4857565b634e487b7160e01b600052601160045260246000fd5b81810292918115918404141715610a4857565b8115610a7b570490565b634e487b7160e01b600052601260045260246000fd5b91908201809211610a4857565b60025480158015610b18575b610b1157600754804211600014610b0a575b60035480821115610b0157610afe92610af3610aea610ae1610af89460045496610a3b565b60015490610a5e565b60055490610a5e565b610a71565b90610a91565b90565b50505060045490565b5042610abc565b5060045490565b506006544210610aaa565b610afe9060018060a01b0316604060008281526008602052610b71610b6883832054610b62610b50610a9e565b87865260096020528686205490610a3b565b90610a5e565b60055490610a71565b928152600a602052205490610a91565b90601f8019910116810190811067ffffffffffffffff821117610ba357604052565b634e487b7160e01b600052604160045260246000fd5b90816020910312610bd157518015158103610bd15790565b600080fdfea26469706673582212203ac404877ebb3ed466305f176a7dd3c25c48b0406f91d257aea622b7d0de09cc64736f6c63430008140033",
          "opcodes": "PUSH1 0xC0 PUSH1 0x40 SWAP1 DUP1 DUP3 MSTORE CALLVALUE PUSH3 0x26F JUMPI PUSH1 0xC0 DUP2 PUSH3 0xED0 DUP1 CODESIZE SUB DUP1 SWAP2 PUSH3 0x25 DUP3 DUP6 PUSH3 0x274 JUMP JUMPDEST DUP4 CODECOPY DUP2 ADD SUB SLT PUSH3 0x26F JUMPI DUP1 MLOAD PUSH1 0x1 PUSH1 0x1 PUSH1 0xA0 SHL SUB DUP1 DUP3 AND SWAP3 SWAP2 DUP4 SWAP1 SUB PUSH3 0x26F JUMPI PUSH1 0x20 SWAP2 PUSH3 0x57 DUP4 DUP3 ADD PUSH3 0x2AE JUMP JUMPDEST SWAP1 PUSH3 0x65 DUP7 DUP3 ADD PUSH3 0x2AE JUMP JUMPDEST SWAP2 PUSH1 0x60 DUP3 ADD MLOAD PUSH1 0xA0 PUSH1 0x80 DUP5 ADD MLOAD SWAP4 ADD MLOAD SWAP2 DUP8 ISZERO PUSH3 0x257 JUMPI PUSH1 0x0 DUP1 SLOAD PUSH1 0x1 PUSH1 0x1 PUSH1 0xA0 SHL SUB NOT DUP2 AND DUP11 OR DUP3 SSTORE DUP11 MLOAD SWAP2 SWAP10 SWAP1 DUP9 AND PUSH32 0x8BE0079C531659141344CD1FD0A4F28419497F9722A3DAAFE3B4186F6B6457E0 DUP12 DUP1 LOG3 DUP4 DUP6 LT ISZERO PUSH3 0x20A JUMPI POP PUSH1 0x80 MSTORE PUSH1 0xA0 DUP5 SWAP1 MSTORE PUSH1 0x1 SSTORE PUSH1 0x6 DUP3 SWAP1 SSTORE PUSH1 0x7 SSTORE PUSH1 0x3 SSTORE DUP5 MLOAD PUSH4 0x313CE567 PUSH1 0xE0 SHL DUP2 MSTORE SWAP2 DUP4 SWAP2 DUP4 SWAP2 PUSH1 0x4 SWAP2 DUP4 SWAP2 AND GAS STATICCALL DUP1 ISZERO PUSH3 0x200 JUMPI DUP4 SWAP1 PUSH3 0x1BD JUMPI JUMPDEST PUSH1 0xFF SWAP2 POP AND SWAP1 PUSH1 0x1E DUP3 LT ISZERO PUSH3 0x17A JUMPI POP PUSH1 0x1E SUB SWAP1 PUSH1 0x1E DUP3 GT PUSH3 0x166 JUMPI PUSH1 0x4D DUP3 GT PUSH3 0x166 JUMPI POP PUSH1 0xA EXP PUSH1 0x5 SSTORE MLOAD PUSH2 0xC0C SWAP1 DUP2 PUSH3 0x2C4 DUP3 CODECOPY PUSH1 0x80 MLOAD DUP2 DUP2 DUP2 PUSH2 0x534 ADD MSTORE DUP2 DUP2 PUSH2 0x73D ADD MSTORE PUSH2 0x8A8 ADD MSTORE PUSH1 0xA0 MLOAD DUP2 DUP2 DUP2 PUSH2 0x111 ADD MSTORE PUSH2 0x287 ADD MSTORE RETURN JUMPDEST PUSH4 0x4E487B71 PUSH1 0xE0 SHL DUP2 MSTORE PUSH1 0x11 PUSH1 0x4 MSTORE PUSH1 0x24 SWAP1 REVERT JUMPDEST PUSH1 0x64 SWAP1 DUP5 MLOAD SWAP1 PUSH3 0x461BCD PUSH1 0xE5 SHL DUP3 MSTORE PUSH1 0x4 DUP3 ADD MSTORE PUSH1 0x16 PUSH1 0x24 DUP3 ADD MSTORE PUSH32 0x4D75737420626520696E666572696F7220746F20333000000000000000000000 PUSH1 0x44 DUP3 ADD MSTORE REVERT JUMPDEST POP DUP2 DUP2 DUP2 RETURNDATASIZE DUP4 GT PUSH3 0x1F8 JUMPI JUMPDEST PUSH3 0x1D6 DUP2 DUP4 PUSH3 0x274 JUMP JUMPDEST DUP2 ADD SUB SLT PUSH3 0x1F4 JUMPI MLOAD PUSH1 0xFF DUP2 AND DUP2 SUB PUSH3 0x1F4 JUMPI PUSH1 0xFF SWAP1 PUSH3 0x103 JUMP JUMPDEST DUP3 DUP1 REVERT JUMPDEST POP RETURNDATASIZE PUSH3 0x1CA JUMP JUMPDEST DUP5 MLOAD RETURNDATASIZE DUP6 DUP3 RETURNDATACOPY RETURNDATASIZE SWAP1 REVERT JUMPDEST PUSH3 0x461BCD PUSH1 0xE5 SHL DUP2 MSTORE PUSH1 0x4 DUP2 ADD DUP9 SWAP1 MSTORE PUSH1 0x22 PUSH1 0x24 DUP3 ADD MSTORE PUSH32 0x53746172742074696D65206D757374206265206265666F726520656E64207469 PUSH1 0x44 DUP3 ADD MSTORE PUSH2 0x6D65 PUSH1 0xF0 SHL PUSH1 0x64 DUP3 ADD MSTORE PUSH1 0x84 SWAP1 REVERT JUMPDEST DUP9 MLOAD PUSH4 0x1E4FBDF7 PUSH1 0xE0 SHL DUP2 MSTORE PUSH1 0x0 PUSH1 0x4 DUP3 ADD MSTORE PUSH1 0x24 SWAP1 REVERT JUMPDEST PUSH1 0x0 DUP1 REVERT JUMPDEST PUSH1 0x1F SWAP1 SWAP2 ADD PUSH1 0x1F NOT AND DUP2 ADD SWAP1 PUSH1 0x1 PUSH1 0x1 PUSH1 0x40 SHL SUB DUP3 GT SWAP1 DUP3 LT OR PUSH3 0x298 JUMPI PUSH1 0x40 MSTORE JUMP JUMPDEST PUSH4 0x4E487B71 PUSH1 0xE0 SHL PUSH1 0x0 MSTORE PUSH1 0x41 PUSH1 0x4 MSTORE PUSH1 0x24 PUSH1 0x0 REVERT JUMPDEST MLOAD SWAP1 PUSH1 0x1 PUSH1 0x1 PUSH1 0xA0 SHL SUB DUP3 AND DUP3 SUB PUSH3 0x26F JUMPI JUMP INVALID PUSH1 0x40 PUSH1 0x80 DUP2 MSTORE PUSH1 0x4 SWAP1 DUP2 CALLDATASIZE LT ISZERO PUSH2 0x15 JUMPI PUSH1 0x0 DUP1 REVERT JUMPDEST PUSH1 0x0 SWAP2 DUP3 CALLDATALOAD PUSH1 0xE0 SHR SWAP1 DUP2 PUSH3 0x8CC262 EQ PUSH2 0x9DE JUMPI DUP2 PUSH4 0x660F1E8 EQ PUSH2 0x9A4 JUMPI DUP2 PUSH4 0x2E1A7D4D EQ PUSH2 0x807 JUMPI DUP2 PUSH4 0x3197CBB6 EQ PUSH2 0x7E8 JUMPI DUP2 PUSH4 0x5D773B2C EQ PUSH2 0x7C9 JUMPI DUP2 PUSH4 0x715018A6 EQ PUSH2 0x76C JUMPI DUP2 PUSH4 0x72F702F3 EQ PUSH2 0x728 JUMPI DUP2 PUSH4 0x78E97925 EQ PUSH2 0x709 JUMPI DUP2 PUSH4 0x817B1CD2 EQ PUSH2 0x6EA JUMPI DUP2 PUSH4 0x8B876347 EQ PUSH2 0x6B0 JUMPI DUP2 PUSH4 0x8DA5CB5B EQ PUSH2 0x688 JUMPI DUP2 PUSH4 0x9231CF74 EQ PUSH2 0x669 JUMPI DUP2 PUSH4 0xA694FC3A EQ PUSH2 0x4A1 JUMPI DUP2 PUSH4 0xACC3A939 EQ PUSH2 0x467 JUMPI DUP2 PUSH4 0xB88A802F EQ PUSH2 0x238 JUMPI DUP2 PUSH4 0xCCD34CD5 EQ PUSH2 0x219 JUMPI DUP2 PUSH4 0xCD3DAF9D EQ PUSH2 0x1F5 JUMPI DUP2 PUSH4 0xDF136D65 EQ PUSH2 0x1D7 JUMPI DUP2 PUSH4 0xF2FDE38B EQ PUSH2 0x144 JUMPI POP PUSH4 0xF7C618C1 EQ PUSH2 0xFE JUMPI PUSH1 0x0 DUP1 REVERT JUMPDEST CALLVALUE PUSH2 0x140 JUMPI DUP2 PUSH1 0x3 NOT CALLDATASIZE ADD SLT PUSH2 0x140 JUMPI MLOAD PUSH32 0x0 PUSH1 0x1 PUSH1 0x1 PUSH1 0xA0 SHL SUB AND DUP2 MSTORE PUSH1 0x20 SWAP1 RETURN JUMPDEST POP DUP1 REVERT JUMPDEST SWAP2 SWAP1 POP CALLVALUE PUSH2 0x1D3 JUMPI PUSH1 0x20 CALLDATASIZE PUSH1 0x3 NOT ADD SLT PUSH2 0x1D3 JUMPI PUSH1 0x1 PUSH1 0x1 PUSH1 0xA0 SHL SUB DUP3 CALLDATALOAD DUP2 DUP2 AND SWAP4 SWAP2 SWAP3 SWAP1 DUP5 SWAP1 SUB PUSH2 0x1CF JUMPI PUSH2 0x178 PUSH2 0xA0F JUMP JUMPDEST DUP4 ISZERO PUSH2 0x1B9 JUMPI POP POP DUP3 SLOAD PUSH1 0x1 PUSH1 0x1 PUSH1 0xA0 SHL SUB NOT DUP2 AND DUP4 OR DUP5 SSTORE AND PUSH32 0x8BE0079C531659141344CD1FD0A4F28419497F9722A3DAAFE3B4186F6B6457E0 DUP4 DUP1 LOG3 DUP1 RETURN JUMPDEST MLOAD PUSH4 0x1E4FBDF7 PUSH1 0xE0 SHL DUP2 MSTORE SWAP1 DUP2 ADD DUP5 SWAP1 MSTORE PUSH1 0x24 SWAP1 REVERT JUMPDEST DUP5 DUP1 REVERT JUMPDEST DUP3 DUP1 REVERT JUMPDEST SWAP1 POP CALLVALUE PUSH2 0x1D3 JUMPI DUP3 PUSH1 0x3 NOT CALLDATASIZE ADD SLT PUSH2 0x1D3 JUMPI PUSH1 0x20 SWAP3 POP SLOAD SWAP1 MLOAD SWAP1 DUP2 MSTORE RETURN JUMPDEST POP POP CALLVALUE PUSH2 0x140 JUMPI DUP2 PUSH1 0x3 NOT CALLDATASIZE ADD SLT PUSH2 0x140 JUMPI PUSH1 0x20 SWAP1 PUSH2 0x212 PUSH2 0xA9E JUMP JUMPDEST SWAP1 MLOAD SWAP1 DUP2 MSTORE RETURN JUMPDEST POP POP CALLVALUE PUSH2 0x140 JUMPI DUP2 PUSH1 0x3 NOT CALLDATASIZE ADD SLT PUSH2 0x140 JUMPI PUSH1 0x20 SWAP1 PUSH1 0x5 SLOAD SWAP1 MLOAD SWAP1 DUP2 MSTORE RETURN JUMPDEST SWAP2 SWAP1 POP CALLVALUE PUSH2 0x1D3 JUMPI DUP3 PUSH1 0x3 NOT CALLDATASIZE ADD SLT PUSH2 0x1D3 JUMPI PUSH2 0x253 PUSH2 0xA9E JUMP JUMPDEST DUP3 SSTORE TIMESTAMP PUSH1 0x3 SSTORE CALLER PUSH2 0x442 JUMPI JUMPDEST CALLER DUP4 MSTORE PUSH1 0x20 SWAP1 PUSH1 0xA DUP3 MSTORE DUP1 DUP5 KECCAK256 SLOAD SWAP3 DUP4 ISZERO PUSH2 0x40B JUMPI DUP2 MLOAD PUSH4 0x70A08231 PUSH1 0xE0 SHL DUP2 MSTORE ADDRESS DUP2 DUP4 ADD MSTORE PUSH32 0x0 PUSH1 0x1 PUSH1 0x1 PUSH1 0xA0 SHL SUB AND SWAP2 SWAP1 DUP5 DUP2 PUSH1 0x24 DUP2 DUP7 GAS STATICCALL SWAP1 DUP2 ISZERO PUSH2 0x401 JUMPI SWAP1 DUP7 SWAP2 DUP9 SWAP2 PUSH2 0x3CC JUMPI JUMPDEST POP LT PUSH2 0x37F JUMPI CALLER DUP1 DUP8 MSTORE PUSH1 0xA DUP6 MSTORE DUP4 DUP8 KECCAK256 DUP8 SWAP1 SSTORE DUP4 MLOAD PUSH4 0xA9059CBB PUSH1 0xE0 SHL DUP2 MSTORE SWAP2 DUP3 ADD SWAP1 DUP2 MSTORE PUSH1 0x20 DUP2 ADD DUP7 SWAP1 MSTORE SWAP1 SWAP5 SWAP4 SWAP3 SWAP2 DUP4 SWAP2 DUP7 SWAP2 SWAP1 DUP3 SWAP1 DUP10 SWAP1 DUP3 SWAP1 PUSH1 0x40 ADD SUB SWAP3 GAS CALL SWAP4 DUP5 ISZERO PUSH2 0x375 JUMPI PUSH32 0x106F923F993C2149D49B4255FF723ACAFA1F2D94393F561D3EDA32AE348F7241 SWAP4 SWAP5 PUSH2 0x348 JUMPI JUMPDEST POP MLOAD SWAP3 DUP4 MSTORE CALLER SWAP3 LOG2 DUP1 RETURN JUMPDEST PUSH2 0x367 SWAP1 DUP4 RETURNDATASIZE DUP6 GT PUSH2 0x36E JUMPI JUMPDEST PUSH2 0x35F DUP2 DUP4 PUSH2 0xB81 JUMP JUMPDEST DUP2 ADD SWAP1 PUSH2 0xBB9 JUMP JUMPDEST POP CODESIZE PUSH2 0x33D JUMP JUMPDEST POP RETURNDATASIZE PUSH2 0x355 JUMP JUMPDEST DUP2 MLOAD RETURNDATASIZE DUP8 DUP3 RETURNDATACOPY RETURNDATASIZE SWAP1 REVERT JUMPDEST DUP3 MLOAD PUSH3 0x461BCD PUSH1 0xE5 SHL DUP2 MSTORE SWAP1 DUP2 ADD DUP5 SWAP1 MSTORE PUSH1 0x21 PUSH1 0x24 DUP3 ADD MSTORE PUSH32 0x496E73756666696369656E742072657761726420746F6B656E2062616C616E63 PUSH1 0x44 DUP3 ADD MSTORE PUSH1 0x65 PUSH1 0xF8 SHL PUSH1 0x64 DUP3 ADD MSTORE PUSH1 0x84 SWAP1 REVERT JUMPDEST DUP1 SWAP3 POP DUP7 DUP1 SWAP3 POP RETURNDATASIZE DUP4 GT PUSH2 0x3FA JUMPI JUMPDEST PUSH2 0x3E5 DUP2 DUP4 PUSH2 0xB81 JUMP JUMPDEST DUP2 ADD SUB SLT PUSH2 0x3F6 JUMPI DUP6 SWAP1 MLOAD CODESIZE PUSH2 0x2CA JUMP JUMPDEST DUP7 DUP1 REVERT JUMPDEST POP RETURNDATASIZE PUSH2 0x3DB JUMP JUMPDEST DUP5 MLOAD RETURNDATASIZE DUP10 DUP3 RETURNDATACOPY RETURNDATASIZE SWAP1 REVERT JUMPDEST DUP3 PUSH1 0x64 SWAP3 MLOAD SWAP2 PUSH3 0x461BCD PUSH1 0xE5 SHL DUP4 MSTORE DUP3 ADD MSTORE PUSH1 0x13 PUSH1 0x24 DUP3 ADD MSTORE PUSH19 0x4E6F207265776172647320746F20636C61696D PUSH1 0x68 SHL PUSH1 0x44 DUP3 ADD MSTORE REVERT JUMPDEST PUSH2 0x44B CALLER PUSH2 0xB23 JUMP JUMPDEST CALLER DUP5 MSTORE PUSH1 0xA PUSH1 0x20 MSTORE DUP2 DUP5 KECCAK256 SSTORE DUP2 SLOAD PUSH1 0x9 PUSH1 0x20 MSTORE DUP2 DUP5 KECCAK256 SSTORE PUSH2 0x25F JUMP JUMPDEST SWAP1 POP CALLVALUE PUSH2 0x1D3 JUMPI PUSH1 0x20 CALLDATASIZE PUSH1 0x3 NOT ADD SLT PUSH2 0x1D3 JUMPI CALLDATALOAD PUSH1 0x1 PUSH1 0x1 PUSH1 0xA0 SHL SUB DUP2 AND SWAP1 DUP2 SWAP1 SUB PUSH2 0x1D3 JUMPI DUP3 DUP3 SWAP2 PUSH1 0x20 SWAP5 MSTORE PUSH1 0x8 DUP5 MSTORE KECCAK256 SLOAD SWAP1 MLOAD SWAP1 DUP2 MSTORE RETURN JUMPDEST SWAP2 SWAP1 POP CALLVALUE PUSH2 0x1D3 JUMPI PUSH1 0x20 DUP1 PUSH1 0x3 NOT CALLDATASIZE ADD SLT PUSH2 0x665 JUMPI DUP3 CALLDATALOAD SWAP2 PUSH1 0x6 SLOAD TIMESTAMP LT PUSH2 0x624 JUMPI PUSH1 0x7 SLOAD TIMESTAMP GT PUSH2 0x5EC JUMPI PUSH2 0x4D3 PUSH2 0xA9E JUMP JUMPDEST DUP5 SSTORE TIMESTAMP PUSH1 0x3 SSTORE CALLER PUSH2 0x5C9 JUMPI JUMPDEST DUP3 ISZERO PUSH2 0x597 JUMPI PUSH2 0x4F1 DUP4 PUSH1 0x2 SLOAD PUSH2 0xA91 JUMP JUMPDEST PUSH1 0x2 SSTORE CALLER DUP6 MSTORE PUSH1 0x8 DUP3 MSTORE DUP1 DUP6 KECCAK256 PUSH2 0x509 DUP5 DUP3 SLOAD PUSH2 0xA91 JUMP JUMPDEST SWAP1 SSTORE DUP1 MLOAD PUSH4 0x23B872DD PUSH1 0xE0 SHL DUP2 MSTORE CALLER SWAP5 DUP2 ADD SWAP5 SWAP1 SWAP5 MSTORE ADDRESS PUSH1 0x24 DUP6 ADD MSTORE PUSH1 0x44 DUP5 ADD DUP4 SWAP1 MSTORE DUP2 DUP5 PUSH1 0x64 DUP2 DUP9 PUSH32 0x0 PUSH1 0x1 PUSH1 0x1 PUSH1 0xA0 SHL SUB AND GAS CALL SWAP4 DUP5 ISZERO PUSH2 0x375 JUMPI PUSH32 0x9E71BC8EEA02A63969F509818F2DAFB9254532904319F9DBDA79B67BD34A5F3D SWAP4 SWAP5 PUSH2 0x348 JUMPI POP MLOAD SWAP3 DUP4 MSTORE CALLER SWAP3 LOG2 DUP1 RETURN JUMPDEST MLOAD PUSH3 0x461BCD PUSH1 0xE5 SHL DUP2 MSTORE SWAP3 DUP4 ADD MSTORE POP PUSH1 0xE PUSH1 0x24 DUP3 ADD MSTORE PUSH14 0x43616E6E6F74207374616B65203 PUSH1 0x94 SHL PUSH1 0x44 DUP3 ADD MSTORE PUSH1 0x64 SWAP1 REVERT JUMPDEST PUSH2 0x5D2 CALLER PUSH2 0xB23 JUMP JUMPDEST CALLER DUP7 MSTORE PUSH1 0xA DUP4 MSTORE DUP2 DUP7 KECCAK256 SSTORE DUP4 SLOAD PUSH1 0x9 DUP4 MSTORE DUP2 DUP7 KECCAK256 SSTORE PUSH2 0x4DF JUMP JUMPDEST MLOAD PUSH3 0x461BCD PUSH1 0xE5 SHL DUP2 MSTORE SWAP3 DUP4 ADD MSTORE POP PUSH1 0x14 PUSH1 0x24 DUP3 ADD MSTORE PUSH20 0x14DD185ADA5B99C81C195C9A5BD908195B991959 PUSH1 0x62 SHL PUSH1 0x44 DUP3 ADD MSTORE PUSH1 0x64 SWAP1 REVERT JUMPDEST MLOAD PUSH3 0x461BCD PUSH1 0xE5 SHL DUP2 MSTORE SWAP3 DUP4 ADD MSTORE POP PUSH1 0x17 PUSH1 0x24 DUP3 ADD MSTORE PUSH32 0x5374616B696E67206E6F74207374617274656420796574000000000000000000 PUSH1 0x44 DUP3 ADD MSTORE PUSH1 0x64 SWAP1 REVERT JUMPDEST DUP4 DUP1 REVERT JUMPDEST POP POP CALLVALUE PUSH2 0x140 JUMPI DUP2 PUSH1 0x3 NOT CALLDATASIZE ADD SLT PUSH2 0x140 JUMPI PUSH1 0x20 SWAP1 PUSH1 0x3 SLOAD SWAP1 MLOAD SWAP1 DUP2 MSTORE RETURN JUMPDEST POP POP CALLVALUE PUSH2 0x140 JUMPI DUP2 PUSH1 0x3 NOT CALLDATASIZE ADD SLT PUSH2 0x140 JUMPI SWAP1 SLOAD SWAP1 MLOAD PUSH1 0x1 PUSH1 0x1 PUSH1 0xA0 SHL SUB SWAP1 SWAP2 AND DUP2 MSTORE PUSH1 0x20 SWAP1 RETURN JUMPDEST SWAP1 POP CALLVALUE PUSH2 0x1D3 JUMPI PUSH1 0x20 CALLDATASIZE PUSH1 0x3 NOT ADD SLT PUSH2 0x1D3 JUMPI CALLDATALOAD PUSH1 0x1 PUSH1 0x1 PUSH1 0xA0 SHL SUB DUP2 AND SWAP1 DUP2 SWAP1 SUB PUSH2 0x1D3 JUMPI DUP3 DUP3 SWAP2 PUSH1 0x20 SWAP5 MSTORE PUSH1 0x9 DUP5 MSTORE KECCAK256 SLOAD SWAP1 MLOAD SWAP1 DUP2 MSTORE RETURN JUMPDEST POP POP CALLVALUE PUSH2 0x140 JUMPI DUP2 PUSH1 0x3 NOT CALLDATASIZE ADD SLT PUSH2 0x140 JUMPI PUSH1 0x20 SWAP1 PUSH1 0x2 SLOAD SWAP1 MLOAD SWAP1 DUP2 MSTORE RETURN JUMPDEST POP POP CALLVALUE PUSH2 0x140 JUMPI DUP2 PUSH1 0x3 NOT CALLDATASIZE ADD SLT PUSH2 0x140 JUMPI PUSH1 0x20 SWAP1 PUSH1 0x6 SLOAD SWAP1 MLOAD SWAP1 DUP2 MSTORE RETURN JUMPDEST POP POP CALLVALUE PUSH2 0x140 JUMPI DUP2 PUSH1 0x3 NOT CALLDATASIZE ADD SLT PUSH2 0x140 JUMPI MLOAD PUSH32 0x0 PUSH1 0x1 PUSH1 0x1 PUSH1 0xA0 SHL SUB AND DUP2 MSTORE PUSH1 0x20 SWAP1 RETURN JUMPDEST DUP4 CALLVALUE PUSH2 0x7C6 JUMPI DUP1 PUSH1 0x3 NOT CALLDATASIZE ADD SLT PUSH2 0x7C6 JUMPI PUSH2 0x785 PUSH2 0xA0F JUMP JUMPDEST DUP1 SLOAD PUSH1 0x1 PUSH1 0x1 PUSH1 0xA0 SHL SUB NOT DUP2 AND DUP3 SSTORE DUP2 SWAP1 PUSH1 0x1 PUSH1 0x1 PUSH1 0xA0 SHL SUB AND PUSH32 0x8BE0079C531659141344CD1FD0A4F28419497F9722A3DAAFE3B4186F6B6457E0 DUP3 DUP1 LOG3 DUP1 RETURN JUMPDEST DUP1 REVERT JUMPDEST POP POP CALLVALUE PUSH2 0x140 JUMPI DUP2 PUSH1 0x3 NOT CALLDATASIZE ADD SLT PUSH2 0x140 JUMPI PUSH1 0x20 SWAP1 PUSH1 0x1 SLOAD SWAP1 MLOAD SWAP1 DUP2 MSTORE RETURN JUMPDEST POP POP CALLVALUE PUSH2 0x140 JUMPI DUP2 PUSH1 0x3 NOT CALLDATASIZE ADD SLT PUSH2 0x140 JUMPI PUSH1 0x20 SWAP1 PUSH1 0x7 SLOAD SWAP1 MLOAD SWAP1 DUP2 MSTORE RETURN JUMPDEST SWAP2 SWAP1 POP CALLVALUE PUSH2 0x1D3 JUMPI PUSH1 0x20 SWAP1 DUP2 PUSH1 0x3 NOT CALLDATASIZE ADD SLT PUSH2 0x665 JUMPI DUP3 CALLDATALOAD SWAP3 PUSH2 0x828 PUSH2 0xA9E JUMP JUMPDEST DUP2 SSTORE TIMESTAMP PUSH1 0x3 SSTORE CALLER PUSH2 0x981 JUMPI JUMPDEST DUP4 ISZERO PUSH2 0x94C JUMPI CALLER DUP6 MSTORE PUSH1 0x8 DUP4 MSTORE DUP4 DUP3 DUP7 KECCAK256 SLOAD LT PUSH2 0x90B JUMPI SWAP1 DUP3 DUP5 DUP1 SWAP5 SWAP4 PUSH2 0x860 PUSH2 0x8A3 SWAP8 PUSH1 0x2 SLOAD PUSH2 0xA3B JUMP JUMPDEST PUSH1 0x2 SSTORE CALLER DUP9 MSTORE PUSH1 0x8 DUP4 MSTORE DUP4 DUP9 KECCAK256 PUSH2 0x878 DUP4 DUP3 SLOAD PUSH2 0xA3B JUMP JUMPDEST SWAP1 SSTORE DUP4 MLOAD PUSH4 0xA9059CBB PUSH1 0xE0 SHL DUP2 MSTORE CALLER SWAP2 DUP2 ADD SWAP2 DUP3 MSTORE PUSH1 0x20 DUP3 ADD SWAP3 SWAP1 SWAP3 MSTORE SWAP1 SWAP6 DUP7 SWAP2 DUP3 SWAP2 PUSH1 0x40 SWAP1 SWAP2 ADD SWAP1 JUMP JUMPDEST SUB DUP2 DUP9 PUSH32 0x0 PUSH1 0x1 PUSH1 0x1 PUSH1 0xA0 SHL SUB AND GAS CALL SWAP4 DUP5 ISZERO PUSH2 0x375 JUMPI PUSH32 0x7084F5476618D8E60B11EF0D7D3F06914655ADB8793E28FF7F018D4C76D505D5 SWAP4 SWAP5 PUSH2 0x348 JUMPI POP MLOAD SWAP3 DUP4 MSTORE CALLER SWAP3 LOG2 DUP1 RETURN JUMPDEST DUP3 PUSH1 0x64 SWAP3 MLOAD SWAP2 PUSH3 0x461BCD PUSH1 0xE5 SHL DUP4 MSTORE DUP3 ADD MSTORE PUSH1 0x1E PUSH1 0x24 DUP3 ADD MSTORE PUSH32 0x576974686472617720616D6F756E742065786365656473207374616B65640000 PUSH1 0x44 DUP3 ADD MSTORE REVERT JUMPDEST DUP3 PUSH1 0x64 SWAP3 MLOAD SWAP2 PUSH3 0x461BCD PUSH1 0xE5 SHL DUP4 MSTORE DUP3 ADD MSTORE PUSH1 0x11 PUSH1 0x24 DUP3 ADD MSTORE PUSH17 0x43616E6E6F74207769746864726177203 PUSH1 0x7C SHL PUSH1 0x44 DUP3 ADD MSTORE REVERT JUMPDEST PUSH2 0x98A CALLER PUSH2 0xB23 JUMP JUMPDEST CALLER DUP7 MSTORE PUSH1 0xA DUP5 MSTORE DUP3 DUP7 KECCAK256 SSTORE DUP1 SLOAD PUSH1 0x9 DUP5 MSTORE DUP3 DUP7 KECCAK256 SSTORE PUSH2 0x834 JUMP JUMPDEST SWAP1 POP CALLVALUE PUSH2 0x1D3 JUMPI PUSH1 0x20 CALLDATASIZE PUSH1 0x3 NOT ADD SLT PUSH2 0x1D3 JUMPI CALLDATALOAD PUSH1 0x1 PUSH1 0x1 PUSH1 0xA0 SHL SUB DUP2 AND SWAP1 DUP2 SWAP1 SUB PUSH2 0x1D3 JUMPI DUP3 DUP3 SWAP2 PUSH1 0x20 SWAP5 MSTORE PUSH1 0xA DUP5 MSTORE KECCAK256 SLOAD SWAP1 MLOAD SWAP1 DUP2 MSTORE RETURN JUMPDEST SWAP1 POP CALLVALUE PUSH2 0x1D3 JUMPI PUSH1 0x20 CALLDATASIZE PUSH1 0x3 NOT ADD SLT PUSH2 0x1D3 JUMPI CALLDATALOAD SWAP2 PUSH1 0x1 PUSH1 0x1 PUSH1 0xA0 SHL SUB DUP4 AND DUP4 SUB PUSH2 0x7C6 JUMPI POP PUSH2 0x212 PUSH1 0x20 SWAP3 PUSH2 0xB23 JUMP JUMPDEST PUSH1 0x0 SLOAD PUSH1 0x1 PUSH1 0x1 PUSH1 0xA0 SHL SUB AND CALLER SUB PUSH2 0xA23 JUMPI JUMP JUMPDEST PUSH1 0x40 MLOAD PUSH4 0x118CDAA7 PUSH1 0xE0 SHL DUP2 MSTORE CALLER PUSH1 0x4 DUP3 ADD MSTORE PUSH1 0x24 SWAP1 REVERT JUMPDEST SWAP2 SWAP1 DUP3 SUB SWAP2 DUP3 GT PUSH2 0xA48 JUMPI JUMP JUMPDEST PUSH4 0x4E487B71 PUSH1 0xE0 SHL PUSH1 0x0 MSTORE PUSH1 0x11 PUSH1 0x4 MSTORE PUSH1 0x24 PUSH1 0x0 REVERT JUMPDEST DUP2 DUP2 MUL SWAP3 SWAP2 DUP2 ISZERO SWAP2 DUP5 DIV EQ OR ISZERO PUSH2 0xA48 JUMPI JUMP JUMPDEST DUP2 ISZERO PUSH2 0xA7B JUMPI DIV SWAP1 JUMP JUMPDEST PUSH4 0x4E487B71 PUSH1 0xE0 SHL PUSH1 0x0 MSTORE PUSH1 0x12 PUSH1 0x4 MSTORE PUSH1 0x24 PUSH1 0x0 REVERT JUMPDEST SWAP2 SWAP1 DUP3 ADD DUP1 SWAP3 GT PUSH2 0xA48 JUMPI JUMP JUMPDEST PUSH1 0x2 SLOAD DUP1 ISZERO DUP1 ISZERO PUSH2 0xB18 JUMPI JUMPDEST PUSH2 0xB11 JUMPI PUSH1 0x7 SLOAD DUP1 TIMESTAMP GT PUSH1 0x0 EQ PUSH2 0xB0A JUMPI JUMPDEST PUSH1 0x3 SLOAD DUP1 DUP3 GT ISZERO PUSH2 0xB01 JUMPI PUSH2 0xAFE SWAP3 PUSH2 0xAF3 PUSH2 0xAEA PUSH2 0xAE1 PUSH2 0xAF8 SWAP5 PUSH1 0x4 SLOAD SWAP7 PUSH2 0xA3B JUMP JUMPDEST PUSH1 0x1 SLOAD SWAP1 PUSH2 0xA5E JUMP JUMPDEST PUSH1 0x5 SLOAD SWAP1 PUSH2 0xA5E JUMP JUMPDEST PUSH2 0xA71 JUMP JUMPDEST SWAP1 PUSH2 0xA91 JUMP JUMPDEST SWAP1 JUMP JUMPDEST POP POP POP PUSH1 0x4 SLOAD SWAP1 JUMP JUMPDEST POP TIMESTAMP PUSH2 0xABC JUMP JUMPDEST POP PUSH1 0x4 SLOAD SWAP1 JUMP JUMPDEST POP PUSH1 0x6 SLOAD TIMESTAMP LT PUSH2 0xAAA JUMP JUMPDEST PUSH2 0xAFE SWAP1 PUSH1 0x1 DUP1 PUSH1 0xA0 SHL SUB AND PUSH1 0x40 PUSH1 0x0 DUP3 DUP2 MSTORE PUSH1 0x8 PUSH1 0x20 MSTORE PUSH2 0xB71 PUSH2 0xB68 DUP4 DUP4 KECCAK256 SLOAD PUSH2 0xB62 PUSH2 0xB50 PUSH2 0xA9E JUMP JUMPDEST DUP8 DUP7 MSTORE PUSH1 0x9 PUSH1 0x20 MSTORE DUP7 DUP7 KECCAK256 SLOAD SWAP1 PUSH2 0xA3B JUMP JUMPDEST SWAP1 PUSH2 0xA5E JUMP JUMPDEST PUSH1 0x5 SLOAD SWAP1 PUSH2 0xA71 JUMP JUMPDEST SWAP3 DUP2 MSTORE PUSH1 0xA PUSH1 0x20 MSTORE KECCAK256 SLOAD SWAP1 PUSH2 0xA91 JUMP JUMPDEST SWAP1 PUSH1 0x1F DUP1 NOT SWAP2 ADD AND DUP2 ADD SWAP1 DUP2 LT PUSH8 0xFFFFFFFFFFFFFFFF DUP3 GT OR PUSH2 0xBA3 JUMPI PUSH1 0x40 MSTORE JUMP JUMPDEST PUSH4 0x4E487B71 PUSH1 0xE0 SHL PUSH1 0x0 MSTORE PUSH1 0x41 PUSH1 0x4 MSTORE PUSH1 0x24 PUSH1 0x0 REVERT JUMPDEST SWAP1 DUP2 PUSH1 0x20 SWAP2 SUB SLT PUSH2 0xBD1 JUMPI MLOAD DUP1 ISZERO ISZERO DUP2 SUB PUSH2 0xBD1 JUMPI SWAP1 JUMP JUMPDEST PUSH1 0x0 DUP1 REVERT INVALID LOG2 PUSH5 0x6970667358 0x22 SLT KECCAK256 GASPRICE 0xC4 DIV DUP8 PUSH31 0xBB3ED466305F176A7DD3C25C48B0406F91D257AEA622B7D0DE09CC64736F6C PUSH4 0x43000814 STOP CALLER "
        },
        "methodIdentifiers": {
          "PRECISION_FACTOR()": "ccd34cd5",
          "claimReward()": "b88a802f",
          "earned(address)": "008cc262",
          "endTime()": "3197cbb6",
          "lastRewardTime()": "9231cf74",
          "owner()": "8da5cb5b",
          "renounceOwnership()": "715018a6",
          "rewardPerToken()": "cd3daf9d",
          "rewardPerTokenStored()": "df136d65",
          "rewardRatePerSecond()": "5d773b2c",
          "rewardToken()": "f7c618c1",
          "stake(uint256)": "a694fc3a",
          "stakingToken()": "72f702f3",
          "startTime()": "78e97925",
          "totalStaked()": "817b1cd2",
          "transferOwnership(address)": "f2fde38b",
          "userRewardPerTokenPaid(address)": "8b876347",
          "userRewards(address)": "0660f1e8",
          "userStaked(address)": "acc3a939",
          "withdraw(uint256)": "2e1a7d4d"
        }
      },
      "storageLayout": {
        "storage": [
          {
            "astId": 8,
            "contract": "contracts/SubnetStakingPool.sol:SubnetStakingPool",
            "label": "_owner",
            "offset": 0,
            "slot": "0",
            "type": "t_address"
          },
          {
            "astId": 297,
            "contract": "contracts/SubnetStakingPool.sol:SubnetStakingPool",
            "label": "rewardRatePerSecond",
            "offset": 0,
            "slot": "1",
            "type": "t_uint256"
          },
          {
            "astId": 299,
            "contract": "contracts/SubnetStakingPool.sol:SubnetStakingPool",
            "label": "totalStaked",
            "offset": 0,
            "slot": "2",
            "type": "t_uint256"
          },
          {
            "astId": 301,
            "contract": "contracts/SubnetStakingPool.sol:SubnetStakingPool",
            "label": "lastRewardTime",
            "offset": 0,
            "slot": "3",
            "type": "t_uint256"
          },
          {
            "astId": 303,
            "contract": "contracts/SubnetStakingPool.sol:SubnetStakingPool",
            "label": "rewardPerTokenStored",
            "offset": 0,
            "slot": "4",
            "type": "t_uint256"
          },
          {
            "astId": 305,
            "contract": "contracts/SubnetStakingPool.sol:SubnetStakingPool",
            "label": "PRECISION_FACTOR",
            "offset": 0,
            "slot": "5",
            "type": "t_uint256"
          },
          {
            "astId": 307,
            "contract": "contracts/SubnetStakingPool.sol:SubnetStakingPool",
            "label": "startTime",
            "offset": 0,
            "slot": "6",
            "type": "t_uint256"
          },
          {
            "astId": 309,
            "contract": "contracts/SubnetStakingPool.sol:SubnetStakingPool",
            "label": "endTime",
            "offset": 0,
            "slot": "7",
            "type": "t_uint256"
          },
          {
            "astId": 313,
            "contract": "contracts/SubnetStakingPool.sol:SubnetStakingPool",
            "label": "userStaked",
            "offset": 0,
            "slot": "8",
            "type": "t_mapping(t_address,t_uint256)"
          },
          {
            "astId": 317,
            "contract": "contracts/SubnetStakingPool.sol:SubnetStakingPool",
            "label": "userRewardPerTokenPaid",
            "offset": 0,
            "slot": "9",
            "type": "t_mapping(t_address,t_uint256)"
          },
          {
            "astId": 321,
            "contract": "contracts/SubnetStakingPool.sol:SubnetStakingPool",
            "label": "userRewards",
            "offset": 0,
            "slot": "10",
            "type": "t_mapping(t_address,t_uint256)"
          }
        ],
        "types": {
          "t_address": {
            "encoding": "inplace",
            "label": "address",
            "numberOfBytes": "20"
          },
          "t_mapping(t_address,t_uint256)": {
            "encoding": "mapping",
            "key": "t_address",
            "label": "mapping(address => uint256)",
            "numberOfBytes": "32",
            "value": "t_uint256"
          },
          "t_uint256": {
            "encoding": "inplace",
            "label": "uint256",
            "numberOfBytes": "32"
          }
        }
      }
    }
  }
}