{
  "_format": "hh-sol-artifact-1",
  "contractName": "SubnetNftVaultFactory",
  "sourceName": "contracts/SubnetNftVaultFactory.sol",
  "abi": [
    {
      "inputs": [
        {
          "internalType": "address",
          "name": "initialOwner",
          "type": "address"
        }
      ],
      "stateMutability": "nonpayable",
      "type": "constructor"
    },
    {
      "inputs": [
        {
          "internalType": "address",
          "name": "owner",
          "type": "address"
        }
      ],
      "name": "OwnableInvalidOwner",
      "type": "error"
    },
    {
      "inputs": [
        {
          "internalType": "address",
          "name": "account",
          "type": "address"
        }
      ],
      "name": "OwnableUnauthorizedAccount",
      "type": "error"
    },
    {
      "anonymous": false,
      "inputs": [
        {
          "indexed": true,
          "internalType": "address",
          "name": "previousOwner",
          "type": "address"
        },
        {
          "indexed": true,
          "internalType": "address",
          "name": "newOwner",
          "type": "address"
        }
      ],
      "name": "OwnershipTransferred",
      "type": "event"
    },
    {
      "anonymous": false,
      "inputs": [
        {
          "indexed": true,
          "internalType": "address",
          "name": "nftContract",
          "type": "address"
        },
        {
          "indexed": false,
          "internalType": "address",
          "name": "vaultAddress",
          "type": "address"
        }
      ],
      "name": "VaultCreated",
      "type": "event"
    },
    {
      "inputs": [
        {
          "internalType": "uint256",
          "name": "",
          "type": "uint256"
        }
      ],
      "name": "allVaults",
      "outputs": [
        {
          "internalType": "address",
          "name": "",
          "type": "address"
        }
      ],
      "stateMutability": "view",
      "type": "function"
    },
    {
      "inputs": [
        {
          "internalType": "string",
          "name": "name_",
          "type": "string"
        },
        {
          "internalType": "string",
          "name": "symbol_",
          "type": "string"
        },
        {
          "internalType": "address",
          "name": "nftContract_",
          "type": "address"
        }
      ],
      "name": "computeSalt",
      "outputs": [
        {
          "internalType": "bytes32",
          "name": "",
          "type": "bytes32"
        }
      ],
      "stateMutability": "pure",
      "type": "function"
    },
    {
      "inputs": [
        {
          "internalType": "string",
          "name": "name_",
          "type": "string"
        },
        {
          "internalType": "string",
          "name": "symbol_",
          "type": "string"
        },
        {
          "internalType": "address",
          "name": "nftContract_",
          "type": "address"
        }
      ],
      "name": "computeVaultAddress",
      "outputs": [
        {
          "internalType": "address",
          "name": "",
          "type": "address"
        }
      ],
      "stateMutability": "view",
      "type": "function"
    },
    {
      "inputs": [
        {
          "internalType": "string",
          "name": "name_",
          "type": "string"
        },
        {
          "internalType": "string",
          "name": "symbol_",
          "type": "string"
        },
        {
          "internalType": "address",
          "name": "nftContract_",
          "type": "address"
        }
      ],
      "name": "createVault",
      "outputs": [
        {
          "internalType": "address",
          "name": "",
          "type": "address"
        }
      ],
      "stateMutability": "nonpayable",
      "type": "function"
    },
    {
      "inputs": [
        {
          "internalType": "uint256",
          "name": "index",
          "type": "uint256"
        }
      ],
      "name": "getVault",
      "outputs": [
        {
          "internalType": "address",
          "name": "",
          "type": "address"
        }
      ],
      "stateMutability": "view",
      "type": "function"
    },
    {
      "inputs": [
        {
          "internalType": "string",
          "name": "name_",
          "type": "string"
        },
        {
          "internalType": "string",
          "name": "symbol_",
          "type": "string"
        },
        {
          "internalType": "address",
          "name": "nftContract_",
          "type": "address"
        }
      ],
      "name": "getVaultBytecode",
      "outputs": [
        {
          "internalType": "bytes",
          "name": "",
          "type": "bytes"
        }
      ],
      "stateMutability": "pure",
      "type": "function"
    },
    {
      "inputs": [],
      "name": "getVaultCount",
      "outputs": [
        {
          "internalType": "uint256",
          "name": "",
          "type": "uint256"
        }
      ],
      "stateMutability": "view",
      "type": "function"
    },
    {
      "inputs": [],
      "name": "owner",
      "outputs": [
        {
          "internalType": "address",
          "name": "",
          "type": "address"
        }
      ],
      "stateMutability": "view",
      "type": "function"
    },
    {
      "inputs": [],
      "name": "renounceOwnership",
      "outputs": [],
      "stateMutability": "nonpayable",
      "type": "function"
    },
    {
      "inputs": [
        {
          "internalType": "address",
          "name": "newOwner",
          "type": "address"
        }
      ],
      "name": "transferOwnership",
      "outputs": [],
      "stateMutability": "nonpayable",
      "type": "function"
    }
  ],
  "bytecode": "0x6080346100bb57601f61281538819003918201601f19168301916001600160401b038311848410176100c0578084926020946040528339810103126100bb57516001600160a01b0390818116908190036100bb5780156100a257600080546001600160a01b03198116831782556040519316907f8be0079c531659141344cd1fd0a4f28419497f9722a3daafe3b4186f6b6457e09080a361273e90816100d78239f35b604051631e4fbdf760e01b815260006004820152602490fd5b600080fd5b634e487b7160e01b600052604160045260246000fdfe608060405260043610156200001357600080fd5b60003560e01c806330bd482414620000cb578063336f81b814620000c55780635212c32214620000bf578063715018a614620000b957806374d4e49114620000b35780638da5cb5b14620000ad5780639094a91e14620000a75780639403b63414620000a1578063f2fde38b146200009b5763fbd4834c146200009557600080fd5b620005c2565b62000531565b620004a3565b6200044a565b620003be565b6200039e565b6200033c565b62000316565b620002e1565b34620001755762000171620001576200014b62000103620000ec3662000232565b90620000fc8282859695620006c6565b9362000732565b6020815191012060405190602082019260ff60f81b84523060601b602184015260358301526055820152605581526200013c8162000190565b5190206001600160a01b031690565b6001600160a01b031690565b6040516001600160a01b0390911681529081906020820190565b0390f35b600080fd5b634e487b7160e01b600052604160045260246000fd5b6080810190811067ffffffffffffffff821117620001ad57604052565b6200017a565b90601f8019910116810190811067ffffffffffffffff821117620001ad57604052565b81601f82011215620001755780359067ffffffffffffffff8211620001ad57604051926200020f601f8401601f191660200185620001b3565b828452602083830101116200017557816000926020809301838601378301015290565b906060600319830112620001755767ffffffffffffffff6004358181116200017557836200026391600401620001d6565b9260243591821162000175576200027d91600401620001d6565b906044356001600160a01b0381168103620001755790565b60005b838110620002a95750506000910152565b818101518382015260200162000298565b90602091620002d58151809281855285808601910162000295565b601f01601f1916010190565b3462000175576200017162000301620002fa3662000232565b9162000732565b604051918291602083526020830190620002ba565b3462000175576020620003346200032d3662000232565b91620006c6565b604051908152f35b3462000175576000806003193601126200039b576200035a62000699565b80546001600160a01b03198116825581906001600160a01b03167f8be0079c531659141344cd1fd0a4f28419497f9722a3daafe3b4186f6b6457e08280a380f35b80fd5b346200017557600036600319011262000175576020600154604051908152f35b346200017557600036600319011262000175576000546040516001600160a01b039091168152602090f35b6020906003190112620001755760043590565b600154811015620004345760016000527fb10e2d527612073b26eecdfd717e6a320cf44b4afac2b0732d9fcbe2b7fa0cf60190600090565b634e487b7160e01b600052603260045260246000fd5b3462000175576200045b36620003e9565b600154811015620001755760016000527fb10e2d527612073b26eecdfd717e6a320cf44b4afac2b0732d9fcbe2b7fa0cf601546040516001600160a01b039091168152602090f35b346200017557620004b436620003e9565b600154811015620004fc5760016000527fb10e2d527612073b26eecdfd717e6a320cf44b4afac2b0732d9fcbe2b7fa0cf601546040516001600160a01b039091168152602090f35b60405162461bcd60e51b815260206004820152600d60248201526c092dcecc2d8d2c840d2dcc8caf609b1b6044820152606490fd5b346200017557602036600319011262000175576001600160a01b036004358181169081900362000175576200056562000699565b8015620005a957600080546001600160a01b03198116831782559092167f8be0079c531659141344cd1fd0a4f28419497f9722a3daafe3b4186f6b6457e08380a380f35b604051631e4fbdf760e01b815260006004820152602490fd5b346200017557620005f1620005d73662000232565b809391620005e462000699565b620000fc828286620006c6565b6020815191016000f5801562000175576001549168010000000000000000831015620001ad577f5d9c31ffa0fecffd7cf379989a3c7af252f0335e0d2a1320b55245912c781f536200064e846001620001719601600155620003fc565b81546001600160a01b0360039290921b82811b199091168683169182901b179092556040519182529290921691602090a26040516001600160a01b0390911681529081906020820190565b6000546001600160a01b03163303620006ae57565b60405163118cdaa760e01b8152336004820152602490fd5b919060346200072c916040519384916020620006ec818501988981519384920162000295565b830162000703825180936020808501910162000295565b01906bffffffffffffffffffffffff199060601b166020820152036014810184520182620001b3565b51902090565b90620007cf92620007ec92611f1991620007df60405193620007bc6020966200075e88840188620001b3565b82875287870192620007f0843960405180956200079f6200078b8b84019960608b526080850190620002ba565b601f199485858303016040860152620002ba565b6001600160a01b03909116606083015203908101855284620001b3565b6040519788955180928888019062000295565b8401915180938684019062000295565b01038084520182620001b3565b9056fe610180604090808252346200046c5762001f19803803809162000023828562000471565b833981016060828203126200046c5781516001600160401b0392908381116200046c578262000054918301620004ba565b93602092838301518581116200046c57829162000073918501620004ba565b920151926001600160a01b03841684036200046c57815190828201828110878211176200036c57835260019283835281830193603160f81b855288518881116200036c5760039081549a838c811c9c16801562000461575b868d10146200044b578190601f9c8d8111620003f5575b5086908d83116001146200038e5760009262000382575b505060001982841b1c191690831b1781555b8651908982116200036c5760049a8b548481811c9116801562000361575b878210146200034c5781811162000301575b508590831160011462000293578293839160009462000287575b501b92600019911b1c19161788555b6200016f8562000515565b936101209485526200018184620006ba565b95610140968752838151910120938460e0525190209761010098808a524660a0528251938401947f8b73c3c69bb8fe3d512ecc4cf759cc79239f7b179b0ffacaa9a75d522b39400f86528385015260608401524660808401523060a084015260a0835260c0830197838910908911176200027257508690525190206080523060c0526101609283526117079485620008128639608051856112d0015260a0518561139c015260c0518561129a015260e0518561131f0152518461134501525183610927015251826109510152518181816101aa015281816103bd015281816104a3015281816106640152610c1a0152f35b604190634e487b7160e01b6000525260246000fd5b8a015193503862000155565b90601f198316918c6000528387600020938b89886000925b848410620002e7575050505010620002cc575b505050811b01885562000164565b8901519060f884600019921b161c19169055388080620002be565b860151885590960195938401938793500189888e620002ab565b8c600052866000208280860160051c82019289871062000342575b0160051c019085905b828110620003355750506200013b565b6000815501859062000325565b925081926200031c565b60228d634e487b7160e01b6000525260246000fd5b90607f169062000129565b634e487b7160e01b600052604160045260246000fd5b015190503880620000f9565b90859350601f1983169185600052886000209260005b8a828210620003de5750508411620003c5575b505050811b0181556200010b565b015160001983861b60f8161c19169055388080620003b7565b8385015186558997909501949384019301620003a4565b90915083600052866000208d80850160051c82019289861062000441575b918791869594930160051c01915b82811062000431575050620000e2565b6000815585945087910162000421565b9250819262000413565b634e487b7160e01b600052602260045260246000fd5b9b607f169b620000cb565b600080fd5b601f909101601f19168101906001600160401b038211908210176200036c57604052565b60005b838110620004a95750506000910152565b818101518382015260200162000498565b81601f820112156200046c5780516001600160401b0381116200036c5760405192620004f1601f8301601f19166020018562000471565b818452602082840101116200046c5762000512916020808501910162000495565b90565b8051602091908281101562000595575090601f8251116200055357808251920151908083106200054457501790565b82600019910360031b1b161790565b604490620005879260405193849263305a27a960e01b84528060048501528251928391826024870152868601910162000495565b601f01601f19168101030190fd5b6001600160401b0381116200036c576005928354926001938481811c91168015620006af575b838210146200044b57601f811162000678575b5081601f84116001146200060e575092829391839260009462000602575b50501b916000199060031b1c191617905560ff90565b015192503880620005ec565b919083601f1981168760005284600020946000905b888383106200065d575050501062000643575b505050811b01905560ff90565b015160001960f88460031b161c1916905538808062000636565b85870151885590960195948501948793509081019062000623565b8560005284601f846000209201871c820191601f8601881c015b828110620006a2575050620005ce565b6000815501859062000692565b90607f1690620005bb565b805160209081811015620006e75750601f8251116200055357808251920151908083106200054457501790565b906001600160401b0382116200036c57600654926001938481811c9116801562000806575b838210146200044b57601f8111620007cc575b5081601f841160011462000760575092829391839260009462000754575b50501b916000199060031b1c19161760065560ff90565b0151925038806200073d565b919083601f198116600660005284600020946000905b88838310620007b1575050501062000797575b505050811b0160065560ff90565b015160001960f88460031b161c1916905538808062000789565b85870151885590960195948501948793509081019062000776565b600660005284601f84600020920160051c820191601f860160051c015b828110620007f95750506200071f565b60008155018590620007e9565b90607f16906200070c56fe6080604081815260048036101561001557600080fd5b600092833560e01c90816306fdde0314610df257508063095ea7b314610dc8578063103bbd4a14610bf157806318160ddd14610bd257806323b872dd14610adc578063313ce56714610ac05780633644e51514610a9c57806370a0823114610a655780637ecebe0014610a2d57806384b0196e1461091057806395d89b4114610826578063a9059cbb146107f5578063bd18c99a1461063a578063d505accf146104d2578063d56d229d1461048e578063db006a7514610329578063dd46706414610176578063dd62ed3e146101295763fd731837146100f457600080fd5b346101255760203660031901126101255735825260086020908152918190205490516001600160a01b039091168152f35b8280fd5b50503461017257806003193601126101725780602092610147610f03565b61014f610f1e565b6001600160a01b0391821683526001865283832091168252845220549051908152f35b5080fd5b50903461012557602090816003193601126103255780516331a9108f60e11b81528335848201819052906001600160a01b037f0000000000000000000000000000000000000000000000000000000000000000811691908582602481865afa91821561031b57906101f2929189926102ec575b50163314611597565b803b156102e85782516323b872dd60e01b815233868201908152306020820152604081018490529091879183919082908490829060600103925af180156102de576102cf575b50845260088252808420336bffffffffffffffffffffffff60a01b82541617905533156102b957600254670de0b6b3a7640000938482018092116102a65750916000805160206116b2833981519152918593600255338452838252808420858154019055519384523393a380f35b634e487b7160e01b865260119052602485fd5b6024939150519163ec442f0560e01b8352820152fd5b6102d890610fbb565b38610238565b83513d88823e3d90fd5b8580fd5b61030d919250873d8911610314575b6103058183611001565b810190611578565b90386101e9565b503d6102fb565b85513d8a823e3d90fd5b8380fd5b50346101255760208060031936011261032557813580855260088252838520546001600160a01b039061035f90821633146115e3565b33156104775733865285835284862054670de0b6b3a764000090818110610454578792918391338352828752670de0b6b3a763ffff19809101898420556002540160025587519081526000805160206116b2833981519152863392a37f00000000000000000000000000000000000000000000000000000000000000001693843b156101725785516323b872dd60e01b8152309181019182523360208301526040820184905294859182908490829060600103925af192831561044a5760089361043b575b50845252812080546001600160a01b031916905580f35b61044490610fbb565b38610424565b84513d87823e3d90fd5b606491869188519263391434e360e21b8452339084015260248301526044820152fd5b8451634b637e8f60e11b8152808501879052602490fd5b505034610172578160031936011261017257517f00000000000000000000000000000000000000000000000000000000000000006001600160a01b03168152602090f35b508290346101725760e0366003190112610172576104ee610f03565b6104f6610f1e565b906044359260643560843560ff811681036106365781421161061f5760018060a01b0390818516928389526007602052898920908154916001830190558a519060208201927f6e71edae12b1b97f4d1f60370fef10105fa2faae0126114a169c64845d6126c98452868d840152858a1660608401528a608084015260a083015260c082015260c0815260e0810181811067ffffffffffffffff82111761060c578b525190206105da916105d1916105ab611297565b908c519161190160f01b83526002830152602282015260c43591604260a4359220611182565b90929192611212565b168181036105f157866105ee8787876110ef565b80f35b87516325c0072360e11b815292830152602482015260449150fd5b634e487b7160e01b8b526041875260248bfd5b875163313c898160e11b8152808401839052602490fd5b8680fd5b509190346101725761064b36610f34565b919082159061065a8215611623565b6001600160a01b037f00000000000000000000000000000000000000000000000000000000000000008116865b8681106107485750505050670de0b6b3a764000080840293840414171561073557331561071f573383528260205280832054938285106106f457508183943385528460205203818420558160025403600255519081526000805160206116b283398151915260203392a380f35b905163391434e360e21b81523391810191825260208201859052604082018390529081906060010390fd5b51634b637e8f60e11b8152808401839052602490fd5b634e487b7160e01b835260118452602483fd5b61075381888661168b565b358089526008602081815261076f8b878b3392205416146115e3565b828b525286892080546001600160a01b0319169055823b156107f15786516323b872dd60e01b815230818c01908152336020820152604081019290925290899082908190606001038183875af180156107e757906107d392916107d8575b50611666565b610687565b6107e190610fbb565b386107cd565b87513d8b823e3d90fd5b8880fd5b50503461017257806003193601126101725760209061081f610815610f03565b6024359033611023565b5160018152f35b5090346101255782600319360112610125578051918381549061084882610f81565b808652926001928084169081156108e55750600114610889575b6108858686610873828b0383611001565b51918291602083526020830190610ec3565b0390f35b815294507f8a35acfbc15ff81a39ae7d344fd709f28e8600b4aa8c65c6b64bfe7fe36bd19b5b8286106108cd57505050610873826020610885958201019438610862565b805460208787018101919091529095019481016108af565b905061088597508693506020925061087394915060ff191682840152151560051b8201019438610862565b50903461012557826003193601126101255761094b7f00000000000000000000000000000000000000000000000000000000000000006113c2565b926109757f00000000000000000000000000000000000000000000000000000000000000006114be565b908251926020928385019585871067ffffffffffffffff881117610a1a575092806109d08388966109c3998b9996528686528151998a99600f60f81b8b5260e0868c015260e08b0190610ec3565b91898303908a0152610ec3565b924660608801523060808801528460a088015286840360c088015251928381520193925b828110610a0357505050500390f35b8351855286955093810193928101926001016109f4565b634e487b7160e01b845260419052602483fd5b5050346101725760203660031901126101725760209181906001600160a01b03610a55610f03565b1681526007845220549051908152f35b5050346101725760203660031901126101725760209181906001600160a01b03610a8d610f03565b16815280845220549051908152f35b505034610172578160031936011261017257602090610ab9611297565b9051908152f35b5050346101725781600319360112610172576020905160128152f35b508234610bcf576060366003190112610bcf57610af7610f03565b610aff610f1e565b916044359360018060a01b038316808352600160205286832033845260205286832054916000198303610b3b575b60208861081f898989611023565b868310610ba3578115610b8c573315610b755750825260016020908152868320338452815291869020908590039055829061081f87610b2d565b8751634a1406b160e11b8152908101849052602490fd5b875163e602df0560e01b8152908101849052602490fd5b8751637dc7a0d960e11b8152339181019182526020820193909352604081018790528291506060010390fd5b80fd5b5050346101725781600319360112610172576020906002549051908152f35b50903461012557610c0136610f34565b9290831590610c108215611623565b6001600160a01b037f0000000000000000000000000000000000000000000000000000000000000000811687805b888110610cdf575050505050670de0b6b3a7640000808502948504141715610ccc573315610cb75760025490838201809211610ca457506002553383528260205280832082815401905551908152816000805160206116b283398151915260203393a380f35b634e487b7160e01b855260119052602484fd5b83602492519163ec442f0560e01b8352820152fd5b634e487b7160e01b845260119052602483fd5b610cea818a8761168b565b88516331a9108f60e11b815290358882018190526020918281602481895afa908115610da15790610d26918691610dab575b5087163314611597565b843b156103255789516323b872dd60e01b815233818b01908152306020820152604081018390528590829081906060010381838a5af18015610da15791610d8d949391600893610d92575b5085525288832080546001600160a01b03191633179055611666565b610c3e565b610d9b90610fbb565b38610d71565b8b513d87823e3d90fd5b610dc29150843d8611610314576103058183611001565b38610d1c565b50503461017257806003193601126101725760209061081f610de8610f03565b60243590336110ef565b8490843461012557826003193601126101255782600354610e1281610f81565b80855291600191808316908115610e9b5750600114610e3e575b50505061087382610885940383611001565b9450600385527fc2575a0e9e593c00f959f8c92f12db2869c3395a3b0502d05e2516446f71f85b5b828610610e83575050506108738260206108859582010194610e2c565b80546020878701810191909152909501948101610e66565b61088597508693506020925061087394915060ff191682840152151560051b82010194610e2c565b919082519283825260005b848110610eef575050826000602080949584010152601f8019910116010190565b602081830181015184830182015201610ece565b600435906001600160a01b0382168203610f1957565b600080fd5b602435906001600160a01b0382168203610f1957565b906020600319830112610f195760043567ffffffffffffffff92838211610f195780602383011215610f19578160040135938411610f195760248460051b83010111610f19576024019190565b90600182811c92168015610fb1575b6020831014610f9b57565b634e487b7160e01b600052602260045260246000fd5b91607f1691610f90565b67ffffffffffffffff8111610fcf57604052565b634e487b7160e01b600052604160045260246000fd5b6040810190811067ffffffffffffffff821117610fcf57604052565b90601f8019910116810190811067ffffffffffffffff821117610fcf57604052565b916001600160a01b038084169283156110d657169283156110bd576000908382528160205260408220549083821061108b575091604082826000805160206116b2833981519152958760209652828652038282205586815220818154019055604051908152a3565b60405163391434e360e21b81526001600160a01b03919091166004820152602481019190915260448101839052606490fd5b60405163ec442f0560e01b815260006004820152602490fd5b604051634b637e8f60e11b815260006004820152602490fd5b6001600160a01b0390811691821561116957169182156111505760207f8c5be1e5ebec7d5bd14f71427d1e84f3dd0314c0f7b2291e5b200ac8c7c3b925918360005260018252604060002085600052825280604060002055604051908152a3565b604051634a1406b160e11b815260006004820152602490fd5b60405163e602df0560e01b815260006004820152602490fd5b91907f7fffffffffffffffffffffffffffffff5d576e7357a4501ddfe92f46681b20a0841161120657926020929160ff608095604051948552168484015260408301526060820152600092839182805260015afa156111fa5780516001600160a01b038116156111f157918190565b50809160019190565b604051903d90823e3d90fd5b50505060009160039190565b60048110156112815780611224575050565b6001810361123e5760405163f645eedf60e01b8152600490fd5b6002810361125f5760405163fce698f760e01b815260048101839052602490fd5b6003146112695750565b602490604051906335e2f38360e21b82526004820152fd5b634e487b7160e01b600052602160045260246000fd5b307f00000000000000000000000000000000000000000000000000000000000000006001600160a01b03161480611399575b156112f2577f000000000000000000000000000000000000000000000000000000000000000090565b60405160208101907f8b73c3c69bb8fe3d512ecc4cf759cc79239f7b179b0ffacaa9a75d522b39400f82527f000000000000000000000000000000000000000000000000000000000000000060408201527f000000000000000000000000000000000000000000000000000000000000000060608201524660808201523060a082015260a0815260c0810181811067ffffffffffffffff821117610fcf5760405251902090565b507f000000000000000000000000000000000000000000000000000000000000000046146112c9565b60ff81146114005760ff811690601f82116113ee57604051916113e483610fe5565b8252602082015290565b604051632cd44ac360e21b8152600490fd5b5060405160055481600061141383610f81565b8083529260019081811690811561149c575060011461143d575b5061143a92500382611001565b90565b6005600090815291507f036b6384b5eca791c62761152d0c79bb0604c104a5fb6f4eb0703f3154bb3db05b848310611481575061143a93505081016020013861142d565b81935090816020925483858901015201910190918492611468565b90506020925061143a94915060ff191682840152151560051b8201013861142d565b60ff81146114e05760ff811690601f82116113ee57604051916113e483610fe5565b506040516006548160006114f383610f81565b8083529260019081811690811561149c5750600114611519575061143a92500382611001565b6006600090815291507ff652222313e28459528d920b65115c16c04f3efc82aaedc97be59f3f377c0d3f5b84831061155d575061143a93505081016020013861142d565b81935090816020925483858901015201910190918492611544565b90816020910312610f1957516001600160a01b0381168103610f195790565b1561159e57565b60405162461bcd60e51b815260206004820152601860248201527f4e6f7420746865206f776e6572206f6620746865204e465400000000000000006044820152606490fd5b156115ea57565b60405162461bcd60e51b81526020600482015260116024820152702737ba103a34329027232a1037bbb732b960791b6044820152606490fd5b1561162a57565b60405162461bcd60e51b8152602060048201526014602482015273139bc81d1bdad95b92591cc81c1c9bdd9a59195960621b6044820152606490fd5b60001981146116755760010190565b634e487b7160e01b600052601160045260246000fd5b919081101561169b5760051b0190565b634e487b7160e01b600052603260045260246000fdfeddf252ad1be2c89b69c2b068fc378daa952ba7f163c4a11628f55a4df523b3efa2646970667358221220e3977273820c12c3f83e56f924fdcad11705f3b08ab5d82bbe73f75caf7b237b64736f6c63430008140033a2646970667358221220f95f53149b54e4c7b1b9ac6cac6c0d017e645ea040e4150af992ce9b77fae6ae64736f6c63430008140033",
  "linkReferences": {},
  "deployedLinkReferences": {}
}