{
  "_format": "hh-sol-artifact-1",
  "contractName": "SubnetNftVaultFactory",
  "sourceName": "contracts/SubnetNftVaultFactory.sol",
  "abi": [
    {
      "inputs": [
        {
          "internalType": "address",
          "name": "initialOwner",
          "type": "address"
        }
      ],
      "stateMutability": "nonpayable",
      "type": "constructor"
    },
    {
      "inputs": [
        {
          "internalType": "address",
          "name": "owner",
          "type": "address"
        }
      ],
      "name": "OwnableInvalidOwner",
      "type": "error"
    },
    {
      "inputs": [
        {
          "internalType": "address",
          "name": "account",
          "type": "address"
        }
      ],
      "name": "OwnableUnauthorizedAccount",
      "type": "error"
    },
    {
      "anonymous": false,
      "inputs": [
        {
          "indexed": true,
          "internalType": "address",
          "name": "previousOwner",
          "type": "address"
        },
        {
          "indexed": true,
          "internalType": "address",
          "name": "newOwner",
          "type": "address"
        }
      ],
      "name": "OwnershipTransferred",
      "type": "event"
    },
    {
      "anonymous": false,
      "inputs": [
        {
          "indexed": true,
          "internalType": "address",
          "name": "nftContract",
          "type": "address"
        },
        {
          "indexed": false,
          "internalType": "address",
          "name": "vaultAddress",
          "type": "address"
        }
      ],
      "name": "VaultCreated",
      "type": "event"
    },
    {
      "inputs": [
        {
          "internalType": "uint256",
          "name": "",
          "type": "uint256"
        }
      ],
      "name": "allVaults",
      "outputs": [
        {
          "internalType": "address",
          "name": "",
          "type": "address"
        }
      ],
      "stateMutability": "view",
      "type": "function"
    },
    {
      "inputs": [
        {
          "internalType": "string",
          "name": "name_",
          "type": "string"
        },
        {
          "internalType": "string",
          "name": "symbol_",
          "type": "string"
        },
        {
          "internalType": "address",
          "name": "nftContract_",
          "type": "address"
        }
      ],
      "name": "computeSalt",
      "outputs": [
        {
          "internalType": "bytes32",
          "name": "",
          "type": "bytes32"
        }
      ],
      "stateMutability": "pure",
      "type": "function"
    },
    {
      "inputs": [
        {
          "internalType": "string",
          "name": "name_",
          "type": "string"
        },
        {
          "internalType": "string",
          "name": "symbol_",
          "type": "string"
        },
        {
          "internalType": "address",
          "name": "nftContract_",
          "type": "address"
        }
      ],
      "name": "computeVaultAddress",
      "outputs": [
        {
          "internalType": "address",
          "name": "",
          "type": "address"
        }
      ],
      "stateMutability": "view",
      "type": "function"
    },
    {
      "inputs": [
        {
          "internalType": "string",
          "name": "name_",
          "type": "string"
        },
        {
          "internalType": "string",
          "name": "symbol_",
          "type": "string"
        },
        {
          "internalType": "address",
          "name": "nftContract_",
          "type": "address"
        }
      ],
      "name": "createVault",
      "outputs": [
        {
          "internalType": "address",
          "name": "",
          "type": "address"
        }
      ],
      "stateMutability": "nonpayable",
      "type": "function"
    },
    {
      "inputs": [
        {
          "internalType": "uint256",
          "name": "index",
          "type": "uint256"
        }
      ],
      "name": "getVault",
      "outputs": [
        {
          "internalType": "address",
          "name": "",
          "type": "address"
        }
      ],
      "stateMutability": "view",
      "type": "function"
    },
    {
      "inputs": [
        {
          "internalType": "string",
          "name": "name_",
          "type": "string"
        },
        {
          "internalType": "string",
          "name": "symbol_",
          "type": "string"
        },
        {
          "internalType": "address",
          "name": "nftContract_",
          "type": "address"
        }
      ],
      "name": "getVaultBytecode",
      "outputs": [
        {
          "internalType": "bytes",
          "name": "",
          "type": "bytes"
        }
      ],
      "stateMutability": "pure",
      "type": "function"
    },
    {
      "inputs": [],
      "name": "getVaultCount",
      "outputs": [
        {
          "internalType": "uint256",
          "name": "",
          "type": "uint256"
        }
      ],
      "stateMutability": "view",
      "type": "function"
    },
    {
      "inputs": [],
      "name": "owner",
      "outputs": [
        {
          "internalType": "address",
          "name": "",
          "type": "address"
        }
      ],
      "stateMutability": "view",
      "type": "function"
    },
    {
      "inputs": [],
      "name": "renounceOwnership",
      "outputs": [],
      "stateMutability": "nonpayable",
      "type": "function"
    },
    {
      "inputs": [
        {
          "internalType": "address",
          "name": "newOwner",
          "type": "address"
        }
      ],
      "name": "transferOwnership",
      "outputs": [],
      "stateMutability": "nonpayable",
      "type": "function"
    }
  ],
  "bytecode": "0x6080346100bb57601f6128d538819003918201601f19168301916001600160401b038311848410176100c0578084926020946040528339810103126100bb57516001600160a01b0390818116908190036100bb5780156100a257600080546001600160a01b03198116831782556040519316907f8be0079c531659141344cd1fd0a4f28419497f9722a3daafe3b4186f6b6457e09080a36127fe90816100d78239f35b604051631e4fbdf760e01b815260006004820152602490fd5b600080fd5b634e487b7160e01b600052604160045260246000fdfe608060405260043610156200001357600080fd5b60003560e01c806330bd482414620000cb578063336f81b814620000c55780635212c32214620000bf578063715018a614620000b957806374d4e49114620000b35780638da5cb5b14620000ad5780639094a91e14620000a75780639403b63414620000a1578063f2fde38b146200009b5763fbd4834c146200009557600080fd5b620005c2565b62000531565b620004a3565b6200044a565b620003be565b6200039e565b6200033c565b62000316565b620002e1565b34620001755762000171620001576200014b62000103620000ec3662000232565b90620000fc8282859695620006c6565b9362000732565b6020815191012060405190602082019260ff60f81b84523060601b602184015260358301526055820152605581526200013c8162000190565b5190206001600160a01b031690565b6001600160a01b031690565b6040516001600160a01b0390911681529081906020820190565b0390f35b600080fd5b634e487b7160e01b600052604160045260246000fd5b6080810190811067ffffffffffffffff821117620001ad57604052565b6200017a565b90601f8019910116810190811067ffffffffffffffff821117620001ad57604052565b81601f82011215620001755780359067ffffffffffffffff8211620001ad57604051926200020f601f8401601f191660200185620001b3565b828452602083830101116200017557816000926020809301838601378301015290565b906060600319830112620001755767ffffffffffffffff6004358181116200017557836200026391600401620001d6565b9260243591821162000175576200027d91600401620001d6565b906044356001600160a01b0381168103620001755790565b60005b838110620002a95750506000910152565b818101518382015260200162000298565b90602091620002d58151809281855285808601910162000295565b601f01601f1916010190565b3462000175576200017162000301620002fa3662000232565b9162000732565b604051918291602083526020830190620002ba565b3462000175576020620003346200032d3662000232565b91620006c6565b604051908152f35b3462000175576000806003193601126200039b576200035a62000699565b80546001600160a01b03198116825581906001600160a01b03167f8be0079c531659141344cd1fd0a4f28419497f9722a3daafe3b4186f6b6457e08280a380f35b80fd5b346200017557600036600319011262000175576020600154604051908152f35b346200017557600036600319011262000175576000546040516001600160a01b039091168152602090f35b6020906003190112620001755760043590565b600154811015620004345760016000527fb10e2d527612073b26eecdfd717e6a320cf44b4afac2b0732d9fcbe2b7fa0cf60190600090565b634e487b7160e01b600052603260045260246000fd5b3462000175576200045b36620003e9565b600154811015620001755760016000527fb10e2d527612073b26eecdfd717e6a320cf44b4afac2b0732d9fcbe2b7fa0cf601546040516001600160a01b039091168152602090f35b346200017557620004b436620003e9565b600154811015620004fc5760016000527fb10e2d527612073b26eecdfd717e6a320cf44b4afac2b0732d9fcbe2b7fa0cf601546040516001600160a01b039091168152602090f35b60405162461bcd60e51b815260206004820152600d60248201526c092dcecc2d8d2c840d2dcc8caf609b1b6044820152606490fd5b346200017557602036600319011262000175576001600160a01b036004358181169081900362000175576200056562000699565b8015620005a957600080546001600160a01b03198116831782559092167f8be0079c531659141344cd1fd0a4f28419497f9722a3daafe3b4186f6b6457e08380a380f35b604051631e4fbdf760e01b815260006004820152602490fd5b346200017557620005f1620005d73662000232565b809391620005e462000699565b620000fc828286620006c6565b6020815191016000f5801562000175576001549168010000000000000000831015620001ad577f5d9c31ffa0fecffd7cf379989a3c7af252f0335e0d2a1320b55245912c781f536200064e846001620001719601600155620003fc565b81546001600160a01b0360039290921b82811b199091168683169182901b179092556040519182529290921691602090a26040516001600160a01b0390911681529081906020820190565b6000546001600160a01b03163303620006ae57565b60405163118cdaa760e01b8152336004820152602490fd5b919060346200072c916040519384916020620006ec818501988981519384920162000295565b830162000703825180936020808501910162000295565b01906bffffffffffffffffffffffff199060601b166020820152036014810184520182620001b3565b51902090565b90620007cf92620007ec92611fd991620007df60405193620007bc6020966200075e88840188620001b3565b82875287870192620007f0843960405180956200079f6200078b8b84019960608b526080850190620002ba565b601f199485858303016040860152620002ba565b6001600160a01b03909116606083015203908101855284620001b3565b6040519788955180928888019062000295565b8401915180938684019062000295565b01038084520182620001b3565b9056fe610180604090808252346200046c5762001fd9803803809162000023828562000471565b833981016060828203126200046c5781516001600160401b0392908381116200046c578262000054918301620004ba565b93602092838301518581116200046c57829162000073918501620004ba565b920151926001600160a01b03841684036200046c57815190828201828110878211176200036c57835260019283835281830193603160f81b855288518881116200036c5760039081549a838c811c9c16801562000461575b868d10146200044b578190601f9c8d8111620003f5575b5086908d83116001146200038e5760009262000382575b505060001982841b1c191690831b1781555b8651908982116200036c5760049a8b548481811c9116801562000361575b878210146200034c5781811162000301575b508590831160011462000293578293839160009462000287575b501b92600019911b1c19161788555b6200016f8562000515565b936101209485526200018184620006ba565b95610140968752838151910120938460e0525190209761010098808a524660a0528251938401947f8b73c3c69bb8fe3d512ecc4cf759cc79239f7b179b0ffacaa9a75d522b39400f86528385015260608401524660808401523060a084015260a0835260c0830197838910908911176200027257508690525190206080523060c0526101609283526117c7948562000812863960805185611367015260a05185611433015260c05185611331015260e051856113b6015251846113dc015251836109ab015251826109d50152518181816101a9015281816103e1015281816104ef015281816106b00152610c9f0152f35b604190634e487b7160e01b6000525260246000fd5b8a015193503862000155565b90601f198316918c6000528387600020938b89886000925b848410620002e7575050505010620002cc575b505050811b01885562000164565b8901519060f884600019921b161c19169055388080620002be565b860151885590960195938401938793500189888e620002ab565b8c600052866000208280860160051c82019289871062000342575b0160051c019085905b828110620003355750506200013b565b6000815501859062000325565b925081926200031c565b60228d634e487b7160e01b6000525260246000fd5b90607f169062000129565b634e487b7160e01b600052604160045260246000fd5b015190503880620000f9565b90859350601f1983169185600052886000209260005b8a828210620003de5750508411620003c5575b505050811b0181556200010b565b015160001983861b60f8161c19169055388080620003b7565b8385015186558997909501949384019301620003a4565b90915083600052866000208d80850160051c82019289861062000441575b918791869594930160051c01915b82811062000431575050620000e2565b6000815585945087910162000421565b9250819262000413565b634e487b7160e01b600052602260045260246000fd5b9b607f169b620000cb565b600080fd5b601f909101601f19168101906001600160401b038211908210176200036c57604052565b60005b838110620004a95750506000910152565b818101518382015260200162000498565b81601f820112156200046c5780516001600160401b0381116200036c5760405192620004f1601f8301601f19166020018562000471565b818452602082840101116200046c5762000512916020808501910162000495565b90565b8051602091908281101562000595575090601f8251116200055357808251920151908083106200054457501790565b82600019910360031b1b161790565b604490620005879260405193849263305a27a960e01b84528060048501528251928391826024870152868601910162000495565b601f01601f19168101030190fd5b6001600160401b0381116200036c576005928354926001938481811c91168015620006af575b838210146200044b57601f811162000678575b5081601f84116001146200060e575092829391839260009462000602575b50501b916000199060031b1c191617905560ff90565b015192503880620005ec565b919083601f1981168760005284600020946000905b888383106200065d575050501062000643575b505050811b01905560ff90565b015160001960f88460031b161c1916905538808062000636565b85870151885590960195948501948793509081019062000623565b8560005284601f846000209201871c820191601f8601881c015b828110620006a2575050620005ce565b6000815501859062000692565b90607f1690620005bb565b805160209081811015620006e75750601f8251116200055357808251920151908083106200054457501790565b906001600160401b0382116200036c57600654926001938481811c9116801562000806575b838210146200044b57601f8111620007cc575b5081601f841160011462000760575092829391839260009462000754575b50501b916000199060031b1c19161760065560ff90565b0151925038806200073d565b919083601f198116600660005284600020946000905b88838310620007b1575050501062000797575b505050811b0160065560ff90565b015160001960f88460031b161c1916905538808062000789565b85870151885590960195948501948793509081019062000776565b600660005284601f84600020920160051c820191601f860160051c015b828110620007f95750506200071f565b60008155018590620007e9565b90607f16906200070c56fe6080604081815260048036101561001557600080fd5b600092833560e01c90816306fdde0314610e8957508063095ea7b314610e5f578063103bbd4a14610c7557806318160ddd14610c5657806323b872dd14610b60578063313ce56714610b445780633644e51514610b2057806370a0823114610ae95780637ecebe0014610ab157806384b0196e1461099457806395d89b41146108aa578063a9059cbb14610879578063bd18c99a14610686578063d505accf1461051e578063d56d229d146104da578063db006a751461034e578063dd46706414610176578063dd62ed3e146101295763fd731837146100f457600080fd5b346101255760203660031901126101255735825260086020908152918190205490516001600160a01b039091168152f35b8280fd5b50503461017257806003193601126101725780602092610147610f9a565b61014f610fb5565b6001600160a01b0391821683526001865283832091168252845220549051908152f35b5080fd5b50346101255760208060031936011261034a5782516331a9108f60e11b8152823583820181905293906001600160a01b037f0000000000000000000000000000000000000000000000000000000000000000811691908482602481865afa91821561034057906101f192918992610311575b5016331461162e565b803b1561030d5781516323b872dd60e01b815233858201908152306020820152604081018790529091879183919082908490829060600103925af18015610303576102f4575b5083855260088252808520336bffffffffffffffffffffffff60a01b82541617905533156102de57600254670de0b6b3a7640000938482018092116102cb575091600080516020611772833981519152918693600255338452838252808420858154019055519384523393a3337f9f1ec8c880f76798e7b793325d625e9b60e4082a553c98f42b6cda368dd600088380a380f35b634e487b7160e01b875260119052602486fd5b5163ec442f0560e01b8152808301859052602490fd5b6102fd90611052565b38610237565b82513d88823e3d90fd5b8580fd5b610332919250863d8811610339575b61032a8183611098565b81019061160f565b90386101e8565b503d610320565b84513d8a823e3d90fd5b8380fd5b5090346101255760208060031936011261034a578235928385526008825260018060a01b03610383818588205416331461167a565b33156104c35733865285835283862054670de0b6b3a76400009081811061049f578792918391338352828752670de0b6b3a763ffff1980910188842055600254016002558651908152600080516020611772833981519152863392a37f00000000000000000000000000000000000000000000000000000000000000001691823b156101725784516323b872dd60e01b8152309181019182523360208301526040820187905292839182908490829060600103925af18015610495579060089291610486575b5083855252822080546001600160a01b0319169055337f4896181ff8f4543cc00db9fe9b6fb7e6f032b7eb772c72ab1ec1b4d2e03b93698380a380f35b61048f90611052565b38610449565b83513d87823e3d90fd5b855163391434e360e21b815233948101949094526024840152604483015250606490fd5b8351634b637e8f60e11b8152808301879052602490fd5b505034610172578160031936011261017257517f00000000000000000000000000000000000000000000000000000000000000006001600160a01b03168152602090f35b508290346101725760e03660031901126101725761053a610f9a565b610542610fb5565b906044359260643560843560ff811681036106825781421161066b5760018060a01b0390818516928389526007602052898920908154916001830190558a519060208201927f6e71edae12b1b97f4d1f60370fef10105fa2faae0126114a169c64845d6126c98452868d840152858a1660608401528a608084015260a083015260c082015260c0815260e0810181811067ffffffffffffffff821117610658578b525190206106269161061d916105f761132e565b908c519161190160f01b83526002830152602282015260c43591604260a4359220611219565b909291926112a9565b1681810361063d578661063a878787611186565b80f35b87516325c0072360e11b815292830152602482015260449150fd5b634e487b7160e01b8b526041875260248bfd5b875163313c898160e11b8152808401839052602490fd5b8680fd5b5090346101255761069636610fcb565b9190928215906106a682156116ba565b6001600160a01b037f00000000000000000000000000000000000000000000000000000000000000008116908790815b8781106107d15750505050670de0b6b3a764000091828502928584041417156107be5733156107a75733865285602052828620549082821061077c57509185827fb521fb0d13397aa9155a4dbcdc6a37efe5e05118a5e19232dd65b1ea585bbe5d9593610776953384528360205203838320558060025403600255825190815260008051602061177283398151915260203392a351918291339583611748565b0390a280f35b835163391434e360e21b81523391810191825260208201929092526040810183905281906060010390fd5b8251634b637e8f60e11b8152908101869052602490fd5b634e487b7160e01b865260119052602485fd5b6107dc81898b611722565b35808452600860208181526107f733868c892054161461167a565b8286525287842080546001600160a01b0319169055843b1561034a5787516323b872dd60e01b815230878201908152336020820152604081019290925290849082908190606001038183895af1801561086f579061085b9291610860575b506116fd565b6106d6565b61086990611052565b38610855565b88513d86823e3d90fd5b5050346101725780600319360112610172576020906108a3610899610f9a565b60243590336110ba565b5160018152f35b509034610125578260031936011261012557805191838154906108cc82611018565b80865292600192808416908115610969575060011461090d575b61090986866108f7828b0383611098565b51918291602083526020830190610f5a565b0390f35b815294507f8a35acfbc15ff81a39ae7d344fd709f28e8600b4aa8c65c6b64bfe7fe36bd19b5b828610610951575050506108f78260206109099582010194386108e6565b80546020878701810191909152909501948101610933565b90506109099750869350602092506108f794915060ff191682840152151560051b82010194386108e6565b5090346101255782600319360112610125576109cf7f0000000000000000000000000000000000000000000000000000000000000000611459565b926109f97f0000000000000000000000000000000000000000000000000000000000000000611555565b908251926020928385019585871067ffffffffffffffff881117610a9e57509280610a54838896610a47998b9996528686528151998a99600f60f81b8b5260e0868c015260e08b0190610f5a565b91898303908a0152610f5a565b924660608801523060808801528460a088015286840360c088015251928381520193925b828110610a8757505050500390f35b835185528695509381019392810192600101610a78565b634e487b7160e01b845260419052602483fd5b5050346101725760203660031901126101725760209181906001600160a01b03610ad9610f9a565b1681526007845220549051908152f35b5050346101725760203660031901126101725760209181906001600160a01b03610b11610f9a565b16815280845220549051908152f35b505034610172578160031936011261017257602090610b3d61132e565b9051908152f35b5050346101725781600319360112610172576020905160128152f35b508234610c53576060366003190112610c5357610b7b610f9a565b610b83610fb5565b916044359360018060a01b038316808352600160205286832033845260205286832054916000198303610bbf575b6020886108a38989896110ba565b868310610c27578115610c10573315610bf9575082526001602090815286832033845281529186902090859003905582906108a387610bb1565b8751634a1406b160e11b8152908101849052602490fd5b875163e602df0560e01b8152908101849052602490fd5b8751637dc7a0d960e11b8152339181019182526020820193909352604081018790528291506060010390fd5b80fd5b5050346101725781600319360112610172576020906002549051908152f35b50903461012557610c8536610fcb565b919092821590610c9582156116ba565b6001600160a01b037f0000000000000000000000000000000000000000000000000000000000000000811690875b868110610d7257505050670de0b6b3a764000091828502928584041417156107be573315610d5b57600254908282018092116102cb5750917f6d6a03623ca02d7eb9dc3e8491578398e251236c2cf005433b3de5c0f97ad7c99391610776936002553387528660205281872081815401905581519081528660008051602061177283398151915260203393a351918291339583611748565b825163ec442f0560e01b8152908101869052602490fd5b610d7d81888a611722565b86516331a9108f60e11b815290358582018190526020918281602481895afa908115610e345790610db9918d91610e42575b508516331461162e565b843b15610e3e5787516323b872dd60e01b815233878201908152306020820152604081018390528c90829081906060010381838a5af18015610e345791610e20949391600893610e25575b508c5252868a2080546001600160a01b031916331790556116fd565b610cc3565b610e2e90611052565b38610e04565b89513d8e823e3d90fd5b8a80fd5b610e599150843d86116103395761032a8183611098565b38610daf565b5050346101725780600319360112610172576020906108a3610e7f610f9a565b6024359033611186565b8490843461012557826003193601126101255782600354610ea981611018565b80855291600191808316908115610f325750600114610ed5575b5050506108f782610909940383611098565b9450600385527fc2575a0e9e593c00f959f8c92f12db2869c3395a3b0502d05e2516446f71f85b5b828610610f1a575050506108f78260206109099582010194610ec3565b80546020878701810191909152909501948101610efd565b6109099750869350602092506108f794915060ff191682840152151560051b82010194610ec3565b919082519283825260005b848110610f86575050826000602080949584010152601f8019910116010190565b602081830181015184830182015201610f65565b600435906001600160a01b0382168203610fb057565b600080fd5b602435906001600160a01b0382168203610fb057565b906020600319830112610fb05760043567ffffffffffffffff92838211610fb05780602383011215610fb0578160040135938411610fb05760248460051b83010111610fb0576024019190565b90600182811c92168015611048575b602083101461103257565b634e487b7160e01b600052602260045260246000fd5b91607f1691611027565b67ffffffffffffffff811161106657604052565b634e487b7160e01b600052604160045260246000fd5b6040810190811067ffffffffffffffff82111761106657604052565b90601f8019910116810190811067ffffffffffffffff82111761106657604052565b916001600160a01b0380841692831561116d5716928315611154576000908382528160205260408220549083821061112257509160408282600080516020611772833981519152958760209652828652038282205586815220818154019055604051908152a3565b60405163391434e360e21b81526001600160a01b03919091166004820152602481019190915260448101839052606490fd5b60405163ec442f0560e01b815260006004820152602490fd5b604051634b637e8f60e11b815260006004820152602490fd5b6001600160a01b0390811691821561120057169182156111e75760207f8c5be1e5ebec7d5bd14f71427d1e84f3dd0314c0f7b2291e5b200ac8c7c3b925918360005260018252604060002085600052825280604060002055604051908152a3565b604051634a1406b160e11b815260006004820152602490fd5b60405163e602df0560e01b815260006004820152602490fd5b91907f7fffffffffffffffffffffffffffffff5d576e7357a4501ddfe92f46681b20a0841161129d57926020929160ff608095604051948552168484015260408301526060820152600092839182805260015afa156112915780516001600160a01b0381161561128857918190565b50809160019190565b604051903d90823e3d90fd5b50505060009160039190565b600481101561131857806112bb575050565b600181036112d55760405163f645eedf60e01b8152600490fd5b600281036112f65760405163fce698f760e01b815260048101839052602490fd5b6003146113005750565b602490604051906335e2f38360e21b82526004820152fd5b634e487b7160e01b600052602160045260246000fd5b307f00000000000000000000000000000000000000000000000000000000000000006001600160a01b03161480611430575b15611389577f000000000000000000000000000000000000000000000000000000000000000090565b60405160208101907f8b73c3c69bb8fe3d512ecc4cf759cc79239f7b179b0ffacaa9a75d522b39400f82527f000000000000000000000000000000000000000000000000000000000000000060408201527f000000000000000000000000000000000000000000000000000000000000000060608201524660808201523060a082015260a0815260c0810181811067ffffffffffffffff8211176110665760405251902090565b507f00000000000000000000000000000000000000000000000000000000000000004614611360565b60ff81146114975760ff811690601f8211611485576040519161147b8361107c565b8252602082015290565b604051632cd44ac360e21b8152600490fd5b506040516005548160006114aa83611018565b8083529260019081811690811561153357506001146114d4575b506114d192500382611098565b90565b6005600090815291507f036b6384b5eca791c62761152d0c79bb0604c104a5fb6f4eb0703f3154bb3db05b84831061151857506114d19350508101602001386114c4565b819350908160209254838589010152019101909184926114ff565b9050602092506114d194915060ff191682840152151560051b820101386114c4565b60ff81146115775760ff811690601f8211611485576040519161147b8361107c565b5060405160065481600061158a83611018565b8083529260019081811690811561153357506001146115b057506114d192500382611098565b6006600090815291507ff652222313e28459528d920b65115c16c04f3efc82aaedc97be59f3f377c0d3f5b8483106115f457506114d19350508101602001386114c4565b819350908160209254838589010152019101909184926115db565b90816020910312610fb057516001600160a01b0381168103610fb05790565b1561163557565b60405162461bcd60e51b815260206004820152601860248201527f4e6f7420746865206f776e6572206f6620746865204e465400000000000000006044820152606490fd5b1561168157565b60405162461bcd60e51b81526020600482015260116024820152702737ba103a34329027232a1037bbb732b960791b6044820152606490fd5b156116c157565b60405162461bcd60e51b8152602060048201526014602482015273139bc81d1bdad95b92591cc81c1c9bdd9a59195960621b6044820152606490fd5b600019811461170c5760010190565b634e487b7160e01b600052601160045260246000fd5b91908110156117325760051b0190565b634e487b7160e01b600052603260045260246000fd5b602080825281018390526001600160fb1b038311610fb05760409260051b80928483013701019056feddf252ad1be2c89b69c2b068fc378daa952ba7f163c4a11628f55a4df523b3efa2646970667358221220a865e4c8111f603f9b5400bff034057cdaa5b658fa7739943615804ec012cdb864736f6c63430008140033a2646970667358221220d202a591668ee14b6c42ccdd06d99aa2e80c491c552f3b5144684de74ef5432e64736f6c63430008140033",
  "linkReferences": {},
  "deployedLinkReferences": {}
}