{
  "_format": "hh-sol-artifact-1",
  "contractName": "SubnetAppRegistry",
  "sourceName": "contracts/SubnetAppRegistry.sol",
  "abi": [
    {
      "inputs": [
        {
          "internalType": "address",
          "name": "_subnetRegistry",
          "type": "address"
        },
        {
          "internalType": "address",
          "name": "initialOwner",
          "type": "address"
        },
        {
          "internalType": "address",
          "name": "_treasury",
          "type": "address"
        },
        {
          "internalType": "uint256",
          "name": "_feeRate",
          "type": "uint256"
        }
      ],
      "stateMutability": "nonpayable",
      "type": "constructor"
    },
    {
      "inputs": [],
      "name": "ECDSAInvalidSignature",
      "type": "error"
    },
    {
      "inputs": [
        {
          "internalType": "uint256",
          "name": "length",
          "type": "uint256"
        }
      ],
      "name": "ECDSAInvalidSignatureLength",
      "type": "error"
    },
    {
      "inputs": [
        {
          "internalType": "bytes32",
          "name": "s",
          "type": "bytes32"
        }
      ],
      "name": "ECDSAInvalidSignatureS",
      "type": "error"
    },
    {
      "inputs": [],
      "name": "InvalidShortString",
      "type": "error"
    },
    {
      "inputs": [
        {
          "internalType": "address",
          "name": "owner",
          "type": "address"
        }
      ],
      "name": "OwnableInvalidOwner",
      "type": "error"
    },
    {
      "inputs": [
        {
          "internalType": "address",
          "name": "account",
          "type": "address"
        }
      ],
      "name": "OwnableUnauthorizedAccount",
      "type": "error"
    },
    {
      "inputs": [
        {
          "internalType": "string",
          "name": "str",
          "type": "string"
        }
      ],
      "name": "StringTooLong",
      "type": "error"
    },
    {
      "anonymous": false,
      "inputs": [
        {
          "indexed": true,
          "internalType": "uint256",
          "name": "appId",
          "type": "uint256"
        },
        {
          "indexed": false,
          "internalType": "string",
          "name": "name",
          "type": "string"
        },
        {
          "indexed": false,
          "internalType": "string",
          "name": "symbol",
          "type": "string"
        },
        {
          "indexed": true,
          "internalType": "address",
          "name": "owner",
          "type": "address"
        },
        {
          "indexed": false,
          "internalType": "uint256",
          "name": "budget",
          "type": "uint256"
        }
      ],
      "name": "AppCreated",
      "type": "event"
    },
    {
      "anonymous": false,
      "inputs": [],
      "name": "EIP712DomainChanged",
      "type": "event"
    },
    {
      "anonymous": false,
      "inputs": [
        {
          "indexed": true,
          "internalType": "uint256",
          "name": "subnetId",
          "type": "uint256"
        },
        {
          "indexed": true,
          "internalType": "uint256",
          "name": "appId",
          "type": "uint256"
        },
        {
          "indexed": true,
          "internalType": "address",
          "name": "owner",
          "type": "address"
        }
      ],
      "name": "NodeRegistered",
      "type": "event"
    },
    {
      "anonymous": false,
      "inputs": [
        {
          "indexed": true,
          "internalType": "address",
          "name": "previousOwner",
          "type": "address"
        },
        {
          "indexed": true,
          "internalType": "address",
          "name": "newOwner",
          "type": "address"
        }
      ],
      "name": "OwnershipTransferred",
      "type": "event"
    },
    {
      "anonymous": false,
      "inputs": [
        {
          "indexed": true,
          "internalType": "uint256",
          "name": "appId",
          "type": "uint256"
        },
        {
          "indexed": true,
          "internalType": "uint256",
          "name": "subnetId",
          "type": "uint256"
        },
        {
          "indexed": true,
          "internalType": "address",
          "name": "node",
          "type": "address"
        },
        {
          "indexed": false,
          "internalType": "uint256",
          "name": "reward",
          "type": "uint256"
        }
      ],
      "name": "RewardClaimed",
      "type": "event"
    },
    {
      "inputs": [],
      "name": "appCount",
      "outputs": [
        {
          "internalType": "uint256",
          "name": "",
          "type": "uint256"
        }
      ],
      "stateMutability": "view",
      "type": "function"
    },
    {
      "inputs": [
        {
          "internalType": "uint256",
          "name": "",
          "type": "uint256"
        },
        {
          "internalType": "uint256",
          "name": "",
          "type": "uint256"
        }
      ],
      "name": "appNodes",
      "outputs": [
        {
          "internalType": "uint256",
          "name": "duration",
          "type": "uint256"
        },
        {
          "internalType": "uint256",
          "name": "usedCpu",
          "type": "uint256"
        },
        {
          "internalType": "uint256",
          "name": "usedGpu",
          "type": "uint256"
        },
        {
          "internalType": "uint256",
          "name": "usedMemory",
          "type": "uint256"
        },
        {
          "internalType": "uint256",
          "name": "usedStorage",
          "type": "uint256"
        },
        {
          "internalType": "uint256",
          "name": "usedDownloadBytes",
          "type": "uint256"
        },
        {
          "internalType": "uint256",
          "name": "usedUploadBytes",
          "type": "uint256"
        },
        {
          "internalType": "bool",
          "name": "isRegistered",
          "type": "bool"
        }
      ],
      "stateMutability": "view",
      "type": "function"
    },
    {
      "inputs": [
        {
          "internalType": "uint256",
          "name": "",
          "type": "uint256"
        }
      ],
      "name": "apps",
      "outputs": [
        {
          "internalType": "string",
          "name": "peerId",
          "type": "string"
        },
        {
          "internalType": "address",
          "name": "owner",
          "type": "address"
        },
        {
          "internalType": "string",
          "name": "name",
          "type": "string"
        },
        {
          "internalType": "string",
          "name": "symbol",
          "type": "string"
        },
        {
          "internalType": "uint256",
          "name": "budget",
          "type": "uint256"
        },
        {
          "internalType": "uint256",
          "name": "spentBudget",
          "type": "uint256"
        },
        {
          "internalType": "uint256",
          "name": "maxNodes",
          "type": "uint256"
        },
        {
          "internalType": "uint256",
          "name": "minCpu",
          "type": "uint256"
        },
        {
          "internalType": "uint256",
          "name": "minGpu",
          "type": "uint256"
        },
        {
          "internalType": "uint256",
          "name": "minMemory",
          "type": "uint256"
        },
        {
          "internalType": "uint256",
          "name": "minUploadBandwidth",
          "type": "uint256"
        },
        {
          "internalType": "uint256",
          "name": "minDownloadBandwidth",
          "type": "uint256"
        },
        {
          "internalType": "uint256",
          "name": "nodeCount",
          "type": "uint256"
        },
        {
          "internalType": "uint256",
          "name": "pricePerCpu",
          "type": "uint256"
        },
        {
          "internalType": "uint256",
          "name": "pricePerGpu",
          "type": "uint256"
        },
        {
          "internalType": "uint256",
          "name": "pricePerMemoryGB",
          "type": "uint256"
        },
        {
          "internalType": "uint256",
          "name": "pricePerStorageGB",
          "type": "uint256"
        },
        {
          "internalType": "uint256",
          "name": "pricePerBandwidthGB",
          "type": "uint256"
        },
        {
          "internalType": "string",
          "name": "metadata",
          "type": "string"
        }
      ],
      "stateMutability": "view",
      "type": "function"
    },
    {
      "inputs": [
        {
          "internalType": "uint256",
          "name": "subnetId",
          "type": "uint256"
        },
        {
          "internalType": "uint256",
          "name": "appId",
          "type": "uint256"
        },
        {
          "internalType": "uint256",
          "name": "usedCpu",
          "type": "uint256"
        },
        {
          "internalType": "uint256",
          "name": "usedGpu",
          "type": "uint256"
        },
        {
          "internalType": "uint256",
          "name": "usedMemory",
          "type": "uint256"
        },
        {
          "internalType": "uint256",
          "name": "usedStorage",
          "type": "uint256"
        },
        {
          "internalType": "uint256",
          "name": "usedUploadBytes",
          "type": "uint256"
        },
        {
          "internalType": "uint256",
          "name": "usedDownloadBytes",
          "type": "uint256"
        },
        {
          "internalType": "uint256",
          "name": "duration",
          "type": "uint256"
        },
        {
          "internalType": "bytes",
          "name": "signature",
          "type": "bytes"
        }
      ],
      "name": "claimReward",
      "outputs": [],
      "stateMutability": "nonpayable",
      "type": "function"
    },
    {
      "inputs": [
        {
          "internalType": "string",
          "name": "name",
          "type": "string"
        },
        {
          "internalType": "string",
          "name": "symbol",
          "type": "string"
        },
        {
          "internalType": "string",
          "name": "peerId",
          "type": "string"
        },
        {
          "internalType": "uint256",
          "name": "budget",
          "type": "uint256"
        },
        {
          "internalType": "uint256",
          "name": "maxNodes",
          "type": "uint256"
        },
        {
          "internalType": "uint256",
          "name": "minCpu",
          "type": "uint256"
        },
        {
          "internalType": "uint256",
          "name": "minGpu",
          "type": "uint256"
        },
        {
          "internalType": "uint256",
          "name": "minMemory",
          "type": "uint256"
        },
        {
          "internalType": "uint256",
          "name": "minUploadBandwidth",
          "type": "uint256"
        },
        {
          "internalType": "uint256",
          "name": "minDownloadBandwidth",
          "type": "uint256"
        },
        {
          "internalType": "uint256",
          "name": "pricePerCpu",
          "type": "uint256"
        },
        {
          "internalType": "uint256",
          "name": "pricePerGpu",
          "type": "uint256"
        },
        {
          "internalType": "uint256",
          "name": "pricePerMemoryGB",
          "type": "uint256"
        },
        {
          "internalType": "uint256",
          "name": "pricePerStorageGB",
          "type": "uint256"
        },
        {
          "internalType": "uint256",
          "name": "pricePerBandwidthGB",
          "type": "uint256"
        },
        {
          "internalType": "string",
          "name": "metadata",
          "type": "string"
        }
      ],
      "name": "createApp",
      "outputs": [],
      "stateMutability": "payable",
      "type": "function"
    },
    {
      "inputs": [],
      "name": "eip712Domain",
      "outputs": [
        {
          "internalType": "bytes1",
          "name": "fields",
          "type": "bytes1"
        },
        {
          "internalType": "string",
          "name": "name",
          "type": "string"
        },
        {
          "internalType": "string",
          "name": "version",
          "type": "string"
        },
        {
          "internalType": "uint256",
          "name": "chainId",
          "type": "uint256"
        },
        {
          "internalType": "address",
          "name": "verifyingContract",
          "type": "address"
        },
        {
          "internalType": "bytes32",
          "name": "salt",
          "type": "bytes32"
        },
        {
          "internalType": "uint256[]",
          "name": "extensions",
          "type": "uint256[]"
        }
      ],
      "stateMutability": "view",
      "type": "function"
    },
    {
      "inputs": [],
      "name": "feeRate",
      "outputs": [
        {
          "internalType": "uint256",
          "name": "",
          "type": "uint256"
        }
      ],
      "stateMutability": "view",
      "type": "function"
    },
    {
      "inputs": [
        {
          "internalType": "uint256",
          "name": "appId",
          "type": "uint256"
        }
      ],
      "name": "getApp",
      "outputs": [
        {
          "components": [
            {
              "internalType": "string",
              "name": "peerId",
              "type": "string"
            },
            {
              "internalType": "address",
              "name": "owner",
              "type": "address"
            },
            {
              "internalType": "string",
              "name": "name",
              "type": "string"
            },
            {
              "internalType": "string",
              "name": "symbol",
              "type": "string"
            },
            {
              "internalType": "uint256",
              "name": "budget",
              "type": "uint256"
            },
            {
              "internalType": "uint256",
              "name": "spentBudget",
              "type": "uint256"
            },
            {
              "internalType": "uint256",
              "name": "maxNodes",
              "type": "uint256"
            },
            {
              "internalType": "uint256",
              "name": "minCpu",
              "type": "uint256"
            },
            {
              "internalType": "uint256",
              "name": "minGpu",
              "type": "uint256"
            },
            {
              "internalType": "uint256",
              "name": "minMemory",
              "type": "uint256"
            },
            {
              "internalType": "uint256",
              "name": "minUploadBandwidth",
              "type": "uint256"
            },
            {
              "internalType": "uint256",
              "name": "minDownloadBandwidth",
              "type": "uint256"
            },
            {
              "internalType": "uint256",
              "name": "nodeCount",
              "type": "uint256"
            },
            {
              "internalType": "uint256",
              "name": "pricePerCpu",
              "type": "uint256"
            },
            {
              "internalType": "uint256",
              "name": "pricePerGpu",
              "type": "uint256"
            },
            {
              "internalType": "uint256",
              "name": "pricePerMemoryGB",
              "type": "uint256"
            },
            {
              "internalType": "uint256",
              "name": "pricePerStorageGB",
              "type": "uint256"
            },
            {
              "internalType": "uint256",
              "name": "pricePerBandwidthGB",
              "type": "uint256"
            },
            {
              "internalType": "string",
              "name": "metadata",
              "type": "string"
            }
          ],
          "internalType": "struct SubnetAppRegistry.App",
          "name": "app",
          "type": "tuple"
        }
      ],
      "stateMutability": "view",
      "type": "function"
    },
    {
      "inputs": [
        {
          "internalType": "uint256",
          "name": "appId",
          "type": "uint256"
        },
        {
          "internalType": "uint256",
          "name": "subnetId",
          "type": "uint256"
        }
      ],
      "name": "getAppNode",
      "outputs": [
        {
          "components": [
            {
              "internalType": "uint256",
              "name": "duration",
              "type": "uint256"
            },
            {
              "internalType": "uint256",
              "name": "usedCpu",
              "type": "uint256"
            },
            {
              "internalType": "uint256",
              "name": "usedGpu",
              "type": "uint256"
            },
            {
              "internalType": "uint256",
              "name": "usedMemory",
              "type": "uint256"
            },
            {
              "internalType": "uint256",
              "name": "usedStorage",
              "type": "uint256"
            },
            {
              "internalType": "uint256",
              "name": "usedDownloadBytes",
              "type": "uint256"
            },
            {
              "internalType": "uint256",
              "name": "usedUploadBytes",
              "type": "uint256"
            },
            {
              "internalType": "bool",
              "name": "isRegistered",
              "type": "bool"
            }
          ],
          "internalType": "struct SubnetAppRegistry.AppNode",
          "name": "appNode",
          "type": "tuple"
        }
      ],
      "stateMutability": "view",
      "type": "function"
    },
    {
      "inputs": [
        {
          "internalType": "uint256",
          "name": "start",
          "type": "uint256"
        },
        {
          "internalType": "uint256",
          "name": "end",
          "type": "uint256"
        }
      ],
      "name": "listApps",
      "outputs": [
        {
          "components": [
            {
              "internalType": "string",
              "name": "peerId",
              "type": "string"
            },
            {
              "internalType": "address",
              "name": "owner",
              "type": "address"
            },
            {
              "internalType": "string",
              "name": "name",
              "type": "string"
            },
            {
              "internalType": "string",
              "name": "symbol",
              "type": "string"
            },
            {
              "internalType": "uint256",
              "name": "budget",
              "type": "uint256"
            },
            {
              "internalType": "uint256",
              "name": "spentBudget",
              "type": "uint256"
            },
            {
              "internalType": "uint256",
              "name": "maxNodes",
              "type": "uint256"
            },
            {
              "internalType": "uint256",
              "name": "minCpu",
              "type": "uint256"
            },
            {
              "internalType": "uint256",
              "name": "minGpu",
              "type": "uint256"
            },
            {
              "internalType": "uint256",
              "name": "minMemory",
              "type": "uint256"
            },
            {
              "internalType": "uint256",
              "name": "minUploadBandwidth",
              "type": "uint256"
            },
            {
              "internalType": "uint256",
              "name": "minDownloadBandwidth",
              "type": "uint256"
            },
            {
              "internalType": "uint256",
              "name": "nodeCount",
              "type": "uint256"
            },
            {
              "internalType": "uint256",
              "name": "pricePerCpu",
              "type": "uint256"
            },
            {
              "internalType": "uint256",
              "name": "pricePerGpu",
              "type": "uint256"
            },
            {
              "internalType": "uint256",
              "name": "pricePerMemoryGB",
              "type": "uint256"
            },
            {
              "internalType": "uint256",
              "name": "pricePerStorageGB",
              "type": "uint256"
            },
            {
              "internalType": "uint256",
              "name": "pricePerBandwidthGB",
              "type": "uint256"
            },
            {
              "internalType": "string",
              "name": "metadata",
              "type": "string"
            }
          ],
          "internalType": "struct SubnetAppRegistry.App[]",
          "name": "",
          "type": "tuple[]"
        }
      ],
      "stateMutability": "view",
      "type": "function"
    },
    {
      "inputs": [
        {
          "internalType": "uint256",
          "name": "",
          "type": "uint256"
        }
      ],
      "name": "nodeToAppId",
      "outputs": [
        {
          "internalType": "uint256",
          "name": "",
          "type": "uint256"
        }
      ],
      "stateMutability": "view",
      "type": "function"
    },
    {
      "inputs": [],
      "name": "owner",
      "outputs": [
        {
          "internalType": "address",
          "name": "",
          "type": "address"
        }
      ],
      "stateMutability": "view",
      "type": "function"
    },
    {
      "inputs": [
        {
          "internalType": "uint256",
          "name": "subnetId",
          "type": "uint256"
        },
        {
          "internalType": "uint256",
          "name": "appId",
          "type": "uint256"
        }
      ],
      "name": "registerNode",
      "outputs": [],
      "stateMutability": "nonpayable",
      "type": "function"
    },
    {
      "inputs": [],
      "name": "renounceOwnership",
      "outputs": [],
      "stateMutability": "nonpayable",
      "type": "function"
    },
    {
      "inputs": [
        {
          "internalType": "uint256",
          "name": "_feeRate",
          "type": "uint256"
        }
      ],
      "name": "setFeeRate",
      "outputs": [],
      "stateMutability": "nonpayable",
      "type": "function"
    },
    {
      "inputs": [
        {
          "internalType": "address",
          "name": "_treasury",
          "type": "address"
        }
      ],
      "name": "setTreasury",
      "outputs": [],
      "stateMutability": "nonpayable",
      "type": "function"
    },
    {
      "inputs": [],
      "name": "subnetRegistry",
      "outputs": [
        {
          "internalType": "contract ISubnetRegistry",
          "name": "",
          "type": "address"
        }
      ],
      "stateMutability": "view",
      "type": "function"
    },
    {
      "inputs": [
        {
          "internalType": "string",
          "name": "",
          "type": "string"
        }
      ],
      "name": "symbolToAppId",
      "outputs": [
        {
          "internalType": "uint256",
          "name": "",
          "type": "uint256"
        }
      ],
      "stateMutability": "view",
      "type": "function"
    },
    {
      "inputs": [
        {
          "internalType": "address",
          "name": "newOwner",
          "type": "address"
        }
      ],
      "name": "transferOwnership",
      "outputs": [],
      "stateMutability": "nonpayable",
      "type": "function"
    },
    {
      "inputs": [],
      "name": "treasury",
      "outputs": [
        {
          "internalType": "address",
          "name": "",
          "type": "address"
        }
      ],
      "stateMutability": "view",
      "type": "function"
    },
    {
      "inputs": [
        {
          "internalType": "bytes32",
          "name": "",
          "type": "bytes32"
        }
      ],
      "name": "usedMessageHashes",
      "outputs": [
        {
          "internalType": "bool",
          "name": "",
          "type": "bool"
        }
      ],
      "stateMutability": "view",
      "type": "function"
    },
    {
      "inputs": [],
      "name": "version",
      "outputs": [
        {
          "internalType": "string",
          "name": "",
          "type": "string"
        }
      ],
      "stateMutability": "pure",
      "type": "function"
    }
  ],
  "bytecode": "0x610160346200028b57601f62002cc738819003918201601f1916830192916001600160401b039182851184861017620002755781608092859260409788528339810103126200028b576200005382620002ac565b926200006260208401620002ac565b91606062000072838601620002ac565b94015190825193620000848562000290565b601185526020850195705375626e6574417070526567697374727960781b8752845197620000b28962000290565b6001895260208901603160f81b8152620000cc88620002c1565b98610120998a52620000de8b62000494565b98610140998a52519020998a60e0525190209361010099858b524660a05287519560208701917f8b73c3c69bb8fe3d512ecc4cf759cc79239f7b179b0ffacaa9a75d522b39400f83528988015260608701524660808701523060a087015260a0865260c0860191868310908311176200027557818852855190206080523060c0526001600160a01b039384169485156200025e575050826002549160018060a01b031995808785161760025582895194167f8be0079c531659141344cd1fd0a4f28419497f9722a3daafe3b4186f6b6457e0600080a3169081156200021c57508360065416176006551690600a541617600a55600b555191612685938462000642853960805184612345015260a05184612410015260c0518461230f015260e05184612394015251836123ba01525182610ca001525181610cc90152f35b62461bcd60e51b815260206004820152601e60248201527f496e76616c6964205375626e65745265676973747279206164647265737300006044820152606490fd5b631e4fbdf760e01b8252600060c490910152602490fd5b634e487b7160e01b600052604160045260246000fd5b600080fd5b604081019081106001600160401b038211176200027557604052565b51906001600160a01b03821682036200028b57565b8051602091908281101562000360575090601f825111620002ff5780825192015190808310620002f057501790565b82600019910360031b1b161790565b90604051809263305a27a960e01b82528060048301528251908160248401526000935b82851062000346575050604492506000838284010152601f80199101168101030190fd5b848101820151868601604401529381019385935062000322565b6001600160401b03811162000275576000928354926001938481811c9116801562000489575b838210146200047557601f81116200043f575b5081601f8411600114620003d857509282939183928694620003cc575b50501b916000199060031b1c191617905560ff90565b015192503880620003b6565b919083601f1981168780528488209488905b888383106200042457505050106200040a575b505050811b01905560ff90565b015160001960f88460031b161c19169055388080620003fd565b858701518855909601959485019487935090810190620003ea565b85805284601f848820920160051c820191601f860160051c015b8281106200046957505062000399565b87815501859062000459565b634e487b7160e01b86526022600452602486fd5b90607f169062000386565b805160209081811015620005225750601f825111620004c15780825192015190808310620002f057501790565b90604051809263305a27a960e01b82528060048301528251908160248401526000935b82851062000508575050604492506000838284010152601f80199101168101030190fd5b8481018201518686016044015293810193859350620004e4565b9192916001600160401b038111620002755760019182548381811c9116801562000636575b828210146200062057601f8111620005e7575b5080601f83116001146200059a5750819293946000926200058e575b5050600019600383901b1c191690821b17905560ff90565b01519050388062000576565b90601f198316958460005282600020926000905b888210620005cf57505083859697106200040a57505050811b01905560ff90565b808785968294968601518155019501930190620005ae565b8360005283601f83600020920160051c820191601f850160051c015b828110620006135750506200055a565b6000815501849062000603565b634e487b7160e01b600052602260045260246000fd5b90607f16906200054756fe610160604052600436101561001357600080fd5b60003560e01c80631bdba780146114b3578063236a8d9d1461130457806324f3a51b146112955780633d205559146110fd5780633e0beca2146110d457806345596e2e1461106557806354fd4d501461101b57806361acc37e14610e1957806361d027b314610df0578063715018a614610d9357806384b0196e14610c8a57806387d6920714610c595780638da5cb5b14610c30578063978bbdb914610c12578063b55ca2c314610bf4578063c4d11ccb14610bc8578063cb4b236014610b6c578063d7f7faf414610ae7578063e98edf2614610953578063edce259d1461023a578063f0f44260146101a45763f2fde38b1461010f57600080fd5b3461019f57602036600319011261019f576004356001600160a01b038181169182900361019f5761013e611e1b565b811561018657600254826bffffffffffffffffffffffff60a01b821617600255167f8be0079c531659141344cd1fd0a4f28419497f9722a3daafe3b4186f6b6457e0600080a3005b604051631e4fbdf760e01b815260006004820152602490fd5b600080fd5b3461019f57602036600319011261019f576004356001600160a01b0381169081900361019f576101d2611e1b565b80156101f5576bffffffffffffffffffffffff60a01b600a541617600a55600080f35b60405162461bcd60e51b815260206004820152601860248201527f496e76616c6964207472656173757279206164647265737300000000000000006044820152606490fd5b61020036600319011261019f576004356001600160401b03811161019f57610266903690600401611e00565b6024356001600160401b03811161019f57610285903690600401611e00565b6044356001600160401b03811161019f576102a4903690600401611e00565b6101e4356001600160401b03811161019f576102c4903690600401611e00565b606435341061090e57608435156108bd5760405160208185516102ea8183858a01611be7565b81016005815203019020546108805761030460035461200d565b8060035560005260046020526040600020918051906001600160401b0382116106255781906103338554611d30565b601f8111610830575b50602090601f83116001146107c4576000926107b9575b50508160011b916000199060031b1c19161782555b6001820180546001600160a01b0319163317905583516001600160401b038111610625576103996002840154611d30565b601f8111610772575b50806020601f8211600114610705576000916106fa575b508160011b916000199060031b1c19161760028301555b82516001600160401b038111610625576103ed6003840154611d30565b601f81116106b3575b50806020601f82116001146106465760009161063b575b508160011b916000199060031b1c19161760038301555b6064356004830155608435600683015560a435600783015560c435600883015560e435600983015561010435600a83015561012435600b83015561014435600d83015561016435600e83015561018435600f8301556101a43560108301556101c43560118301558051906001600160401b038211610625576104a96012840154611d30565b601f81116105da575b50602090601f831160011461056c576012929160009183610561575b50508160011b916000199060031b1c1916179101555b7f9b96599010d3232696eb9dcbd3fa0a37ce73e2ffccd85f705a63a90afc65e420610550600354928360405160208184516105228183858901611be7565b810160058152030190205561054260405195606087526060870190611c0a565b908582036020870152611c0a565b9260643560408201528033940390a3005b0151905086806104ce565b90601f198316916012850160005260206000209260005b8181106105c2575091600193918560129694106105a9575b505050811b019101556104e4565b015160001960f88460031b161c1916905586808061059b565b92936020600181928786015181550195019301610583565b601284016000526020600020601f840160051c8101916020851061061b575b601f0160051c01905b81811061060f57506104b2565b60008155600101610602565b90915081906105f9565b634e487b7160e01b600052604160045260246000fd5b90508401518661040d565b91506003840160005260206000206000925b601f198316841061069b576001935082601f19811610610682575b5050811b016003830155610424565b86015160001960f88460031b161c191690558680610673565b86810151825560209384019360019092019101610658565b600384016000526020600020601f830160051c8101602084106106f3575b601f830160051c820181106106e75750506103f6565b600081556001016106d1565b50806106d1565b9050850151866103b9565b91506002840160005260206000206000925b601f198316841061075a576001935082601f19811610610741575b5050811b0160028301556103d0565b87015160001960f88460031b161c191690558680610732565b87810151825560209384019360019092019101610717565b600284016000526020600020601f830160051c8101602084106107b2575b601f830160051c820181106107a65750506103a2565b60008155600101610790565b5080610790565b015190508680610353565b9250846000526020600020906000935b601f1984168510610815576001945083601f198116106107fc575b505050811b018255610368565b015160001960f88460031b161c191690558680806107ef565b818101518355602094850194600190930192909101906107d4565b909150846000526020600020601f840160051c810160208510610879575b90849392915b601f830160051c8201811061086a57505061033c565b60008155859450600101610854565b508061084e565b60405162461bcd60e51b815260206004820152601560248201527453796d626f6c20616c72656164792065786973747360581b6044820152606490fd5b60405162461bcd60e51b815260206004820152602360248201527f4d6178206e6f646573206d7573742062652067726561746572207468616e207a60448201526265726f60e81b6064820152608490fd5b60405162461bcd60e51b815260206004820152601e60248201527f496e73756666696369656e742066756e647320666f7220746865206a6f6200006044820152606490fd5b3461019f5761096136611bd1565b6040519061096e82611b0b565b60008252600060e060209382858201528260408201528260608201528260808201528260a08201528260c0820152015282600052600482526109c160018060a01b0360016040600020015416151561260e565b8260005260088252604060002081600052825260ff6007604060002001541615610aa25761010092600052600882526040600020906000528152604060002060405190610a0d82611b0b565b805492838352600182015490808401918252600283015460408501908152600384015490606086019182526004850154926080870193845260058601549460a0880195865260e060ff600760068a01549960c08c019a8b520154169801971515885260405198895251908801525160408701525160608601525160808501525160a08401525160c083015251151560e0820152f35b60405162461bcd60e51b815260048101839052601f60248201527f4e6f6465206e6f74207265676973746572656420746f207468697320617070006044820152606490fd5b3461019f57610af536611bd1565b90600052600860205260406000209060005260205261010060406000208054906001810154906002810154600382015460048301549060058401549260ff600760068701549601541695604051978852602088015260408701526060860152608085015260a084015260c0830152151560e0820152f35b3461019f57602036600319011261019f576004356001600160401b03811161019f57610bb56020610ba281933690600401611e00565b8160405193828580945193849201611be7565b8101600581520301902054604051908152f35b3461019f57602036600319011261019f5760043560005260076020526020604060002054604051908152f35b3461019f57600036600319011261019f576020600354604051908152f35b3461019f57600036600319011261019f576020600b54604051908152f35b3461019f57600036600319011261019f576002546040516001600160a01b039091168152602090f35b3461019f57602036600319011261019f576004356000526009602052602060ff604060002054166040519015158152f35b3461019f57600036600319011261019f57610cc47f0000000000000000000000000000000000000000000000000000000000000000611e5e565b610ced7f0000000000000000000000000000000000000000000000000000000000000000611f55565b6040516020808201928284106001600160401b03851117610625579181610d468594610d38979660405260008452604051978897600f60f81b895260e0858a015260e0890190611c0a565b908782036040890152611c0a565b91466060870152306080870152600060a087015285830360c0870152519182815201929160005b828110610d7c57505050500390f35b835185528695509381019392810192600101610d6d565b3461019f57600036600319011261019f57610dac611e1b565b600280546001600160a01b031981169091556000906001600160a01b03167f8be0079c531659141344cd1fd0a4f28419497f9722a3daafe3b4186f6b6457e08280a3005b3461019f57600036600319011261019f57600a546040516001600160a01b039091168152602090f35b3461019f57602036600319011261019f57600435600052600460205260406000208061012052604051610e4d818093611d6a565b03610e589082611b5e565b6101205160018101546001600160a01b031661010052604051608081905290610e85908290600201611d6a565b0360805190610e9391611b5e565b6040519081806101205160030190610eaa91611d6a565b03610eb59083611b5e565b61012051906004820154610140526005820154926006830154600784015460088501546009860154600a87015490600b88015492600c89015494600d8a015496600e8b015498600f8c01549a60108d01549c601181015460a05260405180918160e05260120190610f2591611d6a565b0360e05190610f3391611b5e565b6040518060c05261026080915260c05101610f4d91611c0a565b6101005160c0516020015260c051808203906040015260805190610f7091611c0a565b60c0518082039060600152610f8491611c0a565b9b6101405160c0516080015260c05160a0015260c05160c0015260c05160e0015260c051610100015260c051610120015260c051610140015260c051610160015260c051610180015260c0516101a0015260c0516101c0015260c0516101e0015260c051610200015260a05160c051610220015260c05180820390610240015260c0519060e0519061101591611c0a565b0360c051f35b3461019f57600036600319011261019f5761106160405161103b81611b43565b60058152640312e302e360dc1b6020820152604051918291602083526020830190611c0a565b0390f35b3461019f57602036600319011261019f57600435611081611e1b565b6103e8811161108f57600b55005b60405162461bcd60e51b815260206004820152601f60248201527f4665652072617465206d757374206265203c3d203130303020283130302529006044820152606490fd5b3461019f57600036600319011261019f576006546040516001600160a01b039091168152602090f35b3461019f5761110b36611bd1565b906001918282101580611289575b8061127f575b1561124a5761112e828261218e565b918383018093116112345761114283611e47565b926111506040519485611b5e565b80845261115f601f1991611e47565b0160005b81811061121d575050805b828111156111d9578385604051906020808301818452845180915260408401918060408360051b8701019601926000905b8382106111ac5786880387f35b909192939483806111c8839a603f198b82030186528951611c2f565b99970195949391909101910161119f565b8061121891600052600460205261121260406000206112016111fb868561218e565b916124ea565b61120b82896124c0565b52866124c0565b5061200d565b61116e565b602090611228612436565b82828801015201611163565b634e487b7160e01b600052601160045260246000fd5b60405162461bcd60e51b815260206004820152600d60248201526c496e76616c69642072616e676560981b6044820152606490fd5b508082111561111f565b50600354811115611119565b3461019f57602036600319011261019f576004356112b1612436565b506000818152600460205260409020600101546112d8906001600160a01b0316151561260e565b60005260046020526110616112f060406000206124ea565b604051918291602083526020830190611c2f565b3461019f5761131236611bd1565b801515806114a7575b6113249061201c565b8060005260046020526040600020600c810190600682549101541115611457576006546040516316329d4160e21b8152600481018590526001600160a01b0392916000908290602490829087165afa90811561144b57600091611428575b50610100810151156113ee57604091846000526008602052826000208660005260205260078360002001600160ff198254161790556113c1815461200d565b9055015116917f7f88516c140a892db548417fd31a878be51fb78bcf8cff5ea47514b13445103a600080a4005b60405162461bcd60e51b81526020600482015260126024820152715375626e657420697320696e61637469766560701b6044820152606490fd5b61144591503d806000833e61143d8183611b5e565b81019061209b565b85611382565b6040513d6000823e3d90fd5b60405162461bcd60e51b815260206004820152602260248201527f417070206861732072656163686564206d6178696d756d206e6f6465206c696d6044820152611a5d60f21b6064820152608490fd5b5060035481111561131b565b3461019f5761014036600319011261019f57610124356001600160401b03811161019f573660238201121561019f576114f6903690602481600401359101611b9a565b602435151580611afd575b61150a9061201c565b6024356000526004602052604060002090600482015460058301541015611ac1576006546040516316329d4160e21b8152600480359082015290600090829060249082906001600160a01b03165afa90811561144b57600091611aa6575b5061010081015115611a6f57604001516001600160a01b03163303611a36576024356000526008602052604060002060043560005260205260ff60076040600020015416156119fb57604051806101208101106001600160401b03610120830111176106255761012081016040526004358152602435602082015260443560408201526064356060820152608435608082015260a43560a082015260c43560c082015260e43560e0820152610100610104359101526040517f10a276555b3f0c739d83032ebc4161b0ed2237efc96cd04bbc31348f35968f18602082015260043560408201526024356060820152604435608082015260643560a082015260843560c082015260a43560e082015260c43561010082015260e435610120820152610104356101408201526101408152806101608101106001600160401b0361016083011117610625578061016060429201604052602081519101206116cb61230c565b906040519161190160f01b8352600283015260228201522080600052600960205260ff604060002054166119bd57611728918161171f9260005260096020526040600020600160ff198254161790556121bb565b90929192612287565b60018201546001600160a01b039081169116036119785760243560005260086020526040600020600435600052602052611879604060002061182e61186e61185f61184061177c600186015460443561218e565b61182e611834611792600289015460643561218e565b9261182e6118228c60118c6117bd60056117b2600684015460c43561218e565b92015460e43561218e565b9d61180681546117d0816101043561218e565b9060443560018501556064356002850155608435600385015560a435600485015560c435600685015560e435600585015561219b565b9055611818633b9aca009e8f9261219b565b04910154906121a8565b91600d8d0154906121a8565b9061219b565b91600e8a0154906121a8565b61182e6118546101043587608435046121a8565b600f890154906121a8565b92610104359060a435046121a8565b6010850154906121a8565b90600481015460058201549061188f848361219b565b1161193d576118a08360059261219b565b9101556103e86118b2600b54836121a8565b0460008080806118c2858761218e565b600a549095906001600160a01b0316828215611934575bf11561144b5760008080809381811561192b575b3390f11561144b576040519081523390600435907fa8325f46ec9623d7ced8f695ff820511a4acef4f5d5c4933bd5d992141a2b905602060243592a4005b506108fc6118ed565b506108fc6118d9565b60405162461bcd60e51b8152602060048201526013602482015272125b9cdd59999a58da595b9d08189d5919d95d606a1b6044820152606490fd5b60405162461bcd60e51b815260206004820152601b60248201527f496e76616c696420617070206f776e6572207369676e617475726500000000006044820152606490fd5b60405162461bcd60e51b815260206004820152601660248201527514995c1b185e48185d1d1858dac819195d1958dd195960521b6044820152606490fd5b60405162461bcd60e51b8152602060048201526013602482015272139bd919481b9bdd081c9959da5cdd195c9959606a1b6044820152606490fd5b60405162461bcd60e51b8152602060048201526011602482015270556e617574686f72697a6564206e6f646560781b6044820152606490fd5b60405162461bcd60e51b815260206004820152600f60248201526e5375626e657420696e61637469766560881b6044820152606490fd5b611abb91503d806000833e61143d8183611b5e565b83611568565b60405162461bcd60e51b8152602060048201526014602482015273105c1c08189d5919d95d08195e1a185d5cdd195960621b6044820152606490fd5b506003546024351115611501565b61010081019081106001600160401b0382111761062557604052565b61026081019081106001600160401b0382111761062557604052565b604081019081106001600160401b0382111761062557604052565b90601f801991011681019081106001600160401b0382111761062557604052565b6001600160401b03811161062557601f01601f191660200190565b929192611ba682611b7f565b91611bb46040519384611b5e565b82948184528183011161019f578281602093846000960137010152565b604090600319011261019f576004359060243590565b60005b838110611bfa5750506000910152565b8181015183820152602001611bea565b90602091611c2381518092818552858086019101611be7565b601f01601f1916010190565b90611d2d91611c83611c71611c4d8351610260808752860190611c0a565b60018060a01b03602085015116602086015260408401518582036040870152611c0a565b60608301518482036060860152611c0a565b916080820151608082015260a082015160a082015260c082015160c082015260e082015160e0820152610100808301519082015261012080830151908201526101408083015190820152610160808301519082015261018080830151908201526101a080830151908201526101c080830151908201526101e08083015190820152610200808301519082015261022080830151908201526102408092015191818403910152611c0a565b90565b90600182811c92168015611d60575b6020831014611d4a57565b634e487b7160e01b600052602260045260246000fd5b91607f1691611d3f565b9060009291805491611d7b83611d30565b918282526001938481169081600014611ddd5750600114611d9d575b50505050565b90919394506000526020928360002092846000945b838610611dc9575050505001019038808080611d97565b805485870183015294019385908201611db2565b9294505050602093945060ff191683830152151560051b01019038808080611d97565b9080601f8301121561019f57816020611d2d93359101611b9a565b6002546001600160a01b03163303611e2f57565b60405163118cdaa760e01b8152336004820152602490fd5b6001600160401b0381116106255760051b60200190565b60ff8114611e9c5760ff811690601f8211611e8a5760405191611e8083611b43565b8252602082015290565b604051632cd44ac360e21b8152600490fd5b50604051600081815491611eaf83611d30565b80835292600190818116908115611f335750600114611ed6575b50611d2d92500382611b5e565b600080805291507f290decd9548b62a8d60345a988386fc84ba6bc95484008f6362f93160ef3e5635b848310611f185750611d2d935050810160200138611ec9565b81935090816020925483858901015201910190918492611eff565b905060209250611d2d94915060ff191682840152151560051b82010138611ec9565b60ff8114611f775760ff811690601f8211611e8a5760405191611e8083611b43565b50604051600081600191825492611f8d84611d30565b80845293818116908115611f335750600114611fb05750611d2d92500382611b5e565b600081815291507fb10e2d527612073b26eecdfd717e6a320cf44b4afac2b0732d9fcbe2b7fa0cf65b848310611ff25750611d2d935050810160200138611ec9565b81935090816020925483858901015201910190918492611fd9565b60001981146112345760010190565b1561202357565b60405162461bcd60e51b815260206004820152600e60248201526d125b9d985b1a5908105c1c08125160921b6044820152606490fd5b81601f8201121561019f57805161206f81611b7f565b9261207d6040519485611b5e565b8184526020828401011161019f57611d2d9160208085019101611be7565b60208183031261019f5780516001600160401b039182821161019f57019061014092838382031261019f576040519384018481108382111761062557604052825182811161019f57816120ef918501612059565b84526020838101519085015260408301516001600160a01b038116810361019f576040850152606083015182811161019f578161212d918501612059565b6060850152608083015191821161019f57612149918301612059565b608083015260a081015160a083015260c081015160c083015260e081015160e08301526101008082015190811515820361019f57830152610120809101519082015290565b9190820391821161123457565b9190820180921161123457565b8181029291811591840414171561123457565b81519190604183036121ec576121e592506020820151906060604084015193015160001a906121f7565b9192909190565b505060009160029190565b91907f7fffffffffffffffffffffffffffffff5d576e7357a4501ddfe92f46681b20a0841161227b57926020929160ff608095604051948552168484015260408301526060820152600092839182805260015afa1561226f5780516001600160a01b0381161561226657918190565b50809160019190565b604051903d90823e3d90fd5b50505060009160039190565b60048110156122f65780612299575050565b600181036122b35760405163f645eedf60e01b8152600490fd5b600281036122d45760405163fce698f760e01b815260048101839052602490fd5b6003146122de5750565b602490604051906335e2f38360e21b82526004820152fd5b634e487b7160e01b600052602160045260246000fd5b307f00000000000000000000000000000000000000000000000000000000000000006001600160a01b0316148061240d575b15612367577f000000000000000000000000000000000000000000000000000000000000000090565b60405160208101907f8b73c3c69bb8fe3d512ecc4cf759cc79239f7b179b0ffacaa9a75d522b39400f82527f000000000000000000000000000000000000000000000000000000000000000060408201527f000000000000000000000000000000000000000000000000000000000000000060608201524660808201523060a082015260a0815260c081018181106001600160401b038211176106255760405251902090565b507f0000000000000000000000000000000000000000000000000000000000000000461461233e565b6040519061244382611b27565b606061024083828152600080602083015283604083015283808301528060808301528060a08301528060c08301528060e08301528061010083015280610120830152806101408301528061016083015280610180830152806101a0830152806101c0830152806101e0830152806102008301526102208201520152565b80518210156124d45760209160051b010190565b634e487b7160e01b600052603260045260246000fd5b90601261024060409361260a85519161250283611b27565b6126038397805161251e816125178187611d6a565b0382611b5e565b855260018301546001600160a01b031660208601528051612546816125178160028801611d6a565b81860152805161255d816125178160038801611d6a565b606086015260048301546080860152600583015460a0860152600683015460c0860152600783015460e086015260088301546101008601526009830154610120860152600a830154610140860152600b830154610160860152600c830154610180860152600d8301546101a0860152600e8301546101c0860152600f8301546101e086015260108301546102008601526011830154610220860152518096819301611d6a565b0384611b5e565b0152565b1561261557565b60405162461bcd60e51b8152602060048201526012602482015271105c1c08191bd95cc81b9bdd08195e1a5cdd60721b6044820152606490fdfea264697066735822122096c32d0cd9427e470fed4ae0925ef05cb49fe2044713dcc36d03ce52dddb244d64736f6c63430008140033",
  "linkReferences": {},
  "deployedLinkReferences": {}
}