{
  "_format": "hh-sol-artifact-1",
  "contractName": "SubnetRegistry",
  "sourceName": "contracts/SubnetRegistry.sol",
  "abi": [
    {
      "inputs": [
        {
          "internalType": "address",
          "name": "initialOwner",
          "type": "address"
        },
        {
          "internalType": "address",
          "name": "_nftContract",
          "type": "address"
        },
        {
          "internalType": "uint256",
          "name": "_rewardPerSecond",
          "type": "uint256"
        }
      ],
      "stateMutability": "nonpayable",
      "type": "constructor"
    },
    {
      "inputs": [
        {
          "internalType": "address",
          "name": "owner",
          "type": "address"
        }
      ],
      "name": "OwnableInvalidOwner",
      "type": "error"
    },
    {
      "inputs": [
        {
          "internalType": "address",
          "name": "account",
          "type": "address"
        }
      ],
      "name": "OwnableUnauthorizedAccount",
      "type": "error"
    },
    {
      "anonymous": false,
      "inputs": [
        {
          "indexed": true,
          "internalType": "address",
          "name": "previousOwner",
          "type": "address"
        },
        {
          "indexed": true,
          "internalType": "address",
          "name": "newOwner",
          "type": "address"
        }
      ],
      "name": "OwnershipTransferred",
      "type": "event"
    },
    {
      "anonymous": false,
      "inputs": [
        {
          "indexed": true,
          "internalType": "uint256",
          "name": "subnetId",
          "type": "uint256"
        },
        {
          "indexed": true,
          "internalType": "address",
          "name": "owner",
          "type": "address"
        },
        {
          "indexed": false,
          "internalType": "string",
          "name": "peerAddr",
          "type": "string"
        },
        {
          "indexed": false,
          "internalType": "uint256",
          "name": "amount",
          "type": "uint256"
        }
      ],
      "name": "RewardClaimed",
      "type": "event"
    },
    {
      "anonymous": false,
      "inputs": [
        {
          "indexed": false,
          "internalType": "uint256",
          "name": "oldRewardPerSecond",
          "type": "uint256"
        },
        {
          "indexed": false,
          "internalType": "uint256",
          "name": "newRewardPerSecond",
          "type": "uint256"
        }
      ],
      "name": "RewardPerSecondUpdated",
      "type": "event"
    },
    {
      "anonymous": false,
      "inputs": [
        {
          "indexed": true,
          "internalType": "address",
          "name": "updater",
          "type": "address"
        }
      ],
      "name": "ScoreUpdaterAdded",
      "type": "event"
    },
    {
      "anonymous": false,
      "inputs": [
        {
          "indexed": true,
          "internalType": "address",
          "name": "updater",
          "type": "address"
        }
      ],
      "name": "ScoreUpdaterRemoved",
      "type": "event"
    },
    {
      "anonymous": false,
      "inputs": [
        {
          "indexed": true,
          "internalType": "uint256",
          "name": "subnetId",
          "type": "uint256"
        },
        {
          "indexed": true,
          "internalType": "address",
          "name": "owner",
          "type": "address"
        },
        {
          "indexed": false,
          "internalType": "string",
          "name": "peerAddr",
          "type": "string"
        },
        {
          "indexed": false,
          "internalType": "uint256",
          "name": "uptime",
          "type": "uint256"
        }
      ],
      "name": "SubnetDeregistered",
      "type": "event"
    },
    {
      "anonymous": false,
      "inputs": [
        {
          "indexed": true,
          "internalType": "uint256",
          "name": "subnetId",
          "type": "uint256"
        },
        {
          "indexed": true,
          "internalType": "address",
          "name": "owner",
          "type": "address"
        },
        {
          "indexed": false,
          "internalType": "uint256",
          "name": "nftId",
          "type": "uint256"
        },
        {
          "indexed": false,
          "internalType": "string",
          "name": "peerAddr",
          "type": "string"
        },
        {
          "indexed": false,
          "internalType": "string",
          "name": "metadata",
          "type": "string"
        }
      ],
      "name": "SubnetRegistered",
      "type": "event"
    },
    {
      "anonymous": false,
      "inputs": [
        {
          "indexed": true,
          "internalType": "uint256",
          "name": "subnetId",
          "type": "uint256"
        },
        {
          "indexed": false,
          "internalType": "uint256",
          "name": "newScore",
          "type": "uint256"
        }
      ],
      "name": "TrustScoreUpdated",
      "type": "event"
    },
    {
      "inputs": [],
      "name": "DEFAULT_TRUST_SCORE",
      "outputs": [
        {
          "internalType": "uint256",
          "name": "",
          "type": "uint256"
        }
      ],
      "stateMutability": "view",
      "type": "function"
    },
    {
      "inputs": [
        {
          "internalType": "address",
          "name": "updater",
          "type": "address"
        }
      ],
      "name": "addScoreUpdater",
      "outputs": [],
      "stateMutability": "nonpayable",
      "type": "function"
    },
    {
      "inputs": [
        {
          "internalType": "uint256",
          "name": "subnetId",
          "type": "uint256"
        },
        {
          "internalType": "uint256",
          "name": "totalUptime",
          "type": "uint256"
        },
        {
          "internalType": "bytes32[]",
          "name": "proof",
          "type": "bytes32[]"
        }
      ],
      "name": "claimReward",
      "outputs": [],
      "stateMutability": "nonpayable",
      "type": "function"
    },
    {
      "inputs": [
        {
          "internalType": "uint256",
          "name": "subnetId",
          "type": "uint256"
        },
        {
          "internalType": "uint256",
          "name": "points",
          "type": "uint256"
        }
      ],
      "name": "decreaseTrustScore",
      "outputs": [],
      "stateMutability": "nonpayable",
      "type": "function"
    },
    {
      "inputs": [],
      "name": "deposit",
      "outputs": [],
      "stateMutability": "payable",
      "type": "function"
    },
    {
      "inputs": [
        {
          "internalType": "uint256",
          "name": "subnetId",
          "type": "uint256"
        }
      ],
      "name": "deregisterSubnet",
      "outputs": [],
      "stateMutability": "nonpayable",
      "type": "function"
    },
    {
      "inputs": [
        {
          "internalType": "uint256",
          "name": "subnetId",
          "type": "uint256"
        }
      ],
      "name": "getSubnet",
      "outputs": [
        {
          "components": [
            {
              "internalType": "string",
              "name": "name",
              "type": "string"
            },
            {
              "internalType": "uint256",
              "name": "nftId",
              "type": "uint256"
            },
            {
              "internalType": "address",
              "name": "owner",
              "type": "address"
            },
            {
              "internalType": "string",
              "name": "peerAddr",
              "type": "string"
            },
            {
              "internalType": "string",
              "name": "metadata",
              "type": "string"
            },
            {
              "internalType": "uint256",
              "name": "startTime",
              "type": "uint256"
            },
            {
              "internalType": "uint256",
              "name": "totalUptime",
              "type": "uint256"
            },
            {
              "internalType": "uint256",
              "name": "claimedUptime",
              "type": "uint256"
            },
            {
              "internalType": "bool",
              "name": "active",
              "type": "bool"
            },
            {
              "internalType": "uint256",
              "name": "trustScores",
              "type": "uint256"
            }
          ],
          "internalType": "struct SubnetRegistry.Subnet",
          "name": "",
          "type": "tuple"
        }
      ],
      "stateMutability": "view",
      "type": "function"
    },
    {
      "inputs": [
        {
          "internalType": "uint256",
          "name": "subnetId",
          "type": "uint256"
        },
        {
          "internalType": "uint256",
          "name": "points",
          "type": "uint256"
        }
      ],
      "name": "increaseTrustScore",
      "outputs": [],
      "stateMutability": "nonpayable",
      "type": "function"
    },
    {
      "inputs": [],
      "name": "merkleRoot",
      "outputs": [
        {
          "internalType": "bytes32",
          "name": "",
          "type": "bytes32"
        }
      ],
      "stateMutability": "view",
      "type": "function"
    },
    {
      "inputs": [],
      "name": "nftContract",
      "outputs": [
        {
          "internalType": "address",
          "name": "",
          "type": "address"
        }
      ],
      "stateMutability": "view",
      "type": "function"
    },
    {
      "inputs": [],
      "name": "owner",
      "outputs": [
        {
          "internalType": "address",
          "name": "",
          "type": "address"
        }
      ],
      "stateMutability": "view",
      "type": "function"
    },
    {
      "inputs": [
        {
          "internalType": "string",
          "name": "",
          "type": "string"
        }
      ],
      "name": "peerToSubnet",
      "outputs": [
        {
          "internalType": "uint256",
          "name": "",
          "type": "uint256"
        }
      ],
      "stateMutability": "view",
      "type": "function"
    },
    {
      "inputs": [
        {
          "internalType": "uint256",
          "name": "nftId",
          "type": "uint256"
        },
        {
          "internalType": "string",
          "name": "peerAddr",
          "type": "string"
        },
        {
          "internalType": "string",
          "name": "name",
          "type": "string"
        },
        {
          "internalType": "string",
          "name": "metadata",
          "type": "string"
        }
      ],
      "name": "registerSubnet",
      "outputs": [],
      "stateMutability": "nonpayable",
      "type": "function"
    },
    {
      "inputs": [
        {
          "internalType": "address",
          "name": "updater",
          "type": "address"
        }
      ],
      "name": "removeScoreUpdater",
      "outputs": [],
      "stateMutability": "nonpayable",
      "type": "function"
    },
    {
      "inputs": [],
      "name": "renounceOwnership",
      "outputs": [],
      "stateMutability": "nonpayable",
      "type": "function"
    },
    {
      "inputs": [],
      "name": "rewardPerSecond",
      "outputs": [
        {
          "internalType": "uint256",
          "name": "",
          "type": "uint256"
        }
      ],
      "stateMutability": "view",
      "type": "function"
    },
    {
      "inputs": [
        {
          "internalType": "address",
          "name": "",
          "type": "address"
        }
      ],
      "name": "scoreUpdaters",
      "outputs": [
        {
          "internalType": "bool",
          "name": "",
          "type": "bool"
        }
      ],
      "stateMutability": "view",
      "type": "function"
    },
    {
      "inputs": [],
      "name": "subnetCounter",
      "outputs": [
        {
          "internalType": "uint256",
          "name": "",
          "type": "uint256"
        }
      ],
      "stateMutability": "view",
      "type": "function"
    },
    {
      "inputs": [
        {
          "internalType": "uint256",
          "name": "",
          "type": "uint256"
        }
      ],
      "name": "subnets",
      "outputs": [
        {
          "internalType": "string",
          "name": "name",
          "type": "string"
        },
        {
          "internalType": "uint256",
          "name": "nftId",
          "type": "uint256"
        },
        {
          "internalType": "address",
          "name": "owner",
          "type": "address"
        },
        {
          "internalType": "string",
          "name": "peerAddr",
          "type": "string"
        },
        {
          "internalType": "string",
          "name": "metadata",
          "type": "string"
        },
        {
          "internalType": "uint256",
          "name": "startTime",
          "type": "uint256"
        },
        {
          "internalType": "uint256",
          "name": "totalUptime",
          "type": "uint256"
        },
        {
          "internalType": "uint256",
          "name": "claimedUptime",
          "type": "uint256"
        },
        {
          "internalType": "bool",
          "name": "active",
          "type": "bool"
        },
        {
          "internalType": "uint256",
          "name": "trustScores",
          "type": "uint256"
        }
      ],
      "stateMutability": "view",
      "type": "function"
    },
    {
      "inputs": [
        {
          "internalType": "address",
          "name": "newOwner",
          "type": "address"
        }
      ],
      "name": "transferOwnership",
      "outputs": [],
      "stateMutability": "nonpayable",
      "type": "function"
    },
    {
      "inputs": [
        {
          "internalType": "bytes32",
          "name": "_merkleRoot",
          "type": "bytes32"
        }
      ],
      "name": "updateMerkleRoot",
      "outputs": [],
      "stateMutability": "nonpayable",
      "type": "function"
    },
    {
      "inputs": [
        {
          "internalType": "uint256",
          "name": "_rewardPerSecond",
          "type": "uint256"
        }
      ],
      "name": "updateRewardPerSecond",
      "outputs": [],
      "stateMutability": "nonpayable",
      "type": "function"
    }
  ],
  "bytecode": "0x60a0346200018f57601f62001c0f38819003918201601f191683019291906001600160401b03841183851017620001945781606092849260409687528339810103126200018f576200005181620001aa565b90826200006160208301620001aa565b910151916001600160a01b039081169081156200017757600080546001600160a01b031981168417825586519391908316907f8be0079c531659141344cd1fd0a4f28419497f9722a3daafe3b4186f6b6457e09080a38216156200013557508115620000f25760805260015551611a4f9081620001c082396080518181816102c8015281816109f8015261152b0152f35b6064835162461bcd60e51b815260206004820152602060248201527f526577617264206d7573742062652067726561746572207468616e207a65726f6044820152fd5b62461bcd60e51b815260206004820152601c60248201527f496e76616c6964204e465420636f6e74726163742061646472657373000000006044820152606490fd5b8451631e4fbdf760e01b815260006004820152602490fd5b600080fd5b634e487b7160e01b600052604160045260246000fd5b51906001600160a01b03821682036200018f5756fe608080604052600436101561001357600080fd5b600090813560e01c9081630cf02c5e146114ca575080631b2f926e146114ac5780632eb4a7ab1461148e5780633416aca0146113ca578063354f63f4146113ac5780634004c8e71461130b578063475726f71461122b5780634783f0ef1461120857806358ca75041461104e5780635ef791f71461094c578063715018a6146108f2578063867951d8146108b05780638da5cb5b146108895780638f10369a1461086b5780639821f5f2146104e8578063d05eff8314610446578063d0e30db0146103f6578063d2ef5b4e14610354578063d52a45f1146102f7578063d56d229d146102b2578063dc3812a2146101ab5763f2fde38b1461011357600080fd5b346101a85760203660031901126101a8576004356001600160a01b03818116918290036101a45761014261187e565b811561018b57600054826bffffffffffffffffffffffff60a01b821617600055167f8be0079c531659141344cd1fd0a4f28419497f9722a3daafe3b4186f6b6457e0600080a380f35b604051631e4fbdf760e01b815260048101849052602490fd5b8280fd5b80fd5b50346101a85760203660031901126101a8576004356001600160a01b038116908190036102ae576101da61187e565b801561027757808252600660205260ff60408320541661023257808252600660205260408220805460ff191660011790557fad25f623e98acc6298062eb2e16242b2bc20e36bfc9c10ab8130c5e01aa0e1a08280a280f35b60405162461bcd60e51b815260206004820152601d60248201527f4164647265737320697320616c726561647920616e20757064617465720000006044820152606490fd5b60405162461bcd60e51b815260206004820152600f60248201526e496e76616c6964206164647265737360881b6044820152606490fd5b5080fd5b50346101a857806003193601126101a8576040517f00000000000000000000000000000000000000000000000000000000000000006001600160a01b03168152602090f35b50346101a85760203660031901126101a857600435906001600160401b0382116101a85760206103418161032e366004870161181c565b81604051938285809451938492016117b9565b8101600581520301902054604051908152f35b50346101a85760207f20d456995c74d5114f87879b10c5214b9c28e11ea422eeb922cc2e755095669f61038636611868565b929092338552600682526103a060ff60408720541661197d565b83855260048252604085206002810154600991906103c8906001600160a01b031615156119d5565b0180549091808211156103ec576103de91611970565b80915b55604051908152a280f35b50508480916103e1565b50806003193601126101a857341561040b5780f35b60405162461bcd60e51b81526020600482015260136024820152724d757374206465706f73697420746f6b656e7360681b6044820152606490fd5b50346101a85761045536611868565b338352600660205261046d60ff60408520541661197d565b818352600460205260408320600281015460099190610496906001600160a01b031615156119d5565b0180549182018092116104d457817f20d456995c74d5114f87879b10c5214b9c28e11ea422eeb922cc2e755095669f9260209255604051908152a280f35b634e487b7160e01b84526011600452602484fd5b50346101a85760603660031901126101a8576001600160401b03604435116101a8573660236044350112156101a8576001600160401b0360443560040135116101a8573660246044356004013560051b6044350101116101a8576004358152600460205260408120600781015480602435111561082d5760405160043560208201526024356040820152604081528060608101106001600160401b036060830111176108175760608101604052805160208201206080820152602060608201526060810160a08201106001600160401b0360a0830111176108175760a081016040526060810151608082012092600354936105f260206044356004013560051b0160a085016116f2565b604435600481013560a085015260240160c084015b60246044356004013560051b604435010182106108075750509285935b60a08401518510156106705760c08560051b850101519081811060001461065e578752602052610658604087205b946118aa565b93610624565b90875260205261065860408720610652565b86935085036107cb5761068590602435611970565b90600154918281029281840414901517156107b7578147106107725760243560078201556002810160018060a01b03908480808087868654165af13d1561076d573d6106d081611801565b906106de60405192836116f2565b81528660203d92013e5b1561072f577fec9aff1b12453a86c3a301e35a3077c89762449edc1330f20e4840903cbc06b3916107299154169360405191829160036004359601836118cf565b0390a380f35b60405162461bcd60e51b815260206004820152601660248201527514995dd85c99081d1c985b9cd9995c8819985a5b195960521b6044820152606490fd5b6106e8565b60405162461bcd60e51b815260206004820152601d60248201527f496e73756666696369656e7420636f6e74726163742062616c616e63650000006044820152606490fd5b634e487b7160e01b83526011600452602483fd5b60405162461bcd60e51b815260206004820152601460248201527324b73b30b634b21026b2b935b63290383937b7b360611b6044820152606490fd5b8135815260209182019101610607565b634e487b7160e01b600052604160045260246000fd5b60405162461bcd60e51b81526020600482015260166024820152754e6f206e657720757074696d6520746f20636c61696d60501b6044820152606490fd5b50346101a857806003193601126101a8576020600154604051908152f35b50346101a857806003193601126101a857546040516001600160a01b039091168152602090f35b50346101a85760203660031901126101a8576004356001600160a01b038116908190036102ae5760408260ff9260209452600684522054166040519015158152f35b50346101a857806003193601126101a85761090b61187e565b600080546001600160a01b0319811682556001600160a01b03167f8be0079c531659141344cd1fd0a4f28419497f9722a3daafe3b4186f6b6457e08280a380f35b50346101a85760803660031901126101a8576024356001600160401b0381116102ae5761097d90369060040161181c565b6044356001600160401b0381116101a45761099c90369060040161181c565b906064356001600160401b038111610f64576109bc90369060040161181c565b9160405160208184516109d281838589016117b9565b8101600581520301902054611009576040516331a9108f60e11b815260048035908201527f00000000000000000000000000000000000000000000000000000000000000006001600160a01b031690602081602481855afa908115610ffe578691610fb8575b50336001600160a01b0390911603610f73578085913b156102ae576040516323b872dd60e01b8152336004808301919091523060248301523560448201529082908290606490829084905af18015610f6857610f50575b5050610a9c6002546118aa565b8060025560405191610aad836116d6565b825260043560208301523360408301528260608301528360808301524260a08301528460c08301528460e08301526001610100830152620186a061012083015284526004602052604084209080518051906001600160401b038211610db1578190610b188554611689565b601f8111610f03575b50602090601f8311600114610e9a578892610e8f575b50508160011b916000199060031b1c19161782555b602081015160018301556002820160018060a01b036040830151166bffffffffffffffffffffffff60a01b82541617905560608101518051906001600160401b038211610db1578190610ba26003860154611689565b601f8111610e3f575b50602090601f8311600114610dd0578892610dc5575b50508160011b916000199060031b1c19161760038301555b60808101518051906001600160401b038211610db157610bfc6004850154611689565b601f8111610d6d575b50602090601f8311600114610cfa57918060099492610120948a92610cef575b50508160011b916000199060031b1c19161760048501555b60a0810151600585015560c0810151600685015560e0810151600785015560088401610100820151151560ff8019835416911617905501519101557fdcd3345995bfd9b7d91a439fa7f7c932121c850a92a64932c10cdce85db18316610ce060025492836040516020818451610cb681838589016117b9565b810160058152030190205561072960405192839260043584526060602085015260608401906117dc565b828103604084015233966117dc565b015190503880610c25565b906004850188526020882091885b601f1985168110610d55575092600994926001926101209583601f19811610610d3c575b505050811b016004850155610c3d565b015160001960f88460031b161c19169055388080610d2c565b91926020600181928685015181550194019201610d08565b60048501885260208820601f840160051c810160208510610daa575b601f830160051c82018110610d9f575050610c05565b898155600101610d89565b5080610d89565b634e487b7160e01b87526041600452602487fd5b015190503880610bc1565b9250600385018852602088209088935b601f1984168510610e24576001945083601f19811610610e0b575b505050811b016003830155610bd9565b015160001960f88460031b161c19169055388080610dfb565b81810151835560209485019460019093019290910190610de0565b90915060038501885260208820601f840160051c810160208510610e88575b90849392915b601f830160051c82018110610e7a575050610bab565b8a8155859450600101610e64565b5080610e5e565b015190503880610b37565b9250848852602088209088935b601f1984168510610ee8576001945083601f19811610610ecf575b505050811b018255610b4c565b015160001960f88460031b161c19169055388080610ec2565b81810151835560209485019460019093019290910190610ea7565b90915084885260208820601f840160051c810160208510610f49575b90849392915b601f830160051c82018110610f3b575050610b21565b8a8155859450600101610f25565b5080610f1f565b610f59906116c3565b610f64578338610a8f565b8380fd5b6040513d84823e3d90fd5b60405162461bcd60e51b815260206004820152601b60248201527f43616c6c6572206973206e6f7420746865204e4654206f776e657200000000006044820152606490fd5b90506020813d602011610ff6575b81610fd3602093836116f2565b81010312610ff257516001600160a01b0381168103610ff25738610a38565b8580fd5b3d9150610fc6565b6040513d88823e3d90fd5b60405162461bcd60e51b815260206004820152601f60248201527f50656572206164647265737320616c72656164792072656769737465726564006044820152606490fd5b50346101a85760203660031901126101a857806040916101208351611072816116d6565b606081528260208201528285820152606080820152606060808201528260a08201528260c08201528260e082015282610100820152015260043581526004602052206009604051916110c3836116d6565b6110cc81611713565b83526001810154602084015260028101546001600160a01b031660408401526110f760038201611713565b606084015261110860048201611713565b6080840152600581015460a0840152600681015460c0840152600781015460e0840152600881015460ff1615156101008401520154610120820152604081015161115c906001600160a01b031615156119d5565b6040518091602082526101206111d0611183835161014060208701526101608601906117dc565b6020840151604086015260018060a01b0360408501511660608601526111bb606085015191601f1992838883030160808901526117dc565b906080850151908683030160a08701526117dc565b9160a081015160c085015260c081015160e085015260e081015161010085015261010081015115158285015201516101408301520390f35b50346101a85760203660031901126101a85761122261187e565b60043560035580f35b50346101a85760203660031901126101a85760406112c391600435815260046020522061125781611713565b60018201546002830154919290916001600160a01b03169061127b60038201611713565b61128760048301611713565b936112e96005840154956112db600686015493600787015495600960ff60088a015416980154986040519c8d9c8d6101409081815201906117dc565b9260208d015260408c01528a820360608c01526117dc565b9088820360808a01526117dc565b9460a087015260c086015260e085015215156101008401526101208301520390f35b50346101a85760203660031901126101a85760043561132861187e565b80156113685760407fad9b65d94abd7b01bc5e6f82634fc2860427247e02b5b06e1fefc524c6af512f91600154908060015582519182526020820152a180f35b606460405162461bcd60e51b815260206004820152602060248201527f526577617264206d7573742062652067726561746572207468616e207a65726f6044820152fd5b50346101a857806003193601126101a8576020604051620186a08152f35b50346101a85760203660031901126101a8576004356001600160a01b038116908190036102ae576113f961187e565b808252600660205260ff6040832054161561144957808252600660205260408220805460ff191690557f54a65354214bb79aabb3de61c730235696f4bac79de915936d30a3bb6eef36dc8280a280f35b60405162461bcd60e51b815260206004820152601960248201527f41646472657373206973206e6f7420616e2075706461746572000000000000006044820152606490fd5b50346101a857806003193601126101a8576020600354604051908152f35b50346101a857806003193601126101a8576020600254604051908152f35b9050346102ae5760203660031901126102ae5760043580835260046020526040832091600883019081549060ff82161561165057506002840180546001600160a01b03939192908416919033830361160b5760ff19169055600185015486907f00000000000000000000000000000000000000000000000000000000000000008516803b156101a4576040516323b872dd60e01b81523060048201526001600160a01b0394909416602485015260448401919091528290606490829084905af18015610ffe576115d3575b507f80718449865340bb37807ea694c29d58331a6b00108db801731c5b7e97c9945491600391541693610729600682015460405193849301836118cf565b91600391956116027f80718449865340bb37807ea694c29d58331a6b00108db801731c5b7e97c99454946116c3565b95915091611595565b60405162461bcd60e51b815260206004820152601760248201527f43616c6c6572206973206e6f7420746865206f776e65720000000000000000006044820152606490fd5b62461bcd60e51b81526020600482015260146024820152735375626e6574206973206e6f742061637469766560601b6044820152606490fd5b90600182811c921680156116b9575b60208310146116a357565b634e487b7160e01b600052602260045260246000fd5b91607f1691611698565b6001600160401b03811161081757604052565b61014081019081106001600160401b0382111761081757604052565b90601f801991011681019081106001600160401b0382111761081757604052565b906040519182600082549261172784611689565b9081845260019485811690816000146117965750600114611753575b5050611751925003836116f2565b565b9093915060005260209081600020936000915b81831061177e57505061175193508201013880611743565b85548884018501529485019487945091830191611766565b91505061175194506020925060ff191682840152151560051b8201013880611743565b60005b8381106117cc5750506000910152565b81810151838201526020016117bc565b906020916117f5815180928185528580860191016117b9565b601f01601f1916010190565b6001600160401b03811161081757601f01601f191660200190565b81601f820112156118635780359061183382611801565b9261184160405194856116f2565b8284526020838301011161186357816000926020809301838601378301015290565b600080fd5b6040906003190112611863576004359060243590565b6000546001600160a01b0316330361189257565b60405163118cdaa760e01b8152336004820152602490fd5b60001981146118b95760010190565b634e487b7160e01b600052601160045260246000fd5b92919060408452600081546118e381611689565b92836040880152600191828116908160001461194d575060011461190d575b505060209150930152565b90929150600052602080600020926000935b838510611939575050505060606020918501013880611902565b80548886016060015293820193810161191f565b91505060609250602093915060ff191682870152151560051b8501013880611902565b919082039182116118b957565b1561198457565b60405162461bcd60e51b815260206004820152602360248201527f43616c6c6572206973206e6f7420616e20617574686f72697a656420757064616044820152623a32b960e91b6064820152608490fd5b156119dc57565b60405162461bcd60e51b815260206004820152601560248201527414dd589b995d08191bd95cc81b9bdd08195e1a5cdd605a1b6044820152606490fdfea264697066735822122091b886348ebfefae765f7eff62faed3576ba035b0ed39ec60d059eb080df509264736f6c63430008140033",
  "linkReferences": {},
  "deployedLinkReferences": {}
}