{
  "_format": "hh-sol-artifact-1",
  "contractName": "SubnetStakingPoolFactory",
  "sourceName": "contracts/SubnetStakingPoolFactory.sol",
  "abi": [
    {
      "inputs": [
        {
          "internalType": "address",
          "name": "initialOwner",
          "type": "address"
        }
      ],
      "stateMutability": "nonpayable",
      "type": "constructor"
    },
    {
      "inputs": [
        {
          "internalType": "address",
          "name": "owner",
          "type": "address"
        }
      ],
      "name": "OwnableInvalidOwner",
      "type": "error"
    },
    {
      "inputs": [
        {
          "internalType": "address",
          "name": "account",
          "type": "address"
        }
      ],
      "name": "OwnableUnauthorizedAccount",
      "type": "error"
    },
    {
      "anonymous": false,
      "inputs": [
        {
          "indexed": true,
          "internalType": "address",
          "name": "previousOwner",
          "type": "address"
        },
        {
          "indexed": true,
          "internalType": "address",
          "name": "newOwner",
          "type": "address"
        }
      ],
      "name": "OwnershipTransferred",
      "type": "event"
    },
    {
      "anonymous": false,
      "inputs": [
        {
          "indexed": true,
          "internalType": "address",
          "name": "stakingToken",
          "type": "address"
        },
        {
          "indexed": true,
          "internalType": "address",
          "name": "rewardToken",
          "type": "address"
        },
        {
          "indexed": false,
          "internalType": "address",
          "name": "poolAddress",
          "type": "address"
        }
      ],
      "name": "PoolCreated",
      "type": "event"
    },
    {
      "inputs": [
        {
          "internalType": "uint256",
          "name": "",
          "type": "uint256"
        }
      ],
      "name": "allPools",
      "outputs": [
        {
          "internalType": "address",
          "name": "",
          "type": "address"
        }
      ],
      "stateMutability": "view",
      "type": "function"
    },
    {
      "inputs": [
        {
          "internalType": "contract IERC20",
          "name": "stakingToken",
          "type": "address"
        },
        {
          "internalType": "contract IERC20",
          "name": "rewardToken",
          "type": "address"
        },
        {
          "internalType": "uint256",
          "name": "rewardRatePerSecond",
          "type": "uint256"
        },
        {
          "internalType": "uint256",
          "name": "startTime",
          "type": "uint256"
        },
        {
          "internalType": "uint256",
          "name": "endTime",
          "type": "uint256"
        }
      ],
      "name": "createPool",
      "outputs": [
        {
          "internalType": "address",
          "name": "",
          "type": "address"
        }
      ],
      "stateMutability": "nonpayable",
      "type": "function"
    },
    {
      "inputs": [
        {
          "internalType": "uint256",
          "name": "index",
          "type": "uint256"
        }
      ],
      "name": "getPool",
      "outputs": [
        {
          "internalType": "address",
          "name": "",
          "type": "address"
        }
      ],
      "stateMutability": "view",
      "type": "function"
    },
    {
      "inputs": [],
      "name": "getPoolCount",
      "outputs": [
        {
          "internalType": "uint256",
          "name": "",
          "type": "uint256"
        }
      ],
      "stateMutability": "view",
      "type": "function"
    },
    {
      "inputs": [],
      "name": "owner",
      "outputs": [
        {
          "internalType": "address",
          "name": "",
          "type": "address"
        }
      ],
      "stateMutability": "view",
      "type": "function"
    },
    {
      "inputs": [],
      "name": "renounceOwnership",
      "outputs": [],
      "stateMutability": "nonpayable",
      "type": "function"
    },
    {
      "inputs": [
        {
          "internalType": "address",
          "name": "newOwner",
          "type": "address"
        }
      ],
      "name": "transferOwnership",
      "outputs": [],
      "stateMutability": "nonpayable",
      "type": "function"
    }
  ],
  "bytecode": "0x6080346100bb57601f6114ec38819003918201601f19168301916001600160401b038311848410176100c0578084926020946040528339810103126100bb57516001600160a01b0390818116908190036100bb5780156100a257600080546001600160a01b03198116831782556040519316907f8be0079c531659141344cd1fd0a4f28419497f9722a3daafe3b4186f6b6457e09080a361141590816100d78239f35b604051631e4fbdf760e01b815260006004820152602490fd5b600080fd5b634e487b7160e01b600052604160045260246000fdfe6080604052600436101561001257600080fd5b6000803560e01c908163068bcd8d1461008a5750806341d1de9714610085578063715018a61461008057806385ac165a1461007b5780638da5cb5b146100765780638eec5d70146100715763f2fde38b1461006c57600080fd5b6103f7565b6103d9565b6103b0565b6101e3565b610177565b610117565b3461011457602036600319011261011457600435906001548210156100e657600190527fb10e2d527612073b26eecdfd717e6a320cf44b4afac2b0732d9fcbe2b7fa0cf601546001600160a01b0316608052607f1960a0016080f35b62461bcd60e51b6080526020608452600d60a4526c092dcecc2d8d2c840d2dcc8caf609b1b60c45260646080fd5b80fd5b34610172576020366003190112610172576004356001548110156101725760016000527fb10e2d527612073b26eecdfd717e6a320cf44b4afac2b0732d9fcbe2b7fa0cf601546040516001600160a01b039091168152602090f35b600080fd5b346101725760008060031936011261011457610191610483565b80546001600160a01b03198116825581906001600160a01b03167f8be0079c531659141344cd1fd0a4f28419497f9722a3daafe3b4186f6b6457e08280a380f35b6001600160a01b0381160361017257565b346101725760a036600319011261017257600435610200816101d2565b60243561020c816101d2565b604435606435906103386103448260843595610226610483565b6001600160a01b038881169861031e91610312906102458c15156104af565b8416996102538b15156104fb565b61025e8a8211610547565b60405160608d811b6bffffffffffffffffffffffff1990811660208401908152918e901b1660348301526048820197909752606881018b905260888082018390528152601f1996906102b160a8826105b3565b51902099610d4b996102c560208c016105da565b9a808c5261069560208d01396040519687953360208801929160a094919796959260c0850198600180881b0392838092168752166020860152166040840152606083015260808201520152565b038381018352826105b3565b6040519384916103326020840180986105ea565b906105ea565b039081018352826105b3565b51906000f5908115610172576103ac9261035d83610615565b6040516001600160a01b03841681527f9c5d829b9b23efc461f9aeef91979ec04bb903feb3bee4f26d22114abfc7335b90602090a36040516001600160a01b0390911681529081906020820190565b0390f35b34610172576000366003190112610172576000546040516001600160a01b039091168152602090f35b34610172576000366003190112610172576020600154604051908152f35b3461017257602036600319011261017257600435610414816101d2565b61041c610483565b6001600160a01b03908116801561046a57600080546001600160a01b03198116831782559092167f8be0079c531659141344cd1fd0a4f28419497f9722a3daafe3b4186f6b6457e08380a380f35b604051631e4fbdf760e01b815260006004820152602490fd5b6000546001600160a01b0316330361049757565b60405163118cdaa760e01b8152336004820152602490fd5b156104b657565b60405162461bcd60e51b815260206004820152601d60248201527f496e76616c6964207374616b696e6720746f6b656e20616464726573730000006044820152606490fd5b1561050257565b60405162461bcd60e51b815260206004820152601c60248201527f496e76616c69642072657761726420746f6b656e2061646472657373000000006044820152606490fd5b1561054e57565b60405162461bcd60e51b815260206004820152602160248201527f456e642074696d65206d7573742062652061667465722073746172742074696d6044820152606560f81b6064820152608490fd5b634e487b7160e01b600052604160045260246000fd5b90601f8019910116810190811067ffffffffffffffff8211176105d557604052565b61059d565b906105e860405192836105b3565b565b9081519160005b838110610602575050016000815290565b80602080928401015181850152016105f1565b600154680100000000000000008110156105d557600181018060015581101561067e5760016000527fb10e2d527612073b26eecdfd717e6a320cf44b4afac2b0732d9fcbe2b7fa0cf60180546001600160a01b0319166001600160a01b03909216919091179055565b634e487b7160e01b600052603260045260246000fdfe60c060409080825234620002015760808162000d4b803803809162000025828562000206565b833981010312620002015780516001600160a01b03908181169081900362000201576020916200005783850162000240565b60606200006687870162000240565b950151948315620001e957829185936004926000988954938860018060a01b03198616178b558b519889978896167f8be0079c531659141344cd1fd0a4f28419497f9722a3daafe3b4186f6b6457e08d80a360805260a08290526001554260035563313ce56760e01b8352165afa8015620001df5783906200019c575b60ff91501690601e821015620001595750601e0390601e82116200014557604d8211620001455750600a0a60055551610af5908162000256823960805181818161050c0152818161067d01526107c9015260a05181818160fb01526102710152f35b634e487b7160e01b81526011600452602490fd5b60649084519062461bcd60e51b82526004820152601660248201527f4d75737420626520696e666572696f7220746f203330000000000000000000006044820152fd5b508181813d8311620001d7575b620001b5818362000206565b81010312620001d3575160ff81168103620001d35760ff90620000e3565b8280fd5b503d620001a9565b84513d85823e3d90fd5b8651631e4fbdf760e01b815260006004820152602490fd5b600080fd5b601f909101601f19168101906001600160401b038211908210176200022a57604052565b634e487b7160e01b600052604160045260246000fd5b51906001600160a01b0382168203620002015756fe6040608081526004908136101561001557600080fd5b600091823560e01c9081628cc262146108ff5781630660f1e8146108c55781632e1a7d4d146107285781635d773b2c14610709578163715018a6146106ac57816372f702f314610668578163817b1cd2146106495781638b8763471461060f5781638da5cb5b146105e75781639231cf74146105c8578163a694fc3a1461048b578163acc3a93914610451578163b88a802f14610222578163ccd34cd514610203578163cd3daf9d146101df578163df136d65146101c1578163f2fde38b1461012e575063f7c618c1146100e857600080fd5b3461012a578160031936011261012a57517f00000000000000000000000000000000000000000000000000000000000000006001600160a01b03168152602090f35b5080fd5b919050346101bd5760203660031901126101bd576001600160a01b038235818116939192908490036101b957610162610930565b83156101a357505082546001600160a01b0319811683178455167f8be0079c531659141344cd1fd0a4f28419497f9722a3daafe3b4186f6b6457e08380a380f35b51631e4fbdf760e01b8152908101849052602490fd5b8480fd5b8280fd5b9050346101bd57826003193601126101bd5760209250549051908152f35b50503461012a578160031936011261012a576020906101fc6109bf565b9051908152f35b50503461012a578160031936011261012a576020906005549051908152f35b919050346101bd57826003193601126101bd5761023d6109bf565b8255426003553361042c575b33835260209060088252808420549283156103f55781516370a0823160e01b815230818301527f00000000000000000000000000000000000000000000000000000000000000006001600160a01b031691908481602481865afa9081156103eb5790869188916103b6575b5010610369573380875260088552838720879055835163a9059cbb60e01b8152918201908152602081018690529094939291839186919082908990829060400103925af193841561035f577f106f923f993c2149d49b4255ff723acafa1f2d94393f561d3eda32ae348f72419394610332575b50519283523392a280f35b61035190833d8511610358575b6103498183610a6a565b810190610aa2565b5038610327565b503d61033f565b81513d87823e3d90fd5b825162461bcd60e51b8152908101849052602160248201527f496e73756666696369656e742072657761726420746f6b656e2062616c616e636044820152606560f81b6064820152608490fd5b809250868092503d83116103e4575b6103cf8183610a6a565b810103126103e057859051386102b4565b8680fd5b503d6103c5565b84513d89823e3d90fd5b82606492519162461bcd60e51b835282015260136024820152724e6f207265776172647320746f20636c61696d60681b6044820152fd5b61043533610a0c565b3384526008602052818420558154600760205281842055610249565b9050346101bd5760203660031901126101bd57356001600160a01b038116908190036101bd57828291602094526006845220549051908152f35b919050346101bd576020806003193601126105c4578235916104ab6109bf565b845542600355336105a1575b821561056f576104c9836002546109b2565b600255338552600682528085206104e18482546109b2565b905580516323b872dd60e01b81523394810194909452306024850152604484018390528184606481887f00000000000000000000000000000000000000000000000000000000000000006001600160a01b03165af193841561035f577f9e71bc8eea02a63969f509818f2dafb9254532904319f9dbda79b67bd34a5f3d93946103325750519283523392a280f35b5162461bcd60e51b81529283015250600e60248201526d043616e6e6f74207374616b6520360941b6044820152606490fd5b6105aa33610a0c565b3386526008835281862055835460078352818620556104b7565b8380fd5b50503461012a578160031936011261012a576020906003549051908152f35b50503461012a578160031936011261012a57905490516001600160a01b039091168152602090f35b9050346101bd5760203660031901126101bd57356001600160a01b038116908190036101bd57828291602094526007845220549051908152f35b50503461012a578160031936011261012a576020906002549051908152f35b50503461012a578160031936011261012a57517f00000000000000000000000000000000000000000000000000000000000000006001600160a01b03168152602090f35b83346107065780600319360112610706576106c5610930565b80546001600160a01b03198116825581906001600160a01b03167f8be0079c531659141344cd1fd0a4f28419497f9722a3daafe3b4186f6b6457e08280a380f35b80fd5b50503461012a578160031936011261012a576020906001549051908152f35b919050346101bd57602090816003193601126105c4578235926107496109bf565b815542600355336108a2575b831561086d573385526006835283828620541061082c579082848094936107816107c49760025461095c565b6002553388526006835283882061079983825461095c565b9055835163a9059cbb60e01b8152339181019182526020820192909252909586918291604090910190565b0381887f00000000000000000000000000000000000000000000000000000000000000006001600160a01b03165af193841561035f577f7084f5476618d8e60b11ef0d7d3f06914655adb8793e28ff7f018d4c76d505d593946103325750519283523392a280f35b82606492519162461bcd60e51b8352820152601e60248201527f576974686472617720616d6f756e742065786365656473207374616b656400006044820152fd5b82606492519162461bcd60e51b83528201526011602482015270043616e6e6f74207769746864726177203607c1b6044820152fd5b6108ab33610a0c565b338652600884528286205580546007845282862055610755565b9050346101bd5760203660031901126101bd57356001600160a01b038116908190036101bd57828291602094526008845220549051908152f35b9050346101bd5760203660031901126101bd5735916001600160a01b038316830361070657506101fc602092610a0c565b6000546001600160a01b0316330361094457565b60405163118cdaa760e01b8152336004820152602490fd5b9190820391821161096957565b634e487b7160e01b600052601160045260246000fd5b8181029291811591840414171561096957565b811561099c570490565b634e487b7160e01b600052601260045260246000fd5b9190820180921161096957565b6002548015610a0557610a02906109fc600454916109f76109ee6109e56003544261095c565b6001549061097f565b6005549061097f565b610992565b906109b2565b90565b5060045490565b610a029060018060a01b0316604060008281526006602052610a5a610a5183832054610a4b610a396109bf565b8786526007602052868620549061095c565b9061097f565b60055490610992565b92815260086020522054906109b2565b90601f8019910116810190811067ffffffffffffffff821117610a8c57604052565b634e487b7160e01b600052604160045260246000fd5b90816020910312610aba57518015158103610aba5790565b600080fdfea26469706673582212201fd734ae5952287d78b87d55c53d89eaa5db79a2fa64d99708f07d403e87703464736f6c63430008140033a264697066735822122041afcc526dfbe677758d25fdd69dbfce6b53bdc5dc6424f7339eb5cc6a276b5364736f6c63430008140033",
  "linkReferences": {},
  "deployedLinkReferences": {}
}