{
  "contracts/SubnetClusterMarket.sol": {
    "SubnetClusterMarket": {
      "abi": [
        {
          "inputs": [
            {
              "internalType": "address",
              "name": "target",
              "type": "address"
            }
          ],
          "name": "AddressEmptyCode",
          "type": "error"
        },
        {
          "inputs": [
            {
              "internalType": "address",
              "name": "account",
              "type": "address"
            }
          ],
          "name": "AddressInsufficientBalance",
          "type": "error"
        },
        {
          "inputs": [],
          "name": "FailedInnerCall",
          "type": "error"
        },
        {
          "inputs": [],
          "name": "InvalidInitialization",
          "type": "error"
        },
        {
          "inputs": [],
          "name": "NotInitializing",
          "type": "error"
        },
        {
          "inputs": [
            {
              "internalType": "address",
              "name": "owner",
              "type": "address"
            }
          ],
          "name": "OwnableInvalidOwner",
          "type": "error"
        },
        {
          "inputs": [
            {
              "internalType": "address",
              "name": "account",
              "type": "address"
            }
          ],
          "name": "OwnableUnauthorizedAccount",
          "type": "error"
        },
        {
          "inputs": [],
          "name": "ReentrancyGuardReentrantCall",
          "type": "error"
        },
        {
          "inputs": [
            {
              "internalType": "address",
              "name": "token",
              "type": "address"
            }
          ],
          "name": "SafeERC20FailedOperation",
          "type": "error"
        },
        {
          "anonymous": false,
          "inputs": [
            {
              "indexed": true,
              "internalType": "uint256",
              "name": "clusterId",
              "type": "uint256"
            }
          ],
          "name": "ClusterInactive",
          "type": "event"
        },
        {
          "anonymous": false,
          "inputs": [
            {
              "indexed": true,
              "internalType": "uint256",
              "name": "clusterId",
              "type": "uint256"
            },
            {
              "indexed": true,
              "internalType": "uint256",
              "name": "nodeIp",
              "type": "uint256"
            }
          ],
          "name": "ClusterNodeRemoved",
          "type": "event"
        },
        {
          "anonymous": false,
          "inputs": [
            {
              "indexed": true,
              "internalType": "uint256",
              "name": "clusterId",
              "type": "uint256"
            },
            {
              "indexed": false,
              "internalType": "uint256[]",
              "name": "newNodeIps",
              "type": "uint256[]"
            }
          ],
          "name": "ClusterNodesAdded",
          "type": "event"
        },
        {
          "anonymous": false,
          "inputs": [
            {
              "indexed": false,
              "internalType": "uint256",
              "name": "minDuration",
              "type": "uint256"
            },
            {
              "indexed": false,
              "internalType": "uint256",
              "name": "percent",
              "type": "uint256"
            }
          ],
          "name": "DiscountAdded",
          "type": "event"
        },
        {
          "anonymous": false,
          "inputs": [
            {
              "indexed": false,
              "internalType": "uint64",
              "name": "version",
              "type": "uint64"
            }
          ],
          "name": "Initialized",
          "type": "event"
        },
        {
          "anonymous": false,
          "inputs": [
            {
              "indexed": true,
              "internalType": "address",
              "name": "newOperator",
              "type": "address"
            }
          ],
          "name": "OperatorUpdated",
          "type": "event"
        },
        {
          "anonymous": false,
          "inputs": [
            {
              "indexed": true,
              "internalType": "uint256",
              "name": "orderId",
              "type": "uint256"
            },
            {
              "indexed": true,
              "internalType": "address",
              "name": "user",
              "type": "address"
            }
          ],
          "name": "OrderCanceled",
          "type": "event"
        },
        {
          "anonymous": false,
          "inputs": [
            {
              "indexed": true,
              "internalType": "uint256",
              "name": "orderId",
              "type": "uint256"
            }
          ],
          "name": "OrderConfirmed",
          "type": "event"
        },
        {
          "anonymous": false,
          "inputs": [
            {
              "indexed": true,
              "internalType": "uint256",
              "name": "orderId",
              "type": "uint256"
            },
            {
              "indexed": true,
              "internalType": "address",
              "name": "user",
              "type": "address"
            },
            {
              "indexed": false,
              "internalType": "uint256",
              "name": "price",
              "type": "uint256"
            },
            {
              "indexed": false,
              "internalType": "uint256",
              "name": "discountPrice",
              "type": "uint256"
            }
          ],
          "name": "OrderCreated",
          "type": "event"
        },
        {
          "anonymous": false,
          "inputs": [
            {
              "indexed": true,
              "internalType": "uint256",
              "name": "orderId",
              "type": "uint256"
            },
            {
              "indexed": false,
              "internalType": "uint256",
              "name": "additionalDuration",
              "type": "uint256"
            },
            {
              "indexed": false,
              "internalType": "uint256",
              "name": "additionalPrice",
              "type": "uint256"
            },
            {
              "indexed": false,
              "internalType": "uint256",
              "name": "discountPrice",
              "type": "uint256"
            }
          ],
          "name": "OrderExtended",
          "type": "event"
        },
        {
          "anonymous": false,
          "inputs": [
            {
              "indexed": true,
              "internalType": "uint256",
              "name": "orderId",
              "type": "uint256"
            },
            {
              "indexed": false,
              "internalType": "uint256",
              "name": "gpu",
              "type": "uint256"
            },
            {
              "indexed": false,
              "internalType": "uint256",
              "name": "cpu",
              "type": "uint256"
            },
            {
              "indexed": false,
              "internalType": "uint256",
              "name": "memoryBytes",
              "type": "uint256"
            },
            {
              "indexed": false,
              "internalType": "uint256",
              "name": "disk",
              "type": "uint256"
            },
            {
              "indexed": false,
              "internalType": "uint256",
              "name": "network",
              "type": "uint256"
            },
            {
              "indexed": false,
              "internalType": "uint256",
              "name": "totalPrice",
              "type": "uint256"
            },
            {
              "indexed": false,
              "internalType": "uint256",
              "name": "discountPrice",
              "type": "uint256"
            }
          ],
          "name": "OrderScaled",
          "type": "event"
        },
        {
          "anonymous": false,
          "inputs": [
            {
              "indexed": true,
              "internalType": "address",
              "name": "previousOwner",
              "type": "address"
            },
            {
              "indexed": true,
              "internalType": "address",
              "name": "newOwner",
              "type": "address"
            }
          ],
          "name": "OwnershipTransferred",
          "type": "event"
        },
        {
          "anonymous": false,
          "inputs": [
            {
              "indexed": false,
              "internalType": "uint256",
              "name": "gpu",
              "type": "uint256"
            },
            {
              "indexed": false,
              "internalType": "uint256",
              "name": "cpu",
              "type": "uint256"
            },
            {
              "indexed": false,
              "internalType": "uint256",
              "name": "memoryBytes",
              "type": "uint256"
            },
            {
              "indexed": false,
              "internalType": "uint256",
              "name": "disk",
              "type": "uint256"
            },
            {
              "indexed": false,
              "internalType": "uint256",
              "name": "network",
              "type": "uint256"
            }
          ],
          "name": "ResourcePriceUpdated",
          "type": "event"
        },
        {
          "inputs": [
            {
              "internalType": "uint256",
              "name": "minDuration",
              "type": "uint256"
            },
            {
              "internalType": "uint256",
              "name": "percent",
              "type": "uint256"
            }
          ],
          "name": "addDiscount",
          "outputs": [],
          "stateMutability": "nonpayable",
          "type": "function"
        },
        {
          "inputs": [
            {
              "internalType": "uint256",
              "name": "clusterId",
              "type": "uint256"
            },
            {
              "internalType": "uint256[]",
              "name": "newNodeIps",
              "type": "uint256[]"
            }
          ],
          "name": "addNodesToCluster",
          "outputs": [],
          "stateMutability": "nonpayable",
          "type": "function"
        },
        {
          "inputs": [
            {
              "internalType": "uint256",
              "name": "nodeIp1",
              "type": "uint256"
            },
            {
              "internalType": "uint256",
              "name": "nodeIp2",
              "type": "uint256"
            }
          ],
          "name": "areNodesInAnySameCluster",
          "outputs": [
            {
              "internalType": "bool",
              "name": "sameCluster",
              "type": "bool"
            }
          ],
          "stateMutability": "view",
          "type": "function"
        },
        {
          "inputs": [
            {
              "internalType": "uint256",
              "name": "orderId",
              "type": "uint256"
            }
          ],
          "name": "cancelOrder",
          "outputs": [],
          "stateMutability": "nonpayable",
          "type": "function"
        },
        {
          "inputs": [
            {
              "internalType": "uint256",
              "name": "",
              "type": "uint256"
            }
          ],
          "name": "clusters",
          "outputs": [
            {
              "internalType": "address",
              "name": "owner",
              "type": "address"
            },
            {
              "internalType": "uint256",
              "name": "orderId",
              "type": "uint256"
            },
            {
              "internalType": "bool",
              "name": "active",
              "type": "bool"
            },
            {
              "internalType": "uint256",
              "name": "expiration",
              "type": "uint256"
            },
            {
              "internalType": "address",
              "name": "renter",
              "type": "address"
            },
            {
              "internalType": "uint256",
              "name": "renterIp",
              "type": "uint256"
            },
            {
              "internalType": "uint256",
              "name": "ip",
              "type": "uint256"
            },
            {
              "internalType": "uint256",
              "name": "gpu",
              "type": "uint256"
            },
            {
              "internalType": "uint256",
              "name": "cpu",
              "type": "uint256"
            },
            {
              "internalType": "uint256",
              "name": "memoryBytes",
              "type": "uint256"
            },
            {
              "internalType": "uint256",
              "name": "disk",
              "type": "uint256"
            },
            {
              "internalType": "uint256",
              "name": "network",
              "type": "uint256"
            }
          ],
          "stateMutability": "view",
          "type": "function"
        },
        {
          "inputs": [
            {
              "internalType": "uint256",
              "name": "orderId",
              "type": "uint256"
            },
            {
              "internalType": "uint256[]",
              "name": "nodeIps",
              "type": "uint256[]"
            }
          ],
          "name": "confirmOrder",
          "outputs": [],
          "stateMutability": "nonpayable",
          "type": "function"
        },
        {
          "inputs": [
            {
              "internalType": "uint256",
              "name": "orderId",
              "type": "uint256"
            }
          ],
          "name": "confirmScaleOrder",
          "outputs": [],
          "stateMutability": "nonpayable",
          "type": "function"
        },
        {
          "inputs": [
            {
              "internalType": "uint256",
              "name": "ip",
              "type": "uint256"
            },
            {
              "internalType": "uint256",
              "name": "gpu",
              "type": "uint256"
            },
            {
              "internalType": "uint256",
              "name": "cpu",
              "type": "uint256"
            },
            {
              "internalType": "uint256",
              "name": "memoryBytes",
              "type": "uint256"
            },
            {
              "internalType": "uint256",
              "name": "disk",
              "type": "uint256"
            },
            {
              "internalType": "uint256",
              "name": "network",
              "type": "uint256"
            },
            {
              "internalType": "uint256",
              "name": "rentalDuration",
              "type": "uint256"
            },
            {
              "internalType": "uint256",
              "name": "maxPrice",
              "type": "uint256"
            }
          ],
          "name": "createOrder",
          "outputs": [],
          "stateMutability": "nonpayable",
          "type": "function"
        },
        {
          "inputs": [
            {
              "internalType": "uint256",
              "name": "",
              "type": "uint256"
            }
          ],
          "name": "discounts",
          "outputs": [
            {
              "internalType": "uint256",
              "name": "minDuration",
              "type": "uint256"
            },
            {
              "internalType": "uint256",
              "name": "percent",
              "type": "uint256"
            }
          ],
          "stateMutability": "view",
          "type": "function"
        },
        {
          "inputs": [
            {
              "internalType": "uint256",
              "name": "clusterId",
              "type": "uint256"
            },
            {
              "internalType": "uint256",
              "name": "additionalDuration",
              "type": "uint256"
            },
            {
              "internalType": "uint256",
              "name": "maxPrice",
              "type": "uint256"
            }
          ],
          "name": "extend",
          "outputs": [],
          "stateMutability": "nonpayable",
          "type": "function"
        },
        {
          "inputs": [
            {
              "internalType": "uint256",
              "name": "clusterId",
              "type": "uint256"
            }
          ],
          "name": "getCluster",
          "outputs": [
            {
              "components": [
                {
                  "internalType": "address",
                  "name": "owner",
                  "type": "address"
                },
                {
                  "internalType": "uint256",
                  "name": "orderId",
                  "type": "uint256"
                },
                {
                  "internalType": "uint256[]",
                  "name": "nodeIps",
                  "type": "uint256[]"
                },
                {
                  "internalType": "bool",
                  "name": "active",
                  "type": "bool"
                },
                {
                  "internalType": "uint256",
                  "name": "expiration",
                  "type": "uint256"
                },
                {
                  "internalType": "address",
                  "name": "renter",
                  "type": "address"
                },
                {
                  "internalType": "uint256",
                  "name": "renterIp",
                  "type": "uint256"
                },
                {
                  "internalType": "uint256",
                  "name": "ip",
                  "type": "uint256"
                },
                {
                  "internalType": "uint256",
                  "name": "gpu",
                  "type": "uint256"
                },
                {
                  "internalType": "uint256",
                  "name": "cpu",
                  "type": "uint256"
                },
                {
                  "internalType": "uint256",
                  "name": "memoryBytes",
                  "type": "uint256"
                },
                {
                  "internalType": "uint256",
                  "name": "disk",
                  "type": "uint256"
                },
                {
                  "internalType": "uint256",
                  "name": "network",
                  "type": "uint256"
                }
              ],
              "internalType": "struct SubnetClusterMarket.Cluster",
              "name": "",
              "type": "tuple"
            }
          ],
          "stateMutability": "view",
          "type": "function"
        },
        {
          "inputs": [
            {
              "internalType": "uint256",
              "name": "nodeIp",
              "type": "uint256"
            }
          ],
          "name": "getClustersOfNode",
          "outputs": [
            {
              "internalType": "uint256[]",
              "name": "clusterIds",
              "type": "uint256[]"
            }
          ],
          "stateMutability": "view",
          "type": "function"
        },
        {
          "inputs": [
            {
              "internalType": "uint256",
              "name": "rentalDuration",
              "type": "uint256"
            }
          ],
          "name": "getDiscountPercent",
          "outputs": [
            {
              "internalType": "uint256",
              "name": "",
              "type": "uint256"
            }
          ],
          "stateMutability": "view",
          "type": "function"
        },
        {
          "inputs": [
            {
              "internalType": "uint256[]",
              "name": "clusterIds",
              "type": "uint256[]"
            }
          ],
          "name": "inactiveExpiredClusters",
          "outputs": [],
          "stateMutability": "nonpayable",
          "type": "function"
        },
        {
          "inputs": [
            {
              "internalType": "address",
              "name": "_initialOwner",
              "type": "address"
            },
            {
              "internalType": "address",
              "name": "_operator",
              "type": "address"
            },
            {
              "internalType": "uint256",
              "name": "_gpuPrice",
              "type": "uint256"
            },
            {
              "internalType": "uint256",
              "name": "_cpuPrice",
              "type": "uint256"
            },
            {
              "internalType": "uint256",
              "name": "_memoryBytesPrice",
              "type": "uint256"
            },
            {
              "internalType": "uint256",
              "name": "_diskPrice",
              "type": "uint256"
            },
            {
              "internalType": "uint256",
              "name": "_networkPrice",
              "type": "uint256"
            }
          ],
          "name": "initialize",
          "outputs": [],
          "stateMutability": "nonpayable",
          "type": "function"
        },
        {
          "inputs": [],
          "name": "nextClusterId",
          "outputs": [
            {
              "internalType": "uint256",
              "name": "",
              "type": "uint256"
            }
          ],
          "stateMutability": "view",
          "type": "function"
        },
        {
          "inputs": [],
          "name": "nextOrderId",
          "outputs": [
            {
              "internalType": "uint256",
              "name": "",
              "type": "uint256"
            }
          ],
          "stateMutability": "view",
          "type": "function"
        },
        {
          "inputs": [
            {
              "internalType": "uint256",
              "name": "",
              "type": "uint256"
            },
            {
              "internalType": "uint256",
              "name": "",
              "type": "uint256"
            }
          ],
          "name": "nodeIpToClusterIds",
          "outputs": [
            {
              "internalType": "uint256",
              "name": "",
              "type": "uint256"
            }
          ],
          "stateMutability": "view",
          "type": "function"
        },
        {
          "inputs": [],
          "name": "operator",
          "outputs": [
            {
              "internalType": "address",
              "name": "",
              "type": "address"
            }
          ],
          "stateMutability": "view",
          "type": "function"
        },
        {
          "inputs": [
            {
              "internalType": "uint256",
              "name": "",
              "type": "uint256"
            }
          ],
          "name": "orders",
          "outputs": [
            {
              "internalType": "address",
              "name": "user",
              "type": "address"
            },
            {
              "internalType": "enum SubnetClusterMarket.OrderStatus",
              "name": "status",
              "type": "uint8"
            },
            {
              "internalType": "uint256",
              "name": "ip",
              "type": "uint256"
            },
            {
              "internalType": "uint256",
              "name": "gpu",
              "type": "uint256"
            },
            {
              "internalType": "uint256",
              "name": "cpu",
              "type": "uint256"
            },
            {
              "internalType": "uint256",
              "name": "memoryBytes",
              "type": "uint256"
            },
            {
              "internalType": "uint256",
              "name": "disk",
              "type": "uint256"
            },
            {
              "internalType": "uint256",
              "name": "network",
              "type": "uint256"
            },
            {
              "internalType": "uint256",
              "name": "rentalDuration",
              "type": "uint256"
            },
            {
              "internalType": "address",
              "name": "paymentToken",
              "type": "address"
            },
            {
              "internalType": "uint256",
              "name": "clusterId",
              "type": "uint256"
            },
            {
              "internalType": "uint256",
              "name": "paidAmount",
              "type": "uint256"
            },
            {
              "internalType": "uint256",
              "name": "discountAmount",
              "type": "uint256"
            },
            {
              "internalType": "enum SubnetClusterMarket.OrderType",
              "name": "orderType",
              "type": "uint8"
            }
          ],
          "stateMutability": "view",
          "type": "function"
        },
        {
          "inputs": [],
          "name": "owner",
          "outputs": [
            {
              "internalType": "address",
              "name": "",
              "type": "address"
            }
          ],
          "stateMutability": "view",
          "type": "function"
        },
        {
          "inputs": [],
          "name": "paymentToken",
          "outputs": [
            {
              "internalType": "address",
              "name": "",
              "type": "address"
            }
          ],
          "stateMutability": "view",
          "type": "function"
        },
        {
          "inputs": [
            {
              "internalType": "uint256",
              "name": "clusterId",
              "type": "uint256"
            },
            {
              "internalType": "uint256[]",
              "name": "nodeIps",
              "type": "uint256[]"
            }
          ],
          "name": "recreateCluster",
          "outputs": [],
          "stateMutability": "nonpayable",
          "type": "function"
        },
        {
          "inputs": [
            {
              "internalType": "uint256",
              "name": "clusterId",
              "type": "uint256"
            },
            {
              "internalType": "uint256",
              "name": "nodeIp",
              "type": "uint256"
            }
          ],
          "name": "removeNodeFromCluster",
          "outputs": [],
          "stateMutability": "nonpayable",
          "type": "function"
        },
        {
          "inputs": [
            {
              "internalType": "uint256",
              "name": "clusterId",
              "type": "uint256"
            },
            {
              "internalType": "uint256[]",
              "name": "nodeIps",
              "type": "uint256[]"
            }
          ],
          "name": "removeNodesFromCluster",
          "outputs": [],
          "stateMutability": "nonpayable",
          "type": "function"
        },
        {
          "inputs": [],
          "name": "renounceOwnership",
          "outputs": [],
          "stateMutability": "nonpayable",
          "type": "function"
        },
        {
          "inputs": [],
          "name": "resourcePrice",
          "outputs": [
            {
              "internalType": "uint256",
              "name": "gpu",
              "type": "uint256"
            },
            {
              "internalType": "uint256",
              "name": "cpu",
              "type": "uint256"
            },
            {
              "internalType": "uint256",
              "name": "memoryBytes",
              "type": "uint256"
            },
            {
              "internalType": "uint256",
              "name": "disk",
              "type": "uint256"
            },
            {
              "internalType": "uint256",
              "name": "network",
              "type": "uint256"
            }
          ],
          "stateMutability": "view",
          "type": "function"
        },
        {
          "inputs": [
            {
              "internalType": "uint256",
              "name": "clusterId",
              "type": "uint256"
            },
            {
              "internalType": "uint256",
              "name": "gpu",
              "type": "uint256"
            },
            {
              "internalType": "uint256",
              "name": "cpu",
              "type": "uint256"
            },
            {
              "internalType": "uint256",
              "name": "memoryBytes",
              "type": "uint256"
            },
            {
              "internalType": "uint256",
              "name": "disk",
              "type": "uint256"
            },
            {
              "internalType": "uint256",
              "name": "network",
              "type": "uint256"
            },
            {
              "internalType": "uint256",
              "name": "maxPrice",
              "type": "uint256"
            }
          ],
          "name": "scale",
          "outputs": [],
          "stateMutability": "nonpayable",
          "type": "function"
        },
        {
          "inputs": [
            {
              "internalType": "address",
              "name": "_operator",
              "type": "address"
            }
          ],
          "name": "setOperator",
          "outputs": [],
          "stateMutability": "nonpayable",
          "type": "function"
        },
        {
          "inputs": [
            {
              "internalType": "address",
              "name": "token",
              "type": "address"
            }
          ],
          "name": "setPaymentToken",
          "outputs": [],
          "stateMutability": "nonpayable",
          "type": "function"
        },
        {
          "inputs": [
            {
              "internalType": "uint256",
              "name": "gpu",
              "type": "uint256"
            },
            {
              "internalType": "uint256",
              "name": "cpu",
              "type": "uint256"
            },
            {
              "internalType": "uint256",
              "name": "memoryBytes",
              "type": "uint256"
            },
            {
              "internalType": "uint256",
              "name": "disk",
              "type": "uint256"
            },
            {
              "internalType": "uint256",
              "name": "network",
              "type": "uint256"
            }
          ],
          "name": "setResourcePrice",
          "outputs": [],
          "stateMutability": "nonpayable",
          "type": "function"
        },
        {
          "inputs": [
            {
              "internalType": "address",
              "name": "newOwner",
              "type": "address"
            }
          ],
          "name": "transferOwnership",
          "outputs": [],
          "stateMutability": "nonpayable",
          "type": "function"
        },
        {
          "inputs": [
            {
              "internalType": "uint256",
              "name": "clusterId",
              "type": "uint256"
            },
            {
              "internalType": "uint256",
              "name": "newIp",
              "type": "uint256"
            }
          ],
          "name": "updateClusterIp",
          "outputs": [],
          "stateMutability": "nonpayable",
          "type": "function"
        },
        {
          "inputs": [
            {
              "internalType": "uint256",
              "name": "index",
              "type": "uint256"
            },
            {
              "internalType": "uint256",
              "name": "minDuration",
              "type": "uint256"
            },
            {
              "internalType": "uint256",
              "name": "percent",
              "type": "uint256"
            }
          ],
          "name": "updateDiscount",
          "outputs": [],
          "stateMutability": "nonpayable",
          "type": "function"
        },
        {
          "inputs": [
            {
              "internalType": "address",
              "name": "token",
              "type": "address"
            },
            {
              "internalType": "address",
              "name": "to",
              "type": "address"
            },
            {
              "internalType": "uint256",
              "name": "amount",
              "type": "uint256"
            }
          ],
          "name": "withdrawFund",
          "outputs": [],
          "stateMutability": "nonpayable",
          "type": "function"
        }
      ],
      "evm": {
        "bytecode": {
          "linkReferences": {},
          "object": "6080806040523461001b576001600055612ba290816100218239f35b600080fdfe608080604052600436101561001357600080fd5b60003560e01c9081630179240c14611f49575080630ab6877614611e8b578063166cfddd14611dd35780631cf93b4914611dad5780631e67288814611d8a5780632707283514611c615780632a58b33014611c435780633013ce2914611c1a5780633b17f0a714611a755780633ff681e414611a375780634983dc4414611a195780634ffadbce14611910578063514fcac7146117bc5780635414323f146116a9578063570ca735146116805780636a326ab11461163d578063715018a6146115d35780637332c5481461151d5780638da5cb5b146114e75780638f4e4b1e146114af578063919500c0146113f7578063949a549d146113b8578063a85c38ef146112cd578063b3ab15fb14611266578063b58a917b146110df578063b609caeb14610f0f578063b906aa9614610c65578063bae6a69014610c28578063bf0f08bb14610bcc578063c0c10db214610856578063d39e77b01461081a578063ddddca11146103b7578063e4ccfc151461036e578063edbf4ac2146101d05763f2fde38b146101a057600080fd5b346101cb5760203660031901126101cb576101c96101bc6121af565b6101c4612379565b6123b2565b005b600080fd5b346101cb5760e03660031901126101cb576101e96121af565b6101f16121c5565b6044359060643560843560a4359060c435927ff0c57e16840df040f15088dc2f81fe391c3923bec73e23a9662efc9c229c6a009586549560ff8760401c1615966001600160401b038116998a1580610367575b6001809c14908161035d575b159081610354575b506103425767ffffffffffffffff1982168b178a556102889189610323575b50610280612426565b6101c4612426565b60018060a01b03166001600160601b0360a01b600b541617600b55878055876008558460806040516102b9816121f7565b83815284602082015285604082015286606082015201526003556004556005556006556007556102e557005b805468ff0000000000000000191690556040519081527fc7f505b2f371ae2175ee4913f4499e1f2633a7b5936321eed1cdaeb6115181d290602090a1005b68ffffffffffffffffff191668010000000000000001178a558b610277565b60405163f92ee8a960e01b8152600490fd5b9050158c610258565b303b159150610250565b5088610244565b346101cb5760003660031901126101cb57600354600454600554600654600754604080519586526020860194909452928401919091526060830152608082015260a090f35b0390f35b346101cb576103c536612165565b8260009392935260096020526040600020926103ee60018060a01b0360058601541633146126b1565b6103fd600485015442106126f1565b6009840154926008850154600a8601549285876104728361046d610461610455610449610437600c600b8901549801549860035490612523565b6104436004548c612523565b90612536565b6104436005548d612523565b61044360065487612523565b61044360075487612523565b612523565b9561047c846124b6565b97600098806107f8575b5087156107a857600c546001600160a01b031690811561076b578811610726576040516323b872dd60e01b602082015233602482015230604482015260648082018a905281526104de916104d9826121f7565b612574565b60018060a01b03600c541694604051996104f78b612212565b338b52600060208c0152600060408c015260608b015260808a015260a089015260c088015260e0870152610100860152610120850152610140840152806101608401528161018084015260016101a08401526001546000526002602052604060002060018060a01b038451166001600160601b0360a01b825416178155602084015160048110156107105781610592600c926101a094612550565b60408601516001820155606086015160028201556080860151600382015560a0860151600482015560c0860151600582015560e0860151600682015561010086015160078201556008810160018060a01b03610120880151166001600160601b0360a01b8254161790556101408601516009820155610160860151600a820155610180860151600b82015501930151926003841015610710576106809360ff801983541691161790556106486001549282612536565b906040519182526020820152817ff7c110a6973307f2bc91245c2c06344ada13add2c1741e83ac5c0bb332bc85d560403393a36124a7565b9081600155600019918281019081116106fa57600052600260205260046106c360076040600020600160a01b60ff60a01b19825416178155015482840154612536565b9101556001549081019081116106fa577faf50e0923cf2eedda3dc56c3d4d73b4d920cee133cd920ffb873db233abecb0c600080a2005b634e487b7160e01b600052601160045260246000fd5b634e487b7160e01b600052602160045260246000fd5b60405162461bcd60e51b815260206004820152601b60248201527f5072696365206368616e6765642c20706c6561736520726574727900000000006044820152606490fd5b60405162461bcd60e51b815260206004820152601560248201527414185e5b595b9d081d1bdad95b881b9bdd081cd95d605a1b6044820152606490fd5b60405162461bcd60e51b815260206004820152602260248201527f546f74616c207072696365206d7573742062652067726561746572207468616e604482015261020360f41b6064820152608490fd5b88995061080b606491610813939a612523565b048099612543565b968b610486565b346101cb576101c961082b3661214f565b90610834612379565b80600052600960205261085160ff60036040600020015416612828565b6128ac565b346101cb576108643661224f565b9060018060a01b03600080516020612b4d833981519152541633148015610bb8575b61088f9061272f565b806000526002602052604060002090815460ff8160a01c166004811015610710576108ba901561276c565b60ff600c84015416600381101561071057610b7a576108db845115156127af565b60ff60a01b1916600160a01b17825560078201546108f99042612536565b9260085493610907856124a7565b60085560018060a01b038454166001850154600286015460038701549060048801549260058901549460068a015496604051996109438b6121db565b338b5260208b01528860408b0152600160608b015260808a015260a08901528060c089015260e0880152610100870152610120860152610140850152610160840152610180830152836000526009602052604060002060018060a01b038351166001600160601b0360a01b8254161781556020830151600182015560408301518051906001600160401b038211610b6457600160401b8211610b64576002830154826002850155808310610b37575b5060200160028301600052602060002060005b838110610b235750505050600381016060840151151560ff80198354169116179055608083015160048201556005810160018060a01b0360a0850151166001600160601b0360a01b82541617905560c0830151600682015560e0830151600782015561010083015160088201556101208301516009820155600c61018061014085015194600a9586850155610160810151600b8501550151910155600183015460005281602052610aba8460406000206127ef565b60005b848251821015610af6575080610ad6610af19284612814565b5160005283602052610aec8660406000206127ef565b6124a7565b610abd565b8060098601557faf50e0923cf2eedda3dc56c3d4d73b4d920cee133cd920ffb873db233abecb0c600080a2005b600190602084519401938184015501610a05565b600284016000526020600020908382015b8183018110610b585750506109f2565b60008155600101610b48565b634e487b7160e01b600052604160045260246000fd5b60405162461bcd60e51b81526020600482015260166024820152754f726465722074797065206d757374206265204e657760501b6044820152606490fd5b50600b546001600160a01b03163314610886565b346101cb57610bda3661224f565b610be2612379565b816000526009602052610bff60ff60036040600020015416612828565b60005b81518110156101c95780610aec610c1c610c239385612814565b51856128ac565b610c02565b346101cb5760203660031901126101cb57600435600d548110156101cb57610c5160409161233f565b506001815491015482519182526020820152f35b346101cb5760e03660031901126101cb576004356000526009602052610cb660046040600020610ca260018060a01b0360058301541633146126b1565b0154610caf4282116126f1565b4290612543565b610d0c8161046d610cfe610cf0610ce2610cd4600354602435612523565b610443600454604435612523565b610443600554606435612523565b610443600654608435612523565b61044360075460a435612523565b610d15826124b6565b9060009180610eef575b5080156107a857600c546001600160a01b0316801561076b5760c4358211610726576040516323b872dd60e01b602082015233602482015230604482015260648082018490528152610d74916104d9826121f7565b60018060a01b03600c541660405193610d8c85612212565b33855260006020860152600060408601526024356060860152604435608086015260643560a086015260843560c086015260a43560e0860152610100850152610120840152600435610140840152806101608401528161018084015260026101a08401526001546000526002602052604060002060018060a01b03845116906001600160601b0360a01b91828254161781556020850151906004821015610710576101a092610e3d600c9383612550565b60408701516001830155606087015160028301556080870151600383015560a0870151600483015560c0870151600583015560e087015160068301556101008701516007830155600882019060018060a01b0361012089015116908254161790556101408601516009820155610160860151600a820155610180860151600b8201550193015192600384101561071057610eea9360ff801983541691161790556106486001549282612536565b600155005b819250610f01606491610f0993612523565b048092612543565b83610d1f565b346101cb5760203660031901126101cb57600080516020612b4d8339815191525460043590610f5390336001600160a01b03918216149081156110d1575b5061272f565b8060005260026020526040600020805460ff8160a01c16600481101561071057610f7d901561276c565b60ff600c8301541660038110156107105760020361108c57600982015490811561105357600160a01b9060ff60a01b1916178255600052600960205261102a600c60066040600020936002810154610fda60088701918254612536565b90556003810154610ff060098701918254612536565b90556004810154611006600a8701918254612536565b9055600581015461101c600b8701918254612536565b905501549201918254612536565b90557faf50e0923cf2eedda3dc56c3d4d73b4d920cee133cd920ffb873db233abecb0c600080a2005b60405162461bcd60e51b8152602060048201526011602482015270125b9d985b1a590818db1d5cdd195c9259607a1b6044820152606490fd5b60405162461bcd60e51b815260206004820152601860248201527f4f726465722074797065206d757374206265205363616c6500000000000000006044820152606490fd5b9050600b5416331483610f4d565b346101cb576101003660031901126101cb5761111761110e610cfe610cf0610ce2610cd4600354602435612523565b60c43590612523565b61112260c4356124b6565b6000908061124e575b5081156107a857600c546001600160a01b0316801561076b5760e4358311610726576040516323b872dd60e01b602082015233602482015230604482015260648082018590528152611180916104d9826121f7565b600c5460405192906001600160a01b031661119a84612212565b3384526000602085015260043560408501526024356060850152604435608085015260643560a085015260843560c085015260a43560e085015260c4356101008501526101208401526000610140840152806101608401528161018084015260006101a08401526001546000526002602052604060002060018060a01b03845116906001600160601b0360a01b91828254161781556020850151906004821015610710576101a092610e3d600c9383612550565b61125f9150610f0160649184612523565b908261112b565b346101cb5760203660031901126101cb5761127f6121af565b611287612379565b600b80546001600160a01b0319166001600160a01b039290921691821790557fb3b3f5f64ab192e4b5fefde1f51ce9733bbdcf831951543b325aebd49cc27ec4600080a2005b346101cb5760203660031901126101cb576004356000526002602052604060002080546001820154916002810154600382015460048301546005840154600685015460078601549160018060a01b0360088801541693600988015495600a8901549760ff600c600b8c01549b0154169b6040519b60018060a01b0381168d52600460ff8260a01c1610156107105760ff9060a01c1660208d015260408c015260608b015260808a015260a089015260c088015260e08701526101008601526101208501526101408401526101608301526101808201526003821015610710576101c0916101a0820152f35b346101cb576113c63661214f565b90600052600a602052604060002080548210156101cb576020916113e991612311565b90546040519160031b1c8152f35b346101cb5760203660031901126101cb576004356000526009602052610180604060002060018060a01b03808254169160018101549160ff600383015416906004830154906005840154166006840154600785015490600886015492600987015494600a88015496600c600b8a0154990154996040519b8c5260208c0152151560408b015260608a0152608089015260a088015260c087015260e0860152610100850152610120840152610140830152610160820152f35b346101cb5760203660031901126101cb57600435600052600a6020526103b36114db6040600020612a37565b604051918291826122d6565b346101cb5760003660031901126101cb57600080516020612b4d833981519152546040516001600160a01b039091168152602090f35b346101cb5760a03660031901126101cb577fc05d384d96751ccdcd49a1246e85cf2131ef23bbbe94dffe94b22a352ded96856024356004356115ce608435606435604435611569612379565b826080604051611578816121f7565b87815288602082015283604082015284606082015201528460035585600455806005558160065582600755604051958695869192608093969594919660a084019784526020840152604083015260608201520152565b0390a1005b346101cb5760003660031901126101cb576115ec612379565b600080516020612b4d83398151915280546001600160a01b031981169091556000906001600160a01b03167f8be0079c531659141344cd1fd0a4f28419497f9722a3daafe3b4186f6b6457e08280a3005b346101cb5760203660031901126101cb576116566121af565b61165e612379565b600c80546001600160a01b0319166001600160a01b0392909216919091179055005b346101cb5760003660031901126101cb57600b546040516001600160a01b039091168152602090f35b346101cb576116b73661214f565b9080600052600960205281600760406000206116dd60018060a01b0382541633146126b1565b6116ec600482015442106126f1565b01805480611714575b5055816116fe57005b6101c991600052600a60205260406000206127ef565b6000908152600a602052604081209392505b835485818310156117b257508361173d8387612311565b919054600392831b1c1461175b575050611756906124a7565b611726565b939491936000198201929183116106fa57869461178e6117a7926117826117ac9686612311565b9054911b1c9184612311565b90919082549060031b91821b91600019901b1916179055565b61286c565b846116f5565b93945050506117ac565b346101cb5760203660031901126101cb576004356002600054146118fe576002600055806000526002602052604060002090815460ff8160a01c1660048110156107105761180a901561276c565b6001600160a01b03818116913383036118c75760ff60a01b1916600160a11b1784556040519233907f9384174c8517f5537b08e79211fc039e8a098571a3a2b4cb21dfa6f3237e8de1600080a3600a84015492831561187957506008611872940154166129e8565b6001600055005b62461bcd60e51b8152602060048201526024808201527f526566756e6420616d6f756e74206d75737420626520677265617465722074686044820152630616e20360e41b6064820152608490fd5b60405162461bcd60e51b815260206004820152600f60248201526e2737ba1037b93232b91037bbb732b960891b6044820152606490fd5b604051633ee5aeb560e01b8152600490fd5b346101cb5761191e3661224f565b611926612379565b8160005260099060209082825261194760ff60036040600020015416612828565b8051156119dd5760005b81518110156119a6576119a19085600052848452611981600260406000200161197a8386612814565b51906127ef565b61198b8184612814565b51600052600a8452610aec8660406000206127ef565b611951565b847fa80b5484eb9aac37d936efc3d8e24049008b11e89daa6495d318baf3105ff5636119d884604051918291826122d6565b0390a2005b60405162461bcd60e51b8152600481018390526014602482015273139bc81b9bd9194812541cc81c1c9bdd9a59195960621b6044820152606490fd5b346101cb5760003660031901126101cb576020600854604051908152f35b346101cb5760603660031901126101cb576101c9611a536121af565b611a5b6121c5565b611a63612379565b604435916001600160a01b03166129e8565b346101cb5760403660031901126101cb576004356024356001600160401b0381116101cb57611aa890369060040161217f565b90611ad460018060a01b0380600080516020612b4d83398151915254163314908115611c0c575061272f565b826000526020916009835260406000209260048401544210611bd257611afe8294939415156127af565b600260009301925b8354811015611b325780610aec611b20611b2d9387612311565b90549060031b1c886128ac565b611b06565b5083859360005b848110611b935750506040518281529182018390526001600160fb1b0383116101cb57816040917fa80b5484eb9aac37d936efc3d8e24049008b11e89daa6495d318baf3105ff5639460051b8091848401378101030190a2005b80611bac611ba5611bcd938887612b3c565b35846127ef565b611bb7818786612b3c565b35600052600a8552610aec8760406000206127ef565b611b39565b6064906040519062461bcd60e51b82526004820152601360248201527210db1d5cdd195c881b9bdd08195e1c1a5c9959606a1b6044820152fd5b9050600b5416331485610f4d565b346101cb5760003660031901126101cb57600c546040516001600160a01b039091168152602090f35b346101cb5760003660031901126101cb576020600154604051908152f35b346101cb576020806003193601126101cb576004356001600160401b0381116101cb57611c9290369060040161217f565b9060005b828110611c9f57005b611caa818484612b3c565b3580600052600985526040600020906003808301805460ff811680611d7c575b611ce2575b5050505050611cdd906124a7565b611c96565b60ff19169055919592949093919260028701929160005b8454811015611d245780610aec611d13611d1f9388612311565b905490891b1c896128ac565b611cf9565b5095925095611cdd9350600790949194015480611d6c575b507f8c459d0832b883bf56848f326554cd247915959623cb54c5b5bfc6cecdb39a65600080a29085808080611ccf565b611d7690826128ac565b86611d3c565b506004850154421015611cca565b346101cb576020611da3611d9d3661214f565b90612a86565b6040519015158152f35b346101cb5760203660031901126101cb576020611dcb6004356124b6565b604051908152f35b346101cb57611de136612165565b9190611deb612379565b600d54821015611e4d5782806001611e3d604095611e2c60647fbb2de15b1fdae29c27610cb7a0e84f181f8df2e1c704e762073d7292f65e74ef9910612467565b85611e368261233f565b505561233f565b50015582519182526020820152a1005b60405162461bcd60e51b8152602060048201526016602482015275092dcecc2d8d2c840c8d2e6c6deeadce840d2dcc8caf60531b6044820152606490fd5b346101cb57611e993661214f565b611ea1612379565b611ead60648210612467565b60405191604083018381106001600160401b03821117610b64576040528083526020830191808352600d54600160401b811015610b6457806001611ef49201600d5561233f565b611f335760016040947fbb2de15b1fdae29c27610cb7a0e84f181f8df2e1c704e762073d7292f65e74ef965183555191015582519182526020820152a1005b634e487b7160e01b600052600060045260246000fd5b346101cb5760203660031901126101cb5761018081611f696000936121db565b828152826020820152606060408201528260608201528260808201528260a08201528260c08201528260e082015282610100820152826101208201528261014082015282610160820152015260043560005260096020526040600020600c60405191611fd4836121db565b80546001600160a01b0316835260018101546020840152611ff760028201612a37565b604084015260ff600382015416151560608401526004810154608084015260018060a01b0360058201541660a0840152600681015460c0840152600781015460e084015260088101546101008401526009810154610120840152600a810154610140840152600b81015461016084015201546101808201526040516020815260018060a01b0382511660208201526020820151604082015260408201516101a060608301526101c08201815180915260206101e0840192019060005b818110612139575050506101808360608495015115156080850152608081015160a085015260018060a01b0360a08201511660c085015260c081015160e085015260e08101516101008501526101008101516101208501526101208101516101408501526101408101516101608501526101608101518285015201516101a08301520390f35b82518452602093840193909201916001016120b3565b60409060031901126101cb576004359060243590565b60609060031901126101cb57600435906024359060443590565b9181601f840112156101cb578235916001600160401b0383116101cb576020808501948460051b0101116101cb57565b600435906001600160a01b03821682036101cb57565b602435906001600160a01b03821682036101cb57565b6101a081019081106001600160401b03821117610b6457604052565b60a081019081106001600160401b03821117610b6457604052565b6101c081019081106001600160401b03821117610b6457604052565b90601f801991011681019081106001600160401b03821117610b6457604052565b9060406003198301126101cb5760043591602435906001600160401b03908183116101cb57806023840112156101cb578260040135918211610b64578160051b604051936020936122a28584018761222e565b85526024848601928201019283116101cb57602401905b8282106122c7575050505090565b813581529083019083016122b9565b6020908160408183019282815285518094520193019160005b8281106122fd575050505090565b8351855293810193928101926001016122ef565b80548210156123295760005260206000200190600090565b634e487b7160e01b600052603260045260246000fd5b600d5481101561232957600d60005260011b7fd7b6990105719101dabeb77144f2a3385c8033acd3af97e9423a695e81ad1eb50190600090565b600080516020612b4d833981519152546001600160a01b0316330361239a57565b60405163118cdaa760e01b8152336004820152602490fd5b6001600160a01b0390811690811561240d57600080516020612b4d83398151915280546001600160a01b031981168417909155167f8be0079c531659141344cd1fd0a4f28419497f9722a3daafe3b4186f6b6457e0600080a3565b604051631e4fbdf760e01b815260006004820152602490fd5b60ff7ff0c57e16840df040f15088dc2f81fe391c3923bec73e23a9662efc9c229c6a005460401c161561245557565b604051631afcd79f60e31b8152600490fd5b1561246e57565b60405162461bcd60e51b8152602060048201526011602482015270088d2e6c6deeadce840e8dede40d0d2ced607b1b6044820152606490fd5b60001981146106fa5760010190565b600d54600091825b8281106124cb5750505090565b6124d48161233f565b50548210158061250d575b6124f2575b6124ed906124a7565b6124be565b92506124ed60016125028561233f565b5001549390506124e4565b5083600161251a8361233f565b500154116124df565b818102929181159184041417156106fa57565b919082018092116106fa57565b919082039182116106fa57565b90600481101561071057815460ff60a01b191660a09190911b60ff60a01b16179055565b60018060a01b031690600080826020829451910182865af13d15612642573d906001600160401b03821161262e57906125cf91604051916125bf6020601f19601f840116018461222e565b82523d84602084013e5b8461264e565b9081519182151592836125ff575b5050506125e75750565b60249060405190635274afe760e01b82526004820152fd5b81929350906020918101031261262a57602001519081159182150361262757503880806125dd565b80fd5b5080fd5b634e487b7160e01b83526041600452602483fd5b6125cf906060906125c9565b90612675575080511561266357805190602001fd5b604051630a12f52160e11b8152600490fd5b815115806126a8575b612686575090565b604051639996b31560e01b81526001600160a01b039091166004820152602490fd5b50803b1561267e565b156126b857565b60405162461bcd60e51b81526020600482015260116024820152702737ba1031b63ab9ba32b91037bbb732b960791b6044820152606490fd5b156126f857565b60405162461bcd60e51b815260206004820152600f60248201526e10db1d5cdd195c88195e1c1a5c9959608a1b6044820152606490fd5b1561273657565b60405162461bcd60e51b815260206004820152600e60248201526d139bdd08185d5d1a1bdc9a5e995960921b6044820152606490fd5b1561277357565b60405162461bcd60e51b81526020600482015260146024820152734f72646572206973206e6f742070656e64696e6760601b6044820152606490fd5b156127b657565b60405162461bcd60e51b8152602060048201526011602482015270139bd9194812541cc81c995c5d5a5c9959607a1b6044820152606490fd5b90815491600160401b831015610b64578261178e91600161281295018155612311565b565b80518210156123295760209160051b010190565b1561282f57565b60405162461bcd60e51b8152602060048201526015602482015274436c7573746572206973206e6f742061637469766560581b6044820152606490fd5b805490811561289657600019918201916128868383612311565b909182549160031b1b1916905555565b634e487b7160e01b600052603160045260246000fd5b60009080825260096020526002604083200192825b8454808210156129dd5782906128d78388612311565b929054600393841b1c146128f55750506128f0906124a7565b6128c1565b600096939495961981019081116129c9579161178e6117a792611782869561291c97612311565b80827f321612790897bd90d2d7b5818c7a2b9a734f3a4b5f70799c4991ba510dfd60748580a35b8252600a6020526040822090825b8254808210156129c25782906129678386612311565b929054600393841b1c14612985575050612980906124a7565b612951565b91939490925060001982019182116129ae57509161178e6117a792611782869561281297612311565b634e487b7160e01b81526011600452602490fd5b5050505050565b634e487b7160e01b87526011600452602487fd5b505090919250612943565b60405163a9059cbb60e01b60208201526001600160a01b03909216602483015260448083019390935291815260808101916001600160401b03831182841017610b645761281292604052612574565b9060405191828154918282526020928383019160005283600020936000905b828210612a6c575050506128129250038361222e565b855484526001958601958895509381019390910190612a56565b916000928352602092600a8452604090612aa1828220612a37565b938152600a8552612ab3828220612a37565b9381905b8051821015612b3257825b8651811015612b2157612ad58383612814565b51612ae08289612814565b5114612af5575b612af0906124a7565b612ac2565b612aff8383612814565b5184526009885260048585200154421015612ae7575050505050915050600190565b5090612b2c906124a7565b90612ab7565b5050925050915090565b91908110156123295760051b019056fe9016d09d72d40fdae2fd8ceac6b6234c7706214fd39c1cd1e609a0528c199300a2646970667358221220fe7bc9e9e7d7aadf4c7fd72dfa8ab5d19f65e599ed5dd8a01f0f6fa82a26aa4464736f6c63430008140033",
          "opcodes": "PUSH1 0x80 DUP1 PUSH1 0x40 MSTORE CALLVALUE PUSH2 0x1B JUMPI PUSH1 0x1 PUSH1 0x0 SSTORE PUSH2 0x2BA2 SWAP1 DUP2 PUSH2 0x21 DUP3 CODECOPY RETURN JUMPDEST PUSH1 0x0 DUP1 REVERT INVALID PUSH1 0x80 DUP1 PUSH1 0x40 MSTORE PUSH1 0x4 CALLDATASIZE LT ISZERO PUSH2 0x13 JUMPI PUSH1 0x0 DUP1 REVERT JUMPDEST PUSH1 0x0 CALLDATALOAD PUSH1 0xE0 SHR SWAP1 DUP2 PUSH4 0x179240C EQ PUSH2 0x1F49 JUMPI POP DUP1 PUSH4 0xAB68776 EQ PUSH2 0x1E8B JUMPI DUP1 PUSH4 0x166CFDDD EQ PUSH2 0x1DD3 JUMPI DUP1 PUSH4 0x1CF93B49 EQ PUSH2 0x1DAD JUMPI DUP1 PUSH4 0x1E672888 EQ PUSH2 0x1D8A JUMPI DUP1 PUSH4 0x27072835 EQ PUSH2 0x1C61 JUMPI DUP1 PUSH4 0x2A58B330 EQ PUSH2 0x1C43 JUMPI DUP1 PUSH4 0x3013CE29 EQ PUSH2 0x1C1A JUMPI DUP1 PUSH4 0x3B17F0A7 EQ PUSH2 0x1A75 JUMPI DUP1 PUSH4 0x3FF681E4 EQ PUSH2 0x1A37 JUMPI DUP1 PUSH4 0x4983DC44 EQ PUSH2 0x1A19 JUMPI DUP1 PUSH4 0x4FFADBCE EQ PUSH2 0x1910 JUMPI DUP1 PUSH4 0x514FCAC7 EQ PUSH2 0x17BC JUMPI DUP1 PUSH4 0x5414323F EQ PUSH2 0x16A9 JUMPI DUP1 PUSH4 0x570CA735 EQ PUSH2 0x1680 JUMPI DUP1 PUSH4 0x6A326AB1 EQ PUSH2 0x163D JUMPI DUP1 PUSH4 0x715018A6 EQ PUSH2 0x15D3 JUMPI DUP1 PUSH4 0x7332C548 EQ PUSH2 0x151D JUMPI DUP1 PUSH4 0x8DA5CB5B EQ PUSH2 0x14E7 JUMPI DUP1 PUSH4 0x8F4E4B1E EQ PUSH2 0x14AF JUMPI DUP1 PUSH4 0x919500C0 EQ PUSH2 0x13F7 JUMPI DUP1 PUSH4 0x949A549D EQ PUSH2 0x13B8 JUMPI DUP1 PUSH4 0xA85C38EF EQ PUSH2 0x12CD JUMPI DUP1 PUSH4 0xB3AB15FB EQ PUSH2 0x1266 JUMPI DUP1 PUSH4 0xB58A917B EQ PUSH2 0x10DF JUMPI DUP1 PUSH4 0xB609CAEB EQ PUSH2 0xF0F JUMPI DUP1 PUSH4 0xB906AA96 EQ PUSH2 0xC65 JUMPI DUP1 PUSH4 0xBAE6A690 EQ PUSH2 0xC28 JUMPI DUP1 PUSH4 0xBF0F08BB EQ PUSH2 0xBCC JUMPI DUP1 PUSH4 0xC0C10DB2 EQ PUSH2 0x856 JUMPI DUP1 PUSH4 0xD39E77B0 EQ PUSH2 0x81A JUMPI DUP1 PUSH4 0xDDDDCA11 EQ PUSH2 0x3B7 JUMPI DUP1 PUSH4 0xE4CCFC15 EQ PUSH2 0x36E JUMPI DUP1 PUSH4 0xEDBF4AC2 EQ PUSH2 0x1D0 JUMPI PUSH4 0xF2FDE38B EQ PUSH2 0x1A0 JUMPI PUSH1 0x0 DUP1 REVERT JUMPDEST CALLVALUE PUSH2 0x1CB JUMPI PUSH1 0x20 CALLDATASIZE PUSH1 0x3 NOT ADD SLT PUSH2 0x1CB JUMPI PUSH2 0x1C9 PUSH2 0x1BC PUSH2 0x21AF JUMP JUMPDEST PUSH2 0x1C4 PUSH2 0x2379 JUMP JUMPDEST PUSH2 0x23B2 JUMP JUMPDEST STOP JUMPDEST PUSH1 0x0 DUP1 REVERT JUMPDEST CALLVALUE PUSH2 0x1CB JUMPI PUSH1 0xE0 CALLDATASIZE PUSH1 0x3 NOT ADD SLT PUSH2 0x1CB JUMPI PUSH2 0x1E9 PUSH2 0x21AF JUMP JUMPDEST PUSH2 0x1F1 PUSH2 0x21C5 JUMP JUMPDEST PUSH1 0x44 CALLDATALOAD SWAP1 PUSH1 0x64 CALLDATALOAD PUSH1 0x84 CALLDATALOAD PUSH1 0xA4 CALLDATALOAD SWAP1 PUSH1 0xC4 CALLDATALOAD SWAP3 PUSH32 0xF0C57E16840DF040F15088DC2F81FE391C3923BEC73E23A9662EFC9C229C6A00 SWAP6 DUP7 SLOAD SWAP6 PUSH1 0xFF DUP8 PUSH1 0x40 SHR AND ISZERO SWAP7 PUSH1 0x1 PUSH1 0x1 PUSH1 0x40 SHL SUB DUP2 AND SWAP10 DUP11 ISZERO DUP1 PUSH2 0x367 JUMPI JUMPDEST PUSH1 0x1 DUP1 SWAP13 EQ SWAP1 DUP2 PUSH2 0x35D JUMPI JUMPDEST ISZERO SWAP1 DUP2 PUSH2 0x354 JUMPI JUMPDEST POP PUSH2 0x342 JUMPI PUSH8 0xFFFFFFFFFFFFFFFF NOT DUP3 AND DUP12 OR DUP11 SSTORE PUSH2 0x288 SWAP2 DUP10 PUSH2 0x323 JUMPI JUMPDEST POP PUSH2 0x280 PUSH2 0x2426 JUMP JUMPDEST PUSH2 0x1C4 PUSH2 0x2426 JUMP JUMPDEST PUSH1 0x1 DUP1 PUSH1 0xA0 SHL SUB AND PUSH1 0x1 PUSH1 0x1 PUSH1 0x60 SHL SUB PUSH1 0xA0 SHL PUSH1 0xB SLOAD AND OR PUSH1 0xB SSTORE DUP8 DUP1 SSTORE DUP8 PUSH1 0x8 SSTORE DUP5 PUSH1 0x80 PUSH1 0x40 MLOAD PUSH2 0x2B9 DUP2 PUSH2 0x21F7 JUMP JUMPDEST DUP4 DUP2 MSTORE DUP5 PUSH1 0x20 DUP3 ADD MSTORE DUP6 PUSH1 0x40 DUP3 ADD MSTORE DUP7 PUSH1 0x60 DUP3 ADD MSTORE ADD MSTORE PUSH1 0x3 SSTORE PUSH1 0x4 SSTORE PUSH1 0x5 SSTORE PUSH1 0x6 SSTORE PUSH1 0x7 SSTORE PUSH2 0x2E5 JUMPI STOP JUMPDEST DUP1 SLOAD PUSH9 0xFF0000000000000000 NOT AND SWAP1 SSTORE PUSH1 0x40 MLOAD SWAP1 DUP2 MSTORE PUSH32 0xC7F505B2F371AE2175EE4913F4499E1F2633A7B5936321EED1CDAEB6115181D2 SWAP1 PUSH1 0x20 SWAP1 LOG1 STOP JUMPDEST PUSH9 0xFFFFFFFFFFFFFFFFFF NOT AND PUSH9 0x10000000000000001 OR DUP11 SSTORE DUP12 PUSH2 0x277 JUMP JUMPDEST PUSH1 0x40 MLOAD PUSH4 0xF92EE8A9 PUSH1 0xE0 SHL DUP2 MSTORE PUSH1 0x4 SWAP1 REVERT JUMPDEST SWAP1 POP ISZERO DUP13 PUSH2 0x258 JUMP JUMPDEST ADDRESS EXTCODESIZE ISZERO SWAP2 POP PUSH2 0x250 JUMP JUMPDEST POP DUP9 PUSH2 0x244 JUMP JUMPDEST CALLVALUE PUSH2 0x1CB JUMPI PUSH1 0x0 CALLDATASIZE PUSH1 0x3 NOT ADD SLT PUSH2 0x1CB JUMPI PUSH1 0x3 SLOAD PUSH1 0x4 SLOAD PUSH1 0x5 SLOAD PUSH1 0x6 SLOAD PUSH1 0x7 SLOAD PUSH1 0x40 DUP1 MLOAD SWAP6 DUP7 MSTORE PUSH1 0x20 DUP7 ADD SWAP5 SWAP1 SWAP5 MSTORE SWAP3 DUP5 ADD SWAP2 SWAP1 SWAP2 MSTORE PUSH1 0x60 DUP4 ADD MSTORE PUSH1 0x80 DUP3 ADD MSTORE PUSH1 0xA0 SWAP1 RETURN JUMPDEST SUB SWAP1 RETURN JUMPDEST CALLVALUE PUSH2 0x1CB JUMPI PUSH2 0x3C5 CALLDATASIZE PUSH2 0x2165 JUMP JUMPDEST DUP3 PUSH1 0x0 SWAP4 SWAP3 SWAP4 MSTORE PUSH1 0x9 PUSH1 0x20 MSTORE PUSH1 0x40 PUSH1 0x0 KECCAK256 SWAP3 PUSH2 0x3EE PUSH1 0x1 DUP1 PUSH1 0xA0 SHL SUB PUSH1 0x5 DUP7 ADD SLOAD AND CALLER EQ PUSH2 0x26B1 JUMP JUMPDEST PUSH2 0x3FD PUSH1 0x4 DUP6 ADD SLOAD TIMESTAMP LT PUSH2 0x26F1 JUMP JUMPDEST PUSH1 0x9 DUP5 ADD SLOAD SWAP3 PUSH1 0x8 DUP6 ADD SLOAD PUSH1 0xA DUP7 ADD SLOAD SWAP3 DUP6 DUP8 PUSH2 0x472 DUP4 PUSH2 0x46D PUSH2 0x461 PUSH2 0x455 PUSH2 0x449 PUSH2 0x437 PUSH1 0xC PUSH1 0xB DUP10 ADD SLOAD SWAP9 ADD SLOAD SWAP9 PUSH1 0x3 SLOAD SWAP1 PUSH2 0x2523 JUMP JUMPDEST PUSH2 0x443 PUSH1 0x4 SLOAD DUP13 PUSH2 0x2523 JUMP JUMPDEST SWAP1 PUSH2 0x2536 JUMP JUMPDEST PUSH2 0x443 PUSH1 0x5 SLOAD DUP14 PUSH2 0x2523 JUMP JUMPDEST PUSH2 0x443 PUSH1 0x6 SLOAD DUP8 PUSH2 0x2523 JUMP JUMPDEST PUSH2 0x443 PUSH1 0x7 SLOAD DUP8 PUSH2 0x2523 JUMP JUMPDEST PUSH2 0x2523 JUMP JUMPDEST SWAP6 PUSH2 0x47C DUP5 PUSH2 0x24B6 JUMP JUMPDEST SWAP8 PUSH1 0x0 SWAP9 DUP1 PUSH2 0x7F8 JUMPI JUMPDEST POP DUP8 ISZERO PUSH2 0x7A8 JUMPI PUSH1 0xC SLOAD PUSH1 0x1 PUSH1 0x1 PUSH1 0xA0 SHL SUB AND SWAP1 DUP2 ISZERO PUSH2 0x76B JUMPI DUP9 GT PUSH2 0x726 JUMPI PUSH1 0x40 MLOAD PUSH4 0x23B872DD PUSH1 0xE0 SHL PUSH1 0x20 DUP3 ADD MSTORE CALLER PUSH1 0x24 DUP3 ADD MSTORE ADDRESS PUSH1 0x44 DUP3 ADD MSTORE PUSH1 0x64 DUP1 DUP3 ADD DUP11 SWAP1 MSTORE DUP2 MSTORE PUSH2 0x4DE SWAP2 PUSH2 0x4D9 DUP3 PUSH2 0x21F7 JUMP JUMPDEST PUSH2 0x2574 JUMP JUMPDEST PUSH1 0x1 DUP1 PUSH1 0xA0 SHL SUB PUSH1 0xC SLOAD AND SWAP5 PUSH1 0x40 MLOAD SWAP10 PUSH2 0x4F7 DUP12 PUSH2 0x2212 JUMP JUMPDEST CALLER DUP12 MSTORE PUSH1 0x0 PUSH1 0x20 DUP13 ADD MSTORE PUSH1 0x0 PUSH1 0x40 DUP13 ADD MSTORE PUSH1 0x60 DUP12 ADD MSTORE PUSH1 0x80 DUP11 ADD MSTORE PUSH1 0xA0 DUP10 ADD MSTORE PUSH1 0xC0 DUP9 ADD MSTORE PUSH1 0xE0 DUP8 ADD MSTORE PUSH2 0x100 DUP7 ADD MSTORE PUSH2 0x120 DUP6 ADD MSTORE PUSH2 0x140 DUP5 ADD MSTORE DUP1 PUSH2 0x160 DUP5 ADD MSTORE DUP2 PUSH2 0x180 DUP5 ADD MSTORE PUSH1 0x1 PUSH2 0x1A0 DUP5 ADD MSTORE PUSH1 0x1 SLOAD PUSH1 0x0 MSTORE PUSH1 0x2 PUSH1 0x20 MSTORE PUSH1 0x40 PUSH1 0x0 KECCAK256 PUSH1 0x1 DUP1 PUSH1 0xA0 SHL SUB DUP5 MLOAD AND PUSH1 0x1 PUSH1 0x1 PUSH1 0x60 SHL SUB PUSH1 0xA0 SHL DUP3 SLOAD AND OR DUP2 SSTORE PUSH1 0x20 DUP5 ADD MLOAD PUSH1 0x4 DUP2 LT ISZERO PUSH2 0x710 JUMPI DUP2 PUSH2 0x592 PUSH1 0xC SWAP3 PUSH2 0x1A0 SWAP5 PUSH2 0x2550 JUMP JUMPDEST PUSH1 0x40 DUP7 ADD MLOAD PUSH1 0x1 DUP3 ADD SSTORE PUSH1 0x60 DUP7 ADD MLOAD PUSH1 0x2 DUP3 ADD SSTORE PUSH1 0x80 DUP7 ADD MLOAD PUSH1 0x3 DUP3 ADD SSTORE PUSH1 0xA0 DUP7 ADD MLOAD PUSH1 0x4 DUP3 ADD SSTORE PUSH1 0xC0 DUP7 ADD MLOAD PUSH1 0x5 DUP3 ADD SSTORE PUSH1 0xE0 DUP7 ADD MLOAD PUSH1 0x6 DUP3 ADD SSTORE PUSH2 0x100 DUP7 ADD MLOAD PUSH1 0x7 DUP3 ADD SSTORE PUSH1 0x8 DUP2 ADD PUSH1 0x1 DUP1 PUSH1 0xA0 SHL SUB PUSH2 0x120 DUP9 ADD MLOAD AND PUSH1 0x1 PUSH1 0x1 PUSH1 0x60 SHL SUB PUSH1 0xA0 SHL DUP3 SLOAD AND OR SWAP1 SSTORE PUSH2 0x140 DUP7 ADD MLOAD PUSH1 0x9 DUP3 ADD SSTORE PUSH2 0x160 DUP7 ADD MLOAD PUSH1 0xA DUP3 ADD SSTORE PUSH2 0x180 DUP7 ADD MLOAD PUSH1 0xB DUP3 ADD SSTORE ADD SWAP4 ADD MLOAD SWAP3 PUSH1 0x3 DUP5 LT ISZERO PUSH2 0x710 JUMPI PUSH2 0x680 SWAP4 PUSH1 0xFF DUP1 NOT DUP4 SLOAD AND SWAP2 AND OR SWAP1 SSTORE PUSH2 0x648 PUSH1 0x1 SLOAD SWAP3 DUP3 PUSH2 0x2536 JUMP JUMPDEST SWAP1 PUSH1 0x40 MLOAD SWAP2 DUP3 MSTORE PUSH1 0x20 DUP3 ADD MSTORE DUP2 PUSH32 0xF7C110A6973307F2BC91245C2C06344ADA13ADD2C1741E83AC5C0BB332BC85D5 PUSH1 0x40 CALLER SWAP4 LOG3 PUSH2 0x24A7 JUMP JUMPDEST SWAP1 DUP2 PUSH1 0x1 SSTORE PUSH1 0x0 NOT SWAP2 DUP3 DUP2 ADD SWAP1 DUP2 GT PUSH2 0x6FA JUMPI PUSH1 0x0 MSTORE PUSH1 0x2 PUSH1 0x20 MSTORE PUSH1 0x4 PUSH2 0x6C3 PUSH1 0x7 PUSH1 0x40 PUSH1 0x0 KECCAK256 PUSH1 0x1 PUSH1 0xA0 SHL PUSH1 0xFF PUSH1 0xA0 SHL NOT DUP3 SLOAD AND OR DUP2 SSTORE ADD SLOAD DUP3 DUP5 ADD SLOAD PUSH2 0x2536 JUMP JUMPDEST SWAP2 ADD SSTORE PUSH1 0x1 SLOAD SWAP1 DUP2 ADD SWAP1 DUP2 GT PUSH2 0x6FA JUMPI PUSH32 0xAF50E0923CF2EEDDA3DC56C3D4D73B4D920CEE133CD920FFB873DB233ABECB0C PUSH1 0x0 DUP1 LOG2 STOP JUMPDEST PUSH4 0x4E487B71 PUSH1 0xE0 SHL PUSH1 0x0 MSTORE PUSH1 0x11 PUSH1 0x4 MSTORE PUSH1 0x24 PUSH1 0x0 REVERT JUMPDEST PUSH4 0x4E487B71 PUSH1 0xE0 SHL PUSH1 0x0 MSTORE PUSH1 0x21 PUSH1 0x4 MSTORE PUSH1 0x24 PUSH1 0x0 REVERT JUMPDEST PUSH1 0x40 MLOAD PUSH3 0x461BCD PUSH1 0xE5 SHL DUP2 MSTORE PUSH1 0x20 PUSH1 0x4 DUP3 ADD MSTORE PUSH1 0x1B PUSH1 0x24 DUP3 ADD MSTORE PUSH32 0x5072696365206368616E6765642C20706C656173652072657472790000000000 PUSH1 0x44 DUP3 ADD MSTORE PUSH1 0x64 SWAP1 REVERT JUMPDEST PUSH1 0x40 MLOAD PUSH3 0x461BCD PUSH1 0xE5 SHL DUP2 MSTORE PUSH1 0x20 PUSH1 0x4 DUP3 ADD MSTORE PUSH1 0x15 PUSH1 0x24 DUP3 ADD MSTORE PUSH21 0x14185E5B595B9D081D1BDAD95B881B9BDD081CD95D PUSH1 0x5A SHL PUSH1 0x44 DUP3 ADD MSTORE PUSH1 0x64 SWAP1 REVERT JUMPDEST PUSH1 0x40 MLOAD PUSH3 0x461BCD PUSH1 0xE5 SHL DUP2 MSTORE PUSH1 0x20 PUSH1 0x4 DUP3 ADD MSTORE PUSH1 0x22 PUSH1 0x24 DUP3 ADD MSTORE PUSH32 0x546F74616C207072696365206D7573742062652067726561746572207468616E PUSH1 0x44 DUP3 ADD MSTORE PUSH2 0x203 PUSH1 0xF4 SHL PUSH1 0x64 DUP3 ADD MSTORE PUSH1 0x84 SWAP1 REVERT JUMPDEST DUP9 SWAP10 POP PUSH2 0x80B PUSH1 0x64 SWAP2 PUSH2 0x813 SWAP4 SWAP11 PUSH2 0x2523 JUMP JUMPDEST DIV DUP1 SWAP10 PUSH2 0x2543 JUMP JUMPDEST SWAP7 DUP12 PUSH2 0x486 JUMP JUMPDEST CALLVALUE PUSH2 0x1CB JUMPI PUSH2 0x1C9 PUSH2 0x82B CALLDATASIZE PUSH2 0x214F JUMP JUMPDEST SWAP1 PUSH2 0x834 PUSH2 0x2379 JUMP JUMPDEST DUP1 PUSH1 0x0 MSTORE PUSH1 0x9 PUSH1 0x20 MSTORE PUSH2 0x851 PUSH1 0xFF PUSH1 0x3 PUSH1 0x40 PUSH1 0x0 KECCAK256 ADD SLOAD AND PUSH2 0x2828 JUMP JUMPDEST PUSH2 0x28AC JUMP JUMPDEST CALLVALUE PUSH2 0x1CB JUMPI PUSH2 0x864 CALLDATASIZE PUSH2 0x224F JUMP JUMPDEST SWAP1 PUSH1 0x1 DUP1 PUSH1 0xA0 SHL SUB PUSH1 0x0 DUP1 MLOAD PUSH1 0x20 PUSH2 0x2B4D DUP4 CODECOPY DUP2 MLOAD SWAP2 MSTORE SLOAD AND CALLER EQ DUP1 ISZERO PUSH2 0xBB8 JUMPI JUMPDEST PUSH2 0x88F SWAP1 PUSH2 0x272F JUMP JUMPDEST DUP1 PUSH1 0x0 MSTORE PUSH1 0x2 PUSH1 0x20 MSTORE PUSH1 0x40 PUSH1 0x0 KECCAK256 SWAP1 DUP2 SLOAD PUSH1 0xFF DUP2 PUSH1 0xA0 SHR AND PUSH1 0x4 DUP2 LT ISZERO PUSH2 0x710 JUMPI PUSH2 0x8BA SWAP1 ISZERO PUSH2 0x276C JUMP JUMPDEST PUSH1 0xFF PUSH1 0xC DUP5 ADD SLOAD AND PUSH1 0x3 DUP2 LT ISZERO PUSH2 0x710 JUMPI PUSH2 0xB7A JUMPI PUSH2 0x8DB DUP5 MLOAD ISZERO ISZERO PUSH2 0x27AF JUMP JUMPDEST PUSH1 0xFF PUSH1 0xA0 SHL NOT AND PUSH1 0x1 PUSH1 0xA0 SHL OR DUP3 SSTORE PUSH1 0x7 DUP3 ADD SLOAD PUSH2 0x8F9 SWAP1 TIMESTAMP PUSH2 0x2536 JUMP JUMPDEST SWAP3 PUSH1 0x8 SLOAD SWAP4 PUSH2 0x907 DUP6 PUSH2 0x24A7 JUMP JUMPDEST PUSH1 0x8 SSTORE PUSH1 0x1 DUP1 PUSH1 0xA0 SHL SUB DUP5 SLOAD AND PUSH1 0x1 DUP6 ADD SLOAD PUSH1 0x2 DUP7 ADD SLOAD PUSH1 0x3 DUP8 ADD SLOAD SWAP1 PUSH1 0x4 DUP9 ADD SLOAD SWAP3 PUSH1 0x5 DUP10 ADD SLOAD SWAP5 PUSH1 0x6 DUP11 ADD SLOAD SWAP7 PUSH1 0x40 MLOAD SWAP10 PUSH2 0x943 DUP12 PUSH2 0x21DB JUMP JUMPDEST CALLER DUP12 MSTORE PUSH1 0x20 DUP12 ADD MSTORE DUP9 PUSH1 0x40 DUP12 ADD MSTORE PUSH1 0x1 PUSH1 0x60 DUP12 ADD MSTORE PUSH1 0x80 DUP11 ADD MSTORE PUSH1 0xA0 DUP10 ADD MSTORE DUP1 PUSH1 0xC0 DUP10 ADD MSTORE PUSH1 0xE0 DUP9 ADD MSTORE PUSH2 0x100 DUP8 ADD MSTORE PUSH2 0x120 DUP7 ADD MSTORE PUSH2 0x140 DUP6 ADD MSTORE PUSH2 0x160 DUP5 ADD MSTORE PUSH2 0x180 DUP4 ADD MSTORE DUP4 PUSH1 0x0 MSTORE PUSH1 0x9 PUSH1 0x20 MSTORE PUSH1 0x40 PUSH1 0x0 KECCAK256 PUSH1 0x1 DUP1 PUSH1 0xA0 SHL SUB DUP4 MLOAD AND PUSH1 0x1 PUSH1 0x1 PUSH1 0x60 SHL SUB PUSH1 0xA0 SHL DUP3 SLOAD AND OR DUP2 SSTORE PUSH1 0x20 DUP4 ADD MLOAD PUSH1 0x1 DUP3 ADD SSTORE PUSH1 0x40 DUP4 ADD MLOAD DUP1 MLOAD SWAP1 PUSH1 0x1 PUSH1 0x1 PUSH1 0x40 SHL SUB DUP3 GT PUSH2 0xB64 JUMPI PUSH1 0x1 PUSH1 0x40 SHL DUP3 GT PUSH2 0xB64 JUMPI PUSH1 0x2 DUP4 ADD SLOAD DUP3 PUSH1 0x2 DUP6 ADD SSTORE DUP1 DUP4 LT PUSH2 0xB37 JUMPI JUMPDEST POP PUSH1 0x20 ADD PUSH1 0x2 DUP4 ADD PUSH1 0x0 MSTORE PUSH1 0x20 PUSH1 0x0 KECCAK256 PUSH1 0x0 JUMPDEST DUP4 DUP2 LT PUSH2 0xB23 JUMPI POP POP POP POP PUSH1 0x3 DUP2 ADD PUSH1 0x60 DUP5 ADD MLOAD ISZERO ISZERO PUSH1 0xFF DUP1 NOT DUP4 SLOAD AND SWAP2 AND OR SWAP1 SSTORE PUSH1 0x80 DUP4 ADD MLOAD PUSH1 0x4 DUP3 ADD SSTORE PUSH1 0x5 DUP2 ADD PUSH1 0x1 DUP1 PUSH1 0xA0 SHL SUB PUSH1 0xA0 DUP6 ADD MLOAD AND PUSH1 0x1 PUSH1 0x1 PUSH1 0x60 SHL SUB PUSH1 0xA0 SHL DUP3 SLOAD AND OR SWAP1 SSTORE PUSH1 0xC0 DUP4 ADD MLOAD PUSH1 0x6 DUP3 ADD SSTORE PUSH1 0xE0 DUP4 ADD MLOAD PUSH1 0x7 DUP3 ADD SSTORE PUSH2 0x100 DUP4 ADD MLOAD PUSH1 0x8 DUP3 ADD SSTORE PUSH2 0x120 DUP4 ADD MLOAD PUSH1 0x9 DUP3 ADD SSTORE PUSH1 0xC PUSH2 0x180 PUSH2 0x140 DUP6 ADD MLOAD SWAP5 PUSH1 0xA SWAP6 DUP7 DUP6 ADD SSTORE PUSH2 0x160 DUP2 ADD MLOAD PUSH1 0xB DUP6 ADD SSTORE ADD MLOAD SWAP2 ADD SSTORE PUSH1 0x1 DUP4 ADD SLOAD PUSH1 0x0 MSTORE DUP2 PUSH1 0x20 MSTORE PUSH2 0xABA DUP5 PUSH1 0x40 PUSH1 0x0 KECCAK256 PUSH2 0x27EF JUMP JUMPDEST PUSH1 0x0 JUMPDEST DUP5 DUP3 MLOAD DUP3 LT ISZERO PUSH2 0xAF6 JUMPI POP DUP1 PUSH2 0xAD6 PUSH2 0xAF1 SWAP3 DUP5 PUSH2 0x2814 JUMP JUMPDEST MLOAD PUSH1 0x0 MSTORE DUP4 PUSH1 0x20 MSTORE PUSH2 0xAEC DUP7 PUSH1 0x40 PUSH1 0x0 KECCAK256 PUSH2 0x27EF JUMP JUMPDEST PUSH2 0x24A7 JUMP JUMPDEST PUSH2 0xABD JUMP JUMPDEST DUP1 PUSH1 0x9 DUP7 ADD SSTORE PUSH32 0xAF50E0923CF2EEDDA3DC56C3D4D73B4D920CEE133CD920FFB873DB233ABECB0C PUSH1 0x0 DUP1 LOG2 STOP JUMPDEST PUSH1 0x1 SWAP1 PUSH1 0x20 DUP5 MLOAD SWAP5 ADD SWAP4 DUP2 DUP5 ADD SSTORE ADD PUSH2 0xA05 JUMP JUMPDEST PUSH1 0x2 DUP5 ADD PUSH1 0x0 MSTORE PUSH1 0x20 PUSH1 0x0 KECCAK256 SWAP1 DUP4 DUP3 ADD JUMPDEST DUP2 DUP4 ADD DUP2 LT PUSH2 0xB58 JUMPI POP POP PUSH2 0x9F2 JUMP JUMPDEST PUSH1 0x0 DUP2 SSTORE PUSH1 0x1 ADD PUSH2 0xB48 JUMP JUMPDEST PUSH4 0x4E487B71 PUSH1 0xE0 SHL PUSH1 0x0 MSTORE PUSH1 0x41 PUSH1 0x4 MSTORE PUSH1 0x24 PUSH1 0x0 REVERT JUMPDEST PUSH1 0x40 MLOAD PUSH3 0x461BCD PUSH1 0xE5 SHL DUP2 MSTORE PUSH1 0x20 PUSH1 0x4 DUP3 ADD MSTORE PUSH1 0x16 PUSH1 0x24 DUP3 ADD MSTORE PUSH22 0x4F726465722074797065206D757374206265204E6577 PUSH1 0x50 SHL PUSH1 0x44 DUP3 ADD MSTORE PUSH1 0x64 SWAP1 REVERT JUMPDEST POP PUSH1 0xB SLOAD PUSH1 0x1 PUSH1 0x1 PUSH1 0xA0 SHL SUB AND CALLER EQ PUSH2 0x886 JUMP JUMPDEST CALLVALUE PUSH2 0x1CB JUMPI PUSH2 0xBDA CALLDATASIZE PUSH2 0x224F JUMP JUMPDEST PUSH2 0xBE2 PUSH2 0x2379 JUMP JUMPDEST DUP2 PUSH1 0x0 MSTORE PUSH1 0x9 PUSH1 0x20 MSTORE PUSH2 0xBFF PUSH1 0xFF PUSH1 0x3 PUSH1 0x40 PUSH1 0x0 KECCAK256 ADD SLOAD AND PUSH2 0x2828 JUMP JUMPDEST PUSH1 0x0 JUMPDEST DUP2 MLOAD DUP2 LT ISZERO PUSH2 0x1C9 JUMPI DUP1 PUSH2 0xAEC PUSH2 0xC1C PUSH2 0xC23 SWAP4 DUP6 PUSH2 0x2814 JUMP JUMPDEST MLOAD DUP6 PUSH2 0x28AC JUMP JUMPDEST PUSH2 0xC02 JUMP JUMPDEST CALLVALUE PUSH2 0x1CB JUMPI PUSH1 0x20 CALLDATASIZE PUSH1 0x3 NOT ADD SLT PUSH2 0x1CB JUMPI PUSH1 0x4 CALLDATALOAD PUSH1 0xD SLOAD DUP2 LT ISZERO PUSH2 0x1CB JUMPI PUSH2 0xC51 PUSH1 0x40 SWAP2 PUSH2 0x233F JUMP JUMPDEST POP PUSH1 0x1 DUP2 SLOAD SWAP2 ADD SLOAD DUP3 MLOAD SWAP2 DUP3 MSTORE PUSH1 0x20 DUP3 ADD MSTORE RETURN JUMPDEST CALLVALUE PUSH2 0x1CB JUMPI PUSH1 0xE0 CALLDATASIZE PUSH1 0x3 NOT ADD SLT PUSH2 0x1CB JUMPI PUSH1 0x4 CALLDATALOAD PUSH1 0x0 MSTORE PUSH1 0x9 PUSH1 0x20 MSTORE PUSH2 0xCB6 PUSH1 0x4 PUSH1 0x40 PUSH1 0x0 KECCAK256 PUSH2 0xCA2 PUSH1 0x1 DUP1 PUSH1 0xA0 SHL SUB PUSH1 0x5 DUP4 ADD SLOAD AND CALLER EQ PUSH2 0x26B1 JUMP JUMPDEST ADD SLOAD PUSH2 0xCAF TIMESTAMP DUP3 GT PUSH2 0x26F1 JUMP JUMPDEST TIMESTAMP SWAP1 PUSH2 0x2543 JUMP JUMPDEST PUSH2 0xD0C DUP2 PUSH2 0x46D PUSH2 0xCFE PUSH2 0xCF0 PUSH2 0xCE2 PUSH2 0xCD4 PUSH1 0x3 SLOAD PUSH1 0x24 CALLDATALOAD PUSH2 0x2523 JUMP JUMPDEST PUSH2 0x443 PUSH1 0x4 SLOAD PUSH1 0x44 CALLDATALOAD PUSH2 0x2523 JUMP JUMPDEST PUSH2 0x443 PUSH1 0x5 SLOAD PUSH1 0x64 CALLDATALOAD PUSH2 0x2523 JUMP JUMPDEST PUSH2 0x443 PUSH1 0x6 SLOAD PUSH1 0x84 CALLDATALOAD PUSH2 0x2523 JUMP JUMPDEST PUSH2 0x443 PUSH1 0x7 SLOAD PUSH1 0xA4 CALLDATALOAD PUSH2 0x2523 JUMP JUMPDEST PUSH2 0xD15 DUP3 PUSH2 0x24B6 JUMP JUMPDEST SWAP1 PUSH1 0x0 SWAP2 DUP1 PUSH2 0xEEF JUMPI JUMPDEST POP DUP1 ISZERO PUSH2 0x7A8 JUMPI PUSH1 0xC SLOAD PUSH1 0x1 PUSH1 0x1 PUSH1 0xA0 SHL SUB AND DUP1 ISZERO PUSH2 0x76B JUMPI PUSH1 0xC4 CALLDATALOAD DUP3 GT PUSH2 0x726 JUMPI PUSH1 0x40 MLOAD PUSH4 0x23B872DD PUSH1 0xE0 SHL PUSH1 0x20 DUP3 ADD MSTORE CALLER PUSH1 0x24 DUP3 ADD MSTORE ADDRESS PUSH1 0x44 DUP3 ADD MSTORE PUSH1 0x64 DUP1 DUP3 ADD DUP5 SWAP1 MSTORE DUP2 MSTORE PUSH2 0xD74 SWAP2 PUSH2 0x4D9 DUP3 PUSH2 0x21F7 JUMP JUMPDEST PUSH1 0x1 DUP1 PUSH1 0xA0 SHL SUB PUSH1 0xC SLOAD AND PUSH1 0x40 MLOAD SWAP4 PUSH2 0xD8C DUP6 PUSH2 0x2212 JUMP JUMPDEST CALLER DUP6 MSTORE PUSH1 0x0 PUSH1 0x20 DUP7 ADD MSTORE PUSH1 0x0 PUSH1 0x40 DUP7 ADD MSTORE PUSH1 0x24 CALLDATALOAD PUSH1 0x60 DUP7 ADD MSTORE PUSH1 0x44 CALLDATALOAD PUSH1 0x80 DUP7 ADD MSTORE PUSH1 0x64 CALLDATALOAD PUSH1 0xA0 DUP7 ADD MSTORE PUSH1 0x84 CALLDATALOAD PUSH1 0xC0 DUP7 ADD MSTORE PUSH1 0xA4 CALLDATALOAD PUSH1 0xE0 DUP7 ADD MSTORE PUSH2 0x100 DUP6 ADD MSTORE PUSH2 0x120 DUP5 ADD MSTORE PUSH1 0x4 CALLDATALOAD PUSH2 0x140 DUP5 ADD MSTORE DUP1 PUSH2 0x160 DUP5 ADD MSTORE DUP2 PUSH2 0x180 DUP5 ADD MSTORE PUSH1 0x2 PUSH2 0x1A0 DUP5 ADD MSTORE PUSH1 0x1 SLOAD PUSH1 0x0 MSTORE PUSH1 0x2 PUSH1 0x20 MSTORE PUSH1 0x40 PUSH1 0x0 KECCAK256 PUSH1 0x1 DUP1 PUSH1 0xA0 SHL SUB DUP5 MLOAD AND SWAP1 PUSH1 0x1 PUSH1 0x1 PUSH1 0x60 SHL SUB PUSH1 0xA0 SHL SWAP2 DUP3 DUP3 SLOAD AND OR DUP2 SSTORE PUSH1 0x20 DUP6 ADD MLOAD SWAP1 PUSH1 0x4 DUP3 LT ISZERO PUSH2 0x710 JUMPI PUSH2 0x1A0 SWAP3 PUSH2 0xE3D PUSH1 0xC SWAP4 DUP4 PUSH2 0x2550 JUMP JUMPDEST PUSH1 0x40 DUP8 ADD MLOAD PUSH1 0x1 DUP4 ADD SSTORE PUSH1 0x60 DUP8 ADD MLOAD PUSH1 0x2 DUP4 ADD SSTORE PUSH1 0x80 DUP8 ADD MLOAD PUSH1 0x3 DUP4 ADD SSTORE PUSH1 0xA0 DUP8 ADD MLOAD PUSH1 0x4 DUP4 ADD SSTORE PUSH1 0xC0 DUP8 ADD MLOAD PUSH1 0x5 DUP4 ADD SSTORE PUSH1 0xE0 DUP8 ADD MLOAD PUSH1 0x6 DUP4 ADD SSTORE PUSH2 0x100 DUP8 ADD MLOAD PUSH1 0x7 DUP4 ADD SSTORE PUSH1 0x8 DUP3 ADD SWAP1 PUSH1 0x1 DUP1 PUSH1 0xA0 SHL SUB PUSH2 0x120 DUP10 ADD MLOAD AND SWAP1 DUP3 SLOAD AND OR SWAP1 SSTORE PUSH2 0x140 DUP7 ADD MLOAD PUSH1 0x9 DUP3 ADD SSTORE PUSH2 0x160 DUP7 ADD MLOAD PUSH1 0xA DUP3 ADD SSTORE PUSH2 0x180 DUP7 ADD MLOAD PUSH1 0xB DUP3 ADD SSTORE ADD SWAP4 ADD MLOAD SWAP3 PUSH1 0x3 DUP5 LT ISZERO PUSH2 0x710 JUMPI PUSH2 0xEEA SWAP4 PUSH1 0xFF DUP1 NOT DUP4 SLOAD AND SWAP2 AND OR SWAP1 SSTORE PUSH2 0x648 PUSH1 0x1 SLOAD SWAP3 DUP3 PUSH2 0x2536 JUMP JUMPDEST PUSH1 0x1 SSTORE STOP JUMPDEST DUP2 SWAP3 POP PUSH2 0xF01 PUSH1 0x64 SWAP2 PUSH2 0xF09 SWAP4 PUSH2 0x2523 JUMP JUMPDEST DIV DUP1 SWAP3 PUSH2 0x2543 JUMP JUMPDEST DUP4 PUSH2 0xD1F JUMP JUMPDEST CALLVALUE PUSH2 0x1CB JUMPI PUSH1 0x20 CALLDATASIZE PUSH1 0x3 NOT ADD SLT PUSH2 0x1CB JUMPI PUSH1 0x0 DUP1 MLOAD PUSH1 0x20 PUSH2 0x2B4D DUP4 CODECOPY DUP2 MLOAD SWAP2 MSTORE SLOAD PUSH1 0x4 CALLDATALOAD SWAP1 PUSH2 0xF53 SWAP1 CALLER PUSH1 0x1 PUSH1 0x1 PUSH1 0xA0 SHL SUB SWAP2 DUP3 AND EQ SWAP1 DUP2 ISZERO PUSH2 0x10D1 JUMPI JUMPDEST POP PUSH2 0x272F JUMP JUMPDEST DUP1 PUSH1 0x0 MSTORE PUSH1 0x2 PUSH1 0x20 MSTORE PUSH1 0x40 PUSH1 0x0 KECCAK256 DUP1 SLOAD PUSH1 0xFF DUP2 PUSH1 0xA0 SHR AND PUSH1 0x4 DUP2 LT ISZERO PUSH2 0x710 JUMPI PUSH2 0xF7D SWAP1 ISZERO PUSH2 0x276C JUMP JUMPDEST PUSH1 0xFF PUSH1 0xC DUP4 ADD SLOAD AND PUSH1 0x3 DUP2 LT ISZERO PUSH2 0x710 JUMPI PUSH1 0x2 SUB PUSH2 0x108C JUMPI PUSH1 0x9 DUP3 ADD SLOAD SWAP1 DUP2 ISZERO PUSH2 0x1053 JUMPI PUSH1 0x1 PUSH1 0xA0 SHL SWAP1 PUSH1 0xFF PUSH1 0xA0 SHL NOT AND OR DUP3 SSTORE PUSH1 0x0 MSTORE PUSH1 0x9 PUSH1 0x20 MSTORE PUSH2 0x102A PUSH1 0xC PUSH1 0x6 PUSH1 0x40 PUSH1 0x0 KECCAK256 SWAP4 PUSH1 0x2 DUP2 ADD SLOAD PUSH2 0xFDA PUSH1 0x8 DUP8 ADD SWAP2 DUP3 SLOAD PUSH2 0x2536 JUMP JUMPDEST SWAP1 SSTORE PUSH1 0x3 DUP2 ADD SLOAD PUSH2 0xFF0 PUSH1 0x9 DUP8 ADD SWAP2 DUP3 SLOAD PUSH2 0x2536 JUMP JUMPDEST SWAP1 SSTORE PUSH1 0x4 DUP2 ADD SLOAD PUSH2 0x1006 PUSH1 0xA DUP8 ADD SWAP2 DUP3 SLOAD PUSH2 0x2536 JUMP JUMPDEST SWAP1 SSTORE PUSH1 0x5 DUP2 ADD SLOAD PUSH2 0x101C PUSH1 0xB DUP8 ADD SWAP2 DUP3 SLOAD PUSH2 0x2536 JUMP JUMPDEST SWAP1 SSTORE ADD SLOAD SWAP3 ADD SWAP2 DUP3 SLOAD PUSH2 0x2536 JUMP JUMPDEST SWAP1 SSTORE PUSH32 0xAF50E0923CF2EEDDA3DC56C3D4D73B4D920CEE133CD920FFB873DB233ABECB0C PUSH1 0x0 DUP1 LOG2 STOP JUMPDEST PUSH1 0x40 MLOAD PUSH3 0x461BCD PUSH1 0xE5 SHL DUP2 MSTORE PUSH1 0x20 PUSH1 0x4 DUP3 ADD MSTORE PUSH1 0x11 PUSH1 0x24 DUP3 ADD MSTORE PUSH17 0x125B9D985B1A590818DB1D5CDD195C9259 PUSH1 0x7A SHL PUSH1 0x44 DUP3 ADD MSTORE PUSH1 0x64 SWAP1 REVERT JUMPDEST PUSH1 0x40 MLOAD PUSH3 0x461BCD PUSH1 0xE5 SHL DUP2 MSTORE PUSH1 0x20 PUSH1 0x4 DUP3 ADD MSTORE PUSH1 0x18 PUSH1 0x24 DUP3 ADD MSTORE PUSH32 0x4F726465722074797065206D757374206265205363616C650000000000000000 PUSH1 0x44 DUP3 ADD MSTORE PUSH1 0x64 SWAP1 REVERT JUMPDEST SWAP1 POP PUSH1 0xB SLOAD AND CALLER EQ DUP4 PUSH2 0xF4D JUMP JUMPDEST CALLVALUE PUSH2 0x1CB JUMPI PUSH2 0x100 CALLDATASIZE PUSH1 0x3 NOT ADD SLT PUSH2 0x1CB JUMPI PUSH2 0x1117 PUSH2 0x110E PUSH2 0xCFE PUSH2 0xCF0 PUSH2 0xCE2 PUSH2 0xCD4 PUSH1 0x3 SLOAD PUSH1 0x24 CALLDATALOAD PUSH2 0x2523 JUMP JUMPDEST PUSH1 0xC4 CALLDATALOAD SWAP1 PUSH2 0x2523 JUMP JUMPDEST PUSH2 0x1122 PUSH1 0xC4 CALLDATALOAD PUSH2 0x24B6 JUMP JUMPDEST PUSH1 0x0 SWAP1 DUP1 PUSH2 0x124E JUMPI JUMPDEST POP DUP2 ISZERO PUSH2 0x7A8 JUMPI PUSH1 0xC SLOAD PUSH1 0x1 PUSH1 0x1 PUSH1 0xA0 SHL SUB AND DUP1 ISZERO PUSH2 0x76B JUMPI PUSH1 0xE4 CALLDATALOAD DUP4 GT PUSH2 0x726 JUMPI PUSH1 0x40 MLOAD PUSH4 0x23B872DD PUSH1 0xE0 SHL PUSH1 0x20 DUP3 ADD MSTORE CALLER PUSH1 0x24 DUP3 ADD MSTORE ADDRESS PUSH1 0x44 DUP3 ADD MSTORE PUSH1 0x64 DUP1 DUP3 ADD DUP6 SWAP1 MSTORE DUP2 MSTORE PUSH2 0x1180 SWAP2 PUSH2 0x4D9 DUP3 PUSH2 0x21F7 JUMP JUMPDEST PUSH1 0xC SLOAD PUSH1 0x40 MLOAD SWAP3 SWAP1 PUSH1 0x1 PUSH1 0x1 PUSH1 0xA0 SHL SUB AND PUSH2 0x119A DUP5 PUSH2 0x2212 JUMP JUMPDEST CALLER DUP5 MSTORE PUSH1 0x0 PUSH1 0x20 DUP6 ADD MSTORE PUSH1 0x4 CALLDATALOAD PUSH1 0x40 DUP6 ADD MSTORE PUSH1 0x24 CALLDATALOAD PUSH1 0x60 DUP6 ADD MSTORE PUSH1 0x44 CALLDATALOAD PUSH1 0x80 DUP6 ADD MSTORE PUSH1 0x64 CALLDATALOAD PUSH1 0xA0 DUP6 ADD MSTORE PUSH1 0x84 CALLDATALOAD PUSH1 0xC0 DUP6 ADD MSTORE PUSH1 0xA4 CALLDATALOAD PUSH1 0xE0 DUP6 ADD MSTORE PUSH1 0xC4 CALLDATALOAD PUSH2 0x100 DUP6 ADD MSTORE PUSH2 0x120 DUP5 ADD MSTORE PUSH1 0x0 PUSH2 0x140 DUP5 ADD MSTORE DUP1 PUSH2 0x160 DUP5 ADD MSTORE DUP2 PUSH2 0x180 DUP5 ADD MSTORE PUSH1 0x0 PUSH2 0x1A0 DUP5 ADD MSTORE PUSH1 0x1 SLOAD PUSH1 0x0 MSTORE PUSH1 0x2 PUSH1 0x20 MSTORE PUSH1 0x40 PUSH1 0x0 KECCAK256 PUSH1 0x1 DUP1 PUSH1 0xA0 SHL SUB DUP5 MLOAD AND SWAP1 PUSH1 0x1 PUSH1 0x1 PUSH1 0x60 SHL SUB PUSH1 0xA0 SHL SWAP2 DUP3 DUP3 SLOAD AND OR DUP2 SSTORE PUSH1 0x20 DUP6 ADD MLOAD SWAP1 PUSH1 0x4 DUP3 LT ISZERO PUSH2 0x710 JUMPI PUSH2 0x1A0 SWAP3 PUSH2 0xE3D PUSH1 0xC SWAP4 DUP4 PUSH2 0x2550 JUMP JUMPDEST PUSH2 0x125F SWAP2 POP PUSH2 0xF01 PUSH1 0x64 SWAP2 DUP5 PUSH2 0x2523 JUMP JUMPDEST SWAP1 DUP3 PUSH2 0x112B JUMP JUMPDEST CALLVALUE PUSH2 0x1CB JUMPI PUSH1 0x20 CALLDATASIZE PUSH1 0x3 NOT ADD SLT PUSH2 0x1CB JUMPI PUSH2 0x127F PUSH2 0x21AF JUMP JUMPDEST PUSH2 0x1287 PUSH2 0x2379 JUMP JUMPDEST PUSH1 0xB DUP1 SLOAD PUSH1 0x1 PUSH1 0x1 PUSH1 0xA0 SHL SUB NOT AND PUSH1 0x1 PUSH1 0x1 PUSH1 0xA0 SHL SUB SWAP3 SWAP1 SWAP3 AND SWAP2 DUP3 OR SWAP1 SSTORE PUSH32 0xB3B3F5F64AB192E4B5FEFDE1F51CE9733BBDCF831951543B325AEBD49CC27EC4 PUSH1 0x0 DUP1 LOG2 STOP JUMPDEST CALLVALUE PUSH2 0x1CB JUMPI PUSH1 0x20 CALLDATASIZE PUSH1 0x3 NOT ADD SLT PUSH2 0x1CB JUMPI PUSH1 0x4 CALLDATALOAD PUSH1 0x0 MSTORE PUSH1 0x2 PUSH1 0x20 MSTORE PUSH1 0x40 PUSH1 0x0 KECCAK256 DUP1 SLOAD PUSH1 0x1 DUP3 ADD SLOAD SWAP2 PUSH1 0x2 DUP2 ADD SLOAD PUSH1 0x3 DUP3 ADD SLOAD PUSH1 0x4 DUP4 ADD SLOAD PUSH1 0x5 DUP5 ADD SLOAD PUSH1 0x6 DUP6 ADD SLOAD PUSH1 0x7 DUP7 ADD SLOAD SWAP2 PUSH1 0x1 DUP1 PUSH1 0xA0 SHL SUB PUSH1 0x8 DUP9 ADD SLOAD AND SWAP4 PUSH1 0x9 DUP9 ADD SLOAD SWAP6 PUSH1 0xA DUP10 ADD SLOAD SWAP8 PUSH1 0xFF PUSH1 0xC PUSH1 0xB DUP13 ADD SLOAD SWAP12 ADD SLOAD AND SWAP12 PUSH1 0x40 MLOAD SWAP12 PUSH1 0x1 DUP1 PUSH1 0xA0 SHL SUB DUP2 AND DUP14 MSTORE PUSH1 0x4 PUSH1 0xFF DUP3 PUSH1 0xA0 SHR AND LT ISZERO PUSH2 0x710 JUMPI PUSH1 0xFF SWAP1 PUSH1 0xA0 SHR AND PUSH1 0x20 DUP14 ADD MSTORE PUSH1 0x40 DUP13 ADD MSTORE PUSH1 0x60 DUP12 ADD MSTORE PUSH1 0x80 DUP11 ADD MSTORE PUSH1 0xA0 DUP10 ADD MSTORE PUSH1 0xC0 DUP9 ADD MSTORE PUSH1 0xE0 DUP8 ADD MSTORE PUSH2 0x100 DUP7 ADD MSTORE PUSH2 0x120 DUP6 ADD MSTORE PUSH2 0x140 DUP5 ADD MSTORE PUSH2 0x160 DUP4 ADD MSTORE PUSH2 0x180 DUP3 ADD MSTORE PUSH1 0x3 DUP3 LT ISZERO PUSH2 0x710 JUMPI PUSH2 0x1C0 SWAP2 PUSH2 0x1A0 DUP3 ADD MSTORE RETURN JUMPDEST CALLVALUE PUSH2 0x1CB JUMPI PUSH2 0x13C6 CALLDATASIZE PUSH2 0x214F JUMP JUMPDEST SWAP1 PUSH1 0x0 MSTORE PUSH1 0xA PUSH1 0x20 MSTORE PUSH1 0x40 PUSH1 0x0 KECCAK256 DUP1 SLOAD DUP3 LT ISZERO PUSH2 0x1CB JUMPI PUSH1 0x20 SWAP2 PUSH2 0x13E9 SWAP2 PUSH2 0x2311 JUMP JUMPDEST SWAP1 SLOAD PUSH1 0x40 MLOAD SWAP2 PUSH1 0x3 SHL SHR DUP2 MSTORE RETURN JUMPDEST CALLVALUE PUSH2 0x1CB JUMPI PUSH1 0x20 CALLDATASIZE PUSH1 0x3 NOT ADD SLT PUSH2 0x1CB JUMPI PUSH1 0x4 CALLDATALOAD PUSH1 0x0 MSTORE PUSH1 0x9 PUSH1 0x20 MSTORE PUSH2 0x180 PUSH1 0x40 PUSH1 0x0 KECCAK256 PUSH1 0x1 DUP1 PUSH1 0xA0 SHL SUB DUP1 DUP3 SLOAD AND SWAP2 PUSH1 0x1 DUP2 ADD SLOAD SWAP2 PUSH1 0xFF PUSH1 0x3 DUP4 ADD SLOAD AND SWAP1 PUSH1 0x4 DUP4 ADD SLOAD SWAP1 PUSH1 0x5 DUP5 ADD SLOAD AND PUSH1 0x6 DUP5 ADD SLOAD PUSH1 0x7 DUP6 ADD SLOAD SWAP1 PUSH1 0x8 DUP7 ADD SLOAD SWAP3 PUSH1 0x9 DUP8 ADD SLOAD SWAP5 PUSH1 0xA DUP9 ADD SLOAD SWAP7 PUSH1 0xC PUSH1 0xB DUP11 ADD SLOAD SWAP10 ADD SLOAD SWAP10 PUSH1 0x40 MLOAD SWAP12 DUP13 MSTORE PUSH1 0x20 DUP13 ADD MSTORE ISZERO ISZERO PUSH1 0x40 DUP12 ADD MSTORE PUSH1 0x60 DUP11 ADD MSTORE PUSH1 0x80 DUP10 ADD MSTORE PUSH1 0xA0 DUP9 ADD MSTORE PUSH1 0xC0 DUP8 ADD MSTORE PUSH1 0xE0 DUP7 ADD MSTORE PUSH2 0x100 DUP6 ADD MSTORE PUSH2 0x120 DUP5 ADD MSTORE PUSH2 0x140 DUP4 ADD MSTORE PUSH2 0x160 DUP3 ADD MSTORE RETURN JUMPDEST CALLVALUE PUSH2 0x1CB JUMPI PUSH1 0x20 CALLDATASIZE PUSH1 0x3 NOT ADD SLT PUSH2 0x1CB JUMPI PUSH1 0x4 CALLDATALOAD PUSH1 0x0 MSTORE PUSH1 0xA PUSH1 0x20 MSTORE PUSH2 0x3B3 PUSH2 0x14DB PUSH1 0x40 PUSH1 0x0 KECCAK256 PUSH2 0x2A37 JUMP JUMPDEST PUSH1 0x40 MLOAD SWAP2 DUP3 SWAP2 DUP3 PUSH2 0x22D6 JUMP JUMPDEST CALLVALUE PUSH2 0x1CB JUMPI PUSH1 0x0 CALLDATASIZE PUSH1 0x3 NOT ADD SLT PUSH2 0x1CB JUMPI PUSH1 0x0 DUP1 MLOAD PUSH1 0x20 PUSH2 0x2B4D DUP4 CODECOPY DUP2 MLOAD SWAP2 MSTORE SLOAD PUSH1 0x40 MLOAD PUSH1 0x1 PUSH1 0x1 PUSH1 0xA0 SHL SUB SWAP1 SWAP2 AND DUP2 MSTORE PUSH1 0x20 SWAP1 RETURN JUMPDEST CALLVALUE PUSH2 0x1CB JUMPI PUSH1 0xA0 CALLDATASIZE PUSH1 0x3 NOT ADD SLT PUSH2 0x1CB JUMPI PUSH32 0xC05D384D96751CCDCD49A1246E85CF2131EF23BBBE94DFFE94B22A352DED9685 PUSH1 0x24 CALLDATALOAD PUSH1 0x4 CALLDATALOAD PUSH2 0x15CE PUSH1 0x84 CALLDATALOAD PUSH1 0x64 CALLDATALOAD PUSH1 0x44 CALLDATALOAD PUSH2 0x1569 PUSH2 0x2379 JUMP JUMPDEST DUP3 PUSH1 0x80 PUSH1 0x40 MLOAD PUSH2 0x1578 DUP2 PUSH2 0x21F7 JUMP JUMPDEST DUP8 DUP2 MSTORE DUP9 PUSH1 0x20 DUP3 ADD MSTORE DUP4 PUSH1 0x40 DUP3 ADD MSTORE DUP5 PUSH1 0x60 DUP3 ADD MSTORE ADD MSTORE DUP5 PUSH1 0x3 SSTORE DUP6 PUSH1 0x4 SSTORE DUP1 PUSH1 0x5 SSTORE DUP2 PUSH1 0x6 SSTORE DUP3 PUSH1 0x7 SSTORE PUSH1 0x40 MLOAD SWAP6 DUP7 SWAP6 DUP7 SWAP2 SWAP3 PUSH1 0x80 SWAP4 SWAP7 SWAP6 SWAP5 SWAP2 SWAP7 PUSH1 0xA0 DUP5 ADD SWAP8 DUP5 MSTORE PUSH1 0x20 DUP5 ADD MSTORE PUSH1 0x40 DUP4 ADD MSTORE PUSH1 0x60 DUP3 ADD MSTORE ADD MSTORE JUMP JUMPDEST SUB SWAP1 LOG1 STOP JUMPDEST CALLVALUE PUSH2 0x1CB JUMPI PUSH1 0x0 CALLDATASIZE PUSH1 0x3 NOT ADD SLT PUSH2 0x1CB JUMPI PUSH2 0x15EC PUSH2 0x2379 JUMP JUMPDEST PUSH1 0x0 DUP1 MLOAD PUSH1 0x20 PUSH2 0x2B4D DUP4 CODECOPY DUP2 MLOAD SWAP2 MSTORE DUP1 SLOAD PUSH1 0x1 PUSH1 0x1 PUSH1 0xA0 SHL SUB NOT DUP2 AND SWAP1 SWAP2 SSTORE PUSH1 0x0 SWAP1 PUSH1 0x1 PUSH1 0x1 PUSH1 0xA0 SHL SUB AND PUSH32 0x8BE0079C531659141344CD1FD0A4F28419497F9722A3DAAFE3B4186F6B6457E0 DUP3 DUP1 LOG3 STOP JUMPDEST CALLVALUE PUSH2 0x1CB JUMPI PUSH1 0x20 CALLDATASIZE PUSH1 0x3 NOT ADD SLT PUSH2 0x1CB JUMPI PUSH2 0x1656 PUSH2 0x21AF JUMP JUMPDEST PUSH2 0x165E PUSH2 0x2379 JUMP JUMPDEST PUSH1 0xC DUP1 SLOAD PUSH1 0x1 PUSH1 0x1 PUSH1 0xA0 SHL SUB NOT AND PUSH1 0x1 PUSH1 0x1 PUSH1 0xA0 SHL SUB SWAP3 SWAP1 SWAP3 AND SWAP2 SWAP1 SWAP2 OR SWAP1 SSTORE STOP JUMPDEST CALLVALUE PUSH2 0x1CB JUMPI PUSH1 0x0 CALLDATASIZE PUSH1 0x3 NOT ADD SLT PUSH2 0x1CB JUMPI PUSH1 0xB SLOAD PUSH1 0x40 MLOAD PUSH1 0x1 PUSH1 0x1 PUSH1 0xA0 SHL SUB SWAP1 SWAP2 AND DUP2 MSTORE PUSH1 0x20 SWAP1 RETURN JUMPDEST CALLVALUE PUSH2 0x1CB JUMPI PUSH2 0x16B7 CALLDATASIZE PUSH2 0x214F JUMP JUMPDEST SWAP1 DUP1 PUSH1 0x0 MSTORE PUSH1 0x9 PUSH1 0x20 MSTORE DUP2 PUSH1 0x7 PUSH1 0x40 PUSH1 0x0 KECCAK256 PUSH2 0x16DD PUSH1 0x1 DUP1 PUSH1 0xA0 SHL SUB DUP3 SLOAD AND CALLER EQ PUSH2 0x26B1 JUMP JUMPDEST PUSH2 0x16EC PUSH1 0x4 DUP3 ADD SLOAD TIMESTAMP LT PUSH2 0x26F1 JUMP JUMPDEST ADD DUP1 SLOAD DUP1 PUSH2 0x1714 JUMPI JUMPDEST POP SSTORE DUP2 PUSH2 0x16FE JUMPI STOP JUMPDEST PUSH2 0x1C9 SWAP2 PUSH1 0x0 MSTORE PUSH1 0xA PUSH1 0x20 MSTORE PUSH1 0x40 PUSH1 0x0 KECCAK256 PUSH2 0x27EF JUMP JUMPDEST PUSH1 0x0 SWAP1 DUP2 MSTORE PUSH1 0xA PUSH1 0x20 MSTORE PUSH1 0x40 DUP2 KECCAK256 SWAP4 SWAP3 POP JUMPDEST DUP4 SLOAD DUP6 DUP2 DUP4 LT ISZERO PUSH2 0x17B2 JUMPI POP DUP4 PUSH2 0x173D DUP4 DUP8 PUSH2 0x2311 JUMP JUMPDEST SWAP2 SWAP1 SLOAD PUSH1 0x3 SWAP3 DUP4 SHL SHR EQ PUSH2 0x175B JUMPI POP POP PUSH2 0x1756 SWAP1 PUSH2 0x24A7 JUMP JUMPDEST PUSH2 0x1726 JUMP JUMPDEST SWAP4 SWAP5 SWAP2 SWAP4 PUSH1 0x0 NOT DUP3 ADD SWAP3 SWAP2 DUP4 GT PUSH2 0x6FA JUMPI DUP7 SWAP5 PUSH2 0x178E PUSH2 0x17A7 SWAP3 PUSH2 0x1782 PUSH2 0x17AC SWAP7 DUP7 PUSH2 0x2311 JUMP JUMPDEST SWAP1 SLOAD SWAP2 SHL SHR SWAP2 DUP5 PUSH2 0x2311 JUMP JUMPDEST SWAP1 SWAP2 SWAP1 DUP3 SLOAD SWAP1 PUSH1 0x3 SHL SWAP2 DUP3 SHL SWAP2 PUSH1 0x0 NOT SWAP1 SHL NOT AND OR SWAP1 SSTORE JUMP JUMPDEST PUSH2 0x286C JUMP JUMPDEST DUP5 PUSH2 0x16F5 JUMP JUMPDEST SWAP4 SWAP5 POP POP POP PUSH2 0x17AC JUMP JUMPDEST CALLVALUE PUSH2 0x1CB JUMPI PUSH1 0x20 CALLDATASIZE PUSH1 0x3 NOT ADD SLT PUSH2 0x1CB JUMPI PUSH1 0x4 CALLDATALOAD PUSH1 0x2 PUSH1 0x0 SLOAD EQ PUSH2 0x18FE JUMPI PUSH1 0x2 PUSH1 0x0 SSTORE DUP1 PUSH1 0x0 MSTORE PUSH1 0x2 PUSH1 0x20 MSTORE PUSH1 0x40 PUSH1 0x0 KECCAK256 SWAP1 DUP2 SLOAD PUSH1 0xFF DUP2 PUSH1 0xA0 SHR AND PUSH1 0x4 DUP2 LT ISZERO PUSH2 0x710 JUMPI PUSH2 0x180A SWAP1 ISZERO PUSH2 0x276C JUMP JUMPDEST PUSH1 0x1 PUSH1 0x1 PUSH1 0xA0 SHL SUB DUP2 DUP2 AND SWAP2 CALLER DUP4 SUB PUSH2 0x18C7 JUMPI PUSH1 0xFF PUSH1 0xA0 SHL NOT AND PUSH1 0x1 PUSH1 0xA1 SHL OR DUP5 SSTORE PUSH1 0x40 MLOAD SWAP3 CALLER SWAP1 PUSH32 0x9384174C8517F5537B08E79211FC039E8A098571A3A2B4CB21DFA6F3237E8DE1 PUSH1 0x0 DUP1 LOG3 PUSH1 0xA DUP5 ADD SLOAD SWAP3 DUP4 ISZERO PUSH2 0x1879 JUMPI POP PUSH1 0x8 PUSH2 0x1872 SWAP5 ADD SLOAD AND PUSH2 0x29E8 JUMP JUMPDEST PUSH1 0x1 PUSH1 0x0 SSTORE STOP JUMPDEST PUSH3 0x461BCD PUSH1 0xE5 SHL DUP2 MSTORE PUSH1 0x20 PUSH1 0x4 DUP3 ADD MSTORE PUSH1 0x24 DUP1 DUP3 ADD MSTORE PUSH32 0x526566756E6420616D6F756E74206D7573742062652067726561746572207468 PUSH1 0x44 DUP3 ADD MSTORE PUSH4 0x616E203 PUSH1 0xE4 SHL PUSH1 0x64 DUP3 ADD MSTORE PUSH1 0x84 SWAP1 REVERT JUMPDEST PUSH1 0x40 MLOAD PUSH3 0x461BCD PUSH1 0xE5 SHL DUP2 MSTORE PUSH1 0x20 PUSH1 0x4 DUP3 ADD MSTORE PUSH1 0xF PUSH1 0x24 DUP3 ADD MSTORE PUSH15 0x2737BA1037B93232B91037BBB732B9 PUSH1 0x89 SHL PUSH1 0x44 DUP3 ADD MSTORE PUSH1 0x64 SWAP1 REVERT JUMPDEST PUSH1 0x40 MLOAD PUSH4 0x3EE5AEB5 PUSH1 0xE0 SHL DUP2 MSTORE PUSH1 0x4 SWAP1 REVERT JUMPDEST CALLVALUE PUSH2 0x1CB JUMPI PUSH2 0x191E CALLDATASIZE PUSH2 0x224F JUMP JUMPDEST PUSH2 0x1926 PUSH2 0x2379 JUMP JUMPDEST DUP2 PUSH1 0x0 MSTORE PUSH1 0x9 SWAP1 PUSH1 0x20 SWAP1 DUP3 DUP3 MSTORE PUSH2 0x1947 PUSH1 0xFF PUSH1 0x3 PUSH1 0x40 PUSH1 0x0 KECCAK256 ADD SLOAD AND PUSH2 0x2828 JUMP JUMPDEST DUP1 MLOAD ISZERO PUSH2 0x19DD JUMPI PUSH1 0x0 JUMPDEST DUP2 MLOAD DUP2 LT ISZERO PUSH2 0x19A6 JUMPI PUSH2 0x19A1 SWAP1 DUP6 PUSH1 0x0 MSTORE DUP5 DUP5 MSTORE PUSH2 0x1981 PUSH1 0x2 PUSH1 0x40 PUSH1 0x0 KECCAK256 ADD PUSH2 0x197A DUP4 DUP7 PUSH2 0x2814 JUMP JUMPDEST MLOAD SWAP1 PUSH2 0x27EF JUMP JUMPDEST PUSH2 0x198B DUP2 DUP5 PUSH2 0x2814 JUMP JUMPDEST MLOAD PUSH1 0x0 MSTORE PUSH1 0xA DUP5 MSTORE PUSH2 0xAEC DUP7 PUSH1 0x40 PUSH1 0x0 KECCAK256 PUSH2 0x27EF JUMP JUMPDEST PUSH2 0x1951 JUMP JUMPDEST DUP5 PUSH32 0xA80B5484EB9AAC37D936EFC3D8E24049008B11E89DAA6495D318BAF3105FF563 PUSH2 0x19D8 DUP5 PUSH1 0x40 MLOAD SWAP2 DUP3 SWAP2 DUP3 PUSH2 0x22D6 JUMP JUMPDEST SUB SWAP1 LOG2 STOP JUMPDEST PUSH1 0x40 MLOAD PUSH3 0x461BCD PUSH1 0xE5 SHL DUP2 MSTORE PUSH1 0x4 DUP2 ADD DUP4 SWAP1 MSTORE PUSH1 0x14 PUSH1 0x24 DUP3 ADD MSTORE PUSH20 0x139BC81B9BD9194812541CC81C1C9BDD9A591959 PUSH1 0x62 SHL PUSH1 0x44 DUP3 ADD MSTORE PUSH1 0x64 SWAP1 REVERT JUMPDEST CALLVALUE PUSH2 0x1CB JUMPI PUSH1 0x0 CALLDATASIZE PUSH1 0x3 NOT ADD SLT PUSH2 0x1CB JUMPI PUSH1 0x20 PUSH1 0x8 SLOAD PUSH1 0x40 MLOAD SWAP1 DUP2 MSTORE RETURN JUMPDEST CALLVALUE PUSH2 0x1CB JUMPI PUSH1 0x60 CALLDATASIZE PUSH1 0x3 NOT ADD SLT PUSH2 0x1CB JUMPI PUSH2 0x1C9 PUSH2 0x1A53 PUSH2 0x21AF JUMP JUMPDEST PUSH2 0x1A5B PUSH2 0x21C5 JUMP JUMPDEST PUSH2 0x1A63 PUSH2 0x2379 JUMP JUMPDEST PUSH1 0x44 CALLDATALOAD SWAP2 PUSH1 0x1 PUSH1 0x1 PUSH1 0xA0 SHL SUB AND PUSH2 0x29E8 JUMP JUMPDEST CALLVALUE PUSH2 0x1CB JUMPI PUSH1 0x40 CALLDATASIZE PUSH1 0x3 NOT ADD SLT PUSH2 0x1CB JUMPI PUSH1 0x4 CALLDATALOAD PUSH1 0x24 CALLDATALOAD PUSH1 0x1 PUSH1 0x1 PUSH1 0x40 SHL SUB DUP2 GT PUSH2 0x1CB JUMPI PUSH2 0x1AA8 SWAP1 CALLDATASIZE SWAP1 PUSH1 0x4 ADD PUSH2 0x217F JUMP JUMPDEST SWAP1 PUSH2 0x1AD4 PUSH1 0x1 DUP1 PUSH1 0xA0 SHL SUB DUP1 PUSH1 0x0 DUP1 MLOAD PUSH1 0x20 PUSH2 0x2B4D DUP4 CODECOPY DUP2 MLOAD SWAP2 MSTORE SLOAD AND CALLER EQ SWAP1 DUP2 ISZERO PUSH2 0x1C0C JUMPI POP PUSH2 0x272F JUMP JUMPDEST DUP3 PUSH1 0x0 MSTORE PUSH1 0x20 SWAP2 PUSH1 0x9 DUP4 MSTORE PUSH1 0x40 PUSH1 0x0 KECCAK256 SWAP3 PUSH1 0x4 DUP5 ADD SLOAD TIMESTAMP LT PUSH2 0x1BD2 JUMPI PUSH2 0x1AFE DUP3 SWAP5 SWAP4 SWAP5 ISZERO ISZERO PUSH2 0x27AF JUMP JUMPDEST PUSH1 0x2 PUSH1 0x0 SWAP4 ADD SWAP3 JUMPDEST DUP4 SLOAD DUP2 LT ISZERO PUSH2 0x1B32 JUMPI DUP1 PUSH2 0xAEC PUSH2 0x1B20 PUSH2 0x1B2D SWAP4 DUP8 PUSH2 0x2311 JUMP JUMPDEST SWAP1 SLOAD SWAP1 PUSH1 0x3 SHL SHR DUP9 PUSH2 0x28AC JUMP JUMPDEST PUSH2 0x1B06 JUMP JUMPDEST POP DUP4 DUP6 SWAP4 PUSH1 0x0 JUMPDEST DUP5 DUP2 LT PUSH2 0x1B93 JUMPI POP POP PUSH1 0x40 MLOAD DUP3 DUP2 MSTORE SWAP2 DUP3 ADD DUP4 SWAP1 MSTORE PUSH1 0x1 PUSH1 0x1 PUSH1 0xFB SHL SUB DUP4 GT PUSH2 0x1CB JUMPI DUP2 PUSH1 0x40 SWAP2 PUSH32 0xA80B5484EB9AAC37D936EFC3D8E24049008B11E89DAA6495D318BAF3105FF563 SWAP5 PUSH1 0x5 SHL DUP1 SWAP2 DUP5 DUP5 ADD CALLDATACOPY DUP2 ADD SUB ADD SWAP1 LOG2 STOP JUMPDEST DUP1 PUSH2 0x1BAC PUSH2 0x1BA5 PUSH2 0x1BCD SWAP4 DUP9 DUP8 PUSH2 0x2B3C JUMP JUMPDEST CALLDATALOAD DUP5 PUSH2 0x27EF JUMP JUMPDEST PUSH2 0x1BB7 DUP2 DUP8 DUP7 PUSH2 0x2B3C JUMP JUMPDEST CALLDATALOAD PUSH1 0x0 MSTORE PUSH1 0xA DUP6 MSTORE PUSH2 0xAEC DUP8 PUSH1 0x40 PUSH1 0x0 KECCAK256 PUSH2 0x27EF JUMP JUMPDEST PUSH2 0x1B39 JUMP JUMPDEST PUSH1 0x64 SWAP1 PUSH1 0x40 MLOAD SWAP1 PUSH3 0x461BCD PUSH1 0xE5 SHL DUP3 MSTORE PUSH1 0x4 DUP3 ADD MSTORE PUSH1 0x13 PUSH1 0x24 DUP3 ADD MSTORE PUSH19 0x10DB1D5CDD195C881B9BDD08195E1C1A5C9959 PUSH1 0x6A SHL PUSH1 0x44 DUP3 ADD MSTORE REVERT JUMPDEST SWAP1 POP PUSH1 0xB SLOAD AND CALLER EQ DUP6 PUSH2 0xF4D JUMP JUMPDEST CALLVALUE PUSH2 0x1CB JUMPI PUSH1 0x0 CALLDATASIZE PUSH1 0x3 NOT ADD SLT PUSH2 0x1CB JUMPI PUSH1 0xC SLOAD PUSH1 0x40 MLOAD PUSH1 0x1 PUSH1 0x1 PUSH1 0xA0 SHL SUB SWAP1 SWAP2 AND DUP2 MSTORE PUSH1 0x20 SWAP1 RETURN JUMPDEST CALLVALUE PUSH2 0x1CB JUMPI PUSH1 0x0 CALLDATASIZE PUSH1 0x3 NOT ADD SLT PUSH2 0x1CB JUMPI PUSH1 0x20 PUSH1 0x1 SLOAD PUSH1 0x40 MLOAD SWAP1 DUP2 MSTORE RETURN JUMPDEST CALLVALUE PUSH2 0x1CB JUMPI PUSH1 0x20 DUP1 PUSH1 0x3 NOT CALLDATASIZE ADD SLT PUSH2 0x1CB JUMPI PUSH1 0x4 CALLDATALOAD PUSH1 0x1 PUSH1 0x1 PUSH1 0x40 SHL SUB DUP2 GT PUSH2 0x1CB JUMPI PUSH2 0x1C92 SWAP1 CALLDATASIZE SWAP1 PUSH1 0x4 ADD PUSH2 0x217F JUMP JUMPDEST SWAP1 PUSH1 0x0 JUMPDEST DUP3 DUP2 LT PUSH2 0x1C9F JUMPI STOP JUMPDEST PUSH2 0x1CAA DUP2 DUP5 DUP5 PUSH2 0x2B3C JUMP JUMPDEST CALLDATALOAD DUP1 PUSH1 0x0 MSTORE PUSH1 0x9 DUP6 MSTORE PUSH1 0x40 PUSH1 0x0 KECCAK256 SWAP1 PUSH1 0x3 DUP1 DUP4 ADD DUP1 SLOAD PUSH1 0xFF DUP2 AND DUP1 PUSH2 0x1D7C JUMPI JUMPDEST PUSH2 0x1CE2 JUMPI JUMPDEST POP POP POP POP POP PUSH2 0x1CDD SWAP1 PUSH2 0x24A7 JUMP JUMPDEST PUSH2 0x1C96 JUMP JUMPDEST PUSH1 0xFF NOT AND SWAP1 SSTORE SWAP2 SWAP6 SWAP3 SWAP5 SWAP1 SWAP4 SWAP2 SWAP3 PUSH1 0x2 DUP8 ADD SWAP3 SWAP2 PUSH1 0x0 JUMPDEST DUP5 SLOAD DUP2 LT ISZERO PUSH2 0x1D24 JUMPI DUP1 PUSH2 0xAEC PUSH2 0x1D13 PUSH2 0x1D1F SWAP4 DUP9 PUSH2 0x2311 JUMP JUMPDEST SWAP1 SLOAD SWAP1 DUP10 SHL SHR DUP10 PUSH2 0x28AC JUMP JUMPDEST PUSH2 0x1CF9 JUMP JUMPDEST POP SWAP6 SWAP3 POP SWAP6 PUSH2 0x1CDD SWAP4 POP PUSH1 0x7 SWAP1 SWAP5 SWAP2 SWAP5 ADD SLOAD DUP1 PUSH2 0x1D6C JUMPI JUMPDEST POP PUSH32 0x8C459D0832B883BF56848F326554CD247915959623CB54C5B5BFC6CECDB39A65 PUSH1 0x0 DUP1 LOG2 SWAP1 DUP6 DUP1 DUP1 DUP1 PUSH2 0x1CCF JUMP JUMPDEST PUSH2 0x1D76 SWAP1 DUP3 PUSH2 0x28AC JUMP JUMPDEST DUP7 PUSH2 0x1D3C JUMP JUMPDEST POP PUSH1 0x4 DUP6 ADD SLOAD TIMESTAMP LT ISZERO PUSH2 0x1CCA JUMP JUMPDEST CALLVALUE PUSH2 0x1CB JUMPI PUSH1 0x20 PUSH2 0x1DA3 PUSH2 0x1D9D CALLDATASIZE PUSH2 0x214F JUMP JUMPDEST SWAP1 PUSH2 0x2A86 JUMP JUMPDEST PUSH1 0x40 MLOAD SWAP1 ISZERO ISZERO DUP2 MSTORE RETURN JUMPDEST CALLVALUE PUSH2 0x1CB JUMPI PUSH1 0x20 CALLDATASIZE PUSH1 0x3 NOT ADD SLT PUSH2 0x1CB JUMPI PUSH1 0x20 PUSH2 0x1DCB PUSH1 0x4 CALLDATALOAD PUSH2 0x24B6 JUMP JUMPDEST PUSH1 0x40 MLOAD SWAP1 DUP2 MSTORE RETURN JUMPDEST CALLVALUE PUSH2 0x1CB JUMPI PUSH2 0x1DE1 CALLDATASIZE PUSH2 0x2165 JUMP JUMPDEST SWAP2 SWAP1 PUSH2 0x1DEB PUSH2 0x2379 JUMP JUMPDEST PUSH1 0xD SLOAD DUP3 LT ISZERO PUSH2 0x1E4D JUMPI DUP3 DUP1 PUSH1 0x1 PUSH2 0x1E3D PUSH1 0x40 SWAP6 PUSH2 0x1E2C PUSH1 0x64 PUSH32 0xBB2DE15B1FDAE29C27610CB7A0E84F181F8DF2E1C704E762073D7292F65E74EF SWAP10 LT PUSH2 0x2467 JUMP JUMPDEST DUP6 PUSH2 0x1E36 DUP3 PUSH2 0x233F JUMP JUMPDEST POP SSTORE PUSH2 0x233F JUMP JUMPDEST POP ADD SSTORE DUP3 MLOAD SWAP2 DUP3 MSTORE PUSH1 0x20 DUP3 ADD MSTORE LOG1 STOP JUMPDEST PUSH1 0x40 MLOAD PUSH3 0x461BCD PUSH1 0xE5 SHL DUP2 MSTORE PUSH1 0x20 PUSH1 0x4 DUP3 ADD MSTORE PUSH1 0x16 PUSH1 0x24 DUP3 ADD MSTORE PUSH22 0x92DCECC2D8D2C840C8D2E6C6DEEADCE840D2DCC8CAF PUSH1 0x53 SHL PUSH1 0x44 DUP3 ADD MSTORE PUSH1 0x64 SWAP1 REVERT JUMPDEST CALLVALUE PUSH2 0x1CB JUMPI PUSH2 0x1E99 CALLDATASIZE PUSH2 0x214F JUMP JUMPDEST PUSH2 0x1EA1 PUSH2 0x2379 JUMP JUMPDEST PUSH2 0x1EAD PUSH1 0x64 DUP3 LT PUSH2 0x2467 JUMP JUMPDEST PUSH1 0x40 MLOAD SWAP2 PUSH1 0x40 DUP4 ADD DUP4 DUP2 LT PUSH1 0x1 PUSH1 0x1 PUSH1 0x40 SHL SUB DUP3 GT OR PUSH2 0xB64 JUMPI PUSH1 0x40 MSTORE DUP1 DUP4 MSTORE PUSH1 0x20 DUP4 ADD SWAP2 DUP1 DUP4 MSTORE PUSH1 0xD SLOAD PUSH1 0x1 PUSH1 0x40 SHL DUP2 LT ISZERO PUSH2 0xB64 JUMPI DUP1 PUSH1 0x1 PUSH2 0x1EF4 SWAP3 ADD PUSH1 0xD SSTORE PUSH2 0x233F JUMP JUMPDEST PUSH2 0x1F33 JUMPI PUSH1 0x1 PUSH1 0x40 SWAP5 PUSH32 0xBB2DE15B1FDAE29C27610CB7A0E84F181F8DF2E1C704E762073D7292F65E74EF SWAP7 MLOAD DUP4 SSTORE MLOAD SWAP2 ADD SSTORE DUP3 MLOAD SWAP2 DUP3 MSTORE PUSH1 0x20 DUP3 ADD MSTORE LOG1 STOP JUMPDEST PUSH4 0x4E487B71 PUSH1 0xE0 SHL PUSH1 0x0 MSTORE PUSH1 0x0 PUSH1 0x4 MSTORE PUSH1 0x24 PUSH1 0x0 REVERT JUMPDEST CALLVALUE PUSH2 0x1CB JUMPI PUSH1 0x20 CALLDATASIZE PUSH1 0x3 NOT ADD SLT PUSH2 0x1CB JUMPI PUSH2 0x180 DUP2 PUSH2 0x1F69 PUSH1 0x0 SWAP4 PUSH2 0x21DB JUMP JUMPDEST DUP3 DUP2 MSTORE DUP3 PUSH1 0x20 DUP3 ADD MSTORE PUSH1 0x60 PUSH1 0x40 DUP3 ADD MSTORE DUP3 PUSH1 0x60 DUP3 ADD MSTORE DUP3 PUSH1 0x80 DUP3 ADD MSTORE DUP3 PUSH1 0xA0 DUP3 ADD MSTORE DUP3 PUSH1 0xC0 DUP3 ADD MSTORE DUP3 PUSH1 0xE0 DUP3 ADD MSTORE DUP3 PUSH2 0x100 DUP3 ADD MSTORE DUP3 PUSH2 0x120 DUP3 ADD MSTORE DUP3 PUSH2 0x140 DUP3 ADD MSTORE DUP3 PUSH2 0x160 DUP3 ADD MSTORE ADD MSTORE PUSH1 0x4 CALLDATALOAD PUSH1 0x0 MSTORE PUSH1 0x9 PUSH1 0x20 MSTORE PUSH1 0x40 PUSH1 0x0 KECCAK256 PUSH1 0xC PUSH1 0x40 MLOAD SWAP2 PUSH2 0x1FD4 DUP4 PUSH2 0x21DB JUMP JUMPDEST DUP1 SLOAD PUSH1 0x1 PUSH1 0x1 PUSH1 0xA0 SHL SUB AND DUP4 MSTORE PUSH1 0x1 DUP2 ADD SLOAD PUSH1 0x20 DUP5 ADD MSTORE PUSH2 0x1FF7 PUSH1 0x2 DUP3 ADD PUSH2 0x2A37 JUMP JUMPDEST PUSH1 0x40 DUP5 ADD MSTORE PUSH1 0xFF PUSH1 0x3 DUP3 ADD SLOAD AND ISZERO ISZERO PUSH1 0x60 DUP5 ADD MSTORE PUSH1 0x4 DUP2 ADD SLOAD PUSH1 0x80 DUP5 ADD MSTORE PUSH1 0x1 DUP1 PUSH1 0xA0 SHL SUB PUSH1 0x5 DUP3 ADD SLOAD AND PUSH1 0xA0 DUP5 ADD MSTORE PUSH1 0x6 DUP2 ADD SLOAD PUSH1 0xC0 DUP5 ADD MSTORE PUSH1 0x7 DUP2 ADD SLOAD PUSH1 0xE0 DUP5 ADD MSTORE PUSH1 0x8 DUP2 ADD SLOAD PUSH2 0x100 DUP5 ADD MSTORE PUSH1 0x9 DUP2 ADD SLOAD PUSH2 0x120 DUP5 ADD MSTORE PUSH1 0xA DUP2 ADD SLOAD PUSH2 0x140 DUP5 ADD MSTORE PUSH1 0xB DUP2 ADD SLOAD PUSH2 0x160 DUP5 ADD MSTORE ADD SLOAD PUSH2 0x180 DUP3 ADD MSTORE PUSH1 0x40 MLOAD PUSH1 0x20 DUP2 MSTORE PUSH1 0x1 DUP1 PUSH1 0xA0 SHL SUB DUP3 MLOAD AND PUSH1 0x20 DUP3 ADD MSTORE PUSH1 0x20 DUP3 ADD MLOAD PUSH1 0x40 DUP3 ADD MSTORE PUSH1 0x40 DUP3 ADD MLOAD PUSH2 0x1A0 PUSH1 0x60 DUP4 ADD MSTORE PUSH2 0x1C0 DUP3 ADD DUP2 MLOAD DUP1 SWAP2 MSTORE PUSH1 0x20 PUSH2 0x1E0 DUP5 ADD SWAP3 ADD SWAP1 PUSH1 0x0 JUMPDEST DUP2 DUP2 LT PUSH2 0x2139 JUMPI POP POP POP PUSH2 0x180 DUP4 PUSH1 0x60 DUP5 SWAP6 ADD MLOAD ISZERO ISZERO PUSH1 0x80 DUP6 ADD MSTORE PUSH1 0x80 DUP2 ADD MLOAD PUSH1 0xA0 DUP6 ADD MSTORE PUSH1 0x1 DUP1 PUSH1 0xA0 SHL SUB PUSH1 0xA0 DUP3 ADD MLOAD AND PUSH1 0xC0 DUP6 ADD MSTORE PUSH1 0xC0 DUP2 ADD MLOAD PUSH1 0xE0 DUP6 ADD MSTORE PUSH1 0xE0 DUP2 ADD MLOAD PUSH2 0x100 DUP6 ADD MSTORE PUSH2 0x100 DUP2 ADD MLOAD PUSH2 0x120 DUP6 ADD MSTORE PUSH2 0x120 DUP2 ADD MLOAD PUSH2 0x140 DUP6 ADD MSTORE PUSH2 0x140 DUP2 ADD MLOAD PUSH2 0x160 DUP6 ADD MSTORE PUSH2 0x160 DUP2 ADD MLOAD DUP3 DUP6 ADD MSTORE ADD MLOAD PUSH2 0x1A0 DUP4 ADD MSTORE SUB SWAP1 RETURN JUMPDEST DUP3 MLOAD DUP5 MSTORE PUSH1 0x20 SWAP4 DUP5 ADD SWAP4 SWAP1 SWAP3 ADD SWAP2 PUSH1 0x1 ADD PUSH2 0x20B3 JUMP JUMPDEST PUSH1 0x40 SWAP1 PUSH1 0x3 NOT ADD SLT PUSH2 0x1CB JUMPI PUSH1 0x4 CALLDATALOAD SWAP1 PUSH1 0x24 CALLDATALOAD SWAP1 JUMP JUMPDEST PUSH1 0x60 SWAP1 PUSH1 0x3 NOT ADD SLT PUSH2 0x1CB JUMPI PUSH1 0x4 CALLDATALOAD SWAP1 PUSH1 0x24 CALLDATALOAD SWAP1 PUSH1 0x44 CALLDATALOAD SWAP1 JUMP JUMPDEST SWAP2 DUP2 PUSH1 0x1F DUP5 ADD SLT ISZERO PUSH2 0x1CB JUMPI DUP3 CALLDATALOAD SWAP2 PUSH1 0x1 PUSH1 0x1 PUSH1 0x40 SHL SUB DUP4 GT PUSH2 0x1CB JUMPI PUSH1 0x20 DUP1 DUP6 ADD SWAP5 DUP5 PUSH1 0x5 SHL ADD ADD GT PUSH2 0x1CB JUMPI JUMP JUMPDEST PUSH1 0x4 CALLDATALOAD SWAP1 PUSH1 0x1 PUSH1 0x1 PUSH1 0xA0 SHL SUB DUP3 AND DUP3 SUB PUSH2 0x1CB JUMPI JUMP JUMPDEST PUSH1 0x24 CALLDATALOAD SWAP1 PUSH1 0x1 PUSH1 0x1 PUSH1 0xA0 SHL SUB DUP3 AND DUP3 SUB PUSH2 0x1CB JUMPI JUMP JUMPDEST PUSH2 0x1A0 DUP2 ADD SWAP1 DUP2 LT PUSH1 0x1 PUSH1 0x1 PUSH1 0x40 SHL SUB DUP3 GT OR PUSH2 0xB64 JUMPI PUSH1 0x40 MSTORE JUMP JUMPDEST PUSH1 0xA0 DUP2 ADD SWAP1 DUP2 LT PUSH1 0x1 PUSH1 0x1 PUSH1 0x40 SHL SUB DUP3 GT OR PUSH2 0xB64 JUMPI PUSH1 0x40 MSTORE JUMP JUMPDEST PUSH2 0x1C0 DUP2 ADD SWAP1 DUP2 LT PUSH1 0x1 PUSH1 0x1 PUSH1 0x40 SHL SUB DUP3 GT OR PUSH2 0xB64 JUMPI PUSH1 0x40 MSTORE JUMP JUMPDEST SWAP1 PUSH1 0x1F DUP1 NOT SWAP2 ADD AND DUP2 ADD SWAP1 DUP2 LT PUSH1 0x1 PUSH1 0x1 PUSH1 0x40 SHL SUB DUP3 GT OR PUSH2 0xB64 JUMPI PUSH1 0x40 MSTORE JUMP JUMPDEST SWAP1 PUSH1 0x40 PUSH1 0x3 NOT DUP4 ADD SLT PUSH2 0x1CB JUMPI PUSH1 0x4 CALLDATALOAD SWAP2 PUSH1 0x24 CALLDATALOAD SWAP1 PUSH1 0x1 PUSH1 0x1 PUSH1 0x40 SHL SUB SWAP1 DUP2 DUP4 GT PUSH2 0x1CB JUMPI DUP1 PUSH1 0x23 DUP5 ADD SLT ISZERO PUSH2 0x1CB JUMPI DUP3 PUSH1 0x4 ADD CALLDATALOAD SWAP2 DUP3 GT PUSH2 0xB64 JUMPI DUP2 PUSH1 0x5 SHL PUSH1 0x40 MLOAD SWAP4 PUSH1 0x20 SWAP4 PUSH2 0x22A2 DUP6 DUP5 ADD DUP8 PUSH2 0x222E JUMP JUMPDEST DUP6 MSTORE PUSH1 0x24 DUP5 DUP7 ADD SWAP3 DUP3 ADD ADD SWAP3 DUP4 GT PUSH2 0x1CB JUMPI PUSH1 0x24 ADD SWAP1 JUMPDEST DUP3 DUP3 LT PUSH2 0x22C7 JUMPI POP POP POP POP SWAP1 JUMP JUMPDEST DUP2 CALLDATALOAD DUP2 MSTORE SWAP1 DUP4 ADD SWAP1 DUP4 ADD PUSH2 0x22B9 JUMP JUMPDEST PUSH1 0x20 SWAP1 DUP2 PUSH1 0x40 DUP2 DUP4 ADD SWAP3 DUP3 DUP2 MSTORE DUP6 MLOAD DUP1 SWAP5 MSTORE ADD SWAP4 ADD SWAP2 PUSH1 0x0 JUMPDEST DUP3 DUP2 LT PUSH2 0x22FD JUMPI POP POP POP POP SWAP1 JUMP JUMPDEST DUP4 MLOAD DUP6 MSTORE SWAP4 DUP2 ADD SWAP4 SWAP3 DUP2 ADD SWAP3 PUSH1 0x1 ADD PUSH2 0x22EF JUMP JUMPDEST DUP1 SLOAD DUP3 LT ISZERO PUSH2 0x2329 JUMPI PUSH1 0x0 MSTORE PUSH1 0x20 PUSH1 0x0 KECCAK256 ADD SWAP1 PUSH1 0x0 SWAP1 JUMP JUMPDEST PUSH4 0x4E487B71 PUSH1 0xE0 SHL PUSH1 0x0 MSTORE PUSH1 0x32 PUSH1 0x4 MSTORE PUSH1 0x24 PUSH1 0x0 REVERT JUMPDEST PUSH1 0xD SLOAD DUP2 LT ISZERO PUSH2 0x2329 JUMPI PUSH1 0xD PUSH1 0x0 MSTORE PUSH1 0x1 SHL PUSH32 0xD7B6990105719101DABEB77144F2A3385C8033ACD3AF97E9423A695E81AD1EB5 ADD SWAP1 PUSH1 0x0 SWAP1 JUMP JUMPDEST PUSH1 0x0 DUP1 MLOAD PUSH1 0x20 PUSH2 0x2B4D DUP4 CODECOPY DUP2 MLOAD SWAP2 MSTORE SLOAD PUSH1 0x1 PUSH1 0x1 PUSH1 0xA0 SHL SUB AND CALLER SUB PUSH2 0x239A JUMPI JUMP JUMPDEST PUSH1 0x40 MLOAD PUSH4 0x118CDAA7 PUSH1 0xE0 SHL DUP2 MSTORE CALLER PUSH1 0x4 DUP3 ADD MSTORE PUSH1 0x24 SWAP1 REVERT JUMPDEST PUSH1 0x1 PUSH1 0x1 PUSH1 0xA0 SHL SUB SWAP1 DUP2 AND SWAP1 DUP2 ISZERO PUSH2 0x240D JUMPI PUSH1 0x0 DUP1 MLOAD PUSH1 0x20 PUSH2 0x2B4D DUP4 CODECOPY DUP2 MLOAD SWAP2 MSTORE DUP1 SLOAD PUSH1 0x1 PUSH1 0x1 PUSH1 0xA0 SHL SUB NOT DUP2 AND DUP5 OR SWAP1 SWAP2 SSTORE AND PUSH32 0x8BE0079C531659141344CD1FD0A4F28419497F9722A3DAAFE3B4186F6B6457E0 PUSH1 0x0 DUP1 LOG3 JUMP JUMPDEST PUSH1 0x40 MLOAD PUSH4 0x1E4FBDF7 PUSH1 0xE0 SHL DUP2 MSTORE PUSH1 0x0 PUSH1 0x4 DUP3 ADD MSTORE PUSH1 0x24 SWAP1 REVERT JUMPDEST PUSH1 0xFF PUSH32 0xF0C57E16840DF040F15088DC2F81FE391C3923BEC73E23A9662EFC9C229C6A00 SLOAD PUSH1 0x40 SHR AND ISZERO PUSH2 0x2455 JUMPI JUMP JUMPDEST PUSH1 0x40 MLOAD PUSH4 0x1AFCD79F PUSH1 0xE3 SHL DUP2 MSTORE PUSH1 0x4 SWAP1 REVERT JUMPDEST ISZERO PUSH2 0x246E JUMPI JUMP JUMPDEST PUSH1 0x40 MLOAD PUSH3 0x461BCD PUSH1 0xE5 SHL DUP2 MSTORE PUSH1 0x20 PUSH1 0x4 DUP3 ADD MSTORE PUSH1 0x11 PUSH1 0x24 DUP3 ADD MSTORE PUSH17 0x88D2E6C6DEEADCE840E8DEDE40D0D2CED PUSH1 0x7B SHL PUSH1 0x44 DUP3 ADD MSTORE PUSH1 0x64 SWAP1 REVERT JUMPDEST PUSH1 0x0 NOT DUP2 EQ PUSH2 0x6FA JUMPI PUSH1 0x1 ADD SWAP1 JUMP JUMPDEST PUSH1 0xD SLOAD PUSH1 0x0 SWAP2 DUP3 JUMPDEST DUP3 DUP2 LT PUSH2 0x24CB JUMPI POP POP POP SWAP1 JUMP JUMPDEST PUSH2 0x24D4 DUP2 PUSH2 0x233F JUMP JUMPDEST POP SLOAD DUP3 LT ISZERO DUP1 PUSH2 0x250D JUMPI JUMPDEST PUSH2 0x24F2 JUMPI JUMPDEST PUSH2 0x24ED SWAP1 PUSH2 0x24A7 JUMP JUMPDEST PUSH2 0x24BE JUMP JUMPDEST SWAP3 POP PUSH2 0x24ED PUSH1 0x1 PUSH2 0x2502 DUP6 PUSH2 0x233F JUMP JUMPDEST POP ADD SLOAD SWAP4 SWAP1 POP PUSH2 0x24E4 JUMP JUMPDEST POP DUP4 PUSH1 0x1 PUSH2 0x251A DUP4 PUSH2 0x233F JUMP JUMPDEST POP ADD SLOAD GT PUSH2 0x24DF JUMP JUMPDEST DUP2 DUP2 MUL SWAP3 SWAP2 DUP2 ISZERO SWAP2 DUP5 DIV EQ OR ISZERO PUSH2 0x6FA JUMPI JUMP JUMPDEST SWAP2 SWAP1 DUP3 ADD DUP1 SWAP3 GT PUSH2 0x6FA JUMPI JUMP JUMPDEST SWAP2 SWAP1 DUP3 SUB SWAP2 DUP3 GT PUSH2 0x6FA JUMPI JUMP JUMPDEST SWAP1 PUSH1 0x4 DUP2 LT ISZERO PUSH2 0x710 JUMPI DUP2 SLOAD PUSH1 0xFF PUSH1 0xA0 SHL NOT AND PUSH1 0xA0 SWAP2 SWAP1 SWAP2 SHL PUSH1 0xFF PUSH1 0xA0 SHL AND OR SWAP1 SSTORE JUMP JUMPDEST PUSH1 0x1 DUP1 PUSH1 0xA0 SHL SUB AND SWAP1 PUSH1 0x0 DUP1 DUP3 PUSH1 0x20 DUP3 SWAP5 MLOAD SWAP2 ADD DUP3 DUP7 GAS CALL RETURNDATASIZE ISZERO PUSH2 0x2642 JUMPI RETURNDATASIZE SWAP1 PUSH1 0x1 PUSH1 0x1 PUSH1 0x40 SHL SUB DUP3 GT PUSH2 0x262E JUMPI SWAP1 PUSH2 0x25CF SWAP2 PUSH1 0x40 MLOAD SWAP2 PUSH2 0x25BF PUSH1 0x20 PUSH1 0x1F NOT PUSH1 0x1F DUP5 ADD AND ADD DUP5 PUSH2 0x222E JUMP JUMPDEST DUP3 MSTORE RETURNDATASIZE DUP5 PUSH1 0x20 DUP5 ADD RETURNDATACOPY JUMPDEST DUP5 PUSH2 0x264E JUMP JUMPDEST SWAP1 DUP2 MLOAD SWAP2 DUP3 ISZERO ISZERO SWAP3 DUP4 PUSH2 0x25FF JUMPI JUMPDEST POP POP POP PUSH2 0x25E7 JUMPI POP JUMP JUMPDEST PUSH1 0x24 SWAP1 PUSH1 0x40 MLOAD SWAP1 PUSH4 0x5274AFE7 PUSH1 0xE0 SHL DUP3 MSTORE PUSH1 0x4 DUP3 ADD MSTORE REVERT JUMPDEST DUP2 SWAP3 SWAP4 POP SWAP1 PUSH1 0x20 SWAP2 DUP2 ADD SUB SLT PUSH2 0x262A JUMPI PUSH1 0x20 ADD MLOAD SWAP1 DUP2 ISZERO SWAP2 DUP3 ISZERO SUB PUSH2 0x2627 JUMPI POP CODESIZE DUP1 DUP1 PUSH2 0x25DD JUMP JUMPDEST DUP1 REVERT JUMPDEST POP DUP1 REVERT JUMPDEST PUSH4 0x4E487B71 PUSH1 0xE0 SHL DUP4 MSTORE PUSH1 0x41 PUSH1 0x4 MSTORE PUSH1 0x24 DUP4 REVERT JUMPDEST PUSH2 0x25CF SWAP1 PUSH1 0x60 SWAP1 PUSH2 0x25C9 JUMP JUMPDEST SWAP1 PUSH2 0x2675 JUMPI POP DUP1 MLOAD ISZERO PUSH2 0x2663 JUMPI DUP1 MLOAD SWAP1 PUSH1 0x20 ADD REVERT JUMPDEST PUSH1 0x40 MLOAD PUSH4 0xA12F521 PUSH1 0xE1 SHL DUP2 MSTORE PUSH1 0x4 SWAP1 REVERT JUMPDEST DUP2 MLOAD ISZERO DUP1 PUSH2 0x26A8 JUMPI JUMPDEST PUSH2 0x2686 JUMPI POP SWAP1 JUMP JUMPDEST PUSH1 0x40 MLOAD PUSH4 0x9996B315 PUSH1 0xE0 SHL DUP2 MSTORE PUSH1 0x1 PUSH1 0x1 PUSH1 0xA0 SHL SUB SWAP1 SWAP2 AND PUSH1 0x4 DUP3 ADD MSTORE PUSH1 0x24 SWAP1 REVERT JUMPDEST POP DUP1 EXTCODESIZE ISZERO PUSH2 0x267E JUMP JUMPDEST ISZERO PUSH2 0x26B8 JUMPI JUMP JUMPDEST PUSH1 0x40 MLOAD PUSH3 0x461BCD PUSH1 0xE5 SHL DUP2 MSTORE PUSH1 0x20 PUSH1 0x4 DUP3 ADD MSTORE PUSH1 0x11 PUSH1 0x24 DUP3 ADD MSTORE PUSH17 0x2737BA1031B63AB9BA32B91037BBB732B9 PUSH1 0x79 SHL PUSH1 0x44 DUP3 ADD MSTORE PUSH1 0x64 SWAP1 REVERT JUMPDEST ISZERO PUSH2 0x26F8 JUMPI JUMP JUMPDEST PUSH1 0x40 MLOAD PUSH3 0x461BCD PUSH1 0xE5 SHL DUP2 MSTORE PUSH1 0x20 PUSH1 0x4 DUP3 ADD MSTORE PUSH1 0xF PUSH1 0x24 DUP3 ADD MSTORE PUSH15 0x10DB1D5CDD195C88195E1C1A5C9959 PUSH1 0x8A SHL PUSH1 0x44 DUP3 ADD MSTORE PUSH1 0x64 SWAP1 REVERT JUMPDEST ISZERO PUSH2 0x2736 JUMPI JUMP JUMPDEST PUSH1 0x40 MLOAD PUSH3 0x461BCD PUSH1 0xE5 SHL DUP2 MSTORE PUSH1 0x20 PUSH1 0x4 DUP3 ADD MSTORE PUSH1 0xE PUSH1 0x24 DUP3 ADD MSTORE PUSH14 0x139BDD08185D5D1A1BDC9A5E9959 PUSH1 0x92 SHL PUSH1 0x44 DUP3 ADD MSTORE PUSH1 0x64 SWAP1 REVERT JUMPDEST ISZERO PUSH2 0x2773 JUMPI JUMP JUMPDEST PUSH1 0x40 MLOAD PUSH3 0x461BCD PUSH1 0xE5 SHL DUP2 MSTORE PUSH1 0x20 PUSH1 0x4 DUP3 ADD MSTORE PUSH1 0x14 PUSH1 0x24 DUP3 ADD MSTORE PUSH20 0x4F72646572206973206E6F742070656E64696E67 PUSH1 0x60 SHL PUSH1 0x44 DUP3 ADD MSTORE PUSH1 0x64 SWAP1 REVERT JUMPDEST ISZERO PUSH2 0x27B6 JUMPI JUMP JUMPDEST PUSH1 0x40 MLOAD PUSH3 0x461BCD PUSH1 0xE5 SHL DUP2 MSTORE PUSH1 0x20 PUSH1 0x4 DUP3 ADD MSTORE PUSH1 0x11 PUSH1 0x24 DUP3 ADD MSTORE PUSH17 0x139BD9194812541CC81C995C5D5A5C9959 PUSH1 0x7A SHL PUSH1 0x44 DUP3 ADD MSTORE PUSH1 0x64 SWAP1 REVERT JUMPDEST SWAP1 DUP2 SLOAD SWAP2 PUSH1 0x1 PUSH1 0x40 SHL DUP4 LT ISZERO PUSH2 0xB64 JUMPI DUP3 PUSH2 0x178E SWAP2 PUSH1 0x1 PUSH2 0x2812 SWAP6 ADD DUP2 SSTORE PUSH2 0x2311 JUMP JUMPDEST JUMP JUMPDEST DUP1 MLOAD DUP3 LT ISZERO PUSH2 0x2329 JUMPI PUSH1 0x20 SWAP2 PUSH1 0x5 SHL ADD ADD SWAP1 JUMP JUMPDEST ISZERO PUSH2 0x282F JUMPI JUMP JUMPDEST PUSH1 0x40 MLOAD PUSH3 0x461BCD PUSH1 0xE5 SHL DUP2 MSTORE PUSH1 0x20 PUSH1 0x4 DUP3 ADD MSTORE PUSH1 0x15 PUSH1 0x24 DUP3 ADD MSTORE PUSH21 0x436C7573746572206973206E6F7420616374697665 PUSH1 0x58 SHL PUSH1 0x44 DUP3 ADD MSTORE PUSH1 0x64 SWAP1 REVERT JUMPDEST DUP1 SLOAD SWAP1 DUP2 ISZERO PUSH2 0x2896 JUMPI PUSH1 0x0 NOT SWAP2 DUP3 ADD SWAP2 PUSH2 0x2886 DUP4 DUP4 PUSH2 0x2311 JUMP JUMPDEST SWAP1 SWAP2 DUP3 SLOAD SWAP2 PUSH1 0x3 SHL SHL NOT AND SWAP1 SSTORE SSTORE JUMP JUMPDEST PUSH4 0x4E487B71 PUSH1 0xE0 SHL PUSH1 0x0 MSTORE PUSH1 0x31 PUSH1 0x4 MSTORE PUSH1 0x24 PUSH1 0x0 REVERT JUMPDEST PUSH1 0x0 SWAP1 DUP1 DUP3 MSTORE PUSH1 0x9 PUSH1 0x20 MSTORE PUSH1 0x2 PUSH1 0x40 DUP4 KECCAK256 ADD SWAP3 DUP3 JUMPDEST DUP5 SLOAD DUP1 DUP3 LT ISZERO PUSH2 0x29DD JUMPI DUP3 SWAP1 PUSH2 0x28D7 DUP4 DUP9 PUSH2 0x2311 JUMP JUMPDEST SWAP3 SWAP1 SLOAD PUSH1 0x3 SWAP4 DUP5 SHL SHR EQ PUSH2 0x28F5 JUMPI POP POP PUSH2 0x28F0 SWAP1 PUSH2 0x24A7 JUMP JUMPDEST PUSH2 0x28C1 JUMP JUMPDEST PUSH1 0x0 SWAP7 SWAP4 SWAP5 SWAP6 SWAP7 NOT DUP2 ADD SWAP1 DUP2 GT PUSH2 0x29C9 JUMPI SWAP2 PUSH2 0x178E PUSH2 0x17A7 SWAP3 PUSH2 0x1782 DUP7 SWAP6 PUSH2 0x291C SWAP8 PUSH2 0x2311 JUMP JUMPDEST DUP1 DUP3 PUSH32 0x321612790897BD90D2D7B5818C7A2B9A734F3A4B5F70799C4991BA510DFD6074 DUP6 DUP1 LOG3 JUMPDEST DUP3 MSTORE PUSH1 0xA PUSH1 0x20 MSTORE PUSH1 0x40 DUP3 KECCAK256 SWAP1 DUP3 JUMPDEST DUP3 SLOAD DUP1 DUP3 LT ISZERO PUSH2 0x29C2 JUMPI DUP3 SWAP1 PUSH2 0x2967 DUP4 DUP7 PUSH2 0x2311 JUMP JUMPDEST SWAP3 SWAP1 SLOAD PUSH1 0x3 SWAP4 DUP5 SHL SHR EQ PUSH2 0x2985 JUMPI POP POP PUSH2 0x2980 SWAP1 PUSH2 0x24A7 JUMP JUMPDEST PUSH2 0x2951 JUMP JUMPDEST SWAP2 SWAP4 SWAP5 SWAP1 SWAP3 POP PUSH1 0x0 NOT DUP3 ADD SWAP2 DUP3 GT PUSH2 0x29AE JUMPI POP SWAP2 PUSH2 0x178E PUSH2 0x17A7 SWAP3 PUSH2 0x1782 DUP7 SWAP6 PUSH2 0x2812 SWAP8 PUSH2 0x2311 JUMP JUMPDEST PUSH4 0x4E487B71 PUSH1 0xE0 SHL DUP2 MSTORE PUSH1 0x11 PUSH1 0x4 MSTORE PUSH1 0x24 SWAP1 REVERT JUMPDEST POP POP POP POP POP JUMP JUMPDEST PUSH4 0x4E487B71 PUSH1 0xE0 SHL DUP8 MSTORE PUSH1 0x11 PUSH1 0x4 MSTORE PUSH1 0x24 DUP8 REVERT JUMPDEST POP POP SWAP1 SWAP2 SWAP3 POP PUSH2 0x2943 JUMP JUMPDEST PUSH1 0x40 MLOAD PUSH4 0xA9059CBB PUSH1 0xE0 SHL PUSH1 0x20 DUP3 ADD MSTORE PUSH1 0x1 PUSH1 0x1 PUSH1 0xA0 SHL SUB SWAP1 SWAP3 AND PUSH1 0x24 DUP4 ADD MSTORE PUSH1 0x44 DUP1 DUP4 ADD SWAP4 SWAP1 SWAP4 MSTORE SWAP2 DUP2 MSTORE PUSH1 0x80 DUP2 ADD SWAP2 PUSH1 0x1 PUSH1 0x1 PUSH1 0x40 SHL SUB DUP4 GT DUP3 DUP5 LT OR PUSH2 0xB64 JUMPI PUSH2 0x2812 SWAP3 PUSH1 0x40 MSTORE PUSH2 0x2574 JUMP JUMPDEST SWAP1 PUSH1 0x40 MLOAD SWAP2 DUP3 DUP2 SLOAD SWAP2 DUP3 DUP3 MSTORE PUSH1 0x20 SWAP3 DUP4 DUP4 ADD SWAP2 PUSH1 0x0 MSTORE DUP4 PUSH1 0x0 KECCAK256 SWAP4 PUSH1 0x0 SWAP1 JUMPDEST DUP3 DUP3 LT PUSH2 0x2A6C JUMPI POP POP POP PUSH2 0x2812 SWAP3 POP SUB DUP4 PUSH2 0x222E JUMP JUMPDEST DUP6 SLOAD DUP5 MSTORE PUSH1 0x1 SWAP6 DUP7 ADD SWAP6 DUP9 SWAP6 POP SWAP4 DUP2 ADD SWAP4 SWAP1 SWAP2 ADD SWAP1 PUSH2 0x2A56 JUMP JUMPDEST SWAP2 PUSH1 0x0 SWAP3 DUP4 MSTORE PUSH1 0x20 SWAP3 PUSH1 0xA DUP5 MSTORE PUSH1 0x40 SWAP1 PUSH2 0x2AA1 DUP3 DUP3 KECCAK256 PUSH2 0x2A37 JUMP JUMPDEST SWAP4 DUP2 MSTORE PUSH1 0xA DUP6 MSTORE PUSH2 0x2AB3 DUP3 DUP3 KECCAK256 PUSH2 0x2A37 JUMP JUMPDEST SWAP4 DUP2 SWAP1 JUMPDEST DUP1 MLOAD DUP3 LT ISZERO PUSH2 0x2B32 JUMPI DUP3 JUMPDEST DUP7 MLOAD DUP2 LT ISZERO PUSH2 0x2B21 JUMPI PUSH2 0x2AD5 DUP4 DUP4 PUSH2 0x2814 JUMP JUMPDEST MLOAD PUSH2 0x2AE0 DUP3 DUP10 PUSH2 0x2814 JUMP JUMPDEST MLOAD EQ PUSH2 0x2AF5 JUMPI JUMPDEST PUSH2 0x2AF0 SWAP1 PUSH2 0x24A7 JUMP JUMPDEST PUSH2 0x2AC2 JUMP JUMPDEST PUSH2 0x2AFF DUP4 DUP4 PUSH2 0x2814 JUMP JUMPDEST MLOAD DUP5 MSTORE PUSH1 0x9 DUP9 MSTORE PUSH1 0x4 DUP6 DUP6 KECCAK256 ADD SLOAD TIMESTAMP LT ISZERO PUSH2 0x2AE7 JUMPI POP POP POP POP POP SWAP2 POP POP PUSH1 0x1 SWAP1 JUMP JUMPDEST POP SWAP1 PUSH2 0x2B2C SWAP1 PUSH2 0x24A7 JUMP JUMPDEST SWAP1 PUSH2 0x2AB7 JUMP JUMPDEST POP POP SWAP3 POP POP SWAP2 POP SWAP1 JUMP JUMPDEST SWAP2 SWAP1 DUP2 LT ISZERO PUSH2 0x2329 JUMPI PUSH1 0x5 SHL ADD SWAP1 JUMP INVALID SWAP1 AND 0xD0 SWAP14 PUSH19 0xD40FDAE2FD8CEAC6B6234C7706214FD39C1CD1 0xE6 MULMOD LOG0 MSTORE DUP13 NOT SWAP4 STOP LOG2 PUSH5 0x6970667358 0x22 SLT KECCAK256 INVALID PUSH28 0xC9E9E7D7AADF4C7FD72DFA8AB5D19F65E599ED5DD8A01F0F6FA82A26 0xAA PREVRANDAO PUSH5 0x736F6C6343 STOP ADDMOD EQ STOP CALLER "
        },
        "methodIdentifiers": {
          "addDiscount(uint256,uint256)": "0ab68776",
          "addNodesToCluster(uint256,uint256[])": "4ffadbce",
          "areNodesInAnySameCluster(uint256,uint256)": "1e672888",
          "cancelOrder(uint256)": "514fcac7",
          "clusters(uint256)": "919500c0",
          "confirmOrder(uint256,uint256[])": "c0c10db2",
          "confirmScaleOrder(uint256)": "b609caeb",
          "createOrder(uint256,uint256,uint256,uint256,uint256,uint256,uint256,uint256)": "b58a917b",
          "discounts(uint256)": "bae6a690",
          "extend(uint256,uint256,uint256)": "ddddca11",
          "getCluster(uint256)": "0179240c",
          "getClustersOfNode(uint256)": "8f4e4b1e",
          "getDiscountPercent(uint256)": "1cf93b49",
          "inactiveExpiredClusters(uint256[])": "27072835",
          "initialize(address,address,uint256,uint256,uint256,uint256,uint256)": "edbf4ac2",
          "nextClusterId()": "4983dc44",
          "nextOrderId()": "2a58b330",
          "nodeIpToClusterIds(uint256,uint256)": "949a549d",
          "operator()": "570ca735",
          "orders(uint256)": "a85c38ef",
          "owner()": "8da5cb5b",
          "paymentToken()": "3013ce29",
          "recreateCluster(uint256,uint256[])": "3b17f0a7",
          "removeNodeFromCluster(uint256,uint256)": "d39e77b0",
          "removeNodesFromCluster(uint256,uint256[])": "bf0f08bb",
          "renounceOwnership()": "715018a6",
          "resourcePrice()": "e4ccfc15",
          "scale(uint256,uint256,uint256,uint256,uint256,uint256,uint256)": "b906aa96",
          "setOperator(address)": "b3ab15fb",
          "setPaymentToken(address)": "6a326ab1",
          "setResourcePrice(uint256,uint256,uint256,uint256,uint256)": "7332c548",
          "transferOwnership(address)": "f2fde38b",
          "updateClusterIp(uint256,uint256)": "5414323f",
          "updateDiscount(uint256,uint256,uint256)": "166cfddd",
          "withdrawFund(address,address,uint256)": "3ff681e4"
        }
      },
      "storageLayout": {
        "storage": [
          {
            "astId": 1154,
            "contract": "contracts/SubnetClusterMarket.sol:SubnetClusterMarket",
            "label": "_status",
            "offset": 0,
            "slot": "0",
            "type": "t_uint256"
          },
          {
            "astId": 1382,
            "contract": "contracts/SubnetClusterMarket.sol:SubnetClusterMarket",
            "label": "nextOrderId",
            "offset": 0,
            "slot": "1",
            "type": "t_uint256"
          },
          {
            "astId": 1387,
            "contract": "contracts/SubnetClusterMarket.sol:SubnetClusterMarket",
            "label": "orders",
            "offset": 0,
            "slot": "2",
            "type": "t_mapping(t_uint256,t_struct(Order)1380_storage)"
          },
          {
            "astId": 1401,
            "contract": "contracts/SubnetClusterMarket.sol:SubnetClusterMarket",
            "label": "resourcePrice",
            "offset": 0,
            "slot": "3",
            "type": "t_struct(ResourcePrice)1398_storage"
          },
          {
            "astId": 1403,
            "contract": "contracts/SubnetClusterMarket.sol:SubnetClusterMarket",
            "label": "nextClusterId",
            "offset": 0,
            "slot": "8",
            "type": "t_uint256"
          },
          {
            "astId": 1408,
            "contract": "contracts/SubnetClusterMarket.sol:SubnetClusterMarket",
            "label": "clusters",
            "offset": 0,
            "slot": "9",
            "type": "t_mapping(t_uint256,t_struct(Cluster)1257_storage)"
          },
          {
            "astId": 1413,
            "contract": "contracts/SubnetClusterMarket.sol:SubnetClusterMarket",
            "label": "nodeIpToClusterIds",
            "offset": 0,
            "slot": "10",
            "type": "t_mapping(t_uint256,t_array(t_uint256)dyn_storage)"
          },
          {
            "astId": 1415,
            "contract": "contracts/SubnetClusterMarket.sol:SubnetClusterMarket",
            "label": "operator",
            "offset": 0,
            "slot": "11",
            "type": "t_address"
          },
          {
            "astId": 1519,
            "contract": "contracts/SubnetClusterMarket.sol:SubnetClusterMarket",
            "label": "paymentToken",
            "offset": 0,
            "slot": "12",
            "type": "t_address"
          },
          {
            "astId": 1540,
            "contract": "contracts/SubnetClusterMarket.sol:SubnetClusterMarket",
            "label": "discounts",
            "offset": 0,
            "slot": "13",
            "type": "t_array(t_struct(Discount)1536_storage)dyn_storage"
          }
        ],
        "types": {
          "t_address": {
            "encoding": "inplace",
            "label": "address",
            "numberOfBytes": "20"
          },
          "t_array(t_struct(Discount)1536_storage)dyn_storage": {
            "base": "t_struct(Discount)1536_storage",
            "encoding": "dynamic_array",
            "label": "struct SubnetClusterMarket.Discount[]",
            "numberOfBytes": "32"
          },
          "t_array(t_uint256)dyn_storage": {
            "base": "t_uint256",
            "encoding": "dynamic_array",
            "label": "uint256[]",
            "numberOfBytes": "32"
          },
          "t_bool": {
            "encoding": "inplace",
            "label": "bool",
            "numberOfBytes": "1"
          },
          "t_enum(OrderStatus)1345": {
            "encoding": "inplace",
            "label": "enum SubnetClusterMarket.OrderStatus",
            "numberOfBytes": "1"
          },
          "t_enum(OrderType)1349": {
            "encoding": "inplace",
            "label": "enum SubnetClusterMarket.OrderType",
            "numberOfBytes": "1"
          },
          "t_mapping(t_uint256,t_array(t_uint256)dyn_storage)": {
            "encoding": "mapping",
            "key": "t_uint256",
            "label": "mapping(uint256 => uint256[])",
            "numberOfBytes": "32",
            "value": "t_array(t_uint256)dyn_storage"
          },
          "t_mapping(t_uint256,t_struct(Cluster)1257_storage)": {
            "encoding": "mapping",
            "key": "t_uint256",
            "label": "mapping(uint256 => struct SubnetClusterMarket.Cluster)",
            "numberOfBytes": "32",
            "value": "t_struct(Cluster)1257_storage"
          },
          "t_mapping(t_uint256,t_struct(Order)1380_storage)": {
            "encoding": "mapping",
            "key": "t_uint256",
            "label": "mapping(uint256 => struct SubnetClusterMarket.Order)",
            "numberOfBytes": "32",
            "value": "t_struct(Order)1380_storage"
          },
          "t_struct(Cluster)1257_storage": {
            "encoding": "inplace",
            "label": "struct SubnetClusterMarket.Cluster",
            "members": [
              {
                "astId": 1231,
                "contract": "contracts/SubnetClusterMarket.sol:SubnetClusterMarket",
                "label": "owner",
                "offset": 0,
                "slot": "0",
                "type": "t_address"
              },
              {
                "astId": 1233,
                "contract": "contracts/SubnetClusterMarket.sol:SubnetClusterMarket",
                "label": "orderId",
                "offset": 0,
                "slot": "1",
                "type": "t_uint256"
              },
              {
                "astId": 1236,
                "contract": "contracts/SubnetClusterMarket.sol:SubnetClusterMarket",
                "label": "nodeIps",
                "offset": 0,
                "slot": "2",
                "type": "t_array(t_uint256)dyn_storage"
              },
              {
                "astId": 1238,
                "contract": "contracts/SubnetClusterMarket.sol:SubnetClusterMarket",
                "label": "active",
                "offset": 0,
                "slot": "3",
                "type": "t_bool"
              },
              {
                "astId": 1240,
                "contract": "contracts/SubnetClusterMarket.sol:SubnetClusterMarket",
                "label": "expiration",
                "offset": 0,
                "slot": "4",
                "type": "t_uint256"
              },
              {
                "astId": 1242,
                "contract": "contracts/SubnetClusterMarket.sol:SubnetClusterMarket",
                "label": "renter",
                "offset": 0,
                "slot": "5",
                "type": "t_address"
              },
              {
                "astId": 1244,
                "contract": "contracts/SubnetClusterMarket.sol:SubnetClusterMarket",
                "label": "renterIp",
                "offset": 0,
                "slot": "6",
                "type": "t_uint256"
              },
              {
                "astId": 1246,
                "contract": "contracts/SubnetClusterMarket.sol:SubnetClusterMarket",
                "label": "ip",
                "offset": 0,
                "slot": "7",
                "type": "t_uint256"
              },
              {
                "astId": 1248,
                "contract": "contracts/SubnetClusterMarket.sol:SubnetClusterMarket",
                "label": "gpu",
                "offset": 0,
                "slot": "8",
                "type": "t_uint256"
              },
              {
                "astId": 1250,
                "contract": "contracts/SubnetClusterMarket.sol:SubnetClusterMarket",
                "label": "cpu",
                "offset": 0,
                "slot": "9",
                "type": "t_uint256"
              },
              {
                "astId": 1252,
                "contract": "contracts/SubnetClusterMarket.sol:SubnetClusterMarket",
                "label": "memoryBytes",
                "offset": 0,
                "slot": "10",
                "type": "t_uint256"
              },
              {
                "astId": 1254,
                "contract": "contracts/SubnetClusterMarket.sol:SubnetClusterMarket",
                "label": "disk",
                "offset": 0,
                "slot": "11",
                "type": "t_uint256"
              },
              {
                "astId": 1256,
                "contract": "contracts/SubnetClusterMarket.sol:SubnetClusterMarket",
                "label": "network",
                "offset": 0,
                "slot": "12",
                "type": "t_uint256"
              }
            ],
            "numberOfBytes": "416"
          },
          "t_struct(Discount)1536_storage": {
            "encoding": "inplace",
            "label": "struct SubnetClusterMarket.Discount",
            "members": [
              {
                "astId": 1533,
                "contract": "contracts/SubnetClusterMarket.sol:SubnetClusterMarket",
                "label": "minDuration",
                "offset": 0,
                "slot": "0",
                "type": "t_uint256"
              },
              {
                "astId": 1535,
                "contract": "contracts/SubnetClusterMarket.sol:SubnetClusterMarket",
                "label": "percent",
                "offset": 0,
                "slot": "1",
                "type": "t_uint256"
              }
            ],
            "numberOfBytes": "64"
          },
          "t_struct(Order)1380_storage": {
            "encoding": "inplace",
            "label": "struct SubnetClusterMarket.Order",
            "members": [
              {
                "astId": 1351,
                "contract": "contracts/SubnetClusterMarket.sol:SubnetClusterMarket",
                "label": "user",
                "offset": 0,
                "slot": "0",
                "type": "t_address"
              },
              {
                "astId": 1354,
                "contract": "contracts/SubnetClusterMarket.sol:SubnetClusterMarket",
                "label": "status",
                "offset": 20,
                "slot": "0",
                "type": "t_enum(OrderStatus)1345"
              },
              {
                "astId": 1356,
                "contract": "contracts/SubnetClusterMarket.sol:SubnetClusterMarket",
                "label": "ip",
                "offset": 0,
                "slot": "1",
                "type": "t_uint256"
              },
              {
                "astId": 1358,
                "contract": "contracts/SubnetClusterMarket.sol:SubnetClusterMarket",
                "label": "gpu",
                "offset": 0,
                "slot": "2",
                "type": "t_uint256"
              },
              {
                "astId": 1360,
                "contract": "contracts/SubnetClusterMarket.sol:SubnetClusterMarket",
                "label": "cpu",
                "offset": 0,
                "slot": "3",
                "type": "t_uint256"
              },
              {
                "astId": 1362,
                "contract": "contracts/SubnetClusterMarket.sol:SubnetClusterMarket",
                "label": "memoryBytes",
                "offset": 0,
                "slot": "4",
                "type": "t_uint256"
              },
              {
                "astId": 1364,
                "contract": "contracts/SubnetClusterMarket.sol:SubnetClusterMarket",
                "label": "disk",
                "offset": 0,
                "slot": "5",
                "type": "t_uint256"
              },
              {
                "astId": 1366,
                "contract": "contracts/SubnetClusterMarket.sol:SubnetClusterMarket",
                "label": "network",
                "offset": 0,
                "slot": "6",
                "type": "t_uint256"
              },
              {
                "astId": 1368,
                "contract": "contracts/SubnetClusterMarket.sol:SubnetClusterMarket",
                "label": "rentalDuration",
                "offset": 0,
                "slot": "7",
                "type": "t_uint256"
              },
              {
                "astId": 1370,
                "contract": "contracts/SubnetClusterMarket.sol:SubnetClusterMarket",
                "label": "paymentToken",
                "offset": 0,
                "slot": "8",
                "type": "t_address"
              },
              {
                "astId": 1372,
                "contract": "contracts/SubnetClusterMarket.sol:SubnetClusterMarket",
                "label": "clusterId",
                "offset": 0,
                "slot": "9",
                "type": "t_uint256"
              },
              {
                "astId": 1374,
                "contract": "contracts/SubnetClusterMarket.sol:SubnetClusterMarket",
                "label": "paidAmount",
                "offset": 0,
                "slot": "10",
                "type": "t_uint256"
              },
              {
                "astId": 1376,
                "contract": "contracts/SubnetClusterMarket.sol:SubnetClusterMarket",
                "label": "discountAmount",
                "offset": 0,
                "slot": "11",
                "type": "t_uint256"
              },
              {
                "astId": 1379,
                "contract": "contracts/SubnetClusterMarket.sol:SubnetClusterMarket",
                "label": "orderType",
                "offset": 0,
                "slot": "12",
                "type": "t_enum(OrderType)1349"
              }
            ],
            "numberOfBytes": "416"
          },
          "t_struct(ResourcePrice)1398_storage": {
            "encoding": "inplace",
            "label": "struct SubnetClusterMarket.ResourcePrice",
            "members": [
              {
                "astId": 1389,
                "contract": "contracts/SubnetClusterMarket.sol:SubnetClusterMarket",
                "label": "gpu",
                "offset": 0,
                "slot": "0",
                "type": "t_uint256"
              },
              {
                "astId": 1391,
                "contract": "contracts/SubnetClusterMarket.sol:SubnetClusterMarket",
                "label": "cpu",
                "offset": 0,
                "slot": "1",
                "type": "t_uint256"
              },
              {
                "astId": 1393,
                "contract": "contracts/SubnetClusterMarket.sol:SubnetClusterMarket",
                "label": "memoryBytes",
                "offset": 0,
                "slot": "2",
                "type": "t_uint256"
              },
              {
                "astId": 1395,
                "contract": "contracts/SubnetClusterMarket.sol:SubnetClusterMarket",
                "label": "disk",
                "offset": 0,
                "slot": "3",
                "type": "t_uint256"
              },
              {
                "astId": 1397,
                "contract": "contracts/SubnetClusterMarket.sol:SubnetClusterMarket",
                "label": "network",
                "offset": 0,
                "slot": "4",
                "type": "t_uint256"
              }
            ],
            "numberOfBytes": "160"
          },
          "t_uint256": {
            "encoding": "inplace",
            "label": "uint256",
            "numberOfBytes": "32"
          }
        }
      }
    }
  }
}