{
  "contracts/SubnetStakingPoolFactory.sol": {
    "SubnetStakingPoolFactory": {
      "abi": [
        {
          "inputs": [
            {
              "internalType": "address",
              "name": "initialOwner",
              "type": "address"
            }
          ],
          "stateMutability": "nonpayable",
          "type": "constructor"
        },
        {
          "inputs": [
            {
              "internalType": "address",
              "name": "owner",
              "type": "address"
            }
          ],
          "name": "OwnableInvalidOwner",
          "type": "error"
        },
        {
          "inputs": [
            {
              "internalType": "address",
              "name": "account",
              "type": "address"
            }
          ],
          "name": "OwnableUnauthorizedAccount",
          "type": "error"
        },
        {
          "anonymous": false,
          "inputs": [
            {
              "indexed": true,
              "internalType": "address",
              "name": "previousOwner",
              "type": "address"
            },
            {
              "indexed": true,
              "internalType": "address",
              "name": "newOwner",
              "type": "address"
            }
          ],
          "name": "OwnershipTransferred",
          "type": "event"
        },
        {
          "anonymous": false,
          "inputs": [
            {
              "indexed": true,
              "internalType": "address",
              "name": "stakingToken",
              "type": "address"
            },
            {
              "indexed": true,
              "internalType": "address",
              "name": "rewardToken",
              "type": "address"
            },
            {
              "indexed": false,
              "internalType": "address",
              "name": "poolAddress",
              "type": "address"
            }
          ],
          "name": "PoolCreated",
          "type": "event"
        },
        {
          "inputs": [
            {
              "internalType": "uint256",
              "name": "",
              "type": "uint256"
            }
          ],
          "name": "allPools",
          "outputs": [
            {
              "internalType": "address",
              "name": "",
              "type": "address"
            }
          ],
          "stateMutability": "view",
          "type": "function"
        },
        {
          "inputs": [
            {
              "internalType": "contract IERC20",
              "name": "stakingToken",
              "type": "address"
            },
            {
              "internalType": "contract IERC20",
              "name": "rewardToken",
              "type": "address"
            },
            {
              "internalType": "uint256",
              "name": "rewardRatePerSecond",
              "type": "uint256"
            },
            {
              "internalType": "uint256",
              "name": "startTime",
              "type": "uint256"
            },
            {
              "internalType": "uint256",
              "name": "endTime",
              "type": "uint256"
            }
          ],
          "name": "createPool",
          "outputs": [
            {
              "internalType": "address",
              "name": "",
              "type": "address"
            }
          ],
          "stateMutability": "nonpayable",
          "type": "function"
        },
        {
          "inputs": [
            {
              "internalType": "uint256",
              "name": "index",
              "type": "uint256"
            }
          ],
          "name": "getPool",
          "outputs": [
            {
              "internalType": "address",
              "name": "",
              "type": "address"
            }
          ],
          "stateMutability": "view",
          "type": "function"
        },
        {
          "inputs": [],
          "name": "getPoolCount",
          "outputs": [
            {
              "internalType": "uint256",
              "name": "",
              "type": "uint256"
            }
          ],
          "stateMutability": "view",
          "type": "function"
        },
        {
          "inputs": [],
          "name": "owner",
          "outputs": [
            {
              "internalType": "address",
              "name": "",
              "type": "address"
            }
          ],
          "stateMutability": "view",
          "type": "function"
        },
        {
          "inputs": [],
          "name": "renounceOwnership",
          "outputs": [],
          "stateMutability": "nonpayable",
          "type": "function"
        },
        {
          "inputs": [
            {
              "internalType": "address",
              "name": "newOwner",
              "type": "address"
            }
          ],
          "name": "transferOwnership",
          "outputs": [],
          "stateMutability": "nonpayable",
          "type": "function"
        }
      ],
      "evm": {
        "bytecode": {
          "linkReferences": {},
          "object": "6080346100bb57601f611abc38819003918201601f19168301916001600160401b038311848410176100c0578084926020946040528339810103126100bb57516001600160a01b0390818116908190036100bb5780156100a257600080546001600160a01b03198116831782556040519316907f8be0079c531659141344cd1fd0a4f28419497f9722a3daafe3b4186f6b6457e09080a36119e590816100d78239f35b604051631e4fbdf760e01b815260006004820152602490fd5b600080fd5b634e487b7160e01b600052604160045260246000fdfe6080604052600436101561001257600080fd5b6000803560e01c908163068bcd8d1461008a5750806341d1de9714610085578063715018a61461008057806385ac165a1461007b5780638da5cb5b146100765780638eec5d70146100715763f2fde38b1461006c57600080fd5b6103fa565b6103dc565b6103b3565b6101e3565b610177565b610117565b3461011457602036600319011261011457600435906001548210156100e657600190527fb10e2d527612073b26eecdfd717e6a320cf44b4afac2b0732d9fcbe2b7fa0cf601546001600160a01b0316608052607f1960a0016080f35b62461bcd60e51b6080526020608452600d60a4526c092dcecc2d8d2c840d2dcc8caf609b1b60c45260646080fd5b80fd5b34610172576020366003190112610172576004356001548110156101725760016000527fb10e2d527612073b26eecdfd717e6a320cf44b4afac2b0732d9fcbe2b7fa0cf601546040516001600160a01b039091168152602090f35b600080fd5b346101725760008060031936011261011457610191610486565b80546001600160a01b03198116825581906001600160a01b03167f8be0079c531659141344cd1fd0a4f28419497f9722a3daafe3b4186f6b6457e08280a380f35b6001600160a01b0381160361017257565b346101725760a036600319011261017257600435610200816101d2565b60243561020c816101d2565b6044356064359061033b6103478260843595610226610486565b6001600160a01b038881169861032191610315906102458c15156104b2565b6102508a8c116104fe565b8416998b8b6102a0838d6040519a8b9460208601968793919060889593916bffffffffffffffffffffffff19809260601b16865260601b1660148501526028840152604883015260688201520190565b03966102b4601f199889810183528261056a565b51902099611364996102c860208c01610591565b9a808c5261064c60208d01396040519687953360208801929160a094919796959260c0850198600180881b0392838092168752166020860152166040840152606083015260808201520152565b0383810183528261056a565b6040519384916103356020840180986105a1565b906105a1565b0390810183528261056a565b51906000f5908115610172576103af92610360836105cc565b6040516001600160a01b03841681527f9c5d829b9b23efc461f9aeef91979ec04bb903feb3bee4f26d22114abfc7335b90602090a36040516001600160a01b0390911681529081906020820190565b0390f35b34610172576000366003190112610172576000546040516001600160a01b039091168152602090f35b34610172576000366003190112610172576020600154604051908152f35b3461017257602036600319011261017257600435610417816101d2565b61041f610486565b6001600160a01b03908116801561046d57600080546001600160a01b03198116831782559092167f8be0079c531659141344cd1fd0a4f28419497f9722a3daafe3b4186f6b6457e08380a380f35b604051631e4fbdf760e01b815260006004820152602490fd5b6000546001600160a01b0316330361049a57565b60405163118cdaa760e01b8152336004820152602490fd5b156104b957565b60405162461bcd60e51b815260206004820152601d60248201527f496e76616c6964207374616b696e6720746f6b656e20616464726573730000006044820152606490fd5b1561050557565b60405162461bcd60e51b815260206004820152602160248201527f456e642074696d65206d7573742062652061667465722073746172742074696d6044820152606560f81b6064820152608490fd5b634e487b7160e01b600052604160045260246000fd5b90601f8019910116810190811067ffffffffffffffff82111761058c57604052565b610554565b9061059f604051928361056a565b565b9081519160005b8381106105b9575050016000815290565b80602080928401015181850152016105a8565b6001546801000000000000000081101561058c5760018101806001558110156106355760016000527fb10e2d527612073b26eecdfd717e6a320cf44b4afac2b0732d9fcbe2b7fa0cf60180546001600160a01b0319166001600160a01b03909216919091179055565b634e487b7160e01b600052603260045260246000fdfe60c060409080825234620002905760c08162001364803803809162000025828562000295565b833981010312620002905780516001600160a01b038082169291839003620002905760209162000057838201620002cf565b9062000065868201620002cf565b91606082015160a060808401519301519187156200027857600080546001600160a01b031981168a1782558a5191999088167f8be0079c531659141344cd1fd0a4f28419497f9722a3daafe3b4186f6b6457e08b80a3838510156200022b57506080528360a0526001558160065560075560035516818115600014620001ad5750506012905b601e8210156200016a5750601e0390601e82116200015657604d8211620001565750600a0a6005555161107f9081620002e58239608051818181610587015281816107df01528181610ab60152610d12015260a051818181610138015281816102a201526105af0152f35b634e487b7160e01b81526011600452602490fd5b60649084519062461bcd60e51b82526004820152601660248201527f4d75737420626520696e666572696f7220746f203330000000000000000000006044820152fd5b845163313ce56760e01b815291829060049082905afa801562000221578390620001de575b60ff91501690620000eb565b508181813d831162000219575b620001f7818362000295565b8101031262000215575160ff81168103620002155760ff90620001d2565b8280fd5b503d620001eb565b84513d85823e3d90fd5b62461bcd60e51b815260048101889052602260248201527f53746172742074696d65206d757374206265206265666f726520656e642074696044820152616d6560f01b6064820152608490fd5b8851631e4fbdf760e01b815260006004820152602490fd5b600080fd5b601f909101601f19168101906001600160401b03821190821017620002b957604052565b634e487b7160e01b600052604160045260246000fd5b51906001600160a01b0382168203620002905756fe60406080815260049081361015610020575b5050361561001e57600080fd5b005b600091823560e01c9081628cc26214610e465781630660f1e814610e0e5781632e1a7d4d14610c715781633197cbb614610c525781635d773b2c14610c335781636ab3846b14610b42578163715018a614610ae557816372f702f314610aa157816378e9792514610a82578163817b1cd214610a635781638b87634714610a2b5781638da5cb5b14610a035781639231cf74146109e45781639ef3a26114610932578163a694fc3a1461074c578163acc3a93914610714578163b51609b414610545578163b88a802f14610257578163ccd34cd514610238578163cd3daf9d14610214578163df136d65146101f6578163f2fde38b1461016b575063f7c618c1036100115734610167578160031936011261016757517f00000000000000000000000000000000000000000000000000000000000000006001600160a01b03168152602090f35b5080fd5b9050346101f25760203660031901126101f257610186610e6c565b9061018f610e87565b6001600160a01b039182169283156101dc57505082546001600160a01b0319811683178455167f8be0079c531659141344cd1fd0a4f28419497f9722a3daafe3b4186f6b6457e08380a380f35b51631e4fbdf760e01b8152908101849052602490fd5b8280fd5b9050346101f257826003193601126101f25760209250549051908152f35b505034610167578160031936011261016757602090610231610f16565b9051908152f35b5050346101675781600319360112610167576020906005549051908152f35b919050346101f257826003193601126101f257610272610f16565b82554260035533610520575b338352602090600a8252808420549283156104e957338552600a83528185208590557f00000000000000000000000000000000000000000000000000000000000000006001600160a01b03168061039057508480808087335af13d1561038b573d67ffffffffffffffff811161037857835190610304601f8201601f1916870183610ff9565b815286853d92013e5b156103415750907f106f923f993c2149d49b4255ff723acafa1f2d94393f561d3eda32ae348f7241915b519283523392a280f35b82606492519162461bcd60e51b83528201526013602482015272115512081d1c985b9cd9995c8819985a5b1959606a1b6044820152fd5b634e487b7160e01b875260418352602487fd5b61030d565b9082516370a0823160e01b815230828201528481602481865afa9081156104df5790869188916104aa575b501061045d57825163a9059cbb60e01b8152339181019182526020820186905294939291839186919082908990829060400103925af1938415610453577f106f923f993c2149d49b4255ff723acafa1f2d94393f561d3eda32ae348f72419394610426575b50610337565b61044590833d851161044c575b61043d8183610ff9565b810190611031565b5038610420565b503d610433565b81513d87823e3d90fd5b825162461bcd60e51b8152908101849052602160248201527f496e73756666696369656e742072657761726420746f6b656e2062616c616e636044820152606560f81b6064820152608490fd5b809250868092503d83116104d8575b6104c38183610ff9565b810103126104d457859051386103bb565b8680fd5b503d6104b9565b84513d89823e3d90fd5b82606492519162461bcd60e51b835282015260136024820152724e6f207265776172647320746f20636c61696d60681b6044820152fd5b61052933610f9b565b338452600a60205281842055815460096020528184205561027e565b9050346101f25760603660031901126101f257610560610e6c565b6001600160a01b039060443590828216908183036104d4578390610582610e87565b1692807f00000000000000000000000000000000000000000000000000000000000000001684146106d1577f000000000000000000000000000000000000000000000000000000000000000016831461068e571561064b57835163a9059cbb60e01b81526001600160a01b039091169281019283526024356020848101919091529093929091849182908790829060400103925af19081156106425750610627575080f35b61063e9060203d811161044c5761043d8183610ff9565b5080f35b513d84823e3d90fd5b835162461bcd60e51b8152602081850152601960248201527f496e76616c696420726563697069656e742061646472657373000000000000006044820152606490fd5b845162461bcd60e51b8152602081860152601c60248201527f43616e6e6f742077697468647261772072657761726420746f6b656e000000006044820152606490fd5b855162461bcd60e51b8152602081870152601d60248201527f43616e6e6f74207769746864726177207374616b696e6720746f6b656e0000006044820152606490fd5b5050346101675760203660031901126101675760209181906001600160a01b0361073c610e6c565b1681526008845220549051908152f35b919050346101f25760208060031936011261092e5782359160065442106108ed5760075442116108b55761077e610f16565b84554260035533610892575b82156108605761079c83600254610f09565b600255338552600882528085206107b4848254610f09565b905580516323b872dd60e01b81523394810194909452306024850152604484018390528184606481887f00000000000000000000000000000000000000000000000000000000000000006001600160a01b03165af1938415610453577f9e71bc8eea02a63969f509818f2dafb9254532904319f9dbda79b67bd34a5f3d9394610843575b50519283523392a280f35b61085990833d851161044c5761043d8183610ff9565b5038610838565b5162461bcd60e51b81529283015250600e60248201526d043616e6e6f74207374616b6520360941b6044820152606490fd5b61089b33610f9b565b338652600a8352818620558354600983528186205561078a565b5162461bcd60e51b81529283015250601460248201527314dd185ada5b99c81c195c9a5bd908195b99195960621b6044820152606490fd5b5162461bcd60e51b81529283015250601760248201527f5374616b696e67206e6f742073746172746564207965740000000000000000006044820152606490fd5b8380fd5b919050346101f25760203660031901126101f257813591610951610e87565b610959610f16565b81554260035582156109975750816020917f41d466ebd06fb97e7786086ac8b69b7eb7da798592036251291d34e9791cde019360015551908152a180f35b6020608492519162461bcd60e51b8352820152602260248201527f5265776172642072617465206d7573742062652067726561746572207468616e604482015261020360f41b6064820152fd5b5050346101675781600319360112610167576020906003549051908152f35b505034610167578160031936011261016757905490516001600160a01b039091168152602090f35b5050346101675760203660031901126101675760209181906001600160a01b03610a53610e6c565b1681526009845220549051908152f35b5050346101675781600319360112610167576020906002549051908152f35b5050346101675781600319360112610167576020906006549051908152f35b505034610167578160031936011261016757517f00000000000000000000000000000000000000000000000000000000000000006001600160a01b03168152602090f35b8334610b3f5780600319360112610b3f57610afe610e87565b80546001600160a01b03198116825581906001600160a01b03167f8be0079c531659141344cd1fd0a4f28419497f9722a3daafe3b4186f6b6457e08280a380f35b80fd5b919050346101f25760203660031901126101f257813591610b61610e87565b42831115610bf157600654831115610ba55750816020917f37d37b8940cc1ec723111799f54132501e05042cd219649e575e84e5c36f3b5e9360075551908152a180f35b6020608492519162461bcd60e51b8352820152602160248201527f456e642074696d65206d7573742062652061667465722073746172742074696d6044820152606560f81b6064820152fd5b6020606492519162461bcd60e51b8352820152601e60248201527f456e642074696d65206d75737420626520696e207468652066757475726500006044820152fd5b5050346101675781600319360112610167576020906001549051908152f35b5050346101675781600319360112610167576020906007549051908152f35b919050346101f2576020908160031936011261092e57823592610c92610f16565b81554260035533610deb575b8315610db65733855260088352838286205410610d7557908284809493610cca610d0d97600254610eb3565b60025533885260088352838820610ce2838254610eb3565b9055835163a9059cbb60e01b8152339181019182526020820192909252909586918291604090910190565b0381887f00000000000000000000000000000000000000000000000000000000000000006001600160a01b03165af1938415610453577f7084f5476618d8e60b11ef0d7d3f06914655adb8793e28ff7f018d4c76d505d593946108435750519283523392a280f35b82606492519162461bcd60e51b8352820152601e60248201527f576974686472617720616d6f756e742065786365656473207374616b656400006044820152fd5b82606492519162461bcd60e51b83528201526011602482015270043616e6e6f74207769746864726177203607c1b6044820152fd5b610df433610f9b565b338652600a84528286205580546009845282862055610c9e565b5050346101675760203660031901126101675760209181906001600160a01b03610e36610e6c565b168152600a845220549051908152f35b50503461016757602036600319011261016757602090610231610e67610e6c565b610f9b565b600435906001600160a01b0382168203610e8257565b600080fd5b6000546001600160a01b03163303610e9b57565b60405163118cdaa760e01b8152336004820152602490fd5b91908203918211610ec057565b634e487b7160e01b600052601160045260246000fd5b81810292918115918404141715610ec057565b8115610ef3570490565b634e487b7160e01b600052601260045260246000fd5b91908201809211610ec057565b60025480158015610f90575b610f8957600754804211600014610f82575b60035480821115610f7957610f7692610f6b610f62610f59610f709460045496610eb3565b60015490610ed6565b60055490610ed6565b610ee9565b90610f09565b90565b50505060045490565b5042610f34565b5060045490565b506006544210610f22565b610f769060018060a01b0316604060008281526008602052610fe9610fe083832054610fda610fc8610f16565b87865260096020528686205490610eb3565b90610ed6565b60055490610ee9565b928152600a602052205490610f09565b90601f8019910116810190811067ffffffffffffffff82111761101b57604052565b634e487b7160e01b600052604160045260246000fd5b90816020910312610e8257518015158103610e82579056fea26469706673582212209d6001e61e88a36cddb4175f27d23a7ed4fdf3ce6613d014aa622d1213a5400164736f6c63430008140033a2646970667358221220bdacfa30a05aef9a670a07144128d467a9e06c00ce7ee4fba2830a55d6b7f82064736f6c63430008140033",
          "opcodes": "PUSH1 0x80 CALLVALUE PUSH2 0xBB JUMPI PUSH1 0x1F PUSH2 0x1ABC CODESIZE DUP2 SWAP1 SUB SWAP2 DUP3 ADD PUSH1 0x1F NOT AND DUP4 ADD SWAP2 PUSH1 0x1 PUSH1 0x1 PUSH1 0x40 SHL SUB DUP4 GT DUP5 DUP5 LT OR PUSH2 0xC0 JUMPI DUP1 DUP5 SWAP3 PUSH1 0x20 SWAP5 PUSH1 0x40 MSTORE DUP4 CODECOPY DUP2 ADD SUB SLT PUSH2 0xBB JUMPI MLOAD PUSH1 0x1 PUSH1 0x1 PUSH1 0xA0 SHL SUB SWAP1 DUP2 DUP2 AND SWAP1 DUP2 SWAP1 SUB PUSH2 0xBB JUMPI DUP1 ISZERO PUSH2 0xA2 JUMPI PUSH1 0x0 DUP1 SLOAD PUSH1 0x1 PUSH1 0x1 PUSH1 0xA0 SHL SUB NOT DUP2 AND DUP4 OR DUP3 SSTORE PUSH1 0x40 MLOAD SWAP4 AND SWAP1 PUSH32 0x8BE0079C531659141344CD1FD0A4F28419497F9722A3DAAFE3B4186F6B6457E0 SWAP1 DUP1 LOG3 PUSH2 0x19E5 SWAP1 DUP2 PUSH2 0xD7 DUP3 CODECOPY RETURN JUMPDEST PUSH1 0x40 MLOAD PUSH4 0x1E4FBDF7 PUSH1 0xE0 SHL DUP2 MSTORE PUSH1 0x0 PUSH1 0x4 DUP3 ADD MSTORE PUSH1 0x24 SWAP1 REVERT JUMPDEST PUSH1 0x0 DUP1 REVERT JUMPDEST PUSH4 0x4E487B71 PUSH1 0xE0 SHL PUSH1 0x0 MSTORE PUSH1 0x41 PUSH1 0x4 MSTORE PUSH1 0x24 PUSH1 0x0 REVERT INVALID PUSH1 0x80 PUSH1 0x40 MSTORE PUSH1 0x4 CALLDATASIZE LT ISZERO PUSH2 0x12 JUMPI PUSH1 0x0 DUP1 REVERT JUMPDEST PUSH1 0x0 DUP1 CALLDATALOAD PUSH1 0xE0 SHR SWAP1 DUP2 PUSH4 0x68BCD8D EQ PUSH2 0x8A JUMPI POP DUP1 PUSH4 0x41D1DE97 EQ PUSH2 0x85 JUMPI DUP1 PUSH4 0x715018A6 EQ PUSH2 0x80 JUMPI DUP1 PUSH4 0x85AC165A EQ PUSH2 0x7B JUMPI DUP1 PUSH4 0x8DA5CB5B EQ PUSH2 0x76 JUMPI DUP1 PUSH4 0x8EEC5D70 EQ PUSH2 0x71 JUMPI PUSH4 0xF2FDE38B EQ PUSH2 0x6C JUMPI PUSH1 0x0 DUP1 REVERT JUMPDEST PUSH2 0x3FA JUMP JUMPDEST PUSH2 0x3DC JUMP JUMPDEST PUSH2 0x3B3 JUMP JUMPDEST PUSH2 0x1E3 JUMP JUMPDEST PUSH2 0x177 JUMP JUMPDEST PUSH2 0x117 JUMP JUMPDEST CALLVALUE PUSH2 0x114 JUMPI PUSH1 0x20 CALLDATASIZE PUSH1 0x3 NOT ADD SLT PUSH2 0x114 JUMPI PUSH1 0x4 CALLDATALOAD SWAP1 PUSH1 0x1 SLOAD DUP3 LT ISZERO PUSH2 0xE6 JUMPI PUSH1 0x1 SWAP1 MSTORE PUSH32 0xB10E2D527612073B26EECDFD717E6A320CF44B4AFAC2B0732D9FCBE2B7FA0CF6 ADD SLOAD PUSH1 0x1 PUSH1 0x1 PUSH1 0xA0 SHL SUB AND PUSH1 0x80 MSTORE PUSH1 0x7F NOT PUSH1 0xA0 ADD PUSH1 0x80 RETURN JUMPDEST PUSH3 0x461BCD PUSH1 0xE5 SHL PUSH1 0x80 MSTORE PUSH1 0x20 PUSH1 0x84 MSTORE PUSH1 0xD PUSH1 0xA4 MSTORE PUSH13 0x92DCECC2D8D2C840D2DCC8CAF PUSH1 0x9B SHL PUSH1 0xC4 MSTORE PUSH1 0x64 PUSH1 0x80 REVERT JUMPDEST DUP1 REVERT JUMPDEST CALLVALUE PUSH2 0x172 JUMPI PUSH1 0x20 CALLDATASIZE PUSH1 0x3 NOT ADD SLT PUSH2 0x172 JUMPI PUSH1 0x4 CALLDATALOAD PUSH1 0x1 SLOAD DUP2 LT ISZERO PUSH2 0x172 JUMPI PUSH1 0x1 PUSH1 0x0 MSTORE PUSH32 0xB10E2D527612073B26EECDFD717E6A320CF44B4AFAC2B0732D9FCBE2B7FA0CF6 ADD SLOAD PUSH1 0x40 MLOAD PUSH1 0x1 PUSH1 0x1 PUSH1 0xA0 SHL SUB SWAP1 SWAP2 AND DUP2 MSTORE PUSH1 0x20 SWAP1 RETURN JUMPDEST PUSH1 0x0 DUP1 REVERT JUMPDEST CALLVALUE PUSH2 0x172 JUMPI PUSH1 0x0 DUP1 PUSH1 0x3 NOT CALLDATASIZE ADD SLT PUSH2 0x114 JUMPI PUSH2 0x191 PUSH2 0x486 JUMP JUMPDEST DUP1 SLOAD PUSH1 0x1 PUSH1 0x1 PUSH1 0xA0 SHL SUB NOT DUP2 AND DUP3 SSTORE DUP2 SWAP1 PUSH1 0x1 PUSH1 0x1 PUSH1 0xA0 SHL SUB AND PUSH32 0x8BE0079C531659141344CD1FD0A4F28419497F9722A3DAAFE3B4186F6B6457E0 DUP3 DUP1 LOG3 DUP1 RETURN JUMPDEST PUSH1 0x1 PUSH1 0x1 PUSH1 0xA0 SHL SUB DUP2 AND SUB PUSH2 0x172 JUMPI JUMP JUMPDEST CALLVALUE PUSH2 0x172 JUMPI PUSH1 0xA0 CALLDATASIZE PUSH1 0x3 NOT ADD SLT PUSH2 0x172 JUMPI PUSH1 0x4 CALLDATALOAD PUSH2 0x200 DUP2 PUSH2 0x1D2 JUMP JUMPDEST PUSH1 0x24 CALLDATALOAD PUSH2 0x20C DUP2 PUSH2 0x1D2 JUMP JUMPDEST PUSH1 0x44 CALLDATALOAD PUSH1 0x64 CALLDATALOAD SWAP1 PUSH2 0x33B PUSH2 0x347 DUP3 PUSH1 0x84 CALLDATALOAD SWAP6 PUSH2 0x226 PUSH2 0x486 JUMP JUMPDEST PUSH1 0x1 PUSH1 0x1 PUSH1 0xA0 SHL SUB DUP9 DUP2 AND SWAP9 PUSH2 0x321 SWAP2 PUSH2 0x315 SWAP1 PUSH2 0x245 DUP13 ISZERO ISZERO PUSH2 0x4B2 JUMP JUMPDEST PUSH2 0x250 DUP11 DUP13 GT PUSH2 0x4FE JUMP JUMPDEST DUP5 AND SWAP10 DUP12 DUP12 PUSH2 0x2A0 DUP4 DUP14 PUSH1 0x40 MLOAD SWAP11 DUP12 SWAP5 PUSH1 0x20 DUP7 ADD SWAP7 DUP8 SWAP4 SWAP2 SWAP1 PUSH1 0x88 SWAP6 SWAP4 SWAP2 PUSH12 0xFFFFFFFFFFFFFFFFFFFFFFFF NOT DUP1 SWAP3 PUSH1 0x60 SHL AND DUP7 MSTORE PUSH1 0x60 SHL AND PUSH1 0x14 DUP6 ADD MSTORE PUSH1 0x28 DUP5 ADD MSTORE PUSH1 0x48 DUP4 ADD MSTORE PUSH1 0x68 DUP3 ADD MSTORE ADD SWAP1 JUMP JUMPDEST SUB SWAP7 PUSH2 0x2B4 PUSH1 0x1F NOT SWAP9 DUP10 DUP2 ADD DUP4 MSTORE DUP3 PUSH2 0x56A JUMP JUMPDEST MLOAD SWAP1 KECCAK256 SWAP10 PUSH2 0x1364 SWAP10 PUSH2 0x2C8 PUSH1 0x20 DUP13 ADD PUSH2 0x591 JUMP JUMPDEST SWAP11 DUP1 DUP13 MSTORE PUSH2 0x64C PUSH1 0x20 DUP14 ADD CODECOPY PUSH1 0x40 MLOAD SWAP7 DUP8 SWAP6 CALLER PUSH1 0x20 DUP9 ADD SWAP3 SWAP2 PUSH1 0xA0 SWAP5 SWAP2 SWAP8 SWAP7 SWAP6 SWAP3 PUSH1 0xC0 DUP6 ADD SWAP9 PUSH1 0x1 DUP1 DUP9 SHL SUB SWAP3 DUP4 DUP1 SWAP3 AND DUP8 MSTORE AND PUSH1 0x20 DUP7 ADD MSTORE AND PUSH1 0x40 DUP5 ADD MSTORE PUSH1 0x60 DUP4 ADD MSTORE PUSH1 0x80 DUP3 ADD MSTORE ADD MSTORE JUMP JUMPDEST SUB DUP4 DUP2 ADD DUP4 MSTORE DUP3 PUSH2 0x56A JUMP JUMPDEST PUSH1 0x40 MLOAD SWAP4 DUP5 SWAP2 PUSH2 0x335 PUSH1 0x20 DUP5 ADD DUP1 SWAP9 PUSH2 0x5A1 JUMP JUMPDEST SWAP1 PUSH2 0x5A1 JUMP JUMPDEST SUB SWAP1 DUP2 ADD DUP4 MSTORE DUP3 PUSH2 0x56A JUMP JUMPDEST MLOAD SWAP1 PUSH1 0x0 CREATE2 SWAP1 DUP2 ISZERO PUSH2 0x172 JUMPI PUSH2 0x3AF SWAP3 PUSH2 0x360 DUP4 PUSH2 0x5CC JUMP JUMPDEST PUSH1 0x40 MLOAD PUSH1 0x1 PUSH1 0x1 PUSH1 0xA0 SHL SUB DUP5 AND DUP2 MSTORE PUSH32 0x9C5D829B9B23EFC461F9AEEF91979EC04BB903FEB3BEE4F26D22114ABFC7335B SWAP1 PUSH1 0x20 SWAP1 LOG3 PUSH1 0x40 MLOAD PUSH1 0x1 PUSH1 0x1 PUSH1 0xA0 SHL SUB SWAP1 SWAP2 AND DUP2 MSTORE SWAP1 DUP2 SWAP1 PUSH1 0x20 DUP3 ADD SWAP1 JUMP JUMPDEST SUB SWAP1 RETURN JUMPDEST CALLVALUE PUSH2 0x172 JUMPI PUSH1 0x0 CALLDATASIZE PUSH1 0x3 NOT ADD SLT PUSH2 0x172 JUMPI PUSH1 0x0 SLOAD PUSH1 0x40 MLOAD PUSH1 0x1 PUSH1 0x1 PUSH1 0xA0 SHL SUB SWAP1 SWAP2 AND DUP2 MSTORE PUSH1 0x20 SWAP1 RETURN JUMPDEST CALLVALUE PUSH2 0x172 JUMPI PUSH1 0x0 CALLDATASIZE PUSH1 0x3 NOT ADD SLT PUSH2 0x172 JUMPI PUSH1 0x20 PUSH1 0x1 SLOAD PUSH1 0x40 MLOAD SWAP1 DUP2 MSTORE RETURN JUMPDEST CALLVALUE PUSH2 0x172 JUMPI PUSH1 0x20 CALLDATASIZE PUSH1 0x3 NOT ADD SLT PUSH2 0x172 JUMPI PUSH1 0x4 CALLDATALOAD PUSH2 0x417 DUP2 PUSH2 0x1D2 JUMP JUMPDEST PUSH2 0x41F PUSH2 0x486 JUMP JUMPDEST PUSH1 0x1 PUSH1 0x1 PUSH1 0xA0 SHL SUB SWAP1 DUP2 AND DUP1 ISZERO PUSH2 0x46D JUMPI PUSH1 0x0 DUP1 SLOAD PUSH1 0x1 PUSH1 0x1 PUSH1 0xA0 SHL SUB NOT DUP2 AND DUP4 OR DUP3 SSTORE SWAP1 SWAP3 AND PUSH32 0x8BE0079C531659141344CD1FD0A4F28419497F9722A3DAAFE3B4186F6B6457E0 DUP4 DUP1 LOG3 DUP1 RETURN JUMPDEST PUSH1 0x40 MLOAD PUSH4 0x1E4FBDF7 PUSH1 0xE0 SHL DUP2 MSTORE PUSH1 0x0 PUSH1 0x4 DUP3 ADD MSTORE PUSH1 0x24 SWAP1 REVERT JUMPDEST PUSH1 0x0 SLOAD PUSH1 0x1 PUSH1 0x1 PUSH1 0xA0 SHL SUB AND CALLER SUB PUSH2 0x49A JUMPI JUMP JUMPDEST PUSH1 0x40 MLOAD PUSH4 0x118CDAA7 PUSH1 0xE0 SHL DUP2 MSTORE CALLER PUSH1 0x4 DUP3 ADD MSTORE PUSH1 0x24 SWAP1 REVERT JUMPDEST ISZERO PUSH2 0x4B9 JUMPI JUMP JUMPDEST PUSH1 0x40 MLOAD PUSH3 0x461BCD PUSH1 0xE5 SHL DUP2 MSTORE PUSH1 0x20 PUSH1 0x4 DUP3 ADD MSTORE PUSH1 0x1D PUSH1 0x24 DUP3 ADD MSTORE PUSH32 0x496E76616C6964207374616B696E6720746F6B656E2061646472657373000000 PUSH1 0x44 DUP3 ADD MSTORE PUSH1 0x64 SWAP1 REVERT JUMPDEST ISZERO PUSH2 0x505 JUMPI JUMP JUMPDEST PUSH1 0x40 MLOAD PUSH3 0x461BCD PUSH1 0xE5 SHL DUP2 MSTORE PUSH1 0x20 PUSH1 0x4 DUP3 ADD MSTORE PUSH1 0x21 PUSH1 0x24 DUP3 ADD MSTORE PUSH32 0x456E642074696D65206D7573742062652061667465722073746172742074696D PUSH1 0x44 DUP3 ADD MSTORE PUSH1 0x65 PUSH1 0xF8 SHL PUSH1 0x64 DUP3 ADD MSTORE PUSH1 0x84 SWAP1 REVERT JUMPDEST PUSH4 0x4E487B71 PUSH1 0xE0 SHL PUSH1 0x0 MSTORE PUSH1 0x41 PUSH1 0x4 MSTORE PUSH1 0x24 PUSH1 0x0 REVERT JUMPDEST SWAP1 PUSH1 0x1F DUP1 NOT SWAP2 ADD AND DUP2 ADD SWAP1 DUP2 LT PUSH8 0xFFFFFFFFFFFFFFFF DUP3 GT OR PUSH2 0x58C JUMPI PUSH1 0x40 MSTORE JUMP JUMPDEST PUSH2 0x554 JUMP JUMPDEST SWAP1 PUSH2 0x59F PUSH1 0x40 MLOAD SWAP3 DUP4 PUSH2 0x56A JUMP JUMPDEST JUMP JUMPDEST SWAP1 DUP2 MLOAD SWAP2 PUSH1 0x0 JUMPDEST DUP4 DUP2 LT PUSH2 0x5B9 JUMPI POP POP ADD PUSH1 0x0 DUP2 MSTORE SWAP1 JUMP JUMPDEST DUP1 PUSH1 0x20 DUP1 SWAP3 DUP5 ADD ADD MLOAD DUP2 DUP6 ADD MSTORE ADD PUSH2 0x5A8 JUMP JUMPDEST PUSH1 0x1 SLOAD PUSH9 0x10000000000000000 DUP2 LT ISZERO PUSH2 0x58C JUMPI PUSH1 0x1 DUP2 ADD DUP1 PUSH1 0x1 SSTORE DUP2 LT ISZERO PUSH2 0x635 JUMPI PUSH1 0x1 PUSH1 0x0 MSTORE PUSH32 0xB10E2D527612073B26EECDFD717E6A320CF44B4AFAC2B0732D9FCBE2B7FA0CF6 ADD DUP1 SLOAD PUSH1 0x1 PUSH1 0x1 PUSH1 0xA0 SHL SUB NOT AND PUSH1 0x1 PUSH1 0x1 PUSH1 0xA0 SHL SUB SWAP1 SWAP3 AND SWAP2 SWAP1 SWAP2 OR SWAP1 SSTORE JUMP JUMPDEST PUSH4 0x4E487B71 PUSH1 0xE0 SHL PUSH1 0x0 MSTORE PUSH1 0x32 PUSH1 0x4 MSTORE PUSH1 0x24 PUSH1 0x0 REVERT INVALID PUSH1 0xC0 PUSH1 0x40 SWAP1 DUP1 DUP3 MSTORE CALLVALUE PUSH3 0x290 JUMPI PUSH1 0xC0 DUP2 PUSH3 0x1364 DUP1 CODESIZE SUB DUP1 SWAP2 PUSH3 0x25 DUP3 DUP6 PUSH3 0x295 JUMP JUMPDEST DUP4 CODECOPY DUP2 ADD SUB SLT PUSH3 0x290 JUMPI DUP1 MLOAD PUSH1 0x1 PUSH1 0x1 PUSH1 0xA0 SHL SUB DUP1 DUP3 AND SWAP3 SWAP2 DUP4 SWAP1 SUB PUSH3 0x290 JUMPI PUSH1 0x20 SWAP2 PUSH3 0x57 DUP4 DUP3 ADD PUSH3 0x2CF JUMP JUMPDEST SWAP1 PUSH3 0x65 DUP7 DUP3 ADD PUSH3 0x2CF JUMP JUMPDEST SWAP2 PUSH1 0x60 DUP3 ADD MLOAD PUSH1 0xA0 PUSH1 0x80 DUP5 ADD MLOAD SWAP4 ADD MLOAD SWAP2 DUP8 ISZERO PUSH3 0x278 JUMPI PUSH1 0x0 DUP1 SLOAD PUSH1 0x1 PUSH1 0x1 PUSH1 0xA0 SHL SUB NOT DUP2 AND DUP11 OR DUP3 SSTORE DUP11 MLOAD SWAP2 SWAP10 SWAP1 DUP9 AND PUSH32 0x8BE0079C531659141344CD1FD0A4F28419497F9722A3DAAFE3B4186F6B6457E0 DUP12 DUP1 LOG3 DUP4 DUP6 LT ISZERO PUSH3 0x22B JUMPI POP PUSH1 0x80 MSTORE DUP4 PUSH1 0xA0 MSTORE PUSH1 0x1 SSTORE DUP2 PUSH1 0x6 SSTORE PUSH1 0x7 SSTORE PUSH1 0x3 SSTORE AND DUP2 DUP2 ISZERO PUSH1 0x0 EQ PUSH3 0x1AD JUMPI POP POP PUSH1 0x12 SWAP1 JUMPDEST PUSH1 0x1E DUP3 LT ISZERO PUSH3 0x16A JUMPI POP PUSH1 0x1E SUB SWAP1 PUSH1 0x1E DUP3 GT PUSH3 0x156 JUMPI PUSH1 0x4D DUP3 GT PUSH3 0x156 JUMPI POP PUSH1 0xA EXP PUSH1 0x5 SSTORE MLOAD PUSH2 0x107F SWAP1 DUP2 PUSH3 0x2E5 DUP3 CODECOPY PUSH1 0x80 MLOAD DUP2 DUP2 DUP2 PUSH2 0x587 ADD MSTORE DUP2 DUP2 PUSH2 0x7DF ADD MSTORE DUP2 DUP2 PUSH2 0xAB6 ADD MSTORE PUSH2 0xD12 ADD MSTORE PUSH1 0xA0 MLOAD DUP2 DUP2 DUP2 PUSH2 0x138 ADD MSTORE DUP2 DUP2 PUSH2 0x2A2 ADD MSTORE PUSH2 0x5AF ADD MSTORE RETURN JUMPDEST PUSH4 0x4E487B71 PUSH1 0xE0 SHL DUP2 MSTORE PUSH1 0x11 PUSH1 0x4 MSTORE PUSH1 0x24 SWAP1 REVERT JUMPDEST PUSH1 0x64 SWAP1 DUP5 MLOAD SWAP1 PUSH3 0x461BCD PUSH1 0xE5 SHL DUP3 MSTORE PUSH1 0x4 DUP3 ADD MSTORE PUSH1 0x16 PUSH1 0x24 DUP3 ADD MSTORE PUSH32 0x4D75737420626520696E666572696F7220746F20333000000000000000000000 PUSH1 0x44 DUP3 ADD MSTORE REVERT JUMPDEST DUP5 MLOAD PUSH4 0x313CE567 PUSH1 0xE0 SHL DUP2 MSTORE SWAP2 DUP3 SWAP1 PUSH1 0x4 SWAP1 DUP3 SWAP1 GAS STATICCALL DUP1 ISZERO PUSH3 0x221 JUMPI DUP4 SWAP1 PUSH3 0x1DE JUMPI JUMPDEST PUSH1 0xFF SWAP2 POP AND SWAP1 PUSH3 0xEB JUMP JUMPDEST POP DUP2 DUP2 DUP2 RETURNDATASIZE DUP4 GT PUSH3 0x219 JUMPI JUMPDEST PUSH3 0x1F7 DUP2 DUP4 PUSH3 0x295 JUMP JUMPDEST DUP2 ADD SUB SLT PUSH3 0x215 JUMPI MLOAD PUSH1 0xFF DUP2 AND DUP2 SUB PUSH3 0x215 JUMPI PUSH1 0xFF SWAP1 PUSH3 0x1D2 JUMP JUMPDEST DUP3 DUP1 REVERT JUMPDEST POP RETURNDATASIZE PUSH3 0x1EB JUMP JUMPDEST DUP5 MLOAD RETURNDATASIZE DUP6 DUP3 RETURNDATACOPY RETURNDATASIZE SWAP1 REVERT JUMPDEST PUSH3 0x461BCD PUSH1 0xE5 SHL DUP2 MSTORE PUSH1 0x4 DUP2 ADD DUP9 SWAP1 MSTORE PUSH1 0x22 PUSH1 0x24 DUP3 ADD MSTORE PUSH32 0x53746172742074696D65206D757374206265206265666F726520656E64207469 PUSH1 0x44 DUP3 ADD MSTORE PUSH2 0x6D65 PUSH1 0xF0 SHL PUSH1 0x64 DUP3 ADD MSTORE PUSH1 0x84 SWAP1 REVERT JUMPDEST DUP9 MLOAD PUSH4 0x1E4FBDF7 PUSH1 0xE0 SHL DUP2 MSTORE PUSH1 0x0 PUSH1 0x4 DUP3 ADD MSTORE PUSH1 0x24 SWAP1 REVERT JUMPDEST PUSH1 0x0 DUP1 REVERT JUMPDEST PUSH1 0x1F SWAP1 SWAP2 ADD PUSH1 0x1F NOT AND DUP2 ADD SWAP1 PUSH1 0x1 PUSH1 0x1 PUSH1 0x40 SHL SUB DUP3 GT SWAP1 DUP3 LT OR PUSH3 0x2B9 JUMPI PUSH1 0x40 MSTORE JUMP JUMPDEST PUSH4 0x4E487B71 PUSH1 0xE0 SHL PUSH1 0x0 MSTORE PUSH1 0x41 PUSH1 0x4 MSTORE PUSH1 0x24 PUSH1 0x0 REVERT JUMPDEST MLOAD SWAP1 PUSH1 0x1 PUSH1 0x1 PUSH1 0xA0 SHL SUB DUP3 AND DUP3 SUB PUSH3 0x290 JUMPI JUMP INVALID PUSH1 0x40 PUSH1 0x80 DUP2 MSTORE PUSH1 0x4 SWAP1 DUP2 CALLDATASIZE LT ISZERO PUSH2 0x20 JUMPI JUMPDEST POP POP CALLDATASIZE ISZERO PUSH2 0x1E JUMPI PUSH1 0x0 DUP1 REVERT JUMPDEST STOP JUMPDEST PUSH1 0x0 SWAP2 DUP3 CALLDATALOAD PUSH1 0xE0 SHR SWAP1 DUP2 PUSH3 0x8CC262 EQ PUSH2 0xE46 JUMPI DUP2 PUSH4 0x660F1E8 EQ PUSH2 0xE0E JUMPI DUP2 PUSH4 0x2E1A7D4D EQ PUSH2 0xC71 JUMPI DUP2 PUSH4 0x3197CBB6 EQ PUSH2 0xC52 JUMPI DUP2 PUSH4 0x5D773B2C EQ PUSH2 0xC33 JUMPI DUP2 PUSH4 0x6AB3846B EQ PUSH2 0xB42 JUMPI DUP2 PUSH4 0x715018A6 EQ PUSH2 0xAE5 JUMPI DUP2 PUSH4 0x72F702F3 EQ PUSH2 0xAA1 JUMPI DUP2 PUSH4 0x78E97925 EQ PUSH2 0xA82 JUMPI DUP2 PUSH4 0x817B1CD2 EQ PUSH2 0xA63 JUMPI DUP2 PUSH4 0x8B876347 EQ PUSH2 0xA2B JUMPI DUP2 PUSH4 0x8DA5CB5B EQ PUSH2 0xA03 JUMPI DUP2 PUSH4 0x9231CF74 EQ PUSH2 0x9E4 JUMPI DUP2 PUSH4 0x9EF3A261 EQ PUSH2 0x932 JUMPI DUP2 PUSH4 0xA694FC3A EQ PUSH2 0x74C JUMPI DUP2 PUSH4 0xACC3A939 EQ PUSH2 0x714 JUMPI DUP2 PUSH4 0xB51609B4 EQ PUSH2 0x545 JUMPI DUP2 PUSH4 0xB88A802F EQ PUSH2 0x257 JUMPI DUP2 PUSH4 0xCCD34CD5 EQ PUSH2 0x238 JUMPI DUP2 PUSH4 0xCD3DAF9D EQ PUSH2 0x214 JUMPI DUP2 PUSH4 0xDF136D65 EQ PUSH2 0x1F6 JUMPI DUP2 PUSH4 0xF2FDE38B EQ PUSH2 0x16B JUMPI POP PUSH4 0xF7C618C1 SUB PUSH2 0x11 JUMPI CALLVALUE PUSH2 0x167 JUMPI DUP2 PUSH1 0x3 NOT CALLDATASIZE ADD SLT PUSH2 0x167 JUMPI MLOAD PUSH32 0x0 PUSH1 0x1 PUSH1 0x1 PUSH1 0xA0 SHL SUB AND DUP2 MSTORE PUSH1 0x20 SWAP1 RETURN JUMPDEST POP DUP1 REVERT JUMPDEST SWAP1 POP CALLVALUE PUSH2 0x1F2 JUMPI PUSH1 0x20 CALLDATASIZE PUSH1 0x3 NOT ADD SLT PUSH2 0x1F2 JUMPI PUSH2 0x186 PUSH2 0xE6C JUMP JUMPDEST SWAP1 PUSH2 0x18F PUSH2 0xE87 JUMP JUMPDEST PUSH1 0x1 PUSH1 0x1 PUSH1 0xA0 SHL SUB SWAP2 DUP3 AND SWAP3 DUP4 ISZERO PUSH2 0x1DC JUMPI POP POP DUP3 SLOAD PUSH1 0x1 PUSH1 0x1 PUSH1 0xA0 SHL SUB NOT DUP2 AND DUP4 OR DUP5 SSTORE AND PUSH32 0x8BE0079C531659141344CD1FD0A4F28419497F9722A3DAAFE3B4186F6B6457E0 DUP4 DUP1 LOG3 DUP1 RETURN JUMPDEST MLOAD PUSH4 0x1E4FBDF7 PUSH1 0xE0 SHL DUP2 MSTORE SWAP1 DUP2 ADD DUP5 SWAP1 MSTORE PUSH1 0x24 SWAP1 REVERT JUMPDEST DUP3 DUP1 REVERT JUMPDEST SWAP1 POP CALLVALUE PUSH2 0x1F2 JUMPI DUP3 PUSH1 0x3 NOT CALLDATASIZE ADD SLT PUSH2 0x1F2 JUMPI PUSH1 0x20 SWAP3 POP SLOAD SWAP1 MLOAD SWAP1 DUP2 MSTORE RETURN JUMPDEST POP POP CALLVALUE PUSH2 0x167 JUMPI DUP2 PUSH1 0x3 NOT CALLDATASIZE ADD SLT PUSH2 0x167 JUMPI PUSH1 0x20 SWAP1 PUSH2 0x231 PUSH2 0xF16 JUMP JUMPDEST SWAP1 MLOAD SWAP1 DUP2 MSTORE RETURN JUMPDEST POP POP CALLVALUE PUSH2 0x167 JUMPI DUP2 PUSH1 0x3 NOT CALLDATASIZE ADD SLT PUSH2 0x167 JUMPI PUSH1 0x20 SWAP1 PUSH1 0x5 SLOAD SWAP1 MLOAD SWAP1 DUP2 MSTORE RETURN JUMPDEST SWAP2 SWAP1 POP CALLVALUE PUSH2 0x1F2 JUMPI DUP3 PUSH1 0x3 NOT CALLDATASIZE ADD SLT PUSH2 0x1F2 JUMPI PUSH2 0x272 PUSH2 0xF16 JUMP JUMPDEST DUP3 SSTORE TIMESTAMP PUSH1 0x3 SSTORE CALLER PUSH2 0x520 JUMPI JUMPDEST CALLER DUP4 MSTORE PUSH1 0x20 SWAP1 PUSH1 0xA DUP3 MSTORE DUP1 DUP5 KECCAK256 SLOAD SWAP3 DUP4 ISZERO PUSH2 0x4E9 JUMPI CALLER DUP6 MSTORE PUSH1 0xA DUP4 MSTORE DUP2 DUP6 KECCAK256 DUP6 SWAP1 SSTORE PUSH32 0x0 PUSH1 0x1 PUSH1 0x1 PUSH1 0xA0 SHL SUB AND DUP1 PUSH2 0x390 JUMPI POP DUP5 DUP1 DUP1 DUP1 DUP8 CALLER GAS CALL RETURNDATASIZE ISZERO PUSH2 0x38B JUMPI RETURNDATASIZE PUSH8 0xFFFFFFFFFFFFFFFF DUP2 GT PUSH2 0x378 JUMPI DUP4 MLOAD SWAP1 PUSH2 0x304 PUSH1 0x1F DUP3 ADD PUSH1 0x1F NOT AND DUP8 ADD DUP4 PUSH2 0xFF9 JUMP JUMPDEST DUP2 MSTORE DUP7 DUP6 RETURNDATASIZE SWAP3 ADD RETURNDATACOPY JUMPDEST ISZERO PUSH2 0x341 JUMPI POP SWAP1 PUSH32 0x106F923F993C2149D49B4255FF723ACAFA1F2D94393F561D3EDA32AE348F7241 SWAP2 JUMPDEST MLOAD SWAP3 DUP4 MSTORE CALLER SWAP3 LOG2 DUP1 RETURN JUMPDEST DUP3 PUSH1 0x64 SWAP3 MLOAD SWAP2 PUSH3 0x461BCD PUSH1 0xE5 SHL DUP4 MSTORE DUP3 ADD MSTORE PUSH1 0x13 PUSH1 0x24 DUP3 ADD MSTORE PUSH19 0x115512081D1C985B9CD9995C8819985A5B1959 PUSH1 0x6A SHL PUSH1 0x44 DUP3 ADD MSTORE REVERT JUMPDEST PUSH4 0x4E487B71 PUSH1 0xE0 SHL DUP8 MSTORE PUSH1 0x41 DUP4 MSTORE PUSH1 0x24 DUP8 REVERT JUMPDEST PUSH2 0x30D JUMP JUMPDEST SWAP1 DUP3 MLOAD PUSH4 0x70A08231 PUSH1 0xE0 SHL DUP2 MSTORE ADDRESS DUP3 DUP3 ADD MSTORE DUP5 DUP2 PUSH1 0x24 DUP2 DUP7 GAS STATICCALL SWAP1 DUP2 ISZERO PUSH2 0x4DF JUMPI SWAP1 DUP7 SWAP2 DUP9 SWAP2 PUSH2 0x4AA JUMPI JUMPDEST POP LT PUSH2 0x45D JUMPI DUP3 MLOAD PUSH4 0xA9059CBB PUSH1 0xE0 SHL DUP2 MSTORE CALLER SWAP2 DUP2 ADD SWAP2 DUP3 MSTORE PUSH1 0x20 DUP3 ADD DUP7 SWAP1 MSTORE SWAP5 SWAP4 SWAP3 SWAP2 DUP4 SWAP2 DUP7 SWAP2 SWAP1 DUP3 SWAP1 DUP10 SWAP1 DUP3 SWAP1 PUSH1 0x40 ADD SUB SWAP3 GAS CALL SWAP4 DUP5 ISZERO PUSH2 0x453 JUMPI PUSH32 0x106F923F993C2149D49B4255FF723ACAFA1F2D94393F561D3EDA32AE348F7241 SWAP4 SWAP5 PUSH2 0x426 JUMPI JUMPDEST POP PUSH2 0x337 JUMP JUMPDEST PUSH2 0x445 SWAP1 DUP4 RETURNDATASIZE DUP6 GT PUSH2 0x44C JUMPI JUMPDEST PUSH2 0x43D DUP2 DUP4 PUSH2 0xFF9 JUMP JUMPDEST DUP2 ADD SWAP1 PUSH2 0x1031 JUMP JUMPDEST POP CODESIZE PUSH2 0x420 JUMP JUMPDEST POP RETURNDATASIZE PUSH2 0x433 JUMP JUMPDEST DUP2 MLOAD RETURNDATASIZE DUP8 DUP3 RETURNDATACOPY RETURNDATASIZE SWAP1 REVERT JUMPDEST DUP3 MLOAD PUSH3 0x461BCD PUSH1 0xE5 SHL DUP2 MSTORE SWAP1 DUP2 ADD DUP5 SWAP1 MSTORE PUSH1 0x21 PUSH1 0x24 DUP3 ADD MSTORE PUSH32 0x496E73756666696369656E742072657761726420746F6B656E2062616C616E63 PUSH1 0x44 DUP3 ADD MSTORE PUSH1 0x65 PUSH1 0xF8 SHL PUSH1 0x64 DUP3 ADD MSTORE PUSH1 0x84 SWAP1 REVERT JUMPDEST DUP1 SWAP3 POP DUP7 DUP1 SWAP3 POP RETURNDATASIZE DUP4 GT PUSH2 0x4D8 JUMPI JUMPDEST PUSH2 0x4C3 DUP2 DUP4 PUSH2 0xFF9 JUMP JUMPDEST DUP2 ADD SUB SLT PUSH2 0x4D4 JUMPI DUP6 SWAP1 MLOAD CODESIZE PUSH2 0x3BB JUMP JUMPDEST DUP7 DUP1 REVERT JUMPDEST POP RETURNDATASIZE PUSH2 0x4B9 JUMP JUMPDEST DUP5 MLOAD RETURNDATASIZE DUP10 DUP3 RETURNDATACOPY RETURNDATASIZE SWAP1 REVERT JUMPDEST DUP3 PUSH1 0x64 SWAP3 MLOAD SWAP2 PUSH3 0x461BCD PUSH1 0xE5 SHL DUP4 MSTORE DUP3 ADD MSTORE PUSH1 0x13 PUSH1 0x24 DUP3 ADD MSTORE PUSH19 0x4E6F207265776172647320746F20636C61696D PUSH1 0x68 SHL PUSH1 0x44 DUP3 ADD MSTORE REVERT JUMPDEST PUSH2 0x529 CALLER PUSH2 0xF9B JUMP JUMPDEST CALLER DUP5 MSTORE PUSH1 0xA PUSH1 0x20 MSTORE DUP2 DUP5 KECCAK256 SSTORE DUP2 SLOAD PUSH1 0x9 PUSH1 0x20 MSTORE DUP2 DUP5 KECCAK256 SSTORE PUSH2 0x27E JUMP JUMPDEST SWAP1 POP CALLVALUE PUSH2 0x1F2 JUMPI PUSH1 0x60 CALLDATASIZE PUSH1 0x3 NOT ADD SLT PUSH2 0x1F2 JUMPI PUSH2 0x560 PUSH2 0xE6C JUMP JUMPDEST PUSH1 0x1 PUSH1 0x1 PUSH1 0xA0 SHL SUB SWAP1 PUSH1 0x44 CALLDATALOAD SWAP1 DUP3 DUP3 AND SWAP1 DUP2 DUP4 SUB PUSH2 0x4D4 JUMPI DUP4 SWAP1 PUSH2 0x582 PUSH2 0xE87 JUMP JUMPDEST AND SWAP3 DUP1 PUSH32 0x0 AND DUP5 EQ PUSH2 0x6D1 JUMPI PUSH32 0x0 AND DUP4 EQ PUSH2 0x68E JUMPI ISZERO PUSH2 0x64B JUMPI DUP4 MLOAD PUSH4 0xA9059CBB PUSH1 0xE0 SHL DUP2 MSTORE PUSH1 0x1 PUSH1 0x1 PUSH1 0xA0 SHL SUB SWAP1 SWAP2 AND SWAP3 DUP2 ADD SWAP3 DUP4 MSTORE PUSH1 0x24 CALLDATALOAD PUSH1 0x20 DUP5 DUP2 ADD SWAP2 SWAP1 SWAP2 MSTORE SWAP1 SWAP4 SWAP3 SWAP1 SWAP2 DUP5 SWAP2 DUP3 SWAP1 DUP8 SWAP1 DUP3 SWAP1 PUSH1 0x40 ADD SUB SWAP3 GAS CALL SWAP1 DUP2 ISZERO PUSH2 0x642 JUMPI POP PUSH2 0x627 JUMPI POP DUP1 RETURN JUMPDEST PUSH2 0x63E SWAP1 PUSH1 0x20 RETURNDATASIZE DUP2 GT PUSH2 0x44C JUMPI PUSH2 0x43D DUP2 DUP4 PUSH2 0xFF9 JUMP JUMPDEST POP DUP1 RETURN JUMPDEST MLOAD RETURNDATASIZE DUP5 DUP3 RETURNDATACOPY RETURNDATASIZE SWAP1 REVERT JUMPDEST DUP4 MLOAD PUSH3 0x461BCD PUSH1 0xE5 SHL DUP2 MSTORE PUSH1 0x20 DUP2 DUP6 ADD MSTORE PUSH1 0x19 PUSH1 0x24 DUP3 ADD MSTORE PUSH32 0x496E76616C696420726563697069656E74206164647265737300000000000000 PUSH1 0x44 DUP3 ADD MSTORE PUSH1 0x64 SWAP1 REVERT JUMPDEST DUP5 MLOAD PUSH3 0x461BCD PUSH1 0xE5 SHL DUP2 MSTORE PUSH1 0x20 DUP2 DUP7 ADD MSTORE PUSH1 0x1C PUSH1 0x24 DUP3 ADD MSTORE PUSH32 0x43616E6E6F742077697468647261772072657761726420746F6B656E00000000 PUSH1 0x44 DUP3 ADD MSTORE PUSH1 0x64 SWAP1 REVERT JUMPDEST DUP6 MLOAD PUSH3 0x461BCD PUSH1 0xE5 SHL DUP2 MSTORE PUSH1 0x20 DUP2 DUP8 ADD MSTORE PUSH1 0x1D PUSH1 0x24 DUP3 ADD MSTORE PUSH32 0x43616E6E6F74207769746864726177207374616B696E6720746F6B656E000000 PUSH1 0x44 DUP3 ADD MSTORE PUSH1 0x64 SWAP1 REVERT JUMPDEST POP POP CALLVALUE PUSH2 0x167 JUMPI PUSH1 0x20 CALLDATASIZE PUSH1 0x3 NOT ADD SLT PUSH2 0x167 JUMPI PUSH1 0x20 SWAP2 DUP2 SWAP1 PUSH1 0x1 PUSH1 0x1 PUSH1 0xA0 SHL SUB PUSH2 0x73C PUSH2 0xE6C JUMP JUMPDEST AND DUP2 MSTORE PUSH1 0x8 DUP5 MSTORE KECCAK256 SLOAD SWAP1 MLOAD SWAP1 DUP2 MSTORE RETURN JUMPDEST SWAP2 SWAP1 POP CALLVALUE PUSH2 0x1F2 JUMPI PUSH1 0x20 DUP1 PUSH1 0x3 NOT CALLDATASIZE ADD SLT PUSH2 0x92E JUMPI DUP3 CALLDATALOAD SWAP2 PUSH1 0x6 SLOAD TIMESTAMP LT PUSH2 0x8ED JUMPI PUSH1 0x7 SLOAD TIMESTAMP GT PUSH2 0x8B5 JUMPI PUSH2 0x77E PUSH2 0xF16 JUMP JUMPDEST DUP5 SSTORE TIMESTAMP PUSH1 0x3 SSTORE CALLER PUSH2 0x892 JUMPI JUMPDEST DUP3 ISZERO PUSH2 0x860 JUMPI PUSH2 0x79C DUP4 PUSH1 0x2 SLOAD PUSH2 0xF09 JUMP JUMPDEST PUSH1 0x2 SSTORE CALLER DUP6 MSTORE PUSH1 0x8 DUP3 MSTORE DUP1 DUP6 KECCAK256 PUSH2 0x7B4 DUP5 DUP3 SLOAD PUSH2 0xF09 JUMP JUMPDEST SWAP1 SSTORE DUP1 MLOAD PUSH4 0x23B872DD PUSH1 0xE0 SHL DUP2 MSTORE CALLER SWAP5 DUP2 ADD SWAP5 SWAP1 SWAP5 MSTORE ADDRESS PUSH1 0x24 DUP6 ADD MSTORE PUSH1 0x44 DUP5 ADD DUP4 SWAP1 MSTORE DUP2 DUP5 PUSH1 0x64 DUP2 DUP9 PUSH32 0x0 PUSH1 0x1 PUSH1 0x1 PUSH1 0xA0 SHL SUB AND GAS CALL SWAP4 DUP5 ISZERO PUSH2 0x453 JUMPI PUSH32 0x9E71BC8EEA02A63969F509818F2DAFB9254532904319F9DBDA79B67BD34A5F3D SWAP4 SWAP5 PUSH2 0x843 JUMPI JUMPDEST POP MLOAD SWAP3 DUP4 MSTORE CALLER SWAP3 LOG2 DUP1 RETURN JUMPDEST PUSH2 0x859 SWAP1 DUP4 RETURNDATASIZE DUP6 GT PUSH2 0x44C JUMPI PUSH2 0x43D DUP2 DUP4 PUSH2 0xFF9 JUMP JUMPDEST POP CODESIZE PUSH2 0x838 JUMP JUMPDEST MLOAD PUSH3 0x461BCD PUSH1 0xE5 SHL DUP2 MSTORE SWAP3 DUP4 ADD MSTORE POP PUSH1 0xE PUSH1 0x24 DUP3 ADD MSTORE PUSH14 0x43616E6E6F74207374616B65203 PUSH1 0x94 SHL PUSH1 0x44 DUP3 ADD MSTORE PUSH1 0x64 SWAP1 REVERT JUMPDEST PUSH2 0x89B CALLER PUSH2 0xF9B JUMP JUMPDEST CALLER DUP7 MSTORE PUSH1 0xA DUP4 MSTORE DUP2 DUP7 KECCAK256 SSTORE DUP4 SLOAD PUSH1 0x9 DUP4 MSTORE DUP2 DUP7 KECCAK256 SSTORE PUSH2 0x78A JUMP JUMPDEST MLOAD PUSH3 0x461BCD PUSH1 0xE5 SHL DUP2 MSTORE SWAP3 DUP4 ADD MSTORE POP PUSH1 0x14 PUSH1 0x24 DUP3 ADD MSTORE PUSH20 0x14DD185ADA5B99C81C195C9A5BD908195B991959 PUSH1 0x62 SHL PUSH1 0x44 DUP3 ADD MSTORE PUSH1 0x64 SWAP1 REVERT JUMPDEST MLOAD PUSH3 0x461BCD PUSH1 0xE5 SHL DUP2 MSTORE SWAP3 DUP4 ADD MSTORE POP PUSH1 0x17 PUSH1 0x24 DUP3 ADD MSTORE PUSH32 0x5374616B696E67206E6F74207374617274656420796574000000000000000000 PUSH1 0x44 DUP3 ADD MSTORE PUSH1 0x64 SWAP1 REVERT JUMPDEST DUP4 DUP1 REVERT JUMPDEST SWAP2 SWAP1 POP CALLVALUE PUSH2 0x1F2 JUMPI PUSH1 0x20 CALLDATASIZE PUSH1 0x3 NOT ADD SLT PUSH2 0x1F2 JUMPI DUP2 CALLDATALOAD SWAP2 PUSH2 0x951 PUSH2 0xE87 JUMP JUMPDEST PUSH2 0x959 PUSH2 0xF16 JUMP JUMPDEST DUP2 SSTORE TIMESTAMP PUSH1 0x3 SSTORE DUP3 ISZERO PUSH2 0x997 JUMPI POP DUP2 PUSH1 0x20 SWAP2 PUSH32 0x41D466EBD06FB97E7786086AC8B69B7EB7DA798592036251291D34E9791CDE01 SWAP4 PUSH1 0x1 SSTORE MLOAD SWAP1 DUP2 MSTORE LOG1 DUP1 RETURN JUMPDEST PUSH1 0x20 PUSH1 0x84 SWAP3 MLOAD SWAP2 PUSH3 0x461BCD PUSH1 0xE5 SHL DUP4 MSTORE DUP3 ADD MSTORE PUSH1 0x22 PUSH1 0x24 DUP3 ADD MSTORE PUSH32 0x5265776172642072617465206D7573742062652067726561746572207468616E PUSH1 0x44 DUP3 ADD MSTORE PUSH2 0x203 PUSH1 0xF4 SHL PUSH1 0x64 DUP3 ADD MSTORE REVERT JUMPDEST POP POP CALLVALUE PUSH2 0x167 JUMPI DUP2 PUSH1 0x3 NOT CALLDATASIZE ADD SLT PUSH2 0x167 JUMPI PUSH1 0x20 SWAP1 PUSH1 0x3 SLOAD SWAP1 MLOAD SWAP1 DUP2 MSTORE RETURN JUMPDEST POP POP CALLVALUE PUSH2 0x167 JUMPI DUP2 PUSH1 0x3 NOT CALLDATASIZE ADD SLT PUSH2 0x167 JUMPI SWAP1 SLOAD SWAP1 MLOAD PUSH1 0x1 PUSH1 0x1 PUSH1 0xA0 SHL SUB SWAP1 SWAP2 AND DUP2 MSTORE PUSH1 0x20 SWAP1 RETURN JUMPDEST POP POP CALLVALUE PUSH2 0x167 JUMPI PUSH1 0x20 CALLDATASIZE PUSH1 0x3 NOT ADD SLT PUSH2 0x167 JUMPI PUSH1 0x20 SWAP2 DUP2 SWAP1 PUSH1 0x1 PUSH1 0x1 PUSH1 0xA0 SHL SUB PUSH2 0xA53 PUSH2 0xE6C JUMP JUMPDEST AND DUP2 MSTORE PUSH1 0x9 DUP5 MSTORE KECCAK256 SLOAD SWAP1 MLOAD SWAP1 DUP2 MSTORE RETURN JUMPDEST POP POP CALLVALUE PUSH2 0x167 JUMPI DUP2 PUSH1 0x3 NOT CALLDATASIZE ADD SLT PUSH2 0x167 JUMPI PUSH1 0x20 SWAP1 PUSH1 0x2 SLOAD SWAP1 MLOAD SWAP1 DUP2 MSTORE RETURN JUMPDEST POP POP CALLVALUE PUSH2 0x167 JUMPI DUP2 PUSH1 0x3 NOT CALLDATASIZE ADD SLT PUSH2 0x167 JUMPI PUSH1 0x20 SWAP1 PUSH1 0x6 SLOAD SWAP1 MLOAD SWAP1 DUP2 MSTORE RETURN JUMPDEST POP POP CALLVALUE PUSH2 0x167 JUMPI DUP2 PUSH1 0x3 NOT CALLDATASIZE ADD SLT PUSH2 0x167 JUMPI MLOAD PUSH32 0x0 PUSH1 0x1 PUSH1 0x1 PUSH1 0xA0 SHL SUB AND DUP2 MSTORE PUSH1 0x20 SWAP1 RETURN JUMPDEST DUP4 CALLVALUE PUSH2 0xB3F JUMPI DUP1 PUSH1 0x3 NOT CALLDATASIZE ADD SLT PUSH2 0xB3F JUMPI PUSH2 0xAFE PUSH2 0xE87 JUMP JUMPDEST DUP1 SLOAD PUSH1 0x1 PUSH1 0x1 PUSH1 0xA0 SHL SUB NOT DUP2 AND DUP3 SSTORE DUP2 SWAP1 PUSH1 0x1 PUSH1 0x1 PUSH1 0xA0 SHL SUB AND PUSH32 0x8BE0079C531659141344CD1FD0A4F28419497F9722A3DAAFE3B4186F6B6457E0 DUP3 DUP1 LOG3 DUP1 RETURN JUMPDEST DUP1 REVERT JUMPDEST SWAP2 SWAP1 POP CALLVALUE PUSH2 0x1F2 JUMPI PUSH1 0x20 CALLDATASIZE PUSH1 0x3 NOT ADD SLT PUSH2 0x1F2 JUMPI DUP2 CALLDATALOAD SWAP2 PUSH2 0xB61 PUSH2 0xE87 JUMP JUMPDEST TIMESTAMP DUP4 GT ISZERO PUSH2 0xBF1 JUMPI PUSH1 0x6 SLOAD DUP4 GT ISZERO PUSH2 0xBA5 JUMPI POP DUP2 PUSH1 0x20 SWAP2 PUSH32 0x37D37B8940CC1EC723111799F54132501E05042CD219649E575E84E5C36F3B5E SWAP4 PUSH1 0x7 SSTORE MLOAD SWAP1 DUP2 MSTORE LOG1 DUP1 RETURN JUMPDEST PUSH1 0x20 PUSH1 0x84 SWAP3 MLOAD SWAP2 PUSH3 0x461BCD PUSH1 0xE5 SHL DUP4 MSTORE DUP3 ADD MSTORE PUSH1 0x21 PUSH1 0x24 DUP3 ADD MSTORE PUSH32 0x456E642074696D65206D7573742062652061667465722073746172742074696D PUSH1 0x44 DUP3 ADD MSTORE PUSH1 0x65 PUSH1 0xF8 SHL PUSH1 0x64 DUP3 ADD MSTORE REVERT JUMPDEST PUSH1 0x20 PUSH1 0x64 SWAP3 MLOAD SWAP2 PUSH3 0x461BCD PUSH1 0xE5 SHL DUP4 MSTORE DUP3 ADD MSTORE PUSH1 0x1E PUSH1 0x24 DUP3 ADD MSTORE PUSH32 0x456E642074696D65206D75737420626520696E20746865206675747572650000 PUSH1 0x44 DUP3 ADD MSTORE REVERT JUMPDEST POP POP CALLVALUE PUSH2 0x167 JUMPI DUP2 PUSH1 0x3 NOT CALLDATASIZE ADD SLT PUSH2 0x167 JUMPI PUSH1 0x20 SWAP1 PUSH1 0x1 SLOAD SWAP1 MLOAD SWAP1 DUP2 MSTORE RETURN JUMPDEST POP POP CALLVALUE PUSH2 0x167 JUMPI DUP2 PUSH1 0x3 NOT CALLDATASIZE ADD SLT PUSH2 0x167 JUMPI PUSH1 0x20 SWAP1 PUSH1 0x7 SLOAD SWAP1 MLOAD SWAP1 DUP2 MSTORE RETURN JUMPDEST SWAP2 SWAP1 POP CALLVALUE PUSH2 0x1F2 JUMPI PUSH1 0x20 SWAP1 DUP2 PUSH1 0x3 NOT CALLDATASIZE ADD SLT PUSH2 0x92E JUMPI DUP3 CALLDATALOAD SWAP3 PUSH2 0xC92 PUSH2 0xF16 JUMP JUMPDEST DUP2 SSTORE TIMESTAMP PUSH1 0x3 SSTORE CALLER PUSH2 0xDEB JUMPI JUMPDEST DUP4 ISZERO PUSH2 0xDB6 JUMPI CALLER DUP6 MSTORE PUSH1 0x8 DUP4 MSTORE DUP4 DUP3 DUP7 KECCAK256 SLOAD LT PUSH2 0xD75 JUMPI SWAP1 DUP3 DUP5 DUP1 SWAP5 SWAP4 PUSH2 0xCCA PUSH2 0xD0D SWAP8 PUSH1 0x2 SLOAD PUSH2 0xEB3 JUMP JUMPDEST PUSH1 0x2 SSTORE CALLER DUP9 MSTORE PUSH1 0x8 DUP4 MSTORE DUP4 DUP9 KECCAK256 PUSH2 0xCE2 DUP4 DUP3 SLOAD PUSH2 0xEB3 JUMP JUMPDEST SWAP1 SSTORE DUP4 MLOAD PUSH4 0xA9059CBB PUSH1 0xE0 SHL DUP2 MSTORE CALLER SWAP2 DUP2 ADD SWAP2 DUP3 MSTORE PUSH1 0x20 DUP3 ADD SWAP3 SWAP1 SWAP3 MSTORE SWAP1 SWAP6 DUP7 SWAP2 DUP3 SWAP2 PUSH1 0x40 SWAP1 SWAP2 ADD SWAP1 JUMP JUMPDEST SUB DUP2 DUP9 PUSH32 0x0 PUSH1 0x1 PUSH1 0x1 PUSH1 0xA0 SHL SUB AND GAS CALL SWAP4 DUP5 ISZERO PUSH2 0x453 JUMPI PUSH32 0x7084F5476618D8E60B11EF0D7D3F06914655ADB8793E28FF7F018D4C76D505D5 SWAP4 SWAP5 PUSH2 0x843 JUMPI POP MLOAD SWAP3 DUP4 MSTORE CALLER SWAP3 LOG2 DUP1 RETURN JUMPDEST DUP3 PUSH1 0x64 SWAP3 MLOAD SWAP2 PUSH3 0x461BCD PUSH1 0xE5 SHL DUP4 MSTORE DUP3 ADD MSTORE PUSH1 0x1E PUSH1 0x24 DUP3 ADD MSTORE PUSH32 0x576974686472617720616D6F756E742065786365656473207374616B65640000 PUSH1 0x44 DUP3 ADD MSTORE REVERT JUMPDEST DUP3 PUSH1 0x64 SWAP3 MLOAD SWAP2 PUSH3 0x461BCD PUSH1 0xE5 SHL DUP4 MSTORE DUP3 ADD MSTORE PUSH1 0x11 PUSH1 0x24 DUP3 ADD MSTORE PUSH17 0x43616E6E6F74207769746864726177203 PUSH1 0x7C SHL PUSH1 0x44 DUP3 ADD MSTORE REVERT JUMPDEST PUSH2 0xDF4 CALLER PUSH2 0xF9B JUMP JUMPDEST CALLER DUP7 MSTORE PUSH1 0xA DUP5 MSTORE DUP3 DUP7 KECCAK256 SSTORE DUP1 SLOAD PUSH1 0x9 DUP5 MSTORE DUP3 DUP7 KECCAK256 SSTORE PUSH2 0xC9E JUMP JUMPDEST POP POP CALLVALUE PUSH2 0x167 JUMPI PUSH1 0x20 CALLDATASIZE PUSH1 0x3 NOT ADD SLT PUSH2 0x167 JUMPI PUSH1 0x20 SWAP2 DUP2 SWAP1 PUSH1 0x1 PUSH1 0x1 PUSH1 0xA0 SHL SUB PUSH2 0xE36 PUSH2 0xE6C JUMP JUMPDEST AND DUP2 MSTORE PUSH1 0xA DUP5 MSTORE KECCAK256 SLOAD SWAP1 MLOAD SWAP1 DUP2 MSTORE RETURN JUMPDEST POP POP CALLVALUE PUSH2 0x167 JUMPI PUSH1 0x20 CALLDATASIZE PUSH1 0x3 NOT ADD SLT PUSH2 0x167 JUMPI PUSH1 0x20 SWAP1 PUSH2 0x231 PUSH2 0xE67 PUSH2 0xE6C JUMP JUMPDEST PUSH2 0xF9B JUMP JUMPDEST PUSH1 0x4 CALLDATALOAD SWAP1 PUSH1 0x1 PUSH1 0x1 PUSH1 0xA0 SHL SUB DUP3 AND DUP3 SUB PUSH2 0xE82 JUMPI JUMP JUMPDEST PUSH1 0x0 DUP1 REVERT JUMPDEST PUSH1 0x0 SLOAD PUSH1 0x1 PUSH1 0x1 PUSH1 0xA0 SHL SUB AND CALLER SUB PUSH2 0xE9B JUMPI JUMP JUMPDEST PUSH1 0x40 MLOAD PUSH4 0x118CDAA7 PUSH1 0xE0 SHL DUP2 MSTORE CALLER PUSH1 0x4 DUP3 ADD MSTORE PUSH1 0x24 SWAP1 REVERT JUMPDEST SWAP2 SWAP1 DUP3 SUB SWAP2 DUP3 GT PUSH2 0xEC0 JUMPI JUMP JUMPDEST PUSH4 0x4E487B71 PUSH1 0xE0 SHL PUSH1 0x0 MSTORE PUSH1 0x11 PUSH1 0x4 MSTORE PUSH1 0x24 PUSH1 0x0 REVERT JUMPDEST DUP2 DUP2 MUL SWAP3 SWAP2 DUP2 ISZERO SWAP2 DUP5 DIV EQ OR ISZERO PUSH2 0xEC0 JUMPI JUMP JUMPDEST DUP2 ISZERO PUSH2 0xEF3 JUMPI DIV SWAP1 JUMP JUMPDEST PUSH4 0x4E487B71 PUSH1 0xE0 SHL PUSH1 0x0 MSTORE PUSH1 0x12 PUSH1 0x4 MSTORE PUSH1 0x24 PUSH1 0x0 REVERT JUMPDEST SWAP2 SWAP1 DUP3 ADD DUP1 SWAP3 GT PUSH2 0xEC0 JUMPI JUMP JUMPDEST PUSH1 0x2 SLOAD DUP1 ISZERO DUP1 ISZERO PUSH2 0xF90 JUMPI JUMPDEST PUSH2 0xF89 JUMPI PUSH1 0x7 SLOAD DUP1 TIMESTAMP GT PUSH1 0x0 EQ PUSH2 0xF82 JUMPI JUMPDEST PUSH1 0x3 SLOAD DUP1 DUP3 GT ISZERO PUSH2 0xF79 JUMPI PUSH2 0xF76 SWAP3 PUSH2 0xF6B PUSH2 0xF62 PUSH2 0xF59 PUSH2 0xF70 SWAP5 PUSH1 0x4 SLOAD SWAP7 PUSH2 0xEB3 JUMP JUMPDEST PUSH1 0x1 SLOAD SWAP1 PUSH2 0xED6 JUMP JUMPDEST PUSH1 0x5 SLOAD SWAP1 PUSH2 0xED6 JUMP JUMPDEST PUSH2 0xEE9 JUMP JUMPDEST SWAP1 PUSH2 0xF09 JUMP JUMPDEST SWAP1 JUMP JUMPDEST POP POP POP PUSH1 0x4 SLOAD SWAP1 JUMP JUMPDEST POP TIMESTAMP PUSH2 0xF34 JUMP JUMPDEST POP PUSH1 0x4 SLOAD SWAP1 JUMP JUMPDEST POP PUSH1 0x6 SLOAD TIMESTAMP LT PUSH2 0xF22 JUMP JUMPDEST PUSH2 0xF76 SWAP1 PUSH1 0x1 DUP1 PUSH1 0xA0 SHL SUB AND PUSH1 0x40 PUSH1 0x0 DUP3 DUP2 MSTORE PUSH1 0x8 PUSH1 0x20 MSTORE PUSH2 0xFE9 PUSH2 0xFE0 DUP4 DUP4 KECCAK256 SLOAD PUSH2 0xFDA PUSH2 0xFC8 PUSH2 0xF16 JUMP JUMPDEST DUP8 DUP7 MSTORE PUSH1 0x9 PUSH1 0x20 MSTORE DUP7 DUP7 KECCAK256 SLOAD SWAP1 PUSH2 0xEB3 JUMP JUMPDEST SWAP1 PUSH2 0xED6 JUMP JUMPDEST PUSH1 0x5 SLOAD SWAP1 PUSH2 0xEE9 JUMP JUMPDEST SWAP3 DUP2 MSTORE PUSH1 0xA PUSH1 0x20 MSTORE KECCAK256 SLOAD SWAP1 PUSH2 0xF09 JUMP JUMPDEST SWAP1 PUSH1 0x1F DUP1 NOT SWAP2 ADD AND DUP2 ADD SWAP1 DUP2 LT PUSH8 0xFFFFFFFFFFFFFFFF DUP3 GT OR PUSH2 0x101B JUMPI PUSH1 0x40 MSTORE JUMP JUMPDEST PUSH4 0x4E487B71 PUSH1 0xE0 SHL PUSH1 0x0 MSTORE PUSH1 0x41 PUSH1 0x4 MSTORE PUSH1 0x24 PUSH1 0x0 REVERT JUMPDEST SWAP1 DUP2 PUSH1 0x20 SWAP2 SUB SLT PUSH2 0xE82 JUMPI MLOAD DUP1 ISZERO ISZERO DUP2 SUB PUSH2 0xE82 JUMPI SWAP1 JUMP INVALID LOG2 PUSH5 0x6970667358 0x22 SLT KECCAK256 SWAP14 PUSH1 0x1 0xE6 0x1E DUP9 LOG3 PUSH13 0xDDB4175F27D23A7ED4FDF3CE66 SGT 0xD0 EQ 0xAA PUSH3 0x2D1213 0xA5 BLOCKHASH ADD PUSH5 0x736F6C6343 STOP ADDMOD EQ STOP CALLER LOG2 PUSH5 0x6970667358 0x22 SLT KECCAK256 0xBD 0xAC STATICCALL ADDRESS LOG0 GAS 0xEF SWAP11 PUSH8 0xA07144128D467A9 0xE0 PUSH13 0xCE7EE4FBA2830A55D6B7F820 PUSH5 0x736F6C6343 STOP ADDMOD EQ STOP CALLER "
        },
        "methodIdentifiers": {
          "allPools(uint256)": "41d1de97",
          "createPool(address,address,uint256,uint256,uint256)": "85ac165a",
          "getPool(uint256)": "068bcd8d",
          "getPoolCount()": "8eec5d70",
          "owner()": "8da5cb5b",
          "renounceOwnership()": "715018a6",
          "transferOwnership(address)": "f2fde38b"
        }
      },
      "storageLayout": {
        "storage": [
          {
            "astId": 8,
            "contract": "contracts/SubnetStakingPoolFactory.sol:SubnetStakingPoolFactory",
            "label": "_owner",
            "offset": 0,
            "slot": "0",
            "type": "t_address"
          },
          {
            "astId": 901,
            "contract": "contracts/SubnetStakingPoolFactory.sol:SubnetStakingPoolFactory",
            "label": "allPools",
            "offset": 0,
            "slot": "1",
            "type": "t_array(t_address)dyn_storage"
          }
        ],
        "types": {
          "t_address": {
            "encoding": "inplace",
            "label": "address",
            "numberOfBytes": "20"
          },
          "t_array(t_address)dyn_storage": {
            "base": "t_address",
            "encoding": "dynamic_array",
            "label": "address[]",
            "numberOfBytes": "32"
          }
        }
      }
    }
  }
}