{
  "contracts/SubnetVerifier.sol": {
    "SubnetVerifier": {
      "abi": [
        {
          "inputs": [],
          "name": "InvalidInitialization",
          "type": "error"
        },
        {
          "inputs": [],
          "name": "NotInitializing",
          "type": "error"
        },
        {
          "inputs": [
            {
              "internalType": "address",
              "name": "owner",
              "type": "address"
            }
          ],
          "name": "OwnableInvalidOwner",
          "type": "error"
        },
        {
          "inputs": [
            {
              "internalType": "address",
              "name": "account",
              "type": "address"
            }
          ],
          "name": "OwnableUnauthorizedAccount",
          "type": "error"
        },
        {
          "anonymous": false,
          "inputs": [
            {
              "indexed": false,
              "internalType": "uint64",
              "name": "version",
              "type": "uint64"
            }
          ],
          "name": "Initialized",
          "type": "event"
        },
        {
          "anonymous": false,
          "inputs": [
            {
              "indexed": true,
              "internalType": "address",
              "name": "previousOwner",
              "type": "address"
            },
            {
              "indexed": true,
              "internalType": "address",
              "name": "newOwner",
              "type": "address"
            }
          ],
          "name": "OwnershipTransferred",
          "type": "event"
        },
        {
          "anonymous": false,
          "inputs": [
            {
              "indexed": true,
              "internalType": "address",
              "name": "verifier",
              "type": "address"
            }
          ],
          "name": "VerifierDeleted",
          "type": "event"
        },
        {
          "anonymous": false,
          "inputs": [
            {
              "indexed": true,
              "internalType": "address",
              "name": "verifier",
              "type": "address"
            },
            {
              "indexed": false,
              "internalType": "string[]",
              "name": "peerIds",
              "type": "string[]"
            }
          ],
          "name": "VerifierPeersUpdated",
          "type": "event"
        },
        {
          "anonymous": false,
          "inputs": [
            {
              "indexed": true,
              "internalType": "address",
              "name": "verifier",
              "type": "address"
            }
          ],
          "name": "VerifierRegistered",
          "type": "event"
        },
        {
          "inputs": [
            {
              "internalType": "address",
              "name": "verifier",
              "type": "address"
            }
          ],
          "name": "deleteVerifier",
          "outputs": [],
          "stateMutability": "nonpayable",
          "type": "function"
        },
        {
          "inputs": [
            {
              "internalType": "address",
              "name": "verifier",
              "type": "address"
            }
          ],
          "name": "getVerifierInfo",
          "outputs": [
            {
              "components": [
                {
                  "internalType": "bool",
                  "name": "isRegistered",
                  "type": "bool"
                },
                {
                  "internalType": "string[]",
                  "name": "peerIds",
                  "type": "string[]"
                }
              ],
              "internalType": "struct SubnetVerifier.VerifierInfo",
              "name": "",
              "type": "tuple"
            }
          ],
          "stateMutability": "view",
          "type": "function"
        },
        {
          "inputs": [
            {
              "internalType": "address",
              "name": "_initialOwner",
              "type": "address"
            }
          ],
          "name": "initialize",
          "outputs": [],
          "stateMutability": "nonpayable",
          "type": "function"
        },
        {
          "inputs": [],
          "name": "owner",
          "outputs": [
            {
              "internalType": "address",
              "name": "",
              "type": "address"
            }
          ],
          "stateMutability": "view",
          "type": "function"
        },
        {
          "inputs": [
            {
              "internalType": "address",
              "name": "verifier",
              "type": "address"
            },
            {
              "internalType": "string[]",
              "name": "peerIds",
              "type": "string[]"
            }
          ],
          "name": "registerVerifier",
          "outputs": [],
          "stateMutability": "nonpayable",
          "type": "function"
        },
        {
          "inputs": [],
          "name": "renounceOwnership",
          "outputs": [],
          "stateMutability": "nonpayable",
          "type": "function"
        },
        {
          "inputs": [
            {
              "internalType": "address",
              "name": "newOwner",
              "type": "address"
            }
          ],
          "name": "transferOwnership",
          "outputs": [],
          "stateMutability": "nonpayable",
          "type": "function"
        },
        {
          "inputs": [
            {
              "internalType": "address",
              "name": "verifier",
              "type": "address"
            },
            {
              "internalType": "string[]",
              "name": "peerIds",
              "type": "string[]"
            }
          ],
          "name": "updateVerifierPeers",
          "outputs": [],
          "stateMutability": "nonpayable",
          "type": "function"
        },
        {
          "inputs": [
            {
              "internalType": "address",
              "name": "",
              "type": "address"
            }
          ],
          "name": "verifiers",
          "outputs": [
            {
              "internalType": "bool",
              "name": "isRegistered",
              "type": "bool"
            }
          ],
          "stateMutability": "view",
          "type": "function"
        },
        {
          "inputs": [],
          "name": "version",
          "outputs": [
            {
              "internalType": "string",
              "name": "",
              "type": "string"
            }
          ],
          "stateMutability": "pure",
          "type": "function"
        }
      ],
      "evm": {
        "bytecode": {
          "linkReferences": {},
          "object": "6080806040523461001657610e57908161001c8239f35b600080fdfe60406080815260048036101561001457600080fd5b600091823560e01c9182630e1fb4ca1461079d5782631c4dada31461056257826354fd4d501461051d57826355f32817146104295782636c824487146103ec578263715018a6146103825782638da5cb5b1461034c578263a3e0851d146101f7578263c4d66de8146100c057505063f2fde38b1461009157600080fd5b346100bd5760203660031901126100bd576100ba6100ad6109af565b6100b5610be1565b610c1a565b80f35b80fd5b909150346101f35760203660031901126101f3576100dc6109af565b907ff0c57e16840df040f15088dc2f81fe391c3923bec73e23a9662efc9c229c6a0091825460ff81861c16159267ffffffffffffffff8216801590816101eb575b60011490816101e1575b1590816101d8575b506101ca575067ffffffffffffffff19811660011784556101629190836101ab575b5061015a610c8e565b6100b5610c8e565b61016a578280f35b805468ff00000000000000001916905551600181527fc7f505b2f371ae2175ee4913f4499e1f2633a7b5936321eed1cdaeb6115181d290602090a138808280f35b68ffffffffffffffffff19166801000000000000000117845538610151565b855163f92ee8a960e01b8152fd5b9050153861012f565b303b159150610127565b85915061011d565b8280fd5b5082346100bd5760209182600319360112610348576102146109af565b6060848351610222816109ca565b85815201526001600160a01b03168252818352808220815192610244846109ca565b60ff82541615158452600180920191825461025e81610a1e565b9361026b865195866109fc565b818552835286832083908886015b8383106102af57888a0187815288518b81528a511515818d01529051818a018a905281906102ab906060830190610b85565b0390f35b848a895192889385546102c181610ccf565b8083529085811690811561032c57506001146102f4575b506102e681859603826109fc565b815201920192019190610279565b868b52838b208b96505b8187106103155750509384018201936102e66102d8565b8054838801860152939095019489948f94016102fe565b60ff19168584015250151560051b8101830194506102e66102d8565b5080fd5b838234610348578160031936011261034857600080516020610e028339815191525490516001600160a01b039091168152602090f35b83346100bd57806003193601126100bd5761039b610be1565b600080516020610e0283398151915280546001600160a01b0319811690915581906001600160a01b03167f8be0079c531659141344cd1fd0a4f28419497f9722a3daafe3b4186f6b6457e08280a380f35b8382346103485760203660031901126103485760209160ff9082906001600160a01b036104176109af565b16815280855220541690519015158152f35b838234610348576020806003193601126101f3576104456109af565b61044d610be1565b6001600160a01b03168084528382528284205490929061046f9060ff16610db5565b828452838252832090838255600180920190815491858155826104b6575b85857f179d784bd033412e105437d6852ec26971ad53d1d4d2c3a05c1a1809ee55bc168280a280f35b8552808520918201915b8281101561048d5780866104d5869354610ccf565b806104e3575b5050016104c0565b601f8082116001146104fb57505081555b86886104db565b61051490848452868420920160051c8201858301610d09565b818355556104f4565b83823461034857816003193601126103485780516102ab9161053e826109ca565b60058252640312e302e360dc1b602083015251918291602083526020830190610b45565b909150346101f35761057336610a36565b9060018060a01b038091169283865260209186835261059760ff8789205416610db5565b843314908115610782575b501561072d5783865285825260019081868820018451916105c38383610d20565b90885283882088918686015b848410610614578a897f0f671e18862549ec4d8019cc59f3ab1cfef01ea6b7f5f1b73bef2ed1bebc58768a8a61060e8f51928284938452830190610b85565b0390a280f35b805190815167ffffffffffffffff811161071a57879189918e6106378854610ccf565b90601f918281116106e4575b50849183116001146106835790859683610678575b5050600019600383901b1c191690841b1786555b019301930192916105cf565b015190503880610658565b90601f198316898352858320925b8181106106cd57509086978488959493106106b4575b505050811b01865561066c565b015160001960f88460031b161c191690553880806106a7565b8289015184558d978f979401939283019201610691565b61070b908a8352868320600585808801821c8301938a8910610711575b01901c0190610d09565b38610643565b93508293610701565b634e487b7160e01b8d526041845260248dfd5b60849185519162461bcd60e51b8352820152602b60248201527f4f6e6c7920746865207665726966696572206f72206f776e65722063616e207560448201526a706461746520706565727360a81b6064820152fd5b9050600080516020610e0283398151915254163314386105a2565b9150346101f3576107ad36610a36565b906107b6610be1565b6001600160a01b031680855260208581528386205491949160ff1661096d578392919251936107e4856109ca565b600194859182825283820194855287895288845288209051151560ff80198354169116178155019151928184519461081c8686610d20565b019287528187209087935b8585106108575788887f85cf819da48b7e3c138cca9531adae41f25faeff5801e9e096eb2c1fb3cbbab78280a280f35b805190815167ffffffffffffffff811161095a57889186916108798754610ccf565b948d601f968588821161092e575b5050508d849683116001146108cc579582918697926108c1575b5050600019600383901b1c191690841b1786555b01930194019391610827565b0151905038806108a1565b9095601f198316898352858320925b81811061091757509086978488959493106108fe575b505050811b0186556108b5565b015160001960f88460031b161c191690553880806108f1565b8289015184558e978c9794019392830192016108db565b828b610952945220600589808701821c8301938988106107115701901c0190610d09565b8d3885610887565b634e487b7160e01b8b526041845260248bfd5b835162461bcd60e51b815291820152601b60248201527f566572696669657220616c726561647920726567697374657265640000000000604482015260649150fd5b600435906001600160a01b03821682036109c557565b600080fd5b6040810190811067ffffffffffffffff8211176109e657604052565b634e487b7160e01b600052604160045260246000fd5b90601f8019910116810190811067ffffffffffffffff8211176109e657604052565b67ffffffffffffffff81116109e65760051b60200190565b906040806003198401126109c55760049283356001600160a01b03811681036109c5579360249182359167ffffffffffffffff918284116109c557806023850112156109c5578382013591610a8a83610a1e565b96610a97815198896109fc565b83885260209680888a019560051b880101968488116109c557818101955b888710610ac9575050505050505050505090565b86358881116109c557820190866043830112156109c5578382013590898211610b30578551610b01601f8401601f19168e01826109fc565b828152604493898585830101116109c5578d848196958296600094018386013783010152815201960195610ab5565b634e487b7160e01b6000908152604188528590fd5b919082519283825260005b848110610b71575050826000602080949584010152601f8019910116010190565b602081830181015184830182015201610b50565b908082519081815260208091019281808460051b8301019501936000915b848310610bb35750505050505090565b9091929394958480610bd1600193601f198682030187528a51610b45565b9801930193019194939290610ba3565b600080516020610e02833981519152546001600160a01b03163303610c0257565b60405163118cdaa760e01b8152336004820152602490fd5b6001600160a01b03908116908115610c7557600080516020610e0283398151915280546001600160a01b031981168417909155167f8be0079c531659141344cd1fd0a4f28419497f9722a3daafe3b4186f6b6457e0600080a3565b604051631e4fbdf760e01b815260006004820152602490fd5b60ff7ff0c57e16840df040f15088dc2f81fe391c3923bec73e23a9662efc9c229c6a005460401c1615610cbd57565b604051631afcd79f60e31b8152600490fd5b90600182811c92168015610cff575b6020831014610ce957565b634e487b7160e01b600052602260045260246000fd5b91607f1691610cde565b818110610d14575050565b60008155600101610d09565b6801000000000000000082116109e657805491808255828110610d4257505050565b600091825260209081832093840193015b838110610d605750505050565b8083610d6e60019354610ccf565b80610d7c575b505001610d53565b601f8082118514610d9357505081555b8338610d74565b610dac90848452868420920160051c8201858301610d09565b81835555610d8c565b15610dbc57565b60405162461bcd60e51b815260206004820152601760248201527f5665726966696572206e6f7420726567697374657265640000000000000000006044820152606490fdfe9016d09d72d40fdae2fd8ceac6b6234c7706214fd39c1cd1e609a0528c199300a264697066735822122061b4ac0c403661bf7c384cfadd2cfcc4c26630c1c1b3b4c1b232db005282ef3164736f6c63430008140033",
          "opcodes": "PUSH1 0x80 DUP1 PUSH1 0x40 MSTORE CALLVALUE PUSH2 0x16 JUMPI PUSH2 0xE57 SWAP1 DUP2 PUSH2 0x1C DUP3 CODECOPY RETURN JUMPDEST PUSH1 0x0 DUP1 REVERT INVALID PUSH1 0x40 PUSH1 0x80 DUP2 MSTORE PUSH1 0x4 DUP1 CALLDATASIZE LT ISZERO PUSH2 0x14 JUMPI PUSH1 0x0 DUP1 REVERT JUMPDEST PUSH1 0x0 SWAP2 DUP3 CALLDATALOAD PUSH1 0xE0 SHR SWAP2 DUP3 PUSH4 0xE1FB4CA EQ PUSH2 0x79D JUMPI DUP3 PUSH4 0x1C4DADA3 EQ PUSH2 0x562 JUMPI DUP3 PUSH4 0x54FD4D50 EQ PUSH2 0x51D JUMPI DUP3 PUSH4 0x55F32817 EQ PUSH2 0x429 JUMPI DUP3 PUSH4 0x6C824487 EQ PUSH2 0x3EC JUMPI DUP3 PUSH4 0x715018A6 EQ PUSH2 0x382 JUMPI DUP3 PUSH4 0x8DA5CB5B EQ PUSH2 0x34C JUMPI DUP3 PUSH4 0xA3E0851D EQ PUSH2 0x1F7 JUMPI DUP3 PUSH4 0xC4D66DE8 EQ PUSH2 0xC0 JUMPI POP POP PUSH4 0xF2FDE38B EQ PUSH2 0x91 JUMPI PUSH1 0x0 DUP1 REVERT JUMPDEST CALLVALUE PUSH2 0xBD JUMPI PUSH1 0x20 CALLDATASIZE PUSH1 0x3 NOT ADD SLT PUSH2 0xBD JUMPI PUSH2 0xBA PUSH2 0xAD PUSH2 0x9AF JUMP JUMPDEST PUSH2 0xB5 PUSH2 0xBE1 JUMP JUMPDEST PUSH2 0xC1A JUMP JUMPDEST DUP1 RETURN JUMPDEST DUP1 REVERT JUMPDEST SWAP1 SWAP2 POP CALLVALUE PUSH2 0x1F3 JUMPI PUSH1 0x20 CALLDATASIZE PUSH1 0x3 NOT ADD SLT PUSH2 0x1F3 JUMPI PUSH2 0xDC PUSH2 0x9AF JUMP JUMPDEST SWAP1 PUSH32 0xF0C57E16840DF040F15088DC2F81FE391C3923BEC73E23A9662EFC9C229C6A00 SWAP2 DUP3 SLOAD PUSH1 0xFF DUP2 DUP7 SHR AND ISZERO SWAP3 PUSH8 0xFFFFFFFFFFFFFFFF DUP3 AND DUP1 ISZERO SWAP1 DUP2 PUSH2 0x1EB JUMPI JUMPDEST PUSH1 0x1 EQ SWAP1 DUP2 PUSH2 0x1E1 JUMPI JUMPDEST ISZERO SWAP1 DUP2 PUSH2 0x1D8 JUMPI JUMPDEST POP PUSH2 0x1CA JUMPI POP PUSH8 0xFFFFFFFFFFFFFFFF NOT DUP2 AND PUSH1 0x1 OR DUP5 SSTORE PUSH2 0x162 SWAP2 SWAP1 DUP4 PUSH2 0x1AB JUMPI JUMPDEST POP PUSH2 0x15A PUSH2 0xC8E JUMP JUMPDEST PUSH2 0xB5 PUSH2 0xC8E JUMP JUMPDEST PUSH2 0x16A JUMPI DUP3 DUP1 RETURN JUMPDEST DUP1 SLOAD PUSH9 0xFF0000000000000000 NOT AND SWAP1 SSTORE MLOAD PUSH1 0x1 DUP2 MSTORE PUSH32 0xC7F505B2F371AE2175EE4913F4499E1F2633A7B5936321EED1CDAEB6115181D2 SWAP1 PUSH1 0x20 SWAP1 LOG1 CODESIZE DUP1 DUP3 DUP1 RETURN JUMPDEST PUSH9 0xFFFFFFFFFFFFFFFFFF NOT AND PUSH9 0x10000000000000001 OR DUP5 SSTORE CODESIZE PUSH2 0x151 JUMP JUMPDEST DUP6 MLOAD PUSH4 0xF92EE8A9 PUSH1 0xE0 SHL DUP2 MSTORE REVERT JUMPDEST SWAP1 POP ISZERO CODESIZE PUSH2 0x12F JUMP JUMPDEST ADDRESS EXTCODESIZE ISZERO SWAP2 POP PUSH2 0x127 JUMP JUMPDEST DUP6 SWAP2 POP PUSH2 0x11D JUMP JUMPDEST DUP3 DUP1 REVERT JUMPDEST POP DUP3 CALLVALUE PUSH2 0xBD JUMPI PUSH1 0x20 SWAP2 DUP3 PUSH1 0x3 NOT CALLDATASIZE ADD SLT PUSH2 0x348 JUMPI PUSH2 0x214 PUSH2 0x9AF JUMP JUMPDEST PUSH1 0x60 DUP5 DUP4 MLOAD PUSH2 0x222 DUP2 PUSH2 0x9CA JUMP JUMPDEST DUP6 DUP2 MSTORE ADD MSTORE PUSH1 0x1 PUSH1 0x1 PUSH1 0xA0 SHL SUB AND DUP3 MSTORE DUP2 DUP4 MSTORE DUP1 DUP3 KECCAK256 DUP2 MLOAD SWAP3 PUSH2 0x244 DUP5 PUSH2 0x9CA JUMP JUMPDEST PUSH1 0xFF DUP3 SLOAD AND ISZERO ISZERO DUP5 MSTORE PUSH1 0x1 DUP1 SWAP3 ADD SWAP2 DUP3 SLOAD PUSH2 0x25E DUP2 PUSH2 0xA1E JUMP JUMPDEST SWAP4 PUSH2 0x26B DUP7 MLOAD SWAP6 DUP7 PUSH2 0x9FC JUMP JUMPDEST DUP2 DUP6 MSTORE DUP4 MSTORE DUP7 DUP4 KECCAK256 DUP4 SWAP1 DUP9 DUP7 ADD JUMPDEST DUP4 DUP4 LT PUSH2 0x2AF JUMPI DUP9 DUP11 ADD DUP8 DUP2 MSTORE DUP9 MLOAD DUP12 DUP2 MSTORE DUP11 MLOAD ISZERO ISZERO DUP2 DUP14 ADD MSTORE SWAP1 MLOAD DUP2 DUP11 ADD DUP11 SWAP1 MSTORE DUP2 SWAP1 PUSH2 0x2AB SWAP1 PUSH1 0x60 DUP4 ADD SWAP1 PUSH2 0xB85 JUMP JUMPDEST SUB SWAP1 RETURN JUMPDEST DUP5 DUP11 DUP10 MLOAD SWAP3 DUP9 SWAP4 DUP6 SLOAD PUSH2 0x2C1 DUP2 PUSH2 0xCCF JUMP JUMPDEST DUP1 DUP4 MSTORE SWAP1 DUP6 DUP2 AND SWAP1 DUP2 ISZERO PUSH2 0x32C JUMPI POP PUSH1 0x1 EQ PUSH2 0x2F4 JUMPI JUMPDEST POP PUSH2 0x2E6 DUP2 DUP6 SWAP7 SUB DUP3 PUSH2 0x9FC JUMP JUMPDEST DUP2 MSTORE ADD SWAP3 ADD SWAP3 ADD SWAP2 SWAP1 PUSH2 0x279 JUMP JUMPDEST DUP7 DUP12 MSTORE DUP4 DUP12 KECCAK256 DUP12 SWAP7 POP JUMPDEST DUP2 DUP8 LT PUSH2 0x315 JUMPI POP POP SWAP4 DUP5 ADD DUP3 ADD SWAP4 PUSH2 0x2E6 PUSH2 0x2D8 JUMP JUMPDEST DUP1 SLOAD DUP4 DUP9 ADD DUP7 ADD MSTORE SWAP4 SWAP1 SWAP6 ADD SWAP5 DUP10 SWAP5 DUP16 SWAP5 ADD PUSH2 0x2FE JUMP JUMPDEST PUSH1 0xFF NOT AND DUP6 DUP5 ADD MSTORE POP ISZERO ISZERO PUSH1 0x5 SHL DUP2 ADD DUP4 ADD SWAP5 POP PUSH2 0x2E6 PUSH2 0x2D8 JUMP JUMPDEST POP DUP1 REVERT JUMPDEST DUP4 DUP3 CALLVALUE PUSH2 0x348 JUMPI DUP2 PUSH1 0x3 NOT CALLDATASIZE ADD SLT PUSH2 0x348 JUMPI PUSH1 0x0 DUP1 MLOAD PUSH1 0x20 PUSH2 0xE02 DUP4 CODECOPY DUP2 MLOAD SWAP2 MSTORE SLOAD SWAP1 MLOAD PUSH1 0x1 PUSH1 0x1 PUSH1 0xA0 SHL SUB SWAP1 SWAP2 AND DUP2 MSTORE PUSH1 0x20 SWAP1 RETURN JUMPDEST DUP4 CALLVALUE PUSH2 0xBD JUMPI DUP1 PUSH1 0x3 NOT CALLDATASIZE ADD SLT PUSH2 0xBD JUMPI PUSH2 0x39B PUSH2 0xBE1 JUMP JUMPDEST PUSH1 0x0 DUP1 MLOAD PUSH1 0x20 PUSH2 0xE02 DUP4 CODECOPY DUP2 MLOAD SWAP2 MSTORE DUP1 SLOAD PUSH1 0x1 PUSH1 0x1 PUSH1 0xA0 SHL SUB NOT DUP2 AND SWAP1 SWAP2 SSTORE DUP2 SWAP1 PUSH1 0x1 PUSH1 0x1 PUSH1 0xA0 SHL SUB AND PUSH32 0x8BE0079C531659141344CD1FD0A4F28419497F9722A3DAAFE3B4186F6B6457E0 DUP3 DUP1 LOG3 DUP1 RETURN JUMPDEST DUP4 DUP3 CALLVALUE PUSH2 0x348 JUMPI PUSH1 0x20 CALLDATASIZE PUSH1 0x3 NOT ADD SLT PUSH2 0x348 JUMPI PUSH1 0x20 SWAP2 PUSH1 0xFF SWAP1 DUP3 SWAP1 PUSH1 0x1 PUSH1 0x1 PUSH1 0xA0 SHL SUB PUSH2 0x417 PUSH2 0x9AF JUMP JUMPDEST AND DUP2 MSTORE DUP1 DUP6 MSTORE KECCAK256 SLOAD AND SWAP1 MLOAD SWAP1 ISZERO ISZERO DUP2 MSTORE RETURN JUMPDEST DUP4 DUP3 CALLVALUE PUSH2 0x348 JUMPI PUSH1 0x20 DUP1 PUSH1 0x3 NOT CALLDATASIZE ADD SLT PUSH2 0x1F3 JUMPI PUSH2 0x445 PUSH2 0x9AF JUMP JUMPDEST PUSH2 0x44D PUSH2 0xBE1 JUMP JUMPDEST PUSH1 0x1 PUSH1 0x1 PUSH1 0xA0 SHL SUB AND DUP1 DUP5 MSTORE DUP4 DUP3 MSTORE DUP3 DUP5 KECCAK256 SLOAD SWAP1 SWAP3 SWAP1 PUSH2 0x46F SWAP1 PUSH1 0xFF AND PUSH2 0xDB5 JUMP JUMPDEST DUP3 DUP5 MSTORE DUP4 DUP3 MSTORE DUP4 KECCAK256 SWAP1 DUP4 DUP3 SSTORE PUSH1 0x1 DUP1 SWAP3 ADD SWAP1 DUP2 SLOAD SWAP2 DUP6 DUP2 SSTORE DUP3 PUSH2 0x4B6 JUMPI JUMPDEST DUP6 DUP6 PUSH32 0x179D784BD033412E105437D6852EC26971AD53D1D4D2C3A05C1A1809EE55BC16 DUP3 DUP1 LOG2 DUP1 RETURN JUMPDEST DUP6 MSTORE DUP1 DUP6 KECCAK256 SWAP2 DUP3 ADD SWAP2 JUMPDEST DUP3 DUP2 LT ISZERO PUSH2 0x48D JUMPI DUP1 DUP7 PUSH2 0x4D5 DUP7 SWAP4 SLOAD PUSH2 0xCCF JUMP JUMPDEST DUP1 PUSH2 0x4E3 JUMPI JUMPDEST POP POP ADD PUSH2 0x4C0 JUMP JUMPDEST PUSH1 0x1F DUP1 DUP3 GT PUSH1 0x1 EQ PUSH2 0x4FB JUMPI POP POP DUP2 SSTORE JUMPDEST DUP7 DUP9 PUSH2 0x4DB JUMP JUMPDEST PUSH2 0x514 SWAP1 DUP5 DUP5 MSTORE DUP7 DUP5 KECCAK256 SWAP3 ADD PUSH1 0x5 SHR DUP3 ADD DUP6 DUP4 ADD PUSH2 0xD09 JUMP JUMPDEST DUP2 DUP4 SSTORE SSTORE PUSH2 0x4F4 JUMP JUMPDEST DUP4 DUP3 CALLVALUE PUSH2 0x348 JUMPI DUP2 PUSH1 0x3 NOT CALLDATASIZE ADD SLT PUSH2 0x348 JUMPI DUP1 MLOAD PUSH2 0x2AB SWAP2 PUSH2 0x53E DUP3 PUSH2 0x9CA JUMP JUMPDEST PUSH1 0x5 DUP3 MSTORE PUSH5 0x312E302E3 PUSH1 0xDC SHL PUSH1 0x20 DUP4 ADD MSTORE MLOAD SWAP2 DUP3 SWAP2 PUSH1 0x20 DUP4 MSTORE PUSH1 0x20 DUP4 ADD SWAP1 PUSH2 0xB45 JUMP JUMPDEST SWAP1 SWAP2 POP CALLVALUE PUSH2 0x1F3 JUMPI PUSH2 0x573 CALLDATASIZE PUSH2 0xA36 JUMP JUMPDEST SWAP1 PUSH1 0x1 DUP1 PUSH1 0xA0 SHL SUB DUP1 SWAP2 AND SWAP3 DUP4 DUP7 MSTORE PUSH1 0x20 SWAP2 DUP7 DUP4 MSTORE PUSH2 0x597 PUSH1 0xFF DUP8 DUP10 KECCAK256 SLOAD AND PUSH2 0xDB5 JUMP JUMPDEST DUP5 CALLER EQ SWAP1 DUP2 ISZERO PUSH2 0x782 JUMPI JUMPDEST POP ISZERO PUSH2 0x72D JUMPI DUP4 DUP7 MSTORE DUP6 DUP3 MSTORE PUSH1 0x1 SWAP1 DUP2 DUP7 DUP9 KECCAK256 ADD DUP5 MLOAD SWAP2 PUSH2 0x5C3 DUP4 DUP4 PUSH2 0xD20 JUMP JUMPDEST SWAP1 DUP9 MSTORE DUP4 DUP9 KECCAK256 DUP9 SWAP2 DUP7 DUP7 ADD JUMPDEST DUP5 DUP5 LT PUSH2 0x614 JUMPI DUP11 DUP10 PUSH32 0xF671E18862549EC4D8019CC59F3AB1CFEF01EA6B7F5F1B73BEF2ED1BEBC5876 DUP11 DUP11 PUSH2 0x60E DUP16 MLOAD SWAP3 DUP3 DUP5 SWAP4 DUP5 MSTORE DUP4 ADD SWAP1 PUSH2 0xB85 JUMP JUMPDEST SUB SWAP1 LOG2 DUP1 RETURN JUMPDEST DUP1 MLOAD SWAP1 DUP2 MLOAD PUSH8 0xFFFFFFFFFFFFFFFF DUP2 GT PUSH2 0x71A JUMPI DUP8 SWAP2 DUP10 SWAP2 DUP15 PUSH2 0x637 DUP9 SLOAD PUSH2 0xCCF JUMP JUMPDEST SWAP1 PUSH1 0x1F SWAP2 DUP3 DUP2 GT PUSH2 0x6E4 JUMPI JUMPDEST POP DUP5 SWAP2 DUP4 GT PUSH1 0x1 EQ PUSH2 0x683 JUMPI SWAP1 DUP6 SWAP7 DUP4 PUSH2 0x678 JUMPI JUMPDEST POP POP PUSH1 0x0 NOT PUSH1 0x3 DUP4 SWAP1 SHL SHR NOT AND SWAP1 DUP5 SHL OR DUP7 SSTORE JUMPDEST ADD SWAP4 ADD SWAP4 ADD SWAP3 SWAP2 PUSH2 0x5CF JUMP JUMPDEST ADD MLOAD SWAP1 POP CODESIZE DUP1 PUSH2 0x658 JUMP JUMPDEST SWAP1 PUSH1 0x1F NOT DUP4 AND DUP10 DUP4 MSTORE DUP6 DUP4 KECCAK256 SWAP3 JUMPDEST DUP2 DUP2 LT PUSH2 0x6CD JUMPI POP SWAP1 DUP7 SWAP8 DUP5 DUP9 SWAP6 SWAP5 SWAP4 LT PUSH2 0x6B4 JUMPI JUMPDEST POP POP POP DUP2 SHL ADD DUP7 SSTORE PUSH2 0x66C JUMP JUMPDEST ADD MLOAD PUSH1 0x0 NOT PUSH1 0xF8 DUP5 PUSH1 0x3 SHL AND SHR NOT AND SWAP1 SSTORE CODESIZE DUP1 DUP1 PUSH2 0x6A7 JUMP JUMPDEST DUP3 DUP10 ADD MLOAD DUP5 SSTORE DUP14 SWAP8 DUP16 SWAP8 SWAP5 ADD SWAP4 SWAP3 DUP4 ADD SWAP3 ADD PUSH2 0x691 JUMP JUMPDEST PUSH2 0x70B SWAP1 DUP11 DUP4 MSTORE DUP7 DUP4 KECCAK256 PUSH1 0x5 DUP6 DUP1 DUP9 ADD DUP3 SHR DUP4 ADD SWAP4 DUP11 DUP10 LT PUSH2 0x711 JUMPI JUMPDEST ADD SWAP1 SHR ADD SWAP1 PUSH2 0xD09 JUMP JUMPDEST CODESIZE PUSH2 0x643 JUMP JUMPDEST SWAP4 POP DUP3 SWAP4 PUSH2 0x701 JUMP JUMPDEST PUSH4 0x4E487B71 PUSH1 0xE0 SHL DUP14 MSTORE PUSH1 0x41 DUP5 MSTORE PUSH1 0x24 DUP14 REVERT JUMPDEST PUSH1 0x84 SWAP2 DUP6 MLOAD SWAP2 PUSH3 0x461BCD PUSH1 0xE5 SHL DUP4 MSTORE DUP3 ADD MSTORE PUSH1 0x2B PUSH1 0x24 DUP3 ADD MSTORE PUSH32 0x4F6E6C7920746865207665726966696572206F72206F776E65722063616E2075 PUSH1 0x44 DUP3 ADD MSTORE PUSH11 0x7064617465207065657273 PUSH1 0xA8 SHL PUSH1 0x64 DUP3 ADD MSTORE REVERT JUMPDEST SWAP1 POP PUSH1 0x0 DUP1 MLOAD PUSH1 0x20 PUSH2 0xE02 DUP4 CODECOPY DUP2 MLOAD SWAP2 MSTORE SLOAD AND CALLER EQ CODESIZE PUSH2 0x5A2 JUMP JUMPDEST SWAP2 POP CALLVALUE PUSH2 0x1F3 JUMPI PUSH2 0x7AD CALLDATASIZE PUSH2 0xA36 JUMP JUMPDEST SWAP1 PUSH2 0x7B6 PUSH2 0xBE1 JUMP JUMPDEST PUSH1 0x1 PUSH1 0x1 PUSH1 0xA0 SHL SUB AND DUP1 DUP6 MSTORE PUSH1 0x20 DUP6 DUP2 MSTORE DUP4 DUP7 KECCAK256 SLOAD SWAP2 SWAP5 SWAP2 PUSH1 0xFF AND PUSH2 0x96D JUMPI DUP4 SWAP3 SWAP2 SWAP3 MLOAD SWAP4 PUSH2 0x7E4 DUP6 PUSH2 0x9CA JUMP JUMPDEST PUSH1 0x1 SWAP5 DUP6 SWAP2 DUP3 DUP3 MSTORE DUP4 DUP3 ADD SWAP5 DUP6 MSTORE DUP8 DUP10 MSTORE DUP9 DUP5 MSTORE DUP9 KECCAK256 SWAP1 MLOAD ISZERO ISZERO PUSH1 0xFF DUP1 NOT DUP4 SLOAD AND SWAP2 AND OR DUP2 SSTORE ADD SWAP2 MLOAD SWAP3 DUP2 DUP5 MLOAD SWAP5 PUSH2 0x81C DUP7 DUP7 PUSH2 0xD20 JUMP JUMPDEST ADD SWAP3 DUP8 MSTORE DUP2 DUP8 KECCAK256 SWAP1 DUP8 SWAP4 JUMPDEST DUP6 DUP6 LT PUSH2 0x857 JUMPI DUP9 DUP9 PUSH32 0x85CF819DA48B7E3C138CCA9531ADAE41F25FAEFF5801E9E096EB2C1FB3CBBAB7 DUP3 DUP1 LOG2 DUP1 RETURN JUMPDEST DUP1 MLOAD SWAP1 DUP2 MLOAD PUSH8 0xFFFFFFFFFFFFFFFF DUP2 GT PUSH2 0x95A JUMPI DUP9 SWAP2 DUP7 SWAP2 PUSH2 0x879 DUP8 SLOAD PUSH2 0xCCF JUMP JUMPDEST SWAP5 DUP14 PUSH1 0x1F SWAP7 DUP6 DUP9 DUP3 GT PUSH2 0x92E JUMPI JUMPDEST POP POP POP DUP14 DUP5 SWAP7 DUP4 GT PUSH1 0x1 EQ PUSH2 0x8CC JUMPI SWAP6 DUP3 SWAP2 DUP7 SWAP8 SWAP3 PUSH2 0x8C1 JUMPI JUMPDEST POP POP PUSH1 0x0 NOT PUSH1 0x3 DUP4 SWAP1 SHL SHR NOT AND SWAP1 DUP5 SHL OR DUP7 SSTORE JUMPDEST ADD SWAP4 ADD SWAP5 ADD SWAP4 SWAP2 PUSH2 0x827 JUMP JUMPDEST ADD MLOAD SWAP1 POP CODESIZE DUP1 PUSH2 0x8A1 JUMP JUMPDEST SWAP1 SWAP6 PUSH1 0x1F NOT DUP4 AND DUP10 DUP4 MSTORE DUP6 DUP4 KECCAK256 SWAP3 JUMPDEST DUP2 DUP2 LT PUSH2 0x917 JUMPI POP SWAP1 DUP7 SWAP8 DUP5 DUP9 SWAP6 SWAP5 SWAP4 LT PUSH2 0x8FE JUMPI JUMPDEST POP POP POP DUP2 SHL ADD DUP7 SSTORE PUSH2 0x8B5 JUMP JUMPDEST ADD MLOAD PUSH1 0x0 NOT PUSH1 0xF8 DUP5 PUSH1 0x3 SHL AND SHR NOT AND SWAP1 SSTORE CODESIZE DUP1 DUP1 PUSH2 0x8F1 JUMP JUMPDEST DUP3 DUP10 ADD MLOAD DUP5 SSTORE DUP15 SWAP8 DUP13 SWAP8 SWAP5 ADD SWAP4 SWAP3 DUP4 ADD SWAP3 ADD PUSH2 0x8DB JUMP JUMPDEST DUP3 DUP12 PUSH2 0x952 SWAP5 MSTORE KECCAK256 PUSH1 0x5 DUP10 DUP1 DUP8 ADD DUP3 SHR DUP4 ADD SWAP4 DUP10 DUP9 LT PUSH2 0x711 JUMPI ADD SWAP1 SHR ADD SWAP1 PUSH2 0xD09 JUMP JUMPDEST DUP14 CODESIZE DUP6 PUSH2 0x887 JUMP JUMPDEST PUSH4 0x4E487B71 PUSH1 0xE0 SHL DUP12 MSTORE PUSH1 0x41 DUP5 MSTORE PUSH1 0x24 DUP12 REVERT JUMPDEST DUP4 MLOAD PUSH3 0x461BCD PUSH1 0xE5 SHL DUP2 MSTORE SWAP2 DUP3 ADD MSTORE PUSH1 0x1B PUSH1 0x24 DUP3 ADD MSTORE PUSH32 0x566572696669657220616C726561647920726567697374657265640000000000 PUSH1 0x44 DUP3 ADD MSTORE PUSH1 0x64 SWAP2 POP REVERT JUMPDEST PUSH1 0x4 CALLDATALOAD SWAP1 PUSH1 0x1 PUSH1 0x1 PUSH1 0xA0 SHL SUB DUP3 AND DUP3 SUB PUSH2 0x9C5 JUMPI JUMP JUMPDEST PUSH1 0x0 DUP1 REVERT JUMPDEST PUSH1 0x40 DUP2 ADD SWAP1 DUP2 LT PUSH8 0xFFFFFFFFFFFFFFFF DUP3 GT OR PUSH2 0x9E6 JUMPI PUSH1 0x40 MSTORE JUMP JUMPDEST PUSH4 0x4E487B71 PUSH1 0xE0 SHL PUSH1 0x0 MSTORE PUSH1 0x41 PUSH1 0x4 MSTORE PUSH1 0x24 PUSH1 0x0 REVERT JUMPDEST SWAP1 PUSH1 0x1F DUP1 NOT SWAP2 ADD AND DUP2 ADD SWAP1 DUP2 LT PUSH8 0xFFFFFFFFFFFFFFFF DUP3 GT OR PUSH2 0x9E6 JUMPI PUSH1 0x40 MSTORE JUMP JUMPDEST PUSH8 0xFFFFFFFFFFFFFFFF DUP2 GT PUSH2 0x9E6 JUMPI PUSH1 0x5 SHL PUSH1 0x20 ADD SWAP1 JUMP JUMPDEST SWAP1 PUSH1 0x40 DUP1 PUSH1 0x3 NOT DUP5 ADD SLT PUSH2 0x9C5 JUMPI PUSH1 0x4 SWAP3 DUP4 CALLDATALOAD PUSH1 0x1 PUSH1 0x1 PUSH1 0xA0 SHL SUB DUP2 AND DUP2 SUB PUSH2 0x9C5 JUMPI SWAP4 PUSH1 0x24 SWAP2 DUP3 CALLDATALOAD SWAP2 PUSH8 0xFFFFFFFFFFFFFFFF SWAP2 DUP3 DUP5 GT PUSH2 0x9C5 JUMPI DUP1 PUSH1 0x23 DUP6 ADD SLT ISZERO PUSH2 0x9C5 JUMPI DUP4 DUP3 ADD CALLDATALOAD SWAP2 PUSH2 0xA8A DUP4 PUSH2 0xA1E JUMP JUMPDEST SWAP7 PUSH2 0xA97 DUP2 MLOAD SWAP9 DUP10 PUSH2 0x9FC JUMP JUMPDEST DUP4 DUP9 MSTORE PUSH1 0x20 SWAP7 DUP1 DUP9 DUP11 ADD SWAP6 PUSH1 0x5 SHL DUP9 ADD ADD SWAP7 DUP5 DUP9 GT PUSH2 0x9C5 JUMPI DUP2 DUP2 ADD SWAP6 JUMPDEST DUP9 DUP8 LT PUSH2 0xAC9 JUMPI POP POP POP POP POP POP POP POP POP POP SWAP1 JUMP JUMPDEST DUP7 CALLDATALOAD DUP9 DUP2 GT PUSH2 0x9C5 JUMPI DUP3 ADD SWAP1 DUP7 PUSH1 0x43 DUP4 ADD SLT ISZERO PUSH2 0x9C5 JUMPI DUP4 DUP3 ADD CALLDATALOAD SWAP1 DUP10 DUP3 GT PUSH2 0xB30 JUMPI DUP6 MLOAD PUSH2 0xB01 PUSH1 0x1F DUP5 ADD PUSH1 0x1F NOT AND DUP15 ADD DUP3 PUSH2 0x9FC JUMP JUMPDEST DUP3 DUP2 MSTORE PUSH1 0x44 SWAP4 DUP10 DUP6 DUP6 DUP4 ADD ADD GT PUSH2 0x9C5 JUMPI DUP14 DUP5 DUP2 SWAP7 SWAP6 DUP3 SWAP7 PUSH1 0x0 SWAP5 ADD DUP4 DUP7 ADD CALLDATACOPY DUP4 ADD ADD MSTORE DUP2 MSTORE ADD SWAP7 ADD SWAP6 PUSH2 0xAB5 JUMP JUMPDEST PUSH4 0x4E487B71 PUSH1 0xE0 SHL PUSH1 0x0 SWAP1 DUP2 MSTORE PUSH1 0x41 DUP9 MSTORE DUP6 SWAP1 REVERT JUMPDEST SWAP2 SWAP1 DUP3 MLOAD SWAP3 DUP4 DUP3 MSTORE PUSH1 0x0 JUMPDEST DUP5 DUP2 LT PUSH2 0xB71 JUMPI POP POP DUP3 PUSH1 0x0 PUSH1 0x20 DUP1 SWAP5 SWAP6 DUP5 ADD ADD MSTORE PUSH1 0x1F DUP1 NOT SWAP2 ADD AND ADD ADD SWAP1 JUMP JUMPDEST PUSH1 0x20 DUP2 DUP4 ADD DUP2 ADD MLOAD DUP5 DUP4 ADD DUP3 ADD MSTORE ADD PUSH2 0xB50 JUMP JUMPDEST SWAP1 DUP1 DUP3 MLOAD SWAP1 DUP2 DUP2 MSTORE PUSH1 0x20 DUP1 SWAP2 ADD SWAP3 DUP2 DUP1 DUP5 PUSH1 0x5 SHL DUP4 ADD ADD SWAP6 ADD SWAP4 PUSH1 0x0 SWAP2 JUMPDEST DUP5 DUP4 LT PUSH2 0xBB3 JUMPI POP POP POP POP POP POP SWAP1 JUMP JUMPDEST SWAP1 SWAP2 SWAP3 SWAP4 SWAP5 SWAP6 DUP5 DUP1 PUSH2 0xBD1 PUSH1 0x1 SWAP4 PUSH1 0x1F NOT DUP7 DUP3 SUB ADD DUP8 MSTORE DUP11 MLOAD PUSH2 0xB45 JUMP JUMPDEST SWAP9 ADD SWAP4 ADD SWAP4 ADD SWAP2 SWAP5 SWAP4 SWAP3 SWAP1 PUSH2 0xBA3 JUMP JUMPDEST PUSH1 0x0 DUP1 MLOAD PUSH1 0x20 PUSH2 0xE02 DUP4 CODECOPY DUP2 MLOAD SWAP2 MSTORE SLOAD PUSH1 0x1 PUSH1 0x1 PUSH1 0xA0 SHL SUB AND CALLER SUB PUSH2 0xC02 JUMPI JUMP JUMPDEST PUSH1 0x40 MLOAD PUSH4 0x118CDAA7 PUSH1 0xE0 SHL DUP2 MSTORE CALLER PUSH1 0x4 DUP3 ADD MSTORE PUSH1 0x24 SWAP1 REVERT JUMPDEST PUSH1 0x1 PUSH1 0x1 PUSH1 0xA0 SHL SUB SWAP1 DUP2 AND SWAP1 DUP2 ISZERO PUSH2 0xC75 JUMPI PUSH1 0x0 DUP1 MLOAD PUSH1 0x20 PUSH2 0xE02 DUP4 CODECOPY DUP2 MLOAD SWAP2 MSTORE DUP1 SLOAD PUSH1 0x1 PUSH1 0x1 PUSH1 0xA0 SHL SUB NOT DUP2 AND DUP5 OR SWAP1 SWAP2 SSTORE AND PUSH32 0x8BE0079C531659141344CD1FD0A4F28419497F9722A3DAAFE3B4186F6B6457E0 PUSH1 0x0 DUP1 LOG3 JUMP JUMPDEST PUSH1 0x40 MLOAD PUSH4 0x1E4FBDF7 PUSH1 0xE0 SHL DUP2 MSTORE PUSH1 0x0 PUSH1 0x4 DUP3 ADD MSTORE PUSH1 0x24 SWAP1 REVERT JUMPDEST PUSH1 0xFF PUSH32 0xF0C57E16840DF040F15088DC2F81FE391C3923BEC73E23A9662EFC9C229C6A00 SLOAD PUSH1 0x40 SHR AND ISZERO PUSH2 0xCBD JUMPI JUMP JUMPDEST PUSH1 0x40 MLOAD PUSH4 0x1AFCD79F PUSH1 0xE3 SHL DUP2 MSTORE PUSH1 0x4 SWAP1 REVERT JUMPDEST SWAP1 PUSH1 0x1 DUP3 DUP2 SHR SWAP3 AND DUP1 ISZERO PUSH2 0xCFF JUMPI JUMPDEST PUSH1 0x20 DUP4 LT EQ PUSH2 0xCE9 JUMPI JUMP JUMPDEST PUSH4 0x4E487B71 PUSH1 0xE0 SHL PUSH1 0x0 MSTORE PUSH1 0x22 PUSH1 0x4 MSTORE PUSH1 0x24 PUSH1 0x0 REVERT JUMPDEST SWAP2 PUSH1 0x7F AND SWAP2 PUSH2 0xCDE JUMP JUMPDEST DUP2 DUP2 LT PUSH2 0xD14 JUMPI POP POP JUMP JUMPDEST PUSH1 0x0 DUP2 SSTORE PUSH1 0x1 ADD PUSH2 0xD09 JUMP JUMPDEST PUSH9 0x10000000000000000 DUP3 GT PUSH2 0x9E6 JUMPI DUP1 SLOAD SWAP2 DUP1 DUP3 SSTORE DUP3 DUP2 LT PUSH2 0xD42 JUMPI POP POP POP JUMP JUMPDEST PUSH1 0x0 SWAP2 DUP3 MSTORE PUSH1 0x20 SWAP1 DUP2 DUP4 KECCAK256 SWAP4 DUP5 ADD SWAP4 ADD JUMPDEST DUP4 DUP2 LT PUSH2 0xD60 JUMPI POP POP POP POP JUMP JUMPDEST DUP1 DUP4 PUSH2 0xD6E PUSH1 0x1 SWAP4 SLOAD PUSH2 0xCCF JUMP JUMPDEST DUP1 PUSH2 0xD7C JUMPI JUMPDEST POP POP ADD PUSH2 0xD53 JUMP JUMPDEST PUSH1 0x1F DUP1 DUP3 GT DUP6 EQ PUSH2 0xD93 JUMPI POP POP DUP2 SSTORE JUMPDEST DUP4 CODESIZE PUSH2 0xD74 JUMP JUMPDEST PUSH2 0xDAC SWAP1 DUP5 DUP5 MSTORE DUP7 DUP5 KECCAK256 SWAP3 ADD PUSH1 0x5 SHR DUP3 ADD DUP6 DUP4 ADD PUSH2 0xD09 JUMP JUMPDEST DUP2 DUP4 SSTORE SSTORE PUSH2 0xD8C JUMP JUMPDEST ISZERO PUSH2 0xDBC JUMPI JUMP JUMPDEST PUSH1 0x40 MLOAD PUSH3 0x461BCD PUSH1 0xE5 SHL DUP2 MSTORE PUSH1 0x20 PUSH1 0x4 DUP3 ADD MSTORE PUSH1 0x17 PUSH1 0x24 DUP3 ADD MSTORE PUSH32 0x5665726966696572206E6F742072656769737465726564000000000000000000 PUSH1 0x44 DUP3 ADD MSTORE PUSH1 0x64 SWAP1 REVERT INVALID SWAP1 AND 0xD0 SWAP14 PUSH19 0xD40FDAE2FD8CEAC6B6234C7706214FD39C1CD1 0xE6 MULMOD LOG0 MSTORE DUP13 NOT SWAP4 STOP LOG2 PUSH5 0x6970667358 0x22 SLT KECCAK256 PUSH2 0xB4AC 0xC BLOCKHASH CALLDATASIZE PUSH2 0xBF7C CODESIZE 0x4C STATICCALL 0xDD 0x2C 0xFC 0xC4 0xC2 PUSH7 0x30C1C1B3B4C1B2 ORIGIN 0xDB STOP MSTORE DUP3 0xEF BALANCE PUSH5 0x736F6C6343 STOP ADDMOD EQ STOP CALLER "
        },
        "methodIdentifiers": {
          "deleteVerifier(address)": "55f32817",
          "getVerifierInfo(address)": "a3e0851d",
          "initialize(address)": "c4d66de8",
          "owner()": "8da5cb5b",
          "registerVerifier(address,string[])": "0e1fb4ca",
          "renounceOwnership()": "715018a6",
          "transferOwnership(address)": "f2fde38b",
          "updateVerifierPeers(address,string[])": "1c4dada3",
          "verifiers(address)": "6c824487",
          "version()": "54fd4d50"
        }
      },
      "storageLayout": {
        "storage": [
          {
            "astId": 1168,
            "contract": "contracts/SubnetVerifier.sol:SubnetVerifier",
            "label": "verifiers",
            "offset": 0,
            "slot": "0",
            "type": "t_mapping(t_address,t_struct(VerifierInfo)1163_storage)"
          }
        ],
        "types": {
          "t_address": {
            "encoding": "inplace",
            "label": "address",
            "numberOfBytes": "20"
          },
          "t_array(t_string_storage)dyn_storage": {
            "base": "t_string_storage",
            "encoding": "dynamic_array",
            "label": "string[]",
            "numberOfBytes": "32"
          },
          "t_bool": {
            "encoding": "inplace",
            "label": "bool",
            "numberOfBytes": "1"
          },
          "t_mapping(t_address,t_struct(VerifierInfo)1163_storage)": {
            "encoding": "mapping",
            "key": "t_address",
            "label": "mapping(address => struct SubnetVerifier.VerifierInfo)",
            "numberOfBytes": "32",
            "value": "t_struct(VerifierInfo)1163_storage"
          },
          "t_string_storage": {
            "encoding": "bytes",
            "label": "string",
            "numberOfBytes": "32"
          },
          "t_struct(VerifierInfo)1163_storage": {
            "encoding": "inplace",
            "label": "struct SubnetVerifier.VerifierInfo",
            "members": [
              {
                "astId": 1159,
                "contract": "contracts/SubnetVerifier.sol:SubnetVerifier",
                "label": "isRegistered",
                "offset": 0,
                "slot": "0",
                "type": "t_bool"
              },
              {
                "astId": 1162,
                "contract": "contracts/SubnetVerifier.sol:SubnetVerifier",
                "label": "peerIds",
                "offset": 0,
                "slot": "1",
                "type": "t_array(t_string_storage)dyn_storage"
              }
            ],
            "numberOfBytes": "64"
          }
        }
      }
    }
  }
}